:1000000023C300003DC300003BC3000039C3000010
:1000100037C3000035C3000033C3000031C3000004
:100020002FC300002DC300002BC3000029C3000014
:1000300027C3000025C3000023C3000021C3000024
:100040001FC300001DC300001BC3000019C3000034
:1000500017C3000015C300000C945A1111C300000F
:100060000FC300000DC300000BC3000009C3000054
:1000700007C3000005C3000003C3000001C3000064
:10008000FFC20000FDC200000C941611F9C200006E
:10009000F7C20000F5C20000F3C20000F1C2000088
:1000A000EFC20000EDC20000EBC20000E9C2000098
:1000B000E7C20000E5C20000E3C20000E1C20000A8
:1000C000DFC20000DDC20000DBC20000D9C20000B8
:1000D000D7C20000D5C20000D3C20000D1C20000C8
:1000E000CFC20000CDC20000CBC20000C9C20000D8
:1000F000C7C20000C5C20000C3C20000C1C20000E8
:10010000BFC20000BDC20000BBC20000B9C20000F7
:10011000B7C20000B5C20000B3C20000B1C2000007
:10012000AFC20000ADC20000ABC20000A9C2000017
:10013000A7C20000A5C20000A3C20000A1C2000027
:100140009FC200009DC200009BC200000C94FE11E3
:1001500097C2000095C2000093C2000091C2000047
:100160008FC200008DC200008BC2000089C2000057
:1001700087C2000085C2000083C2000081C2000067
:100180007FC200007DC200007BC2000079C2000077
:1001900077C2000075C2000073C2000071C2000087
:1001A0006FC200006DC200006BC2000069C2000097
:1001B00067C2000065C2000063C2000061C20000A7
:1001C0005FC200005DC200005BC2000059C20000B7
:1001D00057C2000055C2000053C2000051C20000C7
:1001E0004FC200004DC200004BC2000049C20000D7
:1001F00047C200000C94EA2243C200001C034C00DA
:100200005500460041002000430044004300200008
:10021000440065006D006F00000018034400650095
:1002200061006E002000430061006D0065007200F7
:10023000610000000403090409023E00020100C03D
:10024000320904000001020201000524001001042B
:100250002402060524060001070582030800FF09A1
:10026000040100020A00000007050402100005074F
:100270000583021000051201100102000008EB03C3
:10028000442001000102DC01004E4F4E45000000F9
:100290000000000000000000002C042D042E042F9C
:1002A00004300431043404350400000001014D46DB
:1002B0005F434C41535349435F314B0000000713E8
:1002C0003F13B813D213D613D713B518BB180004B5
:1002D0000400024D465F434C41535349435F344B46
:1002E00000000007133F13C513D213D613D713B55D
:1002F00018BB18001004004E4F4E450000000000CF
:1003000000000000000000000000000000000000ED
:10031000000000000000005549445F52414E444F28
:100320004D00000000000000000000000000000080
:10033000000000000000005549445F4C4546545FF2
:10034000494E4352454D454E540000000000000008
:10035000000000000000005549445F5249474854DE
:100360005F494E4352454D454E5400000000000089
:10037000000000000000005549445F4C4546545FB2
:1003800044454352454D454E5400000000000000D6
:10039000000000000000005549445F52494748549E
:1003A0005F44454352454D454E5400000000000057
:1003B000000000000000004368616D656C656F6EB1
:1003C0002D4D696E69202553207573696E67204C29
:1003D00055464120255320636F6D70696C6564201C
:1003E00077697468204156522D47434320255300B6
:1003F0003133313232320031333039303100342E42
:10040000362E320025730052414E444F4D00257563
:1004100000257500253575206D5600564552534907
:100420004F4E0000000000000000000000000074BB
:100430000B434F4E464947000000000000000000FB
:1004400000CE0BC60BA10B55494400000000000074
:10045000000000000000000000F90BD30B524541E2
:10046000444F4E4C59000000000000000000005CAA
:100470000C4D0C55504C4F41440000000000000052
:10048000000000720C00000000444F574E4C4F41DA
:10049000440000000000000000770C000000005243
:1004A0004553455400000000000000000000007C9F
:1004B0000C00000000555047524144450000000028
:1004C0000000000000870C000000004D454D53491E
:1004D0005A450000000000000000000000000092EB
:1004E0000C55494453495A450000000000000000E3
:1004F0000000000000B90C425554544F4E0000005B
:1005000000000000000000DE0CE80CE30C53455432
:1005100054494E470000000000000000000000F5B4
:100520000CF00C434C45415200000000000000005C
:10053000000000FD0C0000000048454C5000000089
:10054000000000000000000000000D00000000524C
:1005500053534900000000000000000000000000AC
:100560000000004D0D000000000000000000000031
:1005700000000000000000000000000D0A000D0A4D
:1005800000643130303A4F4B0000000000000000A2
:10059000000000000000000000000000000000005B
:1005A0000000653130313A4F4B20574954482054B0
:1005B000455854000000000000000000000000004A
:1005C0000000006E3131303A57414954494E4720BE
:1005D000464F5220584D4F44454D0000000000004A
:1005E00000000000C83230303A554E4B4E4F574E47
:1005F00020434F4D4D414E440000000000000000DC
:100600000000000000C93230313A494E56414C4991
:100610004420434F4D4D414E4420555341474500E2
:10062000000000000000CA3230323A494E56414CB8
:10063000494420504152414D45544552000000006C
:10064000000000000000000011241FBECFEFDFE219
:10065000DEBFCDBF10E2A0E0B0E2EEE9F2E502C0FD
:1006600005900D92A23AB107D9F716E2A2EAB0E2DC
:1006700001C01D92AD3AB107E1F703D00C944D29AA
:100680006FC074D0F2D680E3E0E0F6E081834ED212
:1006900016D1B3D79CD173D5E0E0F2E081E080932E
:1006A0000002118292E0928393E0948380A388E316
:1006B00081A3CCD0C0E0DAE0FF24F39400E016E0A0
:1006C000A1D7E091FB20F091FC200995E091012158
:1006D000F0910221099580910C0A80FFF1CFFC86F0
:1006E00091D1B1D753D58091A320F8018683109280
:1006F000A320E6CF9230F9F09330A1F0913049F089
:1007000080E090E0E0E0F0E0DA01ED93FC931197F7
:10071000089582E190E0E6E7F2E0DA01ED93FC93E0
:1007200011970895813081F0813098F4E4E3F2E08C
:10073000849190E0E9CF8EE390E0E8E3F2E0DA0123
:10074000ED93FC9311970895EAE1F2E0849190E033
:10075000DBCF8230A9F6ECEFF1E0849190E0D4CFCA
:100760001F920F920FB60F921124FFCF8091780045
:1007700083FF0AC088E08093780088ED84BF81E021
:1007800080938000FD95FEC080915000866080932C
:1007900050008091510081FFFCCF8091510082FF79
:1007A000FCCFE0E5F0E0168221E02093600088EDC8
:1007B00084BF2093400083ED90E3E0E0FAE086A35D
:1007C00097A386E08093000AE0E4F0E0238320937F
:1007D00000048091CC018860E0ECF1E0848708950A
:1007E00088ED84BF81E0E8E7F0E08183089588ED3B
:1007F00084BF8BE18093800008958BECE0E5F0E00E
:1008000082838091500088608093500080915100D5
:1008100083FFFCCF84ECE0E5F0E08583809150001D
:100820008061809350008091510084FFFCCF089537
:10083000E0E4F0E084818E7F8483E0E5F0E0808175
:100840008F7E80838081877F8083089587E0E0EAC0
:10085000F0E08283789408950895089508950895A6
:10086000089580E090E0089508950895E0910E21A4
:10087000F0910F21818390E09C01220F331F220F02
:10088000331FB901660F771F660F771F660F771F3B
:10089000620F731F680F791F68577D4F88EE90E2D3
:1008A00045E250E00E94E225E091FD20F091FE201B
:1008B0000995E091F920F091FA2009950895E091C9
:1008C0000E21F0910F218181D1CF0F931F93CF93F0
:1008D000DF93AC0120E030E08C010F5F1F4F622FEF
:1008E000C901880F991F880F991FFC01EE0FFF1F88
:1008F000EE0FFF1FEE0FFF1FE80FF91FE20FF31FB0
:10090000E757FD4F8491DA01882359F09C91992390
:1009100059F0981749F4E80131961196849188238B
:1009200071F48C91882389F02F5F3F4F233031057C
:10093000B1F680E0DF91CF911F910F9108959991C9
:10094000992391F3981741F3EFCF862F8FDF81E042
:10095000DF91CF911F910F910895CF93DF93EC0119
:100960006150704020E030E04CE2C901880F991FCF
:10097000880F991FFC01EE0FFF1FEE0FFF1FEE0FF8
:10098000FF1FE80FF91FE20FF31FE757FD4F849198
:10099000882381F06131710568F0DE0103C06031A8
:1009A000710541F08D93ED01319661507040849155
:1009B0008823A9F72230310521F41882DF91CF91E5
:1009C00008954993615070402F5F3F4FCECF0895F7
:1009D0000C94D42508950F931F93CF93DF93662330
:1009E00061F08C010F5F1F4F6150060F111DEC016C
:1009F000EFDF8993C017D107D9F7DF91CF911F910E
:100A00000F9108950E94D4250E94D4250E94D425D8
:100A10000C94D425CF93DF93FC012115310581F18E
:100A2000615070406230710558F1DA0140E050E0E9
:100A300018C0D05DD0838C2F90E08F7090708A307A
:100A40009105D4F48C2F8F70805D818332964E5F38
:100A50005F4F21503040B1F06250704062307105FC
:100A600088F0CD91DC2FD295DF708D2F90E08A3009
:100A70009105FCF2D95CDECF8C2F8F70895CE5CFBD
:100A800040E050E01082CA01DF91CF910895CF93EA
:100A9000DF93DA012C91222309F443C011963C9193
:100AA00011973323F1F161157105D9F11396EC011A
:100AB00080E090E014C02295207F313430F5342F4F
:100AC000232B29930196FD0131972081222331F1B7
:100AD0003C91332331F1129668177907F9F0422FD0
:100AE00040534A3018F041514630D8F4432F405318
:100AF0004A3020F0532F5154563098F42134D8F214
:100B00002295207F20573134D0F23753232B29935D
:100B10000196FD01319720812223D1F6DF91CF91FB
:100B2000089580E090E0DF91CF910895CF93DF9317
:100B300000D000D0CDB7DEB7A0E6B6E080E11596D4
:100B40008C9315979AE111969C931197E0EAF9E03E
:100B50001682178293EC958398E1948316968C9372
:100B6000169787ED8093A0098091A10986FFFCCF9D
:100B700080E4E0EAF9E081838091A0091092A00965
:100B80008091A10986FFFCCF80E4E0EAF9E081834F
:100B90008091A00990E1E0E6F6E0958380FD47C0F2
:100BA0008DE389838AE28A8380E88B8386EA8C835B
:100BB000A0E6B6E020E137EDE0EAF9E090E4169631
:100BC0002C9316973093A0098091A10986FFFCCF42
:100BD00091838091A0091092A0098091A10986FFBC
:100BE000FCCF91838091A00915962C93159787FFD0
:100BF000E6CF80E1E0E6F6E08683CE010596FE01D1
:100C00003196A0EAB9E030E421912093A009209127
:100C1000A10926FFFCCF11963C9311972091A009C2
:100C2000E817F90789F780E1E0E6F6E08583249686
:100C3000CDBFDEBFDF91CF9108950F931F93CF9368
:100C4000DF93EC018B0120E030E080910D2190E0FA
:100C5000A0E0B0E0DC0199278827080F191F2A1FA0
:100C60003B1FA0E6B6E060E177EDE0EAF9E090E452
:100C700016966C9316977093A0098091A10986FF30
:100C8000FCCF91838091A0091092A0098091A109C5
:100C900086FFFCCF91838091A00915966C931597E0
:100CA00087FFE6CF80E1E0E6F6E0868383E080938D
:100CB000A0098091A10986FFFCCF80E4E0EAF9E079
:100CC00081838091A009C901AA27BB278093A0092D
:100CD0008091A10986FFFCCF80E4E0EAF9E08183FE
:100CE0008091A009BB27A32F922F812F8093A00969
:100CF0008091A10986FFFCCF80E4E0EAF9E08183DE
:100D00008091A0090093A0098091A10986FFFCCFE2
:100D100080E4E0EAF9E081838091A0094115510562
:100D200071F090E41092A0098091A10986FFFCCF98
:100D300091838091A00989934150504099F780E1B7
:100D4000E0E6F6E08583DF91CF911F910F91089542
:100D50002F923F924F925F926F927F928F929F92CB
:100D6000AF92BF92CF92DF92EF92FF920F931F93B9
:100D7000CF93DF93CDB7DEB72697CDBFDEBF8B8392
:100D80009C834A0180910D214115510509F41EC132
:100D90006B01EE24FF2490E0A0E0B0E0DC01992795
:100DA0008827C80ED91EEA1EFB1E212C01E0302E1A
:100DB00000E130E147EDE0EAF9E050E420E410E63C
:100DC000612E16E0712E60E117ED240146015701F6
:100DD000BB27AB2D9A2D892D7C01982D6101C81858
:100DE000D1084C145D0408F4620160936606109308
:100DF000A0098091A10986FFFCCF21838091A009E1
:100E00001092A0098091A10986FFFCCF21838091D7
:100E1000A0093093650687FFE8CFD30116963C936F
:100E2000B3E5B093A0098091A10986FFFCCF51835F
:100E30008091A009F092A0098091A10986FFFCCFC2
:100E400051838091A009E092A0098091A10986FFB9
:100E5000FCCF51838091A0091092A0098091A10933
:100E600086FFFCCF51838091A009009365063093E3
:100E700066064093A0098091A10986FFFCCF2183DB
:100E80008091A0091092A0098091A10986FFFCCF52
:100E900021838091A0093093650687FFE8CFD301B5
:100EA00016963C93B4E8B093A0098091A10986FFFF
:100EB000FCCF51838091A0091092A0098091A109D3
:100EC00086FFFCCF51838091A0091092A0098091E8
:100ED000A10986FFFCCF51838091A0099093A009BE
:100EE0008091A10986FFFCCF51838091A009C11494
:100EF000D104D9F0C601AB81AD83BC81BE83C98268
:100F0000DA82AD81BE817D917093A0096D01DC0113
:100F10008091A10986FFFCCFCD01D601218370917C
:100F2000A009019781F7C980DA80009365063093A4
:100F300066064093A0098091A10986FFFCCF21831A
:100F40008091A0091092A0098091A10986FFFCCF91
:100F500021838091A0093093650687FFE8CFD301F4
:100F600016963C93B3E8B093A0098091A10986FF3F
:100F7000FCCF51838091A009F092A0098091A10932
:100F800086FFFCCF51838091A009E092A009809157
:100F9000A10986FFFCCF51838091A0091092A0097E
:100FA0008091A10986FFFCCF51838091A009009315
:100FB00065064C185D08C601A0E0B0E0880E991ED9
:100FC000AA1EBB1E4114510409F002CF2696CDBFC4
:100FD000DEBFDF91CF911F910F91FF90EF90DF90D7
:100FE000CF90BF90AF909F908F907F906F905F90C9
:100FF0004F903F902F9008951F93CF93DF93809150
:101000000D2190E0A0E0B0E0BA2FA92F982F8827FB
:101010009C0120503F4FA0E6B6E0D0E160E177EDC3
:10102000E0EAF9E0C0E450E411E816966C931697F4
:101030007093A0094091A10946FFFCCF51834091D4
:10104000A0091092A0094091A10946FFFCCF51834D
:101050004091A00915966C93159747FFE6CF169619
:10106000DC9316971093A0094091A10946FFFCCF8D
:10107000C1834091A0099093A0094091A10946FF26
:10108000FCCFC1834091A0098093A0094091A109A0
:1010900046FFFCCFC1834091A0091092A009409166
:1010A000A10946FFFCCFC1834091A0091596DC93AE
:1010B000159701968217930709F0B7CFDF91CF916B
:1010C0001F9108950F931F93FC01403080E0580753
:1010D00081E0680780E0780720F081E01F910F91A0
:1010E000089580E090E0A1E0B0E0841B950BA60B92
:1010F000B70B890120E030E080179107A207B30702
:1011000040F0CF01BA01A80123DE81E01F910F91C9
:1011100008958C019D01CF01BA01A80119DEF5CF18
:101120000F931F93FC01403080E0580781E068076F
:1011300080E0780720F080E01F910F91089580E013
:1011400090E0A1E0B0E0841B950BA60BB70B8901E2
:1011500020E030E080179107A207B30740F0CF01ED
:10116000BA01A8016ADD81E01F910F9108958C01F9
:101170009D01CF01BA01A80160DD81E0F5CFE0E07B
:10118000F6E080E4828388E1868B0895FF920F93D6
:101190001F93CF93DF93CDB7DEB7A097CDBFDEBF50
:1011A0009091080690958091A22089278923909399
:1011B000A22086FF15C0E0910E21F0910F218081C1
:1011C0008130B9F0823079F1833009F44EC0843037
:1011D00009F470C0853009F48FC0863009F468C006
:1011E000A096CDBFDEBFDF91CF911F910F91FF90F1
:1011F000089580910B21882309F4A1C0FF248E015A
:101200000F5F1F4FE5DBF801EF0DF11D8083F394B5
:1012100080910B21F816B0F3E0910721F09108219D
:10122000C8010995DDCFE0910521F09106218E01DD
:101230000F5F1F4FC801099520910B21222361F3F5
:10124000F801CE0102962150820F911D21E0222348
:1012500039F0308121E03F3F09F020E03F5F3083EB
:101260003196E817F90799F7D7CFE0910521F0916A
:1012700006218E010F5F1F4FC801099520910B2198
:1012800031E0222349F221503323D9F3822F90E019
:10129000F801E80FF91F408131E04F3F09F030E0DD
:1012A000800F911F4F5FFC014083222361F7B4CF71
:1012B000FBD096CFE0910521F09106218E010F5FC2
:1012C0001F4FC801099520910B21222309F4A4CFB7
:1012D000F801CE0102962150820F911D21E02223B8
:1012E00031F0308121E0311120E0315030833196EE
:1012F000E817F907A1F790CFE0910521F0910621B9
:101300008E010F5F1F4FC801099520910B2131E01D
:10131000222309F481CF21503323D1F3822F90E08F
:10132000F801E80FF91F408131E0411130E0800FF2
:10133000911F4150FC014083222369F76DCF8E013C
:101340000F5F1F4F69CFCF93DF93EC016150704067
:1013500027EF32E04CE2C901F9015491552389F09D
:101360006132710570F0DE0103C06032710549F031
:101370005D93ED01019661507040FC01549155233D
:10138000A1F7F3E0273B3F0721F41882DF91CF91CB
:101390000895499361507040205E3F4F83E0273DA0
:1013A0003807C9F6F2CFE0910E21F0910F2180832A
:1013B0000895AB01E0910E21F0910F21608170E062
:1013C000660F771F62957295707F7627607F76270C
:1013D00069507D4F0C94F425CF93DF93EC0167EFB8
:1013E00072E00E94EB25009771F1CE0167E173E096
:1013F0000E94EB25009769F1CE0167E373E00E943C
:10140000EB25009741F1CE0167E573E00E94EB25E3
:10141000009719F1CE0167E773E00E94EB25009772
:10142000F1F0CE0167E973E00E94EB250097C9F067
:10143000CE0167EB73E00E94EB250097A1F080E0FE
:10144000DF91CF91089580E0AEDF81E0DF91CF9111
:10145000089581E0F9CF82E0F7CF83E0F5CF84E013
:10146000F3CF85E0F1CF86E0EFCF8DE091E260E051
:1014700070E043E150E00C9408288DE091E260E0D8
:1014800070E043E150E00C941328883008F0089590
:1014900080930D2190E0880F991F805F9E4D80936F
:1014A0000E2190930F210BCA80910D218F5F8770C1
:1014B000282F30E0F901EE0FFF1FEF5EFE4D908107
:1014C000992309F05DC0C90101968770282F30E08B
:1014D000F901EE0FFF1FEF5EFE4D9081992309F099
:1014E0004FC0C90101968770282F30E0F901EE0F37
:1014F000FF1FEF5EFE4D9081992309F041C0C901A5
:1015000001968770282F30E0F901EE0FFF1FEF5E84
:10151000FE4D90819923A1F5C90101968770282F6E
:1015200030E0F901EE0FFF1FEF5EFE4D9081992331
:1015300039F5C90101968770282F30E0F901EE0FC7
:10154000FF1FEF5EFE4D90819923D1F4C9010196F2
:101550008770282F30E0F901EE0FFF1FEF5EFE4D80
:101560009081992369F4C90101968770E82FF0E012
:10157000EE0FFF1FEF5EFE4D9081992309F4089551
:1015800084CF80910D210895CF93DF93EC01F9DF93
:10159000805D88831982DF91CF910895FC0180815D
:1015A0009181992341F48053883010F080E00895B0
:1015B0006CDF81E0089580E00895BC0180E090E256
:1015C0000C942B24CF93DF93FC016491662359F094
:1015D000EC01219680E090E20E947124FE012196A8
:1015E00064916623B9F7DF91CF9108959C01AB0117
:1015F00080E090E2B9010C944F2480E2E0E6F6E04E
:1016000082830895CF93DF9380E090E20E94E524E7
:101610000E94441E80E090E20E94FF24EC0197FDAE
:101620000AC080E18093A320E0E0F6E085838C2F60
:10163000B3D2882319F0DF91CF9108958C2F33D442
:10164000DF91CF9108958091A420813009F18130FC
:1016500030F0823059F1833071F0F7D3C7C58091F3
:10166000680685FFFACF84E180931B2081E0809398
:10167000A420EBD3BBC580911B20815080931B20FD
:10168000882359F70E947822D3D81092A420E5CF5E
:1016900080911B20815080931B208823F1F6ADD8C8
:1016A0000E94B32282E08093A420D7CF8091680665
:1016B00085FDD3CF84E180931B2083E08093A42019
:1016C000C4D394C580E2E0E0F6E08583089580E22B
:1016D000E0E0F6E08683089580E090E20C94052433
:1016E00080E090E20C945A232DB73EB72C50304046
:1016F0002DBF3EBFEDB7FEB73196ADB7BEB7119661
:101700008D939C93129780E091E08283938387EB83
:1017100093E08483958380EF93E08683978387EFBC
:1017200093E0808791878EEF93E0828793870E9472
:101730000C262DB73EB7245F3F4F2DBF3EBF85E639
:1017400008952DB73EB7285030402DBF3EBFEDB7AE
:10175000FEB73196ADB7BEB711968D939C93129795
:1017600080E091E08283938384E094E08483958396
:1017700089EE90E2868397830E940C262DB73EB7B0
:10178000285F3F4F2DBF3EBF85E608959ED8882332
:1017900011F48AEC089571DE84E6089560E071E04A
:1017A000DCD885E608950F931F93CF93DF93CDB7D1
:1017B000DEB7A197CDBFDEBF8C0120910B21E09158
:1017C0000521F0910621CE01019629A30995C801B2
:1017D00060E071E0AE014F5F5F4F29A130E01AD9A0
:1017E00085E6A196CDBFDEBFDF91CF911F910F910E
:1017F0000895BF92CF92DF92EF92FF920F931F93C3
:10180000CF93DF93CDB7DEB7A097CDBFDEBF8C01FE
:10181000E0900B21FF2467E074E00E94EB25009725
:1018200049F5E114F104A1F1BB2400E010E06E01E0
:101830000894C11CD11CCCD8F601E00FF11F8083A5
:10184000B3940B2D10E00E151F05A8F3E0910721AE
:10185000F0910821C601099584E6A096CDBFDEBFB0
:10186000DF91CF911F910F91FF90EF90DF90CF907C
:10187000BF9008956E010894C11CD11CC60160E29E
:1018800070E0A80104D98E159F0501F38AECE5CF1D
:101890006E010894C11CD11CD9CFFC0180910C2190
:1018A000882329F480E38083118285E6089581E30B
:1018B0008083118285E60895FC018181882339F4B3
:1018C0008081813331F0803349F08AEC08958AECCD
:1018D000089581E080930C2184E6089510920C21F4
:1018E00084E6089582E698E02CD18EE6089580E99A
:1018F00098E03FD18EE60895E0ECF4E081818E7FA0
:1019000081830E9478220E94F00384E60895E0EC2F
:10191000F4E081818E7F81830E9478220E94F70308
:1019200084E608952DB73EB7285030402DBF3EBF06
:10193000EDB7FEB73196ADB7BEB711968D939C93B8
:10194000129780E091E0828393838EE094E0848319
:1019500095838091092190910A21868397830E9423
:101960000C262DB73EB7285F3F4F2DBF3EBF85E603
:1019700008952DB73EB7285030402DBF3EBFEDB77C
:10198000FEB73196ADB7BEB711968D939C93129763
:1019900080E091E08283938381E194E08483958366
:1019A00080910B21868317820E940C262DB73EB7AB
:1019B000285F3F4F2DBF3EBF85E6089560E071E090
:1019C000C2DC85E6089560E071E0F3DC85E6089509
:1019D00003DD882311F48AEC08954FDD84E6089531
:1019E00060E071E0D1DD85E60895D8DD882311F44B
:1019F0008AEC089542DD84E60895FEDA84E60895CF
:101A0000BF92CF92DF92EF92FF920F931F93CF93EB
:101A1000DF937C01CFEFD0E02BE1C22E24E0D22E69
:101A20003CE2B32E86018CE190E2B6010E94EB25E8
:101A3000009729F1F6018491882389F0C132D105FC
:101A400070F0D70103C0C032D10549F08D937D01FC
:101A50000F5F1F4F2197F80184918823A1F7F701A9
:101A6000B1927F01219786E190E0C80ED91E8601D0
:101A70008CE190E2B6010E94EB250097D9F6F701C0
:101A80003197108285E6DF91CF911F910F91FF90E2
:101A9000EF90DF90CF90BF900895CF93DF93209188
:101AA00020022068E0E0F2E020A32091230220FF42
:101AB000FCCF21E0E0E0F2E023A3609110027091FE
:101AC00011022DB73EB7285030402DBF3EBFCDB7D5
:101AD000DEB72196EDB7FEB78183928380E091E077
:101AE0008A839B8384E194E08C839D836E5B70404A
:101AF00077FD1AC0882777FD8095982F29E637E56E
:101B00004BE050E00E946525DC01CB01AE83BF8332
:101B10000E940C262DB73EB7285F3F4F2DBF3EBF1A
:101B200085E6DF91CF91089560E070E0E3CF80E03B
:101B3000E0E2F1E29191890F91E2E03AF907D1F701
:101B4000089521E02093A5202093A62024E120934E
:101B5000A72025E02093A8201092A9201092AA2067
:101B60001092AB201092AC208093AD209093AE20C9
:101B7000089527E02093A52024E62093A820109222
:101B8000A9201092AA201092AB201092AC20809332
:101B9000AD209093AE200895CF93C82F8091A520BB
:101BA000853009F484C08630E8F0873009F44EC0EF
:101BB000873070F52091B2208091A620281709F473
:101BC000E1C030E090E001972817390709F40BC114
:101BD00080E090E268E10E9471241092A52081E0EB
:101BE000CF910895833009F45AC08430C0F08C2F0F
:101BF00090E04091B2202FEF30E0241B3109821792
:101C0000930709F06BC085E08093A52081E0E8CFC1
:101C10008830F9F08930A9F080E0CF9108958130C3
:101C2000D8F3C13009F4E9C0C43009F4FBC0C831AD
:101C300041F081E0CF91089580E090E266E00E945B
:101C400071241092A52081E0CF910895C53109F447
:101C50004FC0C83189F3C63009F4F3C0C53149F724
:101C600080E090E261E00E94712480E090E2609167
:101C7000A6200E9471246091A620609580E090E2E9
:101C80000E94712480E291E260E870E0AFDC4FDFF7
:101C9000682F80E090E20E94712481E0A1CFC09380
:101CA000B22084E08093A52081E0CF910895209117
:101CB000AF203091B020F901E05EFE4DC083C90134
:101CC00001968093AF209093B0208038910509F061
:101CD000B0CF86E08093A52081E082CF80E090E2C3
:101CE00065E10E94712482E08093A52081E078CF95
:101CF00081E08093A6204091A9205091AA20609174
:101D0000AB207091AC20E091AD20F091AE2080E24C
:101D100091E220E830E00995882309F479C080E059
:101D200090E261E00E94712480E090E26091A62040
:101D30000E9471246091A620609580E090E20E944C
:101D4000712480E291E260E870E050DCF0DE682F00
:101D500080E090E20E9471248091A9209091AA20B5
:101D6000A091AB20B091AC2080589F4FAF4FBF4F98
:101D70008093A9209093AA20A093AB20B093AC208D
:101D800081E02ECFD4DE8C1709F0A8CF4091A92096
:101D90005091AA206091AB207091AC20E091AD20D1
:101DA000F091AE2080E291E220E830E009958823AE
:101DB00009F441C08091A6208F5F8093A620809176
:101DC000A9209091AA20A091AB20B091AC2080587E
:101DD0009F4FAF4FBF4F8093A9209093AA20A0930D
:101DE000AB20B093AC2080E090E266E00E947124CA
:101DF00082E08093A52081E0F3CE1092AF20109274
:101E0000B0201092B12083E08093A52081E0E8CE3D
:101E100080E090E264E00E94712489E08093A52034
:101E200081E0DECE80E090E266E00E9471241092B4
:101E3000A52081E0D5CE80E090E268E10E94712487
:101E4000C7CE8091A6208F5F54CF8091A52081308E
:101E500071F0873009F008958091A820982F915053
:101E60009093A8208823B9F71092A5200895809117
:101E7000A820982F91509093A820882361F78091F3
:101E8000A720982F91509093A720882331F4109287
:101E9000A52085E08093A820089580E090E265E188
:101EA0000E947124F6CF1F93CF93DF93982F915404
:101EB0009A3120F090529A31B8F480522091B32098
:101EC0003091B4202F3F310550F4F901E05EFE4D12
:101ED00080832F5F3F4F2093B3203093B42081E065
:101EE000DF91CF911F9108959F5C9A3038F38F3521
:101EF00029F38F3319F38D3309F38D30A9F088302E
:101F000039F08B3161F71092B3201092B420E7CFF3
:101F10008091B3209091B420009709F301978093AA
:101F2000B3209093B420DBCFE091B320F091B420A4
:101F3000E05EFE4D10821092B3201092B42080918A
:101F40002021882309F4A7C08F3309F4A4C08D335E
:101F500009F4A1C0E1E2F1E2EF01219706C08F335D
:101F600009F4D3C08D3309F4CEC021968191882322
:101F7000B1F710E0188280E291E26BE174E00E9418
:101F8000EB25009709F420C180E291E261E374E05F
:101F90000E94EB25009709F415C180E291E267E405
:101FA00074E00E94EB25009709F406C180E291E2FB
:101FB0006DE574E00E94EB25009709F4FBC080E218
:101FC00091E263E774E00E94EB25009709F4F0C00A
:101FD00080E291E269E874E00E94EB25009709F441
:101FE000B5C080E291E26FE974E00E94EB250097B2
:101FF00009F4FAC080E291E265EB74E00E94EB25FF
:10200000009709F4EFC080E291E26BEC74E00E946B
:10201000EB25009709F4E4C080E291E261EE74E000
:102020000E94EB25009709F4D9C080E291E267EFA6
:1020300074E00E94EB25009709F4CEC080E291E2A3
:102040006DE075E00E94EB25009709F4C3C080E2C3
:1020500091E263E275E00E94EB25009709F4B8C0B5
:1020600080E291E269E375E00E94EB25009709F4B4
:10207000ADC080E291E26FE475E00E94EB2500972D
:1020800009F49EC080E291E265E675E00E94EB25CE
:10209000009709F493C088ECC0E0E1E8F5E0949182
:1020A000891709F450C0B196E4918E1709F448C01D
:1020B000E3ECF5E0E4918E1709F43FC0E4EEF5E0BF
:1020C000E4918E1709F436C0E5E0F6E0E4918E174E
:1020D00071F1E6E2F6E0E4918E17C9F080E090E05D
:1020E00071DA8BE795E06EDACC2309F4F8CE8091B3
:1020F0002021882309F4F3CE80E291E25EDA8EE7B4
:1021000095E060DAECCE1DE335CF1FE333CF25E059
:1021100030E0C901880F991F82959295907F98278A
:10212000807F9827820F931F8E579A4FD9CF24E034
:1021300030E0EFCF23E030E0ECCF22E030E0E9CF39
:1021400021E030E0E6CF20E030E0E3CF25E0109260
:10215000202130E046E150E0249FC001259F900DF2
:10216000349F900D1124855E9B4F1F33F9F01D3372
:1021700089F0112319F089ECC1E08FCF4096FC0162
:1021800085919491FC010097B1F380E291E2099569
:10219000C1E083CF4296FC0185919491FC010097A8
:1021A00051F3CE0101960995C1E077CF4496E7CF70
:1021B00024E0CDCF23E0CBCF22E0C9CF2FE0C7CFA3
:1021C0002EE0C5CF21E0C3CF20E0C1CF2DE0BFCFAF
:1021D0002CE0BDCF2BE0BBCF2AE0B9CF29E0B7CFB1
:1021E00028E0B5CF27E0B3CF26E0B1CF0895A0E235
:1021F000B6E082E011968C93119715968C93159703
:10220000E0E4F8E010A211A28DE291E086A397A38A
:102210008FEF9FEF80A791A781E0808398E8938359
:1022200093E097831A968C931A9708951F920F92B2
:102230000FB60F9211248F939F93EF93FF9380E239
:1022400092E28093C1209093C22080EA92E2809330
:10225000C3209093C4201092BA201092B9201092FB
:10226000B5201092BD201092BE201092B820E0E45C
:10227000F8E0138286E990E086AB97AB8AE190E0C4
:1022800080AF91AFE0E4F9E010A211A28FEF9FEFD1
:1022900086A397A389E883838EE08083E0E2F6E05B
:1022A0001286FF91EF919F918F910F900FBE0F902B
:1022B0001F9018951F920F920FB60F9211242F9313
:1022C0008F939F93EF93FF93909128068091B9206D
:1022D000880F957021E009F020E0822B8093B920CF
:1022E0009091B5209923A1F1982F9770973009F418
:1022F00044C08C7069F191E082FD6EC09093B7206C
:102300008091B820882309F06FC08091BA2086950B
:10231000992309F471C020E8282B2093BA208091DA
:10232000BD209091BE2001968093BD209093BE2049
:1023300087709070009761F4E091C120F091C22005
:102340002193E093C120F093C22081E08093B820D4
:102350009091B52081E0911180E08093B52088E8CC
:10236000E0E4F8E08383FF91EF919F918F912F91AB
:102370000F900FBE0F901F9018951092400880E1AB
:10238000E0E4F8E08487E0E4F9E013828091B7208C
:10239000882369F18CEB94E086A397A31092B62072
:1023A000E0E4F9E081E0848783E086838091BD20CA
:1023B0009091BE20877061F09091BA208F5F9695C2
:1023C0008F5F8930E1F7E091C120F091C2209083C6
:1023D00081E08093BF20BCCF90E09093B7208091A4
:1023E000B820882309F491CF1092B820B1CF8CE7A0
:1023F00094E086A397A3D2CF20E08ECF1F920F92B6
:102400000FB60F9211242F933F938F939F93AF9307
:10241000BF93EF93FF938091B620853009F455C0A8
:102420008630C0F0883009F486C0893040F58630A7
:1024300009F4C7C0873009F495C0FF91EF91BF91AF
:10244000AF919F918F913F912F910F900FBE0F9061
:102450001F901895823089F1833008F1833009F498
:102460005BC0843051F78091BA2080FDC7C080E402
:10247000E0E4F6E0868385E08093B620DECF893005
:1024800009F461C08A30C9F610924009E0E4F9E02D
:1024900016821092000881E08093C020CECF88235E
:1024A00009F459C0813049F68FE390E0E0E4F9E0A7
:1024B00086A397A38EE08093000880E4E0E4F6E032
:1024C000858383E08093B620B8CF8091BA2090E4D2
:1024D000E0E4F6E080FD90C0958386958093BA2075
:1024E0008091BB209091BC2001968093BB2090935B
:1024F000BC209C01277030702115310509F483C080
:102500002091BD203091BE208217930709F055C05D
:1025100088E08093B62091CF80E4E0E4F6E0868303
:1025200084E08093B620E091C120F091C2208081A8
:102530008093BA2082CF80E4E0E4F6E0868389E0ED
:102540008093B6207ACF80E4E0E4F6E086838AE0E8
:102550008093B62072CF8FE790E0E0E4F9E086A3A5
:1025600097A36BCFE091C320F091C4208081882392
:10257000E1F580E4A0E4B6E015968C9315972091E0
:10258000BB203091BC208091BD209091BE202817A7
:10259000390709F4BDCF3196E093C320F093C420EE
:1025A000E091C120F091C220CF0101968093C1201B
:1025B0009093C22081818093BA2084E08093B620DA
:1025C0003CCFE091C320F091C4208081882341F466
:1025D00080E4E0E4F6E0868387E08093B6202DCFA8
:1025E00080E4E0E4F6E08583F7CF80E4A0E4B6E0A1
:1025F00016968C931697C3CF96836FCF80E4E0E452
:10260000F6E0858338CF86E08093B62016CFCF934F
:10261000DF93E0E4F6E084E08283128AC0E8D1E050
:1026200082E68E83A0E2B6E085E012968C93129744
:1026300081E050968C93509782E052968C935297FB
:102640001A961C921A9783E019968C9398E59883B2
:102650009AE5998390E49183968381838683E0E071
:10266000F8E08FE090E086A397A388E090E082A74F
:1026700093A783E28183BBDDDF91CF9108958091A1
:10268000BF208823C9F01092BF20E0E2F6E082E08C
:10269000818386836091BD207091BE206115710594
:1026A00099F4E091FF20F0910021099510924009E2
:1026B000E0E4F9E016829BDD8091C020882309F4D4
:1026C00008951092C02093CDE0910321F091042150
:1026D00080E292E209959C0194FD28C0AC015695D8
:1026E0004795569547955695479541155105F9F0EB
:1026F00060E0E0E0F0E0E05EFD4D8081082E829534
:102700008025082E869586958025E058FF4F90E01D
:1027100001969595879591E080FD90E090836F5F9D
:10272000E62FF0E0E417F50730F301C03F7E2115F6
:10273000310509F4BBCF2093BD203093BE20109209
:10274000BB201092BC2080E292E28093C120909343
:10275000C22080EA92E28093C3209093C42081E05B
:102760008093B6208091C020882309F4A9CFA9CFF7
:1027700081E08093C52084E090E08093C620909310
:10278000C72088E08093C820089581E08093C52009
:1027900082E090E08093C6209093C72088E18093E8
:1027A000C820089581E08093C520089508958F92F0
:1027B0009F92AF92BF92CF92DF92EF92FF920F93D0
:1027C0001F93CF93DF93CDB7DEB72E97CDBFDEBF7C
:1027D0007C018091C520843009F4F9C0853008F46B
:1027E0003FC0863009F4C0C0863008F064C0F701ED
:1027F00000810E94081C8027D7018C9311960C91B0
:102800000E94081C8027F701818302810E94081C16
:102810008027D70112968C93129713960C91F8D7B4
:102820008027F70183838081803309F4BDC2803A19
:1028300009F439C3803C09F453C3813C09F435C41D
:10284000823C09F43FC4803B09F44BC4805682307B
:1028500008F496C181E08093C52080E090E065C0D7
:10286000823009F4A0C0833008F46FC0F701808182
:10287000863209F46FC1823509F46CC1803509F4E0
:1028800075C1982F9056923008F4E7C1803351F00B
:10289000803A41F0803C31F0813C21F0823C11F0E3
:1028A000803BC1F681E08093C52084E0F7018083FE
:1028B00084E090E03AC08A3008F053C0F70100810C
:1028C000A7D78027D7018C9311960C91A1D7802789
:1028D000F701818302819CD78027D70112968C93C0
:1028E000129713960C9194D78027F7018383048164
:1028F0008FD78027D70114968C93149715960C9137
:1029000087D78027F7018583C70164E070E092D400
:10291000882309F00FC2BDD791E09827F701908373
:1029200085E08093C52084E090E02E96CDBFDEBF89
:10293000DF91CF911F910F91FF90EF90DF90CF909B
:10294000BF90AF909F908F9008952091C620909156
:10295000C720D7018C91863209F4F3C0823509F47F
:10296000F0C080E090E0E1CF8701CC24F8018080C6
:102970004FD78825D8018D938D01C394B2E1CB1632
:10298000A9F7C70160E170E055D4882309F4EFC1CD
:1029900080910C21882309F4F0C17BD79AE0982715
:1029A000F7019083BDCF2091C6209091C720D70119
:1029B0008C91863209F4C5C0823509F4C2C08339CE
:1029C00009F435C21092C52080E090E0AECFC70177
:1029D000E0D6D70114960C911BD78027F70184838A
:1029E000058116D78027D70115968C9315971696D3
:1029F0000C910ED78027F7018683078109D780279E
:102A0000D70117968C93179714962C911497909141
:102A1000C920291709F01ECF15962C911597909172
:102A2000CA20291709F016CF16962C911697909167
:102A3000CB20291709F00ECF9091CC20891709F0EF
:102A400009CF0091CD20E4D68027F7018083009143
:102A5000CD20002E02950025002E06950695002516
:102A60009ED4F701E058FF4F202F30E02F5F3F4FFB
:102A70003595279591E020FD90E09827908300916F
:102A8000CE20C6D68027D70111968C930091CE20F8
:102A9000002E02950025002E0695069500257FD470
:102AA000F701EF57FF4F202F30E02F5F3F4F359555
:102AB000279591E020FD90E0982790830091CF200A
:102AC000A7D68027F70182830091CF20002E0295A0
:102AD0000025002E06950695002561D4F701EE57D6
:102AE000FF4F202F30E02F5F3F4F3595279591E026
:102AF00020FD90E0982790830091D02089D68027F0
:102B0000D70113968C930091D020002E02950025BA
:102B1000002E06950695002542D4F701ED57FF4F8C
:102B2000202F30E02F5F3F4F3595279591E020FD16
:102B300090E09827908385E08093C52080E290E123
:102B4000F4CEF7012083918382E08093C52080E159
:102B500090E0EBCE84E0D7018C9311961C921197F4
:102B600082E08093C52080E190E0DFCEF701818193
:102B7000882309F4D7C2F701108284E090E0D5CE13
:102B8000C70162E070E056D3882309F405C1D7017C
:102B900011960C9111970C738C91803609F4DFC259
:102BA0008AE390E010E002951295107F1027007FD5
:102BB0001027080F191FCE01059664E00E94EB0450
:102BC000CE01019660E070E044E050E00E941D06F6
:102BD000CE010996B80146E050E00E941D068D81A5
:102BE0008093C9208E818093CA208F818093CB20CF
:102BF00088858093CC2089EC90E260E470E06DD60B
:102C00008091C9208093CD208091CA208093CE20CE
:102C10008091CB208093CF208091CC208093D020B6
:102C20008DEC90E260E270E058D6CE010996BE01CC
:102C30006F5F7F4FAE014B5F5F4FE5D38D81F70133
:102C400080838E8181838F8182838885838384E0E2
:102C50008093C52080E290E068CEC70162E070E01A
:102C6000E9D2882309F465C2D70111960C91119716
:102C70000C738C91803609F475C28AE390E010E001
:102C800002951295107F1027007F1027080F191F3B
:102C9000CE01019664E00E94EB04CE01059660E04F
:102CA00070E044E050E00E941D06CE010996B80194
:102CB00046E050E00E941D0689818093C9208A81E8
:102CC0008093CA208B818093CB208C818093CC20F1
:102CD00089EC90E260E470E000D68091C920809396
:102CE000CD208091CA208093CE208091CB208093EC
:102CF000CF208091CC208093D0208DEC90E260E2B8
:102D000070E0EBD584E08093C5208981F701808352
:102D10008A8181838B8182838C818383CE01099612
:102D2000BE016B5F7F4FAE014F5F5F4F6CD380E2A0
:102D300090E0FBCD6091D12070E062957295707F3C
:102D40007627607F762782ED90E240E150E00E9496
:102D50001D062091D2208091D6208095281709F455
:102D6000D6C097D596E09827D7019C93D9CD91D519
:102D700091E09827D7019C93D3CD6091D12070E04A
:102D800062957295707F7627607F7627C70140E154
:102D900050E00E94A80601CE7CD591E09827D7018B
:102DA0009C9384E090E0C1CDC70162E070E042D224
:102DB000882391F3D70111966C9170E0629572951A
:102DC000707F7627607F7627C70140E150E00E9440
:102DD0001D06C70160E170E0EFD1870130E8E32E06
:102DE000F12CE00EF11E8824F801C08011D58C254D
:102DF000D8018D938D010C2CC294C0240C2CC69448
:102E0000C694C024CCD22C2D30E02F5F3F4F359597
:102E1000279591E020FD90E09827F70191937F019D
:102E20008394F2E18F1601F780E990E17ECDCE0127
:102E3000059660E070E044E050E00E941D0690912D
:102E4000C820D70111968C911197803209F477C16F
:102E5000803709F086CDD70112962C9112978D817B
:102E6000281709F07ECD13962C9113978E81281781
:102E700009F077CD14962C9114978F81281709F0BB
:102E800070CD15962C9115978885281709F069CD76
:102E90009C93C70161E070E08FD183E08093C520EF
:102EA00088E190E042CDC70162E070E0C3D18823A1
:102EB00079F0F70181818093D12086E08093C5204D
:102EC000E8D49AE09827D7019C9384E090E02DCD38
:102ED000E0D491E09827F701908384E090E025CD3D
:102EE000C70162E070E0A6D1882309F455CFD7016D
:102EF00011968C918093D12088E08093C520C9D40D
:102F00009AE09827F701908384E090E00ECD8091BD
:102F1000DA20281709F025CF3091D3208091D720CF
:102F20008095381709F01DCF8091DB20381709F004
:102F300018CF4091D4208091D8208095481709F06F
:102F400010CF8091DC20481709F00BCFE091D520FD
:102F50008091D9208095E81709F003CF8091DD207A
:102F6000E81709F0FECE9091DE208091DF20809559
:102F7000981709F0F6CE8091E020981709F0F1CE6D
:102F80008091E1208095981709F0EBCED70111963A
:102F90008C9011979924AA24BB24BA2CA92C982C84
:102FA000882412968C9190E0A0E0B0E0DC01992793
:102FB0008827882A992AAA2ABB2AD7018C9190E0CF
:102FC000A0E0B0E0882A992AAA2ABB2AD701139642
:102FD000CC90DD24EE24FF24FC2CEE24DD24CC2434
:102FE0008C289D28AE28BF28832F90E0A0E0B0E079
:102FF000BA2FA92F982F882750E060E070E0BA011F
:1030000055274427842B952BA62BB72B30E040E087
:1030100050E0822B932BA42BB52B4E2F50E060E079
:1030200070E0742F662755274427842B952BA62BF9
:10303000B72B2091C520283009F46FC0273021F428
:10304000880D991DAA1DBB1D8093D220092F1A2F10
:103050002B2F33270093D320AD016627772740938A
:10306000D420CB2EDD24EE24FF24C092D520E82FDF
:10307000E095E093D620E02FE095E093D720E42F71
:10308000E095E093D820EC2DE095E093D920809353
:10309000DA200093DB204093DC20C092DD2085E025
:1030A0008093C52080E090E040CCC70162E070E0F2
:1030B000C1D0882309F40CCFF70181818093D120FE
:1030C00087E0FCCEC70162E070E0B4D0882309F449
:1030D00063CED70111968C9111978093D12089E00E
:1030E0000CCFC70162E070E0A5D0882309F4F0CED0
:1030F00080910C21882309F0E3CEF701618170E013
:1031000062957295707F7627607F762782ED90E2D8
:1031100040E150E00E94A806D3CE88199909AA0977
:10312000BB0992CFC70162E070E084D0882309F028
:1031300049CC81E0D7018C9384E090E0F6CB8D817F
:10314000F70180833E8131832F8122839885938389
:10315000832782278927848388E290E0E6CB80E377
:1031600090E020CD80E390E08ACD60E070E044E024
:1031700050E00C941D06CF93DF930F92CDB7DEB7CE
:10318000FC018181908189279281892793818927F8
:103190008983CF0160E070E044E050E00E94A8061F
:1031A000CE01019664E070E041E050E00E94A80684
:1031B0000F90DF91CF910895EF92FF920F931F939D
:1031C000CF937C018B016115710581F1FB01DC015D
:1031D00043E653E68D918427C82FC295C07FC82748
:1031E0008C2F90E0782F66279C01220F331F220F2F
:1031F000331F220F331F62277327452F552746277A
:103200005727C295CF708C2F90E0482759273197C8
:1032100009F7F701E00FF11F942F852F9083818329
:10322000CF911F910F91FF90EF900895FC0183E6DD
:1032300093E6F4CFEF92FF920F931F93CF937C010D
:103240008B016115710509F43DC0FB01DC0143E60A
:1032500053E68D918427C82FC295C07FC8278C2F35
:1032600090E0782F66279C01220F331F220F331F17
:10327000220F331F62277327452F552746275727CD
:10328000C295CF708C2F90E048275927319709F7C6
:10329000F701E00FF11F9A013070808190E08217F2
:1032A000930739F080E0CF911F910F91FF90EF903D
:1032B0000895218130E0452F552781E024173507F7
:1032C00089F7F1CFFC0123E630E043E653E6E5CF92
:1032D000CF92DF92EF92FF920F931F930091E52020
:1032E0004091E6203091E720A091E220F091E32088
:1032F000E091E420942F9071202F217E9227232F9C
:10330000207292272A2F247992272F2F2377922712
:103310002E2F2A739227292F22952F702927922F3B
:10332000969596959227B92FB69550E060E070E09B
:10333000762F652F542F4427C32EDD24EE24FF243F
:103340007601DD24CC244C295D296E297F2910E0EB
:1033500020E030E0402B512B622B732B7695679544
:1033600057954795B9272B2F30E02170307090E0AA
:103370002817390709F06068A093E520F093E6204C
:10338000E093E7204093E2205093E3206093E42011
:103390001F910F91FF90EF90DF90CF900895509183
:1033A000E3204091E420242F2F708DE190E2DC0196
:1033B000A20FB11D252F2F70FC01E20FF11DD09639
:1033C0002C91D0973089232B3091E22032953F7099
:1033D000FC01E30FF11D3081232B52955F70FC013E
:1033E000E50FF11D30A1232B42954F70840F911DE5
:1033F000805C9F4FFC018081282BEDE6F0E2E20F1C
:10340000F11D80810895CF92DF92EF92FF920F938A
:103410001F93CF93DF93FC01EA01318120E080818B
:1034200090E0822B932B80FDB2C130E081FDADC1D5
:1034300020E09695879596958795432F406880FD67
:10344000342F422F406881FD242F969587959695BD
:10345000879536952695432F406880FD342F422F5F
:10346000406881FD242F969587959695879536958A
:103470002695432F406880FD342F422F406881FD00
:10348000242F969587959695879536952695432F63
:10349000406880FD342F422F406881FD242F96958F
:1034A00087959695879536952695432F406880FD9C
:1034B000342F422F406881FD242F9695879596954D
:1034C000879536952695432F406880FD342F422FEF
:1034D000406881FD242F969587959695879536951A
:1034E0002695532F5068422F406880FD352F30932A
:1034F000E52081FD242F2093E220338120E082818A
:1035000090E0822B932B80FD3EC130E081FD39C1DC
:1035100020E09695879596958795432F406880FD86
:10352000342F422F406881FD242F969587959695DC
:10353000879536952695432F406880FD342F422F7E
:10354000406881FD242F96958795969587953695A9
:103550002695432F406880FD342F422F406881FD1F
:10356000242F969587959695879536952695432F82
:10357000406880FD342F422F406881FD242F9695AE
:1035800087959695879536952695432F406880FDBB
:10359000342F422F406881FD242F9695879596956C
:1035A000879536952695432F406880FD342F422F0E
:1035B000406881FD242F9695879596958795369539
:1035C0002695532F5068422F406880FD352F309349
:1035D000E62081FD242F2093E320958180E0248143
:1035E00030E0282B392B20FDCAC050E021FDC5C09A
:1035F00040E0C9019695879596958795352F306857
:1036000080FF352F242F206881FF242F96958795E2
:103610009695879536952695432F406880FD342FE3
:10362000422F406881FD242F969587959695879522
:1036300036952695432F406880FD342F422F4068F1
:1036400081FD242F96958795969587953695269595
:10365000432F406880FD342F422F406881FD242F86
:10366000969587959695879536952695432F40682C
:1036700080FD342F422F406881FD242F9695879539
:103680009695879536952695432F406880FD342F73
:10369000422F406881FD242F9695879596958795B2
:1036A00036952695532F5068422F406880FD352F60
:1036B0003093E72081FD242F2093E420C980DB0193
:1036C00011968C911197C826DD24EE24FF24FE2C40
:1036D000ED2CDC2CCC248A8112969C91892790E0D9
:1036E000A0E0B0E0DC0199278827C82AD92AEA2A75
:1036F000FB2A8881FB019081892790E0A0E0B0E05F
:10370000C82AD92AEA2AFB2A8B819381892790E04B
:10371000A0E0B0E0B82FAA2799278827C82AD92A7D
:10372000EA2AFB2A10E23BDE082F8C2D8170D0DDC7
:10373000F694E794D794C794002341F080E090E09A
:10374000A0E0B0E8C82AD92AEA2AFB2A115059F782
:1037500088818C25888389818D2589838A818E251E
:103760008A838B818F258B83DF91CF911F910F915E
:10377000FF90EF90DF90CF90089540E43ACF50E46F
:1037800035CF20E4C6CE30E4C1CE20E452CE30E4C2
:103790004DCECF92DF92EF92FF92CF93FC01C1808A
:1037A000DD24EE24FF24FE2CED2CDC2CCC248281A5
:1037B00090E0A0E0B0E0DC0199278827C82AD92A48
:1037C000EA2AFB2A808190E0A0E0B0E0C82AD92A4A
:1037D000EA2AFB2A838190E0A0E0B0E0B82FAA2774
:1037E00099278827C82AD92AEA2AFB2AC0E2D7DDE6
:1037F0009C2D917089276CDDF694E794D794C7943B
:10380000C150A9F7CF91FF90EF90DF90CF9008952E
:10381000CF93DF93C4DDC82F80E05ADDCC2309F4B9
:1038200036C0C0E8BCDDD82F80E052DDC695D1118E
:10383000C068B5DDD82F80E04BDDC695D111C068DA
:10384000AEDDD82F80E044DDC695D111C068A7DD7C
:10385000D82F80E03DDDC695D111C068A0DDD82FFE
:1038600080E036DDC695D111C06899DDD82F80E0A3
:103870002FDDC695D111C06892DDD82F80E028DDFC
:103880008C2F8695D1118068DF91CF910895C0E08B
:10389000C9CFCF93DF9383DDC82F80E019DDCC2320
:1038A000D1F0C8E07CDDD82F80E012DDC695D111C3
:1038B000C86075DDD82F80E00BDDC695D111C860DA
:1038C0006EDDD82F80E004DD8C2F8695D1118860C5
:1038D000DF91CF910895C0E0E5CF8F929F92AF9294
:1038E000BF92CF92DF92EF92FF920F931F93CF93ED
:1038F000DF934C015B016115710509F45FC0DC01C8
:103900001296CC911297EC911196DC911197139627
:10391000FC919C2F9D72892F82958F708927282F6B
:10392000269526952827322F36958D2F90E0A0E0FA
:10393000B0E0BA2FA92F982F88274C2F50E060E0D5
:1039400070E0BA0155274427842B952BA62BB72B63
:103950004E2F50E060E070E0842B952BA62BB72B08
:103960004F2F50E060E070E0742F66275527442702
:10397000842B952BA62BB72BB695A7959795879556
:10398000322730FDB068E82F492F5A2F6B2F772749
:10399000D42F8D0122273327C02FCB2EDD24EE24F8
:1039A000FF24FC2D0894A108B108A114B10409F06A
:1039B000B0CFF401808341830283C382DF91CF9132
:1039C0001F910F91FF90EF90DF90CF90BF90AF903D
:1039D0009F908F9008951F93CF93DF93CDB7DEB75D
:1039E000EE97CDBFDEBF4DD3809325234AD380937E
:1039F000262347D38093272344D38093282341D37E
:103A0000809329233ED380932A233BD380932B2377
:103A100038D380932C230E94700BD5D3882391F048
:103A20009091252380912623853009F453C0863058
:103A3000A8F0883009F4BAC0893009F49EC08630F5
:103A400009F45DC0C0D3882311F091D374D3EE96EE
:103A5000CDBFDEBFDF91CF911F910895813029F056
:103A6000813008F46EC0833069F7992309F4A8C047
:103A7000923041F780912723882339F5109129232B
:103A80001F7001F3812F1BD380912623833009F40B
:103A9000F8C0E0912F23F091302381818B7F8183C7
:103AA000212F30E084E890E0289FF001299FF00D5D
:103AB000389FF00D1124ED58FC4D1082E0912F231A
:103AC000F091302380818E7F808380E0F8D24FD3C5
:103AD000A8D4B8CF992309F0B5CF109127231F7729
:103AE00046D39FD4A0D38823E9F3E0ECF4E013831A
:103AF000112309F07AC082E080932423A3CF905849
:103B0000923008F09FCF809127239091282323E0C3
:103B10008C3D920709F46BC060912923AE014F5F81
:103B20005F4F0E947A03BC01009709F48BCF8DAFE1
:103B30007EAF1DD389819A816DAD7EADCAD192D2FF
:103B400081CF903809F448C0923809F07BCF80913A
:103B500029238F70B4D2E0912F23F09130238181FB
:103B600011E082FF10E080E0AAD201D3812F98D229
:103B700080E096D25ED255D465CF992309F062CF0A
:103B800080912723823008F05DCFF1D280912723E6
:103B90008093202346D480912023882309F467C092
:103BA00084E0809324230E946C0B4CCF903809F062
:103BB00049CFDDD28091202373D23BD232D442CF81
:103BC00090912723913009F03DCF91E0833009F0A7
:103BD00090E09093222379CF10912123809122238A
:103BE000882309F4C2CF1260C0CF83E085CF83E081
:103BF0008C838AE38B836FB7F894A0ECB1E082E00A
:103C00001A968C931A97E8E0F0E024911A961C9289
:103C1000DE01159681E090E078E040EC51E012E0A2
:103C2000E22FEF702E2F30E0EA30A8F0295C3F4FF2
:103C30002D933D938C31910589F0FA011287E72F7E
:103C4000F0E02491FA01128680FF03C022952F70C4
:103C50007F5F0196E5CF205D3F4FEACF6FBF87D2F0
:103C6000CE0103966AE370E08FD0FCD1EBCE809159
:103C7000C304882321F084E08093242394CF81E03F
:103C8000FBCF59D222CF0895CF938091242388234C
:103C900011F4CF910895C091312380E010D293D2D6
:103CA000882321F48C2F0BD2CF91089594DEFACF84
:103CB000AF92BF92CF92DF92FF920F931F93CF9359
:103CC000DF93EC018B016A01C2D3F82E882361F5E2
:103CD000C114D10439F0F60180819181081B190BC0
:103CE000C80FD91F01151105F9F0C114D10441F015
:103CF00026C08991D5D10150104001151105A1F0C0
:103D000080912D2390912E23FC01EF5BFF4F2081AA
:103D1000805C9F4FFC018081281758F38AD1B4DF63
:103D200096D3882351F3F82E8F2DDF91CF911F91D9
:103D30000F91FF90DF90CF90BF90AF900895AA248D
:103D4000BB2480912D2390912E23FC01EF5BFF4F2C
:103D50002081FC01E05CFF4F8081281760F069D171
:103D600093DFF601808191818A0D9B1D8083918371
:103D700025E0F22ED9CF899193D10894A11CB11CD2
:103D80000A151B05F1F6D0CFCF92DF92EF92FF928A
:103D90000F931F93CF93DF93D82EC92EEB01809101
:103DA000312380688CD1E0902B23F0902C23EC16EB
:103DB000FD0620F0209709F486C07E0100E0E114A2
:103DC000F10409F04CC0002309F45FC08091242362
:103DD000882309F458C0853009F460C0F4D18823E1
:103DE00009F06FC008D2882309F04FC01CD2882385
:103DF00069F38091312387FD5BC080912D239091E1
:103E00002E23FC01E05CFF4FC0818F5B9F4FFC01C4
:103E10008081D0E0C81BD109E114F104B1F0C830B1
:103E2000D10598F40D2D1C2D03C0C830D10569F0C3
:103E3000F80181918F0134D1D02EC12E0894E10870
:103E4000F1082196E114F10481F701E0C830D105B1
:103E500009F000E0EED0E114F10409F4B4CF809150
:103E60002423882381F08530C9F0ADD1882349F51A
:103E7000C2D1882351F4D7D1882309F0BACF8091D9
:103E80002423882381F782E00AC0B5D18823F9F47E
:103E9000809124238823B9F38530B9F783E0DF913B
:103EA000CF911F910F91FF90EF90DF90CF900895E9
:103EB000E0912D23F0912E23EF5BFF4FC081D0E0E6
:103EC000ABCF81E0ECCFB5D0EE24FF2477CF80E0FC
:103ED000E6CFCF92DF92EF92FF920F931F93CF9393
:103EE000DF930F92CDB7DEB7D82EC92E7B0180911C
:103EF00031238068E4D000912B2310912C230E15E0
:103F00001F0528F0E114F10409F48DC08701ED2CA0
:103F1000FC2C80E00115110509F050C0882309F43C
:103F200063C080912423882309F45CC0853009F4A0
:103F300064C049D1882309F074C05DD1882309F099
:103F400053C071D1882369F38091312387FD60C00C
:103F500080912D2390912E23FC01E05CFF4FC080C7
:103F60008F5B9F4FFC018081DD24C81AD1080115A9
:103F70001105B9F088E0C816D10428F012C0F8E0A5
:103F8000CF16D10471F0F70184918AD00894E11C16
:103F9000F11C015010400894C11CD11C01151105E1
:103FA00071F781E098E0C916D10409F080E08983B7
:103FB00040D089810115110509F4B0CF80912423E7
:103FC000882381F08530C9F0FED0882351F513D1C4
:103FD000882351F428D1882309F0B6CF8091242377
:103FE000882381F782E00AC006D1882301F58091F9
:103FF00024238823B9F38530B9F783E00F90DF914C
:10400000CF911F910F91FF90EF90DF90CF90089587
:10401000E0912D23F0912E23EF5BFF4FC080DD2434
:10402000A6CF81E0EBCF05D000E010E070CF80E0BC
:10403000E5CFE0912F23F0913023A0912D23B09173
:104040002E23AF5BBF4F8C9190E08283938380815E
:104050008D798083E0912D23F0912E23EF5BFF4F2C
:1040600010820895E0912F23F091302380818D7983
:104070008083E0912D23F0912E23EF5BFF4F108280
:10408000089580912D2390912E23FC01EF5BFF4F2B
:104090002081820F911DDC018C912F5F2083089578
:1040A00020912D2330912E23F901EF5BFF4F90815A
:1040B000290F311DD9018C939F5F90830895282F7C
:1040C0002F708093312330E064E870E0269FA001D8
:1040D000279F500D369F500D11244E5C5C4D609112
:1040E000C6047091C70487FD11C040932D235093DF
:1040F0002E2322953295307F3227207F3227260FBC
:10410000371F20932F233093302308954E5B5F4F4A
:1041100040932D2350932E2322953295307F3227C2
:10412000207F3227285F3F4F260F371F20932F23F2
:10413000309330230895E0912F23F0913023818133
:1041400084608183E0912F23F09130238181807CF2
:10415000803409F00895809131238058B0DFE091D8
:104160002F23F09130238181846081830895809191
:1041700031238F77A4DFE0912F23F09130238081CA
:104180008D788083E0912F23F091302380818160AE
:104190008083E0912D23F0912E23EF5BFF4F10825F
:1041A0008091312380688BDFE0912F23F0913023C1
:1041B000808181608083E0912D23F0912E23EF5B3D
:1041C000FF4F10820895809131238F7778DFE0913F
:1041D0002F23F0913023808184FF0BC0A0912D23E9
:1041E000B0912E2382819381A05CBF4F8C9381E09C
:1041F000089580E00895809131238F7760DFE0910A
:104200002F23F0913023808185FF0BC0A0912D23B7
:10421000B0912E2382819381A05CBF4F8C9381E06B
:10422000089580E0089580913123806848DFE0910F
:104230002F23F0913023908181E091FF80E0089559
:104240001F93CF93DF9300D0CDB7DEB7182F4A83EB
:10425000698335DFE0912F23F09130231182E091C3
:104260002F23F09130234A81698117FD22C01082EB
:10427000E0912F23F09130236183E0912F23F0917F
:1042800030231282138280912D2390912E238483D8
:10429000958340E0FC01E05CFF4F40838F5B9F4FC4
:1042A000DC011C9281E00F900F90DF91CF911F9164
:1042B000089582E08083E0912F23F0913023618381
:1042C000E0912F23F09130231282138280912D23CD
:1042D00090912E2384839583DDCFCF92DF92EF924E
:1042E000FF920F931F93CF93DF930F92CDB7DEB75B
:1042F000F62E662309F441C06C0110E0F60100813E
:10430000002399F16381218132818481823008F414
:1043100041C048E158E12930310550F088E090E093
:1043200040E04F5F880F991F82179307D0F3452B0A
:10433000802F90E08F709070863091054CF521347D
:10434000310530F54F7E662341F5942F9064E22EBF
:10435000802F8058692F422F998372DF9981802F97
:10436000692F4E2D6DDF882399F01F5F85E090E067
:10437000C80ED91E1F1509F0C1CF81E00F90DF9143
:10438000CF911F910F91FF90EF90DF90CF90089504
:1043900080E0F4CF48E058E0BECF613031F0942F98
:1043A00090686623A1F2E22EDACF942F906CE22E71
:1043B000D6CFE0ECF4E0A681B78119961C92A681D5
:1043C000B78111961C92A681B78159961C92A6813D
:1043D000B78151961C92A681B78199961C92A681AD
:1043E000B78191961C92A681B781D9961C92A6811D
:1043F000B781D1961C92A681B781A75BBF4F1C9253
:10440000A681B781AF5BBF4F1C92A681B781A75A27
:10441000BF4F1C920680F781E02DEF5AFF4F1082AC
:1044200008958091252387FD08C0FDDE882369F467
:10443000809124238823C9F70895DDDE882331F491
:10444000809124238823C9F70895F3CD0BCE1F93C1
:10445000CF93DF93E091C604F091C704E05AFF4F79
:10446000C081D18114E6809131238078803821F198
:10447000C2DE882321F580912423882329F1853009
:1044800041F1E0912F23F0913023818182FD26C0FC
:10449000E091C604F091C704E05AFF4F80819181FA
:1044A000C817D90701F31123F1F01150EC018091E5
:1044B000312380788038E1F6B6DE8823E1F280E0AF
:1044C000DF91CF911F91089582E0DF91CF911F91ED
:1044D000089583E0DF91CF911F91089581E0DF91EE
:1044E000CF911F91089584E0DF91CF911F9108959E
:1044F00064D06AD0E0ECF4E081818E7F818380819A
:104500008F778083109223230895CF93DF93E0E485
:10451000F0E014828481816084834FD055D0C0EC58
:10452000D4E088818F77888388818068888310921F
:104530002423109220231092222310922123888179
:104540008064888380E868E448E07ADE80E068E49C
:1045500048E076DE888580648887898181608983E8
:10456000DF91CF910895CF93DF933FB7F894C0ECDC
:10457000D1E022E02A87EAE1F0E0E491A0ECB4E0A7
:10458000DA96EC93DA97EBE1F0E0E491DB96EC93CA
:10459000DB971A868BE496E28E7F16968D939C931A
:1045A000179785E18C9318962C933FBF81E08093F9
:1045B0002323ABDFDF91CF910895E0ECF4E0808519
:1045C0008370808711860895E0ECF4E08FEF828796
:1045D000848708951F920F920FB60F9211242F9384
:1045E0003F934F935F936F937F938F939F93AF937B
:1045F000BF93EF93FF938091CA0487FD4FC08091D2
:10460000CA0486FD42C08091CA0485FF0DC080E2C5
:10461000E0ECF4E0828780912023882371F184E02C
:10462000809324230E94620BE0ECF4E08091CA04A2
:1046300084FF12C080E1828782E08093242310925D
:1046400020231382B6DE80E868E448E0F9DD80E0EC
:1046500068E448E0F5DD17DBFF91EF91BF91AF9182
:104660009F918F917F916F915F914F913F912F918A
:104670000F900FBE0F901F9018958091C304882350
:10468000B9F481E080932423CDCF80E4E0ECF4E022
:104690008287109224230E94670BB5CF8091C804B3
:1046A00087FFADCF80E8E0ECF4E08287ECDAA7CFBB
:1046B00083E0E8CFEF92FF920F931F93CF93DF93A6
:1046C000EC0181DD882349F0888190E02091292345
:1046D00030912A232817390739F0DF91CF911F91A4
:1046E0000F91FF90EF90089580912623813209F475
:1046F0005FC0823208F04BC0803279F78091252369
:10470000813259F734DD04C080912423882329F3B2
:1047100072DD8823C9F3B5DCE82EB3DCF82EB1DCFA
:10472000082FAFDC482F50E060E070E0742F662760
:104730005527442710E020E030E09801112700279A
:10474000402B512B622B732B8E2D90E0A0E0B0E01C
:10475000482B592B6A2B7B2B8F2D90E0A0E0B0E0EB
:10476000BA2FA92F982F8827482B592B6A2B7B2BE0
:104770004C8B5D8B6E8B7F8B84DC888F82DC898F8A
:1047800080DC8A8F6FDC4DDECE019ED1A6CF8232D7
:1047900061F1833209F0A1CF80912523813209F0A4
:1047A0009CCFE5DC3EDECE01609127238DD195CFF5
:1047B00080912523813A09F090CFD9DC34DD88231C
:1047C000E9F38C89ED88FE880F896ADC8E2D68DC20
:1047D0008F2D66DC802F64DC888D62DC898D60DC47
:1047E0008A8D5EDC26DC1DDE78CF80912523813228
:1047F00009F073CFBCDC15DE80912723909128232C
:10480000888B998BCE0160D168CFCF93DF93EC0179
:104810004096FC018BE0DF011D928A95E9F782E06A
:104820008C83898783E08E87CE01019661E055DD18
:10483000882321F480E0DF91CF910895CE01069680
:1048400061E04BDD8823B1F3CE010B9661E045DDDD
:10485000DF91CF910895CF93DF93EB012091242333
:10486000243021F082E0DF91CF910895FC0144894A
:10487000558966897789411551056105710591F35F
:1048800081811DDCFE0101900020E9F73197EC1BCE
:10489000FD0BCE01BF0140E050E00ADAE4CF0F93F8
:1048A0001F93CF93DF938B01EA01209124232430BF
:1048B00031F082E0DF91CF911F910F910895FC01BB
:1048C00044895589668977894115510561057105C6
:1048D00081F38181F4DBC801BE0140E050E0E8D9FA
:1048E000E9CFCF93C62F20912423243019F082E002
:1048F000CF910895FC0144895589668977894115CE
:1049000051056105710599F38181D9DB20912D2332
:1049100030912E23F901EF5BFF4F9081205C3F4FD8
:10492000F9018081981720F084DB91DD882301F75D
:104930008C2FB6DB80E0DCCF0F931F93CF93DF93F8
:104940000F92CDB7DEB720912423243039F082E0D6
:104950000F90DF91CF911F910F910895FC01448931
:10496000558966897789411551056105710579F386
:104970008181A5DB8091312320912D2330912E233D
:10498000F90187FD1DC0E05CFF4F8081F901EF5BFD
:10499000FF4F408190E0841B9109009711F480E063
:1049A000D7CF0081205C3F4FF901108142DB011716
:1049B000B0F34DDD882361F689833BDB8981C8CF65
:1049C000EF5BFF4F808190E0E8CFCF93DF93EC0166
:1049D00080912423843019F0DF91CF9108958C8940
:1049E0009D89AE89BF890097A105B105A9F3898189
:1049F00066DB19DC882381F3CE019EDFEDCFCF93F8
:104A0000DF9300D0CDB7DEB7FC0180912423843042
:104A100009F03EC044895589668977894115510559
:104A200061057105A9F186814ADBE5DB882381F107
:104A30008091312320912D2330912E23F90187FD80
:104A40003EC0E05CFF4F8081F901EF5BFF4F40818A
:104A500090E0841B9109009711F58FEF9FEF409133
:104A6000312347FD29C0205C3F4FD9012C91408163
:104A700030E0241B31092115310561F489839A83C3
:104A8000F1DA89819A810F900F90DF91CF9108958B
:104A90008FEF9FEF0F900F90DF91CF910895F1DA94
:104AA00090E020912D2330912E23F901EF5BFF4FF1
:104AB0004091312347FFD7CF208130E0DCCFEF5B3F
:104AC000FF4F808190E0C7CF0895629FD001739F10
:104AD000F001829FE00DF11D649FE00DF11D929F9A
:104AE000F00D839FF00D749FF00D659FF00D9927D9
:104AF000729FB00DE11DF91F639FB00DE11DF91FFD
:104B0000BD01CF01112408958F929F92AF92BF9261
:104B1000CF92DF92EF92FF92CF93DF93EC018881E7
:104B20009981AA81BB810097A105B10521F484E296
:104B300099EDABE5B7E0BC01CD012DE133EF41E0EC
:104B400050E03DD349015A0127EA31E440E050E00A
:104B5000BCDF6B017C01C501B4012CEE34EF4FEFDB
:104B60005FEFB3DFDC01CB01C80ED91EEA1EFB1ECE
:104B7000F7FE08C08FEF9FEFAFEFBFE7C80ED91E5B
:104B8000EA1EFB1EC882D982EA82FB82C6019F7799
:104B9000DF91CF91FF90EF90DF90CF90BF90AF90DB
:104BA0009F908F900895B0CF8DE990E2ADCFA0E0B7
:104BB000B0E080939D2090939E20A0939F20B0937F
:104BC000A0200895FB01DC0102C005900D92415028
:104BD0005040D8F70895FB01DC018D9105908019B4
:104BE0000110D9F3990B0895FB01DC0141505040AD
:104BF00048F005900D920020C9F701C01D92415068
:104C00005040E0F70895FB01DC0102C001900D92D5
:104C100041505040D8F70895AEE0B0E0E1E1F6E24F
:104C2000F7C20D891E898F89988D2EE02C83098308
:104C30001A8397FF02C080E090E801978D839E83DE
:104C4000AE01455E5F4FCE010196698D7A8D11D020
:104C50004D815E8157FD0AC02F8138854217530769
:104C60000CF49A01020F131FF80110822E96E4E053
:104C7000E8C2ADE0B0E0EEE3F6E2BCC23C016C8716
:104C80007D875A01FC0116821782838181FFBBC197
:104C90002E010894411C511CF3019381EC85FD8584
:104CA00093FD859193FF8191EC87FD87882309F41B
:104CB000A6C1853241F493FD859193FF8191EC87E4
:104CC000FD87853221F490E0B301EFD1E5CFFF24D9
:104CD000EE2410E01032B0F48B3269F08C3228F4FC
:104CE000803251F0833271F40BC08D3239F0803351
:104CF00049F411602CC01260146029C0186027C0EC
:104D0000106125C017FD2EC0282F20532A3098F49B
:104D100016FF08C08F2D880FF82EFF0CFF0CF80E21
:104D2000F20E15C08E2D880FE82EEE0CEE0CE80E5C
:104D3000E20E10620CC08E3221F416FD60C11064C8
:104D400006C08C3611F4106802C0883659F4EC8520
:104D5000FD8593FD859193FF8191EC87FD878823E5
:104D600009F0B8CF982F9554933018F090529330A3
:104D700038F424E030E0A20EB31E3FE339830FC0C5
:104D8000833631F0833781F0833509F056C021C076
:104D9000F5018081898322E030E0A20EB31E21E07C
:104DA000C22ED12C420113C092E0292E312C2A0CA4
:104DB0003B1CF5018080918016FF03C06F2D70E0D1
:104DC00002C06FEF7FEFC40165D16C0151011F7705
:104DD00014C082E0282E312C2A0C3B1CF501808067
:104DE000918016FF03C06F2D70E002C06FEF7FEF60
:104DF000C40145D16C011068510113FD1AC005C0F2
:104E000080E290E0B30151D1EA948E2D90E0C81673
:104E1000D906B0F30EC0F40117FD859117FF8191FB
:104E20004F0190E0B30141D1E110EA940894C10828
:104E3000D108C114D10479F7DFC0843611F0893666
:104E400049F5F50117FF07C080819181A281B381E7
:104E500024E030E008C080819181AA2797FDA095C9
:104E6000BA2F22E030E0A20EB31E012F0F76B7FF5B
:104E700008C0B095A095909581959F4FAF4FBF4FBB
:104E80000068BC01CD01A2012AE030E03AD1D82E61
:104E9000D4183EC0853721F41F7E2AE030E020C0C0
:104EA000197F8F36A9F0803720F4883509F0A7C024
:104EB0000BC0803721F0883709F0A1C001C0106114
:104EC00014FF09C0146007C014FF08C0166006C0B4
:104ED00028E030E005C020E130E002C020E132E00F
:104EE000F50117FF07C0608171818281938144E0E1
:104EF00050E006C06081718180E090E042E050E0C7
:104F0000A40EB51EA201FDD0D82ED418012F0F7704
:104F100006FF09C00E7FDF1430F404FF06C002FD57
:104F200004C00F7E02C01D2D01C01F2D802F90E0F8
:104F300004FF0CC0FE01ED0DF11D2081203311F4A2
:104F4000097E09C002FF06C01E5F05C0867890700A
:104F5000009709F01F5F802E992403FD11C000FF08
:104F60000CC0FD2C1E1548F4FE0CF11A1E2D05C0B8
:104F700080E290E0B30199D01F5F1E15C8F304C012
:104F80001E1510F4E11A01C0EE2484FE0EC080E369
:104F900090E0B3018AD082FE1DC081FE03C088E587
:104FA00090E010C088E790E00DC0C4018678907052
:104FB000009781F081FC02C080E201C08BE207FD16
:104FC0008DE290E0B30171D005C080E390E0B301C1
:104FD0006CD0FA94DF14C8F3DA94F201ED0DF11DF0
:104FE000808190E0B30161D0DD20B1F705C080E29F
:104FF00090E0B3015AD0EA94EE20C9F74DCEF30108
:105000008681978102C08FEF9FEF2D96E2E10BC161
:10501000E0ECF1E0A785A7FDFDCFA485A860A487FB
:105020006050704FF0CDDC01CB0102C02D9105D056
:1050300041505040D8F70895262FE0ECF1E0378535
:1050400037FDFDCF3485377F3487378531FF09C081
:1050500036E3328738ED34BF31E03387378537FDAB
:10506000FDCF33E33287808391831282248325E34B
:10507000228728ED31E024BF338701960895FC0193
:105080000590615070400110D8F7809590958E0F73
:105090009F1F0895FC016150704001900110D8F7E6
:1050A000809590958E0F9F1F08950F931F93CF9318
:1050B000DF938C01EB018B8181FF1BC082FF0DC050
:1050C0002E813F818C819D812817390764F4E88106
:1050D000F9810193E883F98306C0E885F985802F7B
:1050E0000995009731F48E819F8101968E839F836D
:1050F00002C00FEF1FEFC801DF91CF911F910F91F9
:105100000895FA01AA27283051F1203181F1E8945D
:105110006F936E7F6E5F7F4F8F4F9F4FAF4FB1E0AA
:105120003ED0B4E03CD0670F781F891F9A1FA11DA5
:10513000680F791F8A1F911DA11D6A0F711D811DA6
:10514000911DA11D20D009F468943F912AE0269F6B
:1051500011243019305D3193DEF6CF010895462FCA
:105160004770405D4193B3E00FD0C9F7F6CF462FAB
:105170004F70405D4A3318F0495D31FD4052419314
:1051800002D0A9F7EACFB4E0A695979587957795D1
:105190006795BA95C9F700976105710508959B0158
:1051A000AC010A2E06945795479537952795BA95E1
:1051B000C9F7620F731F841F951FA01D089597FBE9
:1051C000092E05260ED057FD04D045D00AD0001C6C
:1051D00038F450954095309521953F4F4F4F5F4F94
:1051E0000895F6F790958095709561957F4F8F4F54
:1051F0009F4F08952F923F924F925F926F927F92AE
:105200008F929F92AF92BF92CF92DF92EF92FF92D6
:105210000F931F93CF93DF93CDB7DEB7CA1BDB0B82
:10522000CDBFDEBF09942A88398848885F846E84A0
:105230007D848C849B84AA84B984C884DF80EE80BA
:10524000FD800C811B81AA81B981CE0FD11DCDBFFC
:10525000DEBFED010895A1E21A2EAA1BBB1BFD01C2
:105260000DC0AA1FBB1FEE1FFF1FA217B307E40745
:10527000F50720F0A21BB30BE40BF50B661F771F9D
:10528000881F991F1A9469F760957095809590957D
:0E5290009B01AC01BD01CF010895F894FFCF42
:10529E0000831000000104100000018208000001CC
:1052AE0000000000000000000000001400000101DA
:1052BE0001000000010000010001010001000000DA
:1052CE0002020000020002020202000002000000C0
:1052DE000404000004000404040400000400080890
:1052EE000800000008000008000808000800000080
:1052FE00101000001000101010100000100001001F
:10530E000100000000000000010001010101010187
:10531E0000010001000000010100010101A12000B7
:10532E000000000200A101000000000000010000CA
:02533E0000006D
:00000001FF
