:100000000C94FC0A0C94210B0C94210B0C94210BE6
:100010000C94210B0C94210B0C94210B0C94210BB0
:100020000C94210B0C94210B0C944E0C0C94210B72
:100030000C94210B0C94210B0C94210B0C94210B90
:100040000C94210B0C94210B0C94210B0C94210B80
:100050000C94210B0C94210B0C94210B0C94210B70
:100060000C94210B0C94210B0C94210B0C94210B60
:100070000C94210B0C94210B0C94210B0C94210B50
:100080000C94210B0C94210B0C949A210C94210BB1
:100090000C94210B0C94210B0C94210B0C94210B30
:1000A0000C94210B0C94210B0C94210B0C94210B20
:1000B0000C94210B0C94210B0C94210B0C946722B3
:1000C0000C94210B0C942F260C94210B0C94210BD7
:1000D0000C94210B0C94210B0C94210B0C94210BF0
:1000E0000C94210B0C94210B0C94210B0C94210BE0
:1000F0000C94210B0C94210B0C94210B0C94210BD0
:100100000C94210B0C94210B0C94210B0C94210BBF
:100110000C94210B0C940A260C94210B0C94210BAB
:100120000C94210B0C94210B0C94210B0C94210B9F
:100130000C94210B0C94210B0C94210B0C94D221C8
:100140000C94D5240C94210B0C94210B0C94210BB2
:100150000C94210B0C949F250C94210B0C94210BD7
:100160000C94210B0C94210B0C94210B0C94210B5F
:100170000C94210B0C94210B0C94210B0C94210B4F
:100180000C94210B0C94210B0C94210B0C94210B3F
:100190000C94210B0C94210B0C94210B0C94210B2F
:1001A0000C94210B0C94210B0C94210B0C94210B1F
:1001B0000C94210B0C94210B0C94210B0C94210B0F
:1001C0000C94210B0C94210B0C94210B0C94210BFF
:1001D0000C94210B0C94210B0C94210B0C94210BEF
:1001E0000C94210B0C94210B0C94210B0C94210BDF
:1001F0000C94210B0C94D2400C94210B1E03430051
:10020000680061006D0065006C0065006F006E00A5
:100210002D004D0069006E00690000002A034B00AC
:10022000610073007000650072002000260020004D
:100230004F007300770061006C00640020004700ED
:100240006D006200480000000403090409023E003A
:10025000020100C03209040000010202010005246D
:10026000001001042402060524060001070582038C
:100270000800FF09040100020A000000070504024B
:10028000100005070583021000051201100102008D
:100290000008D016B20401000102DC01F80CF90CD0
:1002A000FA0CFB0CFC0CFD0CFE0CFF0C020D030DFC
:1002B0000000000128239423B323D028D428D82871
:1002C000FE0CD9280E2A212A400007002823942357
:1002D000B323612A7B2A7F2AFE0C802A00301C303F
:1002E0000004040028239423B323612A7B2A7F2A55
:1002F000FE0C802A00301C300004070028239423C1
:10030000B3236E2A7B2A7F2AFE0C802A00301C3001
:100310000010040028239423B3236E2A7B2A7F2A0B
:10032000FE0C802A00301C30001007002823942384
:10033000B323FB0CFC0CFD0CFE0CFF0C020D030D9B
:10034000000000014A24C3240227443347335433B6
:1003500055337A33020D030D00000000004E4F4E5E
:100360004500000000000000000000000000000048
:1003700000000000000000000000000000014D46E9
:100380005F554C5452414C4947485400000000000E
:100390000000000000000000000000000000024D0E
:1003A000465F434C41535349435F314B00000000CB
:1003B000000000000000000000000000000000033A
:1003C0004D465F434C41535349435F314B5F374286
:1003D000000000000000000000000000000000001D
:1003E000044D465F434C41535349435F344B000037
:1003F00000000000000000000000000000000000FD
:1004000000054D465F434C41535349435F344B5FB6
:100410003742000000000000000000000000000063
:1004200000000649534F3134343433415F534E4951
:100430004646000000000000000000000000000030
:100440000000000749534F3134343433415F524583
:100450004144455200000000000000000000000080
:100460000000000001000001000101000001010086
:100470000100000100010100010000010100000174
:100480000001010000010100010000010100000164
:100490000001010001000001000101000001010054
:1004A0000100000100010100010000010100000144
:1004B0000001010001000001000101000001010034
:1004C0000100000101000001000101000001010024
:1004D0000100000100010100010000010100000114
:1004E0000001010000010100010000010100000104
:1004F00000010100010000010001010000010100F4
:1005000001000001010000010001010000010100E3
:1005100001000001000101000100000101000001D3
:1005200000010100010000010001010000010100C3
:1005300001000001000101000100000101000001B3
:1005400000010100000101000100000101000001A3
:100550000001010001000001000101000001010093
:1005600001000001008040C020A060E0109050D049
:1005700030B070F0088848C828A868E8189858D89B
:1005800038B878F8048444C424A464E4149454D49B
:1005900034B474F40C8C4CCC2CAC6CEC1C9C5CDC3B
:1005A0003CBC7CFC028242C222A262E2129252D283
:1005B00032B272F20A8A4ACA2AAA6AEA1A9A5ADA3B
:1005C0003ABA7AFA068646C626A666E6169656D63B
:1005D00036B676F60E8E4ECE2EAE6EEE1E9E5EDEDB
:1005E0003EBE7EFE018141C121A161E1119151D147
:1005F00031B171F1098949C929A969E9199959D90B
:1006000039B979F9058545C525A565E5159555D50A
:1006100035B575F50D8D4DCD2DAD6DED1D9D5DDDAA
:100620003DBD7DFD038343C323A363E3139353D3F2
:1006300033B373F30B8B4BCB2BAB6BEB1B9B5BDBAA
:100640003BBB7BFB078747C727A767E7179757D7AA
:1006500037B777F70F8F4FCF2FAF6FEF1F9F5FDF4A
:100660003FBF7FFF004E4F4E4500000000000000DE
:10067000000000000000000000000000000000007A
:100680000000000000015549445F52414E444F4D67
:10069000000000000000000000000000000000005A
:1006A000000000000000025549445F4C4546545F7D
:1006B000494E4352454D454E540000000000000095
:1006C00000000000000000035549445F52494748BC
:1006D000545F494E4352454D454E540000000000C2
:1006E0000000000000000000045549445F4C4546EE
:1006F000545F44454352454D454E540000000000B0
:10070000000000000000000000055549445F524908
:100710004748545F44454352454D454E5400000000
:1007200000000000000000000000064359434C4553
:100730005F53455454494E475300000000000000E9
:1007400000000000000000000000000753544F525A
:10075000455F4D454D000000000000000000000016
:1007600000000000000000000000000008524543A7
:10077000414C4C5F4D454D00000000000000000062
:100780000000000000000000000000000009544FBD
:1007900047474C455F4649454C4400000000000077
:1007A00000000000000000000000000000000A53EC
:1007B000544F52455F4C4F470000000000000000BE
:1007C0000000000000000000000000000000000029
:1007D0004F4646000000000000000000000000003E
:1007E0000000000000000000000000000000000009
:1007F000014D454D4F52590000000000000000001F
:1008000000000000000000000000000000000000E8
:1008100000024C49564500000000000000000000A6
:1008200000000000000000000000000000000000C8
:100830000000004E4F4E4500000000000000000088
:1008400000000000000000000000000000000000A8
:1008500000000001504F5745524544000000000081
:100860000000000000000000000000000000000088
:1008700000000000025445524D494E414C5F434F29
:100880004E4E0000000000000000000000000000CC
:100890000000000000035445524D494E414C5F5248
:1008A0005854580000000000000000000000000044
:1008B0000000000000000453455454494E475F4374
:1008C00048414E47450000000000000000000000C5
:1008D00000000000000000054D454D4F52595F5388
:1008E000544F52454400000000000000000000008A
:1008F0000000000000000000064D454D4F52595FBA
:100900004348414E474544000000000000000000FD
:1009100000000000000000000008434F4445435F12
:10092000525800000000000000000000000000001D
:100930000000000000000000000009434F44454350
:100940005F5458000000000000000000000000009C
:100950000000000000000000000000074649454C70
:10096000445F4445544543544544000000000000A2
:100970000000000000000000000000000A4C4F478B
:100980004D454D5F46554C4C0000000000000000F6
:100990000000000000000000000000000025632CA3
:1009A000256300416E7920696E7465676572206603
:1009B000726F6D203020746F2025752E2052656671
:1009C0006572656E636520766F6C7461676520770C
:1009D000696C6C2062652028564343202A205448C5
:1009E000524553484F4C44202F203430393529206C
:1009F0006D562E0025750030203D206E6F207469E5
:100A00006D656F75740D0A312D363030203D203103
:100A10003030206D73202D203630303030206D7313
:100A20002074696D656F7574002575206D730025E0
:100A3000342E345800253575206D56002575002557
:100A4000750025750025632C25630052414E444FE7
:100A50004D004E4F205549442E004368616D656C32
:100A6000656F6E4D696E692052657647202553206B
:100A70007573696E67204C55464120255320636F7E
:100A80006D70696C65642077697468204156522DD9
:100A90004743432025530D0A4261736564206F6EFE
:100AA00020746865206F70656E2D736F7572636555
:100AB000204E464320746F6F6C204368616D656CF7
:100AC000656F6E4D696E690D0A68747470733A2FA4
:100AD0002F6769746875622E636F6D2F656D73651E
:100AE000632F4368616D656C656F6E4D696E690D4E
:100AF0000A636F6D6D6974202553003136313030D3
:100B0000370031353131313500342E392E3200661F
:100B1000343666356234000D0A000D0A000D0A00F5
:100B20000D0A000D0A000D0A00643130303A4F4BB7
:100B300000000000000000000000000000000000B5
:100B400000000000000000000000653130313A4F25
:100B50004B20574954482054455854000000000089
:100B600000000000000000000000006E3131303A4B
:100B700057414954494E4720464F5220584D4F4403
:100B8000454D00000000000000000000C832303079
:100B90003A554E4B4E4F574E20434F4D4D414E44CC
:100BA00000000000000000000000000000C932301A
:100BB000313A494E56414C494420434F4D4D414EE8
:100BC0004420555341474500000000000000CA3250
:100BD00030323A494E56414C494420504152414DE1
:100BE000455445520000000000000000000000785D
:100BF0003132303A46414C534500000000000000BD
:100C000000000000000000000000000000000000E4
:100C1000793132313A54525545000000000000004D
:100C200000000000000000000000000000000000C4
:100C300000CB3230333A54494D454F5554000000F3
:100C400000000000000000000000000000000000A4
:100C5000000056455253494F4E000000000000006E
:100C600000000000000000000B18434F4E464947AB
:100C70000000000000000000000000000000331829
:100C80002D1855494400000000000000000000003D
:100C900000000000000089184A18524541444F4E98
:100CA0004C59000000000000000000000000E718A0
:100CB000DB1855504C4F414400000000000000007C
:100CC00000001419000000000000444F574E4C4F24
:100CD000414400000000000000001919000000005D
:100CE0000000524553455400000000000000000081
:100CF00000001E19000000000000555047524144FA
:100D0000450000000000000000002919000000005C
:100D100000004D454D53495A4500000000000000B9
:100D20000000000000000000341955494453495A9E
:100D3000450000000000000000000000000000006E
:100D40004C1952425554544F4E0000000000000010
:100D50000000000000006919621952425554544FB6
:100D60004E5F4C4F4E470000000000000000851908
:100D70007E194C425554544F4E00000000000000B4
:100D8000000000000000A1199A194C425554544F1C
:100D90004E5F4C4F4E470000000000000000BD19A0
:100DA000B6194C4544475245454E0000000000002E
:100DB000000000000000D919D2194C4544524544A6
:100DC0000000000000000000000000000000F51915
:100DD000EE194C4F474D4F44450000000000000005
:100DE0000000000000000F1A0A1A4C4F474D454DF5
:100DF00000000000000000000000000000000000F3
:100E0000241A4C4F47444F574E4C4F41440000006A
:100E100000003E1A0000000000004C4F4753544FA2
:100E200052450000000000000000431A00000000CE
:100E300000004C4F47434C45415200000000000069
:100E40000000461A00000000000053455454494E6B
:100E500047000000000000000000000000004E1AE3
:100E6000491A434C454152000000000000000000B8
:100E70000000571A00000000000053544F52450074
:100E8000000000000000000000005B1A00000000ED
:100E90000000524543414C4C00000000000000009F
:100EA00000005F1A0000000000004348415247491B
:100EB0004E4700000000000000000000000000009D
:100EC000631A48454C50000000000000000000007C
:100ED00000006B1A0000000000005253534900004C
:100EE0000000000000000000000000000000000002
:100EF000A71A5359535449434B0000000000000007
:100F00000000000000000000DA1A53454E445F5212
:100F1000415700000000000000000000801B00009E
:100F2000000053454E440000000000000000000097
:100F300000000000F61A00000000474554554944DF
:100F4000000000000000000000003C1C0000000049
:100F5000000044554D505F4D465500000000000014
:100F600000001F1C0000000000004944454E544989
:100F700046590000000000000000591C000000005D
:100F8000000054494D454F5554000000000000003A
:100F9000000000000000961C761C5448524553483F
:100FA0004F4C440000000000000000000000FA1C4C
:100FB000E21C4649454C44000000000000000000CF
:100FC000000000000000461D701D00000000000031
:100FD0000000000000000000000000000000000011
:100FE00000000400010901000000000000000000F2
:100FF0000000000000000000004E585000000000FB
:101000000000000000000000004D4946415245200C
:101010004D696E6900000000000000000000000043
:1010200000000000000000000000000000000000C0
:1010300000000000000000000000000000000000B0
:101040000000000000000000000400010801000092
:101050000000000000000000000000000000000090
:101060004E5850000000000000000000000000008A
:101070004D494641524520436C6173736963203189
:101080006B000000000000000000000000000000F5
:101090000000000000000000000000000000000050
:1010A0000000000000000000000000000000000040
:1010B0000200011801000000000000000000000014
:1010C000000000000000004E58500000000000002A
:1010D000000000000000004D494641524520436C8D
:1010E000617373696320346B00000000000000002E
:1010F00000000000000000000000000000000000F0
:1011000000000000000000000000000000000000DF
:101110000000000000000044000100010000000089
:1011200000000000000000000000000000004E5819
:1011300050000000000000000000000000004D49C9
:101140004641524520556C7472616C696768740041
:10115000000000000000000000000000000000008F
:10116000000000000000000000000000000000007F
:101170000000000000000000000000000000440328
:10118000012001757781028000000000000000004E
:1011900000000005004E5850000000000000000054
:1011A00000000000004D4946415245204445534649
:1011B00069726500000000000000000000000000EF
:1011C000000000000000000000000000000000001F
:1011D000000000000000000000000000000000000F
:1011E00000000000004403012001757781028000A7
:1011F0000000000000000000000005004E585000F4
:101200000000000000000000000000004D494641C1
:1012100052452044455346697265204556310000C9
:1012200000000000000000000000000000000000BE
:1012300000000000000000000000000000000000AE
:10124000000000000000000000000000040301286E
:10125000013877B14A434F5033310000000000009D
:1012600000090149424D000000000000000000009C
:101270000000004A434F50333100000000000000DE
:10128000000000000000000000000000000000005E
:10129000000000000000000000000000000000004E
:1012A000000000000000000000000000000000003E
:1012B00000000048000120017877B1024A434F50F6
:1012C00076323431000000000C0149424D0000002C
:1012D000000000000000000000004A434F5033317E
:1012E0002076322E342E3100000000000000000075
:1012F00000000000000000000000000000000000EE
:1013000000000000000000000000000000000000DD
:10131000000000000000000000004800012001382B
:1013200033B14A434F503431563232000000000C82
:101330000149424D000000000000000000000000D4
:10134000004A434F5034312076322E3200000000E4
:10135000000000000000000000000000000000008D
:10136000000000000000000000000000000000007D
:10137000000000000000000000000000000000006D
:101380000004000128013833B14A434F503431562C
:101390003233310000000D0149424D0000000000D1
:1013A00000000000000000004A434F503431207616
:1013B000322E332E3100000000000000000000003B
:1013C000000000000000000000000000000000001D
:1013D000000000000000000000000000000000000D
:1013E000000000000000000004000188010000006F
:1013F00000000000000000000000000000000049A4
:101400006E66696E656F6E00000000000000004DA2
:10141000494641524520436C617373696320316BC7
:1014200000000000000000000000000000000000BC
:1014300000000000000000000000000000000000AC
:10144000000000000000000000000000000000029A
:1014500000019801000000000000000000000000F2
:1014600000000000000047656D706C75730000009F
:101470000000000000004D50434F530000000000EA
:10148000000000000000000000000000000000005C
:10149000000000000000000000000000000000004C
:1014A000000000000000000000000000000000003C
:1014B000000000000000000C01000000000000001F
:1014C00000000000000000000000000000496E6EF7
:1014D0006F766973696F6E2052265400004A6577F3
:1014E000656C00000000000000000000000000002B
:1014F00000000000000000000000000000000000EC
:1015000000000000000000000000000000000000DB
:1015100000000000000000000000000000020001C8
:101520003801000000000000000000000000000082
:10153000000000004E6F6B696100000000000000B9
:10154000000000004D494641524520436C617373D1
:10155000696320346B202D20656D756C6174656442
:1015600020283632313220436C617373696329005D
:10157000000000000000000000000000000000006B
:101580000000000008000138010000000000000019
:1015900000000000000000000000004E6F6B696159
:1015A00000000000000000000000004D49464152CC
:1015B0004520436C617373696320346B202D206573
:1015C0006D756C61746564202836313331204E4668
:1015D000432900000000000000000000000000009F
:1015E00000000000000000000000006364696E6FEE
:1015F00070737578585B000011241FBECFEFCDBF0C
:10160000DFE3DEBF00E00CBF18BE19BE1ABE1BBE72
:1016100011E2A0E0B0E2E2E4F5E900E00BBF02C0B5
:1016200007900D92A438B107D9F71BBE22E3A4E8B6
:10163000B1E201C01D92A533B207E1F73BD00C9493
:101640009F4A23C13BB78BBFFB01879196913BBF5C
:1016500008953BB78BBFCB0142E20D94F00F3BB72F
:101660000B0143E20D94F00F3BB78BBFCB0145E27A
:101670000D94F00F3BB746E208C02091CF0127FD43
:10168000FCCF22272093CA0108954093CA0128ED78
:1016900031E0209334003093CB016091C40170910C
:1016A000C5018091C60199270895FC014093CA01A4
:1016B000849108950CD10E944F150E94CE15C0D27E
:1016C0001092520684E08093420682E6809386015F
:1016D000C1E0C0932606C093210686E080932206CF
:1016E000C093310602E00093320610922A0613E0FE
:1016F0001093290689E5809380018AE58093810112
:1017000080E480934106809346069091B200907FDA
:101710009093B2009091B20092609093B20090E3E7
:10172000909341069093460680935006C0934606D8
:10173000009345061093410683E18093010821E060
:1017400030E0209326083093270820932808309310
:10175000290810928C08809380081092230310921D
:101760002103D8E0D093220381E18093200380916C
:101770001E2090911F2080933803909339038CE3AF
:1017800080938203D093800380938303D09381035B
:101790006DD10E946F17BED158D6C093000210922F
:1017A00001020093020210930402C0932002D0931E
:1017B0002102EFD718D1D2E0C1E18091030481FF6B
:1017C00024C08091010480FDFCCFD0930304B7D1E5
:1017D0000E94A11742D6FFD60E94D215E091472B56
:1017E000F091482B19950E9457200E941617E091FE
:1017F000562BF091572B8781813011F4C0938C299F
:101800008681813011F4C0938B290E947317E4D62E
:10181000E091452BF091462B1995E0913F2BF091EB
:10182000402B1995CACF292F33272230310559F083
:101830002330310569F021303105F9F482E190E07F
:101840002AE832E01EC08EE390E02CE432E019C0BA
:1018500099278130910541F08230910541F0892B23
:1018600061F4E8E4F2E005C0ECE1F2E002C0ECEF84
:10187000F1E0849190E09F0104C080E090E020E0DE
:1018800030E0FA012083318308951F920F920FB642
:101890000F92112408B60F9218BEFFCF1F920F921D
:1018A0000FB60F92112408B60F9218BE8F939F9314
:1018B0008EB19FB180589F4F8EB99FB99F918F91E4
:1018C0000F9008BE0F900FBE0F901F90189580913B
:1018D000780083FF0AC088E08093780088ED84BF99
:1018E00081E0809380000D94FE008BEC8093520089
:1018F000809150008860809350008091510083FF58
:10190000FCCF82EC809355008091500080618093E1
:1019100050008091510084FFFCCF88ED84BF84E0AB
:10192000809340001EB81FB881E0809343002FE7EA
:1019300030E020930A0430930B0420930C0430937E
:101940000D04809300048093020480E880930001DA
:10195000089588ED84BF81E080937900089588ED33
:1019600084BF8BE180938000089580915000826055
:10197000809350008091510081FFFCCF82E08093E2
:10198000CA01EDE1F0E0E491E0936200ECE1F0E007
:10199000E491E09363001092CA0180E880936500AF
:1019A0008BEB8093660080915600897F8093560070
:1019B0008091560084608093560080916000816021
:1019C000809360000895E0E4F0E084818E7F84835A
:1019D000E0E6F0E080818E7F8083E0E5F0E08081CA
:1019E0008D7F8083089587E08093A2007894089586
:1019F000089508950895089508950895089580E03C
:101A000090E00895089508950F931F93CF93DF9367
:101A10001F92CDB7DEB70BE31BE2D8011296ED9112
:101A2000FC911397898319950E948F20E091562B82
:101A3000F091572B89818583B8E18B9FB0011124E8
:101A400064567D4F48E150E0C8010E94B743D80179
:101A5000ED91FC911995D8011696ED91FC9117978F
:101A60000F90DF91CF911F910F91199448E150E0B1
:101A70006CE972E08BE39BE20E94B743E091562B46
:101A8000F091572B8581C0CF0F931F93E091562B78
:101A9000F091572B8B019C01458168E08CE593E028
:101AA0000E94B3161F910F910895FF920F931F93F9
:101AB000CF93DF931F92CDB7DEB78C019E012F5FCE
:101AC0003F4FAC0168E08CE593E00E94CB16F82E06
:101AD000882389F0898198DFF80140E0819188238B
:101AE00019F04F5F4F31D1F7E091532BF091542B08
:101AF000B80181E119958F2D0F90DF91CF911F9142
:101B00000F91FF9008959B01AC0168E08CE593E094
:101B10000C94F21608950C94A94308951F93CF9343
:101B2000DF93C82FD92F162F180F1C1721F00E94F2
:101B3000A9438993FACFDF91CF911F9108950E9415
:101B4000A9430E94A9430E94A9430C94A943EF9280
:101B5000FF920F931F93CF93DF937C016150710924
:101B6000FA018A01020F131FDC0140E050E0E01788
:101B7000F107F1F062307105D8F09191392F32956B
:101B80003F703A3010F4305D01C0395C3C939F7077
:101B90009A3010F4905D01C0995C9701240F351FB5
:101BA000E90199831296625071094E5F5F4FDFCF52
:101BB0001C92CA01DF91CF911F910F91FF90EF907E
:101BC0000895CF93DF93EC01DA01E0E0F0E04C916F
:101BD000442391F111969C911197992339F1E617BD
:101BE000F70721F180ED840F8A3020F08FEB840F0E
:101BF0008630D0F480ED890F8A3020F02FEB290F4A
:101C0000263090F4242F30E0413410F0275331096E
:101C10002295207F913410F4982F01C09753292BDF
:101C2000299331961296D3CF80E004C011968C91FF
:101C3000811102C090E001C0CF01DF91CF910895E2
:101C4000E0E6F6E080E1858382E0868388E08583B4
:101C50008AE18183E0EAF9E01682178280EC8583CD
:101C600088E18483E0E0F1E0128A8BE6838B148ABA
:101C7000158A20EA208F99E0918F128E148E158E8E
:101C8000168E84E0808B12A23CE633A314A215A228
:101C900010A611A612A624A795A716A680A308959C
:101CA0004115510509F449C020E12093660623E05F
:101CB0002093A0092091A10927FFFCCF2091A00922
:101CC0007093A0092091A10927FFFCCF2091A009C2
:101CD0006093A0092091A10927FFFCCF2091A009C2
:101CE00021E02093120180931C0190931D014093E9
:101CF0001401509315011092220184E891E280931F
:101D0000280190932901409324015093250180914B
:101D10001001806880931001809120018068809379
:101D200020018091100187FDFCCF80E38093110199
:101D30008093210180E18093650608954115510546
:101D400009F469C020E12093660626E02093A009EB
:101D50002091A10927FFFCCF2091A00920E1209329
:101D60006506000000002093660622E02093A0098B
:101D70002091A10927FFFCCF2091A0097093A00911
:101D80002091A10927FFFCCF2091A0096093A00911
:101D90002091A10927FFFCCF2091A00910921201E8
:101DA00024E831E220931C0130931D01409314017B
:101DB0005093150120E120932201809328019093F4
:101DC00029014093240150932501809110018068DE
:101DD0008093100180912001806880932001809180
:101DE000100187FDFCCF80E38093110180932101D6
:101DF00080E180936506E091562BF091572B878107
:101E0000863019F481E180938C298681863019F41B
:101E100081E180938B290895CF92DF92EF92FF9218
:101E2000CF93DF93C090552BD12CE12CF12C8DE07A
:101E3000CC0CDD1CEE1CFF1C8A95D1F7C114D1041B
:101E400081E0E806F10408F04EC080E18093660668
:101E500086E08093A0098091A10987FFFCCF809143
:101E6000A00980E18093650600000000809366066B
:101E700082E08093A0098091A10987FFFCCF809127
:101E8000A0091092A0098091A10987FFFCCF809141
:101E9000A0091092A0098091A10987FFFCCF8FEFC4
:101EA000E81AF80A8091A009C0E0D0E1C701B601A4
:101EB000C9DB8093A0098091A10987FFFCCF8091A5
:101EC000A0099093A0098091A10987FFFCCF809180
:101ED000A00982E0C80ED11CE11CF11C219731F74A
:101EE00080E180936506DF91CF91FF90EF90DF90C6
:101EF000CF900895CF92DF92EF92FF92CF93DF932E
:101F0000C090552BD12CE12CF12C8DE0CC0CDD1C9C
:101F1000EE1CFF1C8A95D1F7C114D10481E0E806BC
:101F2000F10438F0DF91CF91FF90EF90DF90CF90E8
:101F300073CF8FEFE81AF80AC1E2D0E0219791F34E
:101F40009CDBC701B60185DB98DB8FEFD81AE80A66
:101F5000F80AF4CFCF92DF92EF92FF920F931F9384
:101F6000CF93DF93C090552BD12CE12CF12C8DE039
:101F7000CC0CDD1CEE1CFF1C8A95D1F7C114D104DA
:101F800081E0E806F10408F04FC080E18093660626
:101F900083E08093A0098091A10987FFFCCF809105
:101FA000A0091092A0098091A10987FFFCCF809120
:101FB000A0091092A0098091A10987FFFCCF8FEFA3
:101FC000E81AF80A8091A009C1E2D0E0219749F10E
:101FD00054DB50DB52DB00E010E01092A00980914E
:101FE000A10987FFFCCF6091A00970E01092A009C1
:101FF0008091A10987FFFCCF8091A009782BC801AF
:102000002EDB3BDB0E5F1F4F011581E0180729F720
:10201000C701B60129DB31DB8FEFD81AE80AF80ACD
:10202000D5CF80E180936506E091562BF091572B38
:102030008781863019F490E190938C2996819630AF
:1020400049F420E120938B29853059F483E1809372
:102050008C2902C08530D1F3953019F483E1809347
:102060008B29DF91CF911F910F91FF90EF90DF901F
:10207000CF900895CF92DF92EF92FF920F931F932C
:102080004115E0E25E076105710508F06BC069016A
:10209000E12CF12C00E010E220E030E0041B150BF5
:1020A000260B370BC016D106E206F30610F4970193
:1020B000860120E12093660626E02093A009209166
:1020C000A10927FFFCCF2091A00920E120936506FC
:1020D000000000002093660622E02093A0092091D2
:1020E000A10927FFFCCF2091A0095093A0092091BE
:1020F000A10927FFFCCF2091A0094093A0092091BE
:10210000A10927FFFCCF2091A0091092120124E819
:1021100031E220931C0130931D01009314011093B0
:10212000150120E120932201809328019093290139
:102130000093240110932501809110018068809301
:10214000100180912001806880932001809110010E
:1021500087FDFCCF80E3809311018093210180E112
:102160008093650681E01F910F91FF90EF90DF90C3
:10217000CF900895CF92DF92EF92FF920F931F932B
:102180004115E0E25E076105710508F05DC0690177
:10219000E12CF12C00E010E220E030E0041B150BF4
:1021A000260B370BC016D106E206F30610F4970192
:1021B000860120E12093660623E02093A009209168
:1021C000A10927FFFCCF2091A0095093A0092091DD
:1021D000A10927FFFCCF2091A0094093A0092091DD
:1021E000A10927FFFCCF2091A00921E02093120133
:1021F00080931C0190931D0100931401109315010D
:102200001092220184E891E28093280190932901A1
:102210000093240110932501809110018068809320
:10222000100180912001806880932001809110012D
:1022300087FDFCCF80E3809311018093210180E131
:102240008093650681E001C080E01F910F91FF90AF
:10225000EF90DF90CF9008950F931F93CF93DF936C
:10226000CDB7DEB7A097CDBFDEBF853009F4A0C0E3
:10227000E8F4823009F43DC028F4813009F0DDC073
:1022800010E028C0833009F467C0843009F0D5C05D
:10229000E0914B2BF0914C2B8E010F5F1F4FC8012B
:1022A00019952091512BF80191E042C0883009F432
:1022B000B5C040F4863009F4AFC0873009F0BDC026
:1022C00049DEBBC0893009F4ABC08A3009F0B5C023
:1022D000EED2B3C08091512B181708F08CC01BDCD4
:1022E000E1E0F0E0EC0FFD1FE10FF11D80831F5FC7
:1022F000F1CFE0914B2BF0914C2B8E010F5F1F4FD4
:10230000C80119952091512BF80191E08E2F801B67
:10231000821790F4992339F0808191E08F3F09F082
:1023200090E08F5F80833196F1CF91113AC0319662
:102330008E2F801B8217C8F3E0914D2BF0914E2B0E
:10234000C8011995E091532BF091542B4091512BDA
:10235000B80183E1199571C0E0914B2BF0914C2BA2
:10236000CE01019619958091512B41E0815008F4DE
:1023700042C04423D9F3282F30E0E1E0F0E0EC0F35
:10238000FD1FE20FF31F908141E09F3F09F040E005
:10239000E1E0F0E0EC0FFD1FE20FF31F9F5F908381
:1023A000E5CF808191E0811190E081508083BFCFA3
:1023B000E0914B2BF0914C2BCE0101961995809119
:1023C000512B41E08150B8F04423E1F3282F30E055
:1023D000E1E0F0E0EC0FFD1FE20FF31F908141E020
:1023E000911140E0E1E0F0E0EC0FFD1FE20FF31F80
:1023F00091509083E7CFE0914D2BF0914E2BCE0181
:1024000001961995E091532BF091542B4091512B4B
:10241000BE016F5F7F4F9DCF8BD30FC0FDDC0DC022
:1024200080910008813021F480918C08833019F06C
:102430000E94202102C00E943F21A096CDBFDEBF96
:10244000DF91CF911F910F910895E0E0F6E080E6D3
:10245000828388E1868B858B0895CF93C09108068F
:10246000C095C6FF12C0809186218A3050F08A3014
:10247000E1F4E091562BF091572B8181EDDE8091B4
:1024800086218F5F8093862110C08C2F807669F41F
:102490008091862181508A3030F4E091562BF09162
:1024A000572B8081D9DE10928621C5FF12C0809102
:1024B00085218A3050F08A30D9F4E091562BF09182
:1024C000572B8381C9DE809185218F5F8093852181
:1024D0000FC0C07669F48091852181508A3030F434
:1024E000E091562BF091572B8281B6DE1092852118
:1024F000CF9108959B01AC016BE084E696E072C435
:1025000020E030E090E0F901E80FF91FEB5AF44DBC
:102510006383265F3F4F20353105A9F708950F9358
:102520001F939B01E091562BF091572BE80FF11D63
:102530008A0140816BE084E696E015D41F910F91EB
:1025400008950F931F93CF93DF931F92CDB7DEB7FC
:10255000082FAB019E012F5F3F4F6BE084E696E0B2
:102560001AD4182F882319F06981802FC9DF812F91
:102570000F90DF91CF911F910F9108950895EF92E1
:10258000FF920F931F93CF937B01C42F2EB13FB1C6
:102590000091080410910904022B132B682F83E08B
:1025A00090E20E94BD416C2F83E090E20E94BD4109
:1025B000612F83E090E20E94BD41602F83E090E2B2
:1025C0000E94BD416C2F70E0C701CF911F910F9108
:1025D000FF90EF907EC4089508953F924F925F92CE
:1025E0006F927F928F929F92AF92BF92CF92DF9223
:1025F000EF92FF920F931F93CF93DF937C01E9013A
:102600002091002030910120C90198532C01612CA8
:10261000712C441555056605770508F05AC04A0126
:102620005B018C0E9D1EA11CB11C84149504A60494
:10263000B70448F0841B950B8E01081B190BEC01A5
:102640003324339403C000E010E0312C690180E4AE
:10265000D81A4601A12CB12C481559056A057B05ED
:1026600008F5CA01905C2A013B014C0E5D1E611CFD
:10267000711C481459046A047B0428F4AE01BC019F
:10268000C7010EDB18C0C41AD50AA601BC01C701D8
:1026900007DBAE014C195D096BE871E2C7018C0DD7
:1026A0009D1D07C0421B530BBA0165577E4DAE01FD
:1026B000C7010E94E543311002C081E00BC0015008
:1026C0001109D8F3F801EC0FFD1FEE0DFF1D10826C
:1026D000F6CF80E0DF91CF911F910F91FF90EF90A7
:1026E000DF90CF90BF90AF909F908F907F906F9032
:1026F0005F904F903F900895EBE8F1E2119289E2EC
:10270000EB38F807D9F78BE891E280938921909311
:102710008A2180E098E0809387219093882180E04F
:1027200090E48093002090930120E091562BF0914B
:10273000572B87818A3019F480E180938C29868118
:102740008A3019F480E180938B2908958091872144
:1027500090918821089520E030E0F901EB5AF44D82
:102760008783265F3F4F20353105B9F7813039F037
:1027700018F0823039F008958EEB92E105C080EDBB
:1027800093E102C08FEB92E18093532B9093542BF3
:102790000895B2DFE091562BF091572B8481DBCF67
:1027A0000F931F93CF93DF93AEB1BFB1C0910804D5
:1027B000D09109042091872130918821E42FF0E005
:1027C0008F010C5F1F4F2017310758F1CA2BDB2BED
:1027D000245031092E1B3F0B2093872130938821F1
:1027E000A0918921B0918A218C9311964C931197D5
:1027F0001296DC931297CD010496809389219093D1
:102800008A211396CC93DB01EC01415018F02D91F5
:102810002993FBCFE80FF91FE0938921F0938A21D8
:1028200012C080E098DFE091562BF091572B878102
:102830008A3019F481E180938C2986818A3019F4D9
:1028400081E180938B29DF91CF911F910F910895A2
:102850001F93CF93DF931F92CDB7DEB79E012F5FFB
:102860003F4FAC0163E08FEC97E095D2182F88239F
:1028700011F0898170DF812F0F90DF91CF911F912F
:1028800008950F931F93E091562BF091572B8B01D6
:102890009C01448163E08FEC97E065D21F910F911A
:1028A00008959B01AC0163E08FEC97E09BC2CF934E
:1028B000DF938091872190918821811528E09207EC
:1028C00010F5609100207091012040E058E0481B15
:1028D000590B80E090E8861B970B8417950798F0BA
:1028E0008BE891E22BDAC0910020D0910120D85FD3
:1028F0008091872190918821C81BD90BFDDEC09360
:102900000020D0930120DF91CF9108958091CF01D5
:1029100087FDFCCF0895FADF8091CF0181FF0BC0C6
:1029200086E38093CA01EBECF1E021E030E088ED32
:1029300090E084BF20830895EF92FF920F931F933E
:10294000CF93DF931F921F92CDB7DEB77C018A0130
:102950001092C20169837A83D9DF6981A62F7A81B7
:10296000B72FC701800F911F26E048ED50E061E0CE
:1029700070E0EBECF1E0E816F90689F0E092C001B6
:102980003F2D3F713093C1012093CA0144BF608342
:102990003091C4013D933FEFE31AF30AECCFC80135
:1029A0000F900F90DF91CF911F910F91FF90EF90BB
:1029B00008952F923F924F925F926F927F928F92E3
:1029C0009F92AF92BF92CF92DF92EF92FF920F93BE
:1029D0001F93CF93DF9300D0CDB7DEB76A01282FC6
:1029E0002F711C01221A310829836A837B8393DFAC
:1029F0008DDF83E38093CA011092C1011092C2015E
:102A00006A81E62E7B81F72E860185E3582E98EDAC
:102A1000892E912C66246394712C3BECA32EBB244D
:102A2000B39443E3442E29810115110509F1209344
:102A3000C001F70181917F018093C4010150110908
:102A400019F02F5F203281F72092C001832D8F7102
:102A50008093C1015092CA01C401F50184BF608214
:102A600090E2290E311C52DF4092CA0120E0DCCFF7
:102A7000C6012396CDBFDEBFDF91CF911F910F918D
:102A8000FF90EF90DF90CF90BF90AF909F908F908E
:102A90007F906F905F904F903F902F90089543E507
:102AA00050E065E57BE280E090E046CF43E550E012
:102AB00065E57BE280E090E07CCFCF93DF93CFEFC2
:102AC000C80FC83078F5D82F0E948F2043DAC09302
:102AD000552B8AE0C89F90011124C901885A944D52
:102AE0008093562B9093572BF901EB5AF44D808528
:102AF0000E94040DE091562BF091572B84812BDE20
:102B00008BD98FE18D0FE091562BF091572B978148
:102B1000943011F480938C299681943029F4809319
:102B20008B2902C080E001C081E0DF91CF91089540
:102B30008091552B99E04AE0915099F0282F30E090
:102B40002F5F3F4F27703327822F429FF001439F13
:102B5000F00D1124EB5AF44D2085222369F38F5F89
:102B6000ACCF0895FC019091552B9F5C908311820E
:102B70000895CF93FC01C081818181110CC0BF01F8
:102B8000E091532BF091542B41E082E1199580EDB7
:102B90008C0FCF9192CF80E0CF91089588E1809300
:102BA0000106089580918B29823191F030F48031B3
:102BB000B9F050F48823A9F132C0833169F090EE66
:102BC000980F983088F02BC088E08093050627C0C6
:102BD00088E08093070623C08091040683FF12C01B
:102BE00088E0809306061BC090918D299F5F9230EC
:102BF00019F090938D2915C010928D29909104069B
:102C000093FD04C088E0809305060BC098E0909384
:102C10000606803221F0815080938B2902C01092E9
:102C20008B2980918C29823191F030F48031C1F070
:102C300050F48823A9F132C0833169F090EE980FE7
:102C4000983088F02BC080E18093050627C080E192
:102C50008093070623C08091040684FF12C080E1A0
:102C6000809306061BC090918E299F5F923019F0C9
:102C700090938E29089510928E299091040694FDC8
:102C800004C080E180930506089590E190930606C4
:102C9000803221F0815080938C29089510928C29E4
:102CA00008959B01AC016BE082E398E09BC020E0BB
:102CB00030E0982F90718870992321F0F901EB5A38
:102CC000F44D6287882321F0F901EB5AF44D6187B6
:102CD000265F3F4F2035310579F7992329F090E1A0
:102CE0009093060610928C29882329F088E080931F
:102CF000060610928B2908950F931F939B018A015A
:102D0000803131F4E091562BF091572B478107C069
:102D1000883049F4E091562BF091572B46816BE0B7
:102D200082E398E020D01F910F9108950F931F9395
:102D3000CF93DF931F92CDB7DEB7082FAB019E0173
:102D40002F5F3F4F6BE082E398E025D0182F882358
:102D500019F06981802FABDF812F0F90DF91CF9128
:102D60001F910F9108950F931F93FC01662379F033
:102D700094916150941309C0BF016F5F7F4FA80108
:102D8000C9010E94C94381E003C0B196EFCF80E042
:102D90001F910F910895CF92DF92EF92FF921F93B0
:102DA000CF93DF93EC017A016901162F112389F08B
:102DB000BE016F5F7F4FC7010E94C0431150892B36
:102DC00031F4FE01C491F601C08381E003C0A196F5
:102DD000EDCF80E0DF91CF911F91FF90EF90DF90DA
:102DE000CF900895CF930196CCE26623C9F0FC0101
:102DF000DA01AD017491772341F021153105A1F07D
:102E00007D93319621503109F4CF623030F0211595
:102E1000310551F04F5F5F4FCC9361508196E5CF04
:102E2000232B11F0FA011082CF9108958091200296
:102E30008068809320028091230280FFFCCF81E094
:102E400080932302A0911002B0911102AE5BB109F0
:102E5000B7FF02C0A0E0B0E020E038EB4BE050E06C
:102E60000E944343E091562BF091572B6115710559
:102E7000844F914058F48781873019F480E1809322
:102E80008C298681873071F480E10AC08781873080
:102E900019F481E180938C298681873019F481E1CE
:102EA00080938B290895BC0183E090E20C946F41DC
:102EB000CF93DF93FC016491EC012196662331F0FE
:102EC00083E090E20E94BD41CE01F4CFDF91CF912B
:102ED0000895AB01BC0183E090E20C94994180E23B
:102EE000809362060895CF93DF9380918F2982307B
:102EF00029F583E090E20E9422420E94F13C83E0A7
:102F000090E20E943E42EC0197FD18C0E091562BE2
:102F1000F091572B8781833019F483E180938C29BA
:102F20008681833019F483E180938B298C2F19D605
:102F3000811104C08C2FDF91CF91B7C7DF91CF9162
:102F4000089580918F29813079F028F08230D9F06E
:102F5000833011F12EC08091680685FF2AC08FE072
:102F60008093022081E00CC08091022081508093E8
:102F7000022081111EC00E94B50C0E949C4082E07C
:102F800080938F2916C08091680685FD12C08FE05E
:102F90008093022083E0F4CF8091022081508093BF
:102FA0000220811106C00E9461400E94E30C109231
:102FB0008F2980918F29823019F423D70C945720C0
:102FC0000895E091562BF091572B8781823019F4A8
:102FD00081E180938C298681823019F481E180938C
:102FE0008B290895E091562BF091572B87818230E1
:102FF00019F480E180938C298681823019F480E174
:1030000080938B29089583E090E20C944A4183E0F9
:1030100090E20C9491422FE03BE03F932F9329E004
:103020003BE03F932F9322E03BE03F932F932BEF26
:103030003AE03F932F932AE53AE03F932F9322E023
:103040002F931F929F938F930E944E448DB79EB7EC
:103050000E968DBF9EBF85E6089560E072E00E94E7
:10306000440D85E60895FB0120812F3349F4218129
:10307000211106C060E072E00E94830D85E608958C
:10308000CB010E94550D882319F010DD84E60895C8
:103090008AEC0895EF92FF920F931F93CF93DF93E3
:1030A000CDB7DEB7A097CDBFDEBF7C010091512B1D
:1030B00010E00115110591F482E59AE09F938F933A
:1030C00082E08F931F92FF92EF920E944E440F90E6
:1030D0000F900F900F900F900F9010C0E0914B2B1E
:1030E000F0914C2BCE01019619959801AE014F5FDE
:1030F0005F4F60E072E0C7010E94A70D85E6A096D1
:10310000CDBFDEBFDF91CF911F910F91FF90EF9068
:103110000895DF92EF92FF920F931F93CF93DF9367
:10312000CDB7DEB7A097CDBFDEBF7B010091512B9D
:1031300010E06BE47AE0C7010E94C043892B29F5B7
:10314000D12CED2CF12CE016F10658F40E948B0DD9
:10315000E1E0F0E0EC0FFD1FEE0DFF1D8083D39446
:10316000F0CFE0914D2BF0914E2BCE0101961995A9
:10317000E091532BF091542B4091512BBE016F5F86
:103180007F4F83E1199584E60BC0A70160E270E0F0
:10319000CE0101960E94E10D8017910711F38AEC90
:1031A000A096CDBFDEBFDF91CF911F910F91FF9011
:1031B000EF90DF900895FC018091522B882311F04D
:1031C00081E301C080E38083118285E60895FB01DD
:1031D0002181211127C02081213321F481E08093B6
:1031E000522B04C0203321F41092522B84E6089510
:1031F0002F33C1F41F9220E32F931F9221E32F93CB
:1032000025E43AE03F932F9322E02F931F929F9360
:103210008F930E944E448DB79EB70A968DBF9EBF76
:1032200085E608958AEC08958AE390E169D48EE6F4
:1032300008958AEB90E17FD48EE60895E0ECF4E007
:1032400081818E7F81830E9461400E94A90C84E667
:103250000895E0ECF4E081818E7F81830E946140DB
:103260000E94AF0C84E60895EBE3FBE225892F93DF
:1032700024892F9322E43AE03F932F9322E02F9367
:103280001F929F938F930E944E448DB79EB70896CE
:103290008DBF9EBF85E608952091512B1F922F93DD
:1032A0002FE33AE03F932F9322E02F931F929F93B7
:1032B0008F930E944E448DB79EB708968DBF9EBFD8
:1032C00085E6089540E052E0BC0180E028D985E61B
:1032D0000895FB0120812F3341F42181211105C084
:1032E00060E072E007D985E6089580E02AD9882356
:1032F00019F0DCDB84E608958AEC089540E052E0A2
:10330000BC0181E00CD985E60895FB0120812F33B3
:1033100041F42181211105C060E072E0EBD885E61F
:10332000089581E00ED9882319F0C0DB84E6089562
:103330008AEC089540E052E0BC0182E0F0D885E6D6
:103340000895FB0120812F3341F42181211105C013
:1033500060E072E0CFD885E6089582E0F2D8882355
:1033600019F0A4DB84E608958AEC089540E052E069
:10337000BC0183E0D4D885E60895FB0120812F337A
:1033800041F42181211105C060E072E0B3D885E6E7
:10339000089583E0D6D8882319F088DB84E6089561
:1033A0008AEC089540E052E0BC0180E1A5DC85E6AE
:1033B0000895FB0120812F3341F42181211105C0A3
:1033C00060E072E06EDC85E6089580E1AFDC882382
:1033D00019F06CDB84E608958AEC089540E052E031
:1033E000BC0188E089DC85E60895FB0120812F334C
:1033F00041F42181211105C060E072E052DC85E6D4
:10340000089588E093DC882319F050DB84E6089562
:103410008AEC089560E072E034DA85E60895FB01F5
:1034200020812F3341F42181211105C060E072E039
:1034300038DA85E60895CB010BDA882319F036DBFC
:1034400084E608958AEC0895CF93DF93EC017ED94A
:103450009F938F932CE33AE03F932F9382E08F93D7
:103460001F92DF93CF930E944E448DB79EB708966C
:103470008DBF9EBF85E6DF91CF9108958DEE92E1DD
:103480005AD38EE6089513DA84E6089535D984E692
:10349000089560E072E066DB85E60895CB0169DBA4
:1034A000882319F003DB84E608958AEC08950E94CE
:1034B0007A0F84E608950E94AA0F84E608950E9478
:1034C0000C0F84E608958091680680FD02C089E7AC
:1034D000089588E70895DF92EF92FF920F931F936C
:1034E000CF93DF93EC010FEF11E082E5E82E8CE043
:1034F000F82E9CE2D92EB7018EE691E20E94C043DD
:10350000892BD1F001151105B9F0DE01F7012491E5
:10351000ED012196C8010197222341F001301105E8
:1035200029F02C93DE0131968C01F1CFDC928C01D5
:1035300088E1E80EF11CDFCF2197188285E6DF9144
:10354000CF911F910F91FF90EF90DF900895FC01B4
:10355000209120022068209320028091230280FF86
:10356000FCCF81E080932302A0911002B091110260
:10357000AE5BB109B7FF02C0A0E0B0E020E038EBDD
:103580004BE050E00E944343AA27BB279F938F93B1
:1035900025E33AE03F932F9382E08F931F92FF93AE
:1035A000EF930E944E448DB79EB708968DBF9EBF85
:1035B00085E608952EB13FB1409108045091090469
:1035C000242B352B3F932F932FE23AE03F932F93F9
:1035D00022E02F931F929F938F930E944E448DB7AA
:1035E0009EB708968DBF9EBF85E608950F931F93E3
:1035F000CF93DF931F921F92CDB7DEB78B01E0917F
:10360000562BF091572B8581873009F06FC0E091E0
:10361000432BF091442B199581E08093D72960E2E8
:1036200070E0C8010E9406440097F9F4F801019087
:103630000020E9F73197E01BF10BE0FD59C0F6954A
:10364000E795E130F10539F487E090E08093392B7C
:1036500090933A2B37C053E0EE0FFF1F5A95E1F7D6
:10366000E093392BF0933A2B2DC098012C5F3F4FFC
:1036700082179307E9F5A80162E070E0CE01019698
:103680000E94E10D898190E0982F88272A81820F7E
:10369000911D8093392B90933A2B0B5F1F4FF801AC
:1036A00001900020E9F73197E01BF10BE0FD20C00D
:1036B000F695E79533E0EE0FFF1F3A95E1F7E8172F
:1036C000F907B0F06091392B70913A2B695F7F4F09
:1036D00083E0769567958A95E1F7A80189E39AE2F8
:1036E0000E94E10D0E947C288FEF03C089EC01C08D
:1036F0008AEC0F900F90DF91CF911F910F91089559
:10370000EF92FF920F931F93CF93DF931F921F921D
:10371000CDB7DEB78B01E091562BF091572B858109
:10372000873009F080C0E091432BF091442B19952C
:1037300082E08093D72960E270E0C8010E940644CD
:103740007C01892B31F5F80101900020E9F73197D0
:10375000E01BF10BE0FD69C0F695E795E130F1055E
:1037600039F487E090E08093392B90933A2B47C04F
:1037700063E0EE0FFF1F6A95E1F7CF0169E070E0AB
:103780000E942F43E81BF90BE093392BF0933A2B5F
:1037900036C0C8010496E816F90609F046C0A8012B
:1037A00062E070E0CE0101960E94E10D298130E0D7
:1037B000322F22278A81280F311D2093392B3093F5
:1037C0003A2B2730310529F0C90187709927892BB9
:1037D00061F587010F5F1F4FF80101900020E9F7A5
:1037E0003197E01BF10BE0FD20C0F695E79543E033
:1037F000EE0FFF1F4A95E1F7E217F307B0F0609173
:10380000392B70913A2B695F7F4F83E076956795EE
:103810008A95E1F7A80189E39AE20E94E10D0E94EE
:103820007C288FEF03C089EC01C08AEC0F900F90C9
:10383000DF91CF911F910F91FF90EF900895E0914C
:10384000562BF091572B85818730A1F4E091432BC3
:10385000F091442B199584E08093D7290E9444333A
:103860000E947C288EE493E380939F299093A02963
:103870008FEF089589EC0895E091562BF091572B26
:1038800085818730A1F4E091432BF091442B199569
:1038900083E08093D7290E9444330E947C288EE4E1
:1038A00093E380939F299093A0298FEF089589EC4B
:1038B0000895E091562BF091572B85818730A1F424
:1038C000E091432BF091442B199585E08093D72903
:1038D0000E9444330E947C288EE493E380939F29C6
:1038E0009093A0298FEF089589EC0895E091562BCD
:1038F000F091572B4085518564E6649F9001659F48
:10390000300D11243F932F9329E23AE03F932F93F8
:1039100022E02F931F929F938F930E944E448DB766
:103920009EB708968DBF9EBF85E60895CF93DF931F
:103930001F921F92CDB7DEB7FB0120812F33B1F468
:103940002181211113C027EF39E03F932F9322E00B
:103950002F931F929F938F930E944E440F900F902E
:103960000F900F900F900F9085E627C089E592E0A9
:1039700089839A83CE0101969F938F938EEB90E279
:103980009F938F937F936F930E9484440F900F9027
:103990000F900F900F900F90892B71F089819A8171
:1039A0008935F2E09F0740F4E091562BF091572BB8
:1039B0008087918784E601C08AEC0F900F90DF9199
:1039C000CF91089520911F202F9320911E202F9397
:1039D00024EF39E03F932F9322E02F931F929F9380
:1039E0008F930E944E448DB79EB708968DBF9EBFA1
:1039F00085E60895CF93DF931F921F92CDB7DEB770
:103A0000FB0120812F33B1F42181211113C02FE05C
:103A10002F932FEF2F9323EA39E03F932F9322E048
:103A20002F931F929F938F930E944E44CDBFDEBF72
:103A300085E627C019821A82CE0101969F938F9343
:103A40008EEB90E29F938F937F936F930E948444B9
:103A50000F900F900F900F900F900F90892B81F087
:103A600089819A818115E0E19E0750F480933803A3
:103A70009093390380931E2090931F2084E601C009
:103A80008AEC0F900F90DF91CF910895FB01208178
:103A90002F33D9F42181211121C01F9220E32F93CC
:103AA0001F9221E32F932DE939E03F932F9322E0DA
:103AB0002F931F929F938F930E944E448DB79EB772
:103AC0000A968DBF9EBF85E60895213311F4B8D3C1
:103AD00003C0203319F4D3D384E608958AEC089503
:103AE000FC0180910008813021F480918C088330A2
:103AF00011F080E301C081E38083118285E608959F
:103B000021E020939E2920939D292CE320939A293C
:103B100025E030E02093982930939929109292293A
:103B200010929329109294291092952980939029AC
:103B300090939129089527E020939E292CE231E06B
:103B400020939829309399291092922910929329C1
:103B500010929429109295298093902990939129FD
:103B60000895CF9390919E299530E1F130F49330F0
:103B700029F140F5913068F440C1973009F4A7C0AD
:103B800008F445C0983009F4AAC0993009F432C14C
:103B900034C1813041F410929629109297291092E5
:103BA0009B2983E0FBC0843011F466E08BC0883130
:103BB00009F420C18B3109F0F3C01CC180939C290A
:103BC00084E0ECC090E040919C292FEF30E0241B72
:103BD00031098217930721F485E0E0C0981739F185
:103BE00065E169C02091962930919729A9014F5F1D
:103BF0005F4F4093962950939729F901E855F44D6A
:103C000080834038510509F0CBC086E0C7C02091C1
:103C10009C2990919D29291346C0E8EAFBE290E097
:103C20002CE2E832F207D1F22191920FF9CF4091C4
:103C30009229509193296091942970919529E0914E
:103C40009029F091912920E830E088EA9BE21995CB
:103C5000C82F882311F180919D298F5F80939D2922
:103C60008091922990919329A0919429B0919529BE
:103C700080589F4FAF4FBF4F8093922990939329C5
:103C8000A0939429B093952966E083E090E20E9486
:103C9000BD4182E080939E29B1C068E183E090E25B
:103CA0000E94BD410EC030E0892F90E00197281797
:103CB000390739F466E083E090E20E94BD4182E07A
:103CC0006DC068E183E090E20E94BD4193C0853100
:103CD00019F410929D2909C08B3109F48BC08831E9
:103CE00009F463CF863009F05DC080919D298F5F14
:103CF00080939D2940919229509193296091942914
:103D000070919529E0919029F091912920E830E077
:103D100088EA9BE21995C82F8823D1F161E083E0FE
:103D200090E20E94BD4160919D2983E090E20E9453
:103D3000BD4160919D29609583E090E20E94BD4164
:103D400060E870E088EA9BE2C4D8E8EAFBE260E061
:103D50008CE2E832F80719F08191680FF9CF83E01F
:103D600090E20E94BD418091922990919329A09167
:103D70009429B091952980589F4FAF4FBF4F8093A2
:103D8000922990939329A0939429B093952936C0B2
:103D900064E083E090E20E94BD4189E080939E2927
:103DA000C1E02CC08531E1F761E083E090E20E9440
:103DB000BD4160919D2983E090E20E94BD416091E8
:103DC0009D29609583E090E20E94BD4160E870E02B
:103DD00088EA9BE27ED8E8EAFBE260E02CE2E83287
:103DE000F20719F08191680FF9CF83E090E20E9409
:103DF000BD41D6CF10929E29D3CFC0E08C2FCF915A
:103E0000089580919E29813019F0873029F1089515
:103E100080919829909199299C01215031092093F2
:103E2000982930939929892B31F580919A299FEF10
:103E3000980F90939A29882331F065E183E090E20E
:103E40000E94BD4102C010929E2985E090E08093BF
:103E5000982990939929089580919829909199296A
:103E60009C01215031092093982930939929892B5D
:103E700011F410929E290895E9E2FBE020E030E081
:103E80009491981309C041E2429FC001439F900D55
:103E90001124865D944F08952F5F3F4FB1962930CE
:103EA000310571F780E090E00895CF92DF92EF92B4
:103EB000FF920F931F93CF93982F9F7D91549A3128
:103EC00060F090ED980F9A3040F08F3531F0982FD8
:103ED0009D7F9D3311F08032D1F49FE9980F9A3184
:103EE00008F480522091A4293091A5292F3F91E018
:103EF000390708F0D3C0A9014F5F5F4F4093A42951
:103F00005093A529F901E855F44D8083C7C08D3041
:103F100009F095C0E091A429F091A529E855F44D48
:103F200010821092A4291092A5298091A3298111B1
:103F3000B5C08091A82B982F9F7D09F495C08D7FE7
:103F40008D3309F491C0E8EAFBE27F01C191CC23F3
:103F500031F0CF3321F0CD3311F0C032B1F7F7019A
:103F6000108282E5C82E8CE0D82E00E010E0B60169
:103F700088EA9BE20E94C043892B09F056C0109248
:103F8000A82BCF3349F488E1809FF001819FF00D89
:103F90001124E859F34F18C0B7016F5F7F4FCD333D
:103FA00049F488E1809FF001819FF00D1124EA59C6
:103FB000F34F20C0C11113C088E1809FF001819FA1
:103FC000F00D1124EE59F34F25913491211531054F
:103FD00009F44DC088EA9BE2F901199514C0C0327A
:103FE00009F045C088E1809FF001819FF00D112408
:103FF000EC59F34F2591349121153105C1F188EA2F
:104000009BE2F90119958F3F99F581E08093A329EF
:104010008EB19FB12091080430910904822B932B1B
:104020008093A1299093A22939C00F5F1F4FF8E117
:10403000CF0ED11C0632110509F099CF15C088307A
:1040400061F48091A4299091A529009739F10197F5
:104050008093A4299093A52921C08B31F9F4109263
:10406000A4291092A5291AC088ECC0E002C089ECEE
:10407000C1E002DF0E94581786E29BE00E945817B9
:10408000CC2361F08091A82B882341F088EA9BE241
:104090000E94531783E29BE00E94581781E0CF9162
:1040A0001F910F91FF90EF90DF90CF900895809136
:1040B000A329882399F1E091562BF091572B208565
:1040C00031852115310551F18EB19FB14091080420
:1040D00050910904842B952B4091A1295091A2293C
:1040E000841B950B64E670E00E942F4362177307F0
:1040F000A8F01092A3298BECBFDE0E94581780E233
:104100009BE00E945817E0919F29F091A0293097D9
:1041100029F0199510929F291092A0290895809155
:10412000A3298823A9F01092A3298BECA5DE0E9475
:10413000581780E29BE00E945817E0919F29F09168
:10414000A029309729F0199510929F291092A02943
:104150000895CF93DF939091A3299923A9F0EB01C0
:104160001092A32989DE0E9458178DE19BE00E94DE
:104170005817209749F0CE010E9453178AE19BE01F
:10418000DF91CF910C945817DF91CF910895EF9262
:10419000FF920F931F93CF937C019B01613081E0CD
:1041A000780710F020E031E08B01021B130BA70110
:1041B00060E072E088EA9BE20E94A70D88EA9BE239
:1041C0000E945317C1E0013081E01807C0F01A9532
:1041D0004C2F50E0542F4427550F569547954E0DC0
:1041E0005F1D20E032E060E072E088EA9BE20E941E
:1041F000A70D88EA9BE20E945317CF5FE4CF011519
:104200001105A9F0EC2FF0E0FE2FEE27FF0FF69539
:10421000E795A7014E0F5F1F980160E072E088EA02
:104220009BE20E94A70D88EA9BE20E94531787E158
:104230009BE0CF911F910F91FF90EF900C94581736
:1042400080910008813021F480918C088330B1F096
:1042500081E08093000893E090938C088093A629D6
:104260001092A7298EB19FB12091080430910904C2
:10427000822B932B8093A8299093A92908951092BB
:104280008C0810920008E6EAF9E210821182089583
:104290009091A6299923F1F08091A729811115C049
:1042A0002091A6292223B9F02EB13FB140910804F4
:1042B00050910904242B352B4091A8295091A9290C
:1042C000241B350B2634310530F081E08093A7297B
:1042D000892F089581E00895A0E2B6E081E0159667
:1042E0008C93159728EA3DE228B939B928E23EE2D5
:1042F0002AB93BB910B813B812B816B817B811B824
:10430000E0E0F9E010A211A22FEF30E026A337A3DE
:104310002FEF3FEF20A731A7808388E8838380E1D8
:10432000848783E087831C968C931C9782E01A967F
:104330008C9308951F920F920FB60F92112408B616
:104340000F9218BE0BB60F921BBE8F939F93EF93E5
:10435000FF93E0E0F9E013828FE790E086AB97AB44
:1043600081E190E080AF91AFE0E0FAE010A211A20D
:104370008FEF9FEF86A397A389E88383168281E05E
:1043800084878EE0808310922A06FF91EF919F919F
:104390008F910F900BBE0F9008BE0F900FBE0F9025
:1043A0001F9018951F920F920FB60F92112408B606
:1043B0000F9218BE0BB60F921BBE2F933F938F9395
:1043C0009F93EF93FF932091280693B1267081E08D
:1043D00009F080E0990F892B83B982B1882309F411
:1043E00064C012B883B18770873059F51092000904
:1043F00080E180930C091092030A1B9B03C08CEA96
:1044000094E002C08CE694E08093260A9093270AF9
:1044100082E081B981E080930C0A83E08093060AF0
:1044200086B197B1877049F090B18F5F893011F0F4
:104430009695FBCFE8B1F9B1908381E08093AA29EA
:1044400037C093B1892F8C7099F192FB992790F91D
:1044500081E0982781B181111BC080B186959111AF
:1044600090E8892B80B926B137B12F5F3F4F26B92D
:1044700037B927703327232BD9F4E8B1F9B19F015D
:104480002F5F3F4F28B939B9808381E081B910C0CF
:1044900081B1813069F4EAB1FBB19F012F5F3F4FD9
:1044A0002AB93BB9908311B803C082B1809582B913
:1044B000FF91EF919F918F913F912F910F900BBEA4
:1044C0000F9008BE0F900FBE0F901F9018951F926F
:1044D0000F920FB60F92112408B60F9218BE0BB6AA
:1044E0000F921BBE2F933F938F939F93EF93FF9356
:1044F00081B1823008F49DC081B18D3008F099C03F
:10450000E1B1F0E0EE0FFF1FEC5DFF4D0190F08197
:10451000E02D19948FE790E08093260A9093270A64
:1045200088C08E9A8EE0809340088FE390E080935D
:10453000260A9093270A85E06FC08E9886E081B99D
:104540008FEF82B914B815B8E8B1F9B1808180B99C
:1045500070C0009B05C08E9A82B1809582B901C05F
:104560008E9887E059C0009B02C08E9801C08E9A39
:1045700080B1869580B984B195B1019684B995B919
:1045800084B195B187709927892B11F488E044C0D4
:1045900024B135B186B197B128173907B1F52BC0D1
:1045A000EAB1FBB1309711F0808101C082B188235C
:1045B00011F08E9A01C08E9889E02EC0EAB1FBB14D
:1045C000309751F08081882311F08E9801C08E9A27
:1045D0003196EAB9FBB908C082B1882311F08E98F0
:1045E00001C08E9A8FEF82B924B135B186B197B1EF
:1045F0002817390711F48AE00FC0E8B1F9B1CF01EB
:10460000019688B999B9818180B986E005C08E98F4
:104610008BE002C08E988CE081B90BC01092000A2A
:104620001092060A109240081092410881E080938F
:10463000AB29FF91EF919F918F913F912F910F9017
:104640000BBE0F9008BE0F900FBE0F901F901895D5
:10465000CF93DF93EAEAF9E210821182E0E4F6E018
:10466000128A84E08283C0E8D1E082E68E83A0E2F1
:10467000B6E081E016968C93169711968C9311975D
:1046800096E012969C93129751968C93519742E024
:1046900052964C9352971A961C921A9733E0199699
:1046A0003C9399E598839AE5998390E49183968366
:1046B000A0EBB0E012962C911297207F12962C93CB
:1046C000129712962C911297226012962C9320E347
:1046D00021832683908B868345833183E0E0F8E055
:1046E00083E1818321E030E026A337A320A731A70F
:1046F000E0E8F8E014868083E0E2F3E013821182C0
:1047000088E0828391E1908320911E2030911F20C8
:10471000208F318FE0E8F3E09CE3928380839383E2
:104720008183DF91CF91D8CDA0E2B6E01A961C929A
:104730001A97EAEAF9E210821182E0E0F9E01082C9
:104740001382178280E18487E0E0FAE0108213820E
:10475000168281E08487E0E4F8E0108211821696E8
:104760008C938E980895CF93DF938091AA29882304
:1047700009F484C01092AA29C6B1D7B1C730D105B7
:10478000A0F1AE01495F5F4F93E0569547959A952A
:10479000E1F7E091532BF091542B68EA7DE280E43D
:1047A0001995E091562BF091572B8781883019F499
:1047B00083E180938C298681883019F483E180938A
:1047C0008B29E091492BF0914A2BBE0188EA9DE2AA
:1047D0001995EC0194FF06C0DF7E88E29EE28AB95B
:1047E0009BB909C01AB81BB806C0E091432BF091E1
:1047F000442B19953EC02097E1F1AE01495F5F4F10
:1048000083E0569547958A95E1F7E091532BF09117
:10481000542B68EA7DE281E41995E091562BF091E2
:10482000572B8781893019F483E180938C29868105
:10483000893019F483E180938B29C6B9D7B988EA06
:104840009DE288B999B910926008109261088FE0D2
:1048500090E0809366089093670888E090E08093EA
:104860006A0890936B0883E28093410883E081B9E2
:1048700005C01092000A1092060A2EDD8091AB2925
:10488000882329F01092AB29DF91CF9125CDDF91BC
:10489000CF910895CF93DF93E0E4F6E0128A84E0AD
:1048A0008283C0E8D1E082E68E83A0E2B6E081E0B8
:1048B00016968C93169711968C93119796E01296F4
:1048C0009C93129751968C93519742E052964C9339
:1048D00052971A961C921A9733E019963C9319979F
:1048E00099E598839AE5998390E491839683C0EB48
:1048F000D0E02A81207F2A832A8122602A8320E334
:1049000021832683908B868345833183E0E0F8E022
:1049100093E1918321E030E026A337A320A731A7BC
:10492000E0E8F8E014869083E0E2F3E0138211827D
:1049300098E0928341E1408340911E2050911F20D6
:10494000408F518FE0E8F3E04CE342839083438350
:10495000918315968C93E0E0F9E08FE790E086A3D1
:1049600097A322A733A7108216828CE08783109228
:10497000000A1092AC29EFEAF9E210821282118249
:10498000DF91CF91089581E08093260678DCE0E006
:10499000F9E010821782E0E0FAE010821782EFEA75
:1049A000F9E211821282108208951F920F920FB6BF
:1049B0000F92112408B60F9218BE0BB60F921BBEB1
:1049C0002F933F938F939F93EF93FF93E091AC29A5
:1049D000F0E0EE0FFF1FE25CFF4D0190F081E02D53
:1049E000199410928C081092000886E18A95F1F7CC
:1049F00000C081E08093000883E080938C0818B8A1
:104A00008091A82D86B917B882E001C083E0809319
:104A1000AC2986C0309911C082B181110EC01092AC
:104A20008C081092000896E19A95F1F700C081E099
:104A30008093000883E080938C0884E0E8CF309B6B
:104A400010C010928C081092000886E18A95F1F748
:104A500000C081E08093000893E090938C0882B9B5
:104A600001C012B886B1869586B984B195B1019717
:104A700084B995B9892B11F485E001C083E0809356
:104A8000AC2987B18F5F87B9877009F049C0E8B159
:104A9000EF5FE8B9F0E0E855F24D808186B940C09B
:104AA00082B181110EC010928C081092000896E11C
:104AB0009A95F1F700C081E08093000883E080932D
:104AC0008C0886E0A4CF1092000982E591E001975E
:104AD000F1F700C0000082E08093870389E38093B0
:104AE000810388EA9DE28AB99BB981E090E084B9AC
:104AF00095B980E886B98EB19FB1209108043091B4
:104B00000904822B932B8093AD299093AE2981E0E9
:104B10008093B12918B817B81092AC2901C000C011
:104B2000FF91EF919F918F913F912F910F900BBE2D
:104B30000F9008BE0F900FBE0F901F9018951F92F8
:104B40000F920FB60F92112408B60F9218BE0BB633
:104B50000F921BBE2F933F934F935F938F939F931F
:104B6000EF93FF931092070A1092000A10924709E0
:104B700010924009809181038E7F8093810384B1DC
:104B800095B187709927892BC9F0E4B1F5B186B149
:104B900044B155B193E0F695E7959A95E1F7E8555C
:104BA000F24D90E04770552728E030E0241B350B8C
:104BB00002C0959587952A95E2F7808381E08093DE
:104BC000B0291092B1298FEF9FEF8093260A90931E
:104BD000270A1092200A1092210A1092060A1092B7
:104BE000070A1092030A84E08093000A87E080930A
:104BF000AC29FF91EF919F918F915F914F913F91E0
:104C00002F910F900BBE0F9008BE0F900FBE0F900C
:104C10001F9018951F920F920FB60F92112408B68D
:104C20000F9218BE0BB60F921BBE8F93EF93FF939C
:104C3000E0E8F3E081818F7C8183E0E0FAE088E8BE
:104C4000838381E08083FF91EF918F910F900BBE62
:104C50000F9008BE0F900FBE0F901F9018951F92D7
:104C60000F920FB60F92112408B60F9218BE0BB612
:104C70000F921BBE2F933F934F935F938F939F93FE
:104C8000EF93FF938091600910926009109261097F
:104C900092E090934009813620F0813A08F063C099
:104CA00077C086B1869586B984B195B1019684B9ED
:104CB00095B987709927892B41F4EAB1FBB1CF01EF
:104CC00001968AB99BB986B1808384B195B180FD84
:104CD00088C0369986C01092070A1092000A109276
:104CE000470910924009809181038E7F8093810350
:104CF00084B195B187709927892BC9F0E4B1F5B1DA
:104D000086B144B155B193E0F695E7959A95E1F7F0
:104D1000E855F24D90E04770552728E030E0241B1D
:104D2000350B02C0959587952A95E2F7808381E03F
:104D30008093B0291092B1298FEF9FEF8093260ABC
:104D40009093270A1092200A1092210A1092060AC4
:104D50001092070A1092030A84E08093000A87E009
:104D60008093AC293EC086B18695806886B984B1AF
:104D700095B1019684B995B987709927892B41F42B
:104D8000EAB1FBB1CF0101968AB99BB986B18083A4
:104D900086B18695806886B984B195B1019684B94B
:104DA00095B987709927892B41F4EAB1FBB1CF01FE
:104DB00001968AB99BB986B1808386B1869586B9FA
:104DC00084B195B1019684B995B987709927892BDB
:104DD00041F4EAB1FBB1CF0101968AB99BB986B122
:104DE0008083FF91EF919F918F915F914F913F91C0
:104DF0002F910F900BBE0F9008BE0F900FBE0F901B
:104E00001F901895BF92CF92DF92EF92FF920F936F
:104E10001F93CF93DF93CDB7DEB7DA95CDBFDEBF5B
:104E20008091B1298823B9F08EB19FB140910804D7
:104E3000509109042091AD293091AE29842B952BF6
:104E4000821B930B039738F014B815B881E0809358
:104E5000B0291092B1291CDA882309F440C180914D
:104E6000B12981113CC18091AF29811105C0809188
:104E7000B029882309F433C18091AC29873041F4EB
:104E80008091200A9091210A8532914008F427C12F
:104E90008091B029882309F4A6C084B195B1892BEB
:104EA00009F4A1C084B195B1089718F414B815B8E5
:104EB0009AC044B155B1495F5F4F63E0569547953D
:104EC0006A95E1F768EA7DE2CE0101960E94E5432A
:104ED00088EA9DE28AB99BB904B115B114B815B836
:104EE000C12CD12C73E1B72EE8E0EE2EF12CC016C8
:104EF000D10608F078C0F60153E0F695E7955A958B
:104F0000E1F741E050E04C0F5D1FE40FF51F808199
:104F1000982F9695969590838370813039F0E8F0BC
:104F2000823009F059C086B1869503C086B1869556
:104F3000806886B984B195B1019684B995B98770B6
:104F40009927892B09F048C0EAB1FBB1CF0101963E
:104F50008AB99BB986B180833FC084B195B187700F
:104F60009927892BC1F0E4B1F5B186B124B135B1EF
:104F700043E0F695E7954A95E1F7E855F24D90E064
:104F800027703327A701421B530B02C095958795C5
:104F90004A95E2F78083E091562BF091572B878159
:104FA000883011F4B0928C298681883011F4B09247
:104FB0008B2944B155B1495F5F4F93E056954795B2
:104FC0009A95E1F7E091532BF091542B68EA7DE23A
:104FD00080E4199581E001C080E052E0C50ED11C4B
:104FE000882309F484CF1092AF291092B02964B1BC
:104FF00075B1E091492BF0914A2B88EA9DE2199511
:1050000084B995B984B195B1892B09F468C089E058
:10501000809381031092000A1092200A1092210AB4
:105020008FE790E08093260A9093270A8FE590E01F
:105030008093280A9093290A1092060A80E18093AF
:105040000C0A93E09093070A10926009109261098C
:105050002FEF3FEF209366093093670920E031E09E
:1050600020936809309369091092460980934C098E
:1050700081E08093470981E180938001109288014B
:105080001092800310922906E091562BF091572B35
:105090008781893019F483E180938C298681893056
:1050A00019F483E180938B2944B155B1495F5F4F77
:1050B00083E0569547958A95E1F7E091532BF0915F
:1050C000542B68EA7DE281E4199581E08093AC2954
:1050D00012B8109220091092210980930009D395EB
:1050E000CDBFDEBFDF91CF911F910F91FF90EF9069
:1050F000DF90CF90BF90089514B815B881E08093E9
:10510000AF299EC81092070A1092000A1092470910
:1051100010924009809181038E7F8093810384B136
:1051200095B187709927892BC9F0E4B1F5B186B1A3
:1051300044B155B193E0F695E7959A95E1F7E855B6
:10514000F24D90E04770552728E030E0241B350BE6
:1051500002C0959587952A95E2F7808381E0809338
:10516000B0291092B1298FEF9FEF8093260A909378
:10517000270A1092200A1092210A1092060A109211
:10518000070A1092030A84E08093000A87E0809364
:10519000AC291092AC291092B0291092AF296FC897
:1051A00081E08093B329089581E08093B329089525
:1051B0000895FF920F931F93CF93DF9300D01F9218
:1051C000CDB7DEB78C01FC0180819091B32992307C
:1051D000A9F030F09430E9F0B0F0953001F1C8C09A
:1051E000863219F0823509F0C3C084E4F801808367
:1051F000118282E08093B32980E1BBC08632A9F39B
:10520000823579F5F2CF863281F3823509F05AC0C2
:10521000ECCF863251F3823509F08FC0E6CF60E1E2
:1052200070E0C8015DD78823A1F08091522B8111D5
:105230000BC06091B229F4E06F9FB001112444E0EB
:1052400050E0C8010E949E0E84E08093B3298AE05A
:1052500004C084E08093B32981E0F801808384E076
:1052600088C0833909F073C019821A821B821C829C
:1052700088E8898343E050E060E070E0CE01029668
:105280000E94500EF8018181803259F1803709F077
:105290006FC0F8019281898198136AC093818A81D5
:1052A000981366C094818B81981362C095818C811C
:1052B00098135EC084E0808361E070E0C801E5D6A9
:1052C00083E037C0853909F042C044E050E064E033
:1052D00070E0CE0101960E94500EF801818180326B
:1052E00079F42981F80120833A8131839B8192836B
:1052F0008C818383232792278927848388E239C07E
:105300008037B1F5F80192818981981331C093817A
:105310008A8198132DC094818B81981329C095811F
:105320008C81981325C0108261E070E0C801ADD671
:1053300084E08093B32988E11CC0803321F1823A54
:1053400009F43CC0803A09F458C0803521F081E06E
:105350008093B3290DC0F801818181113CC062E0C6
:1053600070E0C801BDD6882309F476CF1092B32926
:1053700080E090E02496CDBFDEBFDF91CF911F91FA
:105380000F91FF900895F801F18062E070E0C8018C
:10539000A7D6882309F460CFFFE0FF15E0F084E092
:1053A000F89EB001112440E150E0C8010E94500E67
:1053B00060E170E0C80169D680E9DBCFF801F180D7
:1053C00066E070E0C8018CD6882309F445CF8EEFE3
:1053D0008F0D8E3018F0F801108241CF8091522B42
:1053E000811135CFF4E0FF9EB001112444E050E07C
:1053F000C80102960E949E0E2ACFF801F18062E059
:1054000070E0C8016DD6882309F426CF8EEF8F0D8A
:105410008E3008F7F092B22985E017CFCF93DF9353
:10542000EC0143E050E060E070E00E94500E44E088
:1054300050E064E070E0CE010396DF91CF910C94D0
:10544000500E0F931F93CF93DF931F921F92CDB7F0
:10545000DEB78C01FC0190818181892798E889273A
:10546000928189278A8394818381892795818927DD
:1054700096818927898343E050E060E070E0C801AD
:105480000E949E0E41E050E063E070E0CE01029683
:105490000E949E0E44E050E064E070E0C801039674
:1054A0000E949E0E41E050E068E070E0CE0101965F
:1054B0000E949E0E0F900F90DF91CF911F910F9140
:1054C000089581E08093D02984E090E08093B5290D
:1054D0009093B62988E08093B429089581E0809361
:1054E000D02982E490E08093B5299093B62988E191
:1054F0008093B429089581E08093D0290895089578
:105500008F929F92AF92BF92CF92DF92EF92FF92D3
:105510000F931F93CF93DF93CDB7DEB72E97CDBFF9
:10552000DEBF8C017B018091D029853009F4B1C0A8
:1055300050F48230C9F148F1833009F480C08430DE
:1055400009F49BC0A0C4883009F443C190F48630AC
:1055500009F4B0C0873009F096C4C801DFD66801ED
:10556000B4E0CB0ED11C76015801E8E0AE0EB11CC0
:10557000CDC0893009F4CFC28D3008F084C47801E1
:105580006801B6E0CB0ED11C03C32091B5299091E0
:10559000B629D8018C91863219F0823509F0B6C34C
:1055A000F8012083918384C0F8018081982F9D7F2A
:1055B000913411F48AE027C0803339F562E070E05D
:1055C000C8018ED58823E9F0D80111966C91B0E11D
:1055D0006B9FB001112440E150E0C8010E94500EC1
:1055E00060E170E0C80151D580E94EC490EA980F9F
:1055F000923008F073C262E070E0C80171D5811189
:1056000045C481E0F8018083C1C2803A91F462E030
:1056100070E0C80165D58823A1F3D80111968C915B
:1056200011978093C72983E08093D0298AE08C93D7
:10563000ADC2803509F027C4F80181814FC060E117
:1056400070E0C8014DD5882399F08091522B8111CB
:105650000BC06091C729B0E16B9FB001112440E1FC
:1056600050E0C8010E949E0E8AE0F801808303C0CA
:1056700081E0D8018C9382E087C22091B529909176
:10568000B629F8018081863279F0823509F046C367
:105690000BC02091B5299091B629F80180818632FE
:1056A00019F0823509F0B1C3D8012C9311969C935F
:1056B00084E00AC0D8018C91863211F0823541F421
:1056C00084E0F801808311828093D02980E1DCC3DB
:1056D000803509F08BCFD80111968C91882319F071
:1056E000D8011C9253C262E070E0C801F9D488234B
:1056F00009F487CFE091532BF091542B40E060E008
:1057000070E081E919951092D029BDC32CD6D7013C
:105710009C918927F70181937F01EA15FB05B1F779
:10572000E091532BF091542B44E0B60180EA199597
:10573000D80114969C9114978091C829981340C061
:1057400015969C9115978091C929981339C0169682
:105750009C9116978091CA29981332C017969C91F4
:105760008091CB2998132CC068018CECA82E89E27B
:10577000B82E94E0E92EEA0C4501F501F1905F01A5
:10578000F2D58F25D6018D936D01D401EC91F0E017
:10579000EC59FB4FF49019D5D601A158BF4F8F2576
:1057A0008C93EA10E9CFE091532BF091542B44E015
:1057B000B80181EA199588E08093D02980E256C02B
:1057C000E091532BF091542B40E060E070E080ECCE
:1057D0009FC168014801B4E08B0E911C5801C3D5EC
:1057E000F50190818927D5018D935D01A815B90533
:1057F000B1F7F8018081803309F048C062E070E0C1
:10580000C8016ED48823A1F1D80111966C91B0E142
:105810006B9FB001112440E150E0C8010E94500E7E
:1058200060E170E0C80131D4E091532BF091542B2A
:1058300042E1B80180E819957801E2E1EE0EF11C31
:10584000D6011C9190D58127F60181936F01E12F3C
:10585000F0E0EC59FB4F1491B8D4D601A158BF4FDA
:1058600081278C93CE14DF0459F780E990E1B8C307
:105870008DD591E08927D8018C93E091532BF0913D
:10588000542B44E0B80181EC199580C1803A71F441
:1058900062E070E0C80124D4882351F1F8018181CD
:1058A0008093C72989E08093D02967C0803C69F440
:1058B00062E070E0C80114D48823A1F1D8011196E8
:1058C0008C918093C7298BE028C0813CC1F462E0B1
:1058D00070E0C80105D4882359F0F80181818093D4
:1058E000C729BAE0FB2EF092D02950D58F2548C0A9
:1058F000E091532BF091542B44E0B80143C0823C1B
:10590000E1F462E070E0C801EBD3882359F0D801DC
:1059100011968C918093C7298CE08093D02936D53D
:105920009AE0C2C0E091532BF091542B44E0B801AF
:1059300081EC19952BD591E022C0803B31F562E0D6
:1059400070E0C801CDD3E091532BF091542B44E08B
:10595000B8018823B9F086E819958091522B8111FE
:105960000CC0F8016181F0E16F9FB001112440E1AA
:1059700050E087EB99E20E949E0E08D59AE08927B5
:10598000D80155CE81EC19958DC090EA980F9230D0
:1059900008F08CC062E070E0C801A2D3882309F44B
:1059A00081C0D80111962C911197322F3C7F8C9198
:1059B000803619F08AE390E002C080E390E07C0139
:1059C000B0E13B9FE00CF11C112427FF0AC0207FAF
:1059D000E0E12E9F800D911D11249C0120543F4F2A
:1059E0007901E091532BF091542B42E0B80180E90A
:1059F000199564E0CE0107960E948E0D8091512B7F
:105A000044E050E0873019F463E070E002C060E0E9
:105A100070E0CE010B960E94500E46E050E0B701B8
:105A2000CE0101960E94500E8F818093C8298885EF
:105A30008093C92989858093CA298A858093CB2937
:105A400060E470E088EC99E2B4D48091C829809336
:105A5000CC298091C9298093CD298091CA2980932E
:105A6000CE298091CB298093CF2960E270E08CEC25
:105A700099E29FD4AE01495F5F4FBE01655F7F4FE2
:105A8000CE010196DBD3FE01379684E08E0F919113
:105A9000D6019D936D018E13FACF87E08093D029B4
:105AA00080E2F2C173D491E08927ACCD803511F545
:105AB0008181811115CE62E070E0C80111D3882385
:105AC00009F49FCD1092D029E091532BF091542BE3
:105AD00040E060E070E081E91995D5C1982F9F778B
