:10000000E8C4000002C5000000C50000FEC40000F6
:10001000FCC40000FAC40000F8C40000F6C40000EC
:10002000F4C40000F2C400007BC50000EEC4000070
:10003000ECC40000EAC40000E8C40000E6C400000C
:10004000E4C40000E2C40000E0C40000DEC400001C
:10005000DCC40000DAC400000C946C17D6C40000A5
:10006000D4C40000D2C40000D0C40000CEC400003C
:10007000CCC40000CAC40000C8C40000C6C400004C
:10008000C4C40000C2C400000C943B17BEC40000EE
:10009000BCC40000BAC40000B8C40000B6C400006C
:1000A000B4C40000B2C40000B0C40000AEC400007C
:1000B000ACC40000AAC40000A8C40000A6C400008C
:1000C000A4C40000A2C40000A0C400009EC400009C
:1000D0009CC400009AC4000098C4000096C40000AC
:1000E00094C4000092C4000090C400008EC40000BC
:1000F0008CC400008AC4000088C4000086C40000CC
:1001000084C4000082C4000080C400007EC40000DB
:100110007CC400007AC4000078C4000076C40000EB
:1001200074C4000072C4000070C400006EC40000FB
:100130006CC400006AC4000068C4000066C400000B
:1001400064C4000062C4000060C400000C9426185F
:100150005CC400005AC4000058C4000056C400002B
:1001600054C4000052C4000050C400004EC400003B
:100170004CC400004AC4000048C4000046C400004B
:1001800044C4000042C4000040C400003EC400005B
:100190003CC400003AC4000038C4000036C400006B
:1001A00034C4000032C4000030C400002EC400007B
:1001B0002CC400002AC4000028C4000026C400008B
:1001C00024C4000022C4000020C400001EC400009B
:1001D0001CC400001AC4000018C4000016C40000AB
:1001E00014C4000012C4000010C400000EC40000BB
:1001F0000CC400000C94142908C40000820F800F66
:10020000800F800F800F800F800F800F800F800F76
:10021000800F800F800F800F800F800F8D0FA10F38
:10022000A70FAD0F800F800F800F800F800F800F02
:10023000800F800F800F800F800F800F990F990F14
:10024000990F990F990F990F990F990F790F770FB0
:10025000770F770F770F770F770F770F770F770F6E
:10026000770F770F770F770F770F770F930FC30FF6
:10027000B50FBB0F770F770F770F770F770F770FCC
:10028000770F770F770F770F770F770FC90FC90F9A
:10029000C90FC90FC90FC90FC90FC90F8814881416
:1002A00094149D14AC145B1475147B146F14EA1829
:1002B00076187F18861894189F18C4183E18D218FC
:1002C000D918E0183C1C3C1C541CAB1C8E1D6E1C29
:1002D0006A1DBA1CD81C001C1F1C1F1C1F1C1F24BD
:1002E000EC238B23EC238B23DA23BC238B23B32334
:1002F0009C231C034C005500460041002000430095
:10030000440043002000440065006D006F000000C1
:1003100018034400650061006E0020004300610086
:100320006D00650072006100000004030904090209
:100330003E00020100C03209040000010202010077
:100340000524001001042402060524060001070507
:1003500082030800FF09040100020A0000000705EB
:1003600004021000050705830210000512011001A8
:1003700002000008D016B20401000102DC01004EA8
:100380004F4E450000000000000000000000001873
:100390000619061A061B061C061D06200621060065
:1003A000000001014D465F554C5452414C494748AD
:1003B0005400000004193B19EB19EF19F319F41953
:1003C000451B581B40000700024D465F434C4153FC
:1003D0005349435F314B00000004193B19971BCA76
:1003E0001BCE1BCF1BCE20EF2000040400034D4684
:1003F0005F504C5553314B5F3742000000000419E9
:100400003B19A61BCA1BCE1BCF1BCE20EF2000041E
:100410000700044D465F434C41535349435F344BFF
:1004200000000004193B19BB1BCA1BCE1BCF1BCEFF
:1004300020EF20001004000549534F313434343389
:10044000415F534E4946460004193B191A061B06E4
:100450001C061D0620062106000000014E4F4E45D9
:10046000000000000000000000000000000000008C
:100470000000000000000000000000005549445F3B
:1004800052414E444F4D00000000000000000000AB
:100490000000000000000000000000005549445F1B
:1004A0004C4546545F494E4352454D454E5400001D
:1004B0000000000000000000000000005549445FFB
:1004C00052494748545F494E4352454D454E5400AA
:1004D0000000000000000000000000005549445FDB
:1004E0004C4546545F44454352454D454E540000EB
:1004F0000000000000000000000000005549445FBB
:1005000052494748545F44454352454D454E540077
:100510000000000000000000000000004359434CB0
:10052000455F53455454494E4753000000000000B6
:1005300000000000000000000000000053544F5273
:10054000455F4D454D000000000000000000000028
:100550000000000000000000000000005245434180
:100560004C4C5F4D454D00000000000000000000B5
:100570000000000000000000000000002C004F46BA
:1005800046000000000000000000000000004D4593
:100590004D4F52590000000000000000000054457B
:1005A000524D494E414C00000000000000004E4FEB
:1005B0004E450000000000000000000000000000A8
:1005C0000000000000000000000000000000544592
:1005D000524D494E414C5F434F4E4E0000000000CB
:1005E0000000000000000000000000000000544572
:1005F000524D494E414C5F52585458000000000083
:100600000000000000000000000000000000534552
:100610005454494E475F4348414E4745000000004F
:1006200000000000000000000000000000004D4538
:100630004D4F52595F53544F524544000000000043
:1006400000000000000000000000000000004D4518
:100650004D4F52595F4348414E474544000000000A
:100660000000000000000000000000000000434FF8
:100670004445435F525800000000000000000000A5
:100680000000000000000000000000000000434FD8
:100690004445435F54580000000000000000000083
:1006A00000000000000000000000000000002535F0
:1006B00075206D5600434C454152004C4F41444219
:1006C000494E0025750025532C2553004C4F4144BD
:1006D00042494E00434C45415200257500257500A6
:1006E00052414E444F4D002573004368616D656C67
:1006F000656F6E2D4D696E69202553207573696E87
:1007000067204C55464120255320636F6D70696CFE
:1007100065642077697468204156522D4743432011
:1007200025530031353033303400313330393031F6
:1007300000342E382E31000D0A000D0A00643130CD
:10074000303A4F4B000000000000000000000000A5
:100750000000000000000000000000000000653103
:1007600030313A4F4B205749544820544558540093
:100770000000000000000000000000000000006E0B
:100780003131303A57414954494E4720464F522063
:10079000584D4F44454D000000000000000000008F
:1007A000C83230303A554E4B4E4F574E20434F4D86
:1007B0004D414E4400000000000000000000000019
:1007C00000C93230313A494E56414C494420434FDA
:1007D0004D4D414E44205553414745000000000017
:1007E0000000CA3230323A494E56414C49442050FA
:1007F0004152414D455445520000000000000000A8
:1008000000000056455253494F4E000000000000C2
:10081000000000000000009911434F4E4649470078
:10082000000000000000000000D611CD11B71155E6
:10083000494400000000000000000000000000002B
:10084000000612DC11524541444F4E4C5900000045
:10085000000000000000006A12581255504C4F4131
:1008600044000000000000000000007E12000000B4
:1008700000444F574E4C4F41440000000000000020
:100880000083120000000052455345540000000050
:1008900000000000000000881200000000555047D2
:1008A0005241444500000000000000000093120087
:1008B0000000004D454D53495A450000000000001E
:1008C000000000000000009E1255494453495A455B
:1008D00000000000000000000000000000B612420E
:1008E0005554544F4E00000000000000000000CCA2
:1008F00012D812D112425554544F4E5F4C4F4E47AE
:100900000000000000E212EE12E7124C454447528C
:1009100045454E0000000000000000F8120413FDE1
:10092000124C454452454400000000000000000005
:10093000000E131A1313134C4F474D4F444500003C
:100940000000000000000024132E1329134C4F4711
:100950004D454D0000000000000000000036136A05
:1009600013501353455454494E47000000000000F3
:1009700000000000008F138A13434C4541520000D1
:100980000000000000000000009713000000004875
:10099000454C500000000000000000000000009BDB
:1009A00013000000005253534900000000000000F3
:1009B000000000000000000000E51300000000003F
:1009C0000000000000000000000000000000000027
:1009D000000011241FBECFEFCDBFDFE2DEBF10E26B
:1009E000A0E0B0E2EAEEFEE502C005900D92A23969
:1009F000B107D9F72EE2A2E9B0E201C01D92A93CED
:100A0000B207E1F703D00C94732F84C08AD00E9400
:100A1000890E0E94F00D0E946B0F07D32ED10E9409
:100A20002411A7D168D781E08093000210920102BF
:100A300092E09093020293E090930402809320024C
:100A400088E380932102EED08091480081608093FA
:100A50004800C2E00EC00E942911E091FB28F091ED
:100A6000FC2809950E949D0DE091F528F091F6284B
:100A700009958091030481FFEECF8091010480FDF0
:100A8000FCCFC093030489D10E944A113BD70E9436
:100A90009C0D0E94700FDFCF292F332722303105A4
:100AA00029F12330310599F02130310541F080E002
:100AB00090E020E030E0FA0120833183089582E164
:100AC00090E02CE633E0FA012083318308959927E2
:100AD0008130910599F082309105B1F0892B39F779
:100AE000EAE2F3E0849190E09F01E5CF8EE390E0AD
:100AF0002EE233E0FA01208331830895E0E1F3E050
:100B0000849190E09F01D7CFE2EFF2E0849190E0F2
:100B10009F01D1CF1F920F920FB60F921124FFCFDA
:100B200018958091780083FF0AC088E08093780050
:100B300088ED84BF81E080938000FD95FEC08091A8
:100B400050008660809350008091510081FFFCCF5F
:100B50008091510082FFFCCF1092560021E020933B
:100B6000600088ED84BF2093400083ED90E3809384
:100B7000260A9093270A86E08093000A2093430078
:100B800083E690E080930A0490930B0480930C0416
:100B900090930D0420930004209302048091CC01D3
:100BA00088608093CC01089588ED84BF81E0E8E7F8
:100BB000F0E08183089588ED84BF8BE1809380000D
:100BC0000895809148008E7F809348008BEC80933D
:100BD00052008091500088608093500080915100B5
:100BE00083FFFCCF84EC809355008091500080619E
:100BF000809350008091510084FFFCCF0895E8E479
:100C0000F0E0808181608083E0E4F0E084818E7F89
:100C10008483E0E5F0E080818F7E80838081877F20
:100C20008083089587E0E0EAF0E082837894089575
:100C30000895089508950895089580E090E0089536
:100C400008950895E0910A29F0910B29838395E294
:100C5000899FB001112462587C4F45E250E082EE3A
:100C600098E20E94F62BE091F728F091F828099578
:100C7000E091F328F091F4280994E0910A29F09189
:100C80000B298381DFCF0F931F93CF93DF934FE720
:100C900053E010E0BC016F5F7F4F9A01FA01C491ED
:100CA000C1110FC0EC012881222311F11F5F4B5DA0
:100CB0005F4F163091F780E0DF91CF911F910F9138
:100CC0000895DC01FC91FF2389F3CF13EFCFDB0103
:100CD00005C0FD91FF2351F3F013E8CF2F5F3F4F85
:100CE000ED01F90104910111F4CF28812111DECF2A
:100CF000812FA8DF81E0DF91CF911F910F9108959F
:100D00000F931F93CF93DF93615071094FE753E027
:100D10001CE29A01FA010491002349F16131710545
:100D200020F425C06031710561F0DC010196EC0111
:100D30000C932F5F3F4F61507109F901049101112C
:100D4000F1CFF4E048335F0761F0CE0101961883DC
:100D5000615071094B5D5F4F24E04D355207C9F674
:100D6000EC011882DF91CF911F910F910895EC0152
:100D7000E8CF08950C94E82B08951F93CF93DF9349
:100D8000662339F0EC01162F0E94E82B899311504D
:100D9000D9F7DF91CF911F9108950E94E82B0E940F
:100DA000E82B0E94E82B0C94E82BCF93DF93DC0117
:100DB0006150710921153105A9F16230710590F179
:100DC000FA0121503109240F351F80E090E017C04F
:100DD000D05DDC93CF704C2F50E04A30510504F5C4
:100DE000C05D1196CC9311971296625071090296CC
:100DF000E217F307C9F0319662307105A8F0C0819F
:100E0000DC2FD295DF704D2F50E04A30510504F3AE
:100E1000D95CDC93CF704C2F50E04A30510504F37D
:100E2000C95CDFCF80E090E01C92DF91CF91089504
:100E3000DC01FA018081882309F441C09181992362
:100E4000D9F120E030E061157105A1F433C082953D
:100E5000807F913430F5942F892B8D932F5F3F4FF6
:100E600032968081882331F19181992329F162178B
:100E7000730701F140ED480F4A3020F04FEB480F67
:100E80004630D0F440ED490F4A3020F05FEB590F67
:100E9000563090F48134D8F28295807F8057913417
:100EA000D0F29753892B8D932F5F3F4F32968081DD
:100EB0008111DACFC901089580E090E0089520E023
:100EC00030E0F8CFFB01EE56FF4D20E034E0261B6A
:100ED000370B4217530708F49A012115310549F0E1
:100EE000DC01CF01820F931F21912D93E817F907A1
:100EF000D9F70895DB01AE56BF4D20E034E0261B44
:100F0000370B4217530708F49A012115310541F0B8
:100F1000FC01820F931F21912D93E817F907D9F750
:100F200061E185E00C94F10F80E094E0E2E9F0E209
:100F3000DF019C011D9221503040E1F7089580911E
:100F4000092990E0A0E0B0E04AE0880F991FAA1FAD
:100F5000BB1F4A95D1F740E157ED30E44093660658
:100F60005093A0092091A10926FFFCCF3093A1093D
:100F70002091A0091092A0092091A10926FFFCCF81
:100F80003093A1092091A0094093650627FFE6CF81
:100F900020E12093660623E02093A0092091A10977
:100FA00026FFFCCF20E42093A1092091A009AD01E8
:100FB000662777274093A0092091A10926FFFCCF3F
:100FC00020E42093A1092091A009892F9A2FAB2F0B
:100FD000BB278093A0098091A10986FFFCCF80E404
:100FE0008093A1098091A0091092A0098091A10984
:100FF00086FFFCCF80E48093A1098091A009E2E9FB
:10100000F0E290E41092A0098091A10986FFFCCF44
:101010009093A1098091A009819384E2E239F807B5
:1010200089F780E1809365060895CF93DF9300D020
:1010300000D0CDB7DEB780E18093650692E0909353
:10104000660698E0909365069AE1909361069FE0AA
:101050009093A6091092A70990EC9093A50998E1A6
:101060009093A4098093660687ED8093A0098091F0
:10107000A10986FFFCCF80E48093A1098091A0099B
:101080001092A0098091A10986FFFCCF80E4809393
:10109000A1098091A00990E19093650680FD3EC072
:1010A0008DE389838AE28A8380E88B8386EA8C8356
:1010B00020E137ED90E4209366063093A0098091FB
:1010C000A10986FFFCCF9093A1098091A0091092FD
:1010D000A0098091A10986FFFCCF9093A10980917E
:1010E000A0092093650687FFE6CF80E1809366061E
:1010F000FE013196CE01059630E421912093A0099E
:101100002091A10926FFFCCF3093A1092091A009CD
:10111000E817F90791F780E1809365062496CDBF23
:10112000DEBFDF91CF910BCF5F926F927F928F9254
:101130009F92AF92BF92CF92DF92EF92FF920F9366
:101140001F93CF93DF938091092990E0A0E0B0E056
:101150006AE0880F991FAA1FBB1F6A95D1F722E981
:1011600030E200E014E0E12CFF24F394E0E1CE2E25
:10117000F7EDBF2EC0E4DC2ED0E1AD2E47ED942E6E
:1011800053E5652E64E8762E73E8872E492F5A2F93
:101190006B2F7727F82FE701C81BD1090C171D0704
:1011A00008F4E801A09266069092A009E091A109D6
:1011B000E6FFFCCFD092A109E091A0091092A0090E
:1011C000E091A109E6FFFCCFD092A109E091A0092E
:1011D000C0926506E7FFE6CFA09266066092A0097E
:1011E000E091A109E6FFFCCFD092A109E091A0090E
:1011F0005093A009E091A109E6FFFCCFD092A1098C
:10120000E091A0094093A009E091A109E6FFFCCF7D
:10121000D092A109E091A0091092A009E091A10942
:10122000E6FFFCCFD092A109E091A009C09265062B
:10123000C0926606B092A009E091A109E6FFFCCF3A
:10124000D092A109E091A0091092A009E091A10912
:10125000E6FFFCCFD092A109E091A009C0926506FB
:10126000E7FFE6CFA09266067092A009E091A1097F
:10127000E6FFFCCFD092A109E091A0091092A0094D
:10128000E091A109E6FFFCCFD092A109E091A0096D
:101290001092A009E091A109E6FFFCCFD092A1092C
:1012A000E091A009F093A009E091A109E6FFFCCF2D
:1012B000D092A109E091A009209789F0F9012C0FA3
:1012C0003D1F51905092A0095090A10956FEFCCFAD
:1012D000D092A1095090A009E217F30791F7C092AC
:1012E0006506C0926606B092A009E091A109E6FFEA
:1012F000FCCFD092A109E091A0091092A009E09141
:10130000A109E6FFFCCFD092A109E091A009C0920B
:101310006506E7FFE6CFA09266068092A009E091FD
:10132000A109E6FFFCCFD092A109E091A00950935A
:10133000A009E091A109E6FFFCCFD092A109E091BC
:10134000A0094093A0094091A10946FFFCCFD0928B
:10135000A1094091A0091092A0094091A10946FF5E
:10136000FCCFD092A1094091A009C09265060C1B48
:101370001D0B8C0F9D1FA11DB11D0115110509F03D
:1013800005CF60E185E02DD663E184E0DF91CF9168
:101390001F910F91FF90EF90DF90CF90BF90AF9093
:1013A0009F908F907F906F905F901BC62F923F927F
:1013B0004F925F926F927F928F929F92AF92BF9265
:1013C000CF92DF92EF92FF920F931F93CF93DF9311
:1013D000CDB7DEB72C97CDBFDEBF4C01411504E081
:1013E00050076105710508F05DC18091092990E001
:1013F000A0E0B0E01AE0880F991FAA1FBB1F1A9542
:10140000D1F7840F951FA61FB71FC12C04E0D02E63
:10141000E12CF12C890120E030E0C41AD50AE60A5B
:10142000F70ACD82DE82EF82F8860C151D052E05A7
:101430003F0508F451C1ED80FE80E114F10409F488
:1014400031C1A82C392CC12CDD24D39410E1712E8C
:1014500007ED602E20E4B22E30E1532EE7ED4E2E44
:10146000F3E52F2E04E813E849875A876B877C87BA
:10147000292F3A2F4B2F552729833A834B835C839F
:10148000382FA601481B5109E416F50608F4A701F8
:10149000509266064092A0092091A10926FFFCCF38
:1014A000B092A1092091A0091092A0092091A10950
:1014B00026FFFCCFB092A1092091A0097092650689
:1014C00027FFE6CF509266062092A0092091A1093D
:1014D00026FFFCCFB092A1092091A0096A816093F8
:1014E000A0092091A10926FFFCCFB092A10920916B
:1014F000A009E981E093A0092091A10926FFFCCF72
:10150000B092A1092091A0091092A0092091A109EF
:1015100026FFFCCFB092A1092091A0097092650628
:10152000709266066092A0092091A10926FFFCCF67
:10153000B092A1092091A0091092A0092091A109BF
:1015400026FFFCCFB092A1092091A00970926506F8
:1015500027FFE6CF509266060093A0092091A109CB
:1015600026FFFCCFB092A1092091A0091092A009FA
:101570002091A10926FFFCCFB092A1092091A009DA
:101580001092A0092091A10926FFFCCFB092A109D9
:101590002091A0093093A0092091A10926FFFCCF3A
:1015A000B092A1092091A0094115510509F491C0FB
:1015B000EA2DF32D9F01240F351F61916093A0093F
:1015C0006091A10966FFFCCFB092A1096091A009CA
:1015D000E217F30791F770926506709266066092C3
:1015E000A0096091A10966FFFCCFB092A1096091AA
:1015F000A0091092A0096091A10966FFFCCFB092EA
:10160000A1096091A0097092650667FFE6CF50922C
:1016100066061093A0096091A10966FFFCCFB09205
:10162000A1096091A009FA81F093A0096091A10934
:1016300066FFFCCFB092A1096091A0096981609317
:10164000A0096091A10966FFFCCFB092A109609149
:10165000A0091092A0096091A10966FFFCCFB09289
:10166000A1096091A00970926506E41AF50A840F39
:10167000951FA11DB11DA22E332EE114F10409F016
:10168000F7CE49855A856B857C85DA01AE56BF4D0C
:101690008D819E818A0F9B1FF40121912D93A817A4
:1016A000B907D9F781E02C96CDBFDEBFDF91CF918E
:1016B0001F910F91FF90EF90DF90CF90BF90AF9070
:1016C0009F908F907F906F905F904F903F902F9062
:1016D00008952A2D332D7FCF0D831E832F833887C6
:1016E000AACECF92DF92EF92FF920F931F936901E0
:1016F000411524E052076105710540F500E014E052
:1017000020E030E0E12CF12C041B150B260B370BED
:10171000C016D106E206F306B0F04E565F4D011535
:10172000110549F0DA01FC01080F191F8D91819311
:10173000E017F107D9F781E01F910F91FF90EF902B
:10174000DF90CF90089597018601E7CF80E01F9149
:101750000F91FF90EF90DF90CF900895FF920F933D
:101760001F93CF93DF93CDB7DEB7A097CDBFDEBF7A
:101770008130E9F0823009F451C0833009F46CC043
:10178000843079F1853009F48CC0863009F4ABC01F
:10179000873009F4AAC0883009F481C0A096CDBF73
:1017A000DEBFDF91CF911F910F91FF90089580913F
:1017B0000529882309F49BC0F12C8E010F5F1F4F70
:1017C000D9DAF801EF0DF11D8083F394809105299A
:1017D000F816B0F3E0910129F0910229C8010995AA
:1017E000DDCFE091FF28F09100298E010F5F1F4FA0
:1017F000C801099520910529222361F3F80191E0A0
:10180000992331F0808191E0811190E081508083B3
:1018100031968E2F801B821798F3DCCFE091FF2842
:10182000F09100298E010F5F1F4FC801099520918B
:101830000529222379F2F80191E0992339F080817A
:1018400091E08F3F09F090E08F5F808331968E2F7B
:10185000801B821790F3BECFE091FF28F091002902
:101860008E010F5F1F4FC80109952091052931E0B6
:10187000215008F4AFCF3323D9F3822F90E0F80141
:10188000E80FF91F408131E04F3F09F030E0F801E7
:10189000E80FF91F4F5F4083215068F79BCF4FDB64
:1018A0007DCFE091FF28F09100298E010F5F1F4F3F
:1018B000C80109952091052931E0215008F48ACF0B
:1018C0003323D9F3822F90E0F801E80FF91F40810C
:1018D00031E0411130E0F801E80FF91F4150408339
:1018E000215070F777CF57D259CF1EDC57CF8E01DA
:1018F0000F5F1F4F6FCFE0E0F6E080E4828388E166
:10190000868B08958091080686FF08C080919224F6
:1019100081508A30A8F010929224089580919224E8
:101920008A3050F08A30C9F7E0910A29F0910B29EA
:10193000818114DF809192248F5F80939224089597
:10194000E0910A29F0910B29808108DFE4CF0F9301
:101950001F93CF93DF93615071094CE554E01CE273
:101960009A01FA010491002349F16132710520F4D2
:1019700025C06032710561F0DC010196EC010C9329
:101980002F5F3F4F61507109F90104910111F1CFAF
:10199000F5E04C355F0761F0CE0101961883615088
:1019A0007109405E5F4F25E04C375207C9F6EC01E4
:1019B0001882DF91CF911F910F910895EC01E8CF2C
:1019C000882319F0813091F0089560930C29609379
:1019D00012296093182960931E296093242960932B
:1019E0002A296093302960933629089560930D2940
:1019F000609313296093192960931F296093252907
:101A000060932B2960933129609337290895FB0156
:101A1000882321F0813081F010820895A0910A2955
:101A2000B0910B296C9180E2689FB0011124645A37
:101A30007B4FCF010C94182CA0910A29B0910B294F
:101A400011966C91F0CF1F93CF93DF93182FEB017A
:101A50006CE574E0CE010E94FF2B892BF1F16CE75D
:101A600074E0CE010E94FF2B892B09F43EC06CE983
:101A700074E0CE010E94FF2B892BC9F16CEB74E05E
:101A8000CE010E94FF2B892BA1F16CED74E0CE01F9
:101A90000E94FF2B892B79F16CEF74E0CE010E943C
:101AA000FF2B892B51F16CE175E0CE010E94FF2BD9
:101AB000892B29F16CE375E0CE010E94FF2B892B65
:101AC00001F16CE575E0CE010E94FF2B892BD9F066
:101AD00080E0DF91CF911F91089560E0812F70DF4A
:101AE00081E0DF91CF911F91089561E0F7CF62E02F
:101AF000F5CF63E0F3CF64E0F1CF65E0EFCF66E0D0
:101B0000EDCF67E0EBCF68E0E9CF08951F93CF9367
:101B1000DF93EB01142F682F81E090E20E94F529FA
:101B2000612F81E090E20E94F529612F70E0CE01E3
:101B3000DF91CF911F9182C3089508954115E4E08C
:101B40005E076105710580F449565B4D211531052D
:101B500049F0DA01FC01280F391F8D918193E217BA
:101B6000F307D9F781E0089580E0089540E054E05C
:101B70006FEF7FEF87E994E20E94302C87E994E2CF
:101B8000809395249093962480E094E0809393240E
:101B9000909394240895809193249091942408958F
:101BA000E0910A29F0910B298283813091F050F065
:101BB000823039F486E89DE08093072990930829C4
:101BC0000895089585E89DE080930729909308295A
:101BD000089587EF9DE08093072990930829089541
:101BE000C5DFE0910A29F0910B298281D9CF20919C
:101BF000932430919424E42FF0E0DF0112962A1709
:101C00003B0750F1225031092E1B3F0B20939324A8
:101C100030939424E0919524F091962480839F0141
:101C20002E5F3F4F209395243093962441838FEF6E
:101C3000840F442381F0FB01D901982F41914D93EA
:101C40009150E0F790E00196820F931F80939524C6
:101C5000909396240895089580E0A2CFCF93DF93C8
:101C6000EC016EE775E00E94FF2B892B91F06EE886
:101C700075E0CE010E94FF2B892B89F06EE975E09B
:101C8000CE010E94FF2B892B61F080E0DF91CF9184
:101C9000089580E085DF81E0DF91CF91089581E0B4
:101CA000F9CF82E0F7CFAB01E0910A29F0910B293F
:101CB000628120E1629FB001112462587A4F0C9436
:101CC000182C0F931F93CF93DF93EC018B01188295
:101CD000AB016EE775E00E94082CA8016CE775E087
:101CE000CE010E94082CA8016EE875E0CE010E948A
:101CF000082CA8016CE775E0CE010E94082CA80111
:101D00006EE975E0CE01DF91CF911F910F910C9498
:101D1000082C43E350E060E070E089E099E20C9425
:101D2000272E43E350E060E070E089E099E20C94F4
:101D3000322E1F93CF93DF931F92CDB7DEB71FEFE5
:101D4000180F183030F080E00F90DF91CF911F9185
:101D500008958983E9D910930929412F50E09A0108
:101D6000220F331F240F351F220F331F245F364DE0
:101D700020930A2930930B290E943D0631DFDFD8DA
:101D800089816FE1680F83E02CD181E00F90DF91B2
:101D9000CF911F9108952091092930E02F5F3F4F87
:101DA00027703327822F2F5F3F4FF901EE0FFF1F60
:101DB000E20FF31FEE0FFF1FE75FF64D90819111C9
:101DC00078C027703327822F2F5F3F4FF901EE0F26
:101DD000FF1FE20FF31FEE0FFF1FE75FF64D90812D
:101DE000911167C027703327822F2F5F3F4FF90172
:101DF000EE0FFF1FE20FF31FEE0FFF1FE75FF64D21
:101E00009081911156C027703327822F2F5F3F4F4B
:101E1000F901EE0FFF1FE20FF31FEE0FFF1FE75F49
:101E2000F64D9081911145C027703327822F2F5F87
:101E30003F4FF901EE0FFF1FE20FF31FEE0FFF1FE1
:101E4000E75FF64D9081911134C027703327822FC0
:101E50002F5F3F4FF901EE0FFF1FE20FF31FEE0F51
:101E6000FF1FE75FF64D9081911123C02770332744
:101E7000822F2F5F3F4FF901EE0FFF1FE20FF31F7D
:101E8000EE0FFF1FE75FF64D9081911112C0277092
:101E90003327822F2F5F3F4FF901EE0FFF1FE20F15
:101EA000F31FEE0FFF1FE75FF64D9081911101C008
:101EB00008958F5F3ECF209109292F5CFC0120837C
:101EC00011820895FC0180819181992311F080E0B5
:101ED000089580532ECF80E3E0E0F6E081830895FB
:101EE00020919728822F90E08832910588F01092F7
:101EF000972820919828822F90E08832910518F039
:101F0000109298280895FC01E250FF4F0C947A2B10
:101F1000FC01EA5DFE4F0C947A2B80E2809306066A
:101F200010929828089580E18093060610929728D1
:101F3000E0CF809199288F5F813099F18093992823
:101F4000089580E28093050610929828089580E213
:101F5000809307061092982808958091040685FDC5
:101F6000DCCF80E280930506089580E18093070628
:101F700010929728BECF8091040684FDD4CF80E1D3
:101F800080930506B6CF80E18093050610929728CE
:101F9000B0CF809199288F5F813099F080939928F4
:101FA000A8CF109299288091040685FFDACF80E2AD
:101FB00080930606203209F4A3CF2150209398285D
:101FC0000895109299288091040684FFD8CF80E16B
:101FD00080930606203209F48ACF21502093972857
:101FE00088CFE0910A29F0910B299581981731F05B
:101FF0009481981308956093972808956093982882
:10200000F7CF0F931F93CF93DF93615071094EEA7F
:1020100055E01CE29A01FA010491002349F1613272
:10202000710520F425C06032710561F0DC01019674
:10203000EC010C932F5F3F4F61507109F90104913E
:102040000111F1CFF6E04E385F0761F0CE01019645
:10205000188361507109405E5F4F26E04E3A520787
:10206000C9F6EC011882DF91CF911F910F9108956D
:10207000EC01E8CF982F907185FD03C091113FC00E
:10208000089560931129992359F160931029609361
:1020900017296093162960931D2960931C2960936A
:1020A000232960932229609329296093282960932A
:1020B0002F2960932E2960933529609334296093EA
:1020C0003B2960933A2980E2809306061092982873
:1020D0009923B1F280E18093060610929728089523
:1020E0006093172960931D29609323296093292900
:1020F00060932F296093352960933B29E4CF609347
:1021000010296093162960931C29609322296093FB
:10211000282960932E296093342960933A29D8CFD7
:10212000FB01803221F0803189F010820895A09166
:102130000A29B0910B2915966C9180E2689FB00135
:10214000112462557A4FCF010C94182CA0910A29C2
:10215000B0910B2914966C91F0CF1F93CF93DF931E
:10216000182FEB016EEA75E0CE010E94FF2B892B40
:10217000B1F16EEC75E0CE010E94FF2B892BB9F115
:102180006EEE75E0CE010E94FF2B892B91F16EE07F
:1021900076E0CE010E94FF2B892B69F16EE276E09A
:1021A000CE010E94FF2B892B41F16EE476E0CE0137
:1021B0000E94FF2B892B19F16EE676E0CE010E947A
:1021C000FF2B892BF1F06EE876E0CE010E94FF2B09
:1021D000892BC9F080E0DF91CF911F91089560E0D5
:1021E000812F48DF81E0DF91CF911F91089561E059
:1021F000F7CF62E0F5CF63E0F3CF64E0F1CF65E0C5
:10220000EFCF66E0EDCF67E0EBCFBC0181E090E27D
:102210000C94A629CF93DF93EC012196FC016491E5
:10222000662349F081E090E20E94F529FE01649165
:1022300021966111F7CFDF91CF910895AB01BC01D9
:1022400081E090E20C94CB2980E2E0E6F6E0828324
:102250000895CF93DF9380919A28823019F0DF910F
:10226000CF91089581E090E20E94682A0E948B2419
:1022700081E090E20E94832AEC0197FDF0CF63E1B8
:1022800082E0AFDE8C2F06D38111E9CF8C2FDF9156
:10229000CF91A5C480919A28813039F1D8F082304D
:1022A00051F0833099F48091002081508093002078
:1022B000882351F108958091680685FD09C084E165
:1022C0008093002083E080939A280895823091F7CC
:1022D0004BD493C58091680685FFECCF84E1809351
:1022E000002081E080939A280895809100208150F9
:1022F000809300208111DECF0E94E1050E94DF283B
:1023000082E080939A28E4CF0E94A4280E94FF05CF
:1023100010929A28089561E181E063CE60E181E046
:1023200060CE81E090E20C94812981E090E20C94EF
:10233000E02A21E337E03F932F932AE237E03F93EF
:102340002F9323E237E03F932F932AEE36E03F931B
:102350002F9321E02F931F929F938F930E94372CEE
:102360008DB79EB70C968DBF9EBF85E6089523EE70
:1023700038E23F932F9327EE36E03F932F9321E0EF
:102380002F931F929F938F930E94372C8DB79EB7E8
:1023900008968DBF9EBF85E608950E944306811171
:1023A00002C08AEC0895BDDC84E6089560E071E027
:1023B0000E94800685E60895EF92FF920F931F9387
:1023C000CF93DF93CDB7DEB7A097CDBFDEBF8C0133
:1023D000E0900529F12CE091FF28F0910029CE0131
:1023E000019609959701AE014F5F5F4F60E071E084
:1023F000C8010E94D50685E6A096CDBFDEBFDF915D
:10240000CF911F910F91FF90EF900895BF92CF92BF
:10241000DF92EF92FF920F931F93CF93DF93CDB78D
:10242000DEB7A097CDBFDEBF8C01C0900529D12CAF
:1024300060EE76E00E94FF2B892B49F5C114D10490
:1024400099F1B12CCE0101967C0100E010E00E94D0
:10245000BA06F701E00FF11F8083B3940B2D10E053
:102460000C151D05A0F3E0910129F0910229C70187
:10247000099584E6A096CDBFDEBFDF91CF911F9175
:102480000F91FF90EF90DF90CF90BF900895A8013B
:1024900060E270E0CE0101967C010E9418078C1565
:1024A0009D0509F38AECE6CFCE0101967C01DBCFD6
:1024B00020910629211107C020E3FC012083FC01A3
:1024C000118285E6089521E3FC012083FC0111823D
:1024D00085E60895FC012181211105C080818133A9
:1024E00041F0803311F08AEC08951092062984E6B9
:1024F000089581E08093062984E6089586ED99E0A9
:1025000098D18EE6089581E79BE0AED18EE60895DE
:10251000E0ECF4E081818E7F81830E94A4280E94F8
:10252000D40584E60895E0ECF4E081818E7F818318
:102530000E94A4280E94DB0584E60895E3E0F9E206
:1025400021812F9320812F932DED36E03F932F9300
:1025500021E02F931F929F938F930E94372C8DB76A
:102560009EB708968DBF9EBF85E6089520910529E8
:102570001F922F932AED36E03F932F9321E02F9364
:102580001F929F938F930E94372C8DB79EB708960A
:102590008DBF9EBF85E6089560E071E0D8D985E6DD
:1025A000089540E051E0BC0180E031DA85E608950D
:1025B000BC0180E048DA811102C08AEC0895B1DBE9
:1025C00084E6089560E071E0C2D985E6089540E0B0
:1025D00051E0BC0181E01BDA85E60895BC0181E091
:1025E00032DA811102C08AEC08959BDB84E60895FB
:1025F00060E071E006DD85E6089540E051E0BC0151
:1026000080E28EDD85E60895BC0180E2A6DD8111C1
:1026100002C08AEC089585DB84E6089560E071E0ED
:10262000F0DC85E6089540E051E0BC0180E178DD12
:1026300085E60895BC0180E190DD811102C08AEC3D
:1026400008956FDB84E6089560E071E03ADB85E68B
:10265000089560E071E027DB85E60895FFDA8111D7
:1026600002C08AEC08955DDB84E6089524ED36E02F
:102670003F932F932CEC36E03F932F9326EC36E0DC
:102680003F932F9321E02F931F929F938F930E944C
:10269000372C8DB79EB70A968DBF9EBF85E60895ED
:1026A000CF93DF93EC0177DA9F938F9323EC36E09F
:1026B0003F932F9381E08F931F92DF93CF930E94DC
:1026C000372C8DB79EB708968DBF9EBF85E6DF91EC
:1026D000CF910895CF93DF93EC016BEB76E00E94EE
:1026E000FF2B892B81F065EB76E0CE010E94FF2B5A
:1026F000892B21F08AECDF91CF91089537DA84E6B7
:10270000DF91CF9108958EE99DE0AED08EE6DF9106
:10271000CF91089560E071E0CEDB85E60895D2DBCD
:10272000811102C08AEC0895FCDA84E608950E94C3
:10273000940784E60895DF92EF92FF920F931F9320
:10274000CF93DF937C01CFEFD0E003E018E08CE281
:10275000D82EB80180E990E20E94FF2B892B39F135
:10276000F8014491442379F1C132D10560F1D701D8
:10277000F80104C0C032D10551F0DC01CD01019651
:102780009C014C933196219744914111F3CF7901EB
:102790008FEFE81AF80AF901D08221970A5E1F4FDD
:1027A000B80180E990E20E94FF2B892BC9F6D7017E
:1027B00011971C9285E6DF91CF911F910F91FF90A9
:1027C000EF90DF9008959701E2CFFC012091200265
:1027D0002068209320022091230220FFFCCF81E07B
:1027E00080932302A0911002B0911102AE5BB10957
:1027F000B7FD1CC029E637E54BE050E00E94802B76
:10280000AA27BB279F938F932EEA36E03F932F93FF
:1028100081E08F931F92FF93EF930E94372C8DB727
:102820009EB708968DBF9EBF85E60895A0E0B0E0F4
:10283000E1CF21E02093A9282093A8282CE320931E
:10284000A52825E030E02093A3283093A4281092F7
:102850009D2810929E2810929F281092A028809365
:102860009B2890939C28089527E02093A9282CE288
:1028700031E02093A3283093A42810929D28109231
:102880009E2810929F281092A02880939B289093B6
:102890009C280895CF934091A92850E0FA013197E0
:1028A000E930F10520F0C0E08C2FCF910895E25B74
:1028B000FE4F0C947A2B2091A7289091A8282917D5
:1028C00009F4EAC030E0892F90E001972817390712
:1028D00009F42DC168E181E090E20E94F52910928F
:1028E000A928C1E08C2FCF910895853109F47FC0CC
:1028F0008B3109F478C0883109F410C1863009F4AD
:1029000078C0853109F449C0C1E08C2FCF9108957A
:10291000813009F40EC1843009F400C18831F9F224
:102920008B31E9F2C1E0F1CF8093A72884E0809356
:10293000A928C1E08C2FCF91089590E04091A7285D
:102940002FEF30E0241B310982179307E1F485E073
:102950008093A928C1E0A8CF4091A1285091A22836
:102960009A012F5F3F4F2093A1283093A228FA01AC
:10297000E45CF64D80832038310531F686E08093A3
:10298000A928C1E091CF65E181E090E20E94F5299C
:1029900082E08093A928C1E087CF61E081E090E2E6
:1029A0000E94F5296091A82881E090E20E94F52913
:1029B0006091A828609581E090E20E94F52960E886
:1029C00070E08CE399E23ADCECE3F9E260E08191BB
:1029D000680F29E2EC3BF207D1F781E090E20E9418
:1029E000F529C1E092CF1092A928C1E08ECF1092B4
:1029F000A8288091A8288F5F8093A82840919D28BF
:102A000050919E2860919F287091A028E0919B286A
:102A1000F0919C2820E830E08CE399E20995C82FDA
:102A2000882309F491C061E081E090E20E94F529D9
:102A30006091A82881E090E20E94F5296091A82881
:102A4000609581E090E20E94F52960E870E08CE3F7
:102A500099E2F4DBECE3F9E260E08191680F89E24E
:102A6000EC3BF807D1F781E090E20E94F529409114
:102A70009D2850919E2860919F287091A0284058D1
:102A80005F4F6F4F7F4F40939D2850939E286093D8
:102A90009F287093A02808CFECE3F9E290E0219101
:102AA000920F29E2EC3BF207D1F789136CCF4091EA
:102AB0009D2850919E2860919F287091A028E091B8
:102AC0009B28F0919C2820E830E08CE399E209955E
:102AD000C82F882309F442C08091A8288F5F809373
:102AE000A82840919D2850919E2860919F28709120
:102AF000A02840585F4F6F4F7F4F40939D285093C1
:102B00009E2860939F287093A02866E081E090E261
:102B10000E94F52982E08093A928C6CE66E081E074
:102B200090E20E94F5291092A928C1E0BDCE66E08E
:102B30002BCF1092A1281092A2281092A62883E0F1
:102B40008093A928C1E0B0CE64E081E090E20E94C9
:102B5000F52989E08093A928C1E0A6CE68E181E04B
:102B600090E20E94F529B6CE8091A928813099F093
:102B7000873081F48091A3289091A4289C01215052
:102B800031092093A3283093A428892B11F41092A3
:102B9000A928089508958091A3289091A4289C01C4
:102BA000215031092093A3283093A428892B89F739
:102BB0008091A5289FEF980F9093A528811109C0B7
:102BC0001092A92885E090E08093A3289093A428F0
:102BD000089565E181E090E20E94F529F3CFEF923C
:102BE000FF920F931F93CF93DF931F92CDB7DEB762
:102BF0009FEB980F9A3128F09FE9980F9A31E0F4F3
:102C000080522091AA283091AB282F3F310558F4EB
:102C1000A9014F5F5F4F4093AA285093AB28F90159
:102C2000E45CF64D808381E00F90DF91CF911F919E
:102C30000F91FF90EF90089590ED980F9A3008F360
:102C40008F35F9F2982F9D7F9D33D9F28D30A9F001
:102C5000883039F08B3139F71092AA281092AB28BE
:102C6000E2CF8091AA289091AB280097E1F20197DA
:102C70008093AA289093AB28D6CFE091AA28F09110
:102C8000AB28E45CF64D10821092AA281092AB2873
:102C900080913C29882331F18D7F8D3319F1EDE34B
:102CA000F9E204C02F3331F02D3321F08F0121914F
:102CB0002111F8CFF801108283E0E82E88E0F82E89
:102CC000B7018CE399E229830E94FF2B2981892B8C
:102CD00009F443C0F6E1EF0EF11C81EDE81689E03E
:102CE000F80671F788EC10E0EDE3F7E0E4918E1759
:102CF00009F470C0EEE5F7E0E4918E1709F467C0BF
:102D0000EFE7F7E0E4918E1709F45EC0E0EAF7E040
:102D1000E4918E1709F455C0E1ECF7E0E4918E17C9
:102D200009F44CC0E2EEF7E0E4918E1709F43BC0E1
:102D300080E090E06FDA8AE397E06CDA112309F41F
:102D400072CF80913C29882309F46DCF8CE399E2FE
:102D50005CDA87E397E05EDA66CF10923C292F3386
:102D6000B9F02D3309F439C0222319F089EC11E0B0
:102D7000BBCF9701205F3F4FF90145915491411519
:102D80005105A1F38CE399E2FA01099511E0ACCF6A
:102D900097012C5E3F4FF901459154914115510522
:102DA00089F789ECE4CF25E030E041E2429FC001A1
:102DB000439F900D1124825C984FBCCF24E030E0FB
:102DC000F4CF23E030E0F1CF22E030E0EECF21E09D
:102DD00030E0EBCF20E030E0E8CF97012E5E3F4FB0
:102DE000F901459154914115510509F4BFCFC8012E
:102DF0000196FA01099511E077CF0895A0E2B6E0B7
:102E000082E011968C93119715968C9315978CE30D
:102E10009AE28093B8289093B9288CEB9AE2809339
:102E2000B6289093B7281092B1281092B02810922B
:102E3000AC281092B4281092B5281092AF28E0E484
:102E4000F8E010A211A28DE291E086A397A38FEF84
:102E50009FEF80A791A781E0808388E8838383E048
:102E6000878384E01A968C93E8E4F0E08081817F88
:102E70008660808308951F920F920FB60F921124DF
:102E80008F939F93EF93FF93E8E4F0E08081817F3D
:102E90008083E0E4F8E0138286E990E086AB97ABAC
:102EA0008AE190E080AF91AFE0E4F9E010A211A2D6
:102EB0008FEF9FEF86A397A389E883838EE08083BB
:102EC000E0E2F6E01286FF91EF919F918F910F90D3
:102ED0000FBE0F901F9018951F920F920FB60F9272
:102EE00011242F933F934F938F939F93EF93FF93CF
:102EF000909128068091B028957021E009F020E09B
:102F0000880F822B8093B0289091AC289923C1F12F
:102F1000982F9770973009F448C0982F9C7081F1D2
:102F200082FB882780F991E089278093AE289091D1
:102F3000AF2891117FC09091B1289695882309F40C
:102F400083C020E8292B2093B1288091B428909148
:102F5000B52801968093B4289093B5288770992757
:102F6000892B71F4E091B828F091B928CF0101962E
:102F70008093B8289093B928208381E08093AF286C
:102F80008091AC2891E089278093AC2888E88093D1
:102F90004308FF91EF919F918F914F913F912F9116
:102FA0000F900FBE0F901F9018951092400880E16F
:102FB00080934C08109243098091AE288823E9F150
:102FC0008CEB94E080936609909367091092AD288A
:102FD00081E080934C0983E0809346098091B42876
:102FE0009091B528877011F19091B128969522E0C3
:102FF000280F8730B1F0969543E0480F283088F4C9
:10300000969534E0380F483060F4969525E0280F07
:10301000383038F49695283020F49695813009F4AC
:103020009695E091B828F091B928908381E080933B
:10303000BA28A6CF1092AF28A3CF8CE794E0809354
:10304000660990936709C2CF20E07CCF1F920F9250
:103050000FB60F9211242F933F938F939F93AF93AB
:10306000BF93EF93FF938091AD2890E08B30910553
:1030700080F5FC01E95AFE4F0C947A2BE091B628BA
:10308000F091B72880818111ACC080E4809345061F
:103090002091B2283091B3288091B4289091B5281E
:1030A0002817390709F46CC03196E093B628F093DD
:1030B000B728E091B828F091B928CF010196809304
:1030C000B8289093B92881818093B12884E08093B7
:1030D000AD28FF91EF91BF91AF919F918F913F915B
:1030E0002F910F900FBE0F901F9018958FE390E0D7
:1030F00080936609909367098EE08093000880E4CE
:103100008093450683E08093AD28E3CF80E48093ED
:10311000460684E08093AD28E091B828F091B92864
:1031200080818093B128D5CF8091B12880FD64C083
:1031300080E48093460685E08093AD28CACF8091D5
:10314000B12890E480FD55C0909345068695809304
:10315000B1288091B2289091B32801968093B2282B
:103160009093B3289C0127703327232B09F448C080
:103170002091B4283091B5288217930709F0A6CF83
:1031800088E08093AD28A5CFE091B628F091B728CC
:10319000808181112AC080E48093460687E0809375
:1031A000AD2897CF80E48093460689E08093AD28D0
:1031B00090CF80E4809346068AE08093AD2889CF43
:1031C00010924009109246091092000881E0809305
:1031D000BB287FCF8FE790E08093660990936709C3
:1031E00078CF80E48093460653CF80E480934506F1
:1031F000D5CF90934606AACF80E4809345069BCF17
:1032000086E08093AD2865CFCF93DF93E0E4F6E0CE
:1032100084E08283128AC0E8D1E082E68E83A0E255
:10322000B6E085E012968C93129781E052968C93CB
:10323000529782E050968C9350971A961C921A9748
:1032400083E019968C939AE5988398E5998390E4A6
:103250009183968381838683E0E0F8E08FE090E0BD
:1032600086A397A388E090E082A793A783E2818357
:10327000DF91CF91C3CD0F931F93CF93DF938091B5
:10328000BA288823C1F01092BA2882E080932106E0
:10329000809326060091B4281091B52801151105D8
:1032A00099F4E091F928F091FA28099510924009D3
:1032B00010924609A3DD8091BB2881115AC0DF918D
:1032C000CF911F910F910895A801495F5F4F5695C7
:1032D00047955695479556954795E0910729F09162
:1032E00008296CE37AE280E2099563E186E00E94B6
:1032F000F10FE091FD28F091FE28B8018CE39AE2ED
:1033000009958C0194FF3CC01F7E0115110571F2D7
:10331000A801495F5F4F5695479556954795569535
:103320004795E0910729F09108296CE37AE281E260
:10333000099563E187E00E94F10F0093B428109390
:10334000B5281092B2281092B3288CE39AE28093A9
:10335000B8289093B9288CEB9AE28093B628909382
:10336000B72881E08093AD288091BB28882309F499
:10337000A6CF1092BB28DF91CF911F910F913ECD28
:10338000AC015695479556954795569547954115E5
:10339000510509F4BACF90E020E030E0F901E45C97
:1033A000F54D8081082E82958025082E869586957C
:1033B0008025E058FF4F8F5F86958170C82F80E091
:1033C000D82F81E0C827C0839F5F292F30E02417C2
:1033D000350720F39DCF81E08093BD28089581E0DB
:1033E0008093BD2808950895FF920F931F93CF9364
:1033F000DF9300D000D0CDB7DEB78C01FC01908107
:103400008091BD28823009F45BC0D8F0843009F483
:103410003EC030F18530C9F460E170E0C8013CD7AE
:10342000882309F486C080910629882309F48AC07C
:1034300084E08093BD288AE0F801808384E090E0F6
:1034400006C09632D1F09235C1F080E090E024962B
:10345000CDBFDEBFDF91CF911F910F91FF900895F7
:10346000963259F0923549F0953909F478C081E0E7
:103470008093BD2880E090E0EACF84E4F801808367
:10348000118282E08093BD2880E190E0E0CF963207
:10349000A1F3923591F3903309F48DC0923A09F477
:1034A000B9C0903A09F4D3C0903509F7F801818189
:1034B000882309F4DEC0F801108284E090E0C7CFD1
:1034C0009632D9F29235C9F2933989F619821A8265
:1034D0001B821C8288E8898343E050E060E070E052
:1034E000CE0102960E946207F8018181803209F4C0
:1034F00081C0803709F0A9CFF801928189819813A2
:10350000A4CF93818A819813A0CF94818B81981343
:103510009CCF95818C81981398CF84E0808361E063
:1035200070E0C8018BD683E08093BD2888E190E0ED
:103530008ECF84E08093BD2881E0F801808384E011
:1035400090E085CF6091BC2870E0660F771F660F12
:10355000771F44E050E0C8010E947A0769CF44E039
:1035600050E064E070E0CE0101960E946207F8012D
:103570008181803209F43EC0803709F066CFF801BE
:1035800092818981981361CF93818A8198135DCF4D
:1035900094818B81981359CF95818C81981355CF45
:1035A000108261E070E0C80149D684E08093BD28B4
:1035B00088E190E04CCFF801F18062E070E0C80152
:1035C0006BD6882309F4B8CFFFE0FF1508F473CF5A
:1035D0006F2D70E0660F771F660F771F40E150E098
:1035E000C8010E94620760E170E0C80127D680E947
:1035F00090E02DCF8981F80180833A8131832B813E
:1036000022839C819383832782278927848388E26E
:1036100090E01DCFF801F18066E070E0C8013CD673
:10362000882309F489CF8EEF8F0D8E3008F043CFB9
:10363000809106298111FFCEF4E0FF9EB001112494
:1036400044E050E0C80102960E947A07F4CEF801E7
:10365000F18062E070E0C8011FD6882309F46CCFC6
:103660008EEF8F0D8E3008F026CFF092BC2885E0CB
:10367000E0CE62E070E0C8010FD6882309F45CCF89
:103680001092BD2880E090E0E2CECF93DF93EC0172
:1036900043E050E060E070E00E94620744E050E0E8
:1036A00064E070E0CE010396DF91CF910C94620745
:1036B0000F931F93CF93DF9300D0CDB7DEB78C016C
:1036C000FC0180819181892798E889279281892747
:1036D0008A83848193818927958189279681892787
:1036E000898343E050E060E070E0C8010E947A07FF
:1036F00041E050E063E070E0CE0102960E947A075C
:1037000044E050E064E070E0C80103960E947A074C
:1037100041E050E068E070E0CE0101960E947A0737
:103720000F900F90DF91CF911F910F91089581E03D
:103730008093DB2884E090E08093C0289093C12898
:1037400088E08093BF281092BE28089581E080937E
:10375000DB2884E490E08093C0289093C12888E01F
:103760008093BF2881E090910529973009F080E08F
:103770008093BE28089581E08093DB2882E090E06A
:103780008093C0289093C12888E18093BF2810922D
:10379000BE28089581E08093DB28089508957F92E4
:1037A0008F929F92AF92BF92CF92DF92EF92FF9251
:1037B0000F931F93CF93DF93CDB7DEB72E97CDBF77
:1037C000DEBF8C014091DB2850E04D30510598F070
:1037D00080E090E02E96CDBFDEBFDF91CF911F91AC
:1037E0000F91FF90EF90DF90CF90BF90AF909F90A0
:1037F0008F907F900895FA01EE59FE4F0C947A2B2A
:103800007C01D12CF701C080EFD68C25D7018D9398
:103810007D01D394B2E1DB12F5CF60E170E0C80125
:103820003BD5882309F433C280910629882309F403
:10383000A8C1EDD69AE09827D8019C9317C07C01C7
:1038400056E0D52ED701CC90CFD68C25F7018193A9
:103850007F01DA94B9F764E070E0C8011DD58111E9
:10386000FCC1D5D691E09827D8019C9388E080933D
:10387000DB2884E090E0AECF2091C0289091C12851
:10388000D8018C91863209F45BC1823509F458C1A4
:10389000803409F09DCF82E08093DB288AE0D80154
:1038A0008C9384E090E096CFFC018081982F9D7FDF
:1038B000913409F458C1803309F485C1803A09F480
:1038C00029C4803509F084CFF8018181882309F467
:1038D00025C2D8011C9284E090E07CCF2091C028C2
:1038E0009091C128F8018081863209F432C1823575
:1038F00009F42FC1853909F01EC144E050E063E0AE
:1039000070E0CE0101960E9462079091BF28F801F5
:103910008181803209F4D1C3803709F059CFF80191
:1039200022818981281354CF23818A81281350CF83
:1039300024818B8128134CCF25818C81281348CF7B
:10394000908361E070E0C80179D486E08093DB2841
:1039500088E190E03FCF60E170E09ED4882309F4D5
:1039600007C180910629882309F4E0C18AE0F801A3
:10397000808301C114D67801B4E0EB0EF11CB12CA8
:10398000F701A08031D68A25D7018D937D01B394AC
:10399000B4E0BB12F5CFF80194818091D328981739
:1039A00009F41DC181E08093DB2880E090E012CF14
:1039B0006C01E4E0BE2ED601AC9016D68A25F60145
:1039C00081936F01BA94B9F7D8018C91803309F4CF
:1039D000BCC1803A09F4F3C1803C09F430C2813C97
:1039E00009F4C7C2823C09F4D8C0803B09F4D8C2AC
:1039F00080568230B8F662E070E0C8014DD488236A
:103A000009F4A0C1F80181818C739081903609F48A
:103A1000A1C36AE370E07B01F0E18F9FE00CF11C31
:103A200011244E0137E0830E911C64E0C4010E9412
:103A3000BD068091BE285E01882309F480C38BE017
:103A4000A80EB11C44E050E063E070E0C5010E94A4
:103A5000620746E050E0B701CE0101960E9462077E
:103A60008F819885A985BA858093D3289093D4288F
:103A7000A093D528B093D62860E470E083ED98E257
:103A8000D9D5C090D328D090D428E090D528F090F4
:103A9000D628C092D728D092D828E092D928F09280
:103AA000DA2860E270E087ED98E2C4D5A401B501A0
:103AB000CE010196A7D48F819885A985BA85F80192
:103AC00080839183A283B38387E08093DB2880E2A5
:103AD00090E080CE2091C0289091C128D8018C918F
:103AE000863271F1823561F1803509F412C190EAB4
:103AF000980F923008F46DC2982F9F77903331F071
:103B0000803A21F0805C833008F04CCF81E08093D4
:103B1000DB2884E0D8018C9390E05CCE2091C02813
:103B20009091C128F8018081863299F0823589F020
:103B3000833909F4B2C01092DB2880E090E04ACECD
:103B4000F8012083918384E08093DB2880E190E07A
:103B500041CED8012C9311969C9384E08093DB286E
:103B600080E190E037CE8AE0808384E090E032CE3E
:103B700081E0D8018C9382E08093DB2884E090E0A0
:103B800029CE6091D228E0E16E9FB001112440E17E
:103B900050E0C8010E947A074CCE62E070E0C80194
:103BA0007BD3882309F4ADC0F80181818093D228AA
:103BB0008CE08093DB282BD59AE09827D8019C9342
:103BC00084E090E007CE62E070E0C80165D3811127
:103BD000CFC281E0F801808384E090E0FBCD958145
:103BE0008091D4289813DECE96818091D5289813A1
:103BF000D9CE97818091D6289813D4CE780107ED3D
:103C000018E25F01F0E8AF0EB11C4801D8017D90C9
:103C10008D01EAD48725F70181937F01D4019C901F
:103C2000092C92949024092C969496949024B8D3BD
:103C3000939491FACC24C0F8D12CB1E0CB268C25FA
:103C4000F50181935F01F8E20B3D1F07F1F688E073
:103C50008093DB2880E290E1BDCD6091D228F0E135
:103C60006F9FB001112440E150E082EC98E20E9485
:103C700062072091C2288091C6288095281709F4F0
:103C8000EBC0C5D496E09827F8019083EFCDBFD460
:103C900091E09827F8019083E9CD8091BE28882390
:103CA00009F49FC043E050E060E070E0CE0102966E
:103CB0000E94620788E88983F8019181903209F4B3
:103CC0001BC2903709F084CDF8018281883809F051
:103CD0007FCD93818A8198137BCD94818B819813BA
:103CE00077CD95818C81981373CD84E0808361E0DA
:103CF00070E0C801A3D285E08093DB2888E190E0E2
:103D000069CD85D491E09827F801908384E090E014
:103D100061CDD80111968C918111DBCD62E070E00C
:103D2000C801BAD2882309F454CF05CF6091D228B4
:103D3000B0E16B9FB001112440E150E0C8010E9446
:103D40007A0714CE64D491E038CF62E070E0C80105
:103D5000A3D28823B1F2F8016181F0E16F9FB00135
:103D6000112440E150E0C8010E94620760E170E068
:103D7000C80164D2680130E8C30ED11C72E1A72EDD
:103D8000D801BC9031D48B25F80181938F010B2C85
:103D9000B294B0240B2CB694B694B02401D3B3944F
:103DA000B1FAEE24E0F8F12CF1E0EF268E25D601F1
:103DB0008D936D01AA9421F780E990E10BCD62E02B
:103DC00070E0C80169D2882309F4BCCFD8011196EC
:103DD0008C918093D22889E08093DB2818D49AE0D4
:103DE00092CF44E050E060E070E0CE0101960E9486
:103DF00062079091BF28D80111968C91803209F406
:103E00006BC1803709F0E4CCD80112962C9112973F
:103E100089812813DDCC13962C9113978A8128135E
:103E2000D7CC14962C9114978B812813D1CC15964E
:103E30002C9115978C812813CBCC9C9382CD62E07A
:103E400070E0C80129D2882309F45BCFF801818191
:103E50008093D2288BE0ADCE8091CA28281311CF51
:103E6000E091C3288091C7288095E8130ACF8091FC
:103E7000CB28E81306CF8091C4289091C82890954C
:103E80008913FFCE9091CC288913FBCE3091C528A1
:103E90009091C92890953913F4CE9091CD2839137B
:103EA000F0CE4091CE289091CF2890954913E9CE3D
:103EB0009091D0284913E5CE9091D128909549133F
:103EC000E0CED8019C911196FC91119712964C91DD
:103ED000129750E060E070E0BA01552744275F2B4D
:103EE000492B13969C91792B90E0A0E0B0E0DC0187
:103EF000992788279E2B822BB32B2091DB282B30F0
:103F000009F4D6C02A3021F4840F951FA61FB71FCD
:103F10008093C228C92EDA2EEB2EFF24C092C3282C
:103F20008D01222733270093C4284B2F552766275E
:103F300077274093C528E82FE095E093C628EC2D1D
:103F4000E095E093C728E02FE095E093C828E42FA0
:103F5000E095E093C9288093CA28C092CB280093AB
:103F6000CC284093CD2888E08093DB2880E090E047
:103F700031CC62E070E0C8018FD1882309F4E2CE31
:103F8000D80111968C918093D2286AE0F62EF09297
:103F9000DB283DD38F25F801808384E090E01ACCA4
:103FA00062E070E0C80178D1882309F4CBCE80911B
:103FB0000629811113CFD80111966C91B0E16B9F46
:103FC000B001112440E150E082EC98E20E947A07AF
:103FD00005CF62E070E0C8015FD1882309F4F9CD14
:103FE000F80121812C738081803609F4D4C08AE3E2
:103FF00090E07C01F0E12F9FE00CF11C11244E01B8
:1040000037E0830E911C64E0C4010E94BD068091DC
:10401000BE285E01882309F4A0C08BE0A80EB11C65
:1040200044E050E063E070E0C5010E94620746E0B2
:1040300050E0B701CE0101960E9462078F819885FA
:10404000A985BA858093D3289093D428A093D528A6
:10405000B093D62860E470E083ED98E2EBD28091D3
:10406000D3289091D428A091D528B091D6288093B8
:10407000D7289093D828A093D928B093DA2860E263
:1040800070E087ED98E2D6D287E08093DB288F81BD
:104090009885A985BA85F80180839183A283B3832B
:1040A000A401B501CE010196ADD180E290E092CBA2
:1040B000841B950BA60BB70B2BCF898180833A818C
:1040C00031832B8122839C819383832782278927B5
:1040D000848388E290E07ECB8981F80180833A81F5
:1040E00031832B8122839C81938383278227892795
:1040F000848388E290E06ECB80833A8131839B8118
:1041000092832C812383932798279227948388E294
:1041100090E060CB62E070E0C801BED0882309F473
:1041200058CDD80111968C9111978093D22883E0B5
:104130008093DB288AE08C9384E090E04BCB9BE07B
:10414000A90EB11C44E050E060E070E0C5010E949F
:1041500062077FCC60E370E05ECC9BE0A90EB11CEF
:1041600044E050E060E070E0C5010E9462075FCF6C
:10417000D80111966C91B0E16B9FB001112440E120
:1041800050E0C8010E94620760E170E0C80156D0AB
:1041900080E990E01FCB80E390E02BCFCF93DF93BB
:1041A000EC018091BE28811109C044E050E060E03C
:1041B00070E0CE01DF91CF910C94620743E050E0B4
:1041C00060E070E0CE010E94620744E050E063E0EE
:1041D00070E0CE010396DF91CF910C946207CF93EC
:1041E000DF931F92CDB7DEB72091BE2821111BC0EF
:1041F000FC0121813081232732812327338123272A
:10420000298344E050E060E070E00E947A0741E0DA
:1042100050E064E070E0CE0101960E947A070F90B2
:10422000DF91CF9108954091052950E060E070E062
:104230000E947A070F90DF91CF910895FC016115DC
:10424000710539F1680F791F23E633E64191422762
:1042500050E1459FC0011124A42FA8278A2F90E088
:10426000582F4427880F991F880F991F880F991F6F
:1042700048275927232F332724273527A295AF70A6
:104280002A27E617F70711F7922F832F9083818350
:10429000089583E693E6FACFFC0161157105A9F153
:1042A000680F791F23E633E64191422750E1459F8D
:1042B000C0011124A42FA8278A2F90E0582F44274B
:1042C000880F991F880F991F880F991F4827592712
:1042D000232F332724273527A295AF702A27E617E7
:1042E000F70711F7A9015527808190E084179507FA
:1042F00011F080E00895418150E0232F332781E0C1
:1043000042175307B9F380E0F5CF43E650E023E6C8
:1043100033E6EACFCF93B091DF28C091E0284091F7
:10432000E128A091DC28F091DD28E091DE289C2F87
:1043300090712B2F217E9227242F207292272A2FD3
:10434000247992272F2F237792272E2F2A739227B3
:10435000392F32953F703927232F2695269523270D
:10436000922F969550E060E070E0BA0155274427FF
:104370005C2B4B2B769567955795479592279170B7
:1043800098136068A093DF28F093E028E093E12879
:104390004093DC285093DD286093DE28CF91089568
:1043A000CF93DF93A091DD28EA2FEF70F0E0E05C7F
:1043B000FF4DC091DC28C295CF70D0E0C05CDF4DCE
:1043C000E0898881E82BA295AF70B0E0A05CBF4D7A
:1043D00090968C91E82BA091DE28CA2FCF70D0E068
:1043E000C05CDF4D88A9E82BA295AF70B0E0A05863
:1043F000BF4D8C91E82BF0E0E05EFF4D8081DF91B6
:10440000CF910895AF92BF92CF92DF92EF92FF9239
:104410000F931F93CF93DF935B01EA01DC011196A9
:104420004FED58E26CED78E2CD010197FC0120815F
:104430008C9130E0382B20FFB0C000E421FFABC0EE
:1044400010E4C9019695879596958795302F306829
:1044500080FF302F212F206881FF212F969587958F
:104460009695879536952695132F106880FD312FE8
:10447000122F106881FD212F969587959695879527
:1044800036952695132F106880FD312F122F106856
:1044900081FD212F9695879596958795369526953A
:1044A000132F106880FD312F122F106881FD212FEE
:1044B000969587959695879536952695132F10682E
:1044C00080FD312F122F106881FD212F9695879541
:1044D0009695879536952695132F106880FD312F78
:1044E000122F106881FD212F9695879596958795B7
:1044F00036952695032F0068122F106880FD302F07
:10450000FA013193AF0181FD212FFB012193BF01FE
:104510001296F8E2423E5F0709F086CFF5018181ED
:1045200099818927C2809A81C926D12CE12CF12C4E
:104530007601DD24CC24D82A808198818927C82A55
:1045400083819B818927F82A10E22ADF082F8C2D8E
:104550008170E0DEF694E794D794C794002311F0BD
:104560006894F7F8115089F788818C2588838981B0
:104570008D2589838A818E258A838B818F258B83E4
:10458000DF91CF911F910F91FF90EF90DF90CF902F
:10459000BF90AF90089510E054CF00E04FCFCF927E
:1045A000DF92EF92FF92CF93FC018181C280D12CE8
:1045B000E12CF12C7601DD24CC24D82A8081C82A74
:1045C0008381F82AC0E2ECDE9C2D91708927A2DE5F
:1045D000F694E794D794C794C150A9F7CF91FF9070
:1045E000EF90DF90CF9008951F93CF93DF93D8E0A3
:1045F000C0E0D6DE182F80E08DDEC6951111C068B0
:10460000D150B9F78C2FDF91CF911F9108951F934F
:10461000CF93DF93D4E0C0E0C3DE182F80E07ADED2
:10462000C6951111C860D150B9F78C2FDF91CF9189
:104630001F9108958F929F92AF92BF92CF92DF9277
:10464000EF92FF920F931F93FC01CB010197672B11
:10465000B1F1B281A0818180038102C0A42FBC2D61
:104660002B2F2D72322F32953F703227232F269514
:1046700026952327322F3695402F50E060E070E0DA
:10468000742F66275527442758294A2B6B2B76957C
:10469000679557954795322730FD7068852E962E81
:1046A000A72EBB246B01EE24FF24072F11272227FE
:1046B0003327019798F640838182C28203831F913A
:1046C0000F91FF90EF90DF90CF90BF90AF909F90B1
:1046D0008F9008950F931F93CF93DF93CDB7DEB7DD
:1046E000EA97CDBFDEBF01E41BE2F7D2F801819368
:1046F0008F01FBE209341F07C1F70E9495116BD3AC
:10470000882349F03091412B2091422B822F90E059
:104710008A30910568F05FD3882311F075D3A0D358
:10472000EA96CDBFDEBFDF91CF911F910F91089523
:10473000FC01E159FE4FDEC73111EDCF8091432BD3
:10474000823048F761D38091432B80933C2B93D4E4
:1047500080913C2B882309F4D1C084E08093402BC6
:104760000E949111D8CF3038B1F64ED380913C2BB6
:10477000C4D28BD280D4CFCF3058323060F6809103
:10478000432B9091442B8C3DE3E09E0709F488C0B5
:10479000AE014F5F5F4F6091452B0E944C058C012D
:1047A000009709F4B8CF30D3B80189819A81C1D17B
:1047B00085D2B1CF3111AFCF1091432B1F7724D3C6
:1047C0005AD4E4D28823E9F31093C304111166C0CC
:1047D00082E08093402B9FCF332309F44BC03230CB
:1047E00009F099CF8091432B811124C01091452B62
:1047F0001F7009F490CF812F90D28091422B83308B
:1048000009F486C0A0914B2BB0914C2B11968C9142
:1048100011978B7F11968C9324E8129FF00111243D
:10482000E157F44D1082E0914B2BF0914C2B80819D
:104830008E7F808380E071D2E7D21DD46CCF303878
:1048400029F1323809F067CF8091452B8F7065D2FE
:10485000E0914B2BF0914C2B118112FB112710F999
:1048600080E05BD2D1D2812F48D280E046D20DD2F7
:1048700002D451CF8091432B813009F04CCF81E09D
:10488000233009F080E080933E2BD4CF10913D2B54
:1048900080913E2B882331F31260E4CF83E099CFDF
:1048A00083E08A838AE389835FB7F894DE011396F5
:1048B00020E038E042E007C090E0C7968D939D93DA
:1048C0002F5F2C3191F04093CA01E32FF0E08491E7
:1048D0001092CA0120FF03C082958F703F5F8F70D6
:1048E0008A3050F790E0C096E9CF5FBF8DD26AE37F
:1048F00070E0CE01019688D0E1D10DCF8091C30444
:10490000882321F084E08093402B2ACF81E0FBCFE5
:10491000A7D290CF0895CF938091402B811102C0F0
:10492000CF910895C0914D2B80E0F7D154D28111E1
:1049300003C08C2FCF91F1C1CDDE8C2FCF91EDC173
:10494000CF92DF92EF92FF920F931F93CF93DF935B
:104950008C01EB017A01A5D3811125C0E114F1048A
:1049600081F1F70180819181C81BD90B080F191FB4
:10497000209709F43BC0C12CD12C2091492B3091B8
:104980004A2BF901EF5BFF4F908131978081981797
:1049900078F17BD1C0DFF701808191818C0D9D1D65
:1049A0008083918385E0DF91CF911F910F91FF90DC
:1049B000EF90DF90CF90089568D1ADDF72D3811171
:1049C000F2CF209799F02091492B30914A2BF90191
:1049D000EF5BFF4F908131978081981768F7F8015E
:1049E00081918F018AD12197209769F780E0DBCFF1
:1049F000F80181918F0181D1FFEFCF1ADF0ACC1529
:104A0000DD0509F0BACFF2CFCF92DF92EF92FF929D
:104A10000F931F93CF93DF936C018B0180914D2BEC
:104A200080687BD1C091472BD091482BC017D1070C
:104A300028F00115110509F46FC0E80110E0209776
:104A400039F511110CC02FC0853091F1C4D18111FD
:104A500031C0A8D1811127C099D181112DC0809179
:104A6000402B8111F1CF82E0DF91CF911F910F9107
:104A7000FF90EF90DF90CF9008958530C9F0ABD1D3
:104A8000811118C08FD181110EC080D1811114C045
:104A90008091402B8111F1CFE6CF8091402B88236C
:104AA00011F3853029F07ED18823B9F380E0DCCF83
:104AB00083E0DACF81E0D8CF80914D2B87FD30C0E5
:104AC0002091492B30914A2BF901E05CFF4FE080A7
:104AD00031968081F12CE81AF1082097A9F088E03E
:104AE000E816F10488F4860104C088E0E816F104B1
:104AF00059F0F80181918F0100D168012197FFEFF2
:104B0000EF1AFF0A209789F711E0E8E0EE16F104AA
:104B100009F010E0BAD093CFB8D0C0E0D0E08ECF8B
:104B2000E091492BF0914A2BEF5BFF4FE080F12C95
:104B3000D4CFDF92EF92FF920F931F93CF93DF9327
:104B4000F82EE92E8B0180914D2B8068E6D0C09124
:104B5000472BD091482BC017D10728F0011511051C
:104B600009F486C0E8010F2D1E2DD12C209739F5B0
:104B7000D1100DC02FC0853009F438C02CD181115F
:104B80003EC010D1811126C001D1811141C0809158
:104B9000402B8111F0CF82E0DF91CF911F910F91D7
:104BA000FF90EF90DF900895853001F114D18111CD
:104BB00026C0F8D081110EC0E9D0811129C08091A2
:104BC000402B8111F1CFE7CF8091402B882319F33F
:104BD000853061F0E7D08823B9F380E0DF91CF9191
:104BE0001F910F91FF90EF90DF90089583E0DF9188
:104BF000CF911F910F91FF90EF90DF90089581E08A
:104C0000DF91CF911F910F91FF90EF90DF9008956A
:104C100080914D2B87FD30C08091492B90914A2B7C
:104C2000FC01E05CFF4FE08031968081F12CE81AB6
:104C3000F1082097A1F088E0E816F10428F00FC0F1
:104C400088E0E816F10459F0F801849156D00F5F1E
:104C50001F4F2197FFEFEF1AFF0A209789F7DD24F6
:104C6000D394E8E0EE16F10409F0D12C0ED07ECFFB
:104C70000CD0C0E0D0E077CFE091492BF0914A2BE7
:104C8000EF5BFF4FE080F12CD4CFE0914B2BF09104
:104C90004C2BA091492BB0914A2BAF5BBF4F8C910D
:104CA00090E08283938380818D798083E091492B8A
:104CB000F0914A2BEF5BFF4F10820895E0914B2B50
:104CC000F0914C2B80818D798083E091492BF0917C
:104CD0004A2BEF5BFF4F108208958091492B9091F2
:104CE0004A2BFC01EF5BFF4F208131E0320F308314
:104CF000FC01E20FF11D808108952091492B309134
:104D00004A2BF901EF5BFF4F908141E0490F40834F
:104D1000F901E90FF11D8083089580934D2B282F11
:104D20002F70622F70E094E8299F90011124225B7C
:104D3000344D4091C6045091C70487FD12C02093A2
:104D4000492B30934A2BCB0182959295907F9827DF
:104D5000807F9827840F951F80934B2B90934C2B2B
:104D600008952E5B3F4F2093492B30934A2B629539
:104D70007295707F7627607F7627685F7F4F640F1C
:104D8000751F60934B2B70934C2B089580914D2B86
:104D90008068C3DFE0914B2BF0914C2B808186958E
:104DA0008170089580914D2B8F77B7DFE0914B2B69
:104DB000F0914C2B808185FF0CC02091492B3091C4
:104DC0004A2B82819381F901E05CFF4F808381E06F
:104DD000089580E0089580914D2B8F779EDFE091BC
:104DE0004B2BF0914C2B808184FF0CC02091492BE0
:104DF00030914A2B82819381F901E05CFF4F8083DF
:104E000081E0089580E0089580914D2B8F7785DFB4
:104E1000E0914B2BF0914C2B80818D788083E09139
:104E20004B2BF0914C2B808181608083E091492B4A
:104E3000F0914A2BEF5BFF4F108280914D2B8068E1
:104E40006CDFE0914B2BF0914C2B80818160808353
:104E5000E091492BF0914A2BEF5BFF4F10820895B0
:104E6000E0914B2BF0914C2B818184608183E09108
:104E70004B2BF0914C2B8181807C803409F008957C
:104E800080914D2B805849DFE0914B2BF0914C2BBA
:104E900081818460818308951F93CF93DF9300D035
:104EA000CDB7DEB7182F4A83698337DFE0914B2BEC
:104EB000F0914C2B1182E0914B2BF0914C2B4A81BD
:104EC000698117FD20C01082E0914B2BF0914C2B93
:104ED0006183E0914B2BF0914C2B128213828091D5
:104EE000492B90914A2B8483958340E0FC01E05C40
:104EF000FF4F40833196108281E00F900F90DF9139
:104F0000CF911F91089582E08083E0914B2BF09127
:104F10004C2B6183E0914B2BF0914C2B128213822E
:104F20008091492B90914A2B84839583DFCFCF9238
:104F3000DF92EF92FF920F931F93CF93DF931F9215
:104F4000CDB7DEB7F62E662309F43EC06C0100E053
:104F5000D6011C91112391F1D6011196ED91FC918E
:104F6000129713968C91139714969C91923008F493
:104F700045C098E148E1E930F10550F028E030E023
:104F800090E09F5F220F331F2E173F07D0F3942B23
:104F9000212F2F7030E0263031059CF59F7EE134C3
:104FA000F10578F5882301F18130C9F4906CEE2E7B
:104FB0004E2D692F812F70DF882319F10F5FB5E027
:104FC000CB0ED11C0F11C4CF81E00F90DF91CF9198
:104FD0001F910F91FF90EF90DF90CF900895906810
:104FE000882319F0EE2EE4CF9064EE2E4E2F692F19
:104FF00080E8810F998350DF9981DACF98E048E00B
:10500000BACF80E0E2CFE0ECF4E0A681B781199658
:105010001C92A681B78111961C92A681B7815996E0
:105020001C92A681B78151961C92A681B781999650
:105030001C92A681B78191961C92A681B781D996C0
:105040001C92A681B781D1961C92A681B781A75BDD
:10505000BF4F1C92A681B781AF5BBF4F1C92A68148
:10506000B781A75ABF4F1C920680F781E02DEF5AF7
:10507000FF4F108208958091412B87FF05C00CC01F
:105080008091402B882361F081DE8823C9F3FDCD18
:105090008091402B882321F085DE8823C9F30ECE32
:1050A00008951F93CF93DF93E091C604F091C70456
:1050B000E05AFF4FC081D18114E680914D2B80785A
:1050C000803831F16FDE811126C08091402B88231A
:1050D00039F1853051F1E0914B2BF0914C2B8181CE
:1050E00082FD28C0E091C604F091C704E05AFF4F4A
:1050F00080819181C817D90701F32FEF210F112368
:10510000F1F0EC01122F80914D2B80788038D1F690
:105110003DDE8823D1F280E0DF91CF911F91089589
:1051200082E0DF91CF911F91089583E0DF91CF91CD
:105130001F91089581E0DF91CF911F91089584E040
:10514000DF91CF911F91089562D068D0E0ECF4E038
:1051500081818E7F818380818F77808310923F2B26
:105160000895CF93DF93E0E4F0E0148284818160BE
:1051700084834DD053D0C0ECD4E088818F7788836E
:105180008881806888831092402B10923C2B10926B
:105190003E2B10923D2B88818064888348E068E430
:1051A00080E87ADE48E068E480E076DE8885806426
:1051B0008887898181608983DF91CF9108952FB796
:1051C000F89482E0E0ECF1E08287EAE1F0E0E4913B
:1051D000A0ECB4E0DA96EC93DA97EBE1F0E0E4913E
:1051E000DB96EC93DB97E0ECF1E0128687E69EE23B
:1051F0008E7F16968D939C93179785E18C9382E012
:1052000018968C932FBF81E080933F2BAACFE0ECC0
:10521000F4E080858370808711860895E0ECF4E0E7
:105220008FEF8287848708951F920F920FB60F9297
:1052300011242F933F934F935F936F937F938F939B
:105240009F93AF93BF93EF93FF938091CA0487FD21
:105250004DC08091CA0486FD41C08091CA0485FF7B
:105260000CC080E28093CA0480913C2B882371F1AA
:1052700084E08093402B0E948B118091CA0484FFAC
:1052800014C080E18093CA0482E08093402B109286
:105290003C2B1092C304B7DE48E068E480E8FCDDF4
:1052A00048E068E480E0F8DD35DBFF91EF91BF91E5
:1052B000AF919F918F917F916F915F914F913F91AE
:1052C0002F910F900FBE0F901F9018958091C304DF
:1052D000811115C081E08093402BCDCF80E4809375
:1052E000CA041092402B0E948E11B7CF8091C8043F
:1052F00087FFAFCF80E88093CA040CDBAACF83E09E
:10530000EACFCF93DF93EC01FC0170968BE0DF01D5
:105310001D928A95E9F782E08C83898783E08E87E6
:1053200061E0CE01019603DE811104C080E0DF91CF
:10533000CF91089561E0CE010696F9DD8823B1F39F
:1053400061E0CE010B96DF91CF91F1CDCF93DF934A
:10535000EB012091402B243021F082E0DF91CF91AE
:105360000895FC014489558966897789452B462B28
:10537000472B99F38181D1DCFE0101900020E9F7F0
:10538000BF01615071096C1B7D0B40E050E0CE0104
:10539000DF91CF91D5CAEF92FF920F931F93CF93D6
:1053A000DF93EB017A012091402B243041F082E021
:1053B000DF91CF911F910F91FF90EF900895FC0125
:1053C0000489158926893789012B022B032B79F350
:1053D0008181A3DC40E050E0B701CE01DF91CF91A5
:1053E0001F910F91FF90EF90ABCA0F931F93CF9334
:1053F000DF931F92CDB7DEB72091402B243039F0D8
:1054000082E00F90DF91CF911F910F910895FC01E1
:105410000489158926893789012B022B032B81F3F7
:10542000818169837ADC2091492B30914A2BF901E3
:10543000EF5BFF4F9081319780816981981730F041
:10544000698323DC2EDE69818111DBCF862F55DC59
:1054500080E0D7CFCF93DF932091402B243021F0F1
:1054600082E0DF91CF910895FC01448955896689D6
:105470007789452B462B472B99F381814EDC809110
:105480004D2B2091492B30914A2BF90187FD1BC0F0
:10549000E05CFF4F80813196408190E0841B910950
:1054A000892B11F480E0DDCFF901EF5BFF4FD08154
:1054B0003197C081EADBDC17A8F3F3DD8111D1CF8E
:1054C000E4DB80E0CECFEF5BFF4F808190E0E8CF60
:1054D000CF93DF93EC018091402B843019F0DF9162
:1054E000CF9108954C895D896E897F89452B462B24
:1054F000472BA9F3898111DC49DC882381F3CE0194
:10550000DF91CF91A7CFCF93DF932091402B243011
:10551000A9F5FC014489558966897789452B462B75
:10552000472B61F18681F9DB3DDC882339F18091DD
:105530004D2B4091492B50914A2BFA0187FD3AC0DF
:10554000E05CFF4F80813196208190E0821B9109C1
:10555000892BC9F4CFEFDFEF80914D2BFA0187FD46
:105560001EC0E05CFF4F20813196808130E0281B17
:105570003109D9F0CE01DF91CF9108958FEF9FEFE0
:10558000DF91CF910895A9DBC82FD0E04091492B3E
:1055900050914A2B80914D2BFA0187FFE2CFEF5BB0
:1055A000FF4F208130E0232B29F788DBCE01DF91EC
:1055B000CF910895EF5BFF4F808190E0C9CF0895B0
:1055C000FF920F931F93CF93DF93EC0104DC8823AA
:1055D00049F0888190E02091452B3091462B281787
:1055E000390731F0DF91CF911F910F91FF9008950E
:1055F0008091422B813209F448C0A0F0823209F434
:1056000065C0833279F78091412B813259F7FCDBF9
:1056100032DD6091432BCE01DF91CF911F910F912D
:10562000FF90CDCF8032F1F68091412B8132D1F6BF
:10563000EBDB04C08091402B8823A1F2B3DB8823ED
:10564000C9F34BDB082F49DB182F47DBF82E45DB6E
:105650004F2D50E060E070E0BA0155274427782BC9
:10566000402B512B4C8B5D8B6E8B7F8B36DB888F69
:1056700034DB898F32DB8A8F21DBFDDCCE01DF91C9
:10568000CF911F910F91FF909ACF8091412B813A3A
:1056900009F0A8CFB9DB7ADB8823E9F38C89FD8890
:1056A0000E891F892ADB8F2D28DB802F26DB812F97
:1056B00024DB888D22DB898D20DB8A8D1EDBE5DAF9
:1056C000DF91CF911F910F91FF90D5CC8091412B0D
:1056D000813209F087CF98DBCEDC8091432B90910B
:1056E000442B888B998BCE01DF91CF911F910F9125
:1056F000FF9065CFEE0FFF1F0590F491E02D099408
:10570000B7FF04C003D0821B930B089509D0A59F57
:10571000900DB49F900DA49F800D911D11240895AC
:10572000A29FB001B39FC001A39F700D811D1124E2
:10573000911DB29F700D811D1124911D08958F92AE
:105740009F92AF92BF92CF92DF92EF92FF92CF9350
:10575000DF93EC01688179818A819B8161157105F4
:105760008105910521F464E279ED8BE597E02DE167
:1057700033EF41E050E048D349015A019B01AC01AD
:10578000A7EAB1E4C3DF6B017C01ACEEB4EFA50185
:105790009401B8DFC60ED71EE81EF91EF7FE06C03C
:1057A00081E0C81AD108E10880E8F80AC882D982E5
:1057B000EA82FB82C6019F77DF91CF91FF90EF9045
:1057C000DF90CF90BF90AF909F908F900895B7CF0C
:1057D0008CE190E2B4CFA0E0B0E080931C209093E5
:1057E0001D20A0931E20B0931F200895FB01DC0113
:1057F00002C005900D9241505040D8F70895FB012A
:10580000DC018D91059080190110D9F3990B089551
:10581000FB01DC010D900020E9F711974150504049
:1058200028F0059000200D92C9F708951C92089564
:10583000FB01DC014150504048F005900D920020E2
:10584000C9F701C01D9241505040E0F70895FB0197
:10585000DC0102C001900D9241505040D8F70895EC
:10586000DC0101C06D9341505040E0F70895AEE077
:10587000B0E0ECE3FCE2F2C20D891E898F89988DBD
:105880002EE02C8309831A8397FF02C080E090E802
:1058900001978D839E83AE01455E5F4F698D7A8D42
:1058A000CE01019611D04D815E8157FD0AC02F8136
:1058B0003885421753070CF49A01F801E20FF31FE1
:1058C00010822E96E4E0E3C2ACE0B0E0E9E6FCE250
:1058D000B7C27C016B018A01FC01168217828381A9
:1058E00081FFB0C1CE0101964C01F7019381F60111
:1058F00093FD859193FF81916F01882309F49EC1E7
:10590000853239F493FD859193FF81916F01853242
:1059100021F4B70190E0E8D1E8CF512C312C20E000
:105920002032A0F48B3269F030F4803259F08332A7
:1059300069F420612CC08D3239F0803339F4216054
:1059400026C02260246023C0286021C027FD27C014
:1059500030ED380F3A3078F426FF06C0FAE05F9E4B
:10596000300D1124532E13C08AE0389E300D1124BF
:10597000332E20620CC08E3221F426FD5FC12064DC
:1059800006C08C3611F4206802C0883641F4F60156
:1059900093FD859193FF81916F018111C1CF982F64
:1059A0009F7D9554933028F40C5F1F4FFFE3F983DC
:1059B0000DC0833631F0833771F0833509F057C05D
:1059C00021C0F801808189830E5F1F4F44244394D6
:1059D000512C540114C03801F2E06F0E711CF80113
:1059E000A080B18026FF03C0652D70E002C06FEF7C
:1059F0007FEFC5012C876DD12C0183012C852F777A
:105A0000222E16C03801F2E06F0E711CF801A08042
:105A1000B18026FF03C0652D70E002C06FEF7FEFFD
:105A2000C5012C874BD12C012C852068222E8301A7
:105A300023FC19C0832D90E048165906A0F4B70145
:105A400080E290E051D13A94F5CFF50127FC8591A1
:105A500027FE81915F01B70190E046D131103A9461
:105A6000F1E04F1A51084114510479F7DEC0843631
:105A700011F0893631F5F80127FF07C06081718187
:105A8000828193810C5F1F4F08C0608171818827DC
:105A900077FD8095982F0E5F1F4F2F76B22E97FFC0
:105AA00009C090958095709561957F4F8F4F9F4F5E
:105AB0002068B22E2AE030E0A40148D1A82EA81810
:105AC00043C0853729F42F7EB22E2AE030E025C06E
:105AD000F22FF97FBF2E8F36C1F018F4883579F098
