:100000000C94450D0C946A0D0C946A0D0C946A0DB9
:100010000C946A0D0C946A0D0C946A0D0C946A0D84
:100020000C946A0D0C946A0D0C9447100C946A0D94
:100030000C946A0D0C946A0D0C946A0D0C946A0D64
:100040000C946A0D0C946A0D0C946A0D0C946A0D54
:100050000C946A0D0C946A0D0C946A0D0C946A0D44
:100060000C946A0D0C946A0D0C946A0D0C946A0D34
:100070000C946A0D0C946A0D0C946A0D0C946A0D24
:100080000C946A0D0C946A0D0C946B0D0C94D9327F
:100090000C946A0D0C946A0D0C946A0D0C946A0D04
:1000A0000C946A0D0C946A0D0C946A0D0C946A0DF4
:1000B0000C946A0D0C946A0D0C946A0D0C94572ADA
:1000C0000C946A0D0C94ED2D0C947F0D0C946A0D1C
:1000D0000C946A0D0C946A0D0C946A0D0C946A0DC4
:1000E0000C946A0D0C946A0D0C946A0D0C946A0DB4
:1000F0000C946A0D0C946A0D0C946A0D0C946A0DA4
:100100000C946A0D0C946A0D0C946A0D0C946A0D93
:100110000C9424340C94C82D0C946A0D0C946A0D24
:100120000C946A0D0C946A0D0C946A0D0C946A0D73
:100130000C946A0D0C946A0D0C946A0D0C94BF29F2
:100140000C94C10D0C94750D0C9407330C946A0D2E
:100150000C946A0D0C943F2D0C944B340C946A0D46
:100160000C946A0D0C946A0D0C946A0D0C946A0D33
:100170000C946A0D0C946A0D0C946A0D0C946A0D23
:100180000C946A0D0C946A0D0C946A0D0C946A0D13
:100190000C946A0D0C946A0D0C946A0D0C946A0D03
:1001A0000C946A0D0C946A0D0C946A0D0C946A0DF3
:1001B0000C946A0D0C946A0D0C946A0D0C946A0DE3
:1001C0000C946A0D0C946A0D0C946A0D0C946A0DD3
:1001D0000C946A0D0C946A0D0C946A0D0C946A0DC3
:1001E0000C946A0D0C946A0D0C946A0D0C946A0DB3
:1001F0000C946A0D0C94ED730C946A0D1E0343006D
:10020000680061006D0065006C0065006F006E00A5
:100210002D004D0069006E00690000002A034B00AC
:10022000610073007000650072002000260020004D
:100230004F007300770061006C00640020004700ED
:100240006D006200480000000403090409023E003A
:10025000020100C03209040000010202010005246D
:10026000001001042402060524060001070582038C
:100270000800FF09040100020A000000070504024B
:10028000100005070583021000051201100102008D
:100290000008D016B20401000102DC01F110F210D6
:1002A000F310F410F510F610F710F810FB10FC1016
:1002B0000000000100182B992BB82BB337CF37D98A
:1002C00037F710DA37EB3BFE3B4000070001182BF5
:1002D000992BB82B3D37D337D937F710DA37EB3BAB
:1002E000FE3BC000070001182B992BB82BC737CF56
:1002F00037D937F710DA37EB3BFE3B5000070001E8
:10030000182B992BB82BCB37CF37D937F710DA37D3
:10031000EB3BFE3BA400070001182B992BB82B3EAA
:100320003C893C8D3CF7108E3C8543A14340010441
:100330000001182B992BB82B4D3C893C8D3CF710B4
:100340008E3C8543A1430004040001182B992BB86F
:100350002B5C3C893C8D3CF7108E3C8543A14300CF
:1003600004070001182B992BB82B6B3C893C8D3C62
:10037000F7108E3C8543A1430010040001182B990F
:100380002BB82B7A3C893C8D3CF7108E3C8543A1E1
:100390004300100700010535C435E535D35AE15A4D
:1003A000E65AE75AE95AFB10FC10000000010093DE
:1003B0002C1B2D892ECF52D252DF52E0529155FB89
:1003C00010FC100000000000182B992BB82B245CA7
:1003D000485C4C5CF7104D5CD15EE45E1C0207008B
:1003E00000DA61656298624E6351635463556356E7
:1003F0006328642F640020080005DA616562986252
:10040000F410F510F610F710F810FB10FC100000B7
:10041000000100DA6165629862366439643C643DCB
:10042000643E6425662C660020080005DA6165627A
:1004300098628567A6673366346635667767BE67F8
:100440002C00080005DA6165629862F06810693076
:10045000693169C06DCC6ED36ED000080005004EC6
:100460004F4E4500000000000000000000000000AA
:10047000000000000000000000000000000000017B
:100480004D465F554C5452414C494748540000007A
:10049000000000000000000000000000000000005C
:1004A000034D465F554C5452414C494748545F45B3
:1004B00056315F38304200000000000000000000AC
:1004C00000044D465F554C5452414C494748545FD7
:1004D0004556315F31363442000000000000000014
:1004E0000000024D465F554C5452414C4947485418
:1004F0005F4300000000000000000000000000005A
:10050000000000054D465F434C41535349435F4D46
:10051000494E495F34420000000000000000000026
:1005200000000000064D465F434C41535349435F72
:10053000314B00000000000000000000000000003F
:100540000000000000074D465F434C4153534943B0
:100550005F314B5F374200000000000000000000E8
:10056000000000000000084D465F434C41535349D2
:10057000435F344B0000000000000000000000005A
:1005800000000000000000094D465F434C415353FA
:1005900049435F344B5F3742000000000000000019
:1005A00000000000000000000A49534F3134343489
:1005B00033415F534E4946460000000000000000F2
:1005C0000000000000000000000B49534F3134349C
:1005D0003433415F52454144455200000000000061
:1005E000000000000000000000000C4E54414732A3
:1005F0003135000000000000000000000000000095
:1006000000000000000000000000000D56494349B2
:100610004E49545900000000000000000000000096
:100620000000000000000000000000000E49534FD1
:1006300031353639335F534E4946460000000000DD
:10064000000000000000000000000000000F534CFC
:100650003253323030320000000000000000000051
:100660000000000000000000000000000000105426
:100670004954414749545354414E44415244000067
:100680000000000000000000000000000000001159
:10069000454D3432333300000000000000000000FC
:1006A000000000000000000000000000000000004A
:1006B0000100000100010100000101000100000132
:1006C0000001010001000001010000010001010022
:1006D0000001010001000001010000010001010012
:1006E0000100000100010100000101000100000102
:1006F00000010100010000010100000100010100F2
:1007000001000001000101000001010001000001E1
:1007100001000001000101000001010001000001D1
:1007200000010100010000010100000100010100C1
:1007300000010100010000010100000100010100B1
:1007400001000001000101000001010001000001A1
:100750000100000100010100000101000100000191
:100760000001010001000001010000010001010081
:100770000100000100010100000101000100000171
:100780000001010001000001010000010001010061
:100790000001010001000001010000010001010051
:1007A0000100000100010100000101000100000141
:1007B000008040C020A060E0109050D030B070F0B9
:1007C000088848C828A868E8189858D838B878F829
:1007D000048444C424A464E4149454D434B474F459
:1007E0000C8C4CCC2CAC6CEC1C9C5CDC3CBC7CFCC9
:1007F000028242C222A262E2129252D232B272F259
:100800000A8A4ACA2AAA6AEA1A9A5ADA3ABA7AFAC8
:10081000068646C626A666E6169656D636B676F6F8
:100820000E8E4ECE2EAE6EEE1E9E5EDE3EBE7EFE68
:10083000018141C121A161E1119151D131B171F128
:10084000098949C929A969E9199959D939B979F998
:10085000058545C525A565E5159555D535B575F5C8
:100860000D8D4DCD2DAD6DED1D9D5DDD3DBD7DFD38
:10087000038343C323A363E3139353D333B373F3C8
:100880000B8B4BCB2BAB6BEB1B9B5BDB3BBB7BFB38
:10089000078747C727A767E7179757D737B777F768
:1008A0000F8F4FCF2FAF6FEF1F9F5FDF3FBF7FFFD8
:1008B000004E4F4E45000000000000000000000008
:1008C0000000000000000000000000000000000028
:1008D00000015549445F52414E444F4D0000000015
:1008E0000000000000000000000000000000000008
:1008F0000000025549445F4C4546545F494E4352FF
:10090000454D454E5400000000000000000000006E
:10091000000000035549445F52494748545F494E1F
:100920004352454D454E54000000000000000000B9
:1009300000000000045549445F4C4546545F44455F
:100940004352454D454E5400000000000000000099
:100950000000000000055549445F52494748545F74
:1009600044454352454D454E5400000000000000F0
:10097000000000000000064359434C455F534554B6
:1009800054494E47530000000000000000000000E2
:10099000000000000000000753544F52455F4D45D2
:1009A0004D000000000000000000000000000000FA
:1009B000000000000000000008524543414C4C5F1D
:1009C0004D454D0000000000000000000000000048
:1009D00000000000000000000009544F47474C454C
:1009E0005F4649454C440000000000000000000044
:1009F000000000000000000000000A53544F524560
:100A00005F4C4F47000000000000000000000000A5
:100A100000000000000000000000000B434C4F4E9F
:100A20004500000000000000000000000000000081
:100A30000000000000000000000000000C434C4FCC
:100A40004E455F4D465500000000000000000000CC
:100A500000000000000000000000000000004F4601
:100A60004600000000000000000000000000000040
:100A70000000000000000000000000000000014D28
:100A8000454D4F52590000000000000000000000DA
:100A90000000000000000000000000000000000254
:100AA0004C49564500000000000000000000000016
:100AB0000000000000000000000000000000000036
:100AC000004E4F4E450000000000000000000000F6
:100AD0000000000000000000000000000000000016
:100AE0000001504F574552454400000000000000EF
:100AF00000000000000000000000000000000000F6
:100B00000000025445524D494E414C5F434F4E4EFA
:100B100000000000000000000000000000000000D5
:100B2000000000035445524D494E414C5F52585409
:100B3000580000000000000000000000000000005D
:100B4000000000000453455454494E475F43484158
:100B50004E474500000000000000000000000000BB
:100B60000000000000054D454D4F52595F53544F52
:100B7000524544000000000000000000000000009A
:100B8000000000000000064D454D4F52595F43489C
:100B9000414E4745440000000000000000000000F6
:100BA0000000000000000008434F4445435F5258D6
:100BB0000000000000000000000000000000000035
:100BC000000000000000000009434F4445435F540B
:100BD00058000000000000000000000000000000BD
:100BE000000000000000000000074649454C445F3B
:100BF00044455445435445440000000000000000B3
:100C0000000000000000000000000A4C4F474D4566
:100C10004D5F46554C4C00000000000000000000F5
:100C20000000000000000000000000004E4F4E4594
:100C300000000000000000000000000000000000B4
:100C4000000000000000000000000000014F4E0006
:100C50000000000000000000000000000000000094
:100C600000000000000000000000000000024F46ED
:100C7000460000000000000000000000000000002E
:100C80000000000000000000000000000000033130
:100C90000000000000000000000000000000000054
:100CA0000000000000000000000000000000000440
:100CB0003200000000000000000000000000000002
:100CC0000000000000000000000000000000000024
:100CD00005330000000000000000000000000000DC
:100CE0000000000000000000000000000000000004
:100CF00000063400000000000000000000000000BA
:100D000000000000000000000000000000000000E3
:100D10000000073500000000000000000000000097
:100D200000000000000000000000000000000000C3
:100D300000000025632C25630025356400416E7991
:100D400020696E74656765722066726F6D20302051
:100D5000746F2025752E205265666572656E636519
:100D600020766F6C746167652077696C6C206265B2
:100D70002028564343202A205448524553484F4C7C
:100D800044202F203430393529206D562E0025750A
:100D9000002535640030203D206E6F2074696D653C
:100DA0006F75740D0A312D363030203D20313030D2
:100DB000206D73202D203630303030206D7320743C
:100DC000696D656F7574002575206D730025342E6F
:100DD000345800253575206D56002575202866721B
:100DE0006F6D207768696368202575206E6F6E2DA2
:100DF000766F6C6174696C65290025750025750036
:100E000025632C25630052414E444F4D004E4F2028
:100E10005549442E004368616D656C656F6E4D6980
:100E20006E692052657647202553207573696E6779
:100E3000204C55464120255320636F6D70696C65C9
:100E4000642077697468204156522D47434320251A
:100E5000532E204261736564206F6E207468652094
:100E60006F70656E2D736F75726365204E464320FB
:100E7000746F6F6C204368616D656C656F6E4D6952
:100E80006E692E2068747470733A2F2F67697468C6
:100E900075622E636F6D2F656D7365632F43686197
:100EA0006D656C656F6E4D696E6920636F6D6D6900
:100EB0007420255300323030393238003135313129
:100EC000313500342E392E32003036376231383821
:100ED000000D0A000D0A000D0A000D0A000D0A009F
:100EE0000D0A00643130303A4F4B00000000000022
:100EF00000000000000000000000000000000000F2
:100F000000000000653130313A4F4B2057495448BA
:100F1000205445585400000000000000000000006C
:100F200000000000006E3131303A57414954494EBB
:100F30004720464F5220584D4F44454D0000000079
:100F4000000000000000C83230303A554E4B4E4F82
:100F5000574E20434F4D4D414E44000000000000CD
:100F600000000000000000C93230313A494E5641BD
:100F70004C494420434F4D4D414E44205553414729
:100F80004500000000000000CA3230323A494E5697
:100F9000414C494420504152414D45544552000076
:100FA000000000000000000000783132303A464175
:100FB0004C5345000000000000000000000000004D
:100FC00000000000000000000000793132313A5486
:100FD0005255450000000000000000000000000025
:100FE0000000000000000000000000CB3230333A67
:100FF00054494D454F5554000000000000000000CA
:1010000000000000000000000000000056455253A0
:10101000494F4E00000000000000000000000000EA
:101020000000F81E434F4E464947000000000000F4
:101030000000000000000000201F1A1F5549440056
:1010400000000000000000000000000000000000A0
:10105000811F421F524541444F4E4C590000000031
:101060000000000000000000E61FDA1F55504C4F42
:1010700041440000000000000000000013200000B8
:1010800000000000444F574E4C4F41440000000008
:1010900000000000182000000000000052455345E9
:1010A0005400000000000000000000001D200000AF
:1010B0000000000055504752414445000000000028
:1010C0000000000028200000000000004D454D53A6
:1010D000495A450000000000000000000000000028
:1010E0000000332055494453495A45000000000090
:1010F000000000000000000000004B205242555448
:10110000544F4E00000000000000000000000000EE
:101110006920612052425554544F4E5F4C4F4E4708
:101120000000000000000000882080204C42555440
:10113000544F4E00000000000000000000000000BE
:10114000A7209F204C425554544F4E5F4C4F4E4762
:101150000000000000000000C620BE204C454447AF
:101160005245454E00000000000000000000000055
:10117000E420DD204C4544524544000000000000BE
:1011800000000000000000000021F92050494E003E
:10119000000000000000000000000000000000004F
:1011A0001A2115214C4F474D4F44450000000000C7
:1011B000000000000000000033212E214C4F474D5D
:1011C000454D00000000000000000000000000008D
:1011D000000048214C4F47444F574E4C4F4144006C
:1011E000000000006D210000000000004C4F47533C
:1011F000544F524500000000000000007221000022
:10120000000000004C4F47434C4541520000000095
:1012100000000000752100000000000053455454F8
:10122000494E4700000000000000000000000000E0
:101230007E217921434C454152000000000000000E
:1012400000000000862100000000000053544F52AF
:101250004500000000000000000000008A2100009E
:1012600000000000524543414C4C000000000000CB
:10127000000000008E2100000000000043484152A1
:1012800047494E4700000000000000000000000039
:101290000000922148454C50000000000000000072
:1012A000000000009A210000000000005253534942
:1012B000000000000000000000000000000000002E
:1012C0000000D6215359535449434B0000000000FD
:1012D00000000000000000000000092253454E44B9
:1012E0005F52415700000000000000000000AF22E4
:1012F0000000000053454E440000000000000000C4
:101300000000000000002522000000004745545561
:10131000494400000000000000000000822300009B
:101320000000000044554D505F4D46550000000040
:10133000000000004E23000000000000434C4F4E10
:10134000455F4D4655000000000000006B23000083
:10135000000000004944454E544946590000000031
:10136000000000009F2300000000000054494D458C
:101370004F55540000000000000000000000000075
:10138000DC23BC235448524553484F4C44000000D2
:10139000000000000000000049242F244155544F54
:1013A00043414C494252415445000000D8240000BA
:1013B000000000004649454C4400000000000000C9
:1013C00000000000000000009E24C824434C4F4E43
:1013D000450000000000000000000000042500009F
:1013E00000000000000000000000000000000000FD
:1013F00000000000000000000000000053414B3AD4
:1014000009005549443A0900415451413A090054F0
:1014100068657265206973206174206C65617374FE
:10142000206F6E65206D6F72652063617264207439
:101430007970652063616E6469646174652C2062F3
:10144000757420746865726520776173206E6F749F
:1014500020656E6F756768207465726D696E616C6A
:10146000206275666665722073706163652E0D0A71
:10147000000D0A0004000109010000000000000046
:1014800000000000000000000000004E5850000066
:1014900000000000000000000000004D49464152DD
:1014A00045204D696E69000000000000000000004A
:1014B000000000000000000000000000000000002C
:1014C000000000000000000000000000000000001C
:1014D00000000000000000000000000400010801FE
:1014E00000000000000000000000000000000000FC
:1014F00000004E58500000000000000000000000F6
:1015000000004D494641524520436C617373696345
:1015100020316B000000000000000000000000000F
:1015200000000000000000000000000000000000BB
:1015300000000000000000000000000000000000AB
:10154000000002000118010000000000000000007F
:101550000000000000000000004E58500000000095
:101560000000000000000000004D494641524520A7
:10157000436C617373696320346B000000000000EA
:10158000000000000000000000000000000000005B
:10159000000000000000000000000000000000004B
:1015A00000000000000000000044000100010000F5
:1015B000000000000000000000000000000000002B
:1015C0004E58500000000000000000000000000025
:1015D0004D494641524520556C7472616C6967688B
:1015E0007400000000000000000000000000000087
:1015F00000000000000000000000000000000000EB
:1016000000000000000000000000000000000000DA
:101610004403012001757781028000000000000072
:10162000000000000005004E5850000000000000BF
:10163000000000000000004D49464152452044454D
:1016400053466972650000000000000000000000C1
:10165000000000000000000000000000000000008A
:10166000000000000000000000000000000000007A
:101670000000000000000044030120017577810292
:1016800080000000000000000000000005004E582F
:1016900050000000000000000000000000004D4964
:1016A00046415245204445534669726520455631AE
:1016B000000000000000000000000000000000002A
:1016C000000000000000000000000000000000001A
:1016D0000000000000000000000000000000040303
:1016E0000128013877B14A434F50333100000000E0
:1016F000000000090149424D000000000000000008
:1017000000000000004A434F503331000000000049
:1017100000000000000000000000000000000000C9
:1017200000000000000000000000000000000000B9
:1017300000000000000000000000000000000000A9
:10174000000000000048000120017877B1024A4300
:101750004F5076323431000000000C0149424D00F8
:101760000000000000000000000000004A434F504D
:1017700033312076322E342E31000000000000007C
:101780000000000000000000000000000000000059
:101790000000000000000000000000000000000049
:1017A00000000000000000000000000048000120D0
:1017B000013833B14A434F503431563232000000C1
:1017C000000C0149424D0000000000000000000034
:1017D0000000004A434F5034312076322E32000050
:1017E00000000000000000000000000000000000F9
:1017F00000000000000000000000000000000000E9
:1018000000000000000000000000000000000000D8
:1018100000000004000128013833B14A434F50341E
:1018200031563233310000000D0149424D000000B5
:10183000000000000000000000004A434F50343117
:101840002076322E332E3100000000000000000010
:101850000000000000000000000000000000000088
:101860000000000000000000000000000000000078
:1018700000000000000000000000040001880100DA
:101880000000000000000000000000000000000058
:1018900000496E66696E656F6E0000000000000012
:1018A000004D494641524520436C61737369632082
:1018B000316B00000000000000000000000000008C
:1018C0000000000000000000000000000000000018
:1018D0000000000000000000000000000000000008
:1018E000000200019801000000000000000000005C
:1018F000000000000000000047656D706C7573000B
:1019000000000000000000004D50434F5300000055
:1019100000000000000000000000000000000000C7
:1019200000000000000000000000000000000000B7
:1019300000000000000000000000000000000000A7
:101940000000000000000000000C0100000000008A
:10195000000000000000000000000000000000493E
:101960006E6E6F766973696F6E2052265400004A5E
:101970006577656C000000000000000000000000BA
:101980000000000000000000000000000000000057
:101990000000000000000000000000000000000047
:1019A0000000000000000000000000000000000235
:1019B00000013801000000000000000000000000ED
:1019C0000000000000004E6F6B6961000000000025
:1019D0000000000000004D494641524520436C6123
:1019E0007373696320346B202D20656D756C617491
:1019F000656420283632313220436C617373696329
:101A000029000000000000000000000000000000AD
:101A10000000000000000800013801000000000084
:101A2000000000000000000000000000004E6F6B8E
:101A3000696100000000000000000000004D494600
:101A400041524520436C617373696320346B202DD0
:101A500020656D756C6174656420283631333120E2
:101A60004E46432900000000000000000000000076
:101A70000000000000000000000000000063646936
:101A80006E6F70737578585B000011241FBECFEF26
:101A9000CDBFDFE3DEBF00E00CBF18BE19BE1ABE2B
:101AA0001BBE14E2A0E0B0E2EAE6FEEF00E00BBFEE
:101AB00002C007900D92A63BB107D9F71BBE27E3E2
:101AC000A6EBB4E201C01D92AA35B207E1F7DDD161
:101AD0000C94337FD3C2EF93FF93E091DC26F09117
:101AE000DD260995FF91EF911895EF93FF93E09113
:101AF000DE26F091DF260995FF91EF911895EF937F
:101B0000FF93E091E026F091E1260995FF91EF9196
:101B100018953BB78BBFFB01879196913BBF08950A
:101B20003BB78BBFCB0142E20D94F00F3BB70B01EB
:101B300043E20D94F00F3BB78BBFCB0145E20D9410
:101B4000F00F3BB746E208C02091CF0127FDFCCF44
:101B500022272093CA0108954093CA0128ED31E05D
:101B6000209334003093CB016091C4017091C50182
:101B70008091C60199270895FC014093CA01849180
:101B800008950F9200240F932F933F934F935F93E9
:101B90000FB70F93EF93FF93EAB1FBB15191442735
:101BA00035B124B1569578F400928C080092000863
:101BB00006E10A95F1F700C001E00093000803E098
:101BC00000938C0804C00AE10A95F1F70000215047
:101BD000304019F40E942D2D0CC04F5F477011F456
:101BE000519102C000C000C00AE00A95F1F700C0A0
:101BF000D9CFFF91EF910F910FBF5F914F913F911F
:101C00002F910F910F901895F190E190D190C19084
:101C1000B190A190919081900B941B942B943B9444
:101C20004B945B946B947B948B949B94AB94BB94FC
:101C3000CB94DB94EB94FB940895F801D894E4DF03
:101C40005894E2DFD894E0CFF801D894DDDF5894BF
:101C5000DBDFF801D894D8CFF801D894D5CFF801BC
:101C60005894D2CFF80170965894CEDFF801389688
:101C7000D894CADFF8015894C7CFF8015894C4DF4C
:101C8000D894C2DFF8015894BFCFFF90EF90DF9057
:101C9000CF90BF90AF909F908F907F906F905F900C
:101CA0004F903F902F90112408952F923F924F9282
:101CB0005F926F927F928F929F92AF92BF92CF92DC
:101CC000DF92EF92FF920F931F93FB01719061904F
:101CD0005190419031902190119001908A01CDDF77
:101CE000FC01719261925192419231922192119232
:101CF00001921F910F91C9CF2F923F924F925F9205
:101D00006F927F928F929F92AF92BF92CF92DF920B
:101D1000EF92FF920F931F93FC017190619051908D
:101D2000419031902190119001908A018DDFFB014B
:101D3000719261925192419231922192119201924B
:101D40001F910F91A2CF2F923F924F925F926F926D
:101D50007F928F929F92AF92BF92CF92DF92EF923B
:101D6000FF92CF93DF93EB01DA01BF01F90171908C
:101D70006190519041903190219011900190F99093
:101D8000E990D990C990B990A990999089907F24B1
:101D90006E245D244C243B242A2419240824FB01AE
:101DA00009957D926D925D924D923D922D921D927C
:101DB0000D92019721F7D9017D926D925D924D921E
:101DC0003D922D921D920D92DF91CF915ECF2F9279
:101DD0003F924F925F926F927F928F929F92AF92BB
:101DE000BF92CF92DF92EF92FF92CF93DF93EB01FE
:101DF000DA01BF01788069805A804B803C802D8059
:101E00001E800F80FB010995F901F190E190D190BE
:101E1000C190B190A190919081907F246E245D2417
:101E20004C243B242A2419240824F990E990D990C1
:101E3000C990B990A99099908990F901F192E19295
:101E4000D192C192B192A192919281927D926D9222
:101E50005D924D923D922D921D920D92019751F6F9
:101E6000DF91CF9112CFFEE0E4E26DCFFEE0E4E23D
:101E7000AECFFEE0EDE367CFFEE0EDE3A8CFFEE0FE
:101E8000EDE161CFFEE0E2E3A2CF1AD10E94C51BD3
:101E90000E94631C0E94481DCCD21092520684E01E
:101EA0008093420682E680938601C1E0C0932606B5
:101EB000C093210686E080932206C093310612E08B
:101EC0001093320610922A0610922B068FE0809310
:101ED000290689E5809380019AE59093810180939A
:101EE000820180E480934106809346069091B2007F
:101EF000907F9093B2009091B20092609093B20064
:101F000090E3909341069093460680935006C093C9
:101F100046061093450603E00093410683E1809353
:101F2000010821E030E02093260830932708209311
:101F300028083093290810928C088093800810920A
:101F4000230310922103D8E0D093220381E18093F0
:101F50002003E091E330F091E43082859385809313
:101F60003803909339038CE380938203D0938003EA
:101F700080938303D093810372D10E945B1EC3D1EF
:101F800058D7C093000210920102109302020093EE
:101F90000402C0932002D09321020E94C5191CD1D3
:101FA000D2E0C1E18091030481FF27C08091010448
:101FB00080FDFCCFD09303040E94671C0E94491D42
:101FC000B7D10E948E1E3DD7E091CF28F091D02846
:101FD00019950E94551B0E94F4270E94F81DE0915C
:101FE000E330F091E4308781813011F4C093C12453
:101FF0008681813011F4C093C024E091CD28F09106
:10200000CE281995E091C728F091C82819950E940B
:10201000C6180E945F1EC6CF292F332722303105F4
:1020200059F02330310569F021303105F9F482E1AE
:1020300090E02AE832E01EC08EE390E02CE432E02B
:1020400019C099278130910541F08230910541F006
:10205000892B61F4E8E4F2E005C0ECE1F2E002C0B3
:10206000ECEFF1E0849190E09F0104C080E090E00B
:1020700020E030E0FA012083318308951F920F920F
:102080000FB60F92112408B60F9218BEFFCF1F9201
:102090000F920FB60F92112408B60F9218BE8F93AD
:1020A0009F938EB19FB180589F4F8EB99FB99F91DA
:1020B0008F910F9008BE0F900FBE0F901F90189534
:1020C0008091780083FF0AC088E08093780088EDD3
:1020D00084BF81E0809380000D94FE008BEC8093A0
:1020E0005200809150008860809350008091510090
:1020F00083FFFCCF82EC809355008091500080617B
:10210000809350008091510084FFFCCF88ED84BF04
:1021100084E0809340001EB81FB881E080934300A4
:102120002FE730E020930A0430930B0420930C0433
:1021300030930D04809300048093020480E8809320
:102140000001089588ED84BF81E0809379000895AF
:1021500088ED84BF8BE180938000089580915000CA
:102160008260809350008091510081FFFCCF82E01B
:102170008093CA01EDE1F0E0E491E0936200ECE1CC
:10218000F0E0E491E09363001092CA0180E880934C
:1021900065008BEB8093660080915600897F809369
:1021A00056008091560084608093560080916000B4
:1021B0008160809360000895E0E4F0E084818E7F88
:1021C0008483E0E6F0E080818E7F8083E0E5F0E0CC
:1021D00080818D7F8083089587E08093A20078942A
:1021E0000895089508950895089508950895089507
:1021F00080E090E00895089508950F931F93CF9382
:10220000DF931F92CDB7DEB703EC18E2D801129628
:10221000ED91FC911397898319950E942C28E091E8
:10222000E330F091E43089818583B9E18B9FB0017F
:10223000112464567D4F49E150E0C8010E940B789B
:10224000D801ED91FC911995D8011696ED91FC916C
:1022500017970F90DF91CF911F910F91199449E13A
:1022600050E06CE972E083EC98E20E940B78E09118
:10227000E330F091E4308581C0CF0F931F93E0915C
:10228000E330F091E4308B019C01458162E18EE501
:1022900094E00E94951D1F910F910895FF920F9356
:1022A0001F93CF93DF931F92CDB7DEB78C019E01B2
:1022B0002F5F3F4FAC0162E18EE594E00E94AD1DBF
:1022C000F82E882389F0898198DFF80140E0819118
:1022D000882319F04F5F4F31D1F7E091E030F09152
:1022E000E130B80181E119958F2D0F90DF91CF91E9
:1022F0001F910F91FF9008959B01AC0162E18EE563
:1023000094E00C94D41D08950C94FD7708951F93C8
:10231000CF93DF93C82FD92F162F180F1C1721F03A
:102320000E94FD778993FACFDF91CF911F91089595
:102330000E94FD770E94FD770E94FD770C94FD7747
:10234000EF92FF920F931F93CF93DF937C01615025
:102350007109FA018A01020F131FDC0140E050E00D
:10236000E017F107F1F062307105D8F09191392F43
:1023700032953F703A3010F4305D01C0395C3C93C7
:102380009F709A3010F4905D01C0995C9701240F02
:10239000351FE90199831296625071094E5F5F4FB4
:1023A000DFCF1C92CA01DF91CF911F910F91FF9057
:1023B000EF900895CF93DF93EC01DA01E0E0F0E0D5
:1023C0004C91442391F111969C911197992339F1E5
:1023D000E617F70721F180ED840F8A3020F08FEBAC
:1023E000840F8630D0F480ED890F8A3020F02FEBF7
:1023F000290F263090F4242F30E0413410F0275379
:1024000031092295207F913410F4982F01C0975301
:10241000292B299331961296D3CF80E004C01196D0
:102420008C91811102C090E001C0CF01DF91CF916A
:102430000895E0E6F6E080E1858382E0868388E027
:1024400085838AE18183E0EAF9E01682178280ECD5
:10245000858388E18483E0E0F1E0128A8BE6838B58
:10246000148A158A20EA208F99E0918F128E148E9B
:10247000158E168E84E0808B12A23CE633A314A244
:1024800015A210A611A612A624A795A716A680A38A
:1024900008954115510509F449C020E120936606CD
:1024A00023E02093A0092091A10927FFFCCF2091D0
:1024B000A0097093A0092091A10927FFFCCF2091CA
:1024C000A0096093A0092091A10927FFFCCF2091CA
:1024D000A00921E02093120180931C0190931D011B
:1024E00040931401509315011092220186EB94E25F
:1024F0008093280190932901409324015093250152
:102500008091100180688093100180912001806883
:10251000809320018091100187FDFCCF80E38093A0
:1025200011018093210180E1809365060895411592
:10253000510509F469C020E12093660626E0209346
:10254000A0092091A10927FFFCCF2091A00920E13B
:1025500020936506000000002093660622E0209389
:10256000A0092091A10927FFFCCF2091A009709319
:10257000A0092091A10927FFFCCF2091A009609319
:10258000A0092091A10927FFFCCF2091A00910925A
:10259000120126EB34E220931C0130931D0140937D
:1025A00014015093150120E120932201809328010A
:1025B00090932901409324015093250180911001AB
:1025C00080688093100180912001806880932001B1
:1025D0008091100187FDFCCF80E3809311018093EF
:1025E000210180E180936506E091E330F091E430D1
:1025F0008781863019F481E18093C12486818630F9
:1026000019F481E18093C0240895CF92DF92EF9274
:10261000FF92CF93DF93C090E230D12CE12CF12CCC
:102620008DE0CC0CDD1CEE1CFF1C8A95D1F7C1148B
:10263000D10481E0E806F10408F04EC080E1809307
:10264000660686E08093A0098091A10987FFFCCFF0
:102650008091A00980E180936506000000008093CE
:10266000660682E08093A0098091A10987FFFCCFD4
:102670008091A0091092A0098091A10987FFFCCF49
:102680008091A0091092A0098091A10987FFFCCF39
:102690008FEFE81AF80A8091A009C0E0D0E1C701E5
:1026A000B60137DA8093A0098091A10987FFFCCF9A
:1026B0008091A0099093A0098091A10987FFFCCF88
:1026C0008091A00982E0C80ED11CE11CF11C219769
:1026D00031F780E1809365068091010480FDFCCF95
:1026E00082E080930304DF91CF91FF90EF90DF9021
:1026F000CF900895CF92DF92EF92FF92CF93DF9326
:10270000C090E230D12CE12CF12C8DE0CC0CDD1C02
:10271000EE1CFF1C8A95D1F7C114D10481E0E806B4
:10272000F10438F0DF91CF91FF90EF90DF90CF90E0
:102730006CCF8FEFE81AF80AC1E2D0E0219791F34D
:1027400003DAC701B601ECD9FFD98FEFD81AE80A2E
:10275000F80AF4CFCF92DF92EF92FF920F931F937C
:10276000CF93DF93C090E230D12CE12CF12C8DE09F
:10277000CC0CDD1CEE1CFF1C8A95D1F7C114D104D2
:1027800081E0E806F10408F04FC080E1809366061E
:1027900083E08093A0098091A10987FFFCCF8091FD
:1027A000A0091092A0098091A10987FFFCCF809118
:1027B000A0091092A0098091A10987FFFCCF8FEF9B
:1027C000E81AF80A8091A009C1E2D0E0219749F106
:1027D000BBD9B7D9B9D900E010E01092A009809117
:1027E000A10987FFFCCF6091A00970E01092A009B9
:1027F0008091A10987FFFCCF8091A009782BC801A7
:1028000095D9A2D90E5F1F4F011581E0180729F74E
:10281000C701B60190D998D98FEFD81AE80AF80AFB
:10282000D5CF80E180936506E091E330F091E4300C
:102830008781863019F490E19093C1249681963077
:1028400049F420E12093C024853059F483E180933A
:10285000C12402C08530D1F3953019F483E180930F
:10286000C0248091010480FDFCCF82E080930304AA
:10287000DF91CF911F910F91FF90EF90DF90CF905C
:102880000895CF92DF92EF92FF920F931F9341151D
:10289000E0E25E076105710508F06BC06901E12C9B
:1028A000F12C00E010E220E030E0041B150B260BB9
:1028B000370BC016D106E206F30610F49701860125
:1028C00020E12093660626E02093A0092091A1092B
:1028D00027FFFCCF2091A00920E12093650600008E
:1028E00000002093660622E02093A0092091A10910
:1028F00027FFFCCF2091A0095093A0092091A109A6
:1029000027FFFCCF2091A0094093A0092091A109A5
:1029100027FFFCCF2091A0091092120126EB34E290
:1029200020931C0130931D01009314011093150195
:1029300020E12093220180932801909329010093A4
:10294000240110932501809110018068809310016B
:10295000809120018068809320018091100187FD83
:10296000FCCF80E3809311018093210180E180936B
:10297000650681E01F910F91FF90EF90DF90CF905F
:102980000895CF92DF92EF92FF920F931F9341151C
:10299000E0E25E076105710508F05DC06901E12CA8
:1029A000F12C00E010E220E030E0041B150B260BB8
:1029B000370BC016D106E206F30610F49701860124
:1029C00020E12093660623E02093A0092091A1092D
:1029D00027FFFCCF2091A0095093A0092091A109C5
:1029E00027FFFCCF2091A0094093A0092091A109C5
:1029F00027FFFCCF2091A00921E0209312018093B2
:102A00001C0190931D010093140110931501109265
:102A1000220186EB94E28093280190932901009390
:102A2000240110932501809110018068809310018A
:102A3000809120018068809320018091100187FDA2
:102A4000FCCF80E3809311018093210180E180938A
:102A5000650681E001C080E01F910F91FF90EF902B
:102A6000DF90CF9008958091CF0187FDFCCF08952E
:102A7000FADF8091CF0181FF0BC086E38093CA010A
:102A8000EBECF1E021E030E088ED90E084BF2083C2
:102A90000895EF92FF920F931F93CF93DF931F92AE
:102AA0001F92CDB7DEB77C018A011092C201698303
:102AB0007A83D9DF6981A62F7A81B72FC701800F6A
:102AC000911F26E048ED50E061E070E0EBECF1E0B2
:102AD000E816F90689F0E092C0013F2D3F7130936E
:102AE000C1012093CA0144BF60833091C4013D936A
:102AF0003FEFE31AF30AECCFC8010F900F90DF917C
:102B0000CF911F910F91FF90EF9008952F923F92D8
:102B10004F925F926F927F928F929F92AF92BF92ED
:102B2000CF92DF92EF92FF920F931F93CF93DF9399
:102B300000D0CDB7DEB76A01282F2F711C01221AF1
:102B4000310829836A837B8393DF8DDF83E380935E
:102B5000CA011092C1011092C2016A81E62E7B81E6
:102B6000F72E860185E3582E98ED892E912C662448
:102B70006394712C3BECA32EBB24B39443E3442E0B
:102B800029810115110509F12093C001F7018191F7
:102B90007F018093C4010150110919F02F5F203289
:102BA00081F72092C001832D8F718093C1015092D3
:102BB000CA01C401F50184BF608290E2290E311C74
:102BC00052DF4092CA0120E0DCCFC6012396CDBF80
:102BD000DEBFDF91CF911F910F91FF90EF90DF90BB
:102BE000CF90BF90AF909F908F907F906F905F90AD
:102BF0004F903F902F9008951F93CF93DF93CDB7C1
:102C0000DEB7A097CDBFDEBF863009F4F2C0D8F49E
:102C1000833009F472C030F4813061F1823009F4FC
:102C200040C000C1843009F48DC0853009F0FAC07D
:102C3000E091D328F091D428CE0101961995809186
:102C4000D92841E0ABC0893009F4D7C040F48730BF
:102C500009F4D1C0883009F0E5C0D7DCE3C08B307F
:102C600009F4D6C008F4D2C08C3009F0DBC084ED82
:102C700093E2D0C010E08091D928181750F444DBBB
:102C8000E1E0F0E0EC0FFD1FE10FF11D80831F5F1D
:102C9000F2CF8091DB28853009F098C080EE8983DF
:102CA00095C011E08091D928873009F010E0E091BB
:102CB000D328F091D428CE01019619954091D928B6
:102CC00031E0141708F082C03323A9F0812F90E07F
:102CD000E1E0F0E0EC0FFD1FE80FF91F208131E08B
:102CE0002F3F09F030E0E1E0F0E0EC0FFD1FE80FCE
:102CF000F91F2F5F20831F5FE4CFE091D328F0916D
:102D0000D428CE01019619958091D92841E08150AF
:102D100008F45CC04423D9F3282F30E0E1E0F0E070
:102D2000EC0FFD1FE20FF31F908141E09F3F09F080
:102D300040E0E1E0F0E0EC0FFD1FE20FF31F9F5FCA
:102D40009083E5CF11E08091D928873009F010E019
:102D5000E091D328F091D428CE01019619954091A5
:102D6000D92831E0141790F53323A1F0812F90E09A
:102D7000E1E0F0E0EC0FFD1FE80FF91F208131E0EA
:102D8000211130E0E1E0F0E0EC0FFD1FE80FF91F4A
:102D9000215020831F5FE6CF411103C08150E0F72F
:102DA00015C0282F30E0E1E0F0E0EC0FFD1FE20F4E
:102DB000F31F908141E0911140E0E1E0F0E0EC0F81
:102DC000FD1FE20FF31F91509083E8CFE091D528CB
:102DD000F091D628CE0101961995E091E030F0915E
:102DE000E1304091D928BE016F5F7F4F83E1199593
:102DF00019C033D517C0AEDC15C0809100088130F2
:102E000061F480918C08833041F40AC0BDD30AC0BC
:102E10008EEC93E20E942A2705C00E94B82802C0C7
:102E20000E94DD28A096CDBFDEBFDF91CF911F911C
:102E30000895E0E0F6E080E6828388E1868B858B6A
:102E40000895CF93C0910806C095C6FF12C0809127
:102E5000B8248A3050F08A30E1F4E091E330F09108
:102E6000E4308181C9DE8091B8248F5F8093B824DB
:102E700010C08C2F807669F48091B82481508A30FC
:102E800030F4E091E330F091E4308081B5DE1092CF
:102E9000B824C5FF12C08091B7248A3050F08A3020
:102EA000D9F4E091E330F091E4308381A5DE8091A4
:102EB000B7248F5F8093B7240FC0C07669F48091E8
:102EC000B72481508A3030F4E091E330F091E4305F
:102ED000828192DE1092B724CF9108959B01AC01BC
:102EE0006DE080EB98E060C620E030E090E0F90112
:102EF000E80FF91FEE51FF4C6383245F3F4F2036EC
:102F00003105A9F708950F931F939B01E091E330DA
:102F1000F091E430E80FF11D8A0140816DE080EB13
:102F200098E003D61F910F9108950F931F93CF93AD
:102F3000DF931F92CDB7DEB7082FAB019E012F5F45
:102F40003F4F6DE080EB98E008D6182F882319F0EA
:102F50006981802FC9DF812F0F90DF91CF911F9161
:102F60000F9108950895AF92BF92DF92EF92FF9272
:102F70000F931F93CF93DF9300D0CDB7DEB7D82E3A
:102F80008EB19FB1E0900804F0900904042F10E086
:102F9000F80134962091DC283091DD282E173F0768
:102FA00008F065C08091DE289091DF28805E98420D
:102FB00009F4DFC00091BD241091BE240115110554
:102FC00021F18091BA24882301F183E090E20E94EC
:102FD00001751092D7261092D8261092C624D801D7
:102FE00012966C91129770E08D919C915ED683E061
:102FF00090E20E9401751092D7261092D826109266
:10300000C624F80103811481D9CF80EE98E2809321
:10301000DE289093DF28E091BD24F091BE24309704
:1030200099F01381048122818091DC289091DD2820
:10303000820F911D8093DC289093DD28CF010E94A0
:103040001E77E12FF02FEBCF1092BB241092BC24FF
:103050001092BD241092BE241092BA241092B9246A
:1030600080EE98E28093DE289093DF2882C0E82AE1
:10307000F92A85E090E04B8369837A830E94897600
:103080005C01E091DE28F091DF28DC01ED93FC93F8
:1030900011974B8184E0840F12968C9312971396AC
:1030A0001D921C921497CF0101968093DE28909375
:1030B000DF28D082E091DE28F091DF28CF01019651
:1030C0008093DE289093DF284083E091DE28F09102
:1030D000DF28CF0101968093DE289093DF28F082CD
:1030E000E091DE28F091DF28CF0101968093DE2861
:1030F0009093DF28E082A80169817A818091DE289F
:103100009091DF280E9439788091DE289091DF2805
:10311000800F911F8093DE289093DF288091DC2818
:103120009091DD280497801B910B8093DC2890936D
:10313000DD288091BD249091BE24892B69F0E09117
:10314000BB24F091BC24309739F0A382B482A092C2
:10315000BB24B092BC2408C0A092BB24B092BC2473
:10316000A092BD24B092BE248091BA248F5F809338
:10317000BA242396CDBFDEBFDF91CF911F910F916F
:10318000FF90EF90DF90BF90AF90089508953F9229
:103190004F925F926F927F928F929F92AF92BF9267
:1031A000CF92DF92EF92FF920F931F93CF93DF9313
:1031B0007C01E901C0900020D090012096012250AE
:1031C0003843C901A0E0B0E0481759076A077B07F8
:1031D00008F05CC0E2E0CE1AE0E4DE0A2A013B011E
:1031E0004C0E5D1E611C711C481659066A067B0652
:1031F00048F0241B350B8E01021B130BE90133240D
:10320000339403C000E010E0312C4601A12CB12C16
:10321000481559056A057B0510F5CA018E5F9F4B5D
:103220002A013B014C0E5D1E611C711C481459049F
:103230006A047B0428F4AE01BC01C7012AD918C076
:10324000C41AD50AA601BC01C70123D9AE014C1985
:103250005D0960EE78E2C7018C0D9D1D07C04C1919
:103260005D09BA016052774DAE01C7010E943978FD
:10327000311002C081E00BC001501109D8F3F801F0
:10328000EC0FFD1FEE0DFF1D1082F6CF80E0DF91E9
:10329000CF911F910F91FF90EF90DF90CF90BF9053
:1032A000AF909F908F907F906F905F904F903F90E6
:1032B00008952091DC283091DD2880E098E0821B81
:1032C000930BE0EEF8E29F01205E384228173907A1
:1032D00010F41192F8CF80EE98E28093DE2890935C
:1032E000DF2880E098E08093DC289093DD2882E05E
:1032F00090E4809300209093012042E050E060E051
:1033000070E480E090E213D9E091E330F091E43092
:1033100087818A3019F480E18093C12486818A30C4
:1033200019F480E18093C02408958091DC28909165
:10333000DD2890582091002030910120821B930BB2
:10334000089520E030E0F901EE51FF4C8783245FBF
:103350003F4F20363105B9F7813049F018F08230FF
:1033600059F008951092BF2482EB97E109C0809331
:10337000BF2480E29AE104C01092BF2483EB97E15E
:103380008093E0309093E13008950F931F93CF9393
:10339000DF931F92CDB7DEB7E091E330F091E430D8
:1033A0008481CFDF80EE98E28093DE289093DF283F
:1033B00000E018E00093DC281093DD2841E050E0A5
:1033C000BE016F5F7F4F80E090E063DBE091DE281D
:1033D000F091DF28DF01C8011D920197E9F789818B
:1033E000882341F042E050E060E070E480E090E249
:1033F00050D817C082E090E4809300209093012081
:1034000042E050E060E070E480E090E290D881E03B
:10341000898341E050E0BE016F5F7F4F80E090E024
:1034200075DBE091E030F091E13040E060E070E089
:103430008FEF19950F90DF91CF911F910F91089504
:103440000F931F93CF93DF93EEB1FFB1C0910804A8
:10345000D09109042091DC283091DD28A42FB0E020
:103460008D010C5F1F4F2017310708F447C0EC2B6C
:10347000FD2B245031092A1B3B0B2093DC28309371
:10348000DD28A091DE28B091DF289D012F5F3F4FFE
:103490002093DE283093DF288C93A091DE28B09112
:1034A000DF28CD0101968093DE289093DF284C938E
:1034B000A091DE28B091DF28CD0101968093DE280F
:1034C0009093DF28FC93A091DE28B091DF28CD01F6
:1034D00001968093DE289093DF28EC93FB01415006
:1034E000F8F0A091DE28B091DF28CD0101968093FD
:1034F000DE289093DF2881918C93F1CF80E021DF4B
:10350000E091E330F091E43087818A3019F481E171
:103510008093C12486818A3019F481E18093C0248C
:10352000DF91CF911F910F9108951F93CF93DF9358
:103530001F92CDB7DEB79E012F5F3F4FAC0163E016
:103540008DE59AE00AD3182F882311F08981F9DEDE
:10355000812F0F90DF91CF911F9108950F931F93AB
:10356000E091E330F091E4308B019C01448163E011
:103570008DE59AE0DAD21F910F9108959B01AC017D
:1035800063E08DE59AE010C3EF92FF920F931F93D3
:10359000CF93DF938091DC289091DD28811528E07E
:1035A000920708F07BC00091002010910120C0E03C
:1035B000D0E8C01BD10BE12C28E0F22EA701481B5C
:1035C000590BC417D50768F1B80180EE98E20E9444
:1035D00097122091DC283091DD2880910020909175
:1035E0000120985F821B930B809300209093012011
:1035F000E21AF30AE0EEF8E2CF01805E98428E15FF
:103600009F0510F41192F8CF80EE98E28093DE28A7
:103610009093DF2880E098E08093DC289093DD2869
:103620002FC02097D9F1AE01B80180EE98E20E9438
:103630009712A8015857BE016052774D80EE98E26C
:103640000E9442788091DE289091DF288C1B9D0B90
:103650008093DE289093DF288091DC289091DD28EC
:103660008C0F9D1F8093DC289093DD288091002093
:1036700090910120C80FD91FC0930020D093012042
:1036800042E050E060E070E480E090E2DF91CF91B2
:103690001F910F91FF90EF900C949712DF91CF91B3
:1036A0001F910F91FF90EF900895CF93DF93E091DA
:1036B000E330F091E4308481823009F05CC0809185
:1036C000B9248F5F8093B92463E00E944A769111F8
:1036D00052C0C091BD24D091BE24209709F18091A1
:1036E000BA248823E9F083E090E20E9401751092E9
:1036F000D7261092D8261092C6246A8170E088815D
:103700009981D3D283E090E20E9401751092D7266E
:103710001092D8261092C6240B80DC81C02DDDCFFC
:1037200080EE98E28093DE289093DF28E091BD241C
:10373000F091BE24309799F0D381C4812281809189
:10374000DC289091DD28820F911D8093DC289093D6
:10375000DD28CF010E941E77ED2FFC2FEBCF1092BA
:10376000BB241092BC241092BD241092BE2410924F
:10377000BA241092B9248091BF24882319F0DF91D4
:10378000CF9102CFDF91CF91089543E650E062EEF2
:1037900070E381E090E07DC943E650E062EE70E3C3
:1037A00081E090E0B3C90F931F93CF93DF93CFEFE6
:1037B000C80FC83008F049C0D82F0E942C2880912B
:1037C000E230C81789F10E94AA13C093E2308CE05E
:1037D000C89F900111242B513F4C2093E33030932C
:1037E000E4300E940513E091E330F091E4308581EC
:1037F0000E94FD10E091E330F091E4308481A1DD7E
:1038000001E010E0025E10436091E230C8018E5189
:103810009F4C0E94C57E6091E3307091E430C801F6
:103820008D519F4C0E94CE7E8FE18D0FE091E33051
:10383000F091E4309781943011F48093C124968103
:10384000943029F48093C02402C080E001C081E05C
:10385000DF91CF911F910F9108958091E23099E00F
:103860004CE0915099F0282F30E02F5F3F4F2770A8
:103870003327822F429FF001439FF00D1124EE5118
:10388000FF4C2085222369F38F5F8DCF0895FC01C3
:103890009091E2309F5C908311820895CF93FC0158
:1038A000C081818181110CC0BF01E091E030F091B5
:1038B000E13041E082E1199580ED8C0FCF9173CF1B
:1038C00080E0CF91089588E180930106089580916A
:1038D000C024823191F030F48031B9F050F4882363
:1038E000A9F132C0833169F090EE980F983088F0DA
:1038F0002BC088E08093050627C088E080930706E8
:1039000023C08091040683FF12C088E080930606DE
:103910001BC09091C2249F5F913019F09093C224F4
:1039200015C01092C2249091040693FD04C088E053
:10393000809305060BC098E090930606803221F034
:1039400081508093C02402C01092C0248091C12471
:10395000823191F030F48031C1F050F48823A9F124
:1039600032C0833169F090EE980F983088F02BC008
:1039700080E18093050627C080E18093070623C07D
:103980008091040684FF12C080E1809306061BC06C
:103990009091C3249F5F913019F09093C3240895B0
:1039A0001092C3249091040694FD04C080E180939A
:1039B0000506089590E190930606803221F081502B
:1039C0008093C12408951092C12408959B01AC01F5
:1039D0006BE080EC9AE0E8C020E030E0982F907136
:1039E0008870992321F0F901EE51FF4C62878823FA
:1039F00021F0F901EE51FF4C6187245F3F4F2036E3
:103A0000310579F7992329F090E1909306061092F9
:103A1000C124882329F088E0809306061092C024F0
:103A200008950F931F939B018A01803131F4E09137
:103A3000E330F091E430478107C0883049F4E091E9
:103A4000E330F091E43046816BE080EC9AE06DD099
:103A50001F910F9108950F931F93CF93DF931F92A0
:103A6000CDB7DEB7082FAB019E012F5F3F4F6BE054
:103A700080EC9AE072D0182F882319F06981802F8A
:103A8000ABDF812F0F90DF91CF911F910F910895A0
:103A900008958091C424833040F081508093C424E1
:103AA000823019F481E08093860608959B01AC0171
:103AB00068E08BE29CE078C08093C424882359F0AE
:103AC00091E090938106823019F4909386060895D0
:103AD00090938506089581E08093820608950F9360
:103AE0001F938B019C014091C42468E08BE29CE011
:103AF0001CD01F910F9108951F93CF93DF931F92B6
:103B0000CDB7DEB79E012F5F3F4FAC0168E08BE27F
:103B10009CE023D0182F882311F08981CDDF812FDD
:103B20000F90DF91CF911F9108950F931F93FC0188
:103B3000662379F094916150941309C0BF016F5FBF
:103B40007F4FA801C9010E941D7881E003C0B19692
:103B5000EFCF80E01F910F910895CF92DF92EF9207
:103B6000FF921F93CF93DF93EC017A016901162F27
:103B7000112389F0BE016F5F7F4FC7010E94147847
:103B80001150892B31F4FE01C491F601C08381E00C
:103B900003C0A196EDCF80E0DF91CF911F91FF9000
:103BA000EF90DF90CF900895CF930196CCE26623FB
:103BB000C9F0FC01DA01AD017491772341F02115C0
:103BC0003105A1F07D93319621503109F4CF623057
:103BD00030F02115310551F04F5F5F4FCC936150AC
:103BE0008196E5CF232B11F0FA011082CF91089531
:103BF000809120028068809320028091230280FFC0
:103C0000FCCF81E080932302A0911002B0911102B9
:103C1000AE5BB109B7FF02C0A0E0B0E020E038EB36
:103C20004BE050E00E946A76E091E330F091E4309E
:103C300061157105844F9140A8F48781873019F48C
:103C400080E18093C1248681873019F480E18093DC
:103C5000C0248091D928882389F0E091CB28F09165
:103C6000CC2819948781873019F481E18093C1248D
:103C70008681873019F481E18093C0240895BC01C6
:103C800083E090E20C948A74CF93DF93FC016491FB
:103C9000EC012196662331F083E090E20E94D87413
:103CA000CE01F4CFDF91CF910895AB01BC0183E049
:103CB00090E20C94B47480E2809362060895CF93EE
:103CC000DF938091C524823031F583E090E20E9439
:103CD0003D750E940C7083E090E20E945975EC01E2
:103CE00097FD19C0E091E330F091E4308781833093
:103CF00019F483E18093C1248681833019F483E130
:103D00008093C0248C2FC8D6811105C08C2FDF91E1
:103D1000CF910C944A27DF91CF9108958091C524CB
:103D2000813079F028F08230D9F0833011F12EC043
:103D30008091680685FF2AC08FE08093022081E091
:103D40000CC08091022081508093022081111EC0FE
:103D50000E94AE100E94B77382E08093C52416C003
:103D60008091680685FD12C08FE08093022083E079
:103D7000F4CF80910220815080930220811106C0EF
:103D80000E947C730E94DC101092C5248091C5248F
:103D9000823019F4D2D70C94F4270895E091E330DF
:103DA000F091E4308781823019F481E18093C1245D
:103DB0008681823019F481E18093C0240895E091D6
:103DC000E330F091E4308781823019F480E1809310
:103DD000C1248681823019F480E18093C024089543
:103DE00083E090E20C94657483E090E20C94AC75EF
:103DF00029EC3EE03F932F9323EC3EE03F932F933B
:103E00002CEB3EE03F932F9325EB3EE03F932F9327
:103E100025E13EE03F932F9322E02F931F929F9343
:103E20008F930E94A2788DB79EB70E968DBF9EBFCE
:103E300085E6089560E072E00E943D1185E60895F0
:103E4000FB0120812F3349F42181211106C060E05C
:103E500072E00E947C1185E60895CB010E944E110C
:103E6000882371F0E091E330F091E430CF018D5D73
:103E7000904365818F5F9F4F0E94C57E84E60895C1
:103E80008AEC0895EF92FF920F931F93CF93DF93E5
:103E9000CDB7DEB7A097CDBFDEBF7C010091D9289A
:103EA00010E00115110591F48DE09EE09F938F9332
:103EB00082E08F931F92FF92EF920E94A2780F9060
:103EC0000F900F900F900F900F9010C0E091D3289B
:103ED000F091D428CE01019619959801AE014F5F5B
:103EE0005F4F60E072E0C7010E94A01185E6A096D6
:103EF000CDBFDEBFDF91CF911F910F91FF90EF906B
:103F00000895DF92EF92FF920F931F93CF93DF9369
:103F1000CDB7DEB7A097CDBFDEBF7B010091D9281A
:103F200010E066E07EE0C7010E941478892BC1F49E
:103F3000D12CED2CF12CE016F10658F40E948411DE
:103F4000E1E0F0E0EC0FFD1FEE0DFF1D8083D39448
:103F5000F0CF8091DB28853069F480EE89830AC038
:103F6000A70160E270E0CE0101960E94DA1180178D
:103F70009107A1F4E091D528F091D628CE010196C1
:103F80001995E091E030F091E1304091D928BE01DF
:103F90006F5F7F4F83E1199584E601C08AECA0969C
:103FA000CDBFDEBFDF91CF911F910F91FF90EF90BA
:103FB000DF900895FC018091DA28882311F081E3D5
:103FC00001C080E38083118285E60895FB01218191
:103FD000211127C02081213321F481E08093DA2848
:103FE00004C0203321F41092DA2884E608952F3398
:103FF000C1F41F9220E32F931F9221E32F9320E01F
:104000003EE03F932F9322E02F931F929F938F9335
:104010000E94A2788DB79EB70A968DBF9EBF85E697
:1040200008958AEC089581E494E105D58EE608951B
:1040300081EC94E11BD58EE60895E0ECF4E08181FB
:104040008E7F81830E947C730E94A21084E6089573
:10405000E0ECF4E081818E7F81830E947C730E947A
:10406000A81084E60895E3ECF8E225892F932489CB
:104070002F932DEF3DE03F932F9322E02F931F923C
:104080009F938F930E94A2788DB79EB708968DBF9D
:104090009EBF85E608952091D9281F922F932AEF7D
:1040A0003DE03F932F9322E02F931F929F938F9396
:1040B0000E94A2788DB79EB708968DBF9EBF85E6F9
:1040C000089540E052E0BC0180E00E94831785E63D
:1040D0000895FB0120812F3349F42181211106C06D
:1040E00060E072E00E946E1785E6089580E00E940D
:1040F0009517882319F050DB84E608958AEC08951B
:1041000040E052E0BC0181E00E94831785E60895FB
:10411000FB0120812F3349F42181211106C060E089
:1041200072E00E946E1785E6089581E00E9495175F
:10413000882319F031DB84E608958AEC089540E085
:1041400052E0BC0182E00E94831785E60895FB01DE
:1041500020812F3349F42181211106C060E072E0F3
:104160000E946E1785E6089582E00E9495178823C5
:1041700019F012DB84E608958AEC089540E052E0DD
:10418000BC0183E00E94831785E60895FB0120812E
:104190002F3349F42181211106C060E072E00E94B2
:1041A0006E1785E6089583E00E949517882319F01D
:1041B000F3DA84E608958AEC089540E052E0BC0109
:1041C00080E12FDC85E60895FB0120812F3341F447
:1041D0002181211105C060E072E0F8DB85E60895D9
:1041E00080E139DC882319F0D7DA84E608958AEC77
:1041F000089540E052E0BC0188E013DC85E60895B4
:10420000FB0120812F3341F42181211105C060E0A1
:1042100072E0DCDB85E6089588E01DDC882319F078
:10422000BBDA84E608958AEC089560E072E057DC1A
:1042300085E60895FB0120812F3341F4218121116E
:1042400005C060E072E032DC85E60895CB0154DC05
:10425000811102C08AEC089584E6089560E072E05E
:104260007DD985E60895FB0120812F3341F421811A
:10427000211105C060E072E081D985E60895CB0187
:1042800054D9882319F088DA84E608958AEC0895D1
:10429000CF93DF93EC0149D8813028E0920718F0E2
:1042A0009C01385002C020E030E03F932F939F9351
:1042B0008F932AED3DE03F932F9382E08F931F92DF
:1042C000DF93CF930E94A2788DB79EB70A968DBFD9
:1042D0009EBF85E6DF91CF91089587EC98E1C6D324
:1042E0008EE6089551D984E608950E94591984E60E
:1042F000089560E072E0CBDA85E60895CB01CEDA6E
:10430000811102C08AEC089584E608950E947A1310
:1043100084E608950E94AA1384E608950E94051376
:1043200084E608958091680680FD02C089E70895BB
:1043300088E70895DF92EF92FF920F931F93CF9338
:10434000DF93EC010FEF11E08CE0E82E80E1F82E16
:104350009CE2D92EB7018FEE93E20E941478892B4C
:10436000D1F001151105B9F0DE01F7012491ED013D
:104370002196C8010197222341F00130110529F04F
:104380002C93DE0131968C01F1CFDC928C0188E117
:10439000E80EF11CDFCF2197188285E6DF91CF91DF
:1043A0001F910F91FF90EF90DF900895FC012091F5
:1043B00020022068209320028091230280FFFCCFFE
:1043C00081E080932302A0911002B0911102AE5BB4
:1043D000B109B7FF02C0A0E0B0E020E038EB4BE04D
:1043E00050E00E946A76AA27BB279F938F9323ED04
:1043F0003DE03F932F9382E08F931F92FF93EF93C3
:104400000E94A2788DB79EB708968DBF9EBF85E6A5
:1044100008952EB13FB14091080450910904242B16
:10442000352B3F932F932DEC3DE03F932F9322E0CC
:104430002F931F929F938F930E94A2788DB79EB760
:1044400008968DBF9EBF85E608950F931F93CF9367
:10445000DF931F921F92CDB7DEB78B01E091E3305F
:10446000F091E43085818B3009F06FC0E091CB286A
:10447000F091CC28199581E08093502760E270E09C
:10448000C8010E945A780097F9F4F80101900020C1
:10449000E9F73197E01BF10BE0FD59C0F695E79580
:1044A000E130F10539F487E090E080934634909351
:1044B000473437C053E0EE0FFF1F5A95E1F7E09302
:1044C0004634F09347342DC098012C5F3F4F82173C
:1044D0009307E9F5A80162E070E0CE0101960E9421
:1044E000DA11898190E0982F88272A81820F911D07
:1044F00080934634909347340B5F1F4FF80101902F
:104500000020E9F73197E01BF10BE0FD20C0F695A4
:10451000E79533E0EE0FFF1F3A95E1F7E817F9074B
:10452000B0F06091463470914734695F7F4F83E00B
:10453000769567958A95E1F7A80186E493E30E9452
:10454000DA110E9494318FEF03C089EC01C08AEC2C
:104550000F900F90DF91CF911F910F910895EF92DF
:10456000FF920F931F93CF93DF931F921F92CDB7AC
:10457000DEB78B01E091E330F091E43085818B3040
:1045800009F080C0E091CB28F091CC28199582E009
:104590008093502760E270E0C8010E945A787C0145
:1045A000892B31F5F80101900020E9F73197E01BE4
:1045B000F10BE0FD69C0F695E795E130F10539F4BE
:1045C00087E090E0809346349093473447C063E09F
:1045D000EE0FFF1F6A95E1F7CF0169E070E00E94DE
:1045E0005676E81BF90BE0934634F093473436C017
:1045F000C8010496E816F90609F046C0A80162E071
:1046000070E0CE0101960E94DA11298130E0322F4C
:1046100022278A81280F311D209346343093473456
:104620002730310529F0C90187709927892B61F559
:1046300087010F5F1F4FF80101900020E9F73197C4
:10464000E01BF10BE0FD20C0F695E79543E0EE0F8F
:10465000FF1F4A95E1F7E217F307B0F06091463487
:1046600070914734695F7F4F83E0769567958A95AF
:10467000E1F7A80186E493E30E94DA110E949431E5
:104680008FEF03C089EC01C08AEC0F900F90DF918F
:10469000CF911F910F91FF90EF900895E091E3303B
:1046A000F091E43085818B30A1F4E091CB28F0913A
:1046B000CC28199585E0809350270E94CF520E9404
:1046C000943189ED92E58093D5269093D6268FEF8D
:1046D000089589EC08958BE00E94FD10E091CB28AD
:1046E000F091CC28199588E0809350270E94CF52F2
:1046F0000E94943189ED92E58093D5269093D62639
:104700008FEF0895E091E330F091E43085818B30B4
:10471000A1F4E091CB28F091CC28199583E0809307
:1047200050270E94CF520E94943189ED92E58093E8
:10473000D5269093D6268FEF089589EC0895E091C1
:10474000E330F091E43085818B30A1F4E091CB2807
:10475000F091CC28199586E0809350270E94CF5283
:104760000E94943189ED92E58093D5269093D626C8
:104770008FEF089589EC0895E091E330F091E430F3
:104780004085518564E6649F9001659F300D11243A
:104790003F932F9327EC3DE03F932F9322E02F93FD
:1047A0001F929F938F930E94A2788DB79EB7089611
:1047B0008DBF9EBF85E60895CF93DF931F921F9212
:1047C000CDB7DEB7FB0120812F33B1F42181211158
:1047D00013C025E93DE03F932F9322E02F931F92D2
:1047E0009F938F930E94A2780F900F900F900F903D
:1047F0000F900F9085E62EC089E592E089839A8319
:10480000CE0101969F938F9381E99DE09F938F93B3
:104810007F936F930E94D8780F900F900F900F9016
:104820000F900F90892BA9F069817A816935F2E0A8
:104830007F0778F4E091E330F091E430608771878E
:10484000CF018A5D90438F5F9F4F0E94CE7E84E6AA
:1048500001C08AEC0F900F90DF91CF910895E09105
:10486000E330F091E43023852F9322852F932EE8B7
:104870003DE03F932F9322E02F931F929F938F93BE
:104880000E94A2788DB79EB708968DBF9EBF85E621
:104890000895CF93DF931F921F92CDB7DEB7FB0130
:1048A00020812F33B1F42181211113C02FE02F93E8
:1048B0002FEF2F932DE33DE03F932F9322E02F9393
:1048C0001F929F938F930E94A278CDBFDEBF85E693
:1048D00030C019821A82CE0101969F938F9389E38B
:1048E0009DE09F938F937F936F930E94D8780F9052
:1048F0000F900F900F900F900F90892BC9F0698146
:104900007A81611590E1790798F460933803709388
:104910003903E091E330F091E43062877387CF018F
:10492000885D90438F5F9F4F0E94CE7E84E601C0DA
:104930008AEC0F900F90DF91CF910895FB012081B9
:104940002F33D9F42181211121C01F9220E32F930D
:104950001F9221E32F9323E33DE03F932F9322E027
:104960002F931F929F938F930E94A2788DB79EB72B
:104970000A968DBF9EBF85E60895213311F4F8D3C2
:1049800003C0203319F419D484E608958AEC0895FD
:10499000FC0180910008813021F480918C088330E3
:1049A00011F080E301C081E38083118285E60895E0
:1049B000E091E330F091E43085818B3079F4E0913F
:1049C000CB28F091CC28199584E0809350270E9441
:1049D000CF520E94943189ED92E50EC08A3091F455
:1049E000E091CB28F091CC28199581E080932C2878
:1049F0000E94D35A88EE9AE58093D5269093D626C6
:104A00008FEF089589EC08958BE00E94FD10E091EE
:104A1000CB28F091CC28199587E0809350270E94ED
:104A2000CF520E94943189ED92E58093D5269093E0
:104A3000D6268FEF089521E02093D4262093D32605
:104A40002CE32093D02625E030E02093CE2630932F
:104A5000CF261092C8261092C9261092CA2610920C
:104A6000CB268093C6269093C726089527E02093EF
:104A7000D4262CE231E02093CE263093CF2610921C
:104A8000C8261092C9261092CA261092CB2680936F
:104A9000C6269093C7260895CF939091D42695303B
:104AA000E1F130F4933029F140F5913068F441C1DF
:104AB000973009F4A7C008F445C0983009F4AAC09B
:104AC000993009F433C135C1813041F41092CC26BC
:104AD0001092CD261092D12683E0FBC0843011F4D1
:104AE00066E08BC0883109F421C18B3109F0F3C035
:104AF0001DC18093D22684E0ECC090E04091D22684
:104B00002FEF30E0241B31098217930721F485E051
:104B1000E0C0981739F165E169C02091CC26309149
:104B2000CD26A9014F5F5F4F4093CC265093CD26F1
:104B3000F901EA53FB4D80834038510509F0CBC0A1
:104B400086E0C7C02091D2269091D326291346C073
:104B5000E6ECF4E290E025E2E634F207D1F22191AE
:104B6000920FF9CF4091C8265091C9266091CA266C
:104B70007091CB26E091C626F091C72620E830E060
:104B800086EC94E21995C82F882311F18091D326E1
:104B90008F5F8093D3268091C8269091C926A091DB
:104BA000CA26B091CB2680589F4FAF4FBF4F8093FE
:104BB000C8269093C926A093CA26B093CB2666E058
:104BC00083E090E20E94D87482E08093D426B2C041
:104BD00068E183E090E20E94D8740EC030E0892F33
:104BE00090E001972817390739F466E083E090E2F6
:104BF0000E94D87482E06DC068E183E090E20E9478
:104C0000D87494C0853119F41092D32609C08B3121
:104C100009F48CC0883109F463CF863009F05DC097
:104C20008091D3268F5F8093D3264091C8265091E0
:104C3000C9266091CA267091CB26E091C626F091D4
:104C4000C72620E830E086EC94E21995C82F882327
:104C5000D1F161E083E090E20E94D8746091D326A4
:104C600083E090E20E94D8746091D326609583E03F
:104C700090E20E94D87460E870E086EC94E215D867
:104C8000E6ECF4E260E085E2E634F80719F08191A1
:104C9000680FF9CF83E090E20E94D8748091C82613
:104CA0009091C926A091CA26B091CB2680589F4FDB
:104CB000AF4FBF4F8093C8269093C926A093CA26B2
:104CC000B093CB2637C064E083E090E20E94D874B2
:104CD00089E08093D426C1E02DC08531E1F761E001
:104CE00083E090E20E94D8746091D32683E090E242
:104CF0000E94D8746091D326609583E090E20E9470
:104D0000D87460E870E086EC94E20E94551EE6ECF0
:104D1000F4E260E025E2E634F20719F08191680FD1
:104D2000F9CF83E090E20E94D874D5CF1092D426B8
:104D3000D2CFC0E08C2FCF9108958091D4268130BE
:104D400019F0873029F108958091CE269091CF26D1
:104D50009C01215031092093CE263093CF26892BF8
:104D600031F58091D0269FEF980F9093D02688231D
:104D700031F065E183E090E20E94D87402C01092A5
:104D8000D42685E090E08093CE269093CF26089598
:104D90008091CE269091CF269C01215031092093FD
:104DA000CE263093CF26892B11F41092D426089565
:104DB000E3EEFEE020E030E09491981309C041E278
:104DC000429FC001439F900D11248C51914F089533
:104DD0002F5F3F4FB1962930310571F780E090E0A9
:104DE0000895262FBA012F3311F4469607C02D33AC
:104DF00011F4449611C021110CC04096FC0125917C
:104E000034912115310521F186EC94E2F9011995CF
:104E10000DC02032E9F44296FC0125913491211510
:104E20003105B1F086EC94E2F90119958F3F89F4D0
:104E300091E09093DB262EB13FB140910804509150
:104E40000904242B352B2093D9263093DA26089594
:104E500089EC08950F931F93CF93DF938C01CCE0DF
:104E6000D0E1BE01C8010E941478892B49F440E0CA
:104E700050E060E0CE01DF91CF911F910F91B1CF53
:104E8000689683E1CC3FD80761F7DF91CF911F91FE
:104E90000F910895EF92FF921F93CF93DF93982F76
:104EA0009F7D91549A3160F090ED980F9A3040F0C8
:104EB0008F3531F0982F9D7F9D3311F08032D1F4E2
:104EC0009FE9980F9A3108F480522091D7263091AB
:104ED000D8262F3F91E0390708F07FC0A9014F5F26
:104EE0005F4F4093D7265093D826F901EA53FB4DE4
:104EF000808373C08D3009F040C0E091D726F091D7
:104F0000D826EA53FB4D10821092D7261092D8264D
:104F10008091DB26811161C08091C624982F9F7DEE
:104F200009F440C08D7F8D33E9F1E6ECF4E27F01B6
:104F30001191112331F01F3321F01D3311F0103284
:104F4000B1F7F7011082CCE0D0E1BE0186EC94E22B
:104F50000E941478892B59F41092C624A7014F5F40
:104F60005F4F612FCE013DDF8F3FB9F124C06896BE
:104F7000F3E1CC3FDF0749F715C0883061F4809139
:104F8000D7269091D826009741F101978093D72694
:104F90009093D82622C08B3101F51092D72610921B
:104FA000D8261BC088EC04DF0E94441E80EE9EE0E1
:104FB0000E94441E12C0FCDE0E94441E80EE9EE051
:104FC0000E94441E8091C624882339F086EC94E226
:104FD0000E943F1E8DED9EE0EBCF81E0DF91CF91EF
:104FE0001F91FF90EF9008958091DB26882399F11F
:104FF000E091E330F091E4302085318521153105D1
:1050000051F18EB19FB14091080450910904842B55
:10501000952B4091D9265091DA26841B950B64E696
:1050200070E00E94567662177307A8F01092DB2694
:105030008BECBEDE0E94441E8AED9EE00E94441E60
:10504000E091D526F091D626309729F01995109247
:10505000D5261092D62608958091DB268823A9F0C4
:105060001092DB268BECA4DE0E94441E8AED9EE0AB
:105070000E94441EE091D526F091D626309729F063
:1050800019951092D5261092D6260895CF93DF93C6
:105090009091DB269923A9F0EB011092DB2688DEA4
:1050A0000E94441E87ED9EE00E94441E209749F016
:1050B000CE010E943F1E84ED9EE0DF91CF910C94C3
:1050C000441EDF91CF910895EF92FF920F931F93AB
:1050D000CF937C019B01613081E0780710F020E0E4
:1050E00031E08B01021B130BA70160E072E086EC3C
:1050F00094E20E94A01186EC94E20E943F1EC1E05F
:10510000013081E01807B0F01A956C2F70E0762F0F
:105110006627A701460F571F20E032E060E072E0EB
:1051200086EC94E20E94A01186EC94E20E943F1E5D
:10513000CF5FE6CF0115110591F0EC2FF0E0FE2FC7
:10514000EE27A7014E0F5F1F980160E072E086EC2A
:1051500094E20E94A01186EC94E20E943F1E81ED31
:105160009EE0CF911F910F91FF90EF900C94441E01
:1051700080910008813029F480918C08833009F4F3
:1051800008958091E426811117C081E08093000882
:1051900093E090938C088093E2261092E3268EB1E0
:1051A0009FB12091080430910904822B932B8093A6
:1051B000E9269093EA260895089510928C0810929B
:1051C0000008E2EEF6E21082118208959091E22644
:1051D0009923F1F08091E326811115C02091E226F8
:1051E0002223B9F02EB13FB1409108045091090437
:1051F000242B352B4091E9265091EA26241B350BB0
:105200002634310530F081E08093E326892F08951C
:1052100081E00895CF93DF931F92CDB7DEB78091E1
:10522000E4268823D1F02EB13FB14091080450917B
:105230000904242B352B4091E7265091E826241BA6
:10524000350B4091E5265091E6262417350728F0C6
:105250001092E42689838CDF89810F90DF91CF91B2
:105260000895E091E330F091E43082879387809352
:105270003803909339030895E091E330F091E430DE
:105280008285938540968287938780933803909395
:105290003903828593850895E091E330F091E430FD
:1052A00080E991E082879387809338039093390354
:1052B0000895A0E2B6E081E015968C93159725E459
:1052C00031E328B939B925EC31E32AB93BB910B833
:1052D00013B812B816B817B811B8E0E0F9E010A288
:1052E00011A22FEF30E026A337A32FEF3FEF20A727
:1052F00031A7808398E8938390E1948793E0978324
:105300001C968C931C9782E01A968C9308951F929A
:105310000F920FB60F92112408B60F9218BE0BB65B
:105320000F921BBE8F939F93EF93FF93E0E0F9E002
:1053300013828FE790E086AB97AB81E190E080AF7E
:1053400091AFE0E0FAE010A211A28FEF9FEF86A3E9
:1053500097A389E88383168281E084878EE0808327
:1053600010922A06FF91EF919F918F910F900BBEA3
:105370000F9008BE0F900FBE0F901F9018951F92B0
:105380000F920FB60F92112408B60F9218BE0BB6EB
:105390000F921BBE2F933F938F939F93EF93FF9397
:1053A0002091280693B1267081E009F080E0990FE2
:1053B000892B83B982B1882309F464C012B883B100
:1053C0008770873059F51092000980E180930C09AD
:1053D0001092030A1B9B03C08CEA94E002C08CE687
:1053E00094E08093260A9093270A82E081B981E0B5
:1053F00080930C0A83E08093060A86B197B1877088
:1054000049F090B18F5F893011F09695FBCFE8B1EC
:10541000F9B1908381E08093EB2637C093B1892F57
:105420008C7099F192FB992790F981E0982781B1CE
:1054300081111BC080B18695911190E8892B80B9AC
:1054400026B137B12F5F3F4F26B937B927703327C1
:10545000232BD9F4E8B1F9B19F012F5F3F4F28B951
:1054600039B9808381E081B910C081B1813069F49C
:10547000EAB1FBB19F012F5F3F4F2AB93BB990833F
:1054800011B803C082B1809582B988E8809303097E
:10549000FF91EF919F918F913F912F910F900BBEB4
:1054A0000F9008BE0F900FBE0F901F9018951F927F
:1054B0000F920FB60F92112408B60F9218BE0BB6BA
:1054C0000F921BBE2F933F938F939F93EF93FF9366
:1054D00081B1823008F49DC081B18D3008F099C04F
:1054E000E1B1F0E0EE0FFF1FE45DFF4D0190F081B0
:1054F000E02D19948FE790E08093260A9093270A75
:1055000088C08E9A8EE0809340088FE390E080936D
:10551000260A9093270A85E06FC08E9886E081B9AD
:105520008FEF82B914B815B8E8B1F9B1808180B9AC
:1055300070C0009B05C08E9A82B1809582B901C06F
:105540008E9887E059C0009B02C08E9801C08E9A49
:1055500080B1869580B984B195B1019684B995B929
:1055600084B195B187709927892B11F488E044C0E4
:1055700024B135B186B197B128173907B1F52BC0E1
:10558000EAB1FBB1309711F0808101C082B188236C
:1055900011F08E9A01C08E9889E02EC0EAB1FBB15D
:1055A000309751F08081882311F08E9801C08E9A37
:1055B0003196EAB9FBB908C082B1882311F08E9800
:1055C00001C08E9A8FEF82B924B135B186B197B1FF
:1055D0002817390711F48AE00FC0E8B1F9B1CF01FB
:1055E000019688B999B9818180B986E005C08E9805
:1055F0008BE002C08E988CE081B90BC01092000A3B
:105600001092060A109240081092410881E080939F
:10561000EC26FF91EF919F918F913F912F910F90E9
:105620000BBE0F9008BE0F900FBE0F901F901895E5
:10563000CF93DF93EBEEF6E21082118289E49CE2D5
:105640008093DE269093DF2687E899E28093DC261C
:105650009093DD26E0E4F6E0128A84E08283C0E8DD
:10566000D1E082E68E83A0E2B6E081E016968C93CC
:10567000169711968C93119796E012969C93129719
:1056800051968C93519732E052963C9352971A96CA
:105690001C921A971B961C921B979FE019969C933D
:1056A00099E598832AE529839A8390E491839683E8
:1056B000A0EBB0E012962C911297207F12962C93BB
:1056C000129712962C911297226012962C9320E337
:1056D00021832683908B8683358383E08183E0E07A
:1056E000F8E083E1818321E030E026A337A320A7FF
:1056F00031A7E0E8F8E014868083E0E2F3E013826B
:10570000118288E0828391E19083A091E330B0918F
:10571000E4301A962D913C911B97208F318FE0E851
:10572000F3E09CE39283808393838183DF91CF9125
:10573000C0CDA0E2B6E01A961C921A97EBEEF6E204
:1057400010821182E0E0F9E010821382178280E17A
:105750008487E0E0FAE010821382168281E0848779
:10576000E0E4F8E01082118216968C938E980895EA
:10577000CF93DF938091EB26882309F47EC01092AB
:10578000EB26C6B1D7B1C730D10508F471C0AE0160
:10579000495F5F4F93E0569547959A95E1F7E09101
:1057A000E030F091E13065E471E380E41995E09137
:1057B000E330F091E4308781883019F483E18093FD
:1057C000C1248681883019F483E18093C024E0915C
:1057D000D128F091D228BE0185E491E31995EC011E
:1057E00094FF06C0DF7E85EC91E38AB99BB902C0C5
:1057F0001AB81BB82097E1F1AE01495F5F4F83E013
:10580000569547958A95E1F7E091E030F091E130C7
:1058100065E471E381E41995E091E330F091E430BF
:105820008781893019F483E18093C124868189308E
:1058300019F483E18093C024C6B9D7B985E491E314
:1058400088B999B910926008109261088FE090E0D1
:10585000809366089093670888E090E080936A08D8
:1058600090936B0883E28093410883E081B905C07F
:105870001092000A1092060A1CDD8091EC26882303
:1058800029F01092EC26DF91CF9113CDDF91CF91CB
:1058900008951F920F920FB60F92112408B60F921F
:1058A00018BE0BB60F921BBE2F933F938F939F93FF
:1058B000EF93FF93E0E0F9E080E484871782E0E86B
:1058C000F3E082E0878389EB818385E491E38AB901
:1058D0009BB981E090E084B995B916B88EB19FB1BB
:1058E0002091080430910904822B932B8093EE269B
:1058F0009093EF2681E08093F22618B817B81092A3
:10590000ED2688E080938706FF91EF919F918F911C
:105910003F912F910F900BBE0F9008BE0F900FBEBE
:105920000F901F901895CF93DF93E0E4F6E0128A72
:1059300084E08283C0E8D1E082E68E83A0E2B6E014
:1059400081E016968C93169711968C93119796E09A
:1059500012969C93129751968C93519732E05296DF
:105960003C9352971A961C921A971B961C921B975F
:105970009FE019969C93199799E598832AE52983C6
:105980009A8390E491839683C0EBD0E02A81207FB4
:105990002A832A8122602A8320E321832683908B15
:1059A0008683358393E09183E0E0F8E093E191838F
:1059B00021E030E026A337A320A731A7E0E8F8E0F4
:1059C00014869083E0E2F3E01382118298E09283E0
:1059D00021E12083C091E330D091E4302A853B85DA
:1059E000208F318FE0E8F3E02CE322839083238340
:1059F000918329E43CE22093DE263093DF2615963E
:105A00008C93E0E0F9E02FEF30E026A337A312A655
:105A100013A614A615A610821682178280831092F0
:105A2000000A1092ED26E0EFF6E210821282118257
:105A3000DF91CF91089581E080932606BEDBE0E000
:105A4000F9E010821782E0E0FAE010821782E0EFBE
:105A5000F6E21182128210820895E0E0F9E08FEF01
:105A600094E086A397A380E6848780E387838FEF03
:105A700090E086AB97AB88E08093870608951F92ED
:105A80000F920FB60F92112408B60F9218BE0BB6E4
:105A90000F921BBE2F933F934F935F938F939F93D0
:105AA000EF93FF931092070A1092000A1092470991
:105AB00010924009809181038E7F8093810384B18D
:105AC00095B180FF1AC0379B03C086B1869503C08D
:105AD00086B18695806886B984B195B1019684B9FE
