:100000000C94450D0C946A0D0C946A0D0C946A0DB9
:100010000C946A0D0C946A0D0C946A0D0C946A0D84
:100020000C946A0D0C946A0D0C9446100C946A0D95
:100030000C946A0D0C946A0D0C946A0D0C946A0D64
:100040000C946A0D0C946A0D0C946A0D0C946A0D54
:100050000C946A0D0C946A0D0C946A0D0C946A0D44
:100060000C946A0D0C946A0D0C946A0D0C946A0D34
:100070000C946A0D0C946A0D0C946A0D0C946A0D24
:100080000C946A0D0C946A0D0C946B0D0C94573102
:100090000C946A0D0C946A0D0C946A0D0C946A0D04
:1000A0000C946A0D0C946A0D0C946A0D0C946A0DF4
:1000B0000C946A0D0C946A0D0C946A0D0C94D5285E
:1000C0000C946A0D0C946B2C0C947F0D0C946A0D9F
:1000D0000C946A0D0C946A0D0C946A0D0C946A0DC4
:1000E0000C946A0D0C946A0D0C946A0D0C946A0DB4
:1000F0000C946A0D0C946A0D0C946A0D0C946A0DA4
:100100000C946A0D0C946A0D0C946A0D0C946A0D93
:100110000C94A2320C94462C0C946A0D0C946A0D2B
:100120000C946A0D0C946A0D0C946A0D0C946A0D73
:100130000C946A0D0C946A0D0C946A0D0C943D2875
:100140000C94C10D0C94750D0C9485310C946A0DB2
:100150000C946A0D0C94BD2B0C94C9320C946A0D4E
:100160000C946A0D0C946A0D0C946A0D0C946A0D33
:100170000C946A0D0C946A0D0C946A0D0C946A0D23
:100180000C946A0D0C946A0D0C946A0D0C946A0D13
:100190000C946A0D0C946A0D0C946A0D0C946A0D03
:1001A0000C946A0D0C946A0D0C946A0D0C946A0DF3
:1001B0000C946A0D0C946A0D0C946A0D0C946A0DE3
:1001C0000C946A0D0C946A0D0C946A0D0C946A0DD3
:1001D0000C946A0D0C946A0D0C946A0D0C946A0DC3
:1001E0000C946A0D0C946A0D0C946A0D0C946A0DB3
:1001F0000C946A0D0C946B720C946A0D1E034300F0
:10020000680061006D0065006C0065006F006E00A5
:100210002D004D0069006E00690000002A034B00AC
:10022000610073007000650072002000260020004D
:100230004F007300770061006C00640020004700ED
:100240006D006200480000000403090409023E003A
:10025000020100C03209040000010202010005246D
:10026000001001042402060524060001070582038C
:100270000800FF09040100020A000000070504024B
:10028000100005070583021000051201100102008D
:100290000008D016B20401000102DC01F010F110D8
:1002A000F210F310F410F510F610F710FA10FB101E
:1002B00000000001009629172A362A31364D36579C
:1002C00036F6105836693A7C3A4000070001962904
:1002D000172A362ABB3551365736F6105836693A42
:1002E0007C3AC0000700019629172A362A45364D68
:1002F000365736F6105836693A7C3A5000070001F6
:100300009629172A362A49364D365736F61058366A
:10031000693A7C3AA4000700019629172A362ABCBC
:100320003A073B0B3BF6100C3B03421F42400104D3
:1003300000019629172A362ACB3A073B0B3BF610C9
:100340000C3B03421F4200040400019629172A3681
:100350002ADA3A073B0B3BF6100C3B03421F4200E4
:10036000040700019629172A362AE93A073B0B3B76
:10037000F6100C3B03421F4200100400019629179F
:100380002A362AF83A073B0B3BF6100C3B03421F78
:1003900042001007000183334234633451595F59DE
:1003A000645965596759FA10FB10000000010011EB
:1003B0002B992B072D4D5150515D515E510F54FA21
:1003C00010FB1000000000009629172A362AA25AB6
:1003D000C65ACA5AF610CB5A4F5D625D1C0207001E
:1003E000005860E3601661CC61CF61D261D361D403
:1003F00061A662AD6200200800055860E3601661E6
:10040000F310F410F510F610F710FA10FB100000BE
:100410000001005860E3601661B462B762BA62BB63
:1004200062BC62A364AA6400200800055860E3600F
:10043000166103662466B164B264B364F5653C6614
:100440002C000800055860E36016616E678E67AE89
:1004500067AF673E6C4A6D516DD000080005004ED5
:100460004F4E4500000000000000000000000000AA
:10047000000000000000000000000000000000017B
:100480004D465F554C5452414C494748540000007A
:10049000000000000000000000000000000000005C
:1004A000034D465F554C5452414C494748545F45B3
:1004B00056315F38304200000000000000000000AC
:1004C00000044D465F554C5452414C494748545FD7
:1004D0004556315F31363442000000000000000014
:1004E0000000024D465F554C5452414C4947485418
:1004F0005F4300000000000000000000000000005A
:10050000000000054D465F434C41535349435F4D46
:10051000494E495F34420000000000000000000026
:1005200000000000064D465F434C41535349435F72
:10053000314B00000000000000000000000000003F
:100540000000000000074D465F434C4153534943B0
:100550005F314B5F374200000000000000000000E8
:10056000000000000000084D465F434C41535349D2
:10057000435F344B0000000000000000000000005A
:1005800000000000000000094D465F434C415353FA
:1005900049435F344B5F3742000000000000000019
:1005A00000000000000000000A49534F3134343489
:1005B00033415F534E4946460000000000000000F2
:1005C0000000000000000000000B49534F3134349C
:1005D0003433415F52454144455200000000000061
:1005E000000000000000000000000C4E54414732A3
:1005F0003135000000000000000000000000000095
:1006000000000000000000000000000D56494349B2
:100610004E49545900000000000000000000000096
:100620000000000000000000000000000E49534FD1
:1006300031353639335F534E4946460000000000DD
:10064000000000000000000000000000000F534CFC
:100650003253323030320000000000000000000051
:100660000000000000000000000000000000105426
:100670004954414749545354414E44415244000067
:100680000000000000000000000000000000001159
:10069000454D3432333300000000000000000000FC
:1006A000000000000000000000000000000000004A
:1006B0000100000100010100000101000100000132
:1006C0000001010001000001010000010001010022
:1006D0000001010001000001010000010001010012
:1006E0000100000100010100000101000100000102
:1006F00000010100010000010100000100010100F2
:1007000001000001000101000001010001000001E1
:1007100001000001000101000001010001000001D1
:1007200000010100010000010100000100010100C1
:1007300000010100010000010100000100010100B1
:1007400001000001000101000001010001000001A1
:100750000100000100010100000101000100000191
:100760000001010001000001010000010001010081
:100770000100000100010100000101000100000171
:100780000001010001000001010000010001010061
:100790000001010001000001010000010001010051
:1007A0000100000100010100000101000100000141
:1007B000008040C020A060E0109050D030B070F0B9
:1007C000088848C828A868E8189858D838B878F829
:1007D000048444C424A464E4149454D434B474F459
:1007E0000C8C4CCC2CAC6CEC1C9C5CDC3CBC7CFCC9
:1007F000028242C222A262E2129252D232B272F259
:100800000A8A4ACA2AAA6AEA1A9A5ADA3ABA7AFAC8
:10081000068646C626A666E6169656D636B676F6F8
:100820000E8E4ECE2EAE6EEE1E9E5EDE3EBE7EFE68
:10083000018141C121A161E1119151D131B171F128
:10084000098949C929A969E9199959D939B979F998
:10085000058545C525A565E5159555D535B575F5C8
:100860000D8D4DCD2DAD6DED1D9D5DDD3DBD7DFD38
:10087000038343C323A363E3139353D333B373F3C8
:100880000B8B4BCB2BAB6BEB1B9B5BDB3BBB7BFB38
:10089000078747C727A767E7179757D737B777F768
:1008A0000F8F4FCF2FAF6FEF1F9F5FDF3FBF7FFFD8
:1008B000004E4F4E45000000000000000000000008
:1008C0000000000000000000000000000000000028
:1008D00000015549445F52414E444F4D0000000015
:1008E0000000000000000000000000000000000008
:1008F0000000025549445F4C4546545F494E4352FF
:10090000454D454E5400000000000000000000006E
:10091000000000035549445F52494748545F494E1F
:100920004352454D454E54000000000000000000B9
:1009300000000000045549445F4C4546545F44455F
:100940004352454D454E5400000000000000000099
:100950000000000000055549445F52494748545F74
:1009600044454352454D454E5400000000000000F0
:10097000000000000000064359434C455F534554B6
:1009800054494E47530000000000000000000000E2
:10099000000000000000000753544F52455F4D45D2
:1009A0004D000000000000000000000000000000FA
:1009B000000000000000000008524543414C4C5F1D
:1009C0004D454D0000000000000000000000000048
:1009D00000000000000000000009544F47474C454C
:1009E0005F4649454C440000000000000000000044
:1009F000000000000000000000000A53544F524560
:100A00005F4C4F47000000000000000000000000A5
:100A100000000000000000000000000B434C4F4E9F
:100A20004500000000000000000000000000000081
:100A30000000000000000000000000000C434C4FCC
:100A40004E455F4D465500000000000000000000CC
:100A500000000000000000000000000000004F4601
:100A60004600000000000000000000000000000040
:100A70000000000000000000000000000000014D28
:100A8000454D4F52590000000000000000000000DA
:100A90000000000000000000000000000000000254
:100AA0004C49564500000000000000000000000016
:100AB0000000000000000000000000000000000036
:100AC000004E4F4E450000000000000000000000F6
:100AD0000000000000000000000000000000000016
:100AE0000001504F574552454400000000000000EF
:100AF00000000000000000000000000000000000F6
:100B00000000025445524D494E414C5F434F4E4EFA
:100B100000000000000000000000000000000000D5
:100B2000000000035445524D494E414C5F52585409
:100B3000580000000000000000000000000000005D
:100B4000000000000453455454494E475F43484158
:100B50004E474500000000000000000000000000BB
:100B60000000000000054D454D4F52595F53544F52
:100B7000524544000000000000000000000000009A
:100B8000000000000000064D454D4F52595F43489C
:100B9000414E4745440000000000000000000000F6
:100BA0000000000000000008434F4445435F5258D6
:100BB0000000000000000000000000000000000035
:100BC000000000000000000009434F4445435F540B
:100BD00058000000000000000000000000000000BD
:100BE000000000000000000000074649454C445F3B
:100BF00044455445435445440000000000000000B3
:100C0000000000000000000000000A4C4F474D4566
:100C10004D5F46554C4C00000000000000000000F5
:100C20000000000000000000000000004E4F4E4594
:100C300000000000000000000000000000000000B4
:100C4000000000000000000000000000014F4E0006
:100C50000000000000000000000000000000000094
:100C600000000000000000000000000000024F46ED
:100C7000460000000000000000000000000000002E
:100C80000000000000000000000000000000033130
:100C90000000000000000000000000000000000054
:100CA0000000000000000000000000000000000440
:100CB0003200000000000000000000000000000002
:100CC0000000000000000000000000000000000024
:100CD00005330000000000000000000000000000DC
:100CE0000000000000000000000000000000000004
:100CF00000063400000000000000000000000000BA
:100D000000000000000000000000000000000000E3
:100D10000000073500000000000000000000000097
:100D200000000000000000000000000000000000C3
:100D300000000025632C25630025356400416E7991
:100D400020696E74656765722066726F6D20302051
:100D5000746F2025752E205265666572656E636519
:100D600020766F6C746167652077696C6C206265B2
:100D70002028564343202A205448524553484F4C7C
:100D800044202F203430393529206D562E0025750A
:100D9000002535640030203D206E6F2074696D653C
:100DA0006F75740D0A312D363030203D20313030D2
:100DB000206D73202D203630303030206D7320743C
:100DC000696D656F7574002575206D730025342E6F
:100DD000345800253575206D56002575202866721B
:100DE0006F6D207768696368202575206E6F6E2DA2
:100DF000766F6C6174696C65290025750025750036
:100E000025632C25630052414E444F4D004E4F2028
:100E10005549442E004368616D656C656F6E4D6980
:100E20006E692052657647202553207573696E6779
:100E3000204C55464120255320636F6D70696C65C9
:100E4000642077697468204156522D47434320251A
:100E5000532E204261736564206F6E207468652094
:100E60006F70656E2D736F75726365204E464320FB
:100E7000746F6F6C204368616D656C656F6E4D6952
:100E80006E692E2068747470733A2F2F67697468C6
:100E900075622E636F6D2F656D7365632F43686197
:100EA0006D656C656F6E4D696E6920636F6D6D6900
:100EB0007420255300323030393131003135313131
:100EC000313500342E392E3200616134326564329E
:100ED000000D0A000D0A000D0A000D0A000D0A009F
:100EE0000D0A00643130303A4F4B00000000000022
:100EF00000000000000000000000000000000000F2
:100F000000000000653130313A4F4B2057495448BA
:100F1000205445585400000000000000000000006C
:100F200000000000006E3131303A57414954494EBB
:100F30004720464F5220584D4F44454D0000000079
:100F4000000000000000C83230303A554E4B4E4F82
:100F5000574E20434F4D4D414E44000000000000CD
:100F600000000000000000C93230313A494E5641BD
:100F70004C494420434F4D4D414E44205553414729
:100F80004500000000000000CA3230323A494E5697
:100F9000414C494420504152414D45544552000076
:100FA000000000000000000000783132303A464175
:100FB0004C5345000000000000000000000000004D
:100FC00000000000000000000000793132313A5486
:100FD0005255450000000000000000000000000025
:100FE0000000000000000000000000CB3230333A67
:100FF00054494D454F5554000000000000000000CA
:1010000000000000000000000000000056455253A0
:10101000494F4E00000000000000000000000000EA
:101020000000831D434F4E4649470000000000006A
:101030000000000000000000AB1DA51D5549440044
:1010400000000000000000000000000000000000A0
:101050000C1ECD1D524541444F4E4C59000000001E
:101060000000000000000000711E651E55504C4F2E
:101070004144000000000000000000009E1E00002F
:1010800000000000444F574E4C4F41440000000008
:1010900000000000A31E0000000000005245534560
:1010A000540000000000000000000000A81E000026
:1010B0000000000055504752414445000000000028
:1010C00000000000B31E0000000000004D454D531D
:1010D000495A450000000000000000000000000028
:1010E0000000BE1E55494453495A45000000000007
:1010F00000000000000000000000D61E52425554BF
:10110000544F4E00000000000000000000000000EE
:10111000F31EEC1E52425554544F4E5F4C4F4E47F7
:1011200000000000000000000F1F081F4C42555433
:10113000544F4E00000000000000000000000000BE
:101140002B1F241F4C425554544F4E5F4C4F4E475B
:101150000000000000000000471F401F4C454447AE
:101160005245454E00000000000000000000000055
:10117000631F5C1F4C4544524544000000000000C2
:1011800000000000000000007F1F781F50494E0043
:10119000000000000000000000000000000000004F
:1011A000991F941F4C4F474D4F44450000000000CD
:1011B0000000000000000000B21FAD1F4C4F474D63
:1011C000454D00000000000000000000000000008D
:1011D0000000C71F4C4F47444F574E4C4F414400EF
:1011E00000000000EC1F0000000000004C4F4753BF
:1011F000544F52450000000000000000F11F0000A5
:10120000000000004C4F47434C4541520000000095
:1012100000000000F41F000000000000534554547B
:10122000494E4700000000000000000000000000E0
:10123000FC1FF71F434C4541520000000000000016
:1012400000000000042000000000000053544F5232
:101250004500000000000000000000000820000021
:1012600000000000524543414C4C000000000000CB
:10127000000000000C200000000000004348415224
:1012800047494E4700000000000000000000000039
:101290000000102048454C500000000000000000F5
:1012A00000000000182000000000000052535349C5
:1012B000000000000000000000000000000000002E
:1012C000000054205359535449434B000000000080
:1012D00000000000000000000000872053454E443D
:1012E0005F524157000000000000000000002D2167
:1012F0000000000053454E440000000000000000C4
:10130000000000000000A3200000000047455455E5
:10131000494400000000000000000000002200001E
:101320000000000044554D505F4D46550000000040
:1013300000000000CC21000000000000434C4F4E94
:10134000455F4D465500000000000000E921000007
:10135000000000004944454E544946590000000031
:10136000000000001D2200000000000054494D450F
:101370004F55540000000000000000000000000075
:101380005A223A225448524553484F4C44000000D8
:101390000000000000000000C722AD224155544F5C
:1013A00043414C494252415445000000562300003D
:1013B000000000004649454C4400000000000000C9
:1013C00000000000000000001C234623434C4F4E49
:1013D0004500000000000000000000008223000023
:1013E00000000000000000000000000000000000FD
:1013F00000000000000000000000000053414B3AD4
:1014000009005549443A0900415451413A090054F0
:1014100068657265206973206174206C65617374FE
:10142000206F6E65206D6F72652063617264207439
:101430007970652063616E6469646174652C2062F3
:10144000757420746865726520776173206E6F749F
:1014500020656E6F756768207465726D696E616C6A
:10146000206275666665722073706163652E0D0A71
:10147000000D0A0004000109010000000000000046
:1014800000000000000000000000004E5850000066
:1014900000000000000000000000004D49464152DD
:1014A00045204D696E69000000000000000000004A
:1014B000000000000000000000000000000000002C
:1014C000000000000000000000000000000000001C
:1014D00000000000000000000000000400010801FE
:1014E00000000000000000000000000000000000FC
:1014F00000004E58500000000000000000000000F6
:1015000000004D494641524520436C617373696345
:1015100020316B000000000000000000000000000F
:1015200000000000000000000000000000000000BB
:1015300000000000000000000000000000000000AB
:10154000000002000118010000000000000000007F
:101550000000000000000000004E58500000000095
:101560000000000000000000004D494641524520A7
:10157000436C617373696320346B000000000000EA
:10158000000000000000000000000000000000005B
:10159000000000000000000000000000000000004B
:1015A00000000000000000000044000100010000F5
:1015B000000000000000000000000000000000002B
:1015C0004E58500000000000000000000000000025
:1015D0004D494641524520556C7472616C6967688B
:1015E0007400000000000000000000000000000087
:1015F00000000000000000000000000000000000EB
:1016000000000000000000000000000000000000DA
:101610004403012001757781028000000000000072
:10162000000000000005004E5850000000000000BF
:10163000000000000000004D49464152452044454D
:1016400053466972650000000000000000000000C1
:10165000000000000000000000000000000000008A
:10166000000000000000000000000000000000007A
:101670000000000000000044030120017577810292
:1016800080000000000000000000000005004E582F
:1016900050000000000000000000000000004D4964
:1016A00046415245204445534669726520455631AE
:1016B000000000000000000000000000000000002A
:1016C000000000000000000000000000000000001A
:1016D0000000000000000000000000000000040303
:1016E0000128013877B14A434F50333100000000E0
:1016F000000000090149424D000000000000000008
:1017000000000000004A434F503331000000000049
:1017100000000000000000000000000000000000C9
:1017200000000000000000000000000000000000B9
:1017300000000000000000000000000000000000A9
:10174000000000000048000120017877B1024A4300
:101750004F5076323431000000000C0149424D00F8
:101760000000000000000000000000004A434F504D
:1017700033312076322E342E31000000000000007C
:101780000000000000000000000000000000000059
:101790000000000000000000000000000000000049
:1017A00000000000000000000000000048000120D0
:1017B000013833B14A434F503431563232000000C1
:1017C000000C0149424D0000000000000000000034
:1017D0000000004A434F5034312076322E32000050
:1017E00000000000000000000000000000000000F9
:1017F00000000000000000000000000000000000E9
:1018000000000000000000000000000000000000D8
:1018100000000004000128013833B14A434F50341E
:1018200031563233310000000D0149424D000000B5
:10183000000000000000000000004A434F50343117
:101840002076322E332E3100000000000000000010
:101850000000000000000000000000000000000088
:101860000000000000000000000000000000000078
:1018700000000000000000000000040001880100DA
:101880000000000000000000000000000000000058
:1018900000496E66696E656F6E0000000000000012
:1018A000004D494641524520436C61737369632082
:1018B000316B00000000000000000000000000008C
:1018C0000000000000000000000000000000000018
:1018D0000000000000000000000000000000000008
:1018E000000200019801000000000000000000005C
:1018F000000000000000000047656D706C7573000B
:1019000000000000000000004D50434F5300000055
:1019100000000000000000000000000000000000C7
:1019200000000000000000000000000000000000B7
:1019300000000000000000000000000000000000A7
:101940000000000000000000000C0100000000008A
:10195000000000000000000000000000000000493E
:101960006E6E6F766973696F6E2052265400004A5E
:101970006577656C000000000000000000000000BA
:101980000000000000000000000000000000000057
:101990000000000000000000000000000000000047
:1019A0000000000000000000000000000000000235
:1019B00000013801000000000000000000000000ED
:1019C0000000000000004E6F6B6961000000000025
:1019D0000000000000004D494641524520436C6123
:1019E0007373696320346B202D20656D756C617491
:1019F000656420283632313220436C617373696329
:101A000029000000000000000000000000000000AD
:101A10000000000000000800013801000000000084
:101A2000000000000000000000000000004E6F6B8E
:101A3000696100000000000000000000004D494600
:101A400041524520436C617373696320346B202DD0
:101A500020656D756C6174656420283631333120E2
:101A60004E46432900000000000000000000000076
:101A70000000000000000000000000000063646936
:101A80006E6F70737578585B000011241FBECFEF26
:101A9000CDBFDFE3DEBF00E00CBF18BE19BE1ABE2B
:101AA0001BBE14E2A0E0B0E2E4EFF8EF00E00BBFF1
:101AB00002C007900D92A03BB107D9F71BBE27E3E8
:101AC000A0EBB4E201C01D92AE3DB207E1F7DDD15B
:101AD0000C94787CD2C2EF93FF93E091D42CF091D8
:101AE000D52C0995FF91EF911895EF93FF93E09115
:101AF000D62CF091D72C0995FF91EF911895EF9383
:101B0000FF93E091D82CF091D92C0995FF91EF919A
:101B100018953BB78BBFFB01879196913BBF08950A
:101B20003BB78BBFCB0142E20D94F00F3BB70B01EB
:101B300043E20D94F00F3BB78BBFCB0145E20D9410
:101B4000F00F3BB746E208C02091CF0127FDFCCF44
:101B500022272093CA0108954093CA0128ED31E05D
:101B6000209334003093CB016091C4017091C50182
:101B70008091C60199270895FC014093CA01849180
:101B800008950F9200240F932F933F934F935F93E9
:101B90000FB70F93EF93FF93EAB1FBB15191442735
:101BA00035B124B1569578F400928C080092000863
:101BB00006E10A95F1F700C001E00093000803E098
:101BC00000938C0804C00AE10A95F1F70000215047
:101BD000304019F40E94AB2B0CC04F5F477011F4DA
:101BE000519102C000C000C00AE00A95F1F700C0A0
:101BF000D9CFFF91EF910F910FBF5F914F913F911F
:101C00002F910F910F901895F190E190D190C19084
:101C1000B190A190919081900B941B942B943B9444
:101C20004B945B946B947B948B949B94AB94BB94FC
:101C3000CB94DB94EB94FB940895F801D894E4DF03
:101C40005894E2DFD894E0CFF801D894DDDF5894BF
:101C5000DBDFF801D894D8CFF801D894D5CFF801BC
:101C60005894D2CFF80170965894CEDFF801389688
:101C7000D894CADFF8015894C7CFF8015894C4DF4C
:101C8000D894C2DFF8015894BFCFFF90EF90DF9057
:101C9000CF90BF90AF909F908F907F906F905F900C
:101CA0004F903F902F90112408952F923F924F9282
:101CB0005F926F927F928F929F92AF92BF92CF92DC
:101CC000DF92EF92FF920F931F93FB01719061904F
:101CD0005190419031902190119001908A01CDDF77
:101CE000FC01719261925192419231922192119232
:101CF00001921F910F91C9CF2F923F924F925F9205
:101D00006F927F928F929F92AF92BF92CF92DF920B
:101D1000EF92FF920F931F93FC017190619051908D
:101D2000419031902190119001908A018DDFFB014B
:101D3000719261925192419231922192119201924B
:101D40001F910F91A2CF2F923F924F925F926F926D
:101D50007F928F929F92AF92BF92CF92DF92EF923B
:101D6000FF92CF93DF93EB01DA01BF01F90171908C
:101D70006190519041903190219011900190F99093
:101D8000E990D990C990B990A990999089907F24B1
:101D90006E245D244C243B242A2419240824FB01AE
:101DA00009957D926D925D924D923D922D921D927C
:101DB0000D92019721F7D9017D926D925D924D921E
:101DC0003D922D921D920D92DF91CF915ECF2F9279
:101DD0003F924F925F926F927F928F929F92AF92BB
:101DE000BF92CF92DF92EF92FF92CF93DF93EB01FE
:101DF000DA01BF01788069805A804B803C802D8059
:101E00001E800F80FB010995F901F190E190D190BE
:101E1000C190B190A190919081907F246E245D2417
:101E20004C243B242A2419240824F990E990D990C1
:101E3000C990B990A99099908990F901F192E19295
:101E4000D192C192B192A192919281927D926D9222
:101E50005D924D923D922D921D920D92019751F6F9
:101E6000DF91CF9112CFFEE0E4E26DCFFEE0E4E23D
:101E7000AECFFEE0EDE367CFFEE0EDE3A8CFFEE0FE
:101E8000EDE161CFFEE0E2E3A2CF19D10E94521A48
:101E90000E94EE1A0E94D31BCBD21092520684E00D
:101EA0008093420682E680938601C1E0C0932606B5
:101EB000C093210686E080932206C093310612E08B
:101EC0001093320610922A0610922B068FE0809310
:101ED000290689E5809380019AE59093810180939A
:101EE000820180E480934106809346069091B2007F
:101EF000907F9093B2009091B20092609093B20064
:101F000090E3909341069093460680935006C093C9
:101F100046061093450603E00093410683E1809353
:101F2000010821E030E02093260830932708209311
:101F300028083093290810928C088093800810920A
:101F4000230310922103D8E0D093220381E18093F0
:101F50002003E091D72EF091D82E8285938580932F
:101F60003803909339038CE380938203D0938003EA
:101F700080938303D093810371D10E94E61CC2D168
:101F800057D7C093000210920102109302020093EF
:101F90000402C0932002D09321020E94DD181BD1BD
:101FA000D2E0C1E18091030481FF27C08091010448
:101FB00080FDFCCFD09303040E94F21A0E94D41B30
:101FC000B6D10E94191D3CD70E944D1AE091C72E30
:101FD000F091C82E19950E9472260E94831CE091F0
:101FE000D72EF091D82E8781813011F4C093B92C6F
:101FF0008681813011F4C093B82C0E94EA1CDED790
:10200000E091C52EF091C62E1995E091BF2EF0916A
:10201000C02E1995C7CF292F33272230310559F00B
:102020002330310569F021303105F9F482E190E087
:102030002AE832E01EC08EE390E02CE432E019C0C2
:1020400099278130910541F08230910541F0892B2B
:1020500061F4E8E4F2E005C0ECE1F2E002C0ECEF8C
:10206000F1E0849190E09F0104C080E090E020E0E6
:1020700030E0FA012083318308951F920F920FB64A
:102080000F92112408B60F9218BEFFCF1F920F9225
:102090000FB60F92112408B60F9218BE8F939F931C
:1020A0008EB19FB180589F4F8EB99FB99F918F91EC
:1020B0000F9008BE0F900FBE0F901F901895809143
:1020C000780083FF0AC088E08093780088ED84BFA1
:1020D00081E0809380000D94FE008BEC8093520091
:1020E000809150008860809350008091510083FF60
:1020F000FCCF82EC809355008091500080618093EA
:1021000050008091510084FFFCCF88ED84BF84E0B3
:10211000809340001EB81FB881E0809343002FE7F2
:1021200030E020930A0430930B0420930C04309386
:102130000D04809300048093020480E880930001E2
:10214000089588ED84BF81E080937900089588ED3B
:1021500084BF8BE18093800008958091500082605D
:10216000809350008091510081FFFCCF82E08093EA
:10217000CA01EDE1F0E0E491E0936200ECE1F0E00F
:10218000E491E09363001092CA0180E880936500B7
:102190008BEB8093660080915600897F8093560078
:1021A0008091560084608093560080916000816029
:1021B000809360000895E0E4F0E084818E7F848362
:1021C000E0E6F0E080818E7F8083E0E5F0E08081D2
:1021D0008D7F8083089587E08093A200789408958E
:1021E000089508950895089508950895089580E044
:1021F00090E00895089508950F931F93CF93DF9370
:102200001F92CDB7DEB70BEB1EE2D8011296ED910F
:10221000FC911397898319950E94AA26E091D72EE5
:10222000F091D82E89818583B9E18B9FB00111246B
:1022300064567D4F49E150E0C8010E945075D801B5
:10224000ED91FC911995D8011696ED91FC91179797
:102250000F90DF91CF911F910F91199449E150E0B8
:102260006CE972E08BEB9EE20E945075E091D72EF4
:10227000F091D82E8581C0CF0F931F93E091D72E78
:10228000F091D82E8B019C01458162E18EE594E0AE
:102290000E94201C1F910F910895FF920F931F938E
:1022A000CF93DF931F92CDB7DEB78C019E012F5FD6
:1022B0003F4FAC0162E18EE594E00E94381CF82E9D
:1022C000882389F0898198DFF80140E08191882393
:1022D00019F04F5F4F31D1F7E091D42EF091D52E08
:1022E000B80181E119958F2D0F90DF91CF911F914A
:1022F0000F91FF9008959B01AC0162E18EE594E09F
:102300000C945F1C08950C94427508951F93CF930D
:10231000DF93C82FD92F162F180F1C1721F00E94FA
:1023200042758993FACFDF91CF911F9108950E9452
:1023300042750E9442750E9442750C944275EF925C
:10234000FF920F931F93CF93DF937C01615071092C
:10235000FA018A01020F131FDC0140E050E0E01790
:10236000F107F1F062307105D8F09191392F329573
:102370003F703A3010F4305D01C0395C3C939F707F
:102380009A3010F4905D01C0995C9701240F351FBD
:10239000E90199831296625071094E5F5F4FDFCF5A
:1023A0001C92CA01DF91CF911F910F91FF90EF9086
:1023B0000895CF93DF93EC01DA01E0E0F0E04C9177
:1023C000442391F111969C911197992339F1E617C5
:1023D000F70721F180ED840F8A3020F08FEB840F16
:1023E0008630D0F480ED890F8A3020F02FEB290F52
:1023F000263090F4242F30E0413410F02753310977
:102400002295207F913410F4982F01C09753292BE7
:10241000299331961296D3CF80E004C011968C9107
:10242000811102C090E001C0CF01DF91CF910895EA
:10243000E0E6F6E080E1858382E0868388E08583BC
:102440008AE18183E0EAF9E01682178280EC8583D5
:1024500088E18483E0E0F1E0128A8BE6838B148AC2
:10246000158A20EA208F99E0918F128E148E158E96
:10247000168E84E0808B12A23CE633A314A215A230
:1024800010A611A612A624A795A716A680A30895A4
:102490004115510509F449C020E12093660623E067
:1024A0002093A0092091A10927FFFCCF2091A0092A
:1024B0007093A0092091A10927FFFCCF2091A009CA
:1024C0006093A0092091A10927FFFCCF2091A009CA
:1024D00021E02093120180931C0190931D014093F1
:1024E0001401509315011092220180EB94E2809325
:1024F0002801909329014093240150932501809154
:102500001001806880931001809120018068809381
:1025100020018091100187FDFCCF80E380931101A1
:102520008093210180E1809365060895411551054E
:1025300009F469C020E12093660626E02093A009F3
:102540002091A10927FFFCCF2091A00920E1209331
:102550006506000000002093660622E02093A00993
:102560002091A10927FFFCCF2091A0097093A00919
:102570002091A10927FFFCCF2091A0096093A00919
:102580002091A10927FFFCCF2091A00910921201F0
:1025900020EB34E220931C0130931D014093140181
:1025A0005093150120E120932201809328019093FC
:1025B00029014093240150932501809110018068E6
:1025C0008093100180912001806880932001809188
:1025D000100187FDFCCF80E38093110180932101DE
:1025E00080E180936506E091D72EF091D82E878107
:1025F000863019F481E18093B92C8681863019F4F4
:1026000081E18093B82C0895CF92DF92EF92FF92F0
:10261000CF93DF93C090D62ED12CE12CF12C8DE0FE
:10262000CC0CDD1CEE1CFF1C8A95D1F7C114D10423
:1026300081E0E806F10408F04EC080E18093660670
:1026400086E08093A0098091A10987FFFCCF80914B
:10265000A00980E180936506000000008093660673
:1026600082E08093A0098091A10987FFFCCF80912F
:10267000A0091092A0098091A10987FFFCCF809149
:10268000A0091092A0098091A10987FFFCCF8FEFCC
:10269000E81AF80A8091A009C0E0D0E1C701B601AC
:1026A00038DA8093A0098091A10987FFFCCF80913F
:1026B000A0099093A0098091A10987FFFCCF809188
:1026C000A00982E0C80ED11CE11CF11C219731F752
:1026D00080E1809365068091010480FDFCCF82E05B
:1026E00080930304DF91CF91FF90EF90DF90CF9024
:1026F0000895CF92DF92EF92FF92CF93DF93C09035
:10270000D62ED12CE12CF12C8DE0CC0CDD1CEE1C56
:10271000FF1C8A95D1F7C114D10481E0E806F104C9
:1027200038F0DF91CF91FF90EF90DF90CF906CCF9A
:102730008FEFE81AF80AC1E2D0E0219791F304DAAA
:10274000C701B601EDD900DA8FEFD81AE80AF80A06
:10275000F4CFCF92DF92EF92FF920F931F93CF931C
:10276000DF93C090D62ED12CE12CF12C8DE0CC0C37
:10277000DD1CEE1CFF1C8A95D1F7C114D10481E049
:10278000E806F10408F04FC080E18093660683E01C
:102790008093A0098091A10987FFFCCF8091A009B7
:1027A0001092A0098091A10987FFFCCF8091A00918
:1027B0001092A0098091A10987FFFCCF8FEFE81A42
:1027C000F80A8091A009C1E2D0E0219749F1BCD973
:1027D000B8D9BAD900E010E01092A0098091A109FF
:1027E00087FFFCCF6091A00970E01092A009809152
:1027F000A10987FFFCCF8091A009782BC80196D949
:10280000A3D90E5F1F4F011581E0180729F7C701F3
:10281000B60191D999D98FEFD81AE80AF80AD5CF1D
:1028200080E180936506E091D72EF091D82E8781C4
:10283000863019F490E19093B92C9681963049F442
:1028400020E12093B82C853059F483E18093B92C92
:1028500002C08530D1F3953019F483E18093B82C10
:102860008091010480FDFCCF82E080930304DF911E
:10287000CF911F910F91FF90EF90DF90CF9008952F
:10288000CF92DF92EF92FF920F931F934115E0E2F8
:102890005E076105710508F06BC06901E12CF12C40
:1028A00000E010E220E030E0041B150B260B370B94
:1028B000C016D106E206F30610F49701860120E166
:1028C0002093660626E02093A0092091A10927FF06
:1028D000FCCF2091A00920E12093650600000000B4
:1028E0002093660622E02093A0092091A10927FFEA
:1028F000FCCF2091A0095093A0092091A10927FFA6
:10290000FCCF2091A0094093A0092091A10927FFA5
:10291000FCCF2091A0091092120120EB34E2209309
:102920001C0130931D01009314011093150120E147
:102930002093220180932801909329010093240180
:10294000109325018091100180688093100180917F
:1029500020018068809320018091100187FDFCCFC9
:1029600080E3809311018093210180E180936506CB
:1029700081E01F910F91FF90EF90DF90CF9008952D
:10298000CF92DF92EF92FF920F931F934115E0E2F7
:102990005E076105710508F05DC06901E12CF12C4D
:1029A00000E010E220E030E0041B150B260B370B93
:1029B000C016D106E206F30610F49701860120E165
:1029C0002093660623E02093A0092091A10927FF08
:1029D000FCCF2091A0095093A0092091A10927FFC5
:1029E000FCCF2091A0094093A0092091A10927FFC5
:1029F000FCCF2091A00921E02093120180931C01BB
:102A000090931D010093140110931501109222015F
:102A100080EB94E280932801909329010093240194
:102A2000109325018091100180688093100180919E
:102A300020018068809320018091100187FDFCCFE8
:102A400080E3809311018093210180E180936506EA
:102A500081E001C080E01F910F91FF90EF90DF9027
:102A6000CF9008958091CF0187FDFCCF0895FADFC4
:102A70008091CF0181FF0BC086E38093CA01EBEC0C
:102A8000F1E021E030E088ED90E084BF20830895FC
:102A9000EF92FF920F931F93CF93DF931F921F929A
:102AA000CDB7DEB77C018A011092C20169837A83B7
:102AB000D9DF6981A62F7A81B72FC701800F911FB7
:102AC00026E048ED50E061E070E0EBECF1E0E81664
:102AD000F90689F0E092C0013F2D3F713093C101AA
:102AE0002093CA0144BF60833091C4013D933FEFFE
:102AF000E31AF30AECCFC8010F900F90DF91CF914A
:102B00001F910F91FF90EF9008952F923F924F9257
:102B10005F926F927F928F929F92AF92BF92CF926D
:102B2000DF92EF92FF920F931F93CF93DF9300D02A
:102B3000CDB7DEB76A01282F2F711C01221A310888
:102B400029836A837B8393DF8DDF83E38093CA01CC
:102B50001092C1011092C2016A81E62E7B81F72E8C
:102B6000860185E3582E98ED892E912C6624639476
:102B7000712C3BECA32EBB24B39443E3442E298158
:102B80000115110509F12093C001F70181917F0121
:102B90008093C4010150110919F02F5F203281F791
:102BA0002092C001832D8F718093C1015092CA0180
:102BB000C401F50184BF608290E2290E311C52DF0E
:102BC0004092CA0120E0DCCFC6012396CDBFDEBF14
:102BD000DF91CF911F910F91FF90EF90DF90CF90F9
:102BE000BF90AF909F908F907F906F905F904F902D
:102BF0003F902F9008951F93CF93DF93CDB7DEB70B
:102C0000A097CDBFDEBF863009F4F2C0D8F4833080
:102C100009F472C030F4813061F1823009F440C0AF
:102C200000C1843009F48DC0853009F0FAC0E0910C
:102C3000CB2EF091CC2ECE01019619958091D12EFC
:102C400041E0ABC0893009F4D7C040F4873009F4C3
:102C5000D1C0883009F0E5C0D7DCE3C08B3009F47F
:102C6000D6C008F4D2C08C3009F0DBC08EEC93E201
:102C7000D0C010E08091D12E181750F444DBE1E071
:102C8000F0E0EC0FFD1FE10FF11D80831F5FF2CF1D
:102C90008091D32E853009F098C080EE898395C04D
:102CA00011E08091D12E873009F010E0E091CB2E19
:102CB000F091CC2ECE01019619954091D12E31E0A4
:102CC000141708F082C03323A9F0812F90E0E1E0CF
:102CD000F0E0EC0FFD1FE80FF91F208131E02F3FDE
:102CE00009F030E0E1E0F0E0EC0FFD1FE80FF91F24
:102CF0002F5F20831F5FE4CFE091CB2EF091CC2E8D
:102D0000CE01019619958091D12E41E0815008F4B1
:102D10005CC04423D9F3282F30E0E1E0F0E0EC0F71
:102D2000FD1FE20FF31F908141E09F3F09F040E05B
:102D3000E1E0F0E0EC0FFD1FE20FF31F9F5F9083D7
:102D4000E5CF11E08091D12E873009F010E0E091BD
:102D5000CB2EF091CC2ECE01019619954091D12E1B
:102D600031E0141790F53323A1F0812F90E0E1E0DA
:102D7000F0E0EC0FFD1FE80FF91F208131E0211179
:102D800030E0E1E0F0E0EC0FFD1FE80FF91F21500B
:102D900020831F5FE6CF411103C08150E0F715C0CB
:102DA000282F30E0E1E0F0E0EC0FFD1FE20FF31F11
:102DB000908141E0911140E0E1E0F0E0EC0FFD1F77
:102DC000E20FF31F91509083E8CFE091CD2EF09168
:102DD000CE2ECE0101961995E091D42EF091D52EEC
:102DE0004091D12EBE016F5F7F4F83E1199519C0CD
:102DF000BFD317C0AEDC15C080910008813061F4EC
:102E000080918C08833041F40AC0B9D20AC088ECA2
:102E100093E20E94A82505C00E94362702C00E94A6
:102E20005B27A096CDBFDEBFDF91CF911F910895A4
:102E3000E0E0F6E080E6828388E1868B858B08956A
:102E4000CF93C0910806C095C6FF12C08091B224EE
:102E50008A3050F08A30E1F4E091D72EF091D82EEC
:102E60008181C9DE8091B2248F5F8093B22410C02B
:102E70008C2F807669F48091B22481508A3030F4AE
:102E8000E091D72EF091D82E8081B5DE1092B22439
:102E9000C5FF12C08091B1248A3050F08A30D9F435
:102EA000E091D72EF091D82E8381A5DE8091B124B8
:102EB0008F5F8093B1240FC0C07669F48091B124F4
:102EC00081508A3030F4E091D72EF091D82E828153
:102ED00092DE1092B124CF9108959B01AC016DE078
:102EE00080EB98E0ECC420E030E090E0F901E80FDE
:102EF000F91FEA52F14D6383245F3F4F20363105BD
:102F0000A9F708950F931F939B01E091D72EF0919D
:102F1000D82EE80FF11D8A0140816DE080EB98E02A
:102F20008FD41F910F9108950F931F93CF93DF9329
:102F30001F92CDB7DEB7082FAB019E012F5F3F4F29
:102F40006DE080EB98E094D4182F882319F0698104
:102F5000802FC9DF812F0F90DF91CF911F910F91AB
:102F600008950895EF92FF920F931F93CF937B01E3
:102F7000C42F2EB13FB10091080410910904022B17
:102F8000132B682F83E090E20E9456736C2F83E02E
:102F900090E20E945673612F83E090E20E94567384
:102FA000602F83E090E20E9456736C2F70E0C7019F
:102FB000CF911F910F91FF90EF9002C508953F921E
:102FC0004F925F926F927F928F929F92AF92BF9239
:102FD000CF92DF92EF92FF920F931F93CF93DF93E5
:102FE0007C01E901C0900020D09001209601225080
:102FF0003843C901A0E0B0E0481759076A077B07CA
:1030000008F05CC0E2E0CE1AE0E4DE0A2A013B01EF
:103010004C0E5D1E611C711C481659066A067B0623
:1030200048F0241B350B8E01021B130BE9013324DE
:10303000339403C000E010E0312C4601A12CB12CE8
:10304000481559056A057B0510F5CA018E5F9F4B2F
:103050002A013B014C0E5D1E611C711C4814590471
:103060006A047B0428F4AE01BC01C70111DA18C060
:10307000C41AD50AA601BC01C7010ADAAE014C196F
:103080005D0968EB74E2C7018C0D9D1D07C04C19EA
:103090005D09BA0168547B4DAE01C7010E947E757F
:1030A000311002C081E00BC001501109D8F3F801C2
:1030B000EC0FFD1FEE0DFF1D1082F6CF80E0DF91BB
:1030C000CF911F910F91FF90EF90DF90CF90BF9025
:1030D000AF909F908F907F906F905F904F903F90B8
:1030E00008952091B4243091B52480E098E0821BAB
:1030F000930BE8EBF4E29F01285B34422817390771
:1031000010F41192F8CF88EB94E28093B624909358
:10311000B72480E098E08093B4249093B52482E0B3
:1031200090E4809300209093012042E050E060E022
:1031300070E480E090E2FAD9E091D72EF091D82E99
:1031400087818A3019F480E18093B92C86818A3096
:1031500019F480E18093B82C08958091B424909163
:10316000B52490582091002030910120821B930BB0
:10317000089520E030E0F901EA52F14D8783245FA1
:103180003F4F20363105B9F7813049F018F08230D1
:1031900059F008951092B32481EB97E109C0809310
:1031A000B32488E399E104C01092B32482EB97E141
:1031B0008093D42E9093D52E08950F931F93CF9381
:1031C000DF931F92CDB7DEB7E091D72EF091D82EC6
:1031D0008481CFDF88EB94E28093B6249093B72468
:1031E00000E018E00093B4241093B52441E050E0CF
:1031F000BE016F5F7F4F80E090E04ADCE091B62433
:10320000F091B724DF01C8011D920197E9F7898188
:10321000882341F042E050E060E070E480E090E21A
:1032200037D917C082E090E480930020909301206A
:1032300042E050E060E070E480E090E277D981E025
:10324000898341E050E0BE016F5F7F4F80E090E0F6
:103250005CDCE091D42EF091D52E40E060E070E08F
:103260008FEF19950F90DF91CF911F910F910895D6
:103270000F931F93CF93DF93AEB1BFB1C0910804FA
:10328000D09109042091B4243091B524E42FF0E0CA
:103290008F010C5F1F4F2017310758F1CA2BDB2B12
:1032A000245031092E1B3F0B2093B4243093B524B6
:1032B000A091B624B091B7248C9311964C9311979A
:1032C0001296DC931297CD0104968093B6249093C6
:1032D000B7241396CC93DB01EC01415018F02D91EB
:1032E0002993FBCFE80FF91FE093B624F093B7249E
:1032F00012C080E03EDFE091D72EF091D82E87817A
:103300008A3019F481E18093B92C86818A3019F4CE
:1033100081E18093B82CDF91CF911F910F91089597
:103320001F93CF93DF931F92CDB7DEB79E012F5F20
:103330003F4FAC0163E08DE59AE09AD2182F8823C5
:1033400011F0898116DF812F0F90DF91CF911F91AE
:1033500008950F931F93E091D72EF091D82E8B01F3
:103360009C01448163E08DE59AE06AD21F910F9140
:1033700008959B01AC0163E08DE59AE0A0C2EF9255
:10338000FF920F931F93CF93DF938091B42490917A
:10339000B524811528E0920708F078C0009100203C
:1033A00010910120C0E0D0E8C01BD10BE12C28E037
:1033B000F22EA701481B590BC417D50760F1B801BD
:1033C00088EB94E2B3D82091B4243091B524809155
:1033D000002090910120985F821B930B8093002026
:1033E00090930120E21AF30AE8EBF4E2CF01885B44
:1033F00094428E159F0510F41192F8CF88EB94E259
:103400008093B6249093B72480E098E08093B4240E
:103410009093B5242EC02097C9F1AE01B80188EB76
:1034200094E284D8A8015857BE0168547B4D88EBBC
:1034300094E20E9487758091B6249091B7248C1BEA
:103440009D0B8093B6249093B7248091B4249091DF
:10345000B5248C0F9D1F8093B4249093B524809144
:10346000002090910120C80FD91FC0930020D09355
:10347000012042E050E060E070E480E090E2DF9103
:10348000CF911F910F91FF90EF9050C8DF91CF9196
:103490001F910F91FF90EF9008958091B3248111B7
:1034A0006ECF089543E650E066ED7EE281E090E065
:1034B000EFCA43E650E066ED7EE281E090E025CB86
:1034C0000F931F93CF93DF93CFEFC80FC83008F04F
:1034D00047C0D82F0E94AA268091D62EC81779F10E
:1034E00038D9C093D62E8CE0C89F90011124275262
:1034F000314D2093D72E3093D82E86D8E091D72EF9
:10350000F091D82E85810E94FC10E091D72EF09189
:10351000D82E84812EDE01E010E0065D1E4260910F
:10352000D62EC8018A52914D0E940A7C6091D72EF6
:103530007091D82EC8018952914D0E94137C8FE161
:103540008D0FE091D72EF091D82E9781943011F401
:103550008093B92C9681943029F48093B82C02C0C2
:1035600080E001C081E0DF91CF911F910F9108951C
:103570008091D62E99E04CE0915099F0282F30E0C0
:103580002F5F3F4F27703327822F429FF001439FC9
:10359000F00D1124EA52F14D2085222369F38F5F4B
:1035A0008FCF0895FC019091D62E9F5C908311825D
:1035B0000895CF93FC01C081818181110CC0BF01AE
:1035C000E091D42EF091D52E41E082E1199580ED65
:1035D0008C0FCF9175CF80E0CF91089588E18093D3
:1035E000010608958091B82C823191F030F4803139
:1035F000B9F050F48823A9F132C0833169F090EE1C
:10360000980F983088F02BC088E08093050627C07B
:1036100088E08093070623C08091040683FF12C0D0
:1036200088E0809306061BC09091BA2C9F5F913072
:1036300019F09093BA2C15C01092BA2C90910406F0
:1036400093FD04C088E0809305060BC098E090933A
:103650000606803221F081508093B82C02C010926F
:10366000B82C8091B92C823191F030F48031C1F0C6
:1036700050F48823A9F132C0833169F090EE980F9D
:10368000983088F02BC080E18093050627C080E148
:103690008093070623C08091040684FF12C080E156
:1036A000809306061BC09091BB2C9F5F913019F050
:1036B0009093BB2C08951092BB2C9091040694FD1E
:1036C00004C080E180930506089590E1909306067A
:1036D000803221F081508093B92C08951092B92C3A
:1036E00008959B01AC016BE080EC9AE0E8C020E01B
:1036F00030E0982F90718870992321F0F901EA52F7
:10370000F14D6287882321F0F901EA52F14D61877A
:10371000245F3F4F2036310579F7992329F090E156
:10372000909306061092B92C882329F088E08093A4
:1037300006061092B82C08950F931F939B018A01DF
:10374000803131F4E091D72EF091D82E478107C017
:10375000883049F4E091D72EF091D82E46816BE065
:1037600080EC9AE06DD01F910F9108950F931F93F5
:10377000CF93DF931F92CDB7DEB7082FAB019E0129
:103780002F5F3F4F6BE080EC9AE072D0182F8823B8
:1037900019F06981802FABDF812F0F90DF91CF91DE
:1037A0001F910F91089508958091BC2C833040F0B3
:1037B00081508093BC2C823019F481E0809386067E
:1037C00008959B01AC0168E08BE29CE078C0809397
:1037D000BC2C882359F091E090938106823019F433
:1037E00090938606089590938506089581E08093CE
:1037F000820608950F931F938B019C014091BC2C6E
:1038000068E08BE29CE01CD01F910F9108951F93FC
:10381000CF93DF931F92CDB7DEB79E012F5F3F4F4F
:10382000AC0168E08BE29CE023D0182F882311F0D4
:103830008981CDDF812F0F90DF91CF911F91089566
:103840000F931F93FC01662379F0949161509413B8
:1038500009C0BF016F5F7F4FA801C9010E94627557
:1038600081E003C0B196EFCF80E01F910F910895E2
:10387000CF92DF92EF92FF921F93CF93DF93EC01F1
:103880007A016901162F112389F0BE016F5F7F4F06
:10389000C7010E9459751150892B31F4FE01C49162
:1038A000F601C08381E003C0A196EDCF80E0DF91F7
:1038B000CF911F91FF90EF90DF90CF900895CF931D
:1038C0000196CCE26623C9F0FC01DA01AD017491E6
:1038D000772341F021153105A1F07D9331962150D8
:1038E0003109F4CF623030F02115310551F04F5FCE
:1038F0005F4FCC9361508196E5CF232B11F0FA01F5
:103900001082CF91089580912002806880932002D8
:103910008091230280FFFCCF81E080932302A0915D
:103920001002B0911102AE5BB109B7FF02C0A0E076
:10393000B0E020E038EB4BE050E00E94DC74E09116
:10394000D72EF091D82E61157105844F9140A8F4BF
:103950008781873019F480E18093B92C8681873084
:1039600019F480E18093B82C8091D12E882389F0BE
:10397000E091C32EF091C42E19948781873019F4F9
:1039800081E18093B92C8681873019F481E180939D
:10399000B82C0895BC0183E090E20C940873CF9397
:1039A000DF93FC016491EC012196662331F083E002
:1039B00090E20E945673CE01F4CFDF91CF9108952B
:1039C000AB01BC0183E090E20C94327380E28093FF
:1039D00062060895CF93DF938091BD2C823031F53C
:1039E00083E090E20E94BB730E948A6E83E090E2C3
:1039F0000E94D773EC0197FD19C0E091D72EF0918A
:103A0000D82E8781833019F483E18093B92C868185
:103A1000833019F483E18093B82C8C2FBBD68111AD
:103A200005C08C2FDF91CF910C94C825DF91CF91E9
:103A300008958091BD2C813079F028F08230D9F042
:103A4000833011F12EC08091680685FF2AC08FE077
:103A50008093022081E00CC08091022081508093ED
:103A6000022081111EC00E94AD100E94357282E0BA
:103A70008093BD2C16C08091680685FD12C08FE032
:103A80008093022083E0F4CF8091022081508093C4
:103A90000220811106C00E94FA710E94DB10109270
:103AA000BD2C8091BD2C823019F4C5D70C947226A0
:103AB0000895E091D72EF091D82E8781823019F4A5
:103AC00081E18093B92C8681823019F481E1809361
:103AD000B82C0895E091D72EF091D82E87818230AE
:103AE00019F480E18093B92C8681823019F480E149
:103AF0008093B82C089583E090E20C94E37283E005
:103B000090E20C942A7429EC3EE03F932F9323EC2F
:103B10003EE03F932F932CEB3EE03F932F9325EB1A
:103B20003EE03F932F9325E13EE03F932F9322E029
:103B30002F931F929F938F930E94E7758DB79EB727
:103B40000E968DBF9EBF85E6089560E072E00E94EC
:103B50003C1185E60895FB0120812F3349F4218132
:103B6000211106C060E072E00E947B1185E6089595
:103B7000CB010E944D11882371F0E091D72EF09176
:103B8000D82ECF01815D9E4265818F5F9F4F0E943D
:103B90000A7C84E608958AEC0895EF92FF920F93D1
:103BA0001F93CF93DF93CDB7DEB7A097CDBFDEBF16
:103BB0007C010091D12E10E00115110591F48DE0EA
:103BC0009EE09F938F9382E08F931F92FF92EF92DC
:103BD0000E94E7750F900F900F900F900F900F902D
:103BE00010C0E091CB2EF091CC2ECE01019619950C
:103BF0009801AE014F5F5F4F60E072E0C7010E9425
:103C00009F1185E6A096CDBFDEBFDF91CF911F91BA
:103C10000F91FF90EF900895DF92EF92FF920F9334
:103C20001F93CF93DF93CDB7DEB7A097CDBFDEBF95
:103C30007B010091D12E10E066E07EE0C7010E947A
:103C40005975892BC1F4D12CED2CF12CE016F1061D
:103C500058F40E948311E1E0F0E0EC0FFD1FEE0D3F
:103C6000FF1D8083D394F0CF8091D32E853069F4EB
:103C700080EE89830AC0A70160E270E0CE01019660
:103C80000E94D91180179107A1F4E091CD2EF091F7
:103C9000CE2ECE0101961995E091D42EF091D52E1D
:103CA0004091D12EBE016F5F7F4F83E1199584E66D
:103CB00001C08AECA096CDBFDEBFDF91CF911F91EE
:103CC0000F91FF90EF90DF900895FC018091D22E2C
:103CD000882311F081E301C080E38083118285E6AF
:103CE0000895FB012181211127C02081213321F476
:103CF00081E08093D22E04C0203321F41092D22E82
:103D000084E608952F33C1F41F9220E32F931F926E
:103D100021E32F9320E03EE03F932F9322E02F9367
:103D20001F929F938F930E94E7758DB79EB70A9657
:103D30008DBF9EBF85E608958AEC089580E494E1E6
:103D4000F8D48EE6089580EC94E10ED58EE60895C1
:103D5000E0ECF4E081818E7F81830E94FA710E9401
:103D6000A11084E60895E0ECF4E081818E7F8183E8
:103D70000E94FA710E94A71084E60895EBEBFEE220
:103D800025892F9324892F932DEF3DE03F932F9387
:103D900022E02F931F929F938F930E94E7758DB718
:103DA0009EB708968DBF9EBF85E608952091D12EBF
:103DB0001F922F932AEF3DE03F932F9322E02F9302
:103DC0001F929F938F930E94E7758DB79EB70896B9
:103DD0008DBF9EBF85E6089540E052E0BC0180E0C3
:103DE00091D885E60895FB0120812F3341F421818C
:103DF000211105C060E072E070D885E6089580E08A
:103E000093D8882319F055DB84E608958AEC089549
:103E100040E052E0BC0181E075D885E60895FB01E1
:103E200020812F3341F42181211105C060E072E02F
:103E300054D885E6089581E077D8882319F039DBD6
:103E400084E608958AEC089540E052E0BC0182E0E7
:103E500059D885E60895FB0120812F3341F4218153
:103E6000211105C060E072E038D885E6089582E04F
:103E70005BD8882319F01DDB84E608958AEC089549
:103E800040E052E0BC0183E03DD885E60895FB01A7
:103E900020812F3341F42181211105C060E072E0BF
:103EA0001CD885E6089583E03FD8882319F001DB0C
:103EB00084E608958AEC089540E052E0BC0180E178
:103EC0003BDC85E60895FB0120812F3341F42181FD
:103ED000211105C060E072E004DC85E6089580E110
:103EE00045DC882319F0E5DA84E608958AEC089524
:103EF00040E052E0BC0188E01FDC85E60895FB014C
:103F000020812F3341F42181211105C060E072E04E
:103F1000E8DB85E6089588E029DC882319F0C9DA12
:103F200084E608958AEC089560E072E063DC85E63B
:103F30000895FB0120812F3341F42181211105C017
:103F400060E072E03EDC85E60895CB0160DC811123
:103F500002C08AEC089584E6089560E072E0F9D921
:103F600085E60895FB0120812F3341F42181211141
:103F700005C060E072E0FDD985E60895CB01D0D997
:103F8000882319F096DA84E608958AEC0895CF9391
:103F9000DF93EC01E2D8813028E0920718F09C0111
:103FA000385002C020E030E03F932F939F938F93CF
:103FB0002AED3DE03F932F9382E08F931F92DF9392
:103FC000CF930E94E7758DB79EB70A968DBF9EBFAF
:103FD00085E6DF91CF9108958FED97E1C5D38EE609
:103FE0000895CDD984E608957CD884E6089560E0EC
:103FF00072E0D8DA85E60895CB01DBDA811102C0E0
:104000008AEC089584E608950E94791384E6089561
:104010000E94A91384E608950E94041384E608957B
:104020008091680680FD02C089E7089588E70895B9
:10403000DF92EF92FF920F931F93CF93DF93EC01E8
:104040000FEF11E08CE0E82E80E1F82E9CE2D92EF3
:10405000B70189EE93E20E945975892BD1F00115C1
:104060001105B9F0DE01F7012491ED012196C80197
:104070000197222341F00130110529F02C93DE0134
:1040800031968C01F1CFDC928C0188E1E80EF11CB5
:10409000DFCF2197188285E6DF91CF911F910F9195
:1040A000FF90EF90DF900895FC012091200220689E
:1040B000209320028091230280FFFCCF81E0809337
:1040C0002302A0911002B0911102AE5BB109B7FFBB
:1040D00002C0A0E0B0E020E038EB4BE050E00E94EE
:1040E000DC74AA27BB279F938F9323ED3DE03F937A
:1040F0002F9382E08F931F92FF93EF930E94E775B7
:104100008DB79EB708968DBF9EBF85E608952EB1E8
:104110003FB14091080450910904242B352B3F9363
:104120002F932DEC3DE03F932F9322E02F931F928E
:104130009F938F930E94E7758DB79EB708968DBFAA
:104140009EBF85E608950F931F93CF93DF931F9231
:104150001F92CDB7DEB78B01E091D72EF091D82E0C
:1041600085818B3009F06FC0E091C32EF091C42E91
:10417000199581E08093482D60E270E0C8010E94AB
:104180009F750097F9F4F80101900020E9F7319745
:10419000E01BF10BE0FD59C0F695E795E130F10524
:1041A00039F487E090E080933A3490933B3437C001
:1041B00053E0EE0FFF1F5A95E1F7E0933A34F09386
:1041C0003B342DC098012C5F3F4F82179307E9F5D0
:1041D000A80162E070E0CE0101960E94D9118981A8
:1041E00090E0982F88272A81820F911D80933A347E
:1041F00090933B340B5F1F4FF80101900020E9F7CB
:104200003197E01BF10BE0FD20C0F695E79533E018
:10421000EE0FFF1F3A95E1F7E817F907B0F060914C
:104220003A3470913B34695F7F4F83E076956795B0
:104230008A95E1F7A8018AE393E30E94D9110E94CD
:1042400012308FEF03C089EC01C08AEC0F900F9001
:10425000DF91CF911F910F910895EF92FF920F93ED
:104260001F93CF93DF931F921F92CDB7DEB78B01C1
:10427000E091D72EF091D82E85818B3009F080C047
:10428000E091C32EF091C42E199582E08093482DC1
:1042900060E270E0C8010E949F757C01892B31F5B6
:1042A000F80101900020E9F73197E01BF10BE0FDE8
:1042B00069C0F695E795E130F10539F487E090E0C3
:1042C00080933A3490933B3447C063E0EE0FFF1F76
:1042D0006A95E1F7CF0169E070E00E94C874E81BBD
:1042E000F90BE0933A34F0933B3436C0C80104969E
:1042F000E816F90609F046C0A80162E070E0CE01B8
:1043000001960E94D911298130E0322F22278A811B
:10431000280F311D20933A3430933B342730310538
:1043200029F0C90187709927892B61F587010F5FF3
:104330001F4FF80101900020E9F73197E01BF10BC6
:10434000E0FD20C0F695E79543E0EE0FFF1F4A958C
:10435000E1F7E217F307B0F060913A3470913B3423
:10436000695F7F4F83E0769567958A95E1F7A801AD
:104370008AE393E30E94D9110E9412308FEF03C0A9
:1043800089EC01C08AEC0F900F90DF91CF911F91C3
:104390000F91FF90EF900895E091D72EF091D82ED5
:1043A00085818B30A1F4E091C32EF091C42E199534
:1043B00085E08093482D0E944D510E94123087E580
:1043C00091E58093CD2C9093CE2C8FEF089589ECBE
:1043D00008958BE00E94FC10E091C32EF091C42E52
:1043E000199588E08093482D0E944D510E9412300B
:1043F00087E591E58093CD2C9093CE2C8FEF089597
:10440000E091D72EF091D82E85818B30A1F4E091E8
:10441000C32EF091C42E199583E08093482D0E94FD
:104420004D510E94123087E591E58093CD2C9093F9
:10443000CE2C8FEF089589EC0895E091D72EF0915E
:10444000D82E85818B30A1F4E091C32EF091C42E3B
:10445000199586E08093482D0E944D510E9412309C
:1044600087E591E58093CD2C9093CE2C8FEF089526
:1044700089EC0895E091D72EF091D82E4085518592
:1044800064E6649F9001659F300D11243F932F9344
:1044900027EC3DE03F932F9322E02F931F929F93B1
:1044A0008F930E94E7758DB79EB708968DBF9EBF0C
:1044B00085E60895CF93DF931F921F92CDB7DEB7A5
:1044C000FB0120812F33B1F42181211113C025E993
:1044D0003DE03F932F9322E02F931F929F938F9362
:1044E0000E94E7750F900F900F900F900F900F9014
:1044F00085E62EC089E592E089839A83CE010196F4
:104500009F938F9381E99DE09F938F937F936F9308
:104510000E941D760F900F900F900F900F900F90AC
:10452000892BA9F069817A816935F2E07F0778F4F7
:10453000E091D72EF091D82E60877187CF018E5CE5
:104540009E428F5F9F4F0E94137C84E601C08AECDD
:104550000F900F90DF91CF910895E091D72EF091B9
:10456000D82E23852F9322852F932EE83DE03F936D
:104570002F9322E02F931F929F938F930E94E775B2
:104580008DB79EB708968DBF9EBF85E60895CF93E1
:10459000DF931F921F92CDB7DEB7FB0120812F332F
:1045A000B1F42181211113C02FE02F932FEF2F930E
:1045B0002DE33DE03F932F9322E02F931F929F9393
:1045C0008F930E94E775CDBFDEBF85E630C01982AC
:1045D0001A82CE0101969F938F9389E39DE09F936A
:1045E0008F937F936F930E941D760F900F900F9083
:1045F0000F900F900F90892BC9F069817A81611516
:1046000090E1790798F46093380370933903E0914F
:10461000D72EF091D82E62877387CF018C5C9E4293
:104620008F5F9F4F0E94137C84E601C08AEC0F903D
:104630000F90DF91CF910895FB0120812F33D9F4A2
:104640002181211121C01F9220E32F931F9221E38A
:104650002F9323E33DE03F932F9322E02F931F926C
:104660009F938F930E94E7758DB79EB70A968DBF73
:104670009EBF85E60895213311F4F8D303C020339B
:1046800019F419D484E608958AEC0895FC01809108
:104690000008813021F480918C08833011F080E390
:1046A00001C081E38083118285E60895E091D72ED1
:1046B000F091D82E85818B3079F4E091C32EF09162
:1046C000C42E199584E08093482D0E944D510E947C
:1046D000123087E591E50EC08A3091F4E091C32E47
:1046E000F091C42E199581E08093242E0E94515997
:1046F00086E699E58093CD2C9093CE2C8FEF08958C
:1047000089EC08958BE00E94FC10E091C32EF0919B
:10471000C42E199587E08093482D0E944D510E9428
:10472000123087E591E58093CD2C9093CE2C8FEFBE
:10473000089521E02093CC2C2093CB2C2CE32093C4
:10474000C82C25E030E02093C62C3093C72C109263
:10475000C02C1092C12C1092C22C1092C32C8093AA
:10476000BE2C9093BF2C089527E02093CC2C2CE2F4
:1047700031E02093C62C3093C72C1092C02C10929D
:10478000C12C1092C22C1092C32C8093BE2C9093FB
:10479000BF2C0895CF939091CC2C9530E1F130F45B
:1047A000933029F140F5913068F441C1973009F414
:1047B000A7C008F445C0983009F4AAC0993009F49C
:1047C00033C135C1813041F41092C42C1092C52CF4
:1047D0001092C92C83E0FBC0843011F466E08BC0DA
:1047E000883109F421C18B3109F0F3C01DC18093D8
:1047F000CA2C84E0ECC090E04091CA2C2FEF30E04E
:10480000241B31098217930721F485E0E0C0981733
:1048100039F165E169C02091C42C3091C52CA90102
:104820004F5F5F4F4093C42C5093C52CF901E75C58
:10483000F04D80834038510509F0CBC086E0C7C0F9
:104840002091CA2C9091CB2C291346C0E9E3FFE2BA
:1048500090E02FE2E93BF207D1F22191920FF9CFDC
:104860004091C02C5091C12C6091C22C7091C32CEE
:10487000E091BE2CF091BF2C20E830E089E39FE26C
:104880001995C82F882311F18091CB2C8F5F8093CD
:10489000CB2C8091C02C9091C12CA091C22CB091B6
:1048A000C32C80589F4FAF4FBF4F8093C02C909325
:1048B000C12CA093C22CB093C32C66E083E090E29D
:1048C0000E94567382E08093CC2CB2C068E183E0F2
:1048D00090E20E9456730EC030E0892F90E001975D
:1048E0002817390739F466E083E090E20E94567396
:1048F00082E06DC068E183E090E20E94567394C04C
:10490000853119F41092CB2C09C08B3109F48CC07D
:10491000883109F463CF863009F05DC08091CB2CDB
:104920008F5F8093CB2C4091C02C5091C12C609113
:10493000C22C7091C32CE091BE2CF091BF2C20E8CA
:1049400030E089E39FE21995C82F8823D1F161E017
:1049500083E090E20E9456736091CB2C83E090E25A
:104960000E9456736091CB2C609583E090E20E9488
:10497000567360E870E089E39FE222D8E9E3FFE242
:1049800060E08FE2E93BF80719F08191680FF9CFF9
:1049900083E090E20E9456738091C02C9091C12CCC
:1049A000A091C22CB091C32C80589F4FAF4FBF4FE6
:1049B0008093C02C9093C12CA093C22CB093C32C95
:1049C00037C064E083E090E20E94567389E08093F0
:1049D000CC2CC1E02DC08531E1F761E083E090E2AD
:1049E0000E9456736091CB2C83E090E20E94567334
:1049F0006091CB2C609583E090E20E94567360E852
:104A000070E089E39FE20E94E01CE9E3FFE260E0DE
:104A10002FE2E93BF20719F08191680FF9CF83E0AB
:104A200090E20E945673D5CF1092CC2CD2CFC0E02A
:104A30008C2FCF9108958091CC2C813019F0873044
:104A400029F108958091C62C9091C72C9C0121508A
:104A500031092093C62C3093C72C892B31F58091D6
:104A6000C82C9FEF980F9093C82C882331F065E1F4
:104A700083E090E20E94567302C01092CC2C85E035
:104A800090E08093C62C9093C72C08958091C62CFB
:104A90009091C72C9C01215031092093C62C309352
:104AA000C72C892B11F41092CC2C0895E3EEFEE074
:104AB00020E030E09491981309C041E2429FC00188
:104AC000439F900D11248C51914F08952F5F3F4FBC
:104AD000B1962930310571F780E090E00895262FD6
:104AE000BA012F3311F4469607C02D3311F44496C2
:104AF00011C021110CC04096FC0125913491211563
:104B0000310521F189E39FE2F90119950DC02032A9
:104B1000E9F44296FC012591349121153105B1F05B
:104B200089E39FE2F90119958F3F89F491E0909311
:104B3000D12C2EB13FB14091080450910904242B8F
:104B4000352B2093CF2C3093D02C089589EC0895E9
:104B50000F931F93CF93DF938C01CCE0D0E1BE0184
:104B6000C8010E945975892B49F440E050E060E08B
:104B7000CE01DF91CF911F910F91B1CF689683E164
:104B8000CC3FD80761F7DF91CF911F910F91089526
:104B9000EF92FF921F93CF93DF93982F9F7D9154B5
:104BA0009A3160F090ED980F9A3040F08F3531F0E7
:104BB000982F9D7F9D3311F08032D1F49FE9980F9B
:104BC0009A3108F480522091D22C3091D32C2F3F6F
:104BD00091E0390708F07FC0A9014F5F5F4F409314
:104BE000D22C5093D32CF901E75CF04D808373C035
:104BF0008D3009F040C0E091D22CF091D32CE75CCD
:104C0000F04D10821092D22C1092D32C8091D12C86
:104C1000811161C08091392F982F9F7D09F440C088
:104C20008D7F8D33E9F1E9E3FFE27F0111911123DB
:104C300031F01F3321F01D3311F01032B1F7F701BD
:104C40001082CCE0D0E1BE0189E39FE20E94597559
:104C5000892B59F41092392FA7014F5F5F4F612FB5
:104C6000CE013DDF8F3FB9F124C06896F3E1CC3F20
:104C7000DF0749F715C0883061F48091D22C9091FC
:104C8000D32C009741F101978093D22C9093D32C91
:104C900022C08B3101F51092D22C1092D32C1BC064
:104CA00088EC04DF0E94CF1C80EE9EE00E94CF1CA7
:104CB00012C0FCDE0E94CF1C80EE9EE00E94CF1C42
:104CC0008091392F882339F089E39FE20E94CA1C22
:104CD0008DED9EE0EBCF81E0DF91CF911F91FF90B2
:104CE000EF9008958091D12C882399F1E091D72EEF
:104CF000F091D82E208531852115310551F18EB1E5
:104D00009FB14091080450910904842B952B409148
:104D1000CF2C5091D02C841B950B64E670E00E9440
:104D2000C87462177307A8F01092D12C8BECBEDE0A
:104D30000E94CF1C8AED9EE00E94CF1CE091CD2CFA
:104D4000F091CE2C309729F019951092CD2C10921D
:104D5000CE2C08958091D12C8823A9F01092D12CCB
:104D60008BECA4DE0E94CF1C8AED9EE00E94CF1C3B
:104D7000E091CD2CF091CE2C309729F0199510921E
:104D8000CD2C1092CE2C0895CF93DF939091D12CFF
:104D90009923A9F0EB011092D12C88DE0E94CF1C40
:104DA00087ED9EE00E94CF1C209749F0CE010E9423
:104DB000CA1C84ED9EE0DF91CF910C94CF1CDF9153
:104DC000CF910895EF92FF920F931F93CF937C01A1
:104DD0009B01613081E0780710F020E031E08B0129
:104DE000021B130BA70160E072E089E39FE20E94BF
:104DF0009F1189E39FE20E94CA1CC1E0013081E05B
:104E00001807B0F01A956C2F70E0762F6627A7016F
:104E1000460F571F20E032E060E072E089E39FE236
:104E20000E949F1189E39FE20E94CA1CCF5FE6CFD8
:104E30000115110591F0EC2FF0E0FE2FEE27A701F0
:104E40004E0F5F1F980160E072E089E39FE20E94CD
:104E50009F1189E39FE20E94CA1C81ED9EE0CF91E1
:104E60001F910F91FF90EF900C94CF1C8091000840
:104E7000813029F480918C08833009F40895809161
:104E8000DC2C811117C081E08093000893E090939F
:104E90008C088093DA2C1092DB2C8EB19FB120917C
:104EA000080430910904822B932B8093E12C90937A
:104EB000E22C0895089510928C0810920008EAEDF3
:104EC000FCE21082118208959091DA2C9923F1F07E
:104ED0008091DB2C811115C02091DA2C2223B9F0AE
:104EE0002EB13FB14091080450910904242B352B79
:104EF0004091E12C5091E22C241B350B26343105D6
:104F000030F081E08093DB2C892F089581E00895B3
:104F1000CF93DF931F92CDB7DEB78091DC2C88232F
:104F2000D1F02EB13FB14091080450910904242BD7
:104F3000352B4091DF2C5091E02C241B350B4091F8
:104F4000DD2C5091DE2C2417350728F01092DC2C34
:104F500089838CDF89810F90DF91CF910895E09153
:104F6000D72EF091D82E8287938780933803909321
:104F700039030895E091D72EF091D82E828593853C
:104F80004096828793878093380390933903828574
:104F900093850895E091D72EF091D82E80E991E085
:104FA0008287938780933803909339030895A0E212
:104FB000B6E081E015968C93159729E331E328B983
:104FC00039B929EB31E32AB93BB910B813B812B893
:104FD00016B817B811B8E0E0F9E010A211A22FEF4F
:104FE00030E026A337A32FEF3FEF20A731A7808320
:104FF00098E8938390E1948793E097831C968C9331
:105000001C9782E01A968C9308951F920F920FB608
:105010000F92112408B60F9218BE0BB60F921BBE4A
:105020008F939F93EF93FF93E0E0F9E013828FE774
:1050300090E086AB97AB81E190E080AF91AFE0E08C
:10504000FAE010A211A28FEF9FEF86A397A389E841
:105050008383168281E084878EE0808310922A0603
:10506000FF91EF919F918F910F900BBE0F9008BE13
:105070000F900FBE0F901F9018951F920F920FB6B2
:105080000F92112408B60F9218BE0BB60F921BBEDA
:105090002F933F938F939F93EF93FF932091280635
:1050A00093B1267081E009F080E0990F892B83B9D4
:1050B00082B1882309F464C012B883B18770873045
:1050C00059F51092000980E180930C091092030AAF
:1050D0001B9B03C08CEA94E002C08CE694E08093B2
:1050E000260A9093270A82E081B981E080930C0A16
:1050F00083E08093060A86B197B1877049F090B13A
:105100008F5F893011F09695FBCFE8B1F9B19083AC
:1051100081E08093E32C37C093B1892F8C7099F193
:1051200092FB992790F981E0982781B181111BC0EA
:1051300080B18695911190E8892B80B926B137B15D
:105140002F5F3F4F26B937B927703327232BD9F468
:10515000E8B1F9B19F012F5F3F4F28B939B980837A
:1051600081E081B910C081B1813069F4EAB1FBB14D
:105170009F012F5F3F4F2AB93BB9908311B803C0FD
:1051800082B1809582B988E880930309FF91EF91FD
:105190009F918F913F912F910F900BBE0F9008BE62
:1051A0000F900FBE0F901F9018951F920F920FB681
:1051B0000F92112408B60F9218BE0BB60F921BBEA9
:1051C0002F933F938F939F93EF93FF9381B18230FF
:1051D00008F49DC081B18D3008F099C0E1B1F0E0D4
:1051E000EE0FFF1FEA5DFF4D0190F081E02D199455
:1051F0008FE790E08093260A9093270A88C08E9AC2
:105200008EE0809340088FE390E08093260A90938D
:10521000270A85E06FC08E9886E081B98FEF82B94A
:1052200014B815B8E8B1F9B1808180B970C0009B9D
:1052300005C08E9A82B1809582B901C08E9887E0B0
:1052400059C0009B02C08E9801C08E9A80B186958D
:1052500080B984B195B1019684B995B984B195B1FD
:1052600087709927892B11F488E044C024B135B1A7
:1052700086B197B128173907B1F52BC0EAB1FBB158
:10528000309711F0808101C082B1882311F08E9A8D
:1052900001C08E9889E02EC0EAB1FBB1309751F081
:1052A0008081882311F08E9801C08E9A3196EAB9D8
:1052B000FBB908C082B1882311F08E9801C08E9A84
:1052C0008FEF82B924B135B186B197B1281739076C
:1052D00011F48AE00FC0E8B1F9B1CF01019688B9A5
:1052E00099B9818180B986E005C08E988BE002C0B3
:1052F0008E988CE081B90BC01092000A1092060AB9
:10530000109240081092410881E08093E42CFF91B4
:10531000EF919F918F913F912F910F900BBE0F9026
:1053200008BE0F900FBE0F901F901895CF93DF937C
:10533000E3EEFCE21082118287EC9AE28093D62C95
:105340009093D72C85E098E28093D42C9093D52C21
:10535000E0E4F6E0128A84E08283C0E8D1E082E6ED
:105360008E83A0E2B6E081E016968C931697119694
:105370008C93119796E012969C93129751968C936A
:10538000519732E052963C9352971A961C921A9774
:105390001B961C921B979FE019969C9399E5988306
:1053A0002AE529839A8390E491839683A0EBB0E069
:1053B00012962C911297207F12962C931297129688
:1053C0002C911297226012962C9320E3218326833E
:1053D000908B8683358383E08183E0E0F8E083E18E
:1053E000818321E030E026A337A320A731A7E0E89E
:1053F000F8E014868083E0E2F3E01382118288E013
:10540000828391E19083A091D72EB091D82E1A96E5
:105410002D913C911B97208F318FE0E8F3E09CE3C6
:105420009283808393838183DF91CF91C0CDA0E26B
:10543000B6E01A961C921A97E3EEFCE210821182F3
:10544000E0E0F9E010821382178280E18487E0E0D7
:10545000FAE010821382168281E08487E0E4F8E0AB
:105460001082118216968C938E980895CF93DF93B5
:105470008091E32C882309F47EC01092E32CC6B1FE
:10548000D7B1C730D10508F471C0AE01495F5F4F95
:1054900093E0569547959A95E1F7E091D42EF091D7
:1054A000D52E69E371E380E41995E091D72EF09150
:1054B000D82E8781883019F483E18093B92C8681B6
:1054C000883019F483E18093B82CE091C92EF091D3
:1054D000CA2EBE0189E391E31995EC0194FF06C041
:1054E000DF7E89EB91E38AB99BB902C01AB81BB879
:1054F0002097E1F1AE01495F5F4F83E056954795F4
:105500008A95E1F7E091D42EF091D52E69E371E30D
:1055100081E41995E091D72EF091D82E87818930BA
:1055200019F483E18093B92C8681893019F483E1E1
:105530008093B82CC6B9D7B989E391E388B999B9F2
:1055400010926008109261088FE090E080936608E6
:105550009093670888E090E080936A0890936B08C6
:1055600083E28093410883E081B905C01092000A6C
:105570001092060A1CDD8091E42C882329F01092F9
:10558000E42CDF91CF9113CDDF91CF9108951F923D
:105590000F920FB60F92112408B60F9218BE0BB6D9
:1055A0000F921BBE2F933F938F939F93EF93FF9385
:1055B000E0E0F9E080E484871782E0E8F3E082E04D
:1055C000878389EB818389E391E38AB99BB981E081
:1055D00090E084B995B916B88EB19FB120910804B6
:1055E00030910904822B932B8093E62C9093E72C27
:1055F00081E08093EA2C18B817B81092E52C88E067
:1056000080938706FF91EF919F918F913F912F910A
:105610000F900BBE0F9008BE0F900FBE0F901F9003
:105620001895CF93DF93E0E4F6E0128A84E082835A
:10563000C0E8D1E082E68E83A0E2B6E081E0169673
:105640008C93169711968C93119796E012969C93D3
:10565000129751968C93519732E052963C93529701
:105660001A961C921A971B961C921B979FE01996EC
:105670009C93199799E598832AE529839A8390E466
:1056800091839683C0EBD0E02A81207F2A832A81F0
:1056900022602A8320E321832683908B86833583AF
:1056A00093E09183E0E0F8E093E1918321E030E042
:1056B00026A337A320A731A7E0E8F8E0148690835B
:1056C000E0E2F3E01382118298E0928321E12083EB
:1056D000C091D72ED091D82E2A853B85208F318F2F
:1056E000E0E8F3E02CE3228390832383918327EC8B
:1056F0003AE22093D62C3093D72C15968C93E0E089
:10570000F9E02FEF30E026A337A312A613A614A6C4
:1057100015A610821682178280831092000A1092BA
:10572000E52CE8EEFCE2108212821182DF91CF912B
:10573000089581E080932606BEDBE0E0F9E0108268
:105740001782E0E0FAE010821782E8EEFCE21182B4
:10575000128210820895E0E0F9E08FEF94E086A3D2
:1057600097A380E6848780E387838FEF90E086AB02
:1057700097AB88E08093870608951F920F920FB62B
:105780000F92112408B60F9218BE0BB60F921BBED3
:105790002F933F934F935F938F939F93EF93FF9339
:1057A0001092070A1092000A1092470910924009BD
:1057B000809181038E7F8093810384B195B180FFB6
:1057C0001AC0379B03C086B1869503C086B1869503
:1057D000806886B984B195B1019684B995B987700E
:1057E0009927892B41F4EAB1FBB1CF0101968AB91F
:1057F0009BB986B1808384B195B187709927892B35
:10580000C9F0E4B1F5B186B144B155B193E0F69574
:10581000E7959A95E1F7E75CFE4C90E047705527D5
:1058200028E030E0241B350B02C0959587952A951A
:10583000E2F7808381E08093E92C1092EA2C8FEFCD
:105840009FEF8093260A9093270A1092200A1092C5
:10585000210A1092060A1092070A1092030A84E0A5
:105860008093000A83E08093E52CFF91EF919F9154
:105870008F915F914F913F912F910F900BBE0F90A1
:1058800008BE0F900FBE0F901F9018951F920F9299
:105890000FB60F92112408B60F9218BE0BB60F92D6
:1058A0001BBE8F93EF93FF93E0E8F3E081818F7C41
:1058B0008183E0E0FAE088E8838381E08083FF91E0
:1058C000EF918F910F900BBE0F9008BE0F900FBEFF
:1058D0000F901F9018951F920F920FB60F921124E0
:1058E00008B60F9218BE0BB60F921BBE8F939F93F4
:1058F000EF93FF9380916009109260091092610903
:1059000093E090934009813520F4813308F472C00C
:105910001BC08137E8F484B195B180FF2EC086B1F9
:105920008695806886B984B195B1019684B995B998
:1059300087709927892B41F4EAB1FBB1CF01019619
:105940008AB99BB986B1808386B1869580682CC060
:1059500086B18695806886B984B195B1019684B97F
:1059600095B987709927892B41F4EAB1FBB1CF0132
:1059700001968AB99BB986B1808386B18695806885
:1059800086B984B195B1019684B995B98770992784
:10599000892B41F4EAB1FBB1CF0101968AB99BB9D9
:1059A00086B1808386B1869586B984B195B101961A
:1059B00084B995B987709927892B41F4EAB1FBB175
:1059C000CF0101968AB99BB986B1808386B186954D
:1059D00086B984B195B1019684B995B98770992734
:1059E000892B41F4EAB1FBB1CF0101968AB99BB989
:1059F00086B18083FF91EF919F918F910F900BBEA5
:105A00000F9008BE0F900FBE0F901F9018950F9328
:105A10001F93CF93DF93CDB7DEB7DA95CDBFDEBF4F
:105A20008091EA2C882309F483C08EB19FB1409104
:105A30000804509109042091E62C3091E72C842B26
:105A4000952B821B930B20911E2030911F202F5FDE
:105A50003F4F2817390708F06BC01092070A1092C1
:105A6000000A1092470910924009809181038E7FAD
:105A70008093810384B195B180FF1AC0379B03C026
:105A800086B1869503C086B18695806886B984B153
:105A900095B1019684B995B987709927892B41F4FE
:105AA000EAB1FBB1CF0101968AB99BB986B1808377
:105AB00084B195B187709927892BC9F0E4B1F5B10C
:105AC00086B144B155B113E0F695E7951A95E1F723
:105AD000E75CFE4C90E04770552728E030E0241B3F
