:100000000C94410C0C94660C0C94660C0C94660CCD
:100010000C94660C0C94660C0C94660C0C94660C98
:100020000C94660C0C94660C0C94DE0D0C94660C0F
:100030000C94660C0C94660C0C94660C0C94660C78
:100040000C94660C0C94660C0C94660C0C94660C68
:100050000C94660C0C94660C0C94660C0C94660C58
:100060000C94660C0C94660C0C94660C0C94660C48
:100070000C94660C0C94660C0C94660C0C94660C38
:100080000C94660C0C94660C0C94E5240C940E2EC7
:100090000C94660C0C94660C0C94660C0C94660C18
:1000A0000C94660C0C94660C0C94660C0C94660C08
:1000B0000C94660C0C94660C0C94660C0C94B32592
:1000C0000C94660C0C9459290C94792F0C94660CA2
:1000D0000C94660C0C94660C0C94660C0C94660CD8
:1000E0000C94660C0C94660C0C94660C0C94660CC8
:1000F0000C94660C0C94660C0C94660C0C94660CB8
:100100000C94660C0C94660C0C94660C0C94660CA7
:100110000C94542F0C9436290C94660C0C94660C99
:100120000C94660C0C94660C0C94660C0C94660C87
:100130000C94660C0C94660C0C94660C0C941B25A9
:100140000C949F0C0C9467280C94382E0C94660C1D
:100150000C94660C0C94AF280C94AF2F0C94660C86
:100160000C94660C0C94660C0C94660C0C94660C47
:100170000C94660C0C94660C0C94660C0C94660C37
:100180000C94660C0C94660C0C94660C0C94660C27
:100190000C94660C0C94660C0C94660C0C94660C17
:1001A0000C94660C0C94660C0C94660C0C94660C07
:1001B0000C94660C0C94660C0C94660C0C94660CF7
:1001C0000C94660C0C94660C0C94660C0C94660CE7
:1001D0000C94660C0C94660C0C94660C0C94660CD7
:1001E0000C94660C0C94660C0C94660C0C94660CC7
:1001F0000C94660C0C94A8680C94660C6364696E8D
:100200006F70737578585B001E03430068006100CF
:100210006D0065006C0065006F006E002D004D00E4
:1002200069006E00690000002A034B006100730042
:100230007000650072002000260020004F0073004F
:10024000770061006C006400200047006D006200D0
:10025000480000000403090409023E00020100C036
:10026000320904000001020201000524001001040B
:100270002402060524060001070582030800FF0981
:10028000040100020A00000007050402100005072F
:100290000583021000051201100102000008D016AB
:1002A000B20401000102DC01860E910E900E8F0E49
:1002B0008E0E8D0E8C0E870E8A0E8B0E00000001A6
:1002C000007126F12610275F327B327F328C0E8040
:1002D000328C359F3540000700017126F12610272A
:1002E00073327B327F328C0E80328C359F355000DA
:1002F0000700017126F126102777327B327F328C7E
:100300000E80328C359F35A4000700017126F1263E
:100310001027DF351B361F368C0E2036FC3C1A3D6D
:1003200000040400017126F1261027EE351B361F4C
:10033000368C0E2036FC3C1A3D0004070001712665
:10034000F1261027FD351B361F368C0E2036FC3C5F
:100350001A3D00100400017126F12610270C361BEF
:10036000361F368C0E2036FC3C1A3D00100700016B
:10037000673026314731FA5308540D540E54105447
:100380008A0E8B0E0000000100CD275528F3296C42
:100390004C6F4C7C4C7D4C074F8A0E8B0E0000003E
:1003A0000000CA574C587F581159145917591859F9
:1003B0001959105A175A0020080005CA574C587F7F
:1003C000588F0E8E0E8D0E8C0E870E8A0E8B0E00A1
:1003D00000000100CA574C587F581E5A215A245A0F
:1003E000255A265A145C1B5C0020080005CA574C8D
:1003F000587F58225C405C4E5C4F5C705C625CB520
:100400005D2C00080005CA574C587F58E55EFC5E1D
:100410000C5F0D5FB4624E62CB63D0000800050034
:100420004E4F4E450000000000000000000000009C
:1004300000000000000000000000000000000000BC
:10044000014D465F554C5452414C494748540000B9
:10045000000000000000000000000000000000009C
:1004600000024D465F554C5452414C494748545F39
:100470004556315F383042000000000000000000A7
:100480000000034D465F554C5452414C4947485477
:100490005F4556315F3136344200000000000000F5
:1004A000000000044D465F434C41535349435F31C4
:1004B0004B000000000000000000000000000000F1
:1004C00000000000054D465F434C41535349435FD4
:1004D000314B5F37420000000000000000000000C8
:1004E0000000000000064D465F434C415353494312
:1004F0005F344B000000000000000000000000001E
:10050000000000000000074D465F434C4153534933
:10051000435F344B5F3742000000000000000000E2
:10052000000000000000000849534F3134343433D8
:10053000415F534E494646000000000000000000A5
:1005400000000000000000000949534F31343434EA
:1005500033415F5245414445520000000000000015
:100560000000000000000000000A564943494E49BF
:1005700054590000000000000000000000000000CE
:10058000000000000000000000000B49534F31350F
:100590003639335F534E49464600000000000000E4
:1005A00000000000000000000000000C534C32531B
:1005B0003230303200000000000000000000000077
:1005C0000000000000000000000000000D5449542D
:1005D000414749545354414E4441524400000000A5
:1005E000000000000000000000000000000E454D6B
:1005F000343233330000000000000000000000002F
:1006000000000000000000000000000000000100E9
:1006100000010001010000010100010000010001D2
:1006200001000100000101000001000101000001C2
:1006300001000100000101000001000101000100B2
:1006400000010001010000010100010000010001A2
:100650000100010000010100000100010100010092
:100660000001000101000001010001000001010082
:100670000001000101000001010001000001000172
:100680000100010000010100000100010100000162
:100690000100010000010100000100010100010052
:1006A0000001000101000001010001000001010042
:1006B0000001000101000001010001000001000132
:1006C0000100010000010100000100010100010022
:1006D0000001000101000001010001000001000112
:1006E0000100010000010100000100010100000102
:1006F00001000100000101000001000101000100F2
:100700000001000101000001010001000001008062
:1007100040C020A060E0109050D030B070F0088849
:1007200048C828A868E8189858D838B878F80484D1
:1007300044C424A464E4149454D434B474F40C8CE9
:100740004CCC2CAC6CEC1C9C5CDC3CBC7CFC02827D
:1007500042C222A262E2129252D232B272F20A8AE9
:100760004ACA2AAA6AEA1A9A5ADA3ABA7AFA068671
:1007700046C626A666E6169656D636B676F60E8E89
:100780004ECE2EAE6EEE1E9E5EDE3EBE7EFE018123
:1007900041C121A161E1119151D131B171F10989B9
:1007A00049C929A969E9199959D939B979F9058541
:1007B00045C525A565E5159555D535B575F50D8D59
:1007C0004DCD2DAD6DED1D9D5DDD3DBD7DFD0383ED
:1007D00043C323A363E3139353D333B373F30B8B59
:1007E0004BCB2BAB6BEB1B9B5BDB3BBB7BFB0787E1
:1007F00047C727A767E7179757D737B777F70F8FF9
:100800004FCF2FAF6FEF1F9F5FDF3FBF7FFF004EC8
:100810004F4E4500000000000000000000000000F6
:1008200000000000000000000000000000000001C7
:100830005549445F52414E444F4D000000000000B6
:1008400000000000000000000000000000000000A8
:10085000025549445F4C4546545F494E4352454D0D
:10086000454E5400000000000000000000000000A1
:1008700000035549445F52494748545F494E43522B
:10088000454D454E540000000000000000000000EF
:100890000000045549445F4C4546545F444543526B
:1008A000454D454E540000000000000000000000CF
:1008B000000000055549445F52494748545F44458C
:1008C0004352454D454E540000000000000000001A
:1008D00000000000064359434C455F5345545449BA
:1008E0004E47530000000000000000000000000020
:1008F00000000000000753544F52455F4D454D0026
:1009000000000000000000000000000000000000E7
:1009100000000000000008524543414C4C5F4D452B
:100920004D0000000000000000000000000000007A
:100930000000000000000009544F47474C455F4647
:1009400049454C4400000000000000000000000089
:1009500000000000000000000A53544F52455F4C55
:100960004F470000000000000000000000000000F1
:100970000000000000000000000B434C4F4E4500FB
:100980000000000000000000000000000000000067
:1009900000000000000000000000004F464600007C
:1009A0000000000000000000000000000000000047
:1009B0000000000000000000000000014D454D4F08
:1009C000525900000000000000000000000000007C
:1009D000000000000000000000000000024C49562A
:1009E00045000000000000000000000000000000C2
:1009F00000000000000000000000000000004E4F5A
:100A00004E45000000000000000000000000000053
:100A10000000000000000000000000000000015085
:100A20004F57455245440000000000000000000000
:100A300000000000000000000000000000000002B4
:100A40005445524D494E414C5F434F4E4E000000BD
:100A50000000000000000000000000000000000096
:100A6000035445524D494E414C5F52585458000072
:100A70000000000000000000000000000000000076
:100A8000000453455454494E475F4348414E47453F
:100A90000000000000000000000000000000000056
:100AA0000000054D454D4F52595F53544F52454438
:100AB0000000000000000000000000000000000036
:100AC000000000064D454D4F52595F4348414E4787
:100AD000454400000000000000000000000000008D
:100AE0000000000008434F4445435F525800000097
:100AF00000000000000000000000000000000000F6
:100B0000000000000009434F4445435F5458000073
:100B100000000000000000000000000000000000D5
:100B2000000000000000074649454C445F4445541E
:100B30004543544544000000000000000000000050
:100B4000000000000000000A4C4F474D454D5F4635
:100B5000554C4C00000000000000000000000000A8
:100B6000000000000000000025632C2563002535EF
:100B70006400416E7920696E7465676572206672E3
:100B80006F6D203020746F2025752E2052656665AC
:100B900072656E636520766F6C7461676520776936
:100BA0006C6C2062652028564343202A205448520A
:100BB0004553484F4C44202F203430393529206D7F
:100BC000562E002575002535640030203D206E6FBF
:100BD0002074696D656F75740D0A312D36303020C3
:100BE0003D20313030206D73202D203630303030B4
:100BF000206D732074696D656F7574002575206DA7
:100C0000730025342E345800253575206D56002587
:100C100075202866726F6D20776869636820257576
:100C2000206E6F6E2D766F6C6174696C652900257E
:100C3000750025750025632C25630052414E444FF5
:100C40004D004E4F205549442E004368616D656C40
:100C5000656F6E4D696E6920526576472025532079
:100C60007573696E67204C55464120255320636F8C
:100C70006D70696C65642077697468204156522DE7
:100C80004743432025532E204261736564206F6ED5
:100C900020746865206F70656E2D736F7572636563
:100CA000204E464320746F6F6C204368616D656C05
:100CB000656F6E4D696E692E2068747470733A2F7B
:100CC0002F6769746875622E636F6D2F656D73652C
:100CD000632F4368616D656C656F6E4D696E692049
:100CE000636F6D6D697420255300313930333231B3
:100CF0000031353131313500382E332E3000386136
:100D00003237353565000D0A000D0A000D0A000D59
:100D10000A000D0A000D0A00643130303A4F4B00D2
:100D200000000000000000000000000000000000C3
:100D3000000000000000000000653130313A4F4BE8
:100D400020574954482054455854000000000000E2
:100D5000000000000000000000006E3131303A5702
:100D6000414954494E4720464F5220584D4F444523
:100D70004D00000000000000000000C83230303A92
:100D8000554E4B4E4F574E20434F4D4D414E440014
:100D9000000000000000000000000000C9323031F7
:100DA0003A494E56414C494420434F4D4D414E44E3
:100DB00020555341474500000000000000CA323072
:100DC000323A494E56414C494420504152414D45DA
:100DD000544552000000000000000000000078317F
:100DE00032303A46414C53450000000000000000FC
:100DF000000000000000000000000000000000797A
:100E00003132313A545255450000000000000000D4
:100E100000000000000000000000000000000000D2
:100E2000CB3230333A54494D454F55540000000001
:100E300000000000000000000000000000000000B2
:100E40000056455253494F4E00000000000000007C
:100E500000000000000000891A434F4E4649470039
:100E600000000000000000000000000000B11AAB0C
:100E70001A55494400000000000000000000000076
:100E80000000000000121BD31A524541444F4E4C43
:100E9000590000000000000000000000006E1B620E
:100EA0001B55504C4F414400000000000000000062
:100EB000009B1B000000000000444F574E4C4F4168
:100EC000440000000000000000A01B000000000023
:100ED000005245534554000000000000000000008F
:100EE00000A51B000000000000555047524144453A
:100EF000000000000000000000B01B000000000027
:100F0000004D454D53495A450000000000000000C7
:100F100000000000000000BB1B55494453495A45DE
:100F2000000000000000000000000000000000D3EE
:100F30001B52425554544F4E000000000000000068
:100F40000000000000F01BE91B52425554544F4E64
:100F50005F4C4F4E4700000000000000000C1C05D5
:100F60001C4C425554544F4E00000000000000003D
:100F70000000000000281C211C4C425554544F4EC8
:100F80005F4C4F4E470000000000000000441C3D35
:100F90001C4C4544475245454E00000000000000EF
:100FA0000000000000601C591C4C454452454400A0
:100FB000000000000000000000000000007C1C7524
:100FC0001C4C4F474D4F44450000000000000000FE
:100FD0000000000000961C911C4C4F474D454D00F1
:100FE000000000000000000000000000000000AB56
:100FF0001C4C4F47444F574E4C4F4144000000009B
:1010000000CF1C0000000000004C4F4753544F52CB
:10101000450000000000000000D41C00000000009B
:10102000004C4F47434C4541520000000000000077
:1010300000D71C00000000000053455454494E479F
:1010400000000000000000000000000000DF1CDACB
:101050001C434C454152000000000000000000000D
:1010600000E71C00000000000053544F52450000F0
:10107000000000000000000000EB1C000000000069
:1010800000524543414C4C000000000000000000AD
:1010900000EF1C0000000000004348415247494E49
:1010A000470000000000000000000000000000F306
:1010B0001C48454C500000000000000000000000EB
:1010C00000FB1C00000000000052535349000000C8
:1010D00000000000000000000000000000000038D8
:1010E0001D5359535449434B0000000000000000B9
:1010F000000000000000006B1D53454E445F52414C
:101100005700000000000000000000111E00000059
:101110000053454E440000000000000000000000A5
:10112000000000871D000000004745545549440059
:10113000000000000000000000CF1E0000000000C2
:101140000044554D505F4D46550000000000000022
:1011500000B21E0000000000004944454E544946BC
:10116000590000000000000000EC1E00000000001C
:101170000054494D454F5554000000000000000048
:101180000000000000291F091F5448524553484FD2
:101190004C440000000000000000000000961F7C8E
:1011A0001F4155544F43414C494252415445000060
:1011B0000025200000000000004649454C44000086
:1011C00000000000000000000000000000EB1F1500
:1011D00020434C4F4E45000000000000000000007E
:1011E000005120000000000000000000000000008E
:1011F00000000000000000000000000000000000EF
:101200000053414B3A09005549443A0900415451B1
:10121000413A090054686572652069732061742041
:101220006C65617374206F6E65206D6F72652063ED
:1012300061726420747970652063616E64696461B1
:1012400074652C20627574207468657265207761FE
:1012500073206E6F7420656E6F7567682074657299
:101260006D696E616C20627566666572207370616F
:1012700063652E0D0A000D0A00040001090100003B
:10128000000000000000000000000000000000005E
:101290004E58500000000000000000000000000058
:1012A0004D4946415245204D696E690000000000DD
:1012B000000000000000000000000000000000002E
:1012C000000000000000000000000000000000001E
:1012D000000000000000000000000000000000000E
:1012E00004000108010000000000000000000000F0
:1012F000000000000000004E5850000000000000F8
:10130000000000000000004D494641524520436C5A
:10131000617373696320316B0000000000000000FE
:1013200000000000000000000000000000000000BD
:1013300000000000000000000000000000000000AD
:101340000000000000000002000118010000000081
:1013500000000000000000000000000000004E58E7
:1013600050000000000000000000000000004D4997
:101370004641524520436C617373696320346B00AE
:10138000000000000000000000000000000000005D
:10139000000000000000000000000000000000004D
:1013A00000000000000000000000000000004400F9
:1013B000010001000000000000000000000000002B
:1013C00000000000004E5850000000000000000027
:1013D00000000000004D494641524520556C747292
:1013E000616C696768740000000000000000000084
:1013F00000000000000000000000000000000000ED
:1014000000000000000000000000000000000000DC
:101410000000000000440301200175778102800074
:101420000000000000000000000005004E585000C1
:101430000000000000000000000000004D4946418F
:101440005245204445534669726500000000000083
:10145000000000000000000000000000000000008C
:10146000000000000000000000000000000000007C
:101470000000000000000000000000004403012004
:10148000017577810280000000000000000000006C
:101490000005004E58500000000000000000000051
:1014A0000000004D4946415245204445534669726B
:1014B00065204556310000000000000000000000DB
:1014C000000000000000000000000000000000001C
:1014D000000000000000000000000000000000000C
:1014E00000000004030128013877B14A434F50330C
:1014F0003100000000000000090149424D000000D9
:10150000000000000000000000004A434F5033314B
:1015100000000000000000000000000000000000CB
:1015200000000000000000000000000000000000BB
:1015300000000000000000000000000000000000AB
:1015400000000000000000000000480001200178B9
:1015500077B1024A434F5076323431000000000C1C
:101560000149424D000000000000000000000000A2
:10157000004A434F5033312076322E342E31000052
:10158000000000000000000000000000000000005B
:10159000000000000000000000000000000000004B
:1015A000000000000000000000000000000000003B
:1015B0000048000120013833B14A434F50343156BE
:1015C0003232000000000C0149424D0000000000D2
:1015D00000000000000000004A434F5034312076E4
:1015E000322E320000000000000000000000000069
:1015F00000000000000000000000000000000000EB
:1016000000000000000000000000000000000000DA
:10161000000000000000000004000128013833B180
:101620004A434F503431563233310000000D0149E6
:10163000424D000000000000000000000000004AD1
:10164000434F5034312076322E332E3100000000CB
:10165000000000000000000000000000000000008A
:10166000000000000000000000000000000000007A
:101670000000000000000000000000000000000466
:1016800000018801000000000000000000000000D0
:10169000000000000000496E66696E656F6E000014
:1016A0000000000000004D494641524520436C6156
:1016B0007373696320316B000000000000000000BC
:1016C000000000000000000000000000000000001A
:1016D000000000000000000000000000000000000A
:1016E000000000000000020001980100000000005E
:1016F0000000000000000000000000000047656DD1
:10170000706C75730000000000000000004D504335
:101710004F53000000000000000000000000000027
:1017200000000000000000000000000000000000B9
:1017300000000000000000000000000000000000A9
:1017400000000000000000000000000000000C018C
:101750000000000000000000000000000000000089
:1017600000000000496E6E6F766973696F6E2052DB
:10177000265400004A6577656C00000000000000F8
:101780000000000000000000000000000000000059
:101790000000000000000000000000000000000049
:1017A0000000000000000000000000000000000039
:1017B00000000000020001380100000000000000ED
:1017C00000000000000000000000004E6F6B696127
:1017D00000000000000000000000004D494641529A
:1017E0004520436C617373696320346B202D206541
:1017F0006D756C6174656420283632313220436C1B
:10180000617373696329000000000000000000009C
:101810000000000000000000000000080001380186
:1018200000000000000000000000000000000000B8
:1018300000004E6F6B6961000000000000000000B6
:1018400000004D494641524520436C617373696302
:1018500020346B202D20656D756C617465642028C3
:1018600036313331204E464329000000000000008D
:101870000000000000000000000000000000000068
:10188000000011241FBECFEFCDBFDFE3DEBF00E0BD
:101890000CBF18BE19BE1ABE1BBE14E2A0E0B0E217
:1018A000EAECF4EE00E00BBF02C007900D92AC36FC
:1018B000B107D9F71BBE27E3ACE6B4E201C01D9225
:1018C000A836B207E1F77ED00C9463726EC13BB7C5
:1018D0008BBFFB01879196913BBF08953BB78BBFB0
:1018E000CB0142E20D94F00F3BB70B0143E20D94A4
:1018F000F00F3BB78BBFCB0145E20D94F00F3BB728
:1019000046E208C02091CF0127FDFCCF222720937B
:10191000CA0108954093CA0128ED31E020933400B4
:101920003093CB016091C4017091C5018091C601D3
:1019300099270895FC014093CA01849108950F925C
:1019400000240F932F933F934F935F930FB70F9301
:10195000EF93FF93EAB1FBB15191442735B124B124
:10196000569578F400928C080092000806E10A95DA
:10197000F1F700C001E00093000803E000938C0839
:1019800004C00AE10A95F1F700002150304019F433
:101990000E949D280CC04F5F477011F4519102C006
:1019A00000C000C00AE00A95F1F700C0D9CFFF914E
:1019B000EF910F910FBF5F914F913F912F910F9139
:1019C0000F90189512D10E94B4170E944D18B2D2F0
:1019D0001092520684E08093420682E6809386014C
:1019E000C1E0C0932606C093210686E080932206BC
:1019F000C093310612E01093320610922A0610921C
:101A00002B068FE08093290689E5809380019AE573
:101A1000909381018093820180E4809341068093BA
:101A200046069091B200907F9093B2009091B200E0
:101A300092609093B20090E3909341069093460693
:101A400080935006C09346061093450603E000932A
:101A5000410683E18093010821E030E020932608CD
:101A600030932708209328083093290810928C0877
:101A7000809380081092230310922103D8E0D09322
:101A8000220381E180932003E0916E2FF0916F2F6C
:101A90008285938580933803909339038CE38093F8
:101AA0008203D093800380938303D093810363D117
:101AB0000E94EB19B9D119D7C0930002109201020C
:101AC0001093020200930402C0932002D0932102DB
:101AD0000E94491616D1D2E0C1E18091030481FF32
:101AE00025C08091010480FDFCCFD09303040E94A7
:101AF0005118AED10E941E1A00D70E94AF17E09174
:101B00005E2FF0915F2F19950E943F230E94891943
:101B1000E0916E2FF0916F2F8781813011F4C09387
:101B2000752C8681813011F4C093742C0E94EF19BA
:101B3000A7D7E0915C2FF0915D2F1995E091562F7A
:101B4000F091572F1995C9CF292F3327223031050E
:101B500011F12330310559F02130310509F190E0C0
:101B600080E030E020E0FA01208331830895992756
:101B70008130910569F0009729F0029781F7E8E03C
:101B8000F2E002C0E4E5F2E0849190E09F01EBCF47
:101B9000E8E2F2E0F9CF8EE390E028E532E0E3CF2F
:101BA00082E190E026E932E0DECF0F920FB60F928D
:101BB0001F92112408B60F9218BEFFCF1F921FB6B6
:101BC0001F9211248F9388B78F9318BE9F938EB165
:101BD0009FB180589F4F8EB99FB99F918F9188BFB9
:101BE0008F911F901FBE1F9018958091780083FFE2
:101BF0000AC088E08093780088ED84BF81E08093FC
:101C000080000D94FE008BEC809352008091500078
:101C10008860809350008091510083FFFCCF82EC5C
:101C20008093550080915000806180935000809196
:101C3000510084FFFCCF88ED84BF84E08093400096
:101C40001EB81FB881E0809343002FE730E0209357
:101C50000A0430930B0420930C0430930D048093FA
:101C600000048093020480E880930001089588EDC9
:101C700084BF81E080937900089588ED84BF8BE173
:101C8000809380000895809150008260809350007E
:101C90008091510081FFFCCF82E08093CA01EDE189
:101CA000F0E0E491E0936200ECE1F0E0E491E09395
:101CB00063001092CA0180E8809365008BEB8093EB
:101CC000660080915600897F80935600809156006F
:101CD00084608093560080916000816080936000F2
:101CE0000895E0E4F0E084818E7F8483E0E6F0E014
:101CF00080818E7F8083E0E5F0E080818D7F80832E
:101D0000089587E08093A20078940895089590E064
:101D100080E0089508950895089508950895089518
:101D2000089508950F931F93CF93C82F02E51FE2E4
:101D3000D8011296ED91FC9119950E947723E091BC
:101D40006E2FF0916F2FC583B9E1CB9FB0011124A5
:101D500068557D4F49E150E0C8010E948E6BD80163
:101D6000ED91FC911995D8011696ED91FC91CF91CA
:101D70001F910F91199449E150E068EA72E082E501
:101D80009FE20E948E6BE0916E2FF0916F2F858104
:101D9000C9CF0F931F93E0916E2FF0916F2F8B019E
:101DA0009C0145816FE08FE194E00E9423191F910F
:101DB0000F910895FF920F931F93CF93DF930F928C
:101DC000CDB7DEB78C019E012F5F3F4FAC016FE0B6
:101DD0008FE194E00E943C19F82E8823B1F08981AC
:101DE000A1DF902F812F40E0E92FF82F81918823E8
:101DF00029F04F5F9E2F8F2F4F31B1F7E0916B2F5E
:101E0000F0916C2FB80181E119958F2D0F90DF9122
:101E1000CF911F910F91FF9008959B01AC016FE04E
:101E20008FE194E00C94631908950C94806B0895ED
:101E30001F93CF93DF93162F115020F4DF91CF9192
:101E40001F910895EC010E94806B8993CE01F4CF1D
:101E50000E94806B0E94806B0E94806B0C94806B50
:101E6000CF93DF93DC0161507109FA01EA01C20FDF
:101E7000D31F50E040E0EC17FD0729F0CB01841B95
:101E8000950B029728F41C92CA01DF91CF91089517
:101E90009191392F32953F703A3068F4305D3C9320
:101EA0009F709A3050F4905D11969C931197129602
:101EB0004E5F5F4FE0CF395CF2CF995CF5CFCF93A7
:101EC000DF93EC01DA01F0E0E0E05C91552341F0B2
:101ED00011969C911197992351F1E617F70721F478
:101EE000CF01DF91CF91089580ED850F8A3020F0EA
:101EF0008FEB850F8630D8F480ED890F8A3020F083
:101F00002FEB290F263098F4252F30E0513450F470
:101F10002295207F913448F4982F292B29933196CC
:101F20001296D3CF27533109F3CF9753F6CFF0E072
:101F3000E0E0D6CFE0E6F6E080E1858382E08683CC
:101F400088E085838AE18183E0EAF9E016821782DE
:101F500080EC858388E18483E0E0F1E0128A8BE6FF
:101F6000838B148A158A20EA208F99E0918F128E34
:101F7000148E158E168E84E0808B12A23CE633A35D
:101F800014A215A210A611A612A624A795A716A6FC
:101F900080A308954115510509F449C020E120931B
:101FA000660623E02093A0092091A10927FFFCCF1A
:101FB0002091A0097093A0092091A10927FFFCCFCF
:101FC0002091A0096093A0092091A10927FFFCCFCF
:101FD0002091A00921E02093120180931C0190938D
:101FE0001D014093140150931501109222018CE6BB
:101FF00094E2809328019093290140932401509307
:10200000250180911001806880931001809120014A
:102010008068809320018091100187FDFCCF80E3D0
:10202000809311018093210180E1809365060895DA
:102030004115510509F469C020E12093660626E0A8
:102040002093A0092091A10927FFFCCF2091A0098E
:1020500020E120936506000000002093660622E040
:102060002093A0092091A10927FFFCCF2091A0096E
:102070007093A0092091A10927FFFCCF2091A0090E
:102080006093A0092091A10927FFFCCF2091A0090E
:10209000109212012CE634E220931C0130931D01B2
:1020A000409314015093150120E120932201809365
:1020B0002801909329014093240150932501809198
:1020C00010018068809310018091200180688093C6
:1020D00020018091100187FDFCCF80E380931101E6
:1020E0008093210180E180936506E0916E2FF0914D
:1020F0006F2F8781863019F481E18093752C86815A
:10210000863019F481E18093742C0895CF92DF9288
:10211000EF92FF92CF93DF93C0906D2FD12CF12CD3
:10212000E12C8DE0CC0CDD1CEE1CFF1C8A95D1F758
:10213000C114D10481E0E806F10408F04EC080E14A
:102140008093660686E08093A0098091A10987FFAD
:10215000FCCF8091A00980E180936506000000001B
:102160008093660682E08093A0098091A10987FF91
:10217000FCCF8091A0091092A0098091A10987FF4E
:10218000FCCF8091A0091092A0098091A10987FF3E
:10219000FCCF8FEFE81AF80A8091A009C0E0D0E1E7
:1021A000C701B60194DB8093A0098091A10987FF44
:1021B000FCCF8091A0099093A0098091A10987FF8D
:1021C000FCCF8091A00982E0C80ED11CE11CF11C5B
:1021D000219731F780E1809365068091010480FDAD
:1021E000FCCF82E080930304DF91CF91FF90EF90CA
:1021F000DF90CF900895CF92DF92EF92FF92CF932E
:10220000DF93C0906D2FD12CF12CE12C8DE0CC0C04
:10221000DD1CEE1CFF1C8A95D1F7C114D10481E0AE
:10222000E806F10438F0DF91CF91FF90EF90DF9056
:10223000CF906CCF8FEFE81AF80AC1E2D0E0219777
:1022400091F360DBC701B60149DB5CDB8FEFD81A85
:10225000E80AF80AF4CFCF92DF92EF92FF920F9341
:102260001F93CF93DF93C0906D2FD12CF12CE12CD5
:102270008DE0CC0CDD1CEE1CFF1C8A95D1F7C1143F
:10228000D10481E0E806F10438F580E18093660628
:1022900083E08093A0098091A10987FFFCCF809102
:1022A000A0091092A0098091A10987FFFCCF80911D
:1022B000A0091092A0098091A10987FFFCCF8FEFA0
:1022C000E81AF80A8091A00901E210E00150110912
:1022D00071F580E180936506E0916E2FF0916F2F8C
:1022E0008781863019F490E19093752C9681963011
:1022F00009F045C020E12093742C853041F483E13E
:102300008093752C953019F483E18093742C80911F
:10231000010480FDFCCF82E080930304DF91CF9124
:102320001F910F91FF90EF90DF90CF900895EADA20
:10233000E6DAE8DAD0E0C0E01092A0098091A109C5
:1023400087FFFCCF6091A00970E01092A0098091F6
:10235000A10987FFFCCF8091A009782BCE01C4DAB8
:10236000D1DA2296C11581E0D80731F7C701B6014D
:10237000C0DAC8DA8FEFD81AE80AF80AA7CF853092
:1023800009F0C0CFBCCFCF92DF92EF92FF920F93B4
:102390001F934115E0E25E076105710508F06AC010
:1023A0006901F12CE12C00E010E220E030E0041B98
:1023B000150B260B370BC016D106E206F30608F400
:1023C000860120E12093660626E02093A009209153
:1023D000A10927FFFCCF2091A00920E120936506E9
:1023E000000000002093660622E02093A0092091BF
:1023F000A10927FFFCCF2091A0095093A0092091AB
:10240000A10927FFFCCF2091A0094093A0092091AA
:10241000A10927FFFCCF2091A009109212012CE600
:1024200034E220931C0130931D010093140110939A
:10243000150120E120932201809328019093290126
:1024400000932401109325018091100180688093EE
:1024500010018091200180688093200180911001FB
:1024600087FDFCCF80E3809311018093210180E1FF
:102470008093650681E01F910F91FF90EF90DF90B0
:10248000CF900895CF92DF92EF92FF920F931F9318
:102490004115E0E25E076105710508F062C069015F
:1024A000F12CE12C00E010E220E030E0041B150BE1
:1024B000260B370BC016D106E206F30608F4860198
:1024C00020E12093660623E02093A0092091A10932
:1024D00027FFFCCF2091A0095093A0092091A109CA
:1024E00027FFFCCF2091A0094093A0092091A109CA
:1024F00027FFFCCF2091A00921E0209312018093B7
:102500001C0190931D01009314011093150110926A
:1025100022018CE694E28093280190932901009394
:10252000240110932501809110018068809310018F
:10253000809120018068809320018091100187FDA7
:10254000FCCF80E3809311018093210180E180938F
:10255000650681E01F910F91FF90EF90DF90CF9083
:10256000089580E0F7CF8091CF0187FDFCCF0895DB
:10257000FADF8091CF0181FF0BC086E38093CA010F
:1025800088ED90E021E030E0EBECF1E084BF2083C7
:102590000895EF92FF920F931F93CF93DF93EC0177
:1025A000F62EE72E8A011092C201DDDFCE01800FE8
:1025B000911F26E048ED50E061E070E0EBECF1E0C7
:1025C000C817D90741F4C801DF91CF911F910F912E
:1025D000FF90EF900895C093C0013D2F3F7130935D
:1025E000C1012093CA0144BF6083AF2DBE2D30913D
:1025F000C4013D932196FA2EEB2EE2CF2F923F920B
:102600004F925F926F927F928F929F92AF92BF9202
:10261000CF92DF92EF92FF920F931F93CF93DF93AE
:10262000462E372E542E652E282F2F71722EEC0138
:10263000C21BD1099DDF97DF83E38093CA0110920B
:10264000C1011092C201052D162D88EDC82ED12C86
:1026500088248394912C2BECA22EBB24B39433E3D7
:10266000232E01151105A9F4852D962DDF91CF910B
:102670001F910F91FF90EF90DF90CF90BF90AF90A0
:102680009F908F907F906F905F904F903F902F9092
:1026900008957092C001E42CF32CF70181917F0121
:1026A0008093C4010150110921F07394F0E27F126C
:1026B00012C0C093C0018D2F8F718093C10185E33B
:1026C0008093CA01C601F50184BF8082A0964BDFCA
:1026D0002092CA01712C4E2C3F2CC3CF1F93CF9355
:1026E000DF93CDB7DEB7A097CDBFDEBF863009F44C
:1026F000E8C0D8F5833009F49AC068F4813009F451
:1027000070C0823009F46FC0A096CDBFDEBFDF91EC
:10271000CF911F910895843009F4AFC08530A1F79F
:10272000E091622FF091632FCE010196199580916F
:10273000682F41E0815008F441C04423D9F3282F89
:1027400030E0E1E0F0E0EC0FFD1FE20FF31F9081BD
:1027500041E0911140E061E070E06C0F7D1F260FB9
:10276000371F9150F9019083E5CF893009F4ADC04E
:1027700038F4873009F4A7C0883031F6C7DCC4CFFD
:102780008A3009F4ADC08B3009F0BECF88EC93E2FB
:102790000E946D22B9CF49DBE1E0F0E0EC0FFD1FB4
:1027A000E10FF11D80831F5F8091682F181798F348
:1027B00080916A2F853011F480EE8983E091642F37
:1027C000F091652FCE0101961995E0916B2FF09154
:1027D0006C2F4091682FBE016F5F7F4F83E1199589
:1027E00093CF10E0E1CF11E08091682F873009F09E
:1027F00010E0E091622FF091632FCE0101961995C0
:102800002091682FE1E0F0E0EC0FFD1FE10FF11DDA
:1028100091E0121798F6992339F0808191E08F3F6B
:1028200009F090E08F5F80831F5F3196F2CFE091D7
:10283000622FF091632FCE01019619958091682F38
:1028400041E0815008F4BACF4423D9F3282F30E077
:10285000E1E0F0E0EC0FFD1FE20FF31F908141E09B
:102860009F3F09F040E061E070E06C0F7D1F260F94
:10287000371F9F5FF9019083E4CF11E08091682FAB
:10288000873009F010E0E091622FF091632FCE01C4
:10289000019619952091682FE1E0F0E0EC0FFD1F03
:1028A000E10FF11D91E0121708F088CF992331F064
:1028B000808191E0811190E0815080831F5F31968B
:1028C000F2CFB5D321CFC7DC1FCF80910008813074
:1028D00049F480918C08833029F40E94252414CF78
:1028E000B8D212CF0E9400240FCFE0E0F6E080E6DD
:1028F000828388E1868B858B0895CF93C0910806EB
:10290000C095C6FF1DC080916E248A3070F48F5F21
:1029100080936E24C5FF30C080916D248A3008F505
:102920008F5F80936D24CF9108958A3099F7E0915D
:102930006E2FF0916F2F8181D1DE80916E24E7CFD1
:102940008C2F807639F780916E2481508A3030F454
:10295000E0916E2FF0916F2F8081C0DE10926E2477
:10296000D9CF8A3001F7E0916E2FF0916F2F8381DC
:10297000B5DE80916D24D4CFC076A9F680916D2408
:1029800081508A3030F4E0916E2FF0916F2F828168
:10299000A5DE10926D24C7CF9B01AC016CE08EE0E8
:1029A00098E091C4E82FF0E0E359F04D6383678726
:1029B000638F67A363AB67AFDF01A55BBF4F6C930A
:1029C000E95AFF4F608308950F931F939B01E09195
:1029D0006E2FF0916F2FE80FF11D8A0140816CE09E
:1029E0008EE098E030D41F910F9108950F931F93BC
:1029F000CF93DF930F92CDB7DEB7082FAB019E01C7
:102A00002F5F3F4F6CE08EE098E036D4182F88237C
:102A100019F06981802FC6DF812F0F90DF91CF9150
:102A20001F910F9108950895EF92FF920F931F93B6
:102A3000CF937B01C42F0EB11FB1209108043091B8
:102A40000904022B132B682F83E090E20E948D690A
:102A50006C2F83E090E20E948D69612F83E090E209
:102A60000E948D69602F83E090E20E948D696C2F37
:102A700070E0C701CF911F910F91FF90EF90A5C417
:102A800008954F925F926F927F928F929F92AF9232
:102A9000BF92CF92DF92EF92FF920F931F93CF934B
:102AA000DF938C012A013B01E901C0900020D09006
:102AB0000120C60182509843AC0170E060E04416EA
:102AC00055066606770608F073C022E0C21A20E4B5
:102AD000D20A530142018C0E9D1EA11CB11C84160A
:102AE0009506A606B70608F443C09C0124193509CB
:102AF000C81BD90B7E01E40CF51CE90199249394C1
:102B0000C601B0E0A0E0B201481659066A067B068D
:102B100008F045C06E5F7F4BA30192012C0F3D1F53
:102B2000411D511D281739074A075B0728F5AE01DB
:102B3000C80130DA992051F0EC0EFD1EF801EE0DBF
:102B4000FF1DC00FD11FEC17FD0781F581E0DF915C
:102B5000CF911F910F91FF90EF90DF90CF90BF909A
:102B6000AF909F908F907F906F905F904F9008955F
:102B7000F12CE12C912CC4CF5601A418B508A50165
:102B8000C80108DAA2014C195D094C0F5D1F64E70A
:102B900074E2C8018A0D9B1D0E94BC6BCBCF6C19DF
:102BA0007D096C587B4DAE01C801F6CF1292CBCF98
:102BB00080E0CDCFE4E7F4E22091702430917124DD
:102BC00084E79CE2821B930BE817F90751F584E731
:102BD00094E2809372249093732480E098E0809331
:102BE00070249093712482E090E48093002090936D
:102BF000012042E050E060E070E480E090E218DA0A
:102C0000E0916E2FF0916F2F87818A3019F480E167
:102C10008093752C86818A3019F480E18093742C1E
:102C200008951192D1CF8091702490917124905881
:102C30002091002030910120821B930B08958093F6
:102C4000742F8093802F80938C2F8093982F809364
:102C5000A42F8093B02F8093BC2F8093C82F8130F6
:102C600071F0882319F0823079F0089510926F2462
:102C700083E195E180936B2F90936C2F089580935F
:102C80006F2484EA96E1F6CF10926F2484E195E1F7
:102C9000F1CF0F931F93CF93DF930F92CDB7DEB792
:102CA000E0916E2FF0916F2F8481C9DF84E794E269
:102CB000809372249093732400E018E000937024B2
:102CC0001093712441E050E0BE016F5F7F4F80E0C0
:102CD00090E05FDCE0917224F0917324DF01C80181
:102CE0001D920197E9F789818823B1F042E050E015
:102CF00060E070E480E090E24DD9E0916B2FF091BC
:102D00006C2F40E070E060E08FEF19950F90DF913D
:102D1000CF911F910F91089582E090E4809300205D
:102D20009093012042E050E060E070E480E090E2A7
:102D30007FD981E0898341E050E0BE016F5F7F4F22
:102D400080E090E05BDCD9CF0F931F93CF93DF93AC
:102D5000EEB1FFB100910804109109042091702494
:102D600030917124A42FB0E0ED0124962C173D077B
:102D700070F1245031092A1B3B0B209370243093AF
:102D80007124C0917224D091732488834983CE0129
:102D900004968093722490937324E02BF12BFE27EA
:102DA000EF27FE27EA83FB83EC01415058F48A0F9A
:102DB0009B1F8093722490937324DF91CF911F9176
:102DC0000F910895FB0121912993BF01EECF80E07F
:102DD00036DFE0916E2FF0916F2F87818A3019F4E2
:102DE00081E18093752C86818A3039F781E1809367
:102DF000742CE3CF1F93CF93DF930F92CDB7DEB741
:102E00009E012F5F3F4FAC0163E08AE999E034D225
:102E1000182F882311F0898112DF812F0F90DF9105
:102E2000CF911F9108950F931F93E0916E2FF09112
:102E30006F2F8B019C01448163E08AE999E003D202
:102E40001F910F9108959B01AC0163E08AE999E01D
:102E50003AC20F931F93CF93DF9380917024909188
:102E60007124811528E0920708F074C000910020B9
:102E700010910120C0E0D0E8C01BD10B40E058E029
:102E8000481B590BC417D507A8F1B80184E794E291
:102E9000CFD820917024309171248091002090919E
:102EA0000120985F821B930B809300209093012058
:102EB000E4E7F4E284E79CE2821B930B8E179F0702
:102EC000B9F484E794E2809372249093732480E0B1
:102ED00098E0809370249093712442E050E060E089
:102EE00070E480E090E2DF91CF911F910F91A0C834
:102EF0001192E4CF209771F1AE01B80184E794E21A
:102F000097D8A8015857BE016C587B4D84E794E2CE
:102F10000E94C56B10588091722490917324080F01
:102F2000191F009372241093732480917024909140
:102F300071248C0F9D1F8093702490937124809135
:102F4000002090910120C80FD91FC0930020D0937A
:102F50000120C3CFDF91CF911F910F9108958091F0
:102F60006F24811176CF089543E650E06DE67FE24D
:102F700081E090E00ECB43E650E06DE67FE281E039
:102F800090E03CCB0F931F93CF93DF93D82FCFEFDD
:102F9000C80F80E0C83008F045C00E9477238091B8
:102FA0006D2FC81779F157D9C0936D2F2CE0C29FB0
:102FB000C00111249C012059304D20936E2F309375
:102FC0006F2F8359904DFC0180850E94920EE091F5
:102FD0006E2FF0916F2F848132DE98D801E010E0DF
:102FE0000D561F4260916D2FC8018359904D0E946C
:102FF000F57160916E2F70916F2FC8018259904DBD
:103000000E94FE71D15EE0916E2FF0916F2F87814B
:10301000843011F4D093752C8681843011F4D093D0
:10302000742C81E0DF91CF911F910F9108958091D1
:103030006D2F99E04CE0915009F40895282F30E06D
:103040002F5F3F4F27703327822F429FF001439F0E
:10305000F00D1124E359F04D2085222361F38F5F99
:1030600091CFFC0190916D2F9F5C90831182089508
:10307000CF93FC01218121110DC0C081E0916B2F04
:10308000F0916C2F41E0BC0182E1199580ED8C0F2D
:10309000CF9178CF80E0CF91089588E180930106A9
:1030A00008958091742C823139F140F4803181F19E
:1030B000F8F4882381F01092742C0DC0833101F153
:1030C00090EE980F9830B8F79091762C9F5F9130E2
:1030D00019F19093762C8091752C8231E1F148F5AD
:1030E000803109F445C098F581111092752C08952E
:1030F00088E080930506DFCF88E080930706DBCF6A
:103100008091040683FD04C088E080930506E3CF28
:1031100088E080930606CFCF9091040693FFF4CF0A
:1031200098E090930606803231F281508093742C9F
:10313000D2CF8331A1F090EE980F9830B0F69091F5
:10314000772C9F5F9130B9F09093772C089580E1B0
:1031500080930506CACF80E180930706C6CF809191
:10316000040684FD04C080E180930506089580E193
:1031700080930606BACF9091040694FFF4CF90E1B5
:1031800090930606803209F4B0CF81508093752C5D
:1031900008959B01AC016BE08DEF99E094C0EDE6E2
:1031A000FFE2982F90718870911162878111618779
:1031B0003C962FE2ED3CF207B9F7992329F090E114
:1031C000909306061092752C882329F088E080934E
:1031D00006061092742C08950F931F939B018A0189
:1031E000803161F4E0916E2FF0916F2F47816BE099
:1031F0008DEF99E028D01F910F9108958830D9F76D
:10320000E0916E2FF0916F2F4681F1CF0F931F93B6
:10321000CF93DF930F92CDB7DEB7082FAB019E019E
:103220002F5F3F4F6BE08DEF99E026D0182F88235A
:1032300019F06981802FB3DF812F0F90DF91CF913B
:103240001F910F9108950F931F93FC01942FA801D4
:10325000611102C080E00BC08491615089130AC0E3
:10326000BF016F5F7F4FC9010E94A06B81E01F917A
:103270000F910895B196ECCFCF92DF92EF92FF922B
:103280001F93CF93DF93EC01162F7A01690111117F
:1032900002C080E00EC0BE016F5F7F4FC7010E9479
:1032A000976B1150892B69F4FE01C491F601C0831C
:1032B00081E0DF91CF911F91FF90EF90DF90CF9051
:1032C0000895A196E4CFCF93DF930196ACE261110C
:1032D00007C0232B11F0EA011882DF91CF910895E6
:1032E000FC01749171110BC0623030F02115310571
:1032F000A1F3FA01A193AF0161508196E8CF2115A6
:10330000310559F3EA017993AE0131962150310923
:10331000E8CFCF93DF9380912002806880932002D2
:103320008091230280FFFCCF81E080932302A09153
:103330001002B0911102AE5BB109C0916E2FD09115
:103340006F2FFF81EE81B7FD09C020E038EB4BE025
:1033500050E00E941A6B843F9140A8F4F73019F4B2
:1033600080E18093752CE73019F480E18093742C10
:103370008091682F882389F0E0915A2FF0915B2F7C
:10338000DF91CF911994F73019F481E18093752C76
:10339000E73019F481E18093742CDF91CF91089587
:1033A000BC0183E090E20C944569CF93DF93EC017C
:1033B000FE0164912196611103C0DF91CF910895C0
:1033C00083E090E20E948D69F3CFAB01BC0183E002
:1033D00090E20C94696980E2809362060895CF932D
:1033E000DF938091782C823031F583E090E20E9467
:1033F000F8690E94F06483E090E20E94136AEC0195
:1034000097FD19C0E0916E2FF0916F2F8781833067
:1034100019F483E18093752C8681833019F483E15C
:103420008093742C8C2F85D6811105C08C2FDF9151
:10343000CF910C948D22DF91CF9108958091782CBB
:103440008130C1F0882359F0823009F1833041F195
:103450008091782C823091F5B7D70C943F238091DE
:10346000680685FFF5CF8FE08093022081E080938E
:10347000782CEECF80910220815080930220811120
:10348000E7CF0E94430E0E94726882E0F0CF8091E5
:10349000680685FDDDCF8FE08093022083E0E7CFD3
:1034A000809102208150809302208111D1CF0E940F
:1034B00037680E94710E1092782CCACF0895E0915F
:1034C0006E2FF0916F2F8781823019F481E1809304
:1034D000752C8681823019F481E18093742C0895D3
:1034E000E0916E2FF0916F2F8781823019F480E187
:1034F0008093752C8681823019F480E18093742C3E
:10350000089583E090E20C94206983E090E20C94AB
:10351000666A2EEF3CE03F932F9328EF3CE03F9309
:103520002F9321EF3CE03F932F932AEE3CE03F9313
:103530002F932AE43CE03F932F9322E02F931F9296
:103540009F938F930E94256C8DB79EB70E968DBF6B
:103550009EBF85E6089560E072E00E94C90E85E690
:103560000895FB0120812F3349F42181211106C0E8
:1035700060E072E00E940D0F85E60895CB010E9485
:10358000DA0E882371F0E0916E2FF0916F2FCF014A
:103590008F5F9F4F658188569F420E94F57184E638
:1035A00008958AEC0895EF92FF920F931F93CF93A3
:1035B000DF93CDB7DEB7A097CDBFDEBF7C01009112
:1035C000682F10E001151105E1F482E49CE09F935F
:1035D0008F9382E08F931F92FF92EF920E94256C4F
:1035E0000F900F900F900F900F900F9085E6A09680
:1035F000CDBFDEBFDF91CF911F910F91FF90EF9074
:103600000895E091622FF091632FCE0101961995F4
:103610009801AE014F5F5F4F60E072E0C7010E940A
:10362000300FE4CFDF92EF92FF920F931F93CF936F
:10363000DF93CDB7DEB7A097CDBFDEBF7B01D090C3
:10364000682F6BE37CE0C7010E94976B8E010F5FD0
:103650001F4F892B61F578018E2D801B8D1508F188
:1036600080916A2F853011F480EE8983E091642F78
:10367000F091652FC8011995E0916B2FF0916C2F97
:103680004091682FB80183E1199584E6A096CDBFDB
:10369000DEBFDF91CF911F910F91FF90EF90DF90F0
:1036A00008950E94150FF70181937F01D5CFA701DF
:1036B00060E270E0C8010E945F0FD8161906B1F2EF
:1036C0008AECE4CFFC018091692F882329F081E303
:1036D0008083118285E6089580E3FACFFB01218182
:1036E000211127C02081213329F481E08093692FA3
:1036F00084E60895203319F41092692FF9CF2F33FF
:10370000C1F41F9220E32F931F9221E32F9325E30F
:103710003CE03F932F9322E02F931F929F938F9330
:103720000E94256C8DB79EB70A968DBF9EBF85E619
:1037300008958AEC089583EC91E1CAD48EE6089549
:1037400082E492E1E0D48EE60895E0ECF4E0818139
:103750008E7F81830E9437680E94370E84E6089529
:10376000E0ECF4E081818E7F81830E9437680E94C3
:103770003D0E84E60895E2E5FFE225892F93248932
:103780002F9322E33CE03F932F9322E02F931F924D
:103790009F938F930E94256C8DB79EB708968DBF1F
:1037A0009EBF85E608952091682F1F922F932FE2E8
:1037B0003CE03F932F9322E02F931F929F938F9390
:1037C0000E94256C8DB79EB708968DBF9EBF85E67B
:1037D000089540E052E0BC0180E0F6D885E6089507
:1037E000FB0120812F3341F42181211105C060E0CC
:1037F00072E0D2D885E6089580E0F8D8882319F0E1
:10380000BADB84E608958AEC089540E052E0BC01FA
:1038100081E0DAD885E60895FB0120812F3341F459
:103820002181211105C060E072E0B6D885E60895D7
:1038300081E0DCD8882319F09EDB84E608958AECC9
:10384000089540E052E0BC0182E0BED885E60895CC
:10385000FB0120812F3341F42181211105C060E05B
:1038600072E09AD885E6089582E0C0D8882319F0DE
:1038700082DB84E608958AEC089540E052E0BC01C2
:1038800083E0A2D885E60895FB0120812F3341F41F
:103890002181211105C060E072E07ED885E608959F
:1038A00083E0A4D8882319F066DB84E608958AECC7
:1038B000089540E052E0BC0180E18EDC85E6089589
:1038C000FB0120812F3341F42181211105C060E0EB
:1038D00072E05FDC85E6089580E198DC882319F0CA
:1038E0004ADB84E608958AEC089540E052E0BC018A
:1038F00088E072DC85E60895FB0120812F3341F4D6
:103900002181211105C060E072E043DC85E6089565
:1039100088E07CDC882319F02EDB84E608958AECAD
:10392000089560E072E07FDA85E60895FB0120816A
:103930002F3341F42181211105C060E072E083DA68
:1039400085E60895CB0156DA882319F014DB84E666
:1039500008958AEC0895CF93DF93EC0164D99C011C
:10396000811548E0940710F420E038E038503F9388
:103970002F939F938F938FE09CE09F938F9382E090
:103980008F931F92DF93CF930E94256C8DB79EB7C4
:103990000A968DBF9EBF85E6DF91CF91089581E4A1
:1039A00095E1B1D38EE6089554DA84E6089502D9FC
:1039B00084E6089560E072E054DB85E60895CB016B
:1039C00057DB811102C08AEC089584E608950E94B5
:1039D000FB1084E608950E942B1184E608950E944E
:1039E000861084E608958091680680FF02C088E70B
:1039F000089589E70895DF92EF92FF920F931F9346
:103A0000CF93DF93EC010FEF11E081E4E82E8EE01D
:103A1000F82E9CE2D92EB7018FED93E20E94976BAE
:103A2000892B19F00115110509F52197188285E6F2
:103A3000DF91CF911F910F91FF90EF90DF9008954C
:103A4000488331968901EC014491CE010196980199
:103A500021503109442319F00130110589F7D8822A
:103A6000890128E1E20EF11CEC01D5CFF701ECCF82
:103A7000FC018091200280688093200280912302C3
:103A800080FFFCCF81E080932302A0911002B091CF
:103A90001102AE5BB109B7FF02C0B0E0A0E020E0C8
:103AA00038EB4BE050E00E941A6BAA27BB279F938C
:103AB0008F9388E09CE09F938F9382E08F931F9277
:103AC000FF93EF930E94256C8DB79EB708968DBF2C
:103AD0009EBF85E608952EB13FB1409108045091F4
:103AE0000904242B352B3F932F9322E03CE03F9396
:103AF0002F9322E02F931F929F938F930E94256C08
:103B00008DB79EB708968DBF9EBF85E608950F932B
:103B10001F93CF93DF930F920F92CDB7DEB78B0138
:103B2000E0916E2FF0916F2F8581893009F077C079
:103B3000E0915A2FF0915B2F199581E08093DC2C56
:103B400060E270E0C8010E94DD6B0097C1F5F801EA
:103B500001900020E9F73197E01BF10BE0FD5DC01B
:103B6000F695E795E130F10501F587E090E0809367
:103B7000502F9093512F6091502F7091512F695F6A
:103B80007F4F83E0769567958A95E1F7A8018EE4EB
:103B90009EE20E945F0F0E94E72C8FEF0F900F9024
:103BA000DF91CF911F910F91089553E0EE0FFF1F0A
:103BB0005A95E1F7E093502FF093512FDCCF980105
:103BC0002C5F3F4F8217930741F5A80162E070E038
:103BD000CE0101960E945F0F898190E0982F88277F
:103BE0002A81820F911D8093502F9093512F0B5F4C
:103BF0001F4FF80101900020E9F73197E01BF10B0E
:103C0000E0FD0BC0F695E79533E0EE0FFF1F3A9508
:103C1000E1F7E817F90708F0AECF8AECBFCF89ECDF
:103C2000BDCFEF92FF920F931F93CF93DF930F922D
:103C30000F92CDB7DEB78B01E0916E2FF0916F2F11
:103C40008581893009F08CC0E0915A2FF0915B2F6B
:103C5000199582E08093DC2C60E270E0C8010E943C
:103C6000DD6B7C01892B09F041C0F8010190002037
:103C7000E9F73197E01BF10BE0FD70C0F695E79591
:103C8000E130F10511F587E090E08093502F90939B
:103C9000512F6091502F7091512F695F7F4F83E0BA
:103CA000769567958A95E1F7A8018EE49EE20E94D9
:103CB0005F0F0E94E72C8FEF0F900F90DF91CF9155
:103CC0001F910F91FF90EF90089553E0EE0FFF1FAB
:103CD0005A95E1F7CF0169E070E00E94FF6AE81BA6
:103CE000F90BE093502FF093512FD3CFC8010496D6
:103CF000E816F90699F5A80162E070E0CE01019698
:103D00000E945F0F8981282F30E0322F22278A817D
:103D1000820F932F911D8093502F9093512F8730B6
:103D2000910529F09C0127703327232BB9F48701D3
:103D30000F5F1F4FF80101900020E9F73197E01B5A
:103D4000F10BE0FD0BC0F695E79533E0EE0FFF1F9A
:103D50003A95E1F7E817F90708F09BCF8AECACCF6A
:103D600089ECAACFE0916E2FF0916F2F8581893079
:103D7000A1F4E0915A2FF0915B2F199585E0809383
:103D8000DC2C0E946C4C0E94E72C86E79CE480931C
:103D9000872C9093882C8FEF089589EC0895E091FB
:103DA0006E2FF0916F2F85818930A1F4E0915A2F09
:103DB000F0915B2F199583E08093DC2C0E946C4C72
:103DC0000E94E72C86E79CE48093872C9093882CB4
:103DD0008FEF089589EC0895E0916E2FF0916F2F89
:103DE00085818930A1F4E0915A2FF0915B2F1995CC
:103DF00086E08093DC2C0E946C4C0E94E72C86E7C6
:103E00009CE48093872C9093882C8FEF089589EC05
:103E10000895E0916E2FF0916F2F4085518564E6F3
:103E2000649F9001659F300D11243F932F932CEFD9
:103E30003BE03F932F9322E02F931F929F938F930A
:103E40000E94256C8DB79EB708968DBF9EBF85E6F4
:103E50000895CF93DF930F920F92CDB7DEB7FB019A
:103E600020812F33D1F42181211117C02AEC3BE0AE
:103E70003F932F9322E02F931F929F938F930E9443
:103E8000256C0F900F900F900F900F900F9085E67C
:103E90000F900F90DF91CF91089589E592E089838B
:103EA0009A83CE0101969F938F9386EC9BE09F931C
:103EB0008F937F936F930E945B6C0F900F900F9086
:103EC0000F900F900F90892BA9F069817A81693545
:103ED000F2E07F0778F4E0916E2FF0916F2F60870A
:103EE0007187CF018F5F9F4F85569F420E94FE7161
:103EF00084E6CECF8AECCCCFE0916E2FF0916F2F7D
:103F000023852F9322852F9323EC3BE03F932F9320
:103F100022E02F931F929F938F930E94256C8DB761
:103F20009EB708968DBF9EBF85E60895CF93DF9319
:103F30000F920F92CDB7DEB7FB0120812F33D1F462
:103F40002181211117C02FE02F932FEF2F9322E70C
:103F50003BE03F932F9322E02F931F929F938F93E9
:103F60000E94256CCDBFDEBF85E60F900F90DF91DC
:103F7000CF91089519821A82CE0101969F938F9353
:103F80008EE69BE09F938F937F936F930E945B6C71
:103F90000F900F900F900F900F900F90892BC9F0FA
:103FA00069817A81611590E1790798F4609338030B
:103FB00070933903E0916E2FF0916F2F62877387B2
:103FC000CF018F5F9F4F83569F420E94FE7184E610
:103FD000CCCF8AECCACFFB0120812F33D9F42181C9
:103FE000211121C01F9220E32F931F9221E32F93D1
:103FF00028E63BE03F932F9322E02F931F929F935D
:104000008F930E94256C8DB79EB70A968DBF9EBF79
:1040100085E60895213319F4F3D384E60895203317
:1040200011F413D4FACF8AEC0895FC0180910008B2
:10403000813021F480918C08833029F080E38083E3
:10404000118285E6089581E3FACFE0916E2FF09119
:104050006F2F85818930A1F4E0915A2FF0915B2F69
:10406000199584E08093DC2C0E946C4C0E94E72C14
:1040700086E79CE48093872C9093882C8FEF08959B
:10408000883069F4E0915A2FF0915B2F199581E007
:104090008093B82D0E94FA538FE094E5EBCF89EC22
:1040A000089589E00E94920EE0915A2FF0915B2FC3
:1040B000199587E08093DC2C0E946C4C0E94E72CC1
:1040C00086E79CE48093872C9093882C8FEF08954B
:1040D00021E02093862C2093852C2CE32093832CA5
:1040E00025E030E02093812C3093822C10927B2CA1
:1040F00010927C2C10927D2C10927E2C8093792C27
:1041000090937A2C089527E02093862C2CE231E0BE
:104110002093812C3093822C10927B2C10927C2C3B
:1041200010927D2C10927E2C8093792C90937A2C77
:104130000895CF939091862C953009F443C038F4BC
:10414000933051F168F591110FC0C0E097C09730DE
:1041500009F4A6C008F44AC0983009F4FEC09930AA
:10416000A1F71092862C16C0813041F410927F2C5A
:104170001092802C83E08093862C0CC0843031F424
:1041800066E083E090E20E948D69EBCF883149F3CD
:104190008B3139F3C1E072C08093842C84E0EBCF83
:1041A0009091842C2FEF30E0291B310982171306E0
:1041B00011F485E0E0CF65E183E090E20E948D6933
:1041C00082E0D9CF20917F2C3091802CA9014F5FC4
:1041D0005F4F40937F2C5093802C2053304DF9013A
:1041E000808386E040385105A9F6C5CF2091842C04
:1041F0009091852C29134CC090E020ED3FE2F9010D
:1042000041919F01940FF0E320353F07C1F78913D7
:10421000D2CF40917B2C50917C2C60917D2C709161
:104220007E2CE091792CF0917A2C20E830E080ED22
:104230009FE21995C82F882321F18091852C8F5FEB
:104240008093852C80917B2C90917C2CA0917D2C4F
:10425000B0917E2C80589F4FAF4FBF4F80937B2CE7
:1042600090937C2CA0937D2CB0937E2C66E083E011
:1042700090E20E948D6982E08093862C8C2FCF91F2
:10428000089568E183E090E20E948D6968E179CF4A
:10429000492F4150550B24171506C1F766E08CCF06
:1042A000853109F057C01092852C8091852C8F5F45
:1042B0008093852C40917B2C50917C2C60917D2C9F
:1042C00070917E2CE091792CF0917A2C20E830E0EE
:1042D00080ED9FE21995C82F882309F46EC061E034
:1042E00083E090E20E948D696091852C83E090E2EA
:1042F0000E948D696091852C609583E090E20E9418
:104300008D6960E870E080ED9FE25FD860E080ED4D
:104310009FE2FC012191CF01620FF0E380359F07FE
:10432000C1F783E090E20E948D6980917B2C90918F
:104330007C2CA0917D2CB0917E2C80589F4FAF4F4C
:10434000BF4F80937B2C90937C2CA0937D2CB093BB
:104350007E2C94CF8B3109F404CF883109F410CF2F
:10436000863009F4A2CF853109F014CF61E083E0F3
:1043700090E20E948D696091852C83E090E20E941A
:104380008D696091852C609583E090E20E948D6933
:1043900060E870E080ED9FE218D860E080ED9FE279
:1043A000FC012191CF01620FF0E380359F07C1F737
:1043B00083E090E20E948D69EDCE64E083E090E2BC
:1043C0000E948D6989E0D7CE8091862C813019F0CA
:1043D000873029F108958091812C9091822C9C0145
:1043E000215031092093812C3093822C892B31F577
:1043F0008091832C9FEF980F9093832C882361F0FA
:1044000065E183E090E20E948D6985E090E0809311
:10441000812C9093822C08951092862CF6CF809157
:10442000812C9091822C9C01215031092093812C68
:104430003093822C892B11F41092862C089530E051
:1044400020E0F901E85EF24FE491E81304C0C901ED
:10445000875E924F08952F5D3F4F293291E03907D3
:1044600081F790E080E00895262FBA012F33E9F418
:104470004696FC01259134912115310561F180EDBD
:104480009FE2F90119958F3F39F591E090938B2CBC
:104490002EB13FB14091080450910904242B352BD3
:1044A0002093892C30938A2C08952D3361F44496FF
:1044B000FC01259134912115310569F080ED9FE2D1
:1044C000F9011995E0CF211102C04096D2CF2032D8
:1044D00011F44296EDCF89EC08950F931F93CF937B
:1044E000DF938C01C1E4DEE0BE01C8010E94976B3E
:1044F000892B49F450E040E060E0CE01DF91CF919C
:104500001F910F91B1CF689682E1C130D80761F752
:10451000DF91CF911F910F910895CF92DF92EF928B
:10452000FF920F931F93CF93DF939FE9980F2FEB89
:10453000280F2A3158F19A3158F190ED980F9A309E
:1045400040F08F3531F0982F9D7F9D3311F08032F0
:1045500009F520918C2C30918D2C2F3F91E039075B
:1045600058F4A9014F5F5F4F40938C2C50938D2CD2
:104570002053304DF901808381E0DF91CF911F916D
:104580000F91FF90EF90DF90CF9008959A3108F748
:104590008052DFCF8D3009F05BC0E0918C2CF09120
:1045A0008D2CE053F04D108210928C2C10928D2C9B
:1045B00000918B2C0111E0CF8091D02F982F9F7DFF
:1045C000B9F488EC3CDF0E94D51985E19DE00E949A
:1045D000D519002389F28091D02F882369F280EDCC
:1045E0009FE20E94D01982E19DE00E94D519C4CFBC
:1045F0008D7F8D3331F3E0EDFFE27F0111911123C7
:1046000031F01F3321F01D3311F01032B1F7F701F3
:104610001082C1E4DEE081E0C82E82E1D82EBE0126
:1046200080ED9FE20E94976B892B69F41092D02F46
:10463000A7014F5F5F4F612FCE0116DF01E08F3F73
:1046400009F0C0CF99CF6896CC16DD0641F7B9CFF7
:10465000883069F480918C2C90918D2C009709F40E
:104660008BCF019780938C2C90938D2C85CF8B31A1
:1046700009F082CF10928C2C10928D2C7DCF8091DE
:104680008B2C882399F1E0916E2FF0916F2F20856C
:1046900031852115310551F18EB19FB1409108044A
:1046A00050910904842B952B4091892C50918A2C90
:1046B000841B950B64E670E00E94FF6A6217730723
:1046C000A8F010928B2C8BECBADE0E94D5198FE0EB
:1046D0009DE00E94D519E091872CF091882C3097AD
:1046E00029F019951092872C1092882C08958091AA
:1046F0008B2C8823A9F010928B2C8BECA0DE0E94CF
:10470000D5198FE09DE00E94D519E091872CF0919A
:10471000882C309729F019951092872C1092882CAC
:104720000895CF93DF93EB0190918B2C9923A1F007
:1047300010928B2C84DE0E94D5198CE09DE00E94A3
:10474000D519209749F0CE010E94D01989E09DE04B
:10475000DF91CF910C94D519DF91CF910895EF920D
:10476000FF921F93CF93DF937C019B01613081E027
:10477000780710F020E031E0EB01C21BD30BA7015A
:1047800060E072E080ED9FE20E94300F80ED9FE2DA
:104790000E94D01911E0C13081E0D807E0F42097E1
:1047A00089F0412F50E0542F44274E0D5F1D9E018C
:1047B00060E072E080ED9FE20E94300F80ED9FE2AA
:1047C0000E94D01986E09DE0DF91CF911F91FF906C
:1047D000EF900C94D519DA95412F50E0542F4427CF
:1047E0004E0D5F1D20E032E060E072E080ED9FE260
:1047F0000E94300F80ED9FE20E94D0191F5FCBCF47
:10480000809100088130E1F480918C088330C1F4FC
:10481000089581E08093000893E090938C08809342
:104820008E2C10928F2C8EB19FB120910804309164
:104830000904822B932B8093952C9093962C0895AA
:104840008091902C882329F3089510928C0810925F
:104850000008EEE8FCE210821182089520918E2C6F
:104860002223F1F080918F2C811115C080918E2C24
:104870008823C9F08EB19FB140910804509109047A
:10488000842B952B4091952C5091962C841B950B45
:104890008634910538F081E080938F2C822F089523
:1048A00081E0089580E00895CF93C091902CCC23AF
:1048B000C1F08EB19FB12091080430910904822B80
:1048C000932B2091932C3091942C821B930B20914D
:1048D000912C3091922C8217930718F01092902C03
:1048E0008FDF8C2FCF910895E0916E2FF0916F2F75
:1048F0008287938780933803909339030895E091DA
:104900006E2FF0916F2F82859385409682879387D3
:1049100080933803909339030895E0916E2FF091BE
:104920006F2F80E991E0828793878093380390937B
:1049300039030895A0E2B6E081E015968C931597AF
:1049400020ED31E328B939B920E532E32AB93BB982
:1049500010B813B812B816B817B811B8E0E0F9E0FB
:1049600010A211A22FEF30E026A337A32FEF3FEFC5
:1049700020A731A7808398E8938390E1948793E000
:1049800097831C968C931C9782E01A968C930895BB
:10499000E0E0F9E013828FE790E086AB97AB81E12E
:1049A00090E080AF91AFE0E0FAE010A211A28FEFAB
:1049B0009FEF86A397A389E88383168281E084878B
:1049C0008EE0808310922A0608951F920F920FB6F0
:1049D0000F92112408B60F9218BE09B60F9219BE95
:1049E0000BB60F921BBE2F933F934F935F936F9322
:1049F0007F938F939F93AF93BF93EF93FF93E09138
:104A00004E2FF0914F2F1995FF91EF91BF91AF91DC
:104A10009F918F917F916F915F914F913F912F91D6
:104A20000F900BBE0F9009BE0F9008BE0F900FBEE7
:104A30000F901F9018951F921FB61F9211242F934D
:104A400028B72F9318BE2BB72F931BBE3F938F937E
:104A50009F93EF93FF939091280683B1967021E086
:104A600009F020E0880F822B83B982B1882309F4F2
:104A700076C012B883B187708730D9F510920009DB
:104A800080E180930C091092030A1B9B2DC08CEAD5
:104A900094E08093260A9093270A82E081B981E00E
:104AA00080930C0A83E08093060A86B197B18770E1
:104AB00039F090B18F5F8930D1F4E8B1F9B19083CA
:104AC00081E08093972C88E880930309FF91EF9110
:104AD0009F918F913F912F912BBF2F9128BF2F91A5
:104AE0001F901FBE1F9018958CE694E0D2CF96952C
:104AF000E1CF93B1892F8C7031F3947081B1811122
:104B00001EC080B186959923C1F090E0892B80B9B1
:104B100026B137B12F5F3F4F26B937B927703327FA
:104B2000232B89F6E8B1F9B19F012F5F3F4F28B9D8
:104B300039B9808381E081B9C6CF90E8E7CF81B1F0
:104B4000813009F0C0CFEAB1FBB19F012F5F3F4F29
:104B50002AB93BB9911180E0808311B8B4CF82B1FA
:104B6000809582B9B0CF1F920F920FB60F92112489
:104B700008B60F9218BE0BB60F921BBE2F933F9331
:104B80008F939F93EF93FF9381B1823098F081B11F
:104B90008D3080F4E1B1F0E0EE0FFF1FEA5DFF4DD4
:104BA0000190F081E02D19948FE790E08093260A20
:104BB0009093270AFF91EF919F918F913F912F91B1
:104BC0000F900BBE0F9008BE0F900FBE0F901F905E
:104BD00018958E9A8EE0809340088FE390E0809342
:104BE000260A9093270A85E081B9E4CF8E9886E063
:104BF00081B98FEF82B914B815B8E8B1F9B18081E5
:104C000080B9D8CF009B06C08E9A82B1809582B9B8
:104C100087E0EACF8E98FCCF009B11C08E9880B1C0
:104C2000869580B984B195B1019684B995B984B15E
:104C300095B187709927892B21F488E0D5CF8E9A7A
:104C4000EECF24B135B186B197B12817390751F5A8
:104C50008AE0CACFEAB1FBB1309731F08081882376
:104C600029F08E9A89E0C0CF82B1F9CF8E98FACF21
:104C7000EAB1FBB13097D1F080818823A9F08E98FA
:104C80003196EAB9FBB924B135B186B197B128178D
:104C90003907F1F2E8B1F9B1CF01019688B999B9B4
:104CA000818180B986E0A0CF8E9AEACF82B1882335
:104CB00021F08E988FEF82B9E6CF8E9AFBCF8E9837
:104CC0008BE092CF8E988CE08FCF1092000A1092DA
:104CD000060A109240081092410881E08093982CB7
:104CE00069CFCF93DF93E7E9FCE21082118282EA79
:104CF00097E280934C2E90934D2E88EC94E2809313
:104D00004E2F90934F2FE0E4F6E0128A84E08283E6
:104D1000C0E8D1E082E68E83A0E2B6E081E016969C
:104D20008C93169711968C93119796E012969C93FC
:104D3000129751968C93519732E052963C9352972A
:104D40001A961C921A971B961C921B979FE0199615
:104D50009C9399E598832AE529839A8390E491832B
:104D60009683A0EBB0E012962C911297207F1296BA
:104D70002C93129712962C911297226012962C93D4
:104D800020E321832683908B8683358383E0818390
:104D9000E0E0F8E083E1818321E030E026A337A35F
:104DA00020A731A7E0E8F8E014868083E0E2F3E092
:104DB0001382118288E0828391E19083A0916E2F0B
:104DC000B0916F2F1A962D913C91208F318FE0E892
:104DD000F3E09CE39283808393838183DF91CF917F
:104DE000A9CDA0E2B6E01A961C921A97E7E9FCE278
:104DF00010821182E0E0F9E010821382178280E1D4
:104E00008487E0E0FAE010821382168281E08487D2
:104E1000E0E4F8E01082118216968C938E98089543
:104E2000CF93DF938091972C882309F476C010925A
:104E3000972CC6B1D7B1C730D10508F47AC0AE01FE
:104E4000495F5F4F93E0569547959A95E1F7E0915A
:104E50006B2FF0916C2F60ED71E380E41995E09178
:104E60006E2FF0916F2F8781883019F483E1809342
:104E7000752C8681883019F483E18093742CE0913D
:104E8000602FF091612FBE0180ED91E31995EC0147
:104E900094FF4CC0DF7E80E592E38AB99BB92097EE
:104EA00009F447C0AE01495F5F4F83E056954795CF
:104EB0008A95E1F7E0916B2FF0916C2F60ED71E333
:104EC00081E41995E0916E2FF0916F2F87818930E1
:104ED00019F483E18093752C8681893019F483E17C
:104EE0008093742CC6B9D7B980ED91E388B999B98C
:104EF00010926008109261088FE090E0809366083D
:104F00009093670888E090E080936A0890936B081C
:104F100083E28093410883E081B98091982C8823B3
:104F200071F01092982CDF91CF9104CD1AB81BB874
:104F3000B6CF1092000A1092060AFCDCEECFDF9189
:104F4000CF910895E0E0F9E080E484871782E0E8FB
:104F5000F3E082E0878389EB818380ED91E38AB976
:104F60009BB981E090E084B995B916B88EB19FB134
:104F70002091080430910904822B932B80939A2C62
:104F800090939B2C81E080939E2C18B817B81092B8
:104F9000992C88E0809387060895CF93DF93E0E40F
:104FA000F6E0128A84E08283C0E8D1E082E68E8354
:104FB000A0E2B6E081E016968C93169711968C933A
:104FC000119796E012969C93129751968C93519755
:104FD00032E052963C9352971A961C921A971B965F
:104FE0001C921B979FE019969C93199799E59883BB
:104FF0002AE529839A8390E491839683C0EBD0E0DD
:105000002A81207F2A832A8122602A8320E3218328
:105010002683908B8683358393E09183E0E0F8E0EC
:1050200093E1918321E030E026A337A320A731A7A5
:10503000E0E8F8E014869083E0E2F3E01382118266
:1050400098E0928321E12083C0916E2FD0916F2F41
:105050002A853B85208F318FE0E8F3E02CE3228323
:1050600090832383918322EA37E220934C2E30935E
:105070004D2E15968C93E0E0F9E02FEF30E026A35B
:1050800037A312A613A614A615A61082168217829D
:1050900080831092000A1092992CECE9FCE21082B5
:1050A00012821182DF91CF91089581E080932606CC
:1050B000CCDBE0E0F9E010821782E0E0FAE0108259
:1050C0001782ECE9FCE211821282108208951F928D
:1050D0000F920FB60F92112408B60F9218BE09B6A0
:1050E0000F9219BE0BB60F921BBE2F933F934F9397
:1050F0005F936F937F938F939F93AF93BF93EF9340
:10510000FF93E0914C2EF0914D2E1995FF91EF9168
:10511000BF91AF919F918F917F916F915F914F91CF
:105120003F912F910F900BBE0F9009BE0F9008BEBC
:105130000F900FBE0F901F901895E0E0F9E08FEFF1
:1051400094E086A397A380E6848780E387838FEF2C
:1051500090E086AB97AB88E08093870608951F9216
:105160001FB61F9211242F9328B72F9318BE2BB769
:105170002F931BBE3F934F935F938F939F93EF9318
:10518000FF931092070A1092000A1092470910929A
:105190004009809181038E7F8093810384B195B112
:1051A00080FF16C0379B5EC086B1869586B984B1F4
:1051B00095B1019684B995B987709927892B41F4E7
:1051C000EAB1FBB1CF0101968AB99BB986B1808360
:1051D00084B195B187709927892BC9F086B144B104
:1051E00055B1E4B1F5B193E0F695E7959A95E1F7FD
:1051F000E053FE4C90E04770552728E030E0241B38
:10520000350B02C0959587952A95E2F7808381E05A
:1052100080939D2C10929E2C8FEF9FEF8093260AF7
:105220009093270A1092200A1092210A1092060ADF
:105230001092070A1092030A84E08093000A83E028
:105240008093992CFF91EF919F918F915F914F9156
:105250003F912F912BBF2F9128BF2F911F901FBEE1
:105260001F90189586B186958068A0CF1F921FB6B3
:105270001F9211248F9388B78F9318BE8BB78F938B
:105280001BBEEF93FF93E0E8F3E081818F7C818385
:10529000E0E0FAE088E8838381E08083FF91EF918A
:1052A0008F918BBF8F9188BF8F911F901FBE1F90D2
:1052B00018951F921FB61F9211248F9388B78F9352
:1052C00018BE8BB78F931BBE9F93EF93FF93809174
:1052D0006009109260091092610993E0909340096F
:1052E0008135B8F5813348F186B18695806886B9F5
:1052F00084B195B1019684B995B987709927892BA6
:1053000041F4EAB1FBB1CF0101968AB99BB986B1EC
:10531000808386B1869586B984B195B1019684B9AA
:1053200095B987709927892B41F4EAB1FBB1CF0178
:1053300001968AB99BB986B18083FF91EF919F91C5
:105340008F918BBF8F9188BF8F911F901FBE1F9031
:105350001895813768F186B18695806886B984B1E1
:1053600095B1019684B995B987709927892B41F435
:10537000EAB1FBB1CF0101968AB99BB986B18083AE
:1053800086B18695806886B984B195B1019684B955
:1053900095B987709927892B41F4EAB1FBB1CF0108
:1053A00001968AB99BB986B1808386B186959FCFD5
:1053B00084B195B180FFE4CF86B18695806886B9C7
:1053C00084B195B1019684B995B987709927892BD5
:1053D00009F08ACFEAB1FBB1CF0101968AB99BB936
:1053E00086B1808381CF0F931F93CF93DF93CDB787
:1053F000DEB7DA95CDBFDEBF80919E2C882309F4FD
:105400007FC08EB19FB14091080450910904209152
:105410009A2C30919B2C842B952B821B930B2091E3
:105420001E2030911F202F5F3F4F2817390708F0AB
:1054300067C01092070A1092000A10924709109252
:105440004009809181038E7F8093810384B195B15F
:1054500080FF16C0379BA1C186B1869586B984B1FD
:1054600095B1019684B995B987709927892B41F434
:10547000EAB1FBB1CF0101968AB99BB986B18083AD
:1054800084B195B187709927892BC9F086B144B151
:1054900055B1E4B1F5B113E0F695E7951A95E1F74A
:1054A000E053FE4C90E04770552728E030E0241B85
:1054B000350B02C0959587952A95E2F7808381E0A8
:1054C00080939D2C10929E2C2FEF3FEF2093260A65
:1054D0003093270A1092200A1092210A1092060A8D
:1054E0001092070A1092030A94E09093000A93E046
:1054F0009093992C14B815B880939D2C10929E2CE3
:10550000D3D9811142C1AAD9882309F43EC180911F
:105510009E2C81113AC180919C2C811105C08091F3
:105520009D2C882309F431C18091992C833041F45A
:105530008091200A9091210A8532914008F425C17A
:1055400080919D2C882359F084B195B1892B39F035
:1055500084B195B1089708F024C114B815B8109219
:105560009C2C10929D2C64B175B1E091602FF0914C
:10557000612F80ED91E3199584B995B984B195B106
:10558000892B09F402C189E8809381031092000AF3
:105590001092200A1092210A2FEF3FEF2093260A43
:1055A0003093270A8FE590E08093280A9093290A88
:1055B0001092060A80E180930C0A93E09093070A08
:1055C000109260091092610920936609309367096F
:1055D00020EA30E020936809309369091092460967
:1055E00080934C0981E08093470981E18093800199
:1055F000109288011092800310922906E0916E2F7C
:10560000F0916F2F8781893019F483E18093752C95
:105610008681893019F483E18093742C44B155B1AB
:10562000495F5F4F33E0569547953A95E1F7E09132
:105630006B2FF0916C2F60ED71E383E4199504B149
:1056400015B1013094E0190708F08FC014B815B8EF
:10565000A801495F5F4F23E0569547952A95E1F7EA
:1056600060ED71E380E592E30E94BC6B80ED91E315
:105670008AB99BB986B18695806886B984B195B19F
:10568000019684B995B987709927892B39F481EDF2
:1056900091E38AB99BB986B18093D03186B1869562
:1056A00086B984B195B1019684B995B98770992767
:1056B000892B41F4EAB1FBB1CF0101968AB99BB9BC
:1056C00086B1808380E021E030E0E0E5F2E302177C
:1056D000130708F0FCC0811129C086B18695806847
:1056E00086B984B195B1019684B995B98770992727
:1056F000892B41F4EAB1FBB1CF0101968AB99BB97C
:1057000086B1808386B1869586B984B195B10196BC
:1057100084B995B987709927892B41F4EAB1FBB117
:10572000CF0101968AB99BB986B1808384B195B1C6
:1057300087709927892BC9F086B144B155B1E4B17E
:10574000F5B193E0F695E7959A95E1F7E053FE4CB5
:1057500090E04770552728E030E0241B350B02C04D
:10576000959587952A95E2F7808381E08093992C1F
:1057700080ED91E38AB99BB980E280930C098CE0BB
:105780008093070985E58A95F1F7D395CDBFDEBFF4
:10579000DF91CF911F910F91089586B18695806812
:1057A0005DCE44B155B1495F5F4FB3E05695479523
:1057B000BA95E1F760ED71E3CE0101960E94BC6BF2
:1057C00080ED91E38AB99BB944B155B114B815B8CD
:1057D000898186958695898322E030E024173507F4
:1057E00008F441C084B195B187709927892BC9F01D
:1057F00086B144B155B1E4B1F5B173E0F695E795E2
:105800007A95E1F7E053FE4C90E04770552728E089
:1058100030E0241B350B02C0959587952A95E2F759
:105820008083E0916E2FF0916F2F8781883019F47B
:1058300083E18093752C8681883019F483E180930D
:10584000742C44B155B1495F5F4F63E0569547955D
:105850006A95E1F7E0916B2FF0916C2F60ED71E3A9
:1058600082E419957CCEF901A3E0F695E795AA9517
:10587000E1F781E090E08C0F9D1FE80FF91F808118
:10588000982F93708695869580839130E9F09923BF
:1058900009F4A8CF9230A9F486B18695806886B9BC
:1058A00084B195B1019684B995B987709927892BF0
:1058B00041F4EAB1FBB1CF0101968AB99BB986B137
:1058C00080832E5F3F4F8ACF86B18695E8CF908147
:1058D000492F417090FF36C086B1869586B984B154
:1058E00095B1019684B995B987709927892B41F4B0
:1058F000AAB1BBB1CD0101968AB99BB986B18C938F
:1059000086B18695806886B984B195B1019684B9CF
:1059100095B987709927892B41F4AAB1BBB1CD0104
:1059200001968AB99BB986B18C93808186958083D4
:10593000C90187709927892B09F431962F5F3F4F52
:10594000842FC5CE8823B9F086B1869586B984B1F7
:1059500095B1019684B995B987709927892B41F43F
:10596000AAB1BBB1CD0101968AB99BB986B18C931E
:1059700086B18695C8CF86B18695806886B984B190
:1059800095B1019684B995B987709927892B41F40F
:10599000AAB1BBB1CD0101968AB99BB986B18C93EE
:1059A00086B1869586B984B195B1019684B995B9C9
:1059B00087709927892B09F0B8CFAAB1BBB1CD0167
:1059C00001968AB99BB986B18C9340E0AECF14B8EA
:1059D00015B881E080939C2C0C9400241092070A47
:1059E0001092000A10924709109240098091810399
:1059F0008E7F8093810384B195B180FF16C0379B61
:105A000056C086B1869586B984B195B1019684B9A0
:105A100095B987709927892B41F4EAB1FBB1CF0181
:105A200001968AB99BB986B1808384B195B187709C
:105A30009927892BC9F086B144B155B1E4B1F5B1CC
:105A400093E0F695E7959A95E1F7E053FE4C90E0E8
:105A50004770552728E030E0241B350B02C0959590
:105A600087952A95E2F7808381E080939D2C1092A0
:105A70009E2C8FEF9FEF8093260A9093270A109217
:105A8000200A1092210A1092060A1092070A109218
:105A9000030A84E08093000A83E08093992C10929B
:105AA000992C10929D2C10929C2C0C94252486B13C
:105AB00086958068A8CF8091600910926009109245
:105AC000610993E090934009813568F5813350F185
:105AD00080919F2C9091A02C80FF62C080919F2C80
