:100000000C94980C0C94BD0C0C94BD0C0C94BD0C71
:100010000C94BD0C0C94BD0C0C94BD0C0C94BD0C3C
:100020000C94BD0C0C94BD0C0C94770F0C94BD0C6F
:100030000C94BD0C0C94BD0C0C94BD0C0C94BD0C1C
:100040000C94BD0C0C94BD0C0C94BD0C0C94BD0C0C
:100050000C94BD0C0C94BD0C0C94BD0C0C94BD0CFC
:100060000C94BD0C0C94BD0C0C94BD0C0C94BD0CEC
:100070000C94BD0C0C94BD0C0C94BD0C0C94BD0CDC
:100080000C94BD0C0C94BD0C0C94ED260C943930E2
:100090000C94BD0C0C94BD0C0C94BD0C0C94BD0CBC
:1000A0000C94BD0C0C94BD0C0C94BD0C0C94BD0CAC
:1000B0000C94BD0C0C94BD0C0C94BD0C0C94BB2783
:1000C0000C94BD0C0C94682B0C94AB310C94BD0CAF
:1000D0000C94BD0C0C94BD0C0C94BD0C0C94BD0C7C
:1000E0000C94BD0C0C94BD0C0C94BD0C0C94BD0C6C
:1000F0000C94BD0C0C94BD0C0C94BD0C0C94BD0C5C
:100100000C94BD0C0C94BD0C0C94BD0C0C94BD0C4B
:100110000C9484310C94432B0C94BD0C0C94BD0CAA
:100120000C94BD0C0C94BD0C0C94BD0C0C94BD0C2B
:100130000C94BD0C0C94BD0C0C94BD0C0C9423279A
:100140000C94F60C0C94722A0C9467300C94BD0C31
:100150000C94BD0C0C94BA2A0C94E1310C94BD0C97
:100160000C94BD0C0C94BD0C0C94BD0C0C94BD0CEB
:100170000C94BD0C0C94BD0C0C94BD0C0C94BD0CDB
:100180000C94BD0C0C94BD0C0C94BD0C0C94BD0CCB
:100190000C94BD0C0C94BD0C0C94BD0C0C94BD0CBB
:1001A0000C94BD0C0C94BD0C0C94BD0C0C94BD0CAB
:1001B0000C94BD0C0C94BD0C0C94BD0C0C94BD0C9B
:1001C0000C94BD0C0C94BD0C0C94BD0C0C94BD0C8B
:1001D0000C94BD0C0C94BD0C0C94BD0C0C94BD0C7B
:1001E0000C94BD0C0C94BD0C0C94BD0C0C94BD0C6B
:1001F0000C94BD0C0C944D6D0C94BD0C1E0343006F
:10020000680061006D0065006C0065006F006E00A5
:100210002D004D0069006E00690000002A034B00AC
:10022000610073007000650072002000260020004D
:100230004F007300770061006C00640020004700ED
:100240006D006200480000000403090409023E003A
:10025000020100C03209040000010202010005246D
:10026000001001042402060524060001070582038C
:100270000800FF09040100020A000000070504024B
:10028000100005070583021000051201100102008D
:100290000008D016B20401000102DC012110221076
:1002A0002310241025102610271028102B102C1096
:1002B00000000001007C28FD281C29493565356FA8
:1002C00035271070358139943940000700017C28AA
:1002D000FD281C29D33469356F35271070358139D5
:1002E0009439C0000700017C28FD281C295D356574
:1002F000356F35271070358139943950000700016A
:100300007C28FD281C29613565356F35271070352F
:1003100081399439A4000700017C28FD281C29D4C8
:10032000391F3A233A2710243A1B41374140010430
:1003300000017C28FD281C29E3391F3A233A2710A5
:10034000243A1B41374100040400017C28FD281C8D
:1003500029F2391F3A233A2710243A1B413741002A
:10036000040700017C28FD281C29013A1F3A233A82
:100370002710243A1B41374100100400017C28FD5E
:10038000281C29103A1F3A233A2710243A1B4137D8
:100390004100100700019B325A337B335558635894
:1003A000685869586B582B102C100000000100D8B9
:1003B00029602A042C655068507550765027532BBD
:1003C000102C100000000000355CB85CEB5C7F5D19
:1003D000825D855D865D875D6A5E715E00200800D6
:1003E00005355CB85CEB5C2410251026102710281E
:1003F000102B102C100000000100355CB85CEB5C89
:10040000785E7B5E7E5E7F5E805E716078600020DD
:10041000080005355CB85CEB5C7F609D60AB60AC50
:1004200060CC60BE601D622C00080005355CB85CC5
:10043000EB5C45635C636C636D632767B966446816
:10044000D000080005004E4F4E450000000000009F
:10045000000000000000000000000000000000009C
:10046000000000000000014D465F554C5452414CC5
:100470004947485400000000000000000000000050
:1004800000000000000000034D465F554C545241EF
:100490004C494748545F4556315F383042000000B0
:1004A0000000000000000000044D465F554C54520F
:1004B000414C494748545F4556315F31363442001C
:1004C000000000000000000000024D465F554C5443
:1004D00052414C494748545F43000000000000006F
:1004E00000000000000000000000054D465F434C86
:1004F00041535349435F4D494E495F344200000028
:100500000000000000000000000000064D465F43B0
:100510004C41535349435F314B0000000000000041
:10052000000000000000000000000000074D465FD2
:10053000434C41535349435F314B5F374200000006
:1005400000000000000000000000000000084D4610
:100550005F434C41535349435F344B00000000005C
:100560000000000000000000000000000000094D35
:10057000465F434C41535349435F344B5F3742001E
:100580000000000000000000000000000000000A61
:1005900049534F3134343433415F534E494646005A
:1005A000000000000000000000000000000000004B
:1005B0000B49534F3134343433415F524541444544
:1005C00052000000000000000000000000000000D9
:1005D000000C564943494E495459000000000000A0
:1005E000000000000000000000000000000000000B
:1005F00000000D49534F31353639335F534E49466C
:1006000046000000000000000000000000000000A4
:100610000000000E534C32533230303200000000E4
:1006200000000000000000000000000000000000CA
:10063000000000000F544954414749545354414E5F
:10064000444152440000000000000000000000008F
:10065000000000000010454D34323333000000002C
:10066000000000000000000000000000000000008A
:100670000000000000000100000100010100000175
:100680000100010000010001010001000001010062
:100690000001000101000001010001000001010052
:1006A0000001000101000100000100010100000142
:1006B0000100010000010001010001000001010032
:1006C0000001000101000100000100010100000122
:1006D0000100010000010100000100010100000112
:1006E0000100010000010001010001000001010002
:1006F00000010001010000010100010000010100F2
:1007000000010001010001000001000101000001E1
:1007100001000100000101000001000101000001D1
:1007200001000100000100010100010000010100C1
:1007300000010001010001000001000101000001B1
:1007400001000100000100010100010000010100A1
:100750000001000101000001010001000001010091
:100760000001000101000100000100010100000181
:10077000010001000001008040C020A060E0109056
:1007800050D030B070F0088848C828A868E8189899
:1007900058D838B878F8048444C424A464E4149481
:1007A00054D434B474F40C8C4CCC2CAC6CEC1C9C39
:1007B0005CDC3CBC7CFC028242C222A262E212925D
:1007C00052D232B272F20A8A4ACA2AAA6AEA1A9A39
:1007D0005ADA3ABA7AFA068646C626A666E6169621
:1007E00056D636B676F60E8E4ECE2EAE6EEE1E9ED9
:1007F0005EDE3EBE7EFE018141C121A161E111911B
:1008000051D131B171F1098949C929A969E9199908
:1008100059D939B979F9058545C525A565E51595F0
:1008200055D535B575F50D8D4DCD2DAD6DED1D9DA8
:100830005DDD3DBD7DFD038343C323A363E31393CC
:1008400053D333B373F30B8B4BCB2BAB6BEB1B9BA8
:100850005BDB3BBB7BFB078747C727A767E7179790
:1008600057D737B777F70F8F4FCF2FAF6FEF1F9F48
:100870005FDF3FBF7FFF004E4F4E4500000000008E
:100880000000000000000000000000000000000068
:1008900000000000000000015549445F52414E44F1
:1008A0004F4D0000000000000000000000000000AC
:1008B0000000000000000000025549445F4C45461E
:1008C000545F494E4352454D454E540000000000D0
:1008D000000000000000000000035549445F524939
:1008E0004748545F494E4352454D454E5400000021
:1008F00000000000000000000000045549445F4C67
:100900004546545F44454352454D454E5400000012
:100910000000000000000000000000055549445F91
:1009200052494748545F44454352454D454E540053
:1009300000000000000000000000000006435943D2
:100940004C455F53455454494E4753000000000046
:1009500000000000000000000000000000075354E9
:100960004F52455F4D454D00000000000000000063
:10097000000000000000000000000000000008521D
:100980004543414C4C5F4D454D00000000000000C8
:10099000000000000000000000000000000000094E
:1009A000544F47474C455F4649454C4400000000C2
:1009B0000000000000000000000000000000000037
:1009C0000A53544F52455F4C4F470000000000004F
:1009D0000000000000000000000000000000000017
:1009E000000B434C4F4E450000000000000000008B
:1009F00000000000000000000000000000000000F7
:100A000000000C434C4F4E455F4D46550000000022
:100A100000000000000000000000000000000000D6
:100A2000000000004F4646000000000000000000EB
:100A300000000000000000000000000000000000B6
:100A400000000000014D454D4F52590000000000CC
:100A50000000000000000000000000000000000096
:100A60000000000000024C49564500000000000054
:100A70000000000000000000000000000000000076
:100A8000000000000000004E4F4E45000000000036
:100A90000000000000000000000000000000000056
:100AA0000000000000000001504F5745524544002F
:100AB0000000000000000000000000000000000036
:100AC0000000000000000000025445524D494E4114
:100AD0004C5F434F4E4E000000000000000000003D
:100AE000000000000000000000035445524D494E34
:100AF000414C5F52585458000000000000000000B4
:100B00000000000000000000000004534554544958
:100B10004E475F4348414E4745000000000000003B
:100B20000000000000000000000000054D454D4F92
:100B300052595F53544F52454400000000000000DA
:100B4000000000000000000000000000064D454DC0
:100B50004F52595F4348414E474544000000000052
:100B60000000000000000000000000000008434FEB
:100B70004445435F525800000000000000000000A0
:100B80000000000000000000000000000000094319
:100B90004F4445435F54580000000000000000002F
:100BA000000000000000000000000000000000073E
:100BB0004649454C445F4445544543544544000030
:100BC0000000000000000000000000000000000025
:100BD0000A4C4F474D454D5F46554C4C00000000B8
:100BE0000000000000000000000000000000000005
:100BF0000025632C25630025356400416E7920694A
:100C00006E74656765722066726F6D203020746F38
:100C10002025752E205265666572656E63652076A7
:100C20006F6C746167652077696C6C206265202841
:100C3000564343202A205448524553484F4C4420A1
:100C40002F203430393529206D562E00257500258A
:100C500035640030203D206E6F2074696D656F75BE
:100C6000740D0A312D363030203D20313030206D6A
:100C700073202D203630303030206D732074696D34
:100C8000656F7574002575206D730025342E3458FA
:100C900000253575206D56002575202866726F6D0C
:100CA000207768696368202575206E6F6E2D766FDA
:100CB0006C6174696C6529002575002575002563D4
:100CC0002C25630052414E444F4D004E4F20554954
:100CD000442E004368616D656C656F6E4D696E6989
:100CE0002052657647202553207573696E67204C26
:100CF00055464120255320636F6D70696C656420F3
:100D000077697468204156522D4743432025532E5E
:100D1000204261736564206F6E20746865206F7077
:100D2000656E2D736F75726365204E464320746F38
:100D30006F6C204368616D656C656F6E4D696E699F
:100D40002E2068747470733A2F2F67697468756207
:100D50002E636F6D2F656D7365632F4368616D65DD
:100D60006C656F6E4D696E6920636F6D6D6974207F
:100D7000255300313931313235003135313131359A
:100D800000342E392E320063383537363936000DAF
:100D90000A000D0A000D0A000D0A000D0A000D0AD6
:100DA00000643130303A4F4B00000000000000007A
:100DB0000000000000000000000000000000000033
:100DC0000000653130313A4F4B2057495448205488
:100DD0004558540000000000000000000000000022
:100DE0000000006E3131303A57414954494E472096
:100DF000464F5220584D4F44454D00000000000022
:100E000000000000C83230303A554E4B4E4F574E1E
:100E100020434F4D4D414E440000000000000000B3
:100E20000000000000C93230313A494E56414C4969
:100E30004420434F4D4D414E4420555341474500BA
:100E4000000000000000CA3230323A494E56414C90
:100E5000494420504152414D455445520000000044
:100E600000000000000000783132303A46414C5317
:100E7000450000000000000000000000000000002D
:100E80000000000000000000793132313A54525520
:100E9000450000000000000000000000000000000D
:100EA000000000000000000000CB3230333A54490B
:100EB0004D454F55540000000000000000000000A8
:100EC0000000000000000000000056455253494F4A
:100ED0004E000000000000000000000000000000C4
:100EE000671C434F4E4649470000000000000000C9
:100EF0000000000000008F1C891C554944000000C0
:100F00000000000000000000000000000000F01CD5
:100F1000B11C524541444F4E4C59000000000000A6
:100F2000000000000000551D491D55504C4F414424
:100F300000000000000000000000821D0000000012
:100F40000000444F574E4C4F414400000000000049
:100F50000000871D0000000000005245534554006A
:100F6000000000000000000000008C1D00000000D8
:100F70000000555047524144450000000000000069
:100F80000000971D0000000000004D454D53495AD8
:100F9000450000000000000000000000000000000C
:100FA000A21D55494453495A450000000000000065
:100FB0000000000000000000BA1D52425554544F7A
:100FC0004E00000000000000000000000000D71DDF
:100FD000D01D52425554544F4E5F4C4F4E47000067
:100FE000000000000000F31DEC1D4C425554544F0E
:100FF0004E000000000000000000000000000F1E76
:10100000081E4C425554544F4E5F4C4F4E47000003
:101010000000000000002B1E241E4C454447524592
:10102000454E000000000000000000000000471EC8
:10103000401E4C45445245440000000000000000A2
:10104000000000000000631E5C1E4C4F474D4F44E3
:1010500045000000000000000000000000007D1EB0
:10106000781E4C4F474D454D000000000000000029
:101070000000000000000000921E4C4F47444F57F4
:101080004E4C4F41440000000000B71E000000001D
:1010900000004C4F4753544F5245000000000000E1
:1010A0000000BC1E0000000000004C4F47434C45B0
:1010B00041520000000000000000BF1E00000000C0
:1010C000000053455454494E470000000000000002
:1010D000000000000000C71EC21E434C45415200E4
:1010E00000000000000000000000CF1E0000000013
:1010F000000053544F524500000000000000000063
:101100000000D31E000000000000524543414C4C3B
:1011100000000000000000000000D71E00000000DA
:1011200000004348415247494E470000000000007C
:101130000000000000000000DB1E48454C5000008D
:1011400000000000000000000000E31E000000009E
:10115000000052535349000000000000000000004E
:1011600000000000000000001F1F53595354494362
:101170004B00000000000000000000000000000024
:10118000521F53454E445F5241570000000000007B
:1011900000000000F81F0000000053454E4400000E
:1011A0000000000000000000000000006E1F0000B2
:1011B000000047455455494400000000000000006D
:1011C0000000CB2000000000000044554D505F4D52
:1011D00046550000000000000000972000000000BD
:1011E0000000434C4F4E455F4D4655000000000047
:1011F0000000B4200000000000004944454E54495E
:1012000046590000000000000000E8200000000037
:10121000000054494D454F555400000000000000A7
:101220000000000000002521052154485245534884
:101230004F4C44000000000000000000000092211C
:1012400078214155544F43414C4942524154450045
:10125000000021220000000000004649454C4400E7
:101260000000000000000000000000000000E72176
:101270001122434C4F4E45000000000000000000CA
:1012800000004D22000000000000000000000000EF
:10129000000000000000000000000000000000004E
:1012A000000053414B3A09005549443A0900415462
:1012B00051413A0900546865726520697320617470
:1012C000206C65617374206F6E65206D6F72652090
:1012D0006361726420747970652063616E6469640F
:1012E0006174652C2062757420746865726520775E
:1012F0006173206E6F7420656E6F7567682074650A
:10130000726D696E616C20627566666572207370BD
:101310006163652E0D0A000D0A0004000109010039
:1013200000000000000000000000000000000000BD
:10133000004E5850000000000000000000000000B7
:10134000004D4946415245204D696E69000000003C
:10135000000000000000000000000000000000008D
:10136000000000000000000000000000000000007D
:10137000000000000000000000000000000000006D
:10138000000400010801000000000000000000004F
:1013900000000000000000004E5850000000000057
:1013A00000000000000000004D4946415245204326
:1013B0006C617373696320316B00000000000000F2
:1013C000000000000000000000000000000000001D
:1013D000000000000000000000000000000000000D
:1013E00000000000000000000200011801000000E1
:1013F0000000000000000000000000000000004E9F
:101400005850000000000000000000000000004DE7
:10141000494641524520436C617373696320346BC4
:1014200000000000000000000000000000000000BC
:1014300000000000000000000000000000000000AC
:101440000000000000000000000000000000004458
:10145000000100010000000000000000000000008A
:101460000000000000004E58500000000000000086
:101470000000000000004D494641524520556C7463
:1014800072616C6967687400000000000000000071
:10149000000000000000000000000000000000004C
:1014A000000000000000000000000000000000003C
:1014B00000000000000044030120017577810280D4
:1014C000000000000000000000000005004E585021
:1014D000000000000000000000000000004D494630
:1014E00041524520444553466972650000000000A2
:1014F00000000000000000000000000000000000EC
:1015000000000000000000000000000000000000DB
:101510000000000000000000000000000044030183
:1015200020017577810280000000000000000000AB
:10153000000005004E5850000000000000000000B0
:10154000000000004D49464152452044455346693C
:1015500072652045563100000000000000000000C8
:10156000000000000000000000000000000000007B
:10157000000000000000000000000000000000006B
:101580000000000004030128013877B14A434F509E
:10159000333100000000000000090149424D000005
:1015A00000000000000000000000004A434F5033DC
:1015B00031000000000000000000000000000000FA
:1015C000000000000000000000000000000000001B
:1015D000000000000000000000000000000000000B
:1015E0000000000000000000000000480001200191
:1015F0007877B1024A434F50763234310000000010
:101600000C0149424D0000000000000000000000F5
:1016100000004A434F5033312076322E342E3100B1
:1016200000000000000000000000000000000000BA
:1016300000000000000000000000000000000000AA
:10164000000000000000000000000000000000009A
:10165000000048000120013833B14A434F50343173
:10166000563232000000000C0149424D00000000DB
:101670000000000000000000004A434F50343120B9
:1016800076322E3200000000000000000000000052
:10169000000000000000000000000000000000004A
:1016A000000000000000000000000000000000003A
:1016B0000000000000000000000400012801383391
:1016C000B14A434F503431563233310000000D01DE
:1016D00049424D0000000000000000000000000032
:1016E0004A434F5034312076322E332E31000000E1
:1016F00000000000000000000000000000000000EA
:1017000000000000000000000000000000000000D9
:1017100000000000000000000000000000000000C9
:10172000040001880100000000000000000000002B
:1017300000000000000000496E66696E656F6E0073
:10174000000000000000004D494641524520436C16
:10175000617373696320316B0000000000000000BA
:101760000000000000000000000000000000000079
:101770000000000000000000000000000000000069
:1017800000000000000000020001980100000000BD
:10179000000000000000000000000000000047659D
:1017A0006D706C75730000000000000000004D506B
:1017B000434F530000000000000000000000000044
:1017C0000000000000000000000000000000000019
:1017D0000000000000000000000000000000000009
:1017E0000000000000000000000000000000000CED
:1017F00001000000000000000000000000000000E8
:101800000000000000496E6E6F766973696F6E208C
:1018100052265400004A6577656C00000000000005
:1018200000000000000000000000000000000000B8
:1018300000000000000000000000000000000000A8
:101840000000000000000000000000000000000098
:10185000000000000002000138010000000000004C
:101860000000000000000000000000004E6F6B69E7
:101870006100000000000000000000004D494641EA
:10188000524520436C617373696320346B202D20B3
:10189000656D756C61746564202836323132204381
:1018A0006C61737369632900000000000000000090
:1018B00000000000000000000000000008000138E7
:1018C0000100000000000000000000000000000017
:1018D0000000004E6F6B6961000000000000000016
:1018E0000000004D494641524520436C61737369C5
:1018F0006320346B202D20656D756C6174656420E8
:101900002836313331204E464329000000000000C4
:1019100000000000000000000000000000000000C7
:101920000000006364696E6F70737578585B000027
:1019300011241FBECFEFCDBFDFE3DEBF00E00CBF41
:1019400018BE19BE1ABE1BBE14E2A0E0B0E2E8EB5E
:10195000FEEE00E00BBF02C007900D92AA38B1075F
:10196000D9F71BBE27E3AAE8B4E201C01D92A73A4B
:10197000B207E1F7BFD10C945A77B0C23BB78BBF27
:10198000FB01879196913BBF08953BB78BBFCB017D
:1019900042E20D94F00F3BB70B0143E20D94F00FC0
:1019A0003BB78BBFCB0145E20D94F00F3BB746E24E
:1019B00008C02091CF0127FDFCCF22272093CA0128
:1019C00008954093CA0128ED31E02093340030930C
:1019D000CB016091C4017091C5018091C601992726
:1019E0000895FC014093CA01849108950F92002448
:1019F0000F932F933F934F935F930FB70F93EF93F3
:101A0000FF93EAB1FBB15191442735B124B156950A
:101A100078F400928C080092000806E10A95F1F72C
:101A200000C001E00093000803E000938C0804C0AC
:101A30000AE10A95F1F700002150304019F40E94A4
:101A4000A82A0CC04F5F477011F4519102C000C02A
:101A500000C00AE00A95F1F700C0D9CFFF91EF91DD
:101A60000F910FBF5F914F913F912F910F910F9069
:101A70001895F190E190D190C190B190A190919082
:101A800081900B941B942B943B944B945B946B949C
:101A90007B948B949B94AB94BB94CB94DB94EB940E
:101AA000FB940895F801D894E4DF5894E2DFD894C9
:101AB000E0CFF801D894DDDF5894DBDFF801D8944B
:101AC000D8CFF801D894D5CFF8015894D2CFF801E7
:101AD00070965894CEDFF8013896D894CADFF80192
:101AE0005894C7CFF8015894C4DFD894C2DFF801E6
:101AF0005894BFCFFF90EF90DF90CF90BF90AF9002
:101B00009F908F907F906F905F904F903F902F901D
:101B1000112408952F923F924F925F926F927F927D
:101B20008F929F92AF92BF92CF92DF92EF92FF92ED
:101B30000F931F93FB0171906190519041903190F0
:101B40002190119001908A01CDDFFC017192619288
:101B50005192419231922192119201921F910F91D3
:101B6000C9CF2F923F924F925F926F927F928F9246
:101B70009F92AF92BF92CF92DF92EF92FF920F931C
:101B80001F93FC0171906190519041903190219090
:101B9000119001908A018DDFFB0171926192519247
:101BA000419231922192119201921F910F91A2CFF5
:101BB0002F923F924F925F926F927F928F929F925D
:101BC000AF92BF92CF92DF92EF92FF92CF93DF93CB
:101BD000EB01DA01BF01F9017190619051904190E0
:101BE0003190219011900190F990E990D990C9908D
:101BF000B990A990999089907F246E245D244C24FB
:101C00003B242A2419240824FB0109957D926D9216
:101C10005D924D923D922D921D920D92019721F76A
:101C2000D9017D926D925D924D923D922D921D92C1
:101C30000D92DF91CF915ECF2F923F924F925F92A4
:101C40006F927F928F929F92AF92BF92CF92DF92CC
:101C5000EF92FF92CF93DF93EB01DA01BF0178801F
:101C600069805A804B803C802D801E800F80FB0154
:101C70000995F901F190E190D190C190B190A190B6
:101C8000919081907F246E245D244C243B242A244F
:101C900019240824F990E990D990C990B990A99095
:101CA00099908990F901F192E192D192C192B19209
:101CB000A192919281927D926D925D924D923D9210
:101CC0002D921D920D92019751F6DF91CF9112CF77
:101CD000FDE0E9E56DCFFDE0E9E5AECFFDE0E2E74F
:101CE00067CFFDE0E2E7A8CFFDE0E2E561CFFDE0F0
:101CF000E7E6A2CF15D10E9483190E941F1AC9D20C
:101D00001092520684E08093420682E68093860118
:101D1000C1E0C0932606C093210686E08093220688
:101D2000C093310612E01093320610922A061092E8
:101D30002B068FE08093290689E5809380019AE540
:101D4000909381018093820180E480934106809387
:101D500046069091B200907F9093B2009091B200AD
:101D600092609093B20090E3909341069093460660
:101D700080935006C09346061093450603E00093F7
:101D8000410683E18093010821E030E0209326089A
:101D900030932708209328083093290810928C0844
:101DA000809380081092230310922103D8E0D093EF
:101DB000220381E180932003E091AD2FF091AE2FBB
:101DC0008285938580933803909339038CE38093C5
:101DD0008203D093800380938303D09381036FD1D8
:101DE0000E94CA1BC0D155D7C093000210920102B5
:101DF0001093020200930402C0932002D0932102A8
:101E00000E940E1819D1D2E0C1E18091030481FF34
:101E100025C08091010480FDFCCFD09303040E9473
:101E2000231AB6D10E94FD1B3CD70E947E19E09177
:101E30009D2FF0919E2F19950E943D250E94671BB2
:101E4000E091AD2FF091AE2F8781813011F4C093D6
:101E5000932C8681813011F4C093922C0E94CE1B6A
:101E6000DED7E0919B2FF0919C2F1995E091952F53
:101E7000F091962F1995C9CF292F3327223031059C
:101E800059F02330310569F021303105F9F482E150
:101E900090E02AE832E01EC08EE390E02CE432E0CD
:101EA00019C099278130910541F08230910541F0A8
:101EB000892B61F4E8E4F2E005C0ECE1F2E002C055
:101EC000ECEFF1E0849190E09F0104C080E090E0AD
:101ED00020E030E0FA012083318308951F920F92B1
:101EE0000FB60F92112408B60F9218BEFFCF1F92A3
:101EF0000F920FB60F92112408B60F9218BE8F934F
:101F00009F938EB19FB180589F4F8EB99FB99F917B
:101F10008F910F9008BE0F900FBE0F901F901895D5
:101F20008091780083FF0AC088E08093780088ED74
:101F300084BF81E0809380000D94FE008BEC809341
:101F40005200809150008860809350008091510031
:101F500083FFFCCF82EC809355008091500080611C
:101F6000809350008091510084FFFCCF88ED84BFA6
:101F700084E0809340001EB81FB881E08093430046
:101F80002FE730E020930A0430930B0420930C04D5
:101F900030930D04809300048093020480E88093C2
:101FA0000001089588ED84BF81E080937900089551
:101FB00088ED84BF8BE1809380000895809150006C
:101FC0008260809350008091510081FFFCCF82E0BD
:101FD0008093CA01EDE1F0E0E491E0936200ECE16E
:101FE000F0E0E491E09363001092CA0180E88093EE
:101FF00065008BEB8093660080915600897F80930B
:102000005600809156008460809356008091600055
:102010008160809360000895E0E4F0E084818E7F29
:102020008483E0E6F0E080818E7F8083E0E5F0E06D
:1020300080818D7F8083089587E08093A2007894CB
:1020400008950895089508950895089508950895A8
:1020500080E090E00895089508950F931F93CF9323
:10206000DF931F92CDB7DEB701E91FE2D8011296C8
:10207000ED91FC911397898319950E947525E09144
:10208000AD2FF091AE2F89818583B9E18B9FB0018F
:10209000112464567D4F49E150E0C8010E9432701E
:1020A000D801ED91FC911995D8011696ED91FC910E
:1020B00017970F90DF91CF911F910F91199449E1DC
:1020C00050E06CE972E081E99FE20E943270E09199
:1020D000AD2FF091AE2F8581C0CF0F931F93E0916C
:1020E000AD2FF091AE2F8B019C01458161E185E41C
:1020F00094E00E94041B1F910F910895FF920F938B
:102100001F93CF93DF931F92CDB7DEB78C019E0153
:102110002F5F3F4FAC0161E185E494E00E941C1BFE
:10212000F82E882389F0898198DFF80140E08191B9
:10213000882319F04F5F4F31D1F7E091AA2FF0912A
:10214000AB2FB80181E119958F2D0F90DF91CF91C1
:102150001F910F91FF9008959B01AC0161E185E40F
:1021600094E00C94431B08950C94247008951F93DD
:10217000CF93DF93C82FD92F162F180F1C1721F0DC
:102180000E9424708993FACFDF91CF911F91089517
:102190000E9424700E9424700E9424700C94247069
:1021A000EF92FF920F931F93CF93DF937C016150C7
:1021B0007109FA018A01020F131FDC0140E050E0AF
:1021C000E017F107F1F062307105D8F09191392FE5
:1021D00032953F703A3010F4305D01C0395C3C9369
:1021E0009F709A3010F4905D01C0995C9701240FA4
:1021F000351FE90199831296625071094E5F5F4F56
:10220000DFCF1C92CA01DF91CF911F910F91FF90F8
:10221000EF900895CF93DF93EC01DA01E0E0F0E076
:102220004C91442391F111969C911197992339F186
:10223000E617F70721F180ED840F8A3020F08FEB4D
:10224000840F8630D0F480ED890F8A3020F02FEB98
:10225000290F263090F4242F30E0413410F027531A
:1022600031092295207F913410F4982F01C09753A3
:10227000292B299331961296D3CF80E004C0119672
:102280008C91811102C090E001C0CF01DF91CF910C
:102290000895E0E6F6E080E1858382E0868388E0C9
:1022A00085838AE18183E0EAF9E01682178280EC77
:1022B000858388E18483E0E0F1E0128A8BE6838BFA
:1022C000148A158A20EA208F99E0918F128E148E3D
:1022D000158E168E84E0808B12A23CE633A314A2E6
:1022E00015A210A611A612A624A795A716A680A32C
:1022F00008954115510509F449C020E1209366066F
:1023000023E02093A0092091A10927FFFCCF209171
:10231000A0097093A0092091A10927FFFCCF20916B
:10232000A0096093A0092091A10927FFFCCF20916B
:10233000A00921E02093120180931C0190931D01BC
:102340004093140150931501109222018AE894E2FF
:1023500080932801909329014093240150932501F3
:102360008091100180688093100180912001806825
:10237000809320018091100187FDFCCF80E3809342
:1023800011018093210180E1809365060895411534
:10239000510509F469C020E12093660626E02093E8
:1023A000A0092091A10927FFFCCF2091A00920E1DD
:1023B00020936506000000002093660622E020932B
:1023C000A0092091A10927FFFCCF2091A0097093BB
:1023D000A0092091A10927FFFCCF2091A0096093BB
:1023E000A0092091A10927FFFCCF2091A0091092FC
:1023F00012012AE834E220931C0130931D0140931E
:1024000014015093150120E12093220180932801AB
:10241000909329014093240150932501809110014C
:102420008068809310018091200180688093200152
:102430008091100187FDFCCF80E380931101809390
:10244000210180E180936506E091AD2FF091AE2FE0
:102450008781863019F481E18093932C86818630C0
:1024600019F481E18093922C0895CF92DF92EF923C
:10247000FF92CF93DF93C090AC2FD12CE12CF12CA5
:102480008DE0CC0CDD1CEE1CFF1C8A95D1F7C1142D
:10249000D10481E0E806F10408F04EC080E18093A9
:1024A000660686E08093A0098091A10987FFFCCF92
:1024B0008091A00980E18093650600000000809370
:1024C000660682E08093A0098091A10987FFFCCF76
:1024D0008091A0091092A0098091A10987FFFCCFEB
:1024E0008091A0091092A0098091A10987FFFCCFDB
:1024F0008FEFE81AF80A8091A009C0E0D0E1C70187
:10250000B6013CDA8093A0098091A10987FFFCCF36
:102510008091A0099093A0098091A10987FFFCCF29
:102520008091A00982E0C80ED11CE11CF11C21970A
:1025300031F780E1809365068091010480FDFCCF36
:1025400082E080930304DF91CF91FF90EF90DF90C2
:10255000CF900895CF92DF92EF92FF92CF93DF93C7
:10256000C090AC2FD12CE12CF12C8DE0CC0CDD1CDB
:10257000EE1CFF1C8A95D1F7C114D10481E0E80656
:10258000F10438F0DF91CF91FF90EF90DF90CF9082
:102590006CCF8FEFE81AF80AC1E2D0E0219791F3EF
:1025A00008DAC701B601F1D904DA8FEFD81AE80AC0
:1025B000F80AF4CFCF92DF92EF92FF920F931F931E
:1025C000CF93DF93C090AC2FD12CE12CF12C8DE078
:1025D000CC0CDD1CEE1CFF1C8A95D1F7C114D10474
:1025E00081E0E806F10408F04FC080E180936606C0
:1025F00083E08093A0098091A10987FFFCCF80919F
:10260000A0091092A0098091A10987FFFCCF8091B9
:10261000A0091092A0098091A10987FFFCCF8FEF3C
:10262000E81AF80A8091A009C1E2D0E0219749F1A7
:10263000C0D9BCD9BED900E010E01092A0098091A9
:10264000A10987FFFCCF6091A00970E01092A0095A
:102650008091A10987FFFCCF8091A009782BC80148
:102660009AD9A7D90E5F1F4F011581E0180729F7E6
:10267000C701B60195D99DD98FEFD81AE80AF80A93
:10268000D5CF80E180936506E091AD2FF091AE2F1C
:102690008781863019F490E19093932C968196303F
:1026A00049F420E12093922C853059F483E1809302
:1026B000932C02C08530D1F3953019F483E18093D7
:1026C000922C8091010480FDFCCF82E08093030472
:1026D000DF91CF911F910F91FF90EF90DF90CF90FE
:1026E0000895CF92DF92EF92FF920F931F934115BF
:1026F000E0E25E076105710508F06BC06901E12C3D
:10270000F12C00E010E220E030E0041B150B260B5A
:10271000370BC016D106E206F30610F497018601C6
:1027200020E12093660626E02093A0092091A109CC
:1027300027FFFCCF2091A00920E12093650600002F
:1027400000002093660622E02093A0092091A109B1
:1027500027FFFCCF2091A0095093A0092091A10947
:1027600027FFFCCF2091A0094093A0092091A10947
:1027700027FFFCCF2091A009109212012AE834E231
:1027800020931C0130931D01009314011093150137
:1027900020E1209322018093280190932901009346
:1027A000240110932501809110018068809310010D
:1027B000809120018068809320018091100187FD25
:1027C000FCCF80E3809311018093210180E180930D
:1027D000650681E01F910F91FF90EF90DF90CF9001
:1027E0000895CF92DF92EF92FF920F931F934115BE
:1027F000E0E25E076105710508F05DC06901E12C4A
:10280000F12C00E010E220E030E0041B150B260B59
:10281000370BC016D106E206F30610F497018601C5
:1028200020E12093660623E02093A0092091A109CE
:1028300027FFFCCF2091A0095093A0092091A10966
:1028400027FFFCCF2091A0094093A0092091A10966
:1028500027FFFCCF2091A00921E020931201809353
:102860001C0190931D010093140110931501109207
:1028700022018AE894E28093280190932901009331
:10288000240110932501809110018068809310012C
:10289000809120018068809320018091100187FD44
:1028A000FCCF80E3809311018093210180E180932C
:1028B000650681E001C080E01F910F91FF90EF90CD
:1028C000DF90CF9008958091CF0187FDFCCF0895D0
:1028D000FADF8091CF0181FF0BC086E38093CA01AC
:1028E000EBECF1E021E030E088ED90E084BF208364
:1028F0000895EF92FF920F931F93CF93DF931F9250
:102900001F92CDB7DEB77C018A011092C2016983A4
:102910007A83D9DF6981A62F7A81B72FC701800F0B
:10292000911F26E048ED50E061E070E0EBECF1E053
:10293000E816F90689F0E092C0013F2D3F7130930F
:10294000C1012093CA0144BF60833091C4013D930B
:102950003FEFE31AF30AECCFC8010F900F90DF911D
:10296000CF911F910F91FF90EF9008952F923F927A
:102970004F925F926F927F928F929F92AF92BF928F
:10298000CF92DF92EF92FF920F931F93CF93DF933B
:1029900000D0CDB7DEB76A01282F2F711C01221A93
:1029A000310829836A837B8393DF8DDF83E3809300
:1029B000CA011092C1011092C2016A81E62E7B8188
:1029C000F72E860185E3582E98ED892E912C6624EA
:1029D0006394712C3BECA32EBB24B39443E3442EAD
:1029E00029810115110509F12093C001F701819199
:1029F0007F018093C4010150110919F02F5F20322B
:102A000081F72092C001832D8F718093C101509274
:102A1000CA01C401F50184BF608290E2290E311C15
:102A200052DF4092CA0120E0DCCFC6012396CDBF21
:102A3000DEBFDF91CF911F910F91FF90EF90DF905C
:102A4000CF90BF90AF909F908F907F906F905F904E
:102A50004F903F902F9008951F93CF93DF93CDB762
:102A6000DEB7A097CDBFDEBF863009F4F2C0D8F440
:102A7000833009F472C030F4813061F1823009F49E
:102A800040C000C1843009F48DC0853009F0FAC01F
:102A9000E091A12FF091A22FCE010196199580917E
:102AA000A72F41E0ABC0893009F4D7C040F487308C
:102AB00009F4D1C0883009F0E5C0D7DCE3C08B3021
:102AC00009F4D6C008F4D2C08C3009F0DBC08EEC1B
:102AD00093E2D0C010E08091A72F181750F444DB88
:102AE000E1E0F0E0EC0FFD1FE10FF11D80831F5FBF
:102AF000F2CF8091A92F853009F098C080EE8983AC
:102B000095C011E08091A72F873009F010E0E09187
:102B1000A12FF091A22FCE01019619954091A72FD8
:102B200031E0141708F082C03323A9F0812F90E020
:102B3000E1E0F0E0EC0FFD1FE80FF91F208131E02C
:102B40002F3F09F030E0E1E0F0E0EC0FFD1FE80F6F
:102B5000F91F2F5F20831F5FE4CFE091A12FF09139
:102B6000A22FCE01019619958091A72F41E08150A7
:102B700008F45CC04423D9F3282F30E0E1E0F0E012
:102B8000EC0FFD1FE20FF31F908141E09F3F09F022
:102B900040E0E1E0F0E0EC0FFD1FE20FF31F9F5F6C
:102BA0009083E5CF11E08091A72F873009F010E0E6
:102BB000E091A12FF091A22FCE010196199540919D
:102BC000A72F31E0141790F53323A1F0812F90E067
:102BD000E1E0F0E0EC0FFD1FE80FF91F208131E08C
:102BE000211130E0E1E0F0E0EC0FFD1FE80FF91FEC
:102BF000215020831F5FE6CF411103C08150E0F7D1
:102C000015C0282F30E0E1E0F0E0EC0FFD1FE20FEF
:102C1000F31F908141E0911140E0E1E0F0E0EC0F22
:102C2000FD1FE20FF31F91509083E8CFE091A32F97
:102C3000F091A42FCE0101961995E091AA2FF09161
:102C4000AB2F4091A72FBE016F5F7F4F83E1199596
:102C500019C0BFD317C0AEDC15C080910008813009
:102C600061F480918C08833041F40AC0B9D20AC063
:102C700088EC93E20E94732405C00E94012602C0E2
:102C80000E942626A096CDBFDEBFDF91CF911F9177
:102C90000895E0E0F6E080E6828388E1868B858B0C
:102CA0000895CF93C0910806C095C6FF12C08091C9
:102CB0008C248A3050F08A30E1F4E091AD2FF0910D
:102CC000AE2F8181C9DE80918C248F5F80938C240C
:102CD00010C08C2F807669F480918C2481508A30CA
:102CE00030F4E091AD2FF091AE2F8081B5DE1092DF
:102CF0008C24C5FF12C080918B248A3050F08A301A
:102D0000D9F4E091AD2FF091AE2F8381A5DE8091B3
:102D10008B248F5F80938B240FC0C07669F48091E1
:102D20008B2481508A3030F4E091AD2FF091AE2F9A
:102D3000828192DE10928B24CF9108959B01AC0189
:102D40006DE086E798E09FC420E030E090E0F90174
:102D5000E80FF91FE455F04D6383245F3F4F2036A1
:102D60003105A9F708950F931F939B01E091AD2FB3
:102D7000F091AE2FE80FF11D8A0140816DE086E7EA
:102D800098E042D41F910F9108950F931F93CF9312
:102D9000DF931F92CDB7DEB7082FAB019E012F5FE7
:102DA0003F4F6DE086E798E047D4182F882319F04D
:102DB0006981802FC9DF812F0F90DF91CF911F9103
:102DC0000F9108950895EF92FF920F931F93CF9361
:102DD0007B01C42F2EB13FB100910804109109046A
:102DE000022B132B682F83E090E20E94386E6C2F29
:102DF00083E090E20E94386E612F83E090E20E94AF
:102E0000386E602F83E090E20E94386E6C2F70E085
:102E1000C701CF911F910F91FF90EF90B5C4089516
:102E20003F924F925F926F927F928F929F92AF925A
:102E3000BF92CF92DF92EF92FF920F931F93CF93A7
:102E4000DF937C01E901C0900020D0900120960121
:102E500022503843C901A0E0B0E0481759076A077B
:102E60007B0708F05CC0E2E0CE1AE0E4DE0A2A014B
:102E70003B014C0E5D1E611C711C481659066A060A
:102E80007B0648F0241B350B8E01021B130BE90156
:102E90003324339403C000E010E0312C4601A12C10
:102EA000B12C481559056A057B0510F5CA018E5FDE
:102EB0009F4B2A013B014C0E5D1E611C711C481486
:102EC00059046A047B0428F4AE01BC01C70111DA7D
:102ED00018C0C41AD50AA601BC01C7010ADAAE019E
:102EE0004C195D0962E974E2C7018C0D9D1D07C094
:102EF0004C195D09BA016E567B4DAE01C7010E94A7
:102F00006070311002C081E00BC001501109D8F38C
:102F1000F801EC0FFD1FEE0DFF1D1082F6CF80E0D3
:102F2000DF91CF911F910F91FF90EF90DF90CF90A5
:102F3000BF90AF909F908F907F906F905F904F90D9
:102F40003F90089520918E2430918F2480E098E066
:102F5000821B930BE2E9F4E29F01225934422817C5
:102F6000390710F41192F8CF82E994E2809390240B
:102F70009093912480E098E080938E2490938F2406
:102F800082E090E4809300209093012042E050E0A2
:102F900060E070E480E090E2FAD9E091AD2FF0912A
:102FA000AE2F87818A3019F480E18093932C86813B
:102FB0008A3019F480E18093922C089580918E24B8
:102FC00090918F2490582091002030910120821BF5
:102FD000930B089520E030E0F901E455F04D87832C
:102FE000245F3F4F20363105B9F7813049F018F0A2
:102FF000823059F0089510928D2482EE96E109C036
:1030000080938D2489E698E104C010928D2483EE8C
:1030100096E18093AA2F9093AB2F08950F931F935F
:10302000CF93DF931F92CDB7DEB7E091AD2FF09134
:10303000AE2F8481CFDF82E994E280939024909335
:10304000912400E018E000938E2410938F2441E037
:1030500050E0BE016F5F7F4F80E090E04ADCE0917E
:103060009024F0919124DF01C8011D920197E9F7A6
:103070008981882341F042E050E060E070E480E024
:1030800090E237D917C082E090E4809300209093BB
:10309000012042E050E060E070E480E090E277D907
:1030A00081E0898341E050E0BE016F5F7F4F80E0A7
:1030B00090E05CDCE091AA2FF091AB2F40E060E063
:1030C00070E08FEF19950F90DF91CF911F910F91C5
:1030D00008950F931F93CF93DF93AEB1BFB1C0910B
:1030E0000804D091090420918E2430918F24E42F7C
:1030F000F0E08F010C5F1F4F2017310758F1CA2BEA
:10310000DB2B245031092E1B3F0B20938E24309350
:103110008F24A0919024B09191248C9311964C937C
:1031200011971296DC931297CD0104968093902408
:10313000909391241396CC93DB01EC01415018F04D
:103140002D912993FBCFE80FF91FE0939024F09382
:10315000912412C080E03EDFE091AD2FF091AE2FC0
:1031600087818A3019F481E18093932C86818A309B
:1031700019F481E18093922CDF91CF911F910F91EF
:1031800008951F93CF93DF931F92CDB7DEB79E01B3
:103190002F5F3F4FAC0163E083E29AE04DD2182FDE
:1031A000882311F0898116DF812F0F90DF91CF9155
:1031B0001F9108950F931F93E091AD2FF091AE2FC3
:1031C0008B019C01448163E083E29AE01DD21F9150
:1031D0000F9108959B01AC0163E083E29AE053C232
:1031E000EF92FF920F931F93CF93DF9380918E24E2
:1031F00090918F24811528E0920708F078C0009103
:10320000002010910120C0E0D0E8C01BD10BE12CC0
:1032100028E0F22EA701481B590BC417D50760F10F
:10322000B80182E994E2B3D820918E2430918F24A2
:103230008091002090910120985F821B930B8093D6
:10324000002090930120E21AF30AE2E9F4E2CF01B0
:10325000825994428E159F0510F41192F8CF82E99D
:1032600094E2809390249093912480E098E080935E
:103270008E2490938F242EC02097C9F1AE01B801FF
:1032800082E994E284D8A8015857BE016E567B4D5E
:1032900082E994E20E946970809190249091912437
:1032A0008C1B9D0B809390249093912480918E246D
:1032B00090918F248C0F9D1F80938E2490938F2448
:1032C0008091002090910120C80FD91FC093002049
:1032D000D093012042E050E060E070E480E090E2B2
:1032E000DF91CF911F910F91FF90EF9050C8DF9128
:1032F000CF911F910F91FF90EF90089580918D24B1
:1033000081116ECF089543E650E06CEA7FE281E0E0
:1033100090E0EFCA43E650E06CEA7FE281E090E0A3
:1033200025CB0F931F93CF93DF93CFEFC80FC830F8
:1033300008F047C0D82F0E9475258091AC2FC81780
:1033400079F138D9C093AC2F8CE0C89F900111243B
:103350002155304D2093AD2F3093AE2F86D8E0917C
:10336000AD2FF091AE2F85810E942D10E091AD2FF1
:10337000F091AE2F84812EDE01E010E00C5A1F4246
:103380006091AC2FC8018455904D0E94EC766091FD
:10339000AD2F7091AE2FC8018355904D0E94F576E8
:1033A0008FE18D0FE091AD2FF091AE2F978194308A
:1033B00011F48093932C9681943029F48093922C6D
:1033C00002C080E001C081E0DF91CF911F910F9199
:1033D00008958091AC2F99E04CE0915099F0282FFE
:1033E00030E02F5F3F4F27703327822F429FF0013D
:1033F000439FF00D1124E455F04D2085222369F3FD
:103400008F5F8FCF0895FC019091AC2F9F5C9083CC
:1034100011820895CF93FC01C081818181110CC07C
:10342000BF01E091AA2FF091AB2F41E082E1199505
:1034300080ED8C0FCF9175CF80E0CF91089588E11A
:103440008093010608958091922C823191F030F49E
:103450008031B9F050F48823A9F132C0833169F08A
:1034600090EE980F983088F02BC088E08093050686
:1034700027C088E08093070623C08091040683FF5D
:1034800012C088E0809306061BC09091942C9F5F29
:10349000913019F09093942C15C01092942C909127
:1034A000040693FD04C088E0809305060BC098E0F5
:1034B00090930606803221F081508093922C02C0B6
:1034C0001092922C8091932C823191F030F48031C3
:1034D000C1F050F48823A9F132C0833169F090EE35
:1034E000980F983088F02BC080E18093050627C0A4
:1034F00080E18093070623C08091040684FF12C0F8
:1035000080E1809306061BC09091952C9F5F9130BF
:1035100019F09093952C08951092952C9091040693
:1035200094FD04C080E180930506089590E1909396
:103530000606803221F081508093932C08951092DA
:10354000932C08959B01AC016BE086E89AE09BC048
:1035500020E030E0982F90718870992321F0F901D4
:10356000E455F04D6287882321F0F901E455F04DD0
:103570006187245F3F4F2036310579F7992329F081
:1035800090E1909306061092932C882329F088E00E
:10359000809306061092922C08950F931F939B011F
:1035A0008A01803131F4E091AD2FF091AE2F478147
:1035B00007C0883049F4E091AD2FF091AE2F4681DD
:1035C0006BE086E89AE020D01F910F9108950F9349
:1035D0001F93CF93DF931F92CDB7DEB7082FAB01B8
:1035E0009E012F5F3F4F6BE086E89AE025D0182FB1
:1035F000882319F06981802FABDF812F0F90DF9135
:10360000CF911F910F9108950F931F93FC01662393
:1036100079F094916150941309C0BF016F5F7F4F9F
:10362000A801C9010E94447081E003C0B196EFCFA8
:1036300080E01F910F910895CF92DF92EF92FF9259
:103640001F93CF93DF93EC017A016901162F1123A9
:1036500089F0BE016F5F7F4FC7010E943B70115020
:10366000892B31F4FE01C491F601C08381E003C0CF
:10367000A196EDCF80E0DF91CF911F91FF90EF9069
:10368000DF90CF900895CF930196CCE26623C9F0E6
:10369000FC01DA01AD017491772341F02115310568
:1036A000A1F07D93319621503109F4CF623030F092
:1036B0002115310551F04F5F5F4FCC9361508196DA
:1036C000E5CF232B11F0FA011082CF91089580915C
:1036D00020028068809320028091230280FFFCCF2B
:1036E00081E080932302A0911002B0911102AE5BA1
:1036F000B109B7FF02C0A0E0B0E020E038EB4BE03A
:1037000050E00E94BE6FE091AD2FF091AE2F611599
:103710007105844F9140A8F48781873019F480E1C6
:103720008093932C8681873019F480E18093922CCA
:103730008091A72F882389F0E091992FF0919A2FFB
:1037400019948781873019F481E18093932C8681C5
:10375000873019F481E18093922C0895BC0183E0B5
:1037600090E20C94EA6DCF93DF93FC016491EC013D
:103770002196662331F083E090E20E94386ECE01FC
:10378000F4CFDF91CF910895AB01BC0183E090E2CB
:103790000C94146E80E2809362060895CF93DF93B9
:1037A0008091962C823031F583E090E20E949D6EEC
:1037B0000E946C6983E090E20E94B96EEC0197FD73
:1037C00019C0E091AD2FF091AE2F8781833019F4AD
:1037D00083E18093932C8681833019F483E1809375
:1037E000922C8C2FA2D6811105C08C2FDF91CF9106
:1037F0000C949324DF91CF9108958091962C813081
:1038000079F028F08230D9F0833011F12EC0809108
:10381000680685FF2AC08FE08093022081E00CC0FB
:103820008091022081508093022081111EC00E944D
:10383000DE0F0E94176D82E08093962C16C0809157
:10384000680685FD12C08FE08093022083E0F4CFEC
:1038500080910220815080930220811106C00E9435
:10386000DC6C0E940C101092962C8091962C823069
:1038700019F4ACD70C943D250895E091AD2FF0914B
:10388000AE2F8781823019F481E18093932C868159
:10389000823019F481E18093922C0895E091AD2F4C
:1038A000F091AE2F8781823019F480E18093932CC0
:1038B0008681823019F480E18093922C089583E010
:1038C00090E20C94C56D83E090E20C940C6F27E8B5
:1038D0003DE03F932F9321E83DE03F932F932AE76C
:1038E0003DE03F932F9323E73DE03F932F9323ED5C
:1038F0003CE03F932F9322E02F931F929F938F934F
:103900000E94C9708DB79EB70E968DBF9EBF85E68B
:10391000089560E072E00E946D1085E60895FB0155
:1039200020812F3349F42181211106C060E072E02B
:103930000E94AC1085E60895CB010E947E1088237A
:1039400071F0E091AD2FF091AE2FCF01875A9F42D9
:1039500065818F5F9F4F0E94EC7684E608958AEC24
:103960000895EF92FF920F931F93CF93DF93CDB7FC
:10397000DEB7A097CDBFDEBF7C010091A72F10E07E
:103980000115110591F48BEC9CE09F938F9382E0DD
:103990008F931F92FF92EF920E94C9700F900F9029
:1039A0000F900F900F900F9010C0E091A12FF09109
:1039B000A22FCE01019619959801AE014F5F5F4F7E
:1039C00060E072E0C7010E94D01085E6A096CDBFEE
:1039D000DEBFDF91CF911F910F91FF90EF9008957F
:1039E000DF92EF92FF920F931F93CF93DF93CDB7A8
:1039F000DEB7A097CDBFDEBF7B010091A72F10E0FF
:103A000064EC7CE0C7010E943B70892BC1F4D12C8F
:103A1000ED2CF12CE016F10658F40E94B410E1E010
:103A2000F0E0EC0FFD1FEE0DFF1D8083D394F0CF6F
:103A30008091A92F853069F480EE89830AC0A7019F
:103A400060E270E0CE0101960E940A118017910792
:103A5000A1F4E091A32FF091A42FCE010196199526
:103A6000E091AA2FF091AB2F4091A72FBE016F5F7D
:103A70007F4F83E1199584E601C08AECA096CDBF03
:103A8000DEBFDF91CF911F910F91FF90EF90DF90FC
:103A90000895FC018091A82F882311F081E301C0D3
:103AA00080E38083118285E60895FB012181211145
:103AB00027C02081213321F481E08093A82F04C006
:103AC000203321F41092A82F84E608952F33C1F4F7
:103AD0001F9220E32F931F9221E32F932EEB3CE0C4
:103AE0003F932F9322E02F931F929F938F930E94D7
:103AF000C9708DB79EB70A968DBF9EBF85E60895A3
:103B00008AEC089581E793E1DFD48EE6089581EF92
:103B100093E1F5D48EE60895E0ECF4E081818E7FA8
:103B200081830E94DC6C0E94D20F84E60895E0EC51
:103B3000F4E081818E7F81830E94DC6C0E94D80F2B
:103B400084E60895E1E9FFE225892F9324892F93E4
:103B50002BEB3CE03F932F9322E02F931F929F93F8
:103B60008F930E94C9708DB79EB708968DBF9EBF78
:103B700085E608952091A72F1F922F9328EB3CE014
:103B80003F932F9322E02F931F929F938F930E9436
:103B9000C9708DB79EB708968DBF9EBF85E6089504
:103BA00040E052E0BC0180E0DED885E60895FB01EC
:103BB00020812F3341F42181211105C060E072E0A2
:103BC000BDD885E6089580E0E0D8882319F0A2DB0F
:103BD00084E608958AEC089540E052E0BC0181E05B
:103BE000C2D885E60895FB0120812F3341F421815D
:103BF000211105C060E072E0A1D885E6089581E05A
:103C0000C4D8882319F086DB84E608958AEC0895E9
:103C100040E052E0BC0182E0A6D885E60895FB01B1
:103C200020812F3341F42181211105C060E072E031
:103C300085D885E6089582E0A8D8882319F06ADB44
:103C400084E608958AEC089540E052E0BC0183E0E8
:103C50008AD885E60895FB0120812F3341F4218124
:103C6000211105C060E072E069D885E6089583E01F
:103C70008CD8882319F04EDB84E608958AEC0895E9
:103C800040E052E0BC0180E188DC85E60895FB015C
:103C900020812F3341F42181211105C060E072E0C1
:103CA00051DC85E6089580E192DC882319F032DB4F
:103CB00084E608958AEC089540E052E0BC0188E073
:103CC0006CDC85E60895FB0120812F3341F42181CE
:103CD000211105C060E072E035DC85E6089588E0DA
:103CE00076DC882319F016DB84E608958AEC0895C3
:103CF00060E072E05FDA85E60895FB0120812F33F2
:103D000041F42181211105C060E072E063DA85E6AB
:103D10000895CB0136DA882319F0FCDA84E6089599
:103D20008AEC0895CF93DF93EC0148D9813028E0E5
:103D3000920718F09C01385002C020E030E03F9319
:103D40002F939F938F9328E93CE03F932F9382E03A
:103D50008F931F92DF93CF930E94C9708DB79EB748
:103D60000A968DBF9EBF85E6DF91CF91089580E1D1
:103D700097E1C5D38EE6089533DA84E60895E2D854
:103D800084E6089560E072E03EDB85E60895CB01AD
:103D900041DB811102C08AEC089584E608950E94F7
:103DA000AA1284E608950E94DA1284E608950E9419
:103DB000351284E608958091680680FD02C089E787
:103DC000089588E70895DF92EF92FF920F931F9373
:103DD000CF93DF93EC010FEF11E08AECE82E8EE039
:103DE000F82E9CE2D92EB70189EE93E20E943B7037
:103DF000892BD1F001151105B9F0DE01F7012491ED
:103E0000ED012196C8010197222341F001301105EF
:103E100029F02C93DE0131968C01F1CFDC928C01DC
:103E200088E1E80EF11CDFCF2197188285E6DF914B
:103E3000CF911F910F91FF90EF90DF900895FC01BB
:103E4000209120022068209320028091230280FF8D
:103E5000FCCF81E080932302A0911002B091110267
:103E6000AE5BB109B7FF02C0A0E0B0E020E038EBE4
:103E70004BE050E00E94BE6FAA27BB279F938F9311
:103E800021E93CE03F932F9382E08F931F92FF93B1
:103E9000EF930E94C9708DB79EB708968DBF9EBFE5
:103EA00085E608952EB13FB1409108045091090470
:103EB000242B352B3F932F932BE83CE03F932F93FC
:103EC00022E02F931F929F938F930E94C9708DB70A
:103ED0009EB708968DBF9EBF85E608950F931F93EA
:103EE000CF93DF931F921F92CDB7DEB78B01E09186
:103EF000AD2FF091AE2F85818B3009F06FC0E0912E
:103F0000992FF0919A2F199581E080931B2D60E2F3
:103F100070E0C8010E9481700097F9F4F8010190E7
:103F20000020E9F73197E01BF10BE0FD59C0F69551
:103F3000E795E130F10539F487E090E080938F2F29
:103F40009093902F37C053E0EE0FFF1F5A95E1F783
:103F5000E0938F2FF093902F2DC098012C5F3F4F4F
:103F600082179307E9F5A80162E070E0CE0101969F
:103F70000E940A11898190E0982F88272A81820F58
:103F8000911D80938F2F9093902F0B5F1F4FF801FF
:103F900001900020E9F73197E01BF10BE0FD20C014
:103FA000F695E79533E0EE0FFF1F3A95E1F7E81736
:103FB000F907B0F060918F2F7091902F695F7F4F5C
:103FC00083E0769567958A95E1F7A8018DE89EE2F2
:103FD0000E940A110E940F2F8FEF03C089EC01C0CD
:103FE0008AEC0F900F90DF91CF911F910F91089560
:103FF000EF92FF920F931F93CF93DF931F921F9225
:10400000CDB7DEB78B01E091AD2FF091AE2F85815A
:104010008B3009F080C0E091992FF0919A2F19957B
:1040200082E080931B2D60E270E0C8010E948170E5
:104030007C01892B31F5F80101900020E9F73197D7
:10404000E01BF10BE0FD69C0F695E795E130F10565
:1040500039F487E090E080938F2F9093902F47C0A2
:1040600063E0EE0FFF1F6A95E1F7CF0169E070E0B2
:104070000E94AA6FE81BF90BE0938F2FF093902F0B
:1040800036C0C8010496E816F90609F046C0A80132
:1040900062E070E0CE0101960E940A11298130E0B1
:1040A000322F22278A81280F311D20938F2F3093A2
:1040B000902F2730310529F0C90187709927892B66
:1040C00061F587010F5F1F4FF80101900020E9F7AC
:1040D0003197E01BF10BE0FD20C0F695E79543E03A
:1040E000EE0FFF1F4A95E1F7E217F307B0F060917A
:1040F0008F2F7091902F695F7F4F83E07695679542
:104100008A95E1F7A8018DE89EE20E940A110E94BB
:104110000F2F8FEF03C089EC01C08AEC0F900F9036
:10412000DF91CF911F910F91FF90EF900895E09153
:10413000AD2FF091AE2F85818B30A1F4E091992FB6
:10414000F0919A2F199585E080931B2D0E94655060
:104150000E940F2F8FE690E58093A62C9093A72CBA
:104160008FEF089589EC08958BE00E942D10E09167
:10417000992FF0919A2F199588E080931B2D0E941A
:1041800065500E940F2F8FE690E58093A62C9093A8
:10419000A72C8FEF0895E091AD2FF091AE2F858180
:1041A0008B30A1F4E091992FF0919A2F199583E02B
:1041B00080931B2D0E9465500E940F2F8FE690E583
:1041C0008093A62C9093A72C8FEF089589EC0895E7
:1041D000E091AD2FF091AE2F85818B30A1F4E0916D
:1041E000992FF0919A2F199586E080931B2D0E94AC
:1041F00065500E940F2F8FE690E58093A62C909338
:10420000A72C8FEF089589EC0895E091AD2FF091E0
:10421000AE2F4085518564E6649F9001659F300D07
:1042200011243F932F9325E83CE03F932F9322E006
:104230002F931F929F938F930E94C9708DB79EB743
:1042400008968DBF9EBF85E60895CF93DF931F929A
:104250001F92CDB7DEB7FB0120812F33B1F421814E
:10426000211113C023E53CE03F932F9322E02F93CD
:104270001F929F938F930E94C9700F900F900F9081
:104280000F900F900F9085E62EC089E592E089830C
:104290009A83CE0101969F938F938FE49CE09F9326
:1042A0008F937F936F930E94FF700F900F900F90EA
:1042B0000F900F900F90892BA9F069817A81693551
:1042C000F2E07F0778F4E091AD2FF091AE2F608798
:1042D0007187CF01845A9F428F5F9F4F0E94F5766E
:1042E00084E601C08AEC0F900F90DF91CF91089582
:1042F000E091AD2FF091AE2F23852F9322852F9340
:104300002CE43CE03F932F9322E02F931F929F9346
:104310008F930E94C9708DB79EB708968DBF9EBFC0
:1043200085E60895CF93DF931F921F92CDB7DEB736
:10433000FB0120812F33B1F42181211113C02FE023
:104340002F932FEF2F932BEF3BE03F932F9322E000
:104350002F931F929F938F930E94C970CDBFDEBF92
:1043600085E630C019821A82CE0101969F938F9301
:1043700087EF9BE09F938F937F936F930E94FF70D3
:104380000F900F900F900F900F900F90892BC9F006
:1043900069817A81611590E1790798F46093380317
:1043A00070933903E091AD2FF091AE2F6287738740
:1043B000CF01825A9F428F5F9F4F0E94F57684E61D
:1043C00001C08AEC0F900F90DF91CF910895FB010F
:1043D00020812F33D9F42181211121C01F9220E3A4
:1043E0002F931F9221E32F9321EF3BE03F932F93D5
:1043F00022E02F931F929F938F930E94C9708DB7D5
:104400009EB70A968DBF9EBF85E60895213311F4AD
:10441000F8D303C0203319F419D484E608958AEC44
:104420000895FC0180910008813021F480918C086E
:10443000833011F080E301C081E38083118285E63F
:104440000895E091AD2FF091AE2F85818B3079F4F6
:10445000E091992FF0919A2F199584E080931B2D6C
:104460000E9465500E940F2F8FE690E50EC08A30A3
:1044700091F4E091992FF0919A2F199581E0809312
:10448000F72D0E9455588AE698E58093A62C9093C4
:10449000A72C8FEF089589EC08958BE00E942D10D2
:1044A000E091992FF0919A2F199587E080931B2D19
:1044B0000E9465500E940F2F8FE690E58093A62CF6
:1044C0009093A72C8FEF089521E02093A52C2093A3
:1044D000A42C2CE32093A12C25E030E020939F2CEA
:1044E0003093A02C1092992C10929A2C10929B2C05
:1044F00010929C2C8093972C9093982C089527E0F1
:104500002093A52C2CE231E020939F2C3093A02CFB
:104510001092992C10929A2C10929B2C10929C2CF9
:104520008093972C9093982C0895CF939091A52CDD
:104530009530E1F130F4933029F140F5913068F491
:1045400041C1973009F4A7C008F445C0983009F478
:10455000AAC0993009F433C135C1813041F41092B9
:104560009D2C10929E2C1092A22C83E0FBC08430D4
:1045700011F466E08BC0883109F421C18B3109F058
:10458000F3C01DC18093A32C84E0ECC090E0409167
:10459000A32C2FEF30E0241B31098217930721F45D
:1045A00085E0E0C0981739F165E169C020919D2C44
:1045B00030919E2CA9014F5F5F4F40939D2C5093EB
:1045C0009E2CF901E15FFF4C80834038510509F0D2
:1045D000CBC086E0C7C02091A32C9091A42C2913B6
:1045E00046C0EFE0F0E390E020E3EF38F207D1F2CD
:1045F0002191920FF9CF4091992C50919A2C609172
:104600009B2C70919C2CE091972CF091982C20E899
:1046100030E08FE090E31995C82F882311F1809145
:10462000A42C8F5F8093A42C8091992C90919A2C2C
:10463000A0919B2CB0919C2C80589F4FAF4FBF4FA7
:104640008093992C90939A2CA0939B2CB0939C2CA4
:1046500066E083E090E20E94386E82E08093A52CB1
:10466000B2C068E183E090E20E94386E0EC030E094
:10467000892F90E001972817390739F466E083E025
:1046800090E20E94386E82E06DC068E183E090E2C3
:104690000E94386E94C0853119F41092A42C09C080
:1046A0008B3109F48CC0883109F463CF863009F06E
:1046B0005DC08091A42C8F5F8093A42C4091992C95
:1046C00050919A2C60919B2C70919C2CE091972C8E
:1046D000F091982C20E830E08FE090E31995C82FF6
:1046E0008823D1F161E083E090E20E94386E60910E
:1046F000A42C83E090E20E94386E6091A42C609517
:1047000083E090E20E94386E60E870E08FE090E312
:104710003BD8EFE0F0E360E080E3EF38F80719F012
:104720008191680FF9CF83E090E20E94386E80910A
:10473000992C90919A2CA0919B2CB0919C2C8058F4
:104740009F4FAF4FBF4F8093992C90939A2CA0937B
:104750009B2CB0939C2C37C064E083E090E20E94D5
:10476000386E89E08093A52CC1E02DC08531E1F73A
:1047700061E083E090E20E94386E6091A42C83E0B7
:1047800090E20E94386E6091A42C609583E090E2E4
:104790000E94386E60E870E08FE090E30E94C41BD6
:1047A000EFE0F0E360E020E3EF38F20719F08191E9
:1047B000680FF9CF83E090E20E94386ED5CF109257
:1047C000A52CD2CFC0E08C2FCF9108958091A52C3D
:1047D000813019F0873029F1089580919F2C9091B4
:1047E000A02C9C012150310920939F2C3093A02CA8
:1047F000892B31F58091A12C9FEF980F9093A12CDC
:10480000882331F065E183E090E20E94386E02C0B7
:104810001092A52C85E090E080939F2C9093A02C83
:10482000089580919F2C9091A02C9C0121503109DA
:1048300020939F2C3093A02C892B11F41092A52C3F
:104840000895E1EAFDE020E030E09491981309C07A
:1048500041E2429FC001439F900D11248E55924F1B
:1048600008952F5F3F4FB1962930310571F780E0F1
:1048700090E00895262FBA012F3311F4469607C011
:104880002D3311F4449611C021110CC04096FC0147
:10489000259134912115310521F18FE090E3F90143
:1048A00019950DC02032E9F44296FC01259134910E
:1048B00021153105B1F08FE090E3F90119958F3F93
:1048C00089F491E09093AA2C2EB13FB14091080455
:1048D00050910904242B352B2093A82C3093A92C1C
:1048E000089589EC08950F931F93CF93DF938C0164
:1048F000CAECDEE0BE01C8010E943B70892B49F47E
:1049000040E050E060E0CE01DF91CF911F910F9128
:10491000B1CF689682E1C23AD80761F7DF91CF91B3
:104920001F910F910895EF92FF921F93CF93DF9302
:10493000982F9F7D91549A3160F090ED980F9A30A6
:1049400040F08F3531F0982F9D7F9D3311F08032EC
:10495000D1F49FE9980F9A3108F480522091AB2C42
:104960003091AC2C2F3F91E0390708F07FC0A901AE
:104970004F5F5F4F4093AB2C5093AC2CF901E15F3C
:10498000FF4C808373C08D3009F040C0E091AB2CA8
:10499000F091AC2CE15FFF4C10821092AB2C109286
:1049A000AC2C8091AA2C811161C080910F30982F7E
:1049B0009F7D09F440C08D7F8D33E9F1EFE0F0E396
:1049C0007F011191112331F01F3321F01D3311F0BC
:1049D0001032B1F7F7011082CAECDEE0BE018FE0C1
:1049E00090E30E943B70892B59F410920F30A7017D
:1049F0004F5F5F4F612FCE013DDF8F3FB9F124C084
:104A00006896F2E1C23ADF0749F715C0883061F4D1
:104A10008091AB2C9091AC2C009741F10197809341
:104A2000AB2C9093AC2C22C08B3101F51092AB2CA7
:104A30001092AC2C1BC088EC04DF0E94B31B8EE9E3
:104A40009DE00E94B31B12C0FCDE0E94B31B8EE9E6
:104A50009DE00E94B31B80910F30882339F08FE0D6
:104A600090E30E94AE1B8BE99DE0EBCF81E0DF91EC
:104A7000CF911F91FF90EF9008958091AA2C8823E9
:104A800099F1E091AD2FF091AE2F20853185211560
:104A9000310551F18EB19FB1409108045091090444
:104AA000842B952B4091A82C5091A92C841B950BFD
:104AB00064E670E00E94AA6F62177307A8F0109274
:104AC000AA2C8BECBEDE0E94B31B88E99DE00E94FD
:104AD000B31BE091A62CF091A72C309729F01995E3
:104AE0001092A62C1092A72C08958091AA2C8823AE
:104AF000A9F01092AA2C8BECA4DE0E94B31B88E9CB
:104B00009DE00E94B31BE091A62CF091A72C30975A
:104B100029F019951092A62C1092A72C0895CF93E6
:104B2000DF939091AA2C9923A9F0EB011092AA2C63
:104B300088DE0E94B31B85E99DE00E94B31B20978D
:104B400049F0CE010E94AE1B82E99DE0DF91CF913A
:104B50000C94B31BDF91CF910895EF92FF920F93C6
:104B60001F93CF937C019B01613081E0780710F0A7
:104B700020E031E08B01021B130BA70160E072E023
:104B80008FE090E30E94D0108FE090E30E94AE1B74
:104B9000C1E0013081E01807B0F01A956C2F70E089
:104BA000762F6627A701460F571F20E032E060E00E
:104BB00072E08FE090E30E94D0108FE090E30E94BB
:104BC000AE1BCF5FE6CF0115110591F0EC2FF0E0A1
:104BD000FE2FEE27A7014E0F5F1F980160E072E0E5
:104BE0008FE090E30E94D0108FE090E30E94AE1B14
:104BF0008FE89DE0CF911F910F91FF90EF900C9463
:104C0000B31B80910008813029F480918C08833097
:104C100009F408958091AF2C811117C081E0809331
:104C2000000893E090938C088093AD2C1092AE2CEA
:104C30008EB19FB12091080430910904822B932BEF
:104C40008093B42C9093B52C0895089510928C08FD
:104C500010920008EDEAFCE2108211820895909112
:104C6000AD2C9923F1F08091AE2C811115C02091CB
:104C7000AD2C2223B9F02EB13FB1409108045091E0
:104C80000904242B352B4091B42C5091B52C241BB6
:104C9000350B2634310530F081E08093AE2C892F1E
:104CA000089581E00895CF93DF931F92CDB7DEB7CB
:104CB0008091AF2C8823D1F02EB13FB140910804F0
:104CC00050910904242B352B4091B22C5091B32CD8
:104CD000241B350B4091B02C5091B12C2417350773
:104CE00028F01092AF2C89838CDF89810F90DF919F
:104CF000CF910895E091AD2FF091AE2F82879387E9
:104D000080933803909339030895E091AD2FF0918B
:104D1000AE2F828593854096828793878093380350
:104D200090933903828593850895E091AD2FF0919A
:104D3000AE2F80E991E08287938780933803909328
:104D400039030895A0E2B6E081E015968C9315979B
:104D50002FE032E328B939B92FE832E32AB93BB959
:104D600010B813B812B816B817B811B8E0E0F9E0E7
:104D700010A211A22FEF30E026A337A32FEF3FEFB1
:104D800020A731A7808398E8938390E1948793E0EC
:104D900097831C968C931C9782E01A968C930895A7
:104DA000E0E0F9E013828FE790E086AB97AB81E11A
:104DB00090E080AF91AFE0E0FAE010A211A28FEF97
:104DC0009FEF86A397A389E88383168281E0848777
:104DD0008EE0808310922A0608951F920F920FB6DC
:104DE0000F92112408B60F9218BE09B60F9219BE81
:104DF0000BB60F921BBE2F933F934F935F936F930E
:104E00007F938F939F93AF93BF93EF93FF93E09123
:104E10008D2FF0918E2F1995FF91EF91BF91AF914A
:104E20009F918F917F916F915F914F913F912F91C2
:104E30000F900BBE0F9009BE0F9008BE0F900FBED3
:104E40000F901F9018951F920F920FB60F9211247A
:104E500008B60F9218BE0BB60F921BBE2F933F934E
:104E60008F939F93EF93FF932091280693B1267021
:104E700081E009F080E0990F892B83B982B1882302
:104E800009F464C012B883B18770873059F5109265
:104E9000000980E180930C091092030A1B9B03C058
:104EA0008CEA94E002C08CE694E08093260A90930A
:104EB000270A82E081B981E080930C0A83E0809325
:104EC000060A86B197B1877049F090B18F5F89303B
:104ED00011F09695FBCFE8B1F9B1908381E0809312
:104EE000B62C37C093B1892F8C7099F192FB99271A
:104EF00090F981E0982781B181111BC080B186951E
:104F0000911190E8892B80B926B137B12F5F3F4FBF
:104F100026B937B927703327232BD9F4E8B1F9B173
:104F20009F012F5F3F4F28B939B9808381E081B954
:104F300010C081B1813069F4EAB1FBB19F012F5FEC
:104F40003F4F2AB93BB9908311B803C082B1809515
:104F500082B988E880930309FF91EF919F918F9127
:104F60003F912F910F900BBE0F9008BE0F900FBE78
:104F70000F901F9018951F920F920FB60F92112449
:104F800008B60F9218BE0BB60F921BBE2F933F931D
:104F90008F939F93EF93FF9381B1823008F49DC06C
:104FA00081B18D3008F099C0E1B1F0E0EE0FFF1F44
:104FB000EA5DFF4D0190F081E02D19948FE790E0BC
:104FC0008093260A9093270A88C08E9A8EE0809359
:104FD00040088FE390E08093260A9093270A85E0AB
:104FE0006FC08E9886E081B98FEF82B914B815B87A
:104FF000E8B1F9B1808180B970C0009B05C08E9A7C
:1050000082B1809582B901C08E9887E059C0009B1B
:1050100002C08E9801C08E9A80B1869580B984B105
:1050200095B1019684B995B984B195B187709927E6
:10503000892B11F488E044C024B135B186B197B111
:1050400028173907B1F52BC0EAB1FBB1309711F041
:10505000808101C082B1882311F08E9A01C08E98A0
:1050600089E02EC0EAB1FBB1309751F080818823EE
:1050700011F08E9801C08E9A3196EAB9FBB908C03A
:1050800082B1882311F08E9801C08E9A8FEF82B979
:1050900024B135B186B197B12817390711F48AE0E8
:1050A0000FC0E8B1F9B1CF01019688B999B98181F2
:1050B00080B986E005C08E988BE002C08E988CE0A7
:1050C00081B90BC01092000A1092060A1092400893
:1050D0001092410881E08093B72CFF91EF919F914E
:1050E0008F913F912F910F900BBE0F9008BE0F90A4
:1050F0000FBE0F901F901895CF93DF93E6EBFCE265
:10510000108211828DEA99E280938B2E90938C2EDF
:1051100080ED96E280938D2F90938E2FE0E4F6E061
:10512000128A84E08283C0E8D1E082E68E83A0E226
:10513000B6E081E016968C93169711968C93119792
:1051400096E012969C93129751968C93519732E069
:1051500052963C9352971A961C921A971B961C9241
:105160001B979FE019969C9399E598832AE52983DC
:105170009A8390E491839683A0EBB0E012962C91F1
:105180001297207F12962C93129712962C911297B9
:10519000226012962C9320E321832683908B8683B2
:1051A000358383E08183E0E0F8E083E1818321E0DF
:1051B00030E026A337A320A731A7E0E8F8E0148663
:1051C0008083E0E2F3E01382118288E0828391E140
:1051D0009083A091AD2FB091AE2F1A962D913C9156
:1051E0001B97208F318FE0E8F3E09CE3928380836C
:1051F00093838183DF91CF91A5CDA0E2B6E01A968B
:105200001C921A97E6EBFCE210821182E0E0F9E0D2
:1052100010821382178280E18487E0E0FAE0108236
:105220001382168281E08487E0E4F8E01082118224
:1052300016968C938E980895CF93DF938091B62C19
:10524000882309F47EC01092B62CC6B1D7B1C730FE
:10525000D10508F471C0AE01495F5F4F93E05695E8
:1052600047959A95E1F7E091AA2FF091AB2F6FE067
:1052700072E380E41995E091AD2FF091AE2F878114
:10528000883019F483E18093932C8681883019F457
:1052900083E18093922CE0919F2FF091A02FBE018B
:1052A0008FE092E31995EC0194FF06C0DF7E8FE852
:1052B00092E38AB99BB902C01AB81BB82097E1F1F2
:1052C000AE01495F5F4F83E0569547958A95E1F7B8
:1052D000E091AA2FF091AB2F6FE072E381E4199572
:1052E000E091AD2FF091AE2F8781893019F483E1E1
:1052F0008093932C8681893019F483E18093922CDA
:10530000C6B9D7B98FE092E388B999B9109260080D
:10531000109261088FE090E0809366089093670890
:1053200088E090E080936A0890936B0883E2809312
:10533000410883E081B905C01092000A1092060A64
:1053400001DD8091B72C882329F01092B72CDF91D2
:10535000CF91F8CCDF91CF910895E0E0F9E080E4BF
:1053600084871782E0E8F3E082E0878389EB81831A
:105370008FE092E38AB99BB981E090E084B995B956
:1053800016B88EB19FB12091080430910904822B88
:10539000932B8093B92C9093BA2C81E08093BD2CF1
:1053A00018B817B81092B82C88E080938706089533
:1053B000CF93DF93E0E4F6E0128A84E08283C0E8D2
:1053C000D1E082E68E83A0E2B6E081E016968C936F
:1053D000169711968C93119796E012969C931297BC
:1053E00051968C93519732E052963C9352971A966D
:1053F0001C921A971B961C921B979FE019969C93E0
:10540000199799E598832AE529839A8390E49183F3
:105410009683C0EBD0E02A81207F2A832A812260F4
:105420002A8320E321832683908B8683358393E030
:105430009183E0E0F8E093E1918321E030E026A35E
:1054400037A320A731A7E0E8F8E014869083E0E2D4
:10545000F3E01382118298E0928321E12083C091CE
:10546000AD2FD091AE2F2A853B85208F318FE0E87C
:10547000F3E02CE322839083238391832DEA39E2A6
:1054800020938B2E30938C2E15968C93E0E0F9E0D0
:105490002FEF30E026A337A312A613A614A615A655
:1054A00010821682178280831092000A1092B82C04
:1054B000EBEBFCE2108212821182DF91CF91089512
:1054C00081E080932606C2DBE0E0F9E010821782DB
:1054D000E0E0FAE010821782EBEBFCE2118212822C
:1054E000108208951F920F920FB60F92112408B6E2
:1054F0000F9218BE09B60F9219BE0BB60F921BBEC3
:105500002F933F934F935F936F937F938F939F93CB
:10551000AF93BF93EF93FF93E0918B2EF0918C2E7E
:105520001995FF91EF91BF91AF919F918F917F91CD
:105530006F915F914F913F912F910F900BBE0F9004
:1055400009BE0F9008BE0F900FBE0F901F901895C8
:10555000E0E0F9E08FEF94E086A397A380E68487EC
:1055600080E387838FEF90E086AB97AB88E08093F2
:10557000870608951F920F920FB60F92112408B656
:105580000F9218BE0BB60F921BBE2F933F934F93F3
:105590005F938F939F93EF93FF931092070A10925C
:1055A000000A1092470910924009809181038E7F72
:1055B0008093810384B195B180FF1AC0379B03C0EB
:1055C00086B1869503C086B18695806886B984B118
:1055D00095B1019684B995B987709927892B41F4C3
:1055E000EAB1FBB1CF0101968AB99BB986B180833C
:1055F00084B195B187709927892BC9F0E4B1F5B1D1
:1056000086B144B155B193E0F695E7959A95E1F7E7
:10561000E15FFD4C90E04770552728E030E0241B07
:10562000350B02C0959587952A95E2F7808381E036
:105630008093BC2C1092BD2C8FEF9FEF8093260A95
:105640009093270A1092200A1092210A1092060ABB
:105650001092070A1092030A84E08093000A83E004
:105660008093B82CFF91EF919F918F915F914F9113
:105670003F912F910F900BBE0F9008BE0F900FBE61
:105680000F901F9018951F920F920FB60F92112432
:1056900008B60F9218BE0BB60F921BBE8F93EF93F6
:1056A000FF93E0E8F3E081818F7C8183E0E0FAE022
:1056B00088E8838381E08083FF91EF918F910F9041
:1056C0000BBE0F9008BE0F900FBE0F901F90189545
:1056D0001F920F920FB60F92112408B60F9218BEA8
:1056E0000BB60F921BBE8F939F93EF93FF93809106
:1056F0006009109260091092610993E0909340094B
:10570000813520F4813308F472C01BC08137E8F47E
:1057100084B195B180FF2EC086B18695806886B928
:1057200084B195B1019684B995B987709927892B71
:1057300041F4EAB1FBB1CF0101968AB99BB986B1B8
:10574000808386B1869580682CC086B186958068F6
:1057500086B984B195B1019684B995B987709927B6
:10576000892B41F4EAB1FBB1CF0101968AB99BB90B
:1057700086B1808386B18695806886B984B195B1FB
:10578000019684B995B987709927892B41F4EAB1BC
:10579000FBB1CF0101968AB99BB986B1808386B1EE
:1057A000869586B984B195B1019684B995B987700B
:1057B0009927892B41F4EAB1FBB1CF0101968AB94F
:1057C0009BB986B1808386B1869586B984B195B13F
:1057D000019684B995B987709927892B41F4EAB16C
:1057E000FBB1CF0101968AB99BB986B18083FF9145
:1057F000EF919F918F910F900BBE0F9008BE0F906D
:105800000FBE0F901F9018950F931F93CF93DF93A8
:10581000CDB7DEB7DA95CDBFDEBF8091BD2C882332
:1058200009F483C08EB19FB14091080450910904DE
:105830002091B92C3091BA2C842B952B821B930B81
:1058400020911E2030911F202F5F3F4F28173907CE
:1058500008F06BC01092070A1092000A10924709D4
:1058600010924009809181038E7F8093810384B1DF
:1058700095B180FF1AC0379B03C086B1869503C0DF
:1058800086B18695806886B984B195B1019684B950
:1058900095B987709927892B41F4EAB1FBB1CF0103
:1058A00001968AB99BB986B1808384B195B187701E
:1058B0009927892BC9F0E4B1F5B186B144B155B14E
:1058C00013E0F695E7951A95E1F7E15FFD4C90E05E
:1058D0004770552728E030E0241B350B02C0959512
:1058E00087952A95E2F7808381E08093BC2C109203
:1058F000BD2C2FEF3FEF2093260A3093270A1092FA
:10590000200A1092210A1092060A1092070A109299
:10591000030A94E09093000A93E09093B82C14B893
:1059200015B88093BC2C1092BD2CBDD981116FC2CB
:1059300096D9882309F46BC28091BD2C811167C26E
:105940008091BB2C811105C08091BC2C882309F467
:105950005EC28091B82C833041F48091200A9091EE
:10596000210A8532914008F452C28091BC2C8823D0
:1059700009F4A2C084B195B1892B09F49DC084B10A
:1059800095B1089718F414B815B896C044B155B13C
:10599000495F5F4FB3E056954795BA95E1F76FE0E1
:1059A00072E3CE0101960E9460708FE092E38AB9A3
:1059B0009BB944B155B114B815B8898186958695BF
:1059C000898322E030E024173507B0F5F901A3E020
:1059D000F695E795AA95E1F781E090E08C0F9D1F81
:1059E000E80FF91F8081982F969596959083837084
:1059F000813049F030F08230D1F486B186958068EC
:105A000004C081E015C086B1869586B984B195B190
:105A1000019684B995B987709927892B41F4EAB129
:105A2000FBB1CF0101968AB99BB986B1808380E032
:105A30002E5F3F4F882339F284B195B18770992743
:105A4000892BC9F0E4B1F5B186B144B155B173E029
:105A5000F695E7957A95E1F7E15FFD4C90E04770A8
:105A6000552728E030E0241B350B02C0959587951B
:105A70002A95E2F78083E091AD2FF091AE2F8781D8
:105A8000883019F483E18093932C8681883019F44F
:105A900083E18093922C44B155B1495F5F4F63E03D
:105AA000569547956A95E1F7E091AA2FF091AB2FB3
:105AB0006FE072E382E419951092BB2C1092BC2C1B
:105AC00064B175B1E0919F2FF091A02F8FE092E328
:105AD000199584B995B984B195B1892B09F497C109
