:100000000C94580B0C947D0B0C947D0B0C947D0B75
:100010000C947D0B0C947D0B0C947D0B0C947D0B40
:100020000C947D0B0C947D0B0C94AC0C0C947D0B00
:100030000C947D0B0C947D0B0C947D0B0C947D0B20
:100040000C947D0B0C947D0B0C947D0B0C947D0B10
:100050000C947D0B0C947D0B0C947D0B0C947D0B00
:100060000C947D0B0C947D0B0C947D0B0C947D0BF0
:100070000C947D0B0C947D0B0C947D0B0C947D0BE0
:100080000C947D0B0C947D0B0C947A230C947D0BBB
:100090000C947D0B0C947D0B0C947D0B0C947D0BC0
:1000A0000C947D0B0C947D0B0C947D0B0C947D0BB0
:1000B0000C947D0B0C947D0B0C947D0B0C944A24BA
:1000C0000C947D0B0C940C280C947D0B0C947D0BE4
:1000D0000C947D0B0C947D0B0C947D0B0C947D0B80
:1000E0000C947D0B0C947D0B0C947D0B0C947D0B70
:1000F0000C947D0B0C947D0B0C947D0B0C947D0B60
:100100000C947D0B0C947D0B0C947D0B0C947D0B4F
:100110000C947D0B0C94E7270C947D0B0C947D0BB9
:100120000C947D0B0C947D0B0C947D0B0C947D0B2F
:100130000C947D0B0C947D0B0C947D0B0C94B223D2
:100140000C94B2260C947D0B0C947D0B0C947D0BBF
:100150000C947D0B0C947C270C947D0B0C947D0BE4
:100160000C947D0B0C947D0B0C947D0B0C947D0BEF
:100170000C947D0B0C947D0B0C947D0B0C947D0BDF
:100180000C947D0B0C947D0B0C947D0B0C947D0BCF
:100190000C947D0B0C947D0B0C947D0B0C947D0BBF
:1001A0000C947D0B0C947D0B0C947D0B0C947D0BAF
:1001B0000C947D0B0C947D0B0C947D0B0C947D0B9F
:1001C0000C947D0B0C947D0B0C947D0B0C947D0B8F
:1001D0000C947D0B0C947D0B0C947D0B0C947D0B7F
:1001E0000C947D0B0C947D0B0C947D0B0C947D0B6F
:1001F0000C947D0B0C94E9520C947D0B1E03430070
:10020000680061006D0065006C0065006F006E00A5
:100210002D004D0069006E00690000002A034B00AC
:10022000610073007000650072002000260020004D
:100230004F007300770061006C00640020004700ED
:100240006D006200480000000403090409023E003A
:10025000020100C03209040000010202010005246D
:10026000001001042402060524060001070582038C
:100270000800FF09040100020A000000070504024B
:10028000100005070583021000051201100102008D
:100290000008D016B20401000102DC01560D570D12
:1002A000580D590D5A0D5B0D5C0D5D0D600D610D06
:1002B000000000010B2577259625BC2AC22AC62AF4
:1002C0005C0DC72A872C9A2C400007000B25772548
:1002D0009625DA2C072D0B2D5C0D0C2D03341F34C5
:1002E000000404000B2577259625E92C072D0B2DFE
:1002F0005C0D0C2D03341F34000407000B257725FB
:100300009625F82C072D0B2D5C0D0C2D03341F3476
:10031000001004000B2577259625F82C072D0B2DB2
:100320005C0D0C2D03341F34001007000B257725BE
:100330009625590D5A0D5B0D5C0D5D0D600D610D1F
:10034000000000012726A026DF2838433B4348430E
:1003500049436E43600D610D00000000004E4F4E9A
:100360004500000000000000000000000000000048
:1003700000000000000000000000000000014D46E9
:100380005F554C5452414C4947485400000000000E
:100390000000000000000000000000000000024D0E
:1003A000465F434C41535349435F314B00000000CB
:1003B000000000000000000000000000000000033A
:1003C0004D465F434C41535349435F314B5F374286
:1003D000000000000000000000000000000000001D
:1003E000044D465F434C41535349435F344B000037
:1003F00000000000000000000000000000000000FD
:1004000000054D465F434C41535349435F344B5FB6
:100410003742000000000000000000000000000063
:1004200000000649534F3134343433415F534E4951
:100430004646000000000000000000000000000030
:100440000000000749534F3134343433415F524583
:100450004144455200000000000000000000000080
:100460000000000001000001000101000001010086
:100470000100000100010100010000010100000174
:100480000001010000010100010000010100000164
:100490000001010001000001000101000001010054
:1004A0000100000100010100010000010100000144
:1004B0000001010001000001000101000001010034
:1004C0000100000101000001000101000001010024
:1004D0000100000100010100010000010100000114
:1004E0000001010000010100010000010100000104
:1004F00000010100010000010001010000010100F4
:1005000001000001010000010001010000010100E3
:1005100001000001000101000100000101000001D3
:1005200000010100010000010001010000010100C3
:1005300001000001000101000100000101000001B3
:1005400000010100000101000100000101000001A3
:100550000001010001000001000101000001010093
:1005600001000001008040C020A060E0109050D049
:1005700030B070F0088848C828A868E8189858D89B
:1005800038B878F8048444C424A464E4149454D49B
:1005900034B474F40C8C4CCC2CAC6CEC1C9C5CDC3B
:1005A0003CBC7CFC028242C222A262E2129252D283
:1005B00032B272F20A8A4ACA2AAA6AEA1A9A5ADA3B
:1005C0003ABA7AFA068646C626A666E6169656D63B
:1005D00036B676F60E8E4ECE2EAE6EEE1E9E5EDEDB
:1005E0003EBE7EFE018141C121A161E1119151D147
:1005F00031B171F1098949C929A969E9199959D90B
:1006000039B979F9058545C525A565E5159555D50A
:1006100035B575F50D8D4DCD2DAD6DED1D9D5DDDAA
:100620003DBD7DFD038343C323A363E3139353D3F2
:1006300033B373F30B8B4BCB2BAB6BEB1B9B5BDBAA
:100640003BBB7BFB078747C727A767E7179757D7AA
:1006500037B777F70F8F4FCF2FAF6FEF1F9F5FDF4A
:100660003FBF7FFF004E4F4E4500000000000000DE
:10067000000000000000000000000000000000007A
:100680000000000000015549445F52414E444F4D67
:10069000000000000000000000000000000000005A
:1006A000000000000000025549445F4C4546545F7D
:1006B000494E4352454D454E540000000000000095
:1006C00000000000000000035549445F52494748BC
:1006D000545F494E4352454D454E540000000000C2
:1006E0000000000000000000045549445F4C4546EE
:1006F000545F44454352454D454E540000000000B0
:10070000000000000000000000055549445F524908
:100710004748545F44454352454D454E5400000000
:1007200000000000000000000000064359434C4553
:100730005F53455454494E475300000000000000E9
:1007400000000000000000000000000753544F525A
:10075000455F4D454D000000000000000000000016
:1007600000000000000000000000000008524543A7
:10077000414C4C5F4D454D00000000000000000062
:100780000000000000000000000000000009544FBD
:1007900047474C455F4649454C4400000000000077
:1007A00000000000000000000000000000000A53EC
:1007B000544F52455F4C4F470000000000000000BE
:1007C0000000000000000000000000000000000029
:1007D0004F4646000000000000000000000000003E
:1007E0000000000000000000000000000000000009
:1007F000014D454D4F52590000000000000000001F
:1008000000000000000000000000000000000000E8
:1008100000024C49564500000000000000000000A6
:1008200000000000000000000000000000000000C8
:100830000000004E4F4E4500000000000000000088
:1008400000000000000000000000000000000000A8
:1008500000000001504F5745524544000000000081
:100860000000000000000000000000000000000088
:1008700000000000025445524D494E414C5F434F29
:100880004E4E0000000000000000000000000000CC
:100890000000000000035445524D494E414C5F5248
:1008A0005854580000000000000000000000000044
:1008B0000000000000000453455454494E475F4374
:1008C00048414E47450000000000000000000000C5
:1008D00000000000000000054D454D4F52595F5388
:1008E000544F52454400000000000000000000008A
:1008F0000000000000000000064D454D4F52595FBA
:100900004348414E474544000000000000000000FD
:1009100000000000000000000008434F4445435F12
:10092000525800000000000000000000000000001D
:100930000000000000000000000009434F44454350
:100940005F5458000000000000000000000000009C
:100950000000000000000000000000074649454C70
:10096000445F4445544543544544000000000000A2
:100970000000000000000000000000000A4C4F478B
:100980004D454D5F46554C4C0000000000000000F6
:100990000000000000000000000000000025632CA3
:1009A00025630025356400416E7920696E746567A2
:1009B00065722066726F6D203020746F2025752E51
:1009C000205265666572656E636520766F6C746132
:1009D00067652077696C6C20626520285643432048
:1009E0002A205448524553484F4C44202F2034303D
:1009F000393529206D562E002575002535640030C7
:100A0000203D206E6F2074696D656F75740D0A311D
:100A10002D363030203D20313030206D73202D2098
:100A20003630303030206D732074696D656F7574A9
:100A3000002575206D730025342E3458002535753A
:100A4000206D56002575202866726F6D20776869C5
:100A50006368202575206E6F6E2D766F6C617469EA
:100A60006C65290025750025750025632C2563001C
:100A700052414E444F4D004E4F205549442E0043A5
:100A800068616D656C656F6E4D696E692052657643
:100A900047202553207573696E67204C55464120C9
:100AA000255320636F6D70696C6564207769746885
:100AB000204156522D4743432025532E2042617337
:100AC0006564206F6E20746865206F70656E2D738D
:100AD0006F75726365204E464320746F6F6C2043C0
:100AE00068616D656C656F6E4D696E692E20687406
:100AF0007470733A2F2F6769746875622E636F6D17
:100B00002F656D7365632F4368616D656C656F6EEE
:100B10004D696E6920636F6D6D69742025530031D6
:100B200037313130370031353131313500342E39FC
:100B30002E320033336633353235000D0A000D0A8C
:100B4000000D0A000D0A000D0A000D0A0064313084
:100B5000303A4F4B00000000000000000000000091
:100B600000000000000000000000000000006531EF
:100B700030313A4F4B20574954482054455854007F
:100B80000000000000000000000000000000006EF7
:100B90003131303A57414954494E4720464F52204F
:100BA000584D4F44454D000000000000000000007B
:100BB000C83230303A554E4B4E4F574E20434F4D72
:100BC0004D414E4400000000000000000000000005
:100BD00000C93230313A494E56414C494420434FC6
:100BE0004D4D414E44205553414745000000000003
:100BF0000000CA3230323A494E56414C49442050E6
:100C00004152414D45544552000000000000000093
:100C1000000000783132303A46414C534500000024
:100C200000000000000000000000000000000000C4
:100C300000000000793132313A545255450000002D
:100C400000000000000000000000000000000000A4
:100C50000000000000CB3230333A54494D454F5527
:100C60005400000000000000000000000000000030
:100C700000000000000056455253494F4E0000004E
:100C80000000000000000000000000007A19434F3F
:100C90004E46494700000000000000000000000030
:100CA0000000A2199C1955494400000000000000F2
:100CB00000000000000000000000F819B9195245BA
:100CC00041444F4E4C59000000000000000000005D
:100CD0000000561A4A1A55504C4F4144000000007B
:100CE000000000000000831A000000000000444FD4
:100CF000574E4C4F41440000000000000000881A8D
:100D00000000000000005245534554000000000060
:100D10000000000000008D1A000000000000555087
:100D20004752414445000000000000000000981AAE
:100D30000000000000004D454D53495A4500000099
:100D4000000000000000000000000000A31A554948
:100D50004453495A45000000000000000000000014
:100D600000000000BB1A52425554544F4E00000080
:100D700000000000000000000000D81AD11A524202
:100D80005554544F4E5F4C4F4E470000000000003A
:100D90000000F41AED1A4C425554544F4E00000016
:100DA00000000000000000000000101B091B4C4266
:100DB0005554544F4E5F4C4F4E470000000000000A
:100DC00000002C1B251B4C4544475245454E000056
:100DD00000000000000000000000481B411B4C45C3
:100DE00044524544000000000000000000000000E4
:100DF0000000641B5D1B4C4F474D4F4445000000F5
:100E0000000000000000000000007E1B791B4C4F1A
:100E1000474D454D000000000000000000000000AC
:100E200000000000931B4C4F47444F574E4C4F411E
:100E3000440000000000B81B0000000000004C4F00
:100E40004753544F52450000000000000000BD1BF6
:100E50000000000000004C4F47434C454152000049
:100E6000000000000000C01B00000000000053450F
:100E70005454494E470000000000000000000000EC
:100E80000000C81BC31B434C45415200000000003A
:100E9000000000000000D01B0000000000005354C0
:100EA0004F52450000000000000000000000D41B6D
:100EB000000000000000524543414C4C000000007F
:100EC000000000000000D81B0000000000004348A4
:100ED000415247494E47000000000000000000005A
:100EE00000000000DC1B48454C50000000000000E2
:100EF000000000000000E41B00000000000052534E
:100F00005349000000000000000000000000000045
:100F100000000000201C5359535449434B0000006B
:100F2000000000000000000000000000531C5345BA
:100F30004E445F52415700000000000000000000D6
:100F4000F91C0000000053454E4400000000000062
:100F500000000000000000006F1C0000000047457A
:100F60005455494400000000000000000000B51D79
:100F700000000000000044554D505F4D46550000F4
:100F8000000000000000981D00000000000049441F
:100F9000454E544946590000000000000000D21D93
:100FA00000000000000054494D454F55540000001A
:100FB000000000000000000000000F1EEF1D54485C
:100FC000524553484F4C4400000000000000000010
:100FD0000000731E5B1E4155544F43414C49425221
:100FE000415445000000F91E000000000000464981
:100FF000454C44000000000000000000000000001C
:101000000000BF1EE91E00000000000000000000FC
:10101000000000000000000000000000000053413C
:101020004B3A09005549443A0900415451413A09A3
:10103000005468657265206973206174206C656175
:101040007374206F6E65206D6F72652063617264CA
:1010500020747970652063616E6469646174652CC5
:101060002062757420746865726520776173206EE4
:101070006F7420656E6F756768207465726D696E38
:10108000616C206275666665722073706163652E9F
:101090000D0A002D0D0A002B0D0A000400010901A4
:1010A0000000000000000000000000000000000040
:1010B00000004E585000000000000000000000003A
:1010C00000004D4946415245204D696E69000000BF
:1010D0000000000000000000000000000000000010
:1010E0000000000000000000000000000000000000
:1010F00000000000000000000000000000000000F0
:1011000000000400010801000000000000000000D1
:101110000000000000000000004E585000000000D9
:101120000000000000000000004D494641524520EB
:10113000436C617373696320316B00000000000031
:10114000000000000000000000000000000000009F
:10115000000000000000000000000000000000008F
:101160000000000000000000000200011801000063
:10117000000000000000000000000000000000006F
:101180004E58500000000000000000000000000069
:101190004D494641524520436C6173736963203465
:1011A0006B000000000000000000000000000000D4
:1011B000000000000000000000000000000000002F
:1011C000000000000000000000000000000000001F
:1011D00044000100010000000000000000000000C9
:1011E000000000000000004E585000000000000009
:1011F000000000000000004D494641524520556C5A
:101200007472616C6967687400000000000000007F
:1012100000000000000000000000000000000000CE
:1012200000000000000000000000000000000000BE
:1012300000000000000000440301200175778102D6
:1012400080000000000000000000000005004E5873
:1012500050000000000000000000000000004D49A8
:1012600046415245204445534669726500000000DE
:10127000000000000000000000000000000000006E
:10128000000000000000000000000000000000005E
:101290000000000000000000000000000000440307
:1012A000012001757781028000000000000000002D
:1012B00000000005004E5850000000000000000033
:1012C00000000000004D4946415245204445534628
:1012D00069726520455631000000000000000000E2
:1012E00000000000000000000000000000000000FE
:1012F00000000000000000000000000000000000EE
:10130000000000000004030128013877B14A434F70
:1013100050333100000000000000090149424D0037
:101320000000000000000000000000004A434F5091
:101330003331000000000000000000000000000049
:10134000000000000000000000000000000000009D
:10135000000000000000000000000000000000008D
:101360000000000000000000000000004800012014
:10137000017877B1024A434F507632343100000091
:10138000000C0149424D0000000000000000000078
:101390000000004A434F5033312076322E342E3134
:1013A000000000000000000000000000000000003D
:1013B000000000000000000000000000000000002D
:1013C000000000000000000000000000000000001D
:1013D00000000048000120013833B14A434F503427
:1013E00031563232000000000C0149424D0000002D
:1013F000000000000000000000004A434F5034315C
:101400002076322E320000000000000000000000B4
:1014100000000000000000000000000000000000CC
:1014200000000000000000000000000000000000BC
:101430000000000000000000000004000128013846
:1014400033B14A434F503431563233310000000D2E
:101450000149424D000000000000000000000000B3
:10146000004A434F5034312076322E332E31000063
:10147000000000000000000000000000000000006C
:10148000000000000000000000000000000000005C
:10149000000000000000000000000000000000004C
:1014A00000040001880100000000000000000000AE
:1014B0000000000000000000496E66696E656F6EF6
:1014C00000000000000000004D4946415245204305
:1014D0006C617373696320316B00000000000000D1
:1014E00000000000000000000000000000000000FC
:1014F00000000000000000000000000000000000EC
:10150000000000000000000002000198010000003F
:101510000000000000000000000000000000004784
:10152000656D706C75730000000000000000004DD8
:1015300050434F5300000000000000000000000076
:10154000000000000000000000000000000000009B
:10155000000000000000000000000000000000008B
:10156000000000000000000000000000000000007B
:101570000C0100000000000000000000000000005E
:10158000000000000000496E6E6F766973696F6E2F
:101590002052265400004A6577656C000000000068
:1015A000000000000000000000000000000000003B
:1015B000000000000000000000000000000000002B
:1015C000000000000000000000000000000000001B
:1015D00000000000000002000138010000000000CF
:1015E000000000000000000000000000004E6F6BD3
:1015F000696100000000000000000000004D494645
:1016000041524520436C617373696320346B202D14
:1016100020656D756C617465642028363231322026
:10162000436C6173736963290000000000000000CF
:1016300000000000000000000000000000080001A1
:101640003801000000000000000000000000000061
:10165000000000004E6F6B69610000000000000098
:10166000000000004D494641524520436C617373B0
:10167000696320346B202D20656D756C6174656421
:10168000202836313331204E464329000000000027
:10169000000000000000000000000000000000004A
:1016A000000000006364696E6F70737578585B00AA
:1016B00011241FBECFEFCDBFDFE3DEBF00E00CBFC4
:1016C00018BE19BE1ABE1BBE14E2A0E0B0E2E0EFE5
:1016D000F9EB00E00BBF02C007900D92A631B107F5
:1016E000D9F71BBE25E3A6E1B4E201C01D92A734E1
:1016F000B207E1F73BD00C94F65C25C13BB78BBF3A
:10170000FB01879196913BBF08953BB78BBFCB01FF
:1017100042E20D94F00F3BB70B0143E20D94F00F42
:101720003BB78BBFCB0145E20D94F00F3BB746E2D0
:1017300008C02091CF0127FDFCCF22272093CA01AA
:1017400008954093CA0128ED31E02093340030938E
:10175000CB016091C4017091C5018091C6019927A8
:101760000895FC014093CA01849108950ED10E940E
:10177000A2160E943317C2D21092520684E08093C0
:10178000420682E680938601C1E0C0932606C0939C
:10179000210686E080932206C093310602E0009382
:1017A000320610922A0613E01093290689E58093E9
:1017B00080018AE58093810180E4809341068093D3
:1017C00046069091B200907F9093B2009091B20043
:1017D00092609093B20090E39093410690934606F6
:1017E00080935006C0934606009345061093410629
:1017F00083E18093010821E030E0209326083093B4
:101800002708209328083093290810928C08809389
:1018100080081092230310922103D8E0D093220372
:1018200081E18093200380911E2090911F2080935E
:101830003803909339038CE380938203D093800321
:1018400080938303D09381036FD10E94DE18C0D1AF
:101850003FD7C0930002109201020093020210933E
:101860000402C0932002D09321020E942D1519D1A9
:10187000D2E0C1E18091030481FF25C08091010481
:1018800080FDFCCFD09303040E943717B6D10E948D
:10189000101926D70E949D16E091592EF0915A2ECC
:1018A00019950E94ED210E947B18E091682EF0911D
:1018B000692E8781813011F4C0931F2C868181307D
:1018C00011F4C0931E2C0E94E218C8D7E091572E45
:1018D000F091582E1995E091512EF091522E1995B4
:1018E000C9CF292F33272230310559F02330310554
:1018F00069F021303105F9F482E190E02AE832E024
:101900001EC08EE390E02CE432E019C099278130AC
:10191000910541F08230910541F0892B61F4E8E4B2
:10192000F2E005C0ECE1F2E002C0ECEFF1E08491FE
:1019300090E09F0104C080E090E020E030E0FA01F8
:101940002083318308951F920F920FB60F921124B6
:1019500008B60F9218BEFFCF1F920F920FB60F92CC
:10196000112408B60F9218BE8F939F938EB19FB12A
:1019700080589F4F8EB99FB99F918F910F9008BE4D
:101980000F900FBE0F901F9018958091780083FFE5
:101990000AC088E08093780088ED84BF81E080935E
:1019A00080000D94FE008BEC8093520080915000DB
:1019B0008860809350008091510083FFFCCF82ECBF
:1019C00080935500809150008061809350008091F9
:1019D000510084FFFCCF88ED84BF84E080934000F9
:1019E0001EB81FB881E0809343002FE730E02093BA
:1019F0000A0430930B0420930C0430930D0480935D
:101A000000048093020480E880930001089588ED2B
:101A100084BF81E080937900089588ED84BF8BE1D5
:101A200080938000089580915000826080935000E0
:101A30008091510081FFFCCF82E08093CA01EDE1EB
:101A4000F0E0E491E0936200ECE1F0E0E491E093F7
:101A500063001092CA0180E8809365008BEB80934D
:101A6000660080915600897F8093560080915600D1
:101A70008460809356008091600081608093600054
:101A80000895E0E4F0E084818E7F8483E0E6F0E076
:101A900080818E7F8083E0E5F0E080818D7F808390
:101AA000089587E08093A20078940895089508959A
:101AB0000895089508950895089580E090E00895A8
:101AC000089508950F931F93CF93DF931F92CDB77F
:101AD000DEB70DE41EE2D8011296ED91FC9113974A
:101AE000898319950E942522E091682EF091692E34
:101AF00089818583B8E18B9FB001112464567D4FA5
:101B000048E150E0C8010E94CE55D801ED91FC910A
:101B10001995D8011696ED91FC9117970F90DF91CA
:101B2000CF911F910F91199448E150E06CE972E058
:101B30008DE49EE20E94CE55E091682EF091692ED0
:101B40008581C0CF0F931F93E091682EF091692E8D
:101B50008B019C01458168E08CE593E00E94181898
:101B60001F910F910895FF920F931F93CF93DF93CF
:101B70001F92CDB7DEB78C019E012F5F3F4FAC01A6
:101B800068E08CE593E00E943018F82E882389F0F5
:101B9000898198DFF80140E08191882319F04F5F37
:101BA0004F31D1F7E091652EF091662EB80181E1B9
:101BB00019958F2D0F90DF91CF911F910F91FF906D
:101BC00008959B01AC0168E08CE593E00C945718F4
:101BD00008950C94C05508951F93CF93DF93C82F99
:101BE000D92F162F180F1C1721F00E94C05589936A
:101BF000FACFDF91CF911F9108950E94C0550E94A6
:101C0000C0550E94C0550C94C055EF92FF920F939F
:101C10001F93CF93DF937C0161507109FA018A0110
:101C2000020F131FDC0140E050E0E017F107F1F074
:101C300062307105D8F09191392F32953F703A306A
:101C400010F4305D01C0395C3C939F709A3010F401
:101C5000905D01C0995C9701240F351FE9019983BC
:101C60001296625071094E5F5F4FDFCF1C92CA011E
:101C7000DF91CF911F910F91FF90EF900895CF9337
:101C8000DF93EC01DA01E0E0F0E04C91442391F1C4
:101C900011969C911197992339F1E617F70721F1D5
:101CA00080ED840F8A3020F08FEB840F8630D0F4E3
:101CB00080ED890F8A3020F02FEB290F263090F429
:101CC000242F30E0413410F0275331092295207F32
:101CD000913410F4982F01C09753292B29933196F2
:101CE0001296D3CF80E004C011968C91811102C06E
:101CF00090E001C0CF01DF91CF910895E0E6F6E0DA
:101D000080E1858382E0868388E085838AE1818320
:101D1000E0EAF9E01682178280EC858388E184830B
:101D2000E0E0F1E0128A8BE6838B148A158A20EAC0
:101D3000208F99E0918F128E148E158E168E84E06E
:101D4000808B12A23CE633A314A215A210A611A602
:101D500012A624A795A716A680A30895411551059C
:101D600009F449C020E12093660623E02093A009EE
:101D70002091A10927FFFCCF2091A0097093A00911
:101D80002091A10927FFFCCF2091A0096093A00911
:101D90002091A10927FFFCCF2091A00921E02093E9
:101DA000120180931C0190931D01409314015093E4
:101DB00015011092220186E194E28093280190930C
:101DC00029014093240150932501809110018068DE
:101DD0008093100180912001806880932001809180
:101DE000100187FDFCCF80E38093110180932101D6
:101DF00080E18093650608954115510509F469C095
:101E000020E12093660626E02093A0092091A109F5
:101E100027FFFCCF2091A00920E120936506000058
:101E200000002093660622E02093A0092091A109DA
:101E300027FFFCCF2091A0097093A0092091A10950
:101E400027FFFCCF2091A0096093A0092091A10950
:101E500027FFFCCF2091A0091092120126E134E265
:101E600020931C0130931D014093140150931501E0
:101E700020E120932201809328019093290140932F
:101E800024015093250180911001806880931001F6
:101E9000809120018068809320018091100187FD4E
:101EA000FCCF80E3809311018093210180E1809336
:101EB0006506E091682EF091692E8781863019F4CD
:101EC00081E180931F2C8681863019F481E1809313
:101ED0001E2C0895CF92DF92EF92FF92CF93DF9363
:101EE000C090672ED12CE12CF12C8DE0CC0CDD1CA8
:101EF000EE1CFF1C8A95D1F7C114D10481E0E806DD
:101F0000F10408F04EC080E18093660686E080937D
:101F1000A0098091A10987FFFCCF8091A00980E1F1
:101F200080936506000000008093660682E080933F
:101F3000A0098091A10987FFFCCF8091A009109290
:101F4000A0098091A10987FFFCCF8091A009109280
:101F5000A0098091A10987FFFCCF8FEFE81AF80A4A
:101F60008091A009C0E0D0E1C701B601C7DB809332
:101F7000A0098091A10987FFFCCF8091A0099093CF
:101F8000A0098091A10987FFFCCF8091A00982E080
:101F9000C80ED11CE11CF11C219731F780E1809320
:101FA00065068091010480FDFCCF82E080930304EC
:101FB000DF91CF91FF90EF90DF90CF900895CF9277
:101FC000DF92EF92FF92CF93DF93C090672ED12CD8
:101FD000E12CF12C8DE0CC0CDD1CEE1CFF1C8A9555
:101FE000D1F7C114D10481E0E806F10438F0DF91A3
:101FF000CF91FF90EF90DF90CF906CCF8FEFE81AEA
:10200000F80AC1E2D0E0219791F393DBC701B60152
:102010007CDB8FDB8FEFD81AE80AF80AF4CFCF9277
:10202000DF92EF92FF920F931F93CF93DF93C090B5
:10203000672ED12CE12CF12C8DE0CC0CDD1CEE1C9C
:10204000FF1C8A95D1F7C114D10481E0E806F104A0
:1020500008F04FC080E18093660683E08093A0097A
:102060008091A10987FFFCCF8091A0091092A0095F
:102070008091A10987FFFCCF8091A0091092A0094F
:102080008091A10987FFFCCF8FEFE81AF80A8091B1
:10209000A009C1E2D0E0219749F14BDB47DB49DBE6
:1020A00000E010E01092A0098091A10987FFFCCF09
:1020B0006091A00970E01092A0098091A10987FFAA
:1020C000FCCF8091A009782BC80125DB32DB0E5FA5
:1020D0001F4F011581E0180729F7C701B60120DB62
:1020E00028DB8FEFD81AE80AF80AD5CF80E1809371
:1020F0006506E091682EF091692E8781863019F48B
:1021000090E190931F2C9681963049F420E1209322
:102110001E2C853059F483E180931F2C02C085303A
:10212000D1F3953019F483E180931E2C8091010442
:1021300080FDFCCF82E080930304DF91CF911F915B
:102140000F91FF90EF90DF90CF900895CF92DF92A4
:10215000EF92FF920F931F934115E0E25E07610536
:10216000710508F06BC06901E12CF12C00E010E270
:1021700020E030E0041B150B260B370BC016D106F0
:10218000E206F30610F49701860120E1209366062B
:1021900026E02093A0092091A10927FFFCCF2091E0
:1021A000A00920E120936506000000002093660648
:1021B00022E02093A0092091A10927FFFCCF2091C4
:1021C000A0095093A0092091A10927FFFCCF2091DD
:1021D000A0094093A0092091A10927FFFCCF2091DD
:1021E000A0091092120126E134E220931C013093E1
:1021F0001D01009314011093150120E12093220189
:1022000080932801909329010093240110932501C4
:102210008091100180688093100180912001806876
:10222000809320018091100187FDFCCF80E3809393
:1022300011018093210180E18093650681E01F9167
:102240000F91FF90EF90DF90CF900895CF92DF92A3
:10225000EF92FF920F931F934115E0E25E07610535
:10226000710508F05DC06901E12CF12C00E010E27D
:1022700020E030E0041B150B260B370BC016D106EF
:10228000E206F30610F49701860120E1209366062A
:1022900023E02093A0092091A10927FFFCCF2091E2
:1022A000A0095093A0092091A10927FFFCCF2091FC
:1022B000A0094093A0092091A10927FFFCCF2091FC
:1022C000A00921E02093120180931C0190931D012D
:1022D00000931401109315011092220186E194E2FB
:1022E00080932801909329010093240110932501E4
:1022F0008091100180688093100180912001806896
:10230000809320018091100187FDFCCF80E38093B2
:1023100011018093210180E18093650681E001C075
:1023200080E01F910F91FF90EF90DF90CF90089584
:102330008091CF0187FDFCCF0895FADF8091CF0116
:1023400081FF0BC086E38093CA01EBECF1E021E052
:1023500030E088ED90E084BF20830895EF92FF92F3
:102360000F931F93CF93DF931F921F92CDB7DEB7CA
:102370007C018A011092C20169837A83D9DF698165
:10238000A62F7A81B72FC701800F911F26E048ED55
:1023900050E061E070E0EBECF1E0E816F90689F05E
:1023A000E092C0013F2D3F713093C1012093CA01DB
:1023B00044BF60833091C4013D933FEFE31AF30AB9
:1023C000ECCFC8010F900F90DF91CF911F910F912B
:1023D000FF90EF9008952F923F924F925F926F92ED
:1023E0007F928F929F92AF92BF92CF92DF92EF92A5
:1023F000FF920F931F93CF93DF9300D0CDB7DEB73B
:102400006A01282F2F711C01221A310829836A833F
:102410007B8393DF8DDF83E38093CA011092C10138
:102420001092C2016A81E62E7B81F72E860185E338
:10243000582E98ED892E912C66246394712C3BECD8
:10244000A32EBB24B39443E3442E29810115110527
:1024500009F12093C001F70181917F018093C401AC
:102460000150110919F02F5F203281F72092C0012D
:10247000832D8F718093C1015092CA01C401F5016F
:1024800084BF608290E2290E311C52DF4092CA0163
:1024900020E0DCCFC6012396CDBFDEBFDF91CF9118
:1024A0001F910F91FF90EF90DF90CF90BF90AF9072
:1024B0009F908F907F906F905F904F903F902F9064
:1024C00008951F93CF93DF93CDB7DEB7A097CDBF0D
:1024D000DEBF853009F4AEC078F4823081F128F493
:1024E000813009F0EEC010E01BC0833009F453C006
:1024F000843009F475C0E5C0883009F4D3C040F4D5
:10250000863009F4CDC0873009F0DBC088DDD9C042
:10251000893009F4C9C08A3009F0D3C080D3D1C052
:102520008091632E181708F0A8C053DBE1E0F0E0BB
:10253000EC0FFD1FE10FF11D80831F5FF1CF11E054
:102540008091632E873009F010E0E0915D2EF091CC
:102550005E2ECE01019619954091632E31E014173D
:1025600008F08BC03323A9F0812F90E0E1E0F0E088
:10257000EC0FFD1FE80FF91F208131E02F3F09F01C
:1025800030E0E1E0F0E0EC0FFD1FE80FF91F2F5FF6
:1025900020831F5FE4CFE0915D2EF0915E2ECE018F
:1025A000019619958091632E41E0815008F465C031
:1025B0004423D9F3282F30E0E1E0F0E0EC0FFD1FD9
:1025C000E20FF31F908141E09F3F09F040E0E1E01E
:1025D000F0E0EC0FFD1FE20FF31F9F5F9083E5CF4C
:1025E00011E08091632E873009F010E0E0915D2EBC
:1025F000F0915E2ECE01019619954091632E31E047
:102600001417D8F53323A1F0812F90E0E1E0F0E03A
:10261000EC0FFD1FE80FF91F208131E0211130E0A0
:10262000E1E0F0E0EC0FFD1FE80FF91F21502083DF
:102630001F5FE6CFE0915D2EF0915E2ECE010196F8
:1026400019958091632E41E08150B8F04423E1F365
:10265000282F30E0E1E0F0E0EC0FFD1FE20FF31F68
:10266000908141E0911140E0E1E0F0E0EC0FFD1FCE
:10267000E20FF31F91509083E7CFE0915F2EF0912E
:10268000602ECE0101961995E091652EF091662E8F
:102690004091632EBE016F5F7F4F83E1199511C09A
:1026A000ACD30FC017DC0DC080910008813021F43D
:1026B00080918C08833019F00E94B12202C00E94E0
:1026C000D622A096CDBFDEBFDF91CF911F91089596
:1026D000E0E0F6E080E6828388E1868B858B0895D2
:1026E000CF93C0910806C095C6FF12C080911824F0
:1026F0008A3050F08A30E1F4E091682EF091692E32
:102700008181DFDE809118248F5F8093182410C0B0
:102710008C2F807669F48091182481508A3030F4AF
:10272000E091682EF091692E8081CBDE1092182402
:10273000C5FF12C0809117248A3050F08A30D9F436
:10274000E091682EF091692E8381BBDE8091172481
:102750008F5F809317240FC0C07669F4809117248F
:1027600081508A3030F4E091682EF091692E828198
:10277000A8DE10921724CF9108959B01AC016BE065
:1027800084E696E094C420E030E090E0F901E80FA0
:10279000F91FE959F14D6383265F3F4F203531051D
:1027A000A9F708950F931F939B01E091682EF09174
:1027B000692EE80FF11D8A0140816BE084E696E006
:1027C00037D41F910F9108950F931F93CF93DF93E9
:1027D0001F92CDB7DEB7082FAB019E012F5F3F4F91
:1027E0006BE084E696E03CD4182F882319F06981C9
:1027F000802FC9DF812F0F90DF91CF911F910F9113
:1028000008950895EF92FF920F931F93CF937B014A
:10281000C42F2EB13FB10091080410910904022B7E
:10282000132B682F83E090E20E94D4536C2F83E037
:1028300090E20E94D453612F83E090E20E94D4532F
:10284000602F83E090E20E94D4536C2F70E0C701A8
:10285000CF911F910F91FF90EF90AAC408953F92DE
:102860004F925F926F927F928F929F92AF92BF92A0
:10287000CF92DF92EF92FF920F931F93CF93DF934C
:102880007C01E901C0900020D090012096012250E7
:102890003843C901A0E0B0E0481759076A077B0731
:1028A00008F05CC0E2E0CE1AE0E4DE0A2A013B0157
:1028B0004C0E5D1E611C711C481659066A067B068B
:1028C00048F0241B350B8E01021B130BE901332446
:1028D000339403C000E010E0312C4601A12CB12C50
:1028E000481559056A057B0510F5CA018E5F9F4B97
:1028F0002A013B014C0E5D1E611C711C48145904D9
:102900006A047B0428F4AE01BC01C70127DA18C0B1
:10291000C41AD50AA601BC01C70120DAAE014C19C0
:102920005D096EE174E2C7018C0D9D1D07C04C1955
:102930005D09BA01625E7B4DAE01C7010E94FC5584
:10294000311002C081E00BC001501109D8F3F80129
:10295000EC0FFD1FEE0DFF1D1082F6CF80E0DF9122
:10296000CF911F910F91FF90EF90DF90CF90BF908C
:10297000AF909F908F907F906F905F904F903F901F
:10298000089520911A2430911B2480E098E0821B46
:10299000930BEEE1F4E29F012E51344228173907E0
:1029A00010F41192F8CF8EE194E280931C2490935E
:1029B0001D2480E098E080931A2490931B2482E0E9
:1029C00090E4809300209093012042E050E060E08A
:1029D00070E480E090E210DAE091682EF091692EC8
:1029E00087818A3019F480E180931F2C86818A3098
:1029F00019F480E180931E2C089580911A249091FF
:102A00001B2490582091002030910120821B930BB1
:102A1000089520E030E0F901E959F14D8783265F00
:102A20003F4F20353105B9F7813049F018F0823039
:102A300059F008951092192481E094E109C080931F
:102A4000192488E895E104C01092192482E094E1E9
:102A50008093652E9093662E08950F931F93CF93C6
:102A6000DF931F92CDB7DEB7E091682EF091692E0B
:102A70008481CFDF8EE194E280931C2490931D2407
:102A800000E018E000931A2410931B2441E050E06A
:102A9000BE016F5F7F4F80E090E060DCE0911C241E
:102AA000F0911D24DF01C8011D920197E9F789818A
:102AB000882341F042E050E060E070E480E090E282
:102AC0004DD917C082E090E48093002090930120BC
:102AD00042E050E060E070E480E090E28DD981E077
:102AE000898341E050E0BE016F5F7F4F80E090E05E
:102AF00072DCE091652EF091662E40E060E070E0BF
:102B00008FEF19950F90DF91CF911F910F9108953D
:102B10000F931F93CF93DF93AEB1BFB1C091080461
:102B2000D091090420911A2430911B24E42FF0E065
:102B30008F010C5F1F4F2017310758F1CA2BDB2B79
:102B4000245031092E1B3F0B20931A2430931B2451
:102B5000A0911C24B0911D248C9311964C93119735
:102B60001296DC931297CD01049680931C249093C7
:102B70001D241396CC93DB01EC01415018F02D91EC
:102B80002993FBCFE80FF91FE0931C24F0931D2439
:102B900012C080E03EDFE091682EF091692E8781BF
:102BA0008A3019F481E180931F2C86818A3019F4D0
:102BB00081E180931E2CDF91CF911F910F91089599
:102BC0001F93CF93DF931F92CDB7DEB79E012F5F88
:102BD0003F4FAC0163E08FEC97E042D2182F88237F
:102BE00011F0898116DF812F0F90DF91CF911F9116
:102BF00008950F931F93E091682EF091692E8B0139
:102C00009C01448163E08FEC97E012D21F910F91F9
:102C100008959B01AC0163E08FEC97E048C2EF920E
:102C2000FF920F931F93CF93DF9380911A2490917B
:102C30001B24811528E0920708F078C0009100203D
:102C400010910120C0E0D0E8C01BD10BE12C28E09E
:102C5000F22EA701481B590BC417D50760F1B80124
:102C60008EE194E2C9D820911A2430911B248091DE
:102C7000002090910120985F821B930B809300208D
:102C800090930120E21AF30AEEE1F4E2CF018E51B3
:102C900094428E159F0510F41192F8CF8EE194E2C4
:102CA00080931C2490931D2480E098E080931A2444
:102CB00090931B242EC02097C9F1AE01B8018EE17C
:102CC00094E29AD8A8015857BE01625E7B4D8EE10E
:102CD00094E20E94055680911C2490911D248C1B27
:102CE0009D0B80931C2490931D2480911A24909115
:102CF0001B248C0F9D1F80931A2490931B2480917A
:102D0000002090910120C80FD91FC0930020D093BC
:102D1000012042E050E060E070E480E090E2DF916A
:102D2000CF911F910F91FF90EF9066C8DF91CF91E7
:102D30001F910F91FF90EF900895809119248111B8
:102D40006ECF089543E550E067E67EE281E090E0D3
:102D500005CB43E550E067E67EE281E090E03BCBC7
:102D6000CF93DF93C7E6DEE2688181E090E00E94C6
:102D7000885C69817A8182E090E0DF91CF910C9448
:102D8000915CCF93DF93CFEFC80FC83080F5D82F79
:102D90000E94252244D9C093672E8AE0C89F9001E3
:102DA0001124C9018659914D8093682E9093692E04
:102DB000F901E959F14D80850E94620DE091682E7C
:102DC000F091692E848125DE85D8CADF8FE18D0FD1
:102DD000E091682EF091692E9781943011F48093E0
:102DE0001F2C9681943029F480931E2C02C080E021
:102DF00001C081E0DF91CF9108958091672E99E025
:102E00004AE0915099F0282F30E02F5F3F4F277014
:102E10003327822F429FF001439FF00D1124E9597F
:102E2000F14D2085222369F38F5FABCF0895FC011C
:102E30009091672E9F5C908311820895CF93FC013F
:102E4000C081818181110CC0BF01E091652EF0919C
:102E5000662E41E082E1199580ED8C0FCF9191CFE4
:102E600080E0CF91089588E18093010608958091D4
:102E70001E2C823191F030F48031B9F050F4882367
:102E8000A9F132C0833169F090EE980F983088F044
:102E90002BC088E08093050627C088E08093070652
:102EA00023C08091040683FF12C088E08093060649
:102EB0001BC09091202C9F5F913019F09093202C93
:102EC00015C01092202C9091040693FD04C088E058
:102ED000809305060BC098E090930606803221F09F
:102EE000815080931E2C02C010921E2C80911F2CAA
:102EF000823191F030F48031C1F050F48823A9F18F
:102F000032C0833169F090EE980F983088F02BC072
:102F100080E18093050627C080E18093070623C0E7
:102F20008091040684FF12C080E1809306061BC0D6
:102F30009091212C9F5F913019F09093212C08954E
:102F40001092212C9091040694FD04C080E180939E
:102F50000506089590E190930606803221F0815095
:102F600080931F2C089510921F2C08959B01AC0193
:102F70006BE082E398E09BC020E030E0982F9071F6
:102F80008870992321F0F901E959F14D628788236E
:102F900021F0F901E959F14D6187265F3F4F203556
:102FA000310579F7992329F090E190930606109264
:102FB0001F2C882329F088E08093060610921E2C8F
:102FC00008950F931F939B018A01803131F4E091A2
:102FD000682EF091692E478107C0883049F4E0914E
:102FE000682EF091692E46816BE082E398E020D054
:102FF0001F910F9108950F931F93CF93DF931F920B
:10300000CDB7DEB7082FAB019E012F5F3F4F6BE0BE
:1030100082E398E025D0182F882319F06981802F4A
:10302000ABDF812F0F90DF91CF911F910F9108950A
:103030000F931F93FC01662379F0949161509413D0
:1030400009C0BF016F5F7F4FA801C9010E94E05511
:1030500081E003C0B196EFCF80E01F910F910895FA
:10306000CF92DF92EF92FF921F93CF93DF93EC0109
:103070007A016901162F112389F0BE016F5F7F4F1E
:10308000C7010E94D7551150892B31F4FE01C4911C
:10309000F601C08381E003C0A196EDCF80E0DF910F
:1030A000CF911F91FF90EF90DF90CF900895CF9335
:1030B0000196CCE26623C9F0FC01DA01AD017491FE
:1030C000772341F021153105A1F07D9331962150F0
:1030D0003109F4CF623030F02115310551F04F5FE6
:1030E0005F4FCC9361508196E5CF232B11F0FA010D
:1030F0001082CF91089580912002806880932002F1
:103100008091230280FFFCCF81E080932302A09175
:103110001002B0911102AE5BB109B7FF02C0A0E08E
:10312000B0E020E038EB4BE050E00E945A55E091CF
:10313000682EF091692E61157105844F9140A8F4B5
:103140008781873019F480E180931F2C8681873036
:1031500019F480E180931E2C8091632E882389F0DE
:10316000E091552EF091562E19948781873019F4ED
:1031700081E180931F2C8681873019F481E180934F
:103180001E2C0895BC0183E090E20C948653CF93EB
:10319000DF93FC016491EC012196662331F083E01A
:1031A00090E20E94D453CE01F4CFDF91CF910895E5
:1031B000AB01BC0183E090E20C94B05380E28093B9
:1031C00062060895CF93DF938091222C823029F5F7
:1031D00083E090E20E9439540E94084F83E090E21D
:1031E0000E945554EC0197FD18C0E091682EF091B3
:1031F000692E8781833019F483E180931F2C8681A7
:10320000833019F483E180931E2C8C2F40D68111DA
:1032100004C08C2FDF91CF91DEC7DF91CF9108954D
:103220008091222C813079F028F08230D9F08330DF
:1032300011F12EC08091680685FF2AC08FE080932F
:10324000022081E00CC080910220815080930220F6
:1032500081111EC00E94130D0E94B35282E0809320
:10326000222C16C08091680685FD12C08FE08093E5
:10327000022083E0F4CF80910220815080930220CD
:10328000811106C00E9478520E94410D1092222C9A
:103290008091222C823019F44AD70C94ED210895A4
:1032A000E091682EF091692E8781823019F481E1D6
:1032B00080931F2C8681823019F481E180931E2C2B
:1032C0000895E091682EF091692E8781823019F47B
:1032D00080E180931F2C8681823019F480E18093F5
:1032E0001E2C089583E090E20C94615383E090E2F9
:1032F0000C94A85423E33BE03F932F932DE23BE053
:103300003F932F9326E23BE03F932F932FE13BE047
:103310003F932F932FE73AE03F932F9322E02F9391
:103320001F929F938F930E9465568DB79EB70E96FE
:103330008DBF9EBF85E6089560E072E00E94A20DF9
:1033400085E60895FB0120812F3349F42181211165
:1033500006C060E072E00E94E10D85E60895CB01B1
:103360000E94B30D882319F0F4DC84E608958AECFA
:103370000895EF92FF920F931F93CF93DF93CDB7F2
:10338000DEB7A097CDBFDEBF7C010091632E10E0B9
:103390000115110591F487E79AE09F938F9382E0DE
:1033A0008F931F92FF92EF920E9465560F900F909D
:1033B0000F900F900F900F9010C0E0915D2EF09144
:1033C0005E2ECE01019619959801AE014F5F5F4FB9
:1033D00060E072E0C7010E94050E85E6A096CDBFB1
:1033E000DEBFDF91CF911F910F91FF90EF90089575
:1033F000DF92EF92FF920F931F93CF93DF93CDB79E
:10340000DEB7A097CDBFDEBF7B010091632E10E039
:1034100060E77AE0C7010E94D755892B29F5D12CA6
:10342000ED2CF12CE016F10658F40E94E90DE1E0D4
:10343000F0E0EC0FFD1FEE0DFF1D8083D394F0CF65
:10344000E0915F2EF091602ECE0101961995E091EA
:10345000652EF091662E4091632EBE016F5F7F4F07
:1034600083E1199584E60BC0A70160E270E0CE010C
:1034700001960E943F0E8017910711F38AECA096E7
:10348000CDBFDEBFDF91CF911F910F91FF90EF90E5
:10349000DF900895FC018091642E882311F081E370
:1034A00001C080E38083118285E60895FB012181BC
:1034B000211127C02081213321F481E08093642EE3
:1034C00004C0203321F41092642E84E608952F3333
:1034D000C1F41F9220E32F931F9221E32F932AE63A
:1034E0003AE03F932F9322E02F931F929F938F9365
:1034F0000E9465568DB79EB70A968DBF9EBF85E622
:1035000008958AEC089586EA90E190D48EE60895B5
:1035100086E291E1A6D48EE60895E0ECF4E08181A4
:103520008E7F81830E9478520E94070D84E6089561
:10353000E0ECF4E081818E7F81830E9478520E94CA
:103540000D0D84E60895EDE4FEE225892F9324898C
:103550002F9327E63AE03F932F9322E02F931F9279
:103560009F938F930E9465568DB79EB708968DBF27
:103570009EBF85E608952091632E1F922F9324E627
:103580003AE03F932F9322E02F931F929F938F93C4
:103590000E9465568DB79EB708968DBF9EBF85E683
:1035A000089540E052E0BC0180E0FCD885E6089533
:1035B000FB0120812F3341F42181211105C060E0FE
:1035C00072E0DBD885E6089580E0FED8882319F004
:1035D000C0DB84E608958AEC089540E052E0BC0127
:1035E00081E0E0D885E60895FB0120812F3341F486
:1035F0002181211105C060E072E0BFD885E6089501
:1036000081E0E2D8882319F0A4DB84E608958AECEF
:10361000089540E052E0BC0182E0C4D885E60895F8
:10362000FB0120812F3341F42181211105C060E08D
:1036300072E0A3D885E6089582E0C6D8882319F001
:1036400088DB84E608958AEC089540E052E0BC01EE
:1036500083E0A8D885E60895FB0120812F3341F44B
:103660002181211105C060E072E087D885E60895C8
:1036700083E0AAD8882319F06CDB84E608958AECED
:10368000089540E052E0BC0180E19BDC85E60895AE
:10369000FB0120812F3341F42181211105C060E01D
:1036A00072E064DC85E6089580E1A5DC882319F0EA
:1036B00050DB84E608958AEC089540E052E0BC01B6
:1036C00088E07FDC85E60895FB0120812F3341F4FB
:1036D0002181211105C060E072E048DC85E6089593
:1036E00088E089DC882319F034DB84E608958AECCD
:1036F000089560E072E07DDA85E60895FB0120819F
:103700002F3341F42181211105C060E072E081DA9C
:1037100085E60895CB0154DA882319F01ADB84E694
:1037200008958AEC0895CF93DF93EC0166D9813038
:1037300028E0920718F09C01385002C020E030E0E9
:103740003F932F939F938F9324E43AE03F932F93DB
:1037500082E08F931F92DF93CF930E9465568DB7BF
:103760009EB70A968DBF9EBF85E6DF91CF910895E3
:103770008FE294E176D38EE6089551DA84E60895D7
:1037800000D984E6089560E072E051DB85E6089593
:10379000CB0154DB811102C08AEC089584E60895C0
:1037A0000E94DF0F84E608950E940F1084E60895BA
:1037B0000E946A0F84E608958091680680FD02C029
:1037C00089E7089588E70895DF92EF92FF920F93BB
:1037D0001F93CF93DF93EC010FEF11E086E7E82E04
:1037E0008CE0F82E9CE2D92EB70181ED93E20E9485
:1037F000D755892BD1F001151105B9F0DE01F7017C
:103800002491ED012196C8010197222341F0013056
:10381000110529F02C93DE0131968C01F1CFDC9259
:103820008C0188E1E80EF11CDFCF2197188285E634
:10383000DF91CF911F910F91FF90EF90DF9008954E
:10384000FC01209120022068209320028091230215
:1038500080FFFCCF81E080932302A0911002B09101
:103860001102AE5BB109B7FF02C0A0E0B0E020E0FA
:1038700038EB4BE050E00E945A55AA27BB279F9394
:103880008F932DE33AE03F932F9382E08F931F9223
:10389000FF93EF930E9465568DB79EB708968DBF34
:1038A0009EBF85E608952EB13FB140910804509126
:1038B0000904242B352B3F932F9327E33AE03F93C2
:1038C0002F9322E02F931F929F938F930E94655610
:1038D0008DB79EB708968DBF9EBF85E608950F935E
:1038E0001F93CF93DF931F921F92CDB7DEB78B014B
:1038F000E091682EF091692E8581873009F06FC0C4
:10390000E091552EF091562E199581E08093772CF9
:1039100060E270E0C8010E941D560097F9F4F801BA
:1039200001900020E9F73197E01BF10BE0FD59C051
:10393000F695E795E130F10539F487E090E0809362
:103940004B2E90934C2E37C053E0EE0FFF1F5A952D
:10395000E1F7E0934B2EF0934C2E2DC098012C5F95
:103960003F4F82179307E9F5A80162E070E0CE01AE
:1039700001960E943F0E898190E0982F88272A8126
:10398000820F911D80934B2E90934C2E0B5F1F4FF7
:10399000F80101900020E9F73197E01BF10BE0FD01
:1039A00020C0F695E79533E0EE0FFF1F3A95E1F75B
:1039B000E817F907B0F060914B2E70914C2E695FBB
:1039C0007F4F83E0769567958A95E1F7A8018BE4B0
:1039D0009DE20E943F0E0E94682A8FEF03C089EC8F
:1039E00001C08AEC0F900F90DF91CF911F910F9142
:1039F0000895EF92FF920F931F93CF93DF931F923F
:103A00001F92CDB7DEB78B01E091682EF091692E41
:103A10008581873009F080C0E091552EF091562EB7
:103A2000199582E08093772C60E270E0C8010E94D3
:103A30001D567C01892B31F5F80101900020E9F732
:103A40003197E01BF10BE0FD69C0F695E795E13099
:103A5000F10539F487E090E080934B2E90934C2E43
:103A600047C063E0EE0FFF1F6A95E1F7CF0169E001
:103A700070E00E944655E81BF90BE0934B2EF09343
:103A80004C2E36C0C8010496E816F90609F046C067
:103A9000A80162E070E0CE0101960E943F0E2981EC
:103AA00030E0322F22278A81280F311D20934B2EA0
:103AB00030934C2E2730310529F0C90187709927A2
:103AC000892B61F587010F5F1F4FF80101900020DE
:103AD000E9F73197E01BF10BE0FD20C0F695E79583
:103AE00043E0EE0FFF1F4A95E1F7E217F307B0F04E
:103AF00060914B2E70914C2E695F7F4F83E07695DD
:103B000067958A95E1F7A8018BE49DE20E943F0E3C
:103B10000E94682A8FEF03C089EC01C08AEC0F90E5
:103B20000F90DF91CF911F910F91FF90EF9008952B
:103B3000E091682EF091692E85818730A1F4E091A3
:103B4000552EF091562E199585E08093772C0E9482
:103B500038430E94682A82E493E48093322C909345
:103B6000332C8FEF089589EC0895E091682EF09141
:103B7000692E85818730A1F4E091552EF091562E63
:103B8000199583E08093772C0E9438430E94682A1D
:103B900082E493E48093322C9093332C8FEF08953A
:103BA00089EC0895E091682EF091692E8581873027
:103BB000A1F4E091552EF091562E199586E0809350
:103BC000772C0E9438430E94682A82E493E4809311
:103BD000322C9093332C8FEF089589EC0895E09167
:103BE000682EF091692E4085518564E6649F9001AE
:103BF000659F300D11243F932F9321E33AE03F93CB
:103C00002F9322E02F931F929F938F930E946556CC
:103C10008DB79EB708968DBF9EBF85E60895CF935A
:103C2000DF931F921F92CDB7DEB7FB0120812F33A8
:103C3000B1F42181211113C02FEF39E03F932F936D
:103C400022E02F931F929F938F930E9465560F90AF
:103C50000F900F900F900F900F9085E627C089E589
:103C600092E089839A83CE0101969F938F938BEF85
:103C700099E09F938F937F936F930E949B560F9031
:103C80000F900F900F900F900F90892B71F08981FA
:103C90009A818935F2E09F0740F4E091682EF09117
:103CA000692E8087918784E601C08AEC0F900F907F
:103CB000DF91CF91089520911F202F9320911E20F6
:103CC0002F9328EF39E03F932F9322E02F931F92F9
:103CD0009F938F930E9465568DB79EB708968DBFB0
:103CE0009EBF85E60895CF93DF931F921F92CDB7B5
:103CF000DEB7FB0120812F33B1F42181211113C0E4
:103D00002FE02F932FEF2F9327EA39E03F932F9344
:103D100022E02F931F929F938F930E946556CDBFF1
:103D2000DEBF85E627C019821A82CE0101969F93D5
:103D30008F9383EA99E09F938F937F936F930E9471
:103D40009B560F900F900F900F900F900F90892B14
:103D500081F089819A818115E0E19E0750F480937A
:103D600038039093390380931E2090931F2084E69C
:103D700001C08AEC0F900F90DF91CF910895FB0165
:103D800020812F33D9F42181211121C01F9220E3FA
:103D90002F931F9221E32F932DE939E03F932F9327
:103DA00022E02F931F929F938F930E9465568DB7A9
:103DB0009EB70A968DBF9EBF85E60895213311F404
:103DC000D0D303C0203319F4F1D384E608958AECEC
:103DD0000895FC0180910008813021F480918C08C5
:103DE000833011F080E301C081E38083118285E696
:103DF0000895E091682EF091692E85818730A1F4B5
:103E0000E091552EF091562E199584E08093772CF1
:103E10000E9438430E94682A82E493E48093322C03
:103E20009093332C8FEF089589EC089521E020932F
:103E3000312C2093302C2CE320932D2C25E030E0E6
:103E400020932B2C30932C2C1092252C1092262C66
:103E50001092272C1092282C8093232C9093242CA2
:103E6000089527E02093312C2CE231E020932B2C75
:103E700030932C2C1092252C1092262C1092272C4B
:103E80001092282C8093232C9093242C0895CF9368
:103E90009091312C9530E1F130F4933029F140F5D7
:103EA000913068F440C1973009F4A7C008F445C0C8
:103EB000983009F4AAC0993009F432C134C1813074
:103EC00041F41092292C10922A2C10922E2C83E06F
:103ED000FBC0843011F466E08BC0883109F420C146
:103EE0008B3109F0F3C01CC180932F2C84E0ECC00F
:103EF00090E040912F2C2FEF30E0241B31098217E6
:103F0000930721F485E0E0C0981739F165E169C0B5
:103F10002091292C30912A2CA9014F5F5F4F4093AB
:103F2000292C50932A2CF901E654F14D8083403816
:103F3000510509F0CBC086E0C7C020912F2C90918D
:103F4000302C291346C0EAEBFEE290E02FE2EA3380
:103F5000F207D1F22191920FF9CF4091252C509187
:103F6000262C6091272C7091282CE091232CF09125
:103F7000242C20E830E08AEB9EE21995C82F882394
:103F800011F18091302C8F5F8093302C8091252C03
:103F90009091262CA091272CB091282C80589F4FCF
:103FA000AF4FBF4F8093252C9093262CA093272CA6
:103FB000B093282C66E083E090E20E94D45382E024
:103FC0008093312CB1C068E183E090E20E94D45329
:103FD0000EC030E0892F90E001972817390739F497
:103FE00066E083E090E20E94D45382E06DC068E115
:103FF00083E090E20E94D45393C0853119F410926B
:10400000302C09C08B3109F48BC0883109F463CF9F
:10401000863009F05DC08091302C8F5F8093302C0A
:104020004091252C5091262C6091272C7091282CA2
:10403000E091232CF091242C20E830E08AEB9EE2E2
:104040001995C82F8823D1F161E083E090E20E94A6
:10405000D4536091302C83E090E20E94D45360915D
:10406000302C609583E090E20E94D45360E870E0C9
:104070008AEB9EE29DD8EAEBFEE260E08FE2EA3353
:10408000F80719F08191680FF9CF83E090E20E9460
:10409000D4538091252C9091262CA091272CB0915F
:1040A000282C80589F4FAF4FBF4F8093252C909363
:1040B000262CA093272CB093282C36C064E083E0F4
:1040C00090E20E94D45389E08093312CC1E02CC04F
:1040D0008531E1F761E083E090E20E94D453609182
:1040E000302C83E090E20E94D4536091302C609594
:1040F00083E090E20E94D45360E870E08AEB9EE295
:1041000057D8EAEBFEE260E02FE2EA33F20719F05B
:104110008191680FF9CF83E090E20E94D453D6CF0B
:104120001092312CD3CFC0E08C2FCF910895809185
:10413000312C813019F0873029F1089580912B2C92
:1041400090912C2C9C012150310920932B2C3093E1
:104150002C2C892B31F580912D2C9FEF980F90936B
:104160002D2C882331F065E183E090E20E94D45346
:1041700002C01092312C85E090E080932B2C90931C
:104180002C2C089580912B2C90912C2C9C0121504B
:10419000310920932B2C30932C2C892B11F4109265
:1041A000312C0895EDE4FBE020E030E09491981389
:1041B00009C041E2429FC001439F900D1124825BE0
:1041C000944F08952F5F3F4FB1962930310571F715
:1041D00080E090E00895CF92DF92EF92FF920F93EC
:1041E0001F93CF93982F9F7D91549A3160F090ED5B
:1041F000980F9A3040F08F3531F0982F9D7F9D3386
:1042000011F08032D1F49FE9980F9A3108F480526E
:104210002091372C3091382C2F3F91E0390708F04E
:10422000D3C0A9014F5F5F4F4093372C5093382C78
:10423000F901E654F14D8083C7C08D3009F095C077
:10424000E091372CF091382CE654F14D1082109209
:10425000372C1092382C8091362C8111B5C080916A
:10426000BA2E982F9F7D09F495C08D7F8D3309F468
:1042700091C0EAEBFEE27F01C191CC2331F0CF3354
:1042800021F0CD3311F0C032B1F7F701108286E78B
:10429000C82E8CE0D82E00E010E0B6018AEB9EE23A
:1042A0000E94D755892B09F056C01092BA2ECF33F1
:1042B00049F488E1809FF001819FF00D1124E457BB
:1042C000F34F18C0B7016F5F7F4FCD3349F488E1DA
:1042D000809FF001819FF00D1124E657F34F20C01D
:1042E000C11113C088E1809FF001819FF00D11245E
:1042F000EA57F34F259134912115310509F44DC04A
:104300008AEB9EE2F901199514C0C03209F045C04C
:1043100088E1809FF001819FF00D1124E857F34F51
:104320002591349121153105C1F18AEB9EE2F90105
:1043300019958F3F99F581E08093362C8EB19FB10E
:104340002091080430910904822B932B8093342C04
:104350009093352C39C00F5F1F4FF8E1CF0ED11C61
:104360000732110509F099CF15C0883061F48091AA
:10437000372C9091382C009739F101978093372C86
:104380009093382C21C08B31F9F41092372C109275
:10439000382C1AC088ECC0E002C089ECC1E002DF12
:1043A0000E94C7188AE49BE00E94C718CC2361F0E2
:1043B0008091BA2E882341F08AEB9EE20E94C218B7
:1043C00087E49BE00E94C71881E0CF911F910F9175
:1043D000FF90EF90DF90CF9008958091362C882346
:1043E00099F1E091682EF091692E20853185211593
:1043F000310551F18EB19FB14091080450910904EB
:10440000842B952B4091342C5091352C841B950B8B
:1044100064E670E00E94465562177307A8F0109298
:10442000362C8BECBFDE0E94C71884E49BE00E9410
:10443000C718E091322CF091332C309729F0199560
:104440001092322C1092332C08958091362C8823B0
:10445000A9F01092362C8BECA5DE0E94C71884E4DC
:104460009BE00E94C718E091322CF091332C3097DA
:1044700029F019951092322C1092332C0895CF9375
:10448000DF939091362C9923A9F0EB011092362CF2
:1044900089DE0E94C71881E49BE00E94C71820971C
:1044A00049F0CE010E94C2188EE39BE0DF91CF91CC
:1044B0000C94C718DF91CF910895EF92FF920F935C
:1044C0001F93CF937C019B01613081E0780710F04E
:1044D00020E031E08B01021B130BA70160E072E0CA
:1044E0008AEB9EE20E94050E8AEB9EE20E94C218B1
:1044F000C1E0013081E01807B0F01A956C2F70E030
:10450000762F6627A701460F571F20E032E060E0B4
:1045100072E08AEB9EE20E94050E8AEB9EE20E9408
:10452000C218CF5FE6CF0115110591F0EC2FF0E036
:10453000FE2FEE27A7014E0F5F1F980160E072E08B
:104540008AEB9EE20E94050E8AEB9EE20E94C21850
:104550008BE39BE0CF911F910F91FF90EF900C9414
:10456000C71880910008813029F480918C0883302D
:1045700009F4089580913B2C811117C081E080934C
:10458000000893E090938C088093392C10923A2C79
:104590008EB19FB12091080430910904822B932B96
:1045A0008093402C9093412C0895089510928C088C
:1045B00010920008E9E3FCE21082118208959091C4
:1045C000392C9923F1F080913A2C811115C020915A
:1045D000392C2223B9F02EB13FB1409108045091FB
:1045E0000904242B352B4091402C5091412C241B45
:1045F000350B2634310530F081E080933A2C892F39
:10460000089581E00895CF93DF931F92CDB7DEB771
:1046100080913B2C8823D1F02EB13FB1409108040A
:1046200050910904242B352B40913E2C50913F2C66
:10463000241B350B40913C2C50913D2C2417350701
:1046400028F010923B2C89838CDF89810F90DF91B9
:10465000CF91089580931E2090931F20809338035C
:1046600090933903089580911E2090911F20089601
:1046700080931E2090931F208093380390933903DA
:10468000089580E991E080931E2090931F208093ED
:104690003803909339030895A0E2B6E081E01596BF
:1046A0008C9315972AEB30E328B939B92AE331E323
:1046B0002AB93BB910B813B812B816B817B811B860
:1046C000E0E0F9E010A211A22FEF30E026A337A31B
:1046D0002FEF3FEF20A731A7808388E8838380E115
:1046E000848783E087831C968C931C9782E01A96BC
:1046F0008C9308951F920F920FB60F92112408B653
:104700000F9218BE0BB60F921BBE8F939F93EF9321
:10471000FF93E0E0F9E013828FE790E086AB97AB80
:1047200081E190E080AF91AFE0E0FAE010A211A249
:104730008FEF9FEF86A397A389E88383168281E09A
:1047400084878EE0808310922A06FF91EF919F91DB
:104750008F910F900BBE0F9008BE0F900FBE0F9061
:104760001F9018951F920F920FB60F92112408B642
:104770000F9218BE0BB60F921BBE2F933F938F93D1
:104780009F93EF93FF932091280693B1267081E0C9
:1047900009F080E0990F892B83B982B1882309F44D
:1047A00064C012B883B18770873059F51092000940
:1047B00080E180930C091092030A1B9B03C08CEAD2
:1047C00094E002C08CE694E08093260A9093270A36
:1047D00082E081B981E080930C0A83E08093060A2D
:1047E00086B197B1877049F090B18F5F893011F031
:1047F0009695FBCFE8B1F9B1908381E08093422C8C
:1048000037C093B1892F8C7099F192FB992790F959
:1048100081E0982781B181111BC080B186959111EB
:1048200090E8892B80B926B137B12F5F3F4F26B969
:1048300037B927703327232BD9F4E8B1F9B19F0199
:104840002F5F3F4F28B939B9808381E081B910C00B
:1048500081B1813069F4EAB1FBB19F012F5F3F4F15
:104860002AB93BB9908311B803C082B1809582B94F
:1048700088E880930309FF91EF919F918F913F9179
:104880002F910F900BBE0F9008BE0F900FBE0F9090
:104890001F9018951F920F920FB60F92112408B611
:1048A0000F9218BE0BB60F921BBE2F933F938F93A0
:1048B0009F93EF93FF9381B1823008F49DC081B143
:1048C0008D3008F099C0E1B1F0E0EE0FFF1FEA5D16
:1048D000FF4D0190F081E02D19948FE790E08093D7
:1048E000260A9093270A88C08E9A8EE0809340080B
:1048F0008FE390E08093260A9093270A85E06FC0AB
:104900008E9886E081B98FEF82B914B815B8E8B1F6
:10491000F9B1808180B970C0009B05C08E9A82B1C8
:10492000809582B901C08E9887E059C0009B02C073
:104930008E9801C08E9A80B1869580B984B195B168
:10494000019684B995B984B195B187709927892B5F
:1049500011F488E044C024B135B186B197B128176D
:104960003907B1F52BC0EAB1FBB1309711F0808166
:1049700001C082B1882311F08E9A01C08E9889E01F
:104980002EC0EAB1FBB1309751F08081882311F03D
:104990008E9801C08E9A3196EAB9FBB908C082B1EF
:1049A000882311F08E9801C08E9A8FEF82B924B1BE
:1049B00035B186B197B12817390711F48AE00FC0D5
:1049C000E8B1F9B1CF01019688B999B9818180B96F
:1049D00086E005C08E988BE002C08E988CE081B98D
:1049E0000BC01092000A1092060A10924008109212
:1049F000410881E08093432CFF91EF919F918F912B
:104A00003F912F910F900BBE0F9008BE0F900FBEDD
:104A10000F901F901895CF93DF93E2E4FCE2108291
:104A20001182E0E4F6E0128A84E08283C0E8D1E0FB
:104A300082E68E83A0E2B6E081E016968C9316970C
:104A400011968C93119796E012969C93129751961B
:104A50008C93519742E052964C9352971A961C921F
:104A60001A9733E019963C9399E598839AE59983D0
:104A700090E491839683A0EBB0E012962C9112976C
:104A8000207F12962C93129712962C9112972260E7
:104A900012962C9320E321832683908B8683458373
:104AA0003183E0E0F8E083E1818321E030E026A378
:104AB00037A320A731A7E0E8F8E014868083E0E27E
:104AC000F3E01382118288E0828391E19083209148
:104AD0001E2030911F20208F318FE0E8F3E09CE30F
:104AE0009283808393838183DF91CF91D5CDA0E2A0
:104AF000B6E01A961C921A97E2E4FCE21082118248
:104B0000E0E0F9E010821382178280E18487E0E020
:104B1000FAE010821382168281E08487E0E4F8E0F4
:104B20001082118216968C938E980895CF93DF93FE
:104B30008091422C882309F47EC01092422CC6B189
:104B4000D7B1C730D10508F471C0AE01495F5F4FDE
:104B500093E0569547959A95E1F7E091652EF0918F
:104B6000662E6AEB70E380E41995E091682EF0916F
:104B7000692E8781883019F483E180931F2C868108
:104B8000883019F483E180931E2CE0915B2EF09124
:104B90005C2EBE018AEB90E31995EC0194FF06C0F0
:104BA000DF7E8AE391E38AB99BB902C01AB81BB8C9
:104BB0002097E1F1AE01495F5F4F83E0569547953D
:104BC0008A95E1F7E091652EF091662E6AEB70E32D
:104BD00081E41995E091682EF091692E87818930E2
:104BE00019F483E180931F2C8681893019F483E1C5
:104BF00080931E2CC6B9D7B98AEB90E388B999B9CE
:104C000010926008109261088FE090E0809366082F
:104C10009093670888E090E080936A0890936B080F
:104C200083E28093410883E081B905C01092000AB5
:104C30001092060A31DD8091432C882329F01092CE
:104C4000432CDF91CF9128CDDF91CF910895CF9361
:104C5000DF93E0E4F6E0128A84E08283C0E8D1E0EA
:104C600082E68E83A0E2B6E081E016968C931697DA
:104C700011968C93119796E012969C9312975196E9
:104C80008C93519742E052964C9352971A961C92ED
:104C90001A9733E019963C93199799E598839AE50A
:104CA000998390E491839683C0EBD0E02A81207FA2
:104CB0002A832A8122602A8320E321832683908B02
:104CC000868345833183E0E0F8E093E1918321E03E
:104CD00030E026A337A320A731A7E0E8F8E0148648
:104CE0009083E0E2F3E01382118298E0928341E145
:104CF000408340911E2050911F20408F518FE0E84B
:104D0000F3E04CE3428390834383918315968C9325
:104D1000E0E0F9E08FE790E086A397A322A733A70E
:104D2000108216828CE087831092000A1092442C25
:104D3000E7E4FCE2108212821182DF91CF910895A4
:104D400081E08093260632DCE0E0F9E010821782F1
:104D5000E0E0FAE010821782E7E4FCE211821282BE
:104D6000108208951F920F920FB60F92112408B669
:104D70000F9218BE0BB60F921BBE2F933F938F93CB
:104D80009F93EF93FF93E091442CF0E0EE0FFF1F11
:104D9000E05CFF4D0190F081E02D199410928C0899
:104DA0001092000886E18A95F1F700C081E08093B7
:104DB000000883E080938C0818B88091BA3086B9D7
:104DC00017B882E001C083E08093442C86C03099FC
:104DD00011C082B181110EC010928C08109200088F
:104DE00096E19A95F1F700C081E08093000883E096
:104DF00080938C0884E0E8CF309B10C010928C0820
:104E00001092000886E18A95F1F700C081E0809356
:104E1000000893E090938C0882B901C012B886B163
:104E2000869586B984B195B1019784B995B9892BD6
:104E300011F485E001C083E08093442C87B18F5F3B
:104E400087B9877009F049C0E8B1EF5FE8B9F0E0D1
:104E5000E654FF4C808186B940C082B181110EC0FA
:104E600010928C081092000896E19A95F1F700C014
:104E700081E08093000883E080938C0886E0A4CFD3
:104E80001092000982E591E00197F1F700C000005F
:104E900082E08093870389E3809381038AEB90E328
:104EA0008AB99BB981E090E084B995B980E886B968
:104EB0008EB19FB12091080430910904822B932B6D
:104EC0008093452C9093462C81E08093492C18B810
:104ED00017B81092442C01C000C0FF91EF919F9130
:104EE0008F913F912F910F900BBE0F9008BE0F90A6
:104EF0000FBE0F901F9018951F920F920FB60F9232
:104F0000112408B60F9218BE0BB60F921BBE2F933A
:104F10003F934F935F938F939F93EF93FF931092E1
:104F2000070A1092000A10924709109240098091D6
:104F300081038E7F8093810384B195B18770992717
:104F4000892BC9F0E4B1F5B186B144B155B193E014
:104F5000F695E7959A95E1F7E654FF4C90E0477097
:104F6000552728E030E0241B350B02C09595879526
:104F70002A95E2F7808381E08093482C1092492C97
:104F80008FEF9FEF8093260A9093270A1092200AB2
:104F90001092210A1092060A1092070A1092030A30
:104FA00084E08093000A87E08093442CFF91EF9186
:104FB0009F918F915F914F913F912F910F900BBED9
:104FC0000F9008BE0F900FBE0F901F9018951F9264
:104FD0000F920FB60F92112408B60F9218BE0BB69F
:104FE0000F921BBE8F93EF93FF93E0E8F3E0818174
:104FF0008F7C8183E0E0FAE088E8838381E080832E
:10500000FF91EF918F910F900BBE0F9008BE0F9004
:105010000FBE0F901F9018951F920F920FB60F9210
:10502000112408B60F9218BE0BB60F921BBE2F9319
:105030003F934F935F938F939F93EF93FF93809151
:105040006009109260091092610992E09093400902
:10505000813620F0813A08F063C077C086B186952A
:1050600086B984B195B1019684B995B987709927AD
:10507000892B41F4EAB1FBB1CF0101968AB99BB902
:1050800086B1808384B195B180FD88C0369986C091
:105090001092070A1092000A1092470910924009D4
:1050A000809181038E7F8093810384B195B1877055
:1050B0009927892BC9F0E4B1F5B186B144B155B156
:1050C00093E0F695E7959A95E1F7E654FF4C90E06A
:1050D0004770552728E030E0241B350B02C095951A
:1050E00087952A95E2F7808381E08093482C10927F
:1050F000492C8FEF9FEF8093260A9093270A1092F6
:10510000200A1092210A1092060A1092070A1092A1
:10511000030A84E08093000A87E08093442C3EC019
:1051200086B18695806886B984B195B1019684B9B7
:1051300095B987709927892B41F4EAB1FBB1CF016A
:1051400001968AB99BB986B1808386B186958068BD
:1051500086B984B195B1019684B995B987709927BC
:10516000892B41F4EAB1FBB1CF0101968AB99BB911
:1051700086B1808386B1869586B984B195B1019652
:1051800084B995B987709927892B41F4EAB1FBB1AD
:10519000CF0101968AB99BB986B18083FF91EF91C7
:1051A0009F918F915F914F913F912F910F900BBEE7
:1051B0000F9008BE0F900FBE0F901F901895BF92D2
:1051C000CF92DF92EF92FF920F931F93CF93DF93D3
:1051D000CDB7DEB7DA95CDBFDEBF8091492C8823ED
:1051E000F1F08EB19FB140910804509109042091D3
:1051F000452C3091462C842B952B821B930B2091B0
:105200002020309121202F5F3F4F2817390738F495
:1052100014B815B881E08093482C1092492CF3D92A
:10522000811149C1CCD9882309F445C18091492C09
:10523000811141C18091472C811105C08091482C7A
:10524000882309F438C18091442C873041F480913F
:10525000200A9091210A8532914008F42CC1809156
:10526000482C882309F4ABC084B195B1892B09F48B
:10527000A6C084B195B1089718F414B815B89FC0AA
:1052800044B155B1495F5F4F63E0569547956A95C4
:10529000E1F76AEB70E3CE0101960E94FC558AEBC0
:1052A00090E38AB99BB904B115B114B815B88981D6
:1052B00086958695898372E0C72ED12CE3E1BE2EB8
:1052C000F8E0EF2EF12CC016D10608F078C0F601F8
:1052D00053E0F695E7955A95E1F741E050E04C0F21
:1052E0005D1FE40FF51F8081982F9695969590830A
:1052F0008370813039F0E8F0823009F059C086B10E
:10530000869503C086B18695806886B984B195B1CB
:10531000019684B995B987709927892B09F048C0FF
:10532000EAB1FBB1CF0101968AB99BB986B18083FE
:105330003FC084B195B187709927892BC1F0E4B142
:10534000F5B186B124B135B143E0F695E7954A95BC
:10535000E1F7E654FF4C90E027703327A701421B8A
:10536000530B02C0959587954A95E2F78083E091AB
:10537000682EF091692E8781883011F4B0921F2C2D
:105380008681883011F4B0921E2C44B155B1495F2A
:105390005F4F93E0569547959A95E1F7E091652E1A
:1053A000F091662E6AEB70E382E4199581E001C00A
:1053B00080E052E0C50ED11C882309F484CF1092FE
:1053C000472C1092482C64B175B1E0915B2EF0919E
:1053D0005C2E8AEB90E3199584B995B984B195B1A7
:1053E000892B09F468C089E0809381031092000A38
:1053F0001092200A1092210A8FE790E08093260AEB
:105400009093270A8FE590E08093280A9093290AC9
:105410001092060A80E180930C0A93E09093070AA9
:1054200010926009109261092FEF3FEF20936609F7
:105430003093670920E031E02093680930936909CF
:105440001092460980934C0981E08093470981E1DD
:105450008093800110928801109280031092290697
:10546000E091682EF091692E8781893019F483E1EB
:1054700080931F2C8681893019F483E180931E2C40
:1054800044B155B1495F5F4F83E0569547958A9582
:10549000E1F7E091652EF091662E6AEB70E383E40C
:1054A000199581E08093442C12B810922009109233
:1054B000210980930009D395CDBFDEBFDF91CF9145
:1054C0001F910F91FF90EF90DF90CF90BF900895C4
:1054D00014B815B881E08093472C43C81092070A8E
:1054E0001092000A1092470910924009809181039E
:1054F0008E7F8093810384B195B187709927892B22
:10550000C9F0E4B1F5B186B144B155B193E0F69577
:10551000E7959A95E1F7E654FF4C90E047705527E0
:1055200028E030E0241B350B02C0959587952A951D
:10553000E2F7808381E08093482C1092492C8FEF12
:105540009FEF8093260A9093270A1092200A1092C8
:10555000210A1092060A1092070A1092030A84E0A8
:105560008093000A87E08093442C1092442C109280
:10557000482C1092472C1AC881E080934C2C109232
:105580004A2C089581E080934C2C08950895CF9281
:10559000DF92EF92FF920F931F93CF93DF93CDB7DC
:1055A000DEB72597CDBFDEBF8C01FC0180819091D5
:1055B0004C2C9230F1F038F0943079F120F19530A4
:1055C00009F44AC049C121E09227292F2170209374
:1055D0004A2C911102C0863219F0823509F03CC183
:1055E00084E4F8018083118282E080934C2C80E176
:1055F00034C190914A2C911102C08632B1F08235AB
:1056000009F04DC012C090914A2C911102C086320F
:1056100061F0823509F075C008C090914A2C911153
:1056200002C0863211F0823539F484E4F8018083B7
:10563000118281E089270DC0803309F41BC1823AB1
:1056400009F434C1803A09F451C1803509F4F6C037
:1056500081E080934C2C00C160E170E0C8010E94A1
:1056600073348823A1F08091642E81110BC0609166
:105670004B2CF4E06F9FB001112444E050E0C801CE
:105680000E94FC0E84E080934C2C8AE004C084E0ED
:1056900080934C2C81E0F801808384E0DEC0833964
:1056A000B9F619821A821B821C8288E8898343E03A
:1056B00050E060E070E0CE0102960E94AE0EF8016C
:1056C0008181803209F4ABC0803709F048C0F8010D
:1056D000928189819813C0C093818A819813BCC03C
:1056E00094818B819813B8C095818C819813B4C034
:1056F00084E0808361E070E0C8010E94483483E068
:105700002AC0853909F0A4CF44E050E064E070E09D
:10571000CE0101960E94AE0EF8018181803209F41B
:105720007EC08037E1F4F80192818981981394C09A
:1057300093818A81981390C094818B8198138CC037
:1057400095818C81981388C0108261E070E0C80157
:105750000E94483484E080934C2C88E17EC0E82E7F
:10576000E2949FE0E9222EEF2E0D8F70F82E88E054
:1057700090E08F1991094FEF50E06A0102C0D59473
:10578000C7948A95E2F7253021F0243059F5FF209F
:10579000E9F044E050E0B8016E5F7F4FCE01019622
:1057A0002D830E94EF552D81892B61F49A81898187
:1057B00089279B8189279C818927F80196818927E0
:1057C0008C2169F1243071F4F11046C044E050E0BE
:1057D000B8016E5F7F4FCE0101960E94EF55892B75
:1057E000F1F03AC02430C0F5E22EF12CA701B80147
:1057F0006E5F7F4FCE0101960E94EF55892B61F5B8
:10580000D801AE0DBF1DE1E0F0E0EC0FFD1FEE0D85
:10581000FF1D12969C9180818927C822E9F4298175
:10582000F80120833A8131839B8192838C81838329
:10583000232792278927848388E20FC0F80181817A
:10584000811142C062E070E0C8010E947334882375
:1058500009F420CF10924C2C80E090E02596CDBF2B
:10586000DEBFDF91CF911F910F91FF90EF90DF90FE
:10587000CF900895F801F18062E070E0C8010E94C5
:105880007334882309F406CFFFE0FF15E8F084E0C5
:10589000F89EB001112440E150E0C8010E94AE0E14
:1058A00060E170E0C801F4D780E9D7CFF801F1805A
:1058B00066E070E0C8010E947334882309F4EACEE0
:1058C0008EEF8F0D8E3018F0F8011082E6CE8091A9
:1058D000642E8111DACEF4E0FF9EB001112444E081
:1058E00050E0C80102960E94FC0ECFCEF801F18074
:1058F00062E070E0C801F7D7882309F4CBCE8EEFC1
:105900008F0D8E3008F7F0924B2C85E0BCCECF93F4
:10591000DF93EC0143E050E060E070E00E94AE0EE7
:1059200044E050E064E070E0CE010396DF91CF9157
:105930000C94AE0E0F931F93CF93DF931F921F9281
:10594000CDB7DEB78C01FC0190818181892798E871
:105950008927928189278A839481838189279581E8
:10596000892796818927898343E050E060E070E0D1
:10597000C8010E94FC0E41E050E063E070E0CE01FF
:1059800002960E94FC0E44E050E064E070E0C80122
:1059900003960E94FC0E41E050E068E070E0CE010A
:1059A00001960E94FC0E0F900F90DF91CF911F91F6
:1059B0000F91089581E08093702C84E090E08093B3
:1059C0004F2C9093502C88E080934E2C10924D2CAD
:1059D000089581E08093702C84E490E080934F2CB4
:1059E0009093502C88E080934E2C10924D2C08956B
:1059F00081E08093702C82E090E080934F2C909314
:105A0000502C88E180934E2C10924D2C089581E00B
:105A10008093702C089508958F929F92AF92BF92B9
:105A2000CF92DF92EF92FF920F931F93CF93DF936A
:105A3000CDB7DEB76397CDBFDEBF8C015B01809130
:105A4000702C6730710501F5F8019081882311F001
:105A5000963211F09235C1F421E0811120E02093BB
:105A60004D2C40914F2C3091502C211102C0963278
:105A700011F0923539F4F801408331838FEF809330
:105A8000512C38C0A12CB12C853009F49CC050F4A5
:105A90008230A9F1C8F0833009F469C0843009F478
:105AA00082C0C2C5883009F425C138F4863009F4B3
:105AB0009AC0873009F4D3C0B7C5893009F44FC301
:105AC0008D3008F471C3B0C591E08927982F91708B
:105AD00090934D2C30914F2C2091502CF8019081B7
