:100000000C940E0B0C94330B0C94330B0C94330B9D
:100010000C94330B0C94330B0C94330B0C94330B68
:100020000C94330B0C94330B0C94620C0C94330B28
:100030000C94330B0C94330B0C94330B0C94330B48
:100040000C94330B0C94330B0C94330B0C94330B38
:100050000C94330B0C94330B0C94330B0C94330B28
:100060000C94330B0C94330B0C94330B0C94330B18
:100070000C94330B0C94330B0C94330B0C94330B08
:100080000C94330B0C94330B0C9495220C94330B7F
:100090000C94330B0C94330B0C94330B0C94330BE8
:1000A0000C94330B0C94330B0C94330B0C94330BD8
:1000B0000C94330B0C94330B0C94330B0C9465237E
:1000C0000C94330B0C9427270C94330B0C94330BA8
:1000D0000C94330B0C94330B0C94330B0C94330BA8
:1000E0000C94330B0C94330B0C94330B0C94330B98
:1000F0000C94330B0C94330B0C94330B0C94330B88
:100100000C94330B0C94330B0C94330B0C94330B77
:100110000C94330B0C9402270C94330B0C94330B7C
:100120000C94330B0C94330B0C94330B0C94330B57
:100130000C94330B0C94330B0C94330B0C94CD2296
:100140000C94CD250C94330B0C94330B0C94330B83
:100150000C94330B0C9497260C94330B0C94330BA8
:100160000C94330B0C94330B0C94330B0C94330B17
:100170000C94330B0C94330B0C94330B0C94330B07
:100180000C94330B0C94330B0C94330B0C94330BF7
:100190000C94330B0C94330B0C94330B0C94330BE7
:1001A0000C94330B0C94330B0C94330B0C94330BD7
:1001B0000C94330B0C94330B0C94330B0C94330BC7
:1001C0000C94330B0C94330B0C94330B0C94330BB7
:1001D0000C94330B0C94330B0C94330B0C94330BA7
:1001E0000C94330B0C94330B0C94330B0C94330B97
:1001F0000C94330B0C9428500C94330B1E034300C7
:10020000680061006D0065006C0065006F006E00A5
:100210002D004D0069006E00690000002A034B00AC
:10022000610073007000650072002000260020004D
:100230004F007300770061006C00640020004700ED
:100240006D006200480000000403090409023E003A
:10025000020100C03209040000010202010005246D
:10026000001001042402060524060001070582038C
:100270000800FF09040100020A000000070504024B
:10028000100005070583021000051201100102008D
:100290000008D016B20401000102DC010C0D0D0DA6
:1002A0000E0D0F0D100D110D120D130D160D170D56
:1002B0000000000126249224B124D229D829DC2967
:1002C000120DDD299D2BB02B40000700262492241F
:1002D000B124F02B1D2C212C120D222C1933353377
:1002E0000004040026249224B124FF2B1D2C212C71
:1002F000120D222C193335330004070026249224D2
:10030000B1240E2C1D2C212C120D222C1933353327
:100310000010040026249224B1240E2C1D2C212C24
:10032000120D222C19333533001007002624922495
:10033000B1240F0D100D110D120D130D160D170D0B
:10034000000000014225BB25FA277B427E428B42FA
:100350008C42B142160D170D00000000004E4F4EAA
:100360004500000000000000000000000000000048
:1003700000000000000000000000000000014D46E9
:100380005F554C5452414C4947485400000000000E
:100390000000000000000000000000000000024D0E
:1003A000465F434C41535349435F314B00000000CB
:1003B000000000000000000000000000000000033A
:1003C0004D465F434C41535349435F314B5F374286
:1003D000000000000000000000000000000000001D
:1003E000044D465F434C41535349435F344B000037
:1003F00000000000000000000000000000000000FD
:1004000000054D465F434C41535349435F344B5FB6
:100410003742000000000000000000000000000063
:1004200000000649534F3134343433415F534E4951
:100430004646000000000000000000000000000030
:100440000000000749534F3134343433415F524583
:100450004144455200000000000000000000000080
:100460000000000001000001000101000001010086
:100470000100000100010100010000010100000174
:100480000001010000010100010000010100000164
:100490000001010001000001000101000001010054
:1004A0000100000100010100010000010100000144
:1004B0000001010001000001000101000001010034
:1004C0000100000101000001000101000001010024
:1004D0000100000100010100010000010100000114
:1004E0000001010000010100010000010100000104
:1004F00000010100010000010001010000010100F4
:1005000001000001010000010001010000010100E3
:1005100001000001000101000100000101000001D3
:1005200000010100010000010001010000010100C3
:1005300001000001000101000100000101000001B3
:1005400000010100000101000100000101000001A3
:100550000001010001000001000101000001010093
:1005600001000001008040C020A060E0109050D049
:1005700030B070F0088848C828A868E8189858D89B
:1005800038B878F8048444C424A464E4149454D49B
:1005900034B474F40C8C4CCC2CAC6CEC1C9C5CDC3B
:1005A0003CBC7CFC028242C222A262E2129252D283
:1005B00032B272F20A8A4ACA2AAA6AEA1A9A5ADA3B
:1005C0003ABA7AFA068646C626A666E6169656D63B
:1005D00036B676F60E8E4ECE2EAE6EEE1E9E5EDEDB
:1005E0003EBE7EFE018141C121A161E1119151D147
:1005F00031B171F1098949C929A969E9199959D90B
:1006000039B979F9058545C525A565E5159555D50A
:1006100035B575F50D8D4DCD2DAD6DED1D9D5DDDAA
:100620003DBD7DFD038343C323A363E3139353D3F2
:1006300033B373F30B8B4BCB2BAB6BEB1B9B5BDBAA
:100640003BBB7BFB078747C727A767E7179757D7AA
:1006500037B777F70F8F4FCF2FAF6FEF1F9F5FDF4A
:100660003FBF7FFF004E4F4E4500000000000000DE
:10067000000000000000000000000000000000007A
:100680000000000000015549445F52414E444F4D67
:10069000000000000000000000000000000000005A
:1006A000000000000000025549445F4C4546545F7D
:1006B000494E4352454D454E540000000000000095
:1006C00000000000000000035549445F52494748BC
:1006D000545F494E4352454D454E540000000000C2
:1006E0000000000000000000045549445F4C4546EE
:1006F000545F44454352454D454E540000000000B0
:10070000000000000000000000055549445F524908
:100710004748545F44454352454D454E5400000000
:1007200000000000000000000000064359434C4553
:100730005F53455454494E475300000000000000E9
:1007400000000000000000000000000753544F525A
:10075000455F4D454D000000000000000000000016
:1007600000000000000000000000000008524543A7
:10077000414C4C5F4D454D00000000000000000062
:100780000000000000000000000000000009544FBD
:1007900047474C455F4649454C4400000000000077
:1007A00000000000000000000000000000000A53EC
:1007B000544F52455F4C4F470000000000000000BE
:1007C0000000000000000000000000000000000029
:1007D0004F4646000000000000000000000000003E
:1007E0000000000000000000000000000000000009
:1007F000014D454D4F52590000000000000000001F
:1008000000000000000000000000000000000000E8
:1008100000024C49564500000000000000000000A6
:1008200000000000000000000000000000000000C8
:100830000000004E4F4E4500000000000000000088
:1008400000000000000000000000000000000000A8
:1008500000000001504F5745524544000000000081
:100860000000000000000000000000000000000088
:1008700000000000025445524D494E414C5F434F29
:100880004E4E0000000000000000000000000000CC
:100890000000000000035445524D494E414C5F5248
:1008A0005854580000000000000000000000000044
:1008B0000000000000000453455454494E475F4374
:1008C00048414E47450000000000000000000000C5
:1008D00000000000000000054D454D4F52595F5388
:1008E000544F52454400000000000000000000008A
:1008F0000000000000000000064D454D4F52595FBA
:100900004348414E474544000000000000000000FD
:1009100000000000000000000008434F4445435F12
:10092000525800000000000000000000000000001D
:100930000000000000000000000009434F44454350
:100940005F5458000000000000000000000000009C
:100950000000000000000000000000074649454C70
:10096000445F4445544543544544000000000000A2
:100970000000000000000000000000000A4C4F478B
:100980004D454D5F46554C4C0000000000000000F6
:100990000000000000000000000000000025632CA3
:1009A00025630025356400416E7920696E746567A2
:1009B00065722066726F6D203020746F2025752E51
:1009C000205265666572656E636520766F6C746132
:1009D00067652077696C6C20626520285643432048
:1009E0002A205448524553484F4C44202F2034303D
:1009F000393529206D562E002575002535640030C7
:100A0000203D206E6F2074696D656F75740D0A311D
:100A10002D363030203D20313030206D73202D2098
:100A20003630303030206D732074696D656F7574A9
:100A3000002575206D730025342E3458002535753A
:100A4000206D56002575202866726F6D20776869C5
:100A50006368202575206E6F6E2D766F6C617469EA
:100A60006C65290025750025750025632C2563001C
:100A700052414E444F4D004E4F205549442E0043A5
:100A800068616D656C656F6E4D696E692052657643
:100A900047202553207573696E67204C55464120C9
:100AA000255320636F6D70696C6564207769746885
:100AB000204156522D4743432025532E2042617337
:100AC0006564206F6E20746865206F70656E2D738D
:100AD0006F75726365204E464320746F6F6C2043C0
:100AE00068616D656C656F6E4D696E692E20687406
:100AF0007470733A2F2F6769746875622E636F6D17
:100B00002F656D7365632F4368616D656C656F6EEE
:100B10004D696E6920636F6D6D69742025530031D6
:100B200037303632310031353131313500342E39FC
:100B30002E320063626535306261000D0A000D0AD5
:100B4000000D0A000D0A000D0A000D0A0064313084
:100B5000303A4F4B00000000000000000000000091
:100B600000000000000000000000000000006531EF
:100B700030313A4F4B20574954482054455854007F
:100B80000000000000000000000000000000006EF7
:100B90003131303A57414954494E4720464F52204F
:100BA000584D4F44454D000000000000000000007B
:100BB000C83230303A554E4B4E4F574E20434F4D72
:100BC0004D414E4400000000000000000000000005
:100BD00000C93230313A494E56414C494420434FC6
:100BE0004D4D414E44205553414745000000000003
:100BF0000000CA3230323A494E56414C49442050E6
:100C00004152414D45544552000000000000000093
:100C1000000000783132303A46414C534500000024
:100C200000000000000000000000000000000000C4
:100C300000000000793132313A545255450000002D
:100C400000000000000000000000000000000000A4
:100C50000000000000CB3230333A54494D454F5527
:100C60005400000000000000000000000000000030
:100C700000000000000056455253494F4E0000004E
:100C8000000000000000000000000000D318434FE7
:100C90004E46494700000000000000000000000030
:100CA0000000FB18F5185549440000000000000042
:100CB0000000000000000000000051191219524508
:100CC00041444F4E4C59000000000000000000005D
:100CD0000000AF19A31955504C4F414400000000CB
:100CE000000000000000DC19000000000000444F7C
:100CF000574E4C4F41440000000000000000E11935
:100D00000000000000005245534554000000000060
:100D1000000000000000E61900000000000055502F
:100D20004752414445000000000000000000F11956
:100D30000000000000004D454D53495A4500000099
:100D4000000000000000000000000000FC195549F0
:100D50004453495A45000000000000000000000014
:100D600000000000141A52425554544F4E00000027
:100D700000000000000000000000311A2A1A524250
:100D80005554544F4E5F4C4F4E470000000000003A
:100D900000004D1A461A4C425554544F4E00000064
:100DA00000000000000000000000691A621A4C42B6
:100DB0005554544F4E5F4C4F4E470000000000000A
:100DC0000000851A7E1A4C4544475245454E0000A6
:100DD00000000000000000000000A11A9A1A4C4513
:100DE00044524544000000000000000000000000E4
:100DF0000000BD1AB61A4C4F474D4F444500000045
:100E000000000000000000000000D71AD21A4C4F6A
:100E1000474D454D000000000000000000000000AC
:100E200000000000EC1A4C4F47444F574E4C4F41C6
:100E3000440000000000111B0000000000004C4FA7
:100E40004753544F52450000000000000000161B9D
:100E50000000000000004C4F47434C454152000049
:100E6000000000000000191B0000000000005345B6
:100E70005454494E470000000000000000000000EC
:100E80000000211B1C1B434C454152000000000088
:100E90000000000000002A1B000000000000535466
:100EA0004F524500000000000000000000002E1B13
:100EB000000000000000524543414C4C000000007F
:100EC000000000000000321B00000000000043484A
:100ED000415247494E47000000000000000000005A
:100EE00000000000361B48454C5000000000000088
:100EF0000000000000003E1B0000000000005253F4
:100F00005349000000000000000000000000000045
:100F1000000000007A1B5359535449434B00000012
:100F2000000000000000000000000000AD1B534561
:100F30004E445F52415700000000000000000000D6
:100F4000531C0000000053454E4400000000000008
:100F50000000000000000000C91B00000000474521
:100F600054554944000000000000000000000F1D1F
:100F700000000000000044554D505F4D46550000F4
:100F8000000000000000F21C0000000000004944C6
:100F9000454E5449465900000000000000002C1D39
:100FA00000000000000054494D454F55540000001A
:100FB00000000000000000000000691D491D5448A9
:100FC000524553484F4C4400000000000000000010
:100FD0000000CD1DB51D4649454C440000000000F1
:100FE00000000000000000000000191E431E000069
:100FF00000000000000000000000000000000000F1
:1010000000000000000004000109010000000000D1
:10101000000000000000000000000000004E5850DA
:10102000000000000000000000000000004D4946E4
:10103000415245204D696E6900000000000000002B
:1010400000000000000000000000000000000000A0
:101050000000000000000000000000000000000090
:10106000000000000000000000000000000400017B
:101070000801000000000000000000000000000067
:10108000000000004E58500000000000000000006A
:10109000000000004D494641524520436C61737386
:1010A000696320316B0000000000000000000000B8
:1010B0000000000000000000000000000000000030
:1010C0000000000000000000000000000000000020
:1010D00000000000020001180100000000000000F4
:1010E00000000000000000000000004E585000000A
:1010F00000000000000000000000004D4946415281
:101100004520436C617373696320346B00000000F9
:1011100000000000000000000000000000000000CF
:1011200000000000000000000000000000000000BF
:101130000000000000000000000000440001000169
:10114000000000000000000000000000000000009F
:1011500000004E5850000000000000000000000099
:1011600000004D494641524520556C7472616C69CE
:10117000676874000000000000000000000000002C
:10118000000000000000000000000000000000005F
:10119000000000000000000000000000000000004F
:1011A00000004403012001757781028000000000E7
:1011B0000000000000000005004E58500000000034
:1011C0000000000000000000004D4946415245204B
:1011D00044455346697265000000000000000000AD
:1011E00000000000000000000000000000000000FF
:1011F00000000000000000000000000000000000EF
:101200000000000000000000004403012001757789
:1012100081028000000000000000000000000500C6
:101220004E585000000000000000000000000000C8
:101230004D49464152452044455346697265204513
:101240005631000000000000000000000000000017
:10125000000000000000000000000000000000008E
:10126000000000000000000000000000000000007E
:1012700004030128013877B14A434F50333100004D
:101280000000000000090149424D0000000000007C
:10129000000000000000004A434F503331000000BE
:1012A000000000000000000000000000000000003E
:1012B000000000000000000000000000000000002E
:1012C000000000000000000000000000000000001E
:1012D0000000000000000048000120017877B10202
:1012E0004A434F5076323431000000000C0149422D
:1012F0004D000000000000000000000000004A4314
:101300004F5033312076322E342E31000000000051
:1013100000000000000000000000000000000000CD
:1013200000000000000000000000000000000000BD
:101330000000000000000000000000000000480065
:101340000120013833B14A434F5034315632320014
:101350000000000C0149424D0000000000000000A8
:1013600000000000004A434F5034312076322E32C4
:10137000000000000000000000000000000000006D
:10138000000000000000000000000000000000005D
:10139000000000000000000000000000000000004D
:1013A000000000000004000128013833B14A434F17
:1013B000503431563233310000000D0149424D00A6
:1013C0000000000000000000000000004A434F50F1
:1013D00034312076322E332E310000000000000020
:1013E00000000000000000000000000000000000FD
:1013F00000000000000000000000000000000000ED
:10140000000000000000000000000000040001884F
:1014100001000000000000000000000000000000CB
:10142000000000496E66696E656F6E000000000086
:101430000000004D494641524520436C6173736979
:101440006320316B0000000000000000000000007D
:10145000000000000000000000000000000000008C
:10146000000000000000000000000000000000007C
:1014700000000002000198010000000000000000D0
:101480000000000000000000000047656D706C75F2
:10149000730000000000000000004D50434F530057
:1014A000000000000000000000000000000000003C
:1014B000000000000000000000000000000000002C
:1014C000000000000000000000000000000000001C
:1014D00000000000000000000000000C01000000FF
:1014E00000000000000000000000000000000000FC
:1014F00000496E6E6F766973696F6E2052265400D4
:10150000004A6577656C00000000000000000000E4
:1015100000000000000000000000000000000000CB
:1015200000000000000000000000000000000000BB
:1015300000000000000000000000000000000000AB
:10154000000200013801000000000000000000005F
:1015500000000000000000004E6F6B696100000099
:1015600000000000000000004D4946415245204364
:101570006C617373696320346B202D20656D756C0D
:101580006174656420283632313220436C61737394
:101590006963290000000000000000000000000056
:1015A00000000000000000000800013801000000F9
:1015B0000000000000000000000000000000004EDD
:1015C0006F6B696100000000000000000000004D2A
:1015D000494641524520436C617373696320346B03
:1015E000202D20656D756C6174656420283631335B
:1015F00031204E464329000000000000000000009A
:101600000000000000000000000000000000006377
:1016100064696E6F70737578585B000011241FBE8B
:10162000CFEFCDBFDFE3DEBF00E00CBF18BE19BEB9
:101630001ABE1BBE14E2A0E0B0E2EEEEF3EB00E057
:101640000BBF02C007900D92A238B107D9F71BBE9D
:1016500025E3A2E8B4E201C01D92A134B207E1F78C
:101660003BD00C94F55925C13BB78BBFFB0187914B
:1016700096913BBF08953BB78BBFCB0142E20D94DF
:10168000F00F3BB70B0143E20D94F00F3BB78BBF5C
:10169000CB0145E20D94F00F3BB746E208C0209124
:1016A000CF0127FDFCCF22272093CA010895409344
:1016B000CA0128ED31E0209334003093CB016091D2
:1016C000C4017091C5018091C60199270895FC015C
:1016D0004093CA01849108950ED10E940D160E9474
:1016E0008C16C2D21092520684E08093420682E6A3
:1016F00080938601C1E0C0932606C093210686E050
:1017000080932206C093310602E0009332061092C5
:101710002A0613E01093290689E5809380018AE563
:101720008093810180E480934106809346069091E6
:10173000B200907F9093B2009091B200926090932B
:10174000B20090E390934106909346068093500632
:10175000C0934606009345061093410683E18093AB
:10176000010821E030E020932608309327082093D9
:1017700028083093290810928C08809380081092D2
:10178000230310922103D8E0D093220381E18093B8
:10179000200380911E2090911F2080933803909306
:1017A00039038CE380938203D09380038093830377
:1017B000D09381036FD10E943718C0D131D7C09325
:1017C0000002109201020093020210930402C093DF
:1017D0002002D09321020E94D51419D1D2E0C1E198
:1017E0008091030481FF25C08091010480FDFCCF1E
:1017F000D0930304B8D10E9469181AD70E94081622
:101800000E949016E091532EF091542E19950E944B
:101810002A210E94D417E091622EF091632E8781D5
:10182000813011F4C0938B2C8681813011F4C093E8
:101830008A2C0E943B18BAD7E091512EF091522E7B
:101840001995E0914B2EF0914C2E1995C9CF292F67
:1018500033272230310559F02330310569F021302A
:101860003105F9F482E190E02AE832E01EC08EE30F
:1018700090E02CE432E019C099278130910541F0C5
:101880008230910541F0892B61F4E8E4F2E005C073
:10189000ECE1F2E002C0ECEFF1E0849190E09F0116
:1018A00004C080E090E020E030E0FA012083318342
:1018B00008951F920F920FB60F92112408B60F923F
:1018C00018BEFFCF1F920F920FB60F92112408B6C9
:1018D0000F9218BE8F939F938EB19FB180589F4FE8
:1018E0008EB99FB99F918F910F9008BE0F900FBE38
:1018F0000F901F9018958091780083FF0AC088E0B0
:101900008093780088ED84BF81E0809380000D94FF
:10191000FE008BEC80935200809150008860809391
:1019200050008091510083FFFCCF82EC80935500E2
:10193000809150008061809350008091510084FF1D
:10194000FCCF88ED84BF84E0809340001EB81FB8B0
:1019500081E0809343002FE730E020930A04309326
:101960000B0420930C0430930D04809300048093A7
:10197000020480E880930001089588ED84BF81E02F
:1019800080937900089588ED84BF8BE18093800077
:1019900008958091500082608093500080915100A2
:1019A00081FFFCCF82E08093CA01EDE1F0E0E49199
:1019B000E0936200ECE1F0E0E491E09363001092C8
:1019C000CA0180E8809365008BEB8093660080916C
:1019D0005600897F809356008091560084608093E2
:1019E0005600809160008160809360000895E0E47B
:1019F000F0E084818E7F8483E0E6F0E080818E7F5A
:101A00008083E0E5F0E080818D7F8083089587E02A
:101A10008093A200789408950895089508950895F4
:101A200008950895089580E090E008950895089538
:101A30000F931F93CF93DF931F92CDB7DEB707E4C9
:101A40001EE2D8011296ED91FC91139789831995A6
:101A50000E946221E091622EF091632E898185833C
:101A6000B8E18B9FB001112464567D4F48E150E0EE
:101A7000C8010E940D53D801ED91FC911995D80130
:101A80001696ED91FC9117970F90DF91CF911F91D2
:101A90000F91199448E150E06CE972E087E49EE20E
:101AA0000E940D53E091622EF091632E8581C0CF8C
:101AB0000F931F93E091622EF091632E8B019C0196
:101AC000458168E08CE593E00E9471171F910F91AA
:101AD0000895FF920F931F93CF93DF931F92CDB77B
:101AE000DEB78C019E012F5F3F4FAC0168E08CE5B3
:101AF00093E00E948917F82E882389F0898198DF66
:101B0000F80140E08191882319F04F5F4F31D1F700
:101B1000E0915F2EF091602EB80181E119958F2D33
:101B20000F90DF91CF911F910F91FF9008959B012E
:101B3000AC0168E08CE593E00C94B01708950C9428
:101B4000FF5208951F93CF93DF93C82FD92F162FDD
:101B5000180F1C1721F00E94FF528993FACFDF91D2
:101B6000CF911F9108950E94FF520E94FF520E9440
:101B7000FF520C94FF52EF92FF920F931F93CF935B
:101B8000DF937C0161507109FA018A01020F131F72
:101B9000DC0140E050E0E017F107F1F06230710540
:101BA000D8F09191392F32953F703A3010F4305D72
:101BB00001C0395C3C939F709A3010F4905D01C075
:101BC000995C9701240F351FE901998312966250A1
:101BD00071094E5F5F4FDFCF1C92CA01DF91CF9139
:101BE0001F910F91FF90EF900895CF93DF93EC0139
:101BF000DA01E0E0F0E04C91442391F111969C91E0
:101C00001197992339F1E617F70721F180ED840F39
:101C10008A3020F08FEB840F8630D0F480ED890F6E
:101C20008A3020F02FEB290F263090F4242F30E05B
:101C3000413410F0275331092295207F913410F45C
:101C4000982F01C09753292B299331961296D3CF01
:101C500080E004C011968C91811102C090E001C017
:101C6000CF01DF91CF910895E0E6F6E080E1858332
:101C700082E0868388E085838AE18183E0EAF9E077
:101C80001682178280EC858388E18483E0E0F1E0AE
:101C9000128A8BE6838B148A158A20EA208F99E0BA
:101CA000918F128E148E158E168E84E0808B12A268
:101CB0003CE633A314A215A210A611A612A624A7CF
:101CC00095A716A680A308954115510509F449C0AA
:101CD00020E12093660623E02093A0092091A1092A
:101CE00027FFFCCF2091A0097093A0092091A109A2
:101CF00027FFFCCF2091A0096093A0092091A109A2
:101D000027FFFCCF2091A00921E0209312018093AE
:101D10001C0190931D0140931401509315011092E2
:101D2000220182E894E28093280190932901409354
:101D30002401509325018091100180688093100147
:101D4000809120018068809320018091100187FD9F
:101D5000FCCF80E3809311018093210180E1809387
:101D6000650608954115510509F469C020E12093E5
:101D7000660626E02093A0092091A10927FFFCCF49
:101D80002091A00920E12093650600000000209327
:101D9000660622E02093A0092091A10927FFFCCF2D
:101DA0002091A0097093A0092091A10927FFFCCFE1
:101DB0002091A0096093A0092091A10927FFFCCFE1
:101DC0002091A0091092120122E834E220931C0114
:101DD00030931D01409314015093150120E120938D
:101DE000220180932801909329014093240150936C
:101DF000250180911001806880931001809120015D
:101E00008068809320018091100187FDFCCF80E3E2
:101E1000809311018093210180E180936506E09118
:101E2000622EF091632E8781863019F481E18093D0
:101E30008B2C8681863019F481E180938A2C089559
:101E4000CF92DF92EF92FF92CF93DF93C090612EFB
:101E5000D12CE12CF12C8DE0CC0CDD1CEE1CFF1CF8
:101E60008A95D1F7C114D10481E0E806F10408F0A5
:101E70004EC080E18093660686E08093A009809141
:101E8000A10987FFFCCF8091A00980E180936506BE
:101E9000000000008093660682E08093A009809194
:101EA000A10987FFFCCF8091A0091092A009809121
:101EB000A10987FFFCCF8091A0091092A009809111
:101EC000A10987FFFCCF8FEFE81AF80A8091A009DB
:101ED000C0E0D0E1C701B601C7DB8093A0098091C3
:101EE000A10987FFFCCF8091A0099093A009809160
:101EF000A10987FFFCCF8091A00982E0C80ED11C08
:101F0000E11CF11C219731F780E180936506DF9198
:101F1000CF91FF90EF90DF90CF900895CF92DF9216
:101F2000EF92FF92CF93DF93C090612ED12CE12CE2
:101F3000F12C8DE0CC0CDD1CEE1CFF1C8A95D1F73A
:101F4000C114D10481E0E806F10438F0DF91CF91AB
:101F5000FF90EF90DF90CF9073CF8FEFE81AF80AE1
:101F6000C1E2D0E0219791F39ADBC701B60183DB90
:101F700096DB8FEFD81AE80AF80AF4CFCF92DF92F7
:101F8000EF92FF920F931F93CF93DF93C090612E38
:101F9000D12CE12CF12C8DE0CC0CDD1CEE1CFF1CB7
:101FA0008A95D1F7C114D10481E0E806F10408F064
:101FB0004FC080E18093660683E08093A009809102
:101FC000A10987FFFCCF8091A0091092A009809100
:101FD000A10987FFFCCF8091A0091092A0098091F0
:101FE000A10987FFFCCF8FEFE81AF80A8091A009BA
:101FF000C1E2D0E0219749F152DB4EDB50DB00E03B
:1020000010E01092A0098091A10987FFFCCF609198
:10201000A00970E01092A0098091A10987FFFCCF70
:102020008091A009782BC8012CDB39DB0E5F1F4F94
:10203000011581E0180729F7C701B60127DB2FDB5F
:102040008FEFD81AE80AF80AD5CF80E180936506A9
:10205000E091622EF091632E8781863019F490E131
:1020600090938B2C9681963049F420E120938A2C12
:10207000853059F483E180938B2C02C08530D1F3F5
:10208000953019F483E180938A2CDF91CF911F91D1
:102090000F91FF90EF90DF90CF900895CF92DF9255
:1020A000EF92FF920F931F934115E0E25E076105E7
:1020B000710508F06BC06901E12CF12C00E010E221
:1020C00020E030E0041B150B260B370BC016D106A1
:1020D000E206F30610F49701860120E120936606DC
:1020E00026E02093A0092091A10927FFFCCF209191
:1020F000A00920E1209365060000000020936606F9
:1021000022E02093A0092091A10927FFFCCF209174
:10211000A0095093A0092091A10927FFFCCF20918D
:10212000A0094093A0092091A10927FFFCCF20918D
:10213000A0091092120122E834E220931C0130938E
:102140001D01009314011093150120E12093220139
:102150008093280190932901009324011093250175
:102160008091100180688093100180912001806827
:10217000809320018091100187FDFCCF80E3809344
:1021800011018093210180E18093650681E01F9118
:102190000F91FF90EF90DF90CF900895CF92DF9254
:1021A000EF92FF920F931F934115E0E25E076105E6
:1021B000710508F05DC06901E12CF12C00E010E22E
:1021C00020E030E0041B150B260B370BC016D106A0
:1021D000E206F30610F49701860120E120936606DB
:1021E00023E02093A0092091A10927FFFCCF209193
:1021F000A0095093A0092091A10927FFFCCF2091AD
:10220000A0094093A0092091A10927FFFCCF2091AC
:10221000A00921E02093120180931C0190931D01DD
:1022200000931401109315011092220182E894E2A8
:102230008093280190932901009324011093250194
:102240008091100180688093100180912001806846
:10225000809320018091100187FDFCCF80E3809363
:1022600011018093210180E18093650681E001C026
:1022700080E01F910F91FF90EF90DF90CF90089535
:102280008091CF0187FDFCCF0895FADF8091CF01C7
:1022900081FF0BC086E38093CA01EBECF1E021E003
:1022A00030E088ED90E084BF20830895EF92FF92A4
:1022B0000F931F93CF93DF931F921F92CDB7DEB77B
:1022C0007C018A011092C20169837A83D9DF698116
:1022D000A62F7A81B72FC701800F911F26E048ED06
:1022E00050E061E070E0EBECF1E0E816F90689F00F
:1022F000E092C0013F2D3F713093C1012093CA018C
:1023000044BF60833091C4013D933FEFE31AF30A69
:10231000ECCFC8010F900F90DF91CF911F910F91DB
:10232000FF90EF9008952F923F924F925F926F929D
:102330007F928F929F92AF92BF92CF92DF92EF9255
:10234000FF920F931F93CF93DF9300D0CDB7DEB7EB
:102350006A01282F2F711C01221A310829836A83F0
:102360007B8393DF8DDF83E38093CA011092C101E9
:102370001092C2016A81E62E7B81F72E860185E3E9
:10238000582E98ED892E912C66246394712C3BEC89
:10239000A32EBB24B39443E3442E298101151105D8
:1023A00009F12093C001F70181917F018093C4015D
:1023B0000150110919F02F5F203281F72092C001DE
:1023C000832D8F718093C1015092CA01C401F50120
:1023D00084BF608290E2290E311C52DF4092CA0114
:1023E00020E0DCCFC6012396CDBFDEBFDF91CF91C9
:1023F0001F910F91FF90EF90DF90CF90BF90AF9023
:102400009F908F907F906F905F904F903F902F9014
:1024100008951F93CF93DF93CDB7DEB7A097CDBFBD
:10242000DEBF853009F4AEC078F4823081F128F443
:10243000813009F0EEC010E01BC0833009F453C0B6
:10244000843009F475C0E5C0883009F4D3C040F485
:10245000863009F4CDC0873009F0DBC08FDDD9C0EC
:10246000893009F4C9C08A3009F0D3C080D3D1C003
:1024700080915D2E181708F0A8C061DBE1E0F0E064
:10248000EC0FFD1FE10FF11D80831F5FF1CF11E005
:1024900080915D2E873009F010E0E091572EF09189
:1024A000582ECE010196199540915D2E31E01417FA
:1024B00008F08BC03323A9F0812F90E0E1E0F0E039
:1024C000EC0FFD1FE80FF91F208131E02F3F09F0CD
:1024D00030E0E1E0F0E0EC0FFD1FE80FF91F2F5FA7
:1024E00020831F5FE4CFE091572EF091582ECE014C
:1024F0000196199580915D2E41E0815008F465C0E8
:102500004423D9F3282F30E0E1E0F0E0EC0FFD1F89
:10251000E20FF31F908141E09F3F09F040E0E1E0CE
:10252000F0E0EC0FFD1FE20FF31F9F5F9083E5CFFC
:1025300011E080915D2E873009F010E0E091572E78
:10254000F091582ECE010196199540915D2E31E003
:102550001417D8F53323A1F0812F90E0E1E0F0E0EB
:10256000EC0FFD1FE80FF91F208131E0211130E051
:10257000E1E0F0E0EC0FFD1FE80FF91F2150208390
:102580001F5FE6CFE091572EF091582ECE010196B5
:10259000199580915D2E41E08150B8F04423E1F31C
:1025A000282F30E0E1E0F0E0EC0FFD1FE20FF31F19
:1025B000908141E0911140E0E1E0F0E0EC0FFD1F7F
:1025C000E20FF31F91509083E7CFE091592EF091E5
:1025D0005A2ECE0101961995E0915F2EF091602E52
:1025E00040915D2EBE016F5F7F4F83E1199511C051
:1025F0005DD30FC025DC0DC080910008813021F42F
:1026000080918C08833019F00E94EE2102C00E9454
:102610001322A096CDBFDEBFDF91CF911F91089509
:10262000E0E0F6E080E6828388E1868B858B089582
:10263000CF93C0910806C095C6FF12C08091842434
:102640008A3050F08A30E1F4E091622EF091632EEE
:102650008181DFDE809184248F5F8093842410C089
:102660008C2F807669F48091842481508A3030F4F4
:10267000E091622EF091632E8081CBDE1092842453
:10268000C5FF12C0809183248A3050F08A30D9F47B
:10269000E091622EF091632E8381BBDE80918324D2
:1026A0008F5F809383240FC0C07669F48091832468
:1026B00081508A3030F4E091622EF091632E828155
:1026C000A8DE10928324CF9108959B01AC016BE0AA
:1026D00084E696E045C420E030E090E0F901E80FA0
:1026E000F91FEF59F14D6383265F3F4F20353105C8
:1026F000A9F708950F931F939B01E091622EF0912B
:10270000632EE80FF11D8A0140816BE084E696E0BC
:10271000E8D31F910F9108950F931F93CF93DF93E9
:102720001F92CDB7DEB7082FAB019E012F5F3F4F41
:102730006BE084E696E0EDD3182F882319F06981C9
:10274000802FC9DF812F0F90DF91CF911F910F91C3
:1027500008950895EF92FF920F931F93CF937B01FB
:10276000C42F2EB13FB10091080410910904022B2F
:10277000132B682F83E090E20E9413516C2F83E0AB
:1027800090E20E941351612F83E090E20E94135166
:10279000602F83E090E20E9413516C2F70E0C7011C
:1027A000CF911F910F91FF90EF905BC408953F92DE
:1027B0004F925F926F927F928F929F92AF92BF9251
:1027C000CF92DF92EF92FF920F931F93CF93DF93FD
:1027D0007C01E901C0900020D09001209601225098
:1027E0003843C901A0E0B0E0481759076A077B07E2
:1027F00008F05CC0E2E0CE1AE0E4DE0A2A013B0108
:102800004C0E5D1E611C711C481659066A067B063B
:1028100048F0241B350B8E01021B130BE9013324F6
:10282000339403C000E010E0312C4601A12CB12C00
:10283000481559056A057B0510F5CA018E5F9F4B47
:102840002A013B014C0E5D1E611C711C4814590489
:102850006A047B0428F4AE01BC01C70135DA18C054
:10286000C41AD50AA601BC01C7012EDAAE014C1963
:102870005D096AE874E2C7018C0D9D1D07C04C1903
:102880005D09BA0166577B4DAE01C7010E943B53FB
:10289000311002C081E00BC001501109D8F3F801DA
:1028A000EC0FFD1FEE0DFF1D1082F6CF80E0DF91D3
:1028B000CF911F910F91FF90EF90DF90CF90BF903D
:1028C000AF909F908F907F906F905F904F903F90D0
:1028D0000895209186243091872480E098E0821B1F
:1028E000930BEAE8F4E29F012A583442281739078B
:1028F00010F41192F8CF8AE894E2809388249093A0
:10290000892480E098E0809386249093872482E055
:1029100090E4809300209093012042E050E060E03A
:1029200070E480E090E21EDAE091622EF091632E76
:1029300087818A3019F480E180938B2C86818A30DC
:1029400019F480E180938A2C0895809186249091D7
:10295000872490582091002030910120821B930BF6
:10296000089520E030E0F901EF59F14D8783265FAB
:102970003F4F20353105B9F7813049F018F08230EA
:1029800059F008951092852489EA93E109C0809353
:10299000852480E395E104C0109285248AEA93E1BE
:1029A00080935F2E9093602E08950F931F93CF9383
:1029B000DF931F92CDB7DEB7E091622EF091632EC8
:1029C0008481CFDF8AE894E28093882490938924DD
:1029D00000E018E0009386241093872441E050E043
:1029E000BE016F5F7F4F80E090E060DCE091882463
:1029F000F0918924DF01C8011D920197E9F78981CF
:102A0000882341F042E050E060E070E480E090E232
:102A10005BD917C082E090E480930020909301205E
:102A200042E050E060E070E480E090E29BD981E019
:102A3000898341E050E0BE016F5F7F4F80E090E00E
:102A400072DCE0915F2EF091602E40E060E070E07B
:102A50008FEF19950F90DF91CF911F910F910895EE
:102A60000F931F93CF93DF93AEB1BFB1C091080412
:102A7000D09109042091862430918724E42FF0E03E
:102A80008F010C5F1F4F2017310758F1CA2BDB2B2A
:102A9000245031092E1B3F0B20938624309387242A
:102AA000A0918824B09189248C9311964C9311970E
:102AB0001296DC931297CD0104968093882490930C
:102AC00089241396CC93DB01EC01415018F02D9131
:102AD0002993FBCFE80FF91FE0938824F093892412
:102AE00012C080E03EDFE091622EF091632E87817C
:102AF0008A3019F481E180938B2C86818A3019F415
:102B000081E180938A2CDF91CF911F910F910895DD
:102B10001F93CF93DF931F92CDB7DEB79E012F5F38
:102B20003F4FAC0163E08FEC97E0F3D1182F88237F
:102B300011F0898116DF812F0F90DF91CF911F91C6
:102B400008950F931F93E091622EF091632E8B01F5
:102B50009C01448163E08FEC97E0C3D11F910F91FA
:102B600008959B01AC0163E08FEC97E0F9C1CF932E
:102B7000DF938091862490918724811528E0920725
:102B800008F043C06091002070910120C0E0D8E0BF
:102B9000AE01481B590B80E090E8861B970B841709
:102BA000950798F18AE894E2DDD820918624309147
:102BB00087248091002090910120985F821B930BC5
:102BC0008093002090930120C21BD30BEAE8F4E22B
:102BD000CF018A5894428C179D0710F41192F8CFB8
:102BE0008AE894E2809388249093892480E098E096
:102BF000809386249093872442E050E060E070E464
:102C000080E090E2DF91CF91ADC8DF91CF91089540
:102C1000809185248111ABCF089543E550E061E6B2
:102C20007EE281E090E042CB43E550E061E67EE267
:102C300081E090E078CBCF93DF93CFEFC80FC8301F
:102C400078F5D82F0E94622199D9C093612E8AE02D
:102C5000C89F90011124C9018C59914D8093622E17
:102C60009093632EF901EF59F14D80850E94180D64
:102C7000E091622EF091632E848173DEE1D88FE1C2
:102C80008D0FE091622EF091632E9781943011F4B4
:102C900080938B2C9681943029F480938A2C02C0E7
:102CA00080E001C081E0DF91CF9108958091612E95
:102CB00099E04AE0915099F0282F30E02F5F3F4F84
:102CC00027703327822F429FF001439FF00D11247C
:102CD000EF59F14D2085222369F38F5FACCF089522
:102CE000FC019091612E9F5C908311820895CF9397
:102CF000FC01C081818181110CC0BF01E0915F2E78
:102D0000F091602E41E082E1199580ED8C0FCF911A
:102D100092CF80E0CF91089588E1809301060895D5
:102D200080918A2C823191F030F48031B9F050F4E6
:102D30008823A9F132C0833169F090EE980F983062
:102D400088F02BC088E08093050627C088E0809338
:102D5000070623C08091040683FF12C088E0809399
:102D600006061BC090918C2C9F5F923019F09093B7
:102D70008C2C15C010928C2C9091040693FD04C0ED
:102D800088E0809305060BC098E090930606803299
:102D900021F0815080938A2C02C010928A2C80915D
:102DA0008B2C823191F030F48031C1F050F48823C3
:102DB000A9F132C0833169F090EE980F983088F015
:102DC0002BC080E18093050627C080E18093070631
:102DD00023C08091040684FF12C080E18093060620
:102DE0001BC090918D2C9F5F923019F090938D2C89
:102DF000089510928D2C9091040694FD04C080E1FA
:102E000080930506089590E190930606803221F0A4
:102E1000815080938B2C089510928B2C08959B01E8
:102E2000AC016BE082E398E09BC020E030E0982F9B
:102E300090718870992321F0F901EF59F14D628763
:102E4000882321F0F901EF59F14D6187265F3F4F4B
:102E50002035310579F7992329F090E19093060602
:102E600010928B2C882329F088E08093060610921C
:102E70008A2C08950F931F939B018A01803131F4AE
:102E8000E091622EF091632E478107C0883049F4AB
:102E9000E091622EF091632E46816BE082E398E030
:102EA00020D01F910F9108950F931F93CF93DF931D
:102EB0001F92CDB7DEB7082FAB019E012F5F3F4FAA
:102EC0006BE082E398E025D0182F882319F0698100
:102ED000802FABDF812F0F90DF91CF911F910F914A
:102EE00008950F931F93FC01662379F0949161502C
:102EF000941309C0BF016F5F7F4FA801C9010E94F1
:102F00001F5381E003C0B196EFCF80E01F910F9176
:102F10000895CF92DF92EF92FF921F93CF93DF93AA
:102F2000EC017A016901162F112389F0BE016F5F50
:102F30007F4FC7010E9416531150892B31F4FE01B7
:102F4000C491F601C08381E003C0A196EDCF80E07B
:102F5000DF91CF911F91FF90EF90DF90CF90089578
:102F6000CF930196CCE26623C9F0FC01DA01AD01F2
:102F70007491772341F021153105A1F07D933196AD
:102F800021503109F4CF623030F02115310551F074
:102F90004F5F5F4FCC9361508196E5CF232B11F0AB
:102FA000FA011082CF910895809120028068809369
:102FB00020028091230280FFFCCF81E080932302D6
:102FC000A0911002B0911102AE5BB109B7FF02C02F
:102FD000A0E0B0E020E038EB4BE050E00E949952D6
:102FE000E091622EF091632E61157105844F91403E
:102FF000A8F48781873019F480E180938B2C868137
:10300000873019F480E180938A2C80915D2E88238B
:1030100089F0E0914F2EF091502E199487818730DE
:1030200019F481E180938B2C8681873019F481E13A
:1030300080938A2C0895BC0183E090E20C94C550E3
:10304000CF93DF93FC016491EC012196662331F06C
:1030500083E090E20E941351CE01F4CFDF91CF9133
:103060000895AB01BC0183E090E20C94EF5080E244
:10307000809362060895CF93DF9380918E2C8230E7
:1030800029F583E090E20E9478510E94474C83E04A
:1030900090E20E949451EC0197FD18C0E091622EDD
:1030A000F091632E8781833019F483E180938B2C18
:1030B0008681833019F483E180938A2C8C2F24D667
:1030C000811104C08C2FDF91CF91C2C7DF91CF91C6
:1030D000089580918E2C813079F028F08230D9F0DB
:1030E000833011F12EC08091680685FF2AC08FE0E1
:1030F0008093022081E00CC0809102208150809357
:10310000022081111EC00E94C90C0E94F24F82E071
:1031100080938E2C16C08091680685FD12C08FE0CA
:103120008093022083E0F4CF80910220815080932D
:103130000220811106C00E94B74F0E94F70C109226
:103140008E2C80918E2C823019F42ED70C942A214B
:103150000895E091622EF091632E8781823019F4F8
:1031600081E180938B2C8681823019F481E18093F8
:103170008A2C0895E091622EF091632E878182302F
:1031800019F480E180938B2C8681823019F480E1E0
:1031900080938A2C089583E090E20C94A05083E001
:1031A00090E20C94E75123E33BE03F932F932DE211
:1031B0003BE03F932F9326E23BE03F932F932FE199
:1031C0003BE03F932F932FE73AE03F932F9322E08A
:1031D0002F931F929F938F930E94A4538DB79EB7F6
:1031E0000E968DBF9EBF85E6089560E072E00E9456
:1031F000580D85E60895FB0120812F3349F4218184
:10320000211106C060E072E00E94970D85E60895E6
:10321000CB010E94690D882319F006DD84E608952C
:103220008AEC0895EF92FF920F931F93CF93DF9351
:10323000CDB7DEB7A097CDBFDEBF7C0100915D2E7C
:1032400010E00115110591F487E79AE09F938F93A1
:1032500082E08F931F92FF92EF920E94A4530F90EF
:103260000F900F900F900F900F9010C0E091572E7D
:10327000F091582ECE01019619959801AE014F5F3D
:103280005F4F60E072E0C7010E94BB0D85E6A0962B
:10329000CDBFDEBFDF91CF911F910F91FF90EF90D7
:1032A0000895DF92EF92FF920F931F93CF93DF93D6
:1032B000CDB7DEB7A097CDBFDEBF7B0100915D2EFD
:1032C00010E060E77AE0C7010E941653892B29F5C8
:1032D000D12CED2CF12CE016F10658F40E949F0D34
:1032E000E1E0F0E0EC0FFD1FEE0DFF1D8083D394B5
:1032F000F0CFE091592EF0915A2ECE0101961995FA
:10330000E0915F2EF091602E40915D2EBE016F5FC7
:103310007F4F83E1199584E60BC0A70160E270E05E
:10332000CE0101960E94F50D8017910711F38AECEA
:10333000A096CDBFDEBFDF91CF911F910F91FF907F
:10334000EF90DF900895FC0180915E2E882311F0AC
:1033500081E301C080E38083118285E60895FB014B
:103360002181211127C02081213321F481E0809324
:103370005E2E04C0203321F410925E2E84E6089560
:103380002F33C1F41F9220E32F931F9221E32F9339
:103390002AE63AE03F932F9322E02F931F929F93C8
:1033A0008F930E94A4538DB79EB70A968DBF9EBF80
:1033B00085E608958AEC08958EE490E174D48EE653
:1033C00008958EEC90E18AD48EE60895E0ECF4E066
:1033D00081818E7F81830E94B74F0E94BD0C84E65D
:1033E0000895E0ECF4E081818E7F81830E94B74FE5
:1033F0000E94C30C84E60895E7E4FEE225892F933A
:1034000024892F9327E63AE03F932F9322E02F93CE
:103410001F929F938F930E94A4538DB79EB70896D7
:103420008DBF9EBF85E6089520915D2E1F922F933C
:1034300024E63AE03F932F9322E02F931F929F932D
:103440008F930E94A4538DB79EB708968DBF9EBFE1
:1034500085E6089540E052E0BC0180E04BD985E666
:103460000895FB0120812F3341F42181211105C0F2
:1034700060E072E02AD985E6089580E04DD988237E
:1034800019F0D2DB84E608958AEC089540E052E01A
:10349000BC0181E02FD985E60895FB0120812F33FF
:1034A00041F42181211105C060E072E00ED985E66A
:1034B000089581E031D9882319F0B6DB84E60895B8
:1034C0008AEC089540E052E0BC0182E013D985E621
:1034D0000895FB0120812F3341F42181211105C082
:1034E00060E072E0F2D885E6089582E015D988237D
:1034F00019F09ADB84E608958AEC089540E052E0E2
:10350000BC0183E0F7D885E60895FB0120812F33C5
:1035100041F42181211105C060E072E0D6D885E632
:10352000089583E0F9D8882319F07EDB84E60895B6
:103530008AEC089540E052E0BC0180E19BDC85E626
:103540000895FB0120812F3341F42181211105C011
:1035500060E072E064DC85E6089580E1A5DC882304
:1035600019F062DB84E608958AEC089540E052E0A9
:10357000BC0188E07FDC85E60895FB0120812F33C4
:1035800041F42181211105C060E072E048DC85E64C
:10359000089588E089DC882319F046DB84E60895E5
:1035A0008AEC089560E072E0CCDA85E60895FB01CC
:1035B00020812F3341F42181211105C060E072E0A8
:1035C000D0DA85E60895CB01A3DA882319F02CDB45
:1035D00084E608958AEC0895CF93DF93EC01B5D982
:1035E000813028E0920718F09C01385002C020E09A
:1035F00030E03F932F939F938F9324E43AE03F93DF
:103600002F9382E08F931F92DF93CF930E94A45356
:103610008DB79EB70A968DBF9EBF85E6DF91CF918D
:10362000089587ED93E15AD38EE60895A0DA84E6F3
:1036300008954FD984E6089560E072E051DB85E695
:103640000895CB0154DB882319F0EEDA84E608955F
:103650008AEC08950E948E0F84E608950E94BE0FA2
:1036600084E608950E94200F84E6089580916806FC
:1036700080FD02C089E7089588E70895DF92EF9200
:10368000FF920F931F93CF93DF93EC010FEF11E0A5
:1036900086E7E82E8CE0F82E9CE2D92EB7018CE666
:1036A00094E20E941653892BD1F001151105B9F04F
:1036B000DE01F7012491ED012196C8010197222333
:1036C00041F00130110529F02C93DE0131968C0177
:1036D000F1CFDC928C0188E1E80EF11CDFCF21975D
:1036E000188285E6DF91CF911F910F91FF90EF90A7
:1036F000DF900895FC012091200220682093200291
:103700008091230280FFFCCF81E080932302A0916F
:103710001002B0911102AE5BB109B7FF02C0A0E088
:10372000B0E020E038EB4BE050E00E949952AA272D
:10373000BB279F938F932DE33AE03F932F9382E033
:103740008F931F92FF93EF930E94A4538DB79EB760
:1037500008968DBF9EBF85E608952EB13FB140917A
:10376000080450910904242B352B3F932F9327E312
:103770003AE03F932F9322E02F931F929F938F93D2
:103780000E94A4538DB79EB708968DBF9EBF85E655
:1037900008950F931F93CF93DF931F921F92CDB77E
:1037A000DEB78B01E091622EF091632E8581873028
:1037B00009F06FC0E0914F2EF091502E199581E0E5
:1037C0008093E32C60E270E0C8010E945C53009794
:1037D000F9F4F80101900020E9F73197E01BF10BB3
:1037E000E0FD59C0F695E795E130F10539F487E041
:1037F00090E08093452E9093462E37C053E0EE0F15
:10380000FF1F5A95E1F7E093452EF093462E2DC009
:1038100098012C5F3F4F82179307E9F5A80162E0FA
:1038200070E0CE0101960E94F50D898190E0982FFD
:1038300088272A81820F911D8093452E9093462ED2
:103840000B5F1F4FF80101900020E9F73197E01B53
:10385000F10BE0FD20C0F695E79533E0EE0FFF1F7A
:103860003A95E1F7E817F907B0F06091452E7091AD
:10387000462E695F7F4F83E0769567958A95E1F7DD
:10388000A80185E49DE20E94F50D0E947E298FEF3C
:1038900003C089EC01C08AEC0F900F90DF91CF91AB
:1038A0001F910F910895EF92FF920F931F93CF9363
:1038B000DF931F921F92CDB7DEB78B01E091622E8E
:1038C000F091632E8581873009F080C0E0914F2E02
:1038D000F091502E199582E08093E32C60E270E025
:1038E000C8010E945C537C01892B31F5F8010190DD
:1038F0000020E9F73197E01BF10BE0FD69C0F69578
:10390000E795E130F10539F487E090E08093452EAA
:103910009093462E47C063E0EE0FFF1F6A95E1F7D4
:10392000CF0169E070E00E948552E81BF90BE0933B
:10393000452EF093462E36C0C8010496E816F906C7
:1039400009F046C0A80162E070E0CE0101960E9435
:10395000F50D298130E0322F22278A81280F311D71
:103960002093452E3093462E2730310529F0C9018A
:1039700087709927892B61F587010F5F1F4FF80129
:1039800001900020E9F73197E01BF10BE0FD20C02A
:10399000F695E79543E0EE0FFF1F4A95E1F7E21732
:1039A000F307B0F06091452E7091462E695F7F4F0E
:1039B00083E0769567958A95E1F7A80185E49DE215
:1039C0000E94F50D0E947E298FEF03C089EC01C093
:1039D0008AEC0F900F90DF91CF911F910F91FF9084
:1039E000EF900895E091622EF091632E85818730EB
:1039F000A1F4E0914F2EF091502E199584E0809320
:103A0000E32C0E947B420E947E2985E892E4809309
:103A10009E2C90939F2C8FEF089589EC0895E09150
:103A2000622EF091632E85818730A1F4E0914F2EB4
:103A3000F091502E199583E08093E32C0E947B42F5
:103A40000E947E2985E892E480939E2C90939F2C7F
:103A50008FEF089589EC0895E091622EF091632E26
:103A600085818730A1F4E0914F2EF091502E199569
:103A700085E08093E32C0E947B420E947E2985E8AA
:103A800092E480939E2C90939F2C8FEF089589EC65
:103A90000895E091622EF091632E4085518564E691
:103AA000649F9001659F300D11243F932F9321E374
:103AB0003AE03F932F9322E02F931F929F938F938F
:103AC0000E94A4538DB79EB708968DBF9EBF85E612
:103AD0000895CF93DF931F921F92CDB7DEB7FB01FE
:103AE00020812F33B1F42181211113C02FEF39E050
:103AF0003F932F9322E02F931F929F938F930E94C7
:103B0000A4530F900F900F900F900F900F9085E699
:103B100027C089E592E089839A83CE0101969F931D
:103B20008F938BEF99E09F938F937F936F930E9476
:103B3000DA530F900F900F900F900F900F90892BEA
:103B400071F089819A818935F2E09F0740F4E09114
:103B5000622EF091632E8087918784E601C08AEC03
:103B60000F900F90DF91CF91089520911F202F93F8
:103B700020911E202F9328EF39E03F932F9322E0CE
:103B80002F931F929F938F930E94A4538DB79EB73C
:103B900008968DBF9EBF85E60895CF93DF931F9251
:103BA0001F92CDB7DEB7FB0120812F33B1F4218105
:103BB000211113C02FE02F932FEF2F9327EA39E025
:103BC0003F932F9322E02F931F929F938F930E94F6
:103BD000A453CDBFDEBF85E627C019821A82CE016D
:103BE00001969F938F9383EA99E09F938F937F939E
:103BF0006F930E94DA530F900F900F900F900F90D9
:103C00000F90892B81F089819A818115E0E19E07CF
:103C100050F4809338039093390380931E2090933F
:103C20001F2084E601C08AEC0F900F90DF91CF91A6
:103C30000895FB0120812F33D9F42181211121C066
:103C40001F9220E32F931F9221E32F932DE939E058
:103C50003F932F9322E02F931F929F938F930E9465
:103C6000A4538DB79EB70A968DBF9EBF85E6089573
:103C7000213311F4B3D303C0203319F4D4D384E631
:103C800008958AEC0895FC0180910008813021F4A8
:103C900080918C08833011F080E301C081E3808340
:103CA000118285E6089521E020939D2C20939C2C81
:103CB0002CE32093992C25E030E02093972C30932F
:103CC000982C1092912C1092922C1092932C10926E
:103CD000942C80938F2C9093902C089527E0209320
:103CE0009D2C2CE231E02093972C3093982C10924D
:103CF000912C1092922C1092932C1092942C8093D1
:103D00008F2C9093902C0895CF9390919D2C95306B
:103D1000E1F130F4933029F140F5913068F440C17D
:103D2000973009F4A7C008F445C0983009F4AAC038
:103D3000993009F432C134C1813041F41092952C8C
:103D40001092962C10929A2C83E0FBC0843011F4D0
:103D500066E08BC0883109F420C18B3109F0F3C0D3
:103D60001CC180939B2C84E0ECC090E040919B2C84
:103D70002FEF30E0241B31098217930721F485E0EF
:103D8000E0C0981739F165E169C02091952C309118
:103D9000962CA9014F5F5F4F4093952C5093962C22
:103DA000F901EC54F14D80834038510509F0CBC046
:103DB00086E0C7C020919B2C90919C2C291346C073
:103DC000E4EBFEE290E02FE2E433F207D1F221913E
:103DD000920FF9CF4091912C5091922C6091932C9D
:103DE0007091942CE0918F2CF091902C20E830E091
:103DF00084EB9EE21995C82F882311F180919C2CA9
:103E00008F5F80939C2C8091912C9091922CA0910B
:103E1000932CB091942C80589F4FAF4FBF4F8093FD
:103E2000912C9093922CA093932CB093942C66E0B9
:103E300083E090E20E94135182E080939D2CB1C0F8
:103E400068E183E090E20E9413510EC030E0892FB8
:103E500090E001972817390739F466E083E090E293
:103E60000E94135182E06DC068E183E090E20E94FD
:103E7000135193C0853119F410929C2C09C08B31D9
:103E800009F48BC0883109F463CF863009F05DC036
:103E900080919C2C8F5F80939C2C4091912C509111
:103EA000922C6091932C7091942CE0918F2CF09136
:103EB000902C20E830E084EB9EE21995C82F8823EF
:103EC000D1F161E083E090E20E94135160919C2C5B
:103ED00083E090E20E94135160919C2C609583E0F6
:103EE00090E20E94135160E870E084EB9EE2B9D842
:103EF000E4EBFEE260E08FE2E433F80719F0819131
:103F0000680FF9CF83E090E20E9413518091912CC9
:103F10009091922CA091932CB091942C80589F4F0B
:103F2000AF4FBF4F8093912C9093922CA093932CE2
:103F3000B093942C36C064E083E090E20E94135169
:103F400089E080939D2CC1E02CC08531E1F761E0D0
:103F500083E090E20E94135160919C2C83E090E2F8
:103F60000E94135160919C2C609583E090E20E9426
:103F7000135160E870E084EB9EE273D8E4EBFEE25C
:103F800060E02FE2E433F20719F08191680FF9CF76
:103F900083E090E20E941351D6CF10929D2CD3CF94
:103FA000C0E08C2FCF91089580919D2C813019F025
:103FB000873029F108958091972C9091982C9C013D
:103FC000215031092093972C3093982C892B31F56F
:103FD0008091992C9FEF980F9093992C882331F022
:103FE00065E183E090E20E94135102C010929D2C83
:103FF00085E090E08093972C9093982C0895809181
:10400000972C9091982C9C01215031092093972C4A
:104010003093982C892B11F410929D2C0895EDE487
:10402000FBE020E030E09491981309C041E2429F08
:10403000C001439F900D1124825B944F08952F5F20
:104040003F4FB1962930310571F780E090E0089537
:10405000CF92DF92EF92FF920F931F93CF93982FFF
:104060009F7D91549A3160F090ED980F9A3040F016
:104070008F3531F0982F9D7F9D3311F08032D1F430
:104080009FE9980F9A3108F480522091A32C309127
:10409000A42C2F3F91E0390708F0D3C0A9014F5F4E
:1040A0005F4F4093A32C5093A42CF901EC54F14D95
:1040B0008083C7C08D3009F095C0E091A32CF091AA
:1040C000A42CEC54F14D10821092A32C1092A42C2D
:1040D0008091A22C8111B5C08091B42E982F9F7D24
:1040E00009F495C08D7F8D3309F491C0E4EBFEE2B5
:1040F0007F01C191CC2331F0CF3321F0CD3311F0CA
:10410000C032B1F7F701108286E7C82E8CE0D82EB6
:1041100000E010E0B60184EB9EE20E941653892B6A
:1041200009F056C01092B42ECF3349F488E1809F35
:10413000F001819FF00D1124E457F34F18C0B7012F
:104140006F5F7F4FCD3349F488E1809FF001819FFD
:10415000F00D1124E657F34F20C0C11113C088E1C0
:10416000809FF001819FF00D1124EA57F34F2591B4
:1041700034912115310509F44DC084EB9EE2F9011B
:10418000199514C0C03209F045C088E1809FF00144
:10419000819FF00D1124E857F34F2591349121159B
:1041A0003105C1F184EB9EE2F90119958F3F99F534
:1041B00081E08093A22C8EB19FB1209108043091B0
:1041C0000904822B932B8093A02C9093A12C39C0AF
:1041D0000F5F1F4FF8E1CF0ED11C0632110509F019
:1041E00099CF15C0883061F48091A32C9091A42CB4
:1041F000009739F101978093A32C9093A42C21C0B0
:104200008B31F9F41092A32C1092A42C1AC088ECD4
:10421000C0E002C089ECC1E002DF0E9420188AE4FD
:104220009BE00E942018CC2361F08091B42E88235B
:1042300041F084EB9EE20E941B1887E49BE00E9401
:10424000201881E0CF911F910F91FF90EF90DF90A8
:10425000CF9008958091A22C882399F1E091622E4D
:10426000F091632E208531852115310551F18EB1F4
:104270009FB14091080450910904842B952B4091E3
:10428000A02C5091A12C841B950B64E670E00E9439
:10429000855262177307A8F01092A22C8BECBFDE38
:1042A0000E94201884E49BE00E942018E0919E2C3C
:1042B000F0919F2C309729F0199510929E2C109216
:1042C0009F2C08958091A22C8823A9F01092A22CF3
:1042D0008BECA5DE0E94201884E49BE00E9420184D
:1042E000E0919E2CF0919F2C309729F01995109217
:1042F0009E2C10929F2C0895CF93DF939091A22C27
:104300009923A9F0EB011092A22C89DE0E942018BB
:1043100081E49BE00E942018209749F0CE010E9482
:104320001B188EE39BE0DF91CF910C942018DF9156
:10433000CF910895EF92FF920F931F93CF937C013B
:104340009B01613081E0780710F020E031E08B01C3
:10435000021B130BA70160E072E084EB9EE20E9457
:10436000BB0D84EB9EE20E941B18C1E0013081E08E
:104370001807B0F01A956C2F70E0762F6627A7010A
:10438000460F571F20E032E060E072E084EB9EE2CF
:104390000E94BB0D84EB9EE20E941B18CF5FE6CF0C
:1043A0000115110591F0EC2FF0E0FE2FEE27A7018B
:1043B0004E0F5F1F980160E072E084EB9EE20E9466
:1043C000BB0D84EB9EE20E941B188BE39BE0CF9118
:1043D0001F910F91FF90EF900C942018809100088E
:1043E000813029F480918C08833009F408958091FC
:1043F000A72C811117C081E08093000893E090936F
:104400008C088093A52C1092A62C8EB19FB1209180
:10441000080430910904822B932B8093AC2C909349
:10442000AD2C0895089510928C0810920008E5EACA
:10443000FCE21082118208959091A52C9923F1F04D
:104440008091A62C811115C02091A52C2223B9F0B2
:104450002EB13FB14091080450910904242B352B13
:104460004091AC2C5091AD2C241B350B26343105DA
:1044700030F081E08093A62C892F089581E0089583
:10448000CF93DF931F92CDB7DEB78091A72C8823FF
:10449000D1F02EB13FB14091080450910904242B72
:1044A000352B4091AA2C5091AB2C241B350B4091FD
:1044B000A82C5091A92C2417350728F01092A72C6E
:1044C00089838CDF89810F90DF91CF910895A0E2DD
:1044D000B6E081E015968C93159724EB30E328B96C
:1044E00039B924E331E32AB93BB910B813B812B88B
:1044F00016B817B811B8E0E0F9E010A211A22FEF3A
:1045000030E026A337A32FEF3FEF20A731A780830A
:1045100088E8838380E1848783E087831C968C937B
:104520001C9782E01A968C9308951F920F920FB6F3
:104530000F92112408B60F9218BE0BB60F921BBE35
:104540008F939F93EF93FF93E0E0F9E013828FE75F
:1045500090E086AB97AB81E190E080AF91AFE0E077
:10456000FAE010A211A28FEF9FEF86A397A389E82C
:104570008383168281E084878EE0808310922A06EE
:10458000FF91EF919F918F910F900BBE0F9008BEFE
:104590000F900FBE0F901F9018951F920F920FB69D
:1045A0000F92112408B60F9218BE0BB60F921BBEC5
:1045B0002F933F938F939F93EF93FF932091280620
:1045C00093B1267081E009F080E0990F892B83B9BF
:1045D00082B1882309F464C012B883B18770873030
:1045E00059F51092000980E180930C091092030A9A
:1045F0001B9B03C08CEA94E002C08CE694E080939D
:10460000260A9093270A82E081B981E080930C0A00
:1046100083E08093060A86B197B1877049F090B124
:104620008F5F893011F09695FBCFE8B1F9B1908397
:1046300081E08093AE2C37C093B1892F8C7099F1B3
:1046400092FB992790F981E0982781B181111BC0D5
:1046500080B18695911190E8892B80B926B137B148
:104660002F5F3F4F26B937B927703327232BD9F453
:10467000E8B1F9B19F012F5F3F4F28B939B9808365
:1046800081E081B910C081B1813069F4EAB1FBB138
:104690009F012F5F3F4F2AB93BB9908311B803C0E8
:1046A00082B1809582B988E880930309FF91EF91E8
:1046B0009F918F913F912F910F900BBE0F9008BE4D
:1046C0000F900FBE0F901F9018951F920F920FB66C
:1046D0000F92112408B60F9218BE0BB60F921BBE94
:1046E0002F933F938F939F93EF93FF9381B18230EA
:1046F00008F49DC081B18D3008F099C0E1B1F0E0BF
:10470000EE0FFF1FEA5DFF4D0190F081E02D19943F
:104710008FE790E08093260A9093270A88C08E9AAC
:104720008EE0809340088FE390E08093260A909378
:10473000270A85E06FC08E9886E081B98FEF82B935
:1047400014B815B8E8B1F9B1808180B970C0009B88
:1047500005C08E9A82B1809582B901C08E9887E09B
:1047600059C0009B02C08E9801C08E9A80B1869578
:1047700080B984B195B1019684B995B984B195B1E8
:1047800087709927892B11F488E044C024B135B192
:1047900086B197B128173907B1F52BC0EAB1FBB143
:1047A000309711F0808101C082B1882311F08E9A78
:1047B00001C08E9889E02EC0EAB1FBB1309751F06C
:1047C0008081882311F08E9801C08E9A3196EAB9C3
:1047D000FBB908C082B1882311F08E9801C08E9A6F
:1047E0008FEF82B924B135B186B197B12817390757
:1047F00011F48AE00FC0E8B1F9B1CF01019688B990
:1048000099B9818180B986E005C08E988BE002C09D
:104810008E988CE081B90BC01092000A1092060AA3
:10482000109240081092410881E08093AF2CFF91D4
:10483000EF919F918F913F912F910F900BBE0F9011
:1048400008BE0F900FBE0F901F901895CF93DF9367
:10485000EEEAFCE210821182E0E4F6E0128A84E0E3
:104860008283C0E8D1E082E68E83A0E2B6E081E0F8
:1048700016968C93169711968C93119796E0129634
:104880009C93129751968C93519742E052964C9379
:1048900052971A961C921A9733E019963C9399E511
:1048A00098839AE5998390E491839683A0EBB0E096
:1048B00012962C911297207F12962C931297129693
:1048C0002C911297226012962C9320E32183268349
:1048D000908B868345833183E0E0F8E083E1818338
:1048E00021E030E026A337A320A731A7E0E8F8E0D5
:1048F00014868083E0E2F3E01382118288E08283F1
:1049000091E1908320911E2030911F20208F318FC4
:10491000E0E8F3E09CE39283808393838183DF91DB
:10492000CF91D5CDA0E2B6E01A961C921A97EEEA86
:10493000FCE210821182E0E0F9E01082138217821B
:1049400080E18487E0E0FAE010821382168281E041
:104950008487E0E4F8E01082118216968C938E989A
:104960000895CF93DF938091AE2C882309F47EC005
:104970001092AE2CC6B1D7B1C730D10508F471C0C2
:10498000AE01495F5F4F93E0569547959A95E1F7E1
:10499000E0915F2EF091602E64EB70E380E4199556
:1049A000E091622EF091632E8781883019F483E1C3
:1049B00080938B2C8681883019F483E180938A2C34
:1049C000E091552EF091562EBE0184EB90E319959F
:1049D000EC0194FF06C0DF7E84E391E38AB99BB9C2
:1049E00002C01AB81BB82097E1F1AE01495F5F4FD2
:1049F00083E0569547958A95E1F7E0915F2EF09117
:104A0000602E64EB70E381E41995E091622EF091E1
:104A1000632E8781893019F483E180938B2C868102
:104A2000893019F483E180938A2CC6B9D7B984EB15
:104A300090E388B999B910926008109261088FE0EC
:104A400090E0809366089093670888E090E08093F8
:104A50006A0890936B0883E28093410883E081B9F0
:104A600005C01092000A1092060A31DD8091AF2C29
:104A7000882329F01092AF2CDF91CF9128CDDF91C0
:104A8000CF910895CF93DF93E0E4F6E0128A84E0BB
:104A90008283C0E8D1E082E68E83A0E2B6E081E0C6
:104AA00016968C93169711968C93119796E0129602
:104AB0009C93129751968C93519742E052964C9347
:104AC00052971A961C921A9733E019963C931997AD
:104AD00099E598839AE5998390E491839683C0EB56
:104AE000D0E02A81207F2A832A8122602A8320E342
:104AF00021832683908B868345833183E0E0F8E031
:104B000093E1918321E030E026A337A320A731A7CA
:104B1000E0E8F8E014869083E0E2F3E0138211828B
:104B200098E0928341E1408340911E2050911F20E4
:104B3000408F518FE0E8F3E04CE34283908343835E
:104B4000918315968C93E0E0F9E08FE790E086A3DF
:104B500097A322A733A7108216828CE08783109236
:104B6000000A1092B02CE3EBFCE210821282118258
:104B7000DF91CF91089581E08093260654DCE0E038
:104B8000F9E010821782E0E0FAE010821782E3EB8E
:104B9000FCE211821282108208951F920F920FB6CA
:104BA0000F92112408B60F9218BE0BB60F921BBEBF
:104BB0002F933F938F939F93EF93FF93E091B02CAC
:104BC000F0E0EE0FFF1FE05CFF4D0190F081E02D63
:104BD000199410928C081092000886E18A95F1F7DA
:104BE00000C081E08093000883E080938C0818B8AF
:104BF0008091B43086B917B882E001C083E0809319
:104C0000B02C86C0309911C082B181110EC01092B3
:104C10008C081092000896E19A95F1F700C081E0A7
:104C20008093000883E080938C0884E0E8CF309B79
:104C300010C010928C081092000886E18A95F1F756
:104C400000C081E08093000893E090938C0882B9C3
:104C500001C012B886B1869586B984B195B1019725
:104C600084B995B9892B11F485E001C083E0809364
:104C7000B02C87B18F5F87B9877009F049C0E8B160
:104C8000EF5FE8B9F0E0EC54FF4C808186B940C09A
:104C900082B181110EC010928C081092000896E12A
:104CA0009A95F1F700C081E08093000883E080933B
:104CB0008C0886E0A4CF1092000982E591E001976C
:104CC000F1F700C0000082E08093870389E38093BE
:104CD000810384EB90E38AB99BB981E090E084B9C9
:104CE00095B980E886B98EB19FB1209108043091C2
:104CF0000904822B932B8093B12C9093B22C81E0EA
:104D00008093B52C18B817B81092B02C01C000C011
:104D1000FF91EF919F918F913F912F910F900BBE3B
:104D20000F9008BE0F900FBE0F901F9018951F9206
:104D30000F920FB60F92112408B60F9218BE0BB641
:104D40000F921BBE2F933F934F935F938F939F932D
:104D5000EF93FF931092070A1092000A10924709EE
:104D600010924009809181038E7F8093810384B1EA
:104D700095B187709927892BC9F0E4B1F5B186B157
:104D800044B155B193E0F695E7959A95E1F7EC5467
:104D9000FF4C90E04770552728E030E0241B350B8E
:104DA00002C0959587952A95E2F7808381E08093EC
:104DB000B42C1092B52C8FEF9FEF8093260A90931E
:104DC000270A1092200A1092210A1092060A1092C5
:104DD000070A1092030A84E08093000A87E0809318
:104DE000B02CFF91EF919F918F915F914F913F91E7
:104DF0002F910F900BBE0F9008BE0F900FBE0F901B
:104E00001F9018951F920F920FB60F92112408B69B
:104E10000F9218BE0BB60F921BBE8F93EF93FF93AA
:104E2000E0E8F3E081818F7C8183E0E0FAE088E8CC
:104E3000838381E08083FF91EF918F910F900BBE70
:104E40000F9008BE0F900FBE0F901F9018951F92E5
:104E50000F920FB60F92112408B60F9218BE0BB620
:104E60000F921BBE2F933F934F935F938F939F930C
:104E7000EF93FF938091600910926009109261098D
:104E800092E090934009813620F0813A08F063C0A7
:104E900077C086B1869586B984B195B1019684B9FB
:104EA00095B987709927892B41F4EAB1FBB1CF01FD
:104EB00001968AB99BB986B1808384B195B180FD92
:104EC00088C0369986C01092070A1092000A109284
:104ED000470910924009809181038E7F809381035E
:104EE00084B195B187709927892BC9F0E4B1F5B1E8
:104EF00086B144B155B193E0F695E7959A95E1F7FF
:104F0000EC54FF4C90E04770552728E030E0241B1C
:104F1000350B02C0959587952A95E2F7808381E04D
:104F20008093B42C1092B52C8FEF9FEF8093260ABC
:104F30009093270A1092200A1092210A1092060AD2
:104F40001092070A1092030A84E08093000A87E017
:104F50008093B02C3EC086B18695806886B984B1B6
:104F600095B1019684B995B987709927892B41F439
:104F7000EAB1FBB1CF0101968AB99BB986B18083B2
:104F800086B18695806886B984B195B1019684B959
:104F900095B987709927892B41F4EAB1FBB1CF010C
:104FA00001968AB99BB986B1808386B1869586B908
:104FB00084B195B1019684B995B987709927892BE9
:104FC00041F4EAB1FBB1CF0101968AB99BB986B130
:104FD0008083FF91EF919F918F915F914F913F91CE
:104FE0002F910F900BBE0F9008BE0F900FBE0F9029
:104FF0001F901895BF92CF92DF92EF92FF920F937E
:105000001F93CF93DF93CDB7DEB7DA95CDBFDEBF69
:105010008091B52C8823F1F08EB19FB140910804A6
:10502000509109042091B12C3091B22C842B952BF6
:10503000821B930B20912020309121202F5F3F4F26
:105040002817390738F414B815B881E08093B42CC8
:105050001092B52C15DA811144C1EED9882309F4D8
:1050600040C18091B52C81113CC18091B32C81113C
:1050700005C08091B42C882309F433C18091B02CF1
:10508000873041F48091200A9091210A8532914025
:1050900008F427C18091B42C882309F4A6C084B1F8
:1050A00095B1892B09F4A1C084B195B1089718F482
:1050B00014B815B89AC044B155B1495F5F4F63E069
:1050C000569547956A95E1F764EB70E3CE0101963A
:1050D0000E943B5384EB90E38AB99BB904B115B1AC
:1050E00014B815B8C12CD12C73E1B72EE8E0EE2E20
:1050F000F12CC016D10608F078C0F60153E0F69501
:10510000E7955A95E1F741E050E04C0F5D1FE40F41
:10511000F51F8081982F96959695908383708130A6
:1051200039F0E8F0823009F059C086B1869503C0A5
:1051300086B18695806886B984B195B1019684B9A7
:1051400095B987709927892B09F048C0EAB1FBB15E
:10515000CF0101968AB99BB986B180833FC084B1E3
:1051600095B187709927892BC1F0E4B1F5B186B16B
:1051700024B135B143E0F695E7954A95E1F7EC5453
:10518000FF4C90E027703327A701421B530B02C04E
:10519000959587954A95E2F78083E091622EF0918C
:1051A000632E8781883011F4B0928B2C86818830F1
:1051B00011F4B0928A2C44B155B1495F5F4F93E02E
:1051C000569547959A95E1F7E0915F2EF091602E04
:1051D00064EB70E382E4199581E001C080E052E065
:1051E000C50ED11C882309F484CF1092B32C1092E1
:1051F000B42C64B175B1E091552EF091562E84EB2C
:1052000090E3199584B995B984B195B1892B09F4C6
:1052100068C089E0809381031092000A1092200AEE
:105220001092210A8FE790E08093260A9093270A34
:105230008FE590E08093280A9093290A1092060A3D
:1052400080E180930C0A93E09093070A1092600922
:10525000109261092FEF3FEF2093660930936709A1
:1052600020E031E0209368093093690910924609E3
:1052700080934C0981E08093470981E1809380010C
:10528000109288011092800310922906E091622EFC
:10529000F091632E8781893019F483E180938B2C00
:1052A0008681893019F483E180938A2C44B155B109
:1052B000495F5F4F83E0569547958A95E1F7E09106
:1052C0005F2EF091602E64EB70E383E4199581E02A
:1052D0008093B02C12B8109220091092210980936B
:1052E0000009D395CDBFDEBFDF91CF911F910F9104
:1052F000FF90EF90DF90CF90BF90089514B815B84D
:1053000081E08093B32C6AC81092070A1092000AB9
:105310001092470910924009809181038E7F8093FB
:10532000810384B195B187709927892BC9F0E4B1C5
:10533000F5B186B144B155B193E0F695E7959A95EC
:10534000E1F7EC54FF4C90E04770552728E030E03F
:10535000241B350B02C0959587952A95E2F780832B
:1053600081E08093B42C1092B52C8FEF9FEF809347
:10537000260A9093270A1092200A1092210A10926E
:10538000060A1092070A1092030A84E08093000A2A
:1053900087E08093B02C1092B02C1092B42C109215
:1053A000B32C41C881E08093B82C1092B62C08959C
:1053B00081E08093B82C08950895CF92DF92EF9208
:1053C000FF920F931F93CF93DF93CDB7DEB725974F
:1053D000CDBFDEBF8C01FC0180819091B82C923052
:1053E000F1F038F0943079F120F1953009F44AC0A9
:1053F00049C121E09227292F21702093B62C9111C9
:1054000002C0863219F0823509F03CC184E4F8010B
:105410008083118282E08093B82C80E134C1909126
:10542000B62C911102C08632B1F0823509F04DC020
:1054300012C09091B62C911102C0863261F0823573
:1054400009F075C008C09091B62C911102C0863247
:1054500011F0823539F484E4F8018083118281E00F
:1054600089270DC0803309F41BC1823A09F434C185
:10547000803A09F451C1803509F4F6C081E0809387
:10548000B82C00C160E170E0C8010E948933882314
:10549000A1F080915E2E81110BC06091B72CF4E0D9
:1054A0006F9FB001112444E050E0C8010E94B20E89
:1054B00084E08093B82C8AE004C084E08093B82C08
:1054C00081E0F801808384E0DEC08339B9F6198277
:1054D0001A821B821C8288E8898343E050E060E0E6
:1054E00070E0CE0102960E94640EF8018181803244
:1054F00009F4ABC0803709F048C0F8019281898176
:105500009813C0C093818A819813BCC094818B8109
:105510009813B8C095818C819813B4C084E08083BF
:1055200061E070E0C8010E945E3383E02AC08539E3
:1055300009F0A4CF44E050E064E070E0CE010196B1
:105540000E94640EF8018181803209F47EC08037A8
:10555000E1F4F80192818981981394C093818A8142
:10556000981390C094818B8198138CC095818C8105
:10557000981388C0108261E070E0C8010E945E3319
:1055800084E08093B82C88E17EC0E82EE2949FE00E
:10559000E9222EEF2E0D8F70F82E88E090E08F1903
:1055A00091094FEF50E06A0102C0D594C7948A95E3
:1055B000E2F7253021F0243059F5FF20E9F044E0EE
:1055C00050E0B8016E5F7F4FCE0101962D830E949F
:1055D0002E532D81892B61F49A81898189279B81A2
:1055E00089279C818927F801968189278C2169F177
:1055F000243071F4F11046C044E050E0B8016E5F11
:105600007F4FCE0101960E942E53892BF1F03AC0B4
:105610002430C0F5E22EF12CA701B8016E5F7F4F58
:10562000CE0101960E942E53892B61F5D801AE0D53
:10563000BF1DE1E0F0E0EC0FFD1FEE0DFF1D129627
:105640009C9180818927C822E9F42981F80120836F
:105650003A8131839B8192838C8183832327922794
:105660008927848388E20FC0F8018181811142C0BB
:1056700062E070E0C8010E948933882309F420CFDA
:105680001092B82C80E090E02596CDBFDEBFDF9170
:10569000CF911F910F91FF90EF90DF90CF900895E1
:1056A000F801F18062E070E0C8010E94893388232C
:1056B00009F406CFFFE0FF15E8F084E0F89EB001A2
:1056C000112440E150E0C8010E94640E60E170E0E6
:1056D000C801F4D780E9D7CFF801F18066E070E027
:1056E000C8010E948933882309F4EACE8EEF8F0D1A
:1056F0008E3018F0F8011082E6CE80915E2E811176
:10570000DACEF4E0FF9EB001112444E050E0C8017D
:1057100002960E94B20ECFCEF801F18062E070E0F6
:10572000C801F7D7882309F4CBCE8EEF8F0D8E30CA
:1057300008F7F092B72C85E0BCCECF93DF93EC0155
:1057400043E050E060E070E00E94640E44E050E00E
:1057500064E070E0CE010396DF91CF910C94640E6B
:105760000F931F93CF93DF931F921F92CDB7DEB796
:105770008C01FC0190818181892798E88927928199
:1057800089278A83948183818927958189279681B6
:105790008927898343E050E060E070E0C8010E94FF
:1057A000B20E41E050E063E070E0CE0102960E944C
:1057B000B20E44E050E064E070E0C80103960E943D
:1057C000B20E41E050E068E070E0CE0101960E9428
:1057D000B20E0F900F90DF91CF911F910F9108950E
:1057E00081E08093DC2C84E090E08093BB2C90934C
:1057F000BC2C88E08093BA2C1092B92C089581E0DB
:105800008093DC2C84E490E08093BB2C9093BC2CA0
:1058100088E08093BA2C1092B92C089581E080938F
:10582000DC2C82E090E08093BB2C9093BC2C88E130
:105830008093BA2C1092B92C089581E08093DC2CCF
:10584000089508958F929F92AF92BF92CF92DF9268
:10585000EF92FF920F931F93CF93DF93CDB7DEB7F5
:105860006397CDBFDEBF8C015B018091DC2C67307C
:10587000710501F5F8019081882311F0963211F03D
:105880009235C1F421E0811120E02093B92C4091A0
:10589000BB2C3091BC2C211102C0963211F09235F4
:1058A00039F4F801408331838FEF8093BD2C38C0E9
:1058B000A12CB12C853009F49CC050F48230A9F1A0
:1058C000C8F0833009F469C0843009F482C0C2C5CD
:1058D000883009F425C138F4863009F49AC087303D
:1058E00009F4D3C0B7C5893009F44FC38D3008F42B
:1058F00071C3B0C591E08927982F91709093B92C0E
:105900003091BB2C2091BC2CF8019081811102C0F8
:10591000963219F0923509F019C4F80130832183C9
:1059200084E08093DC2C80E196C5F8018081982F7B
:105930009D7F913419F48AE0808367C38033C1F47A
:1059400062E070E0C801E5D6882309F49CC0F80144
:105950006181F0E16F9FB001112440E150E0C80186
:105960000E94640E60E170E0C801A8D680E973C5AA
:10597000803A79F462E070E0C801CBD6882309F45C
:1059800082C0F80181818093D32C83E08093DC2C4A
:10599000D2CF803509F05EC552C060E170E0C80129
:1059A000B8D6882389F080915E2E81110BC060915A
:1059B000D32CF0E16F9FB001112440E150E0C80109
:1059C0000E94B20E8AE001C081E0F801808382E08B
:1059D0001AC39091B92C3091BB2C2091BC2CF801AA
:1059E0008081911102C0863211F1823509F0B6C36F
:1059F0001EC09091B92C3091BB2C2091BC2CF80189
:105A00008081911102C0863291F0823509F053C431
:105A10000EC09091B92C3091BB2C2091BC2CF80178
:105A20008081911102C0863211F0823531F4F80183
:105A30003083218381E0892786C38035C9F4F8014A
:105A40008181882319F0F8011082DFC262E070E0E2
:105A5000C8015FD68823B9F0E0915F2EF091602EE7
:105A600040E060E070E081E919951092DC2CF2C40E
:105A700090EA980F923008F0C1C462E070E0C8016B
:105A800048D68111EAC481E054C2C8010E945C3941
:105A900064E07801F4E0EF0EF11CC7010E94733C52
:105AA000E0915F2EF091602E44E0B70180EA1995F5
:105AB000F80194818091D42C981329C0958180910C
:105AC000D52C981324C096818091D62C98131FC092
:105AD00097818091D72C98131AC08091D82C8083FD
