:100000000C94AB0B0C94D00B0C94D00B0C94D00B29
:100010000C94D00B0C94D00B0C94D00B0C94D00BF4
:100020000C94D00B0C94D00B0C94420D0C94D00B70
:100030000C94D00B0C94D00B0C94D00B0C94D00BD4
:100040000C94D00B0C94D00B0C94D00B0C94D00BC4
:100050000C94D00B0C94D00B0C94D00B0C94D00BB4
:100060000C94D00B0C94D00B0C94D00B0C94D00BA4
:100070000C94D00B0C94D00B0C94D00B0C94D00B94
:100080000C94D00B0C94D00B0C9417240C94D00B24
:100090000C94D00B0C94D00B0C94D00B0C94D00B74
:1000A0000C94D00B0C94D00B0C94D00B0C94D00B64
:1000B0000C94D00B0C94D00B0C94D00B0C94E62425
:1000C0000C94D00B0C9460280C94D00B0C94D00B97
:1000D0000C94D00B0C94D00B0C94D00B0C94D00B34
:1000E0000C94D00B0C94D00B0C94D00B0C94D00B24
:1000F0000C94D00B0C94D00B0C94D00B0C94D00B14
:100100000C94D00B0C94D00B0C94D00B0C94D00B03
:100110000C94D00B0C943B280C94D00B0C94D00B6B
:100120000C94D00B0C94D00B0C94D00B0C94D00BE3
:100130000C94D00B0C94D00B0C94D00B0C944F243B
:100140000C94090C0C9456270C94D00B0C94D00BE7
:100150000C94D00B0C94B2270C94D00B0C94D00BB5
:100160000C94D00B0C94D00B0C94D00B0C94D00BA3
:100170000C94D00B0C94D00B0C94D00B0C94D00B93
:100180000C94D00B0C94D00B0C94D00B0C94D00B83
:100190000C94D00B0C94D00B0C94D00B0C94D00B73
:1001A0000C94D00B0C94D00B0C94D00B0C94D00B63
:1001B0000C94D00B0C94D00B0C94D00B0C94D00B53
:1001C0000C94D00B0C94D00B0C94D00B0C94D00B43
:1001D0000C94D00B0C94D00B0C94D00B0C94D00B33
:1001E0000C94D00B0C94D00B0C94D00B0C94D00B23
:1001F0000C94D00B0C940C530C94D00B6364696E6C
:100200006F70737578585B001E03430068006100CF
:100210006D0065006C0065006F006E002D004D00E4
:1002200069006E00690000002A034B006100730042
:100230007000650072002000260020004F0073004F
:10024000770061006C006400200047006D006200D0
:10025000480000000403090409023E00020100C036
:10026000320904000001020201000524001001040B
:100270002402060524060001070582030800FF0981
:10028000040100020A00000007050402100005072F
:100290000583021000051201100102000008D016AB
:1002A000B20401000102DC01F20DF30DF40DF50DB5
:1002B000F60DF70DEC0DED0DF10DF00D0000000148
:1002C000A72517263626C62CE22CE62CEC0DE72CAB
:1002D0000530183040000700A72517263626DA2CEF
:1002E000E22CE62CEC0DE72C05301830500007000E
:1002F000A72517263626DE2CE22CE62CEC0DE72C63
:1003000005301830A4000700A725172636265830D8
:1003100085308930EC0D8A306B3787370004040054
:10032000A72517263626673085308930EC0D8A30B0
:100330006B37873700040700A72517263626763047
:1003400085308930EC0D8A306B3787370010040018
:10035000A72517263626763085308930EC0D8A3071
:100360006B37873700100700A72517263626F50DAF
:10037000F60DF70DEC0DED0DF10DF00D0000000187
:10038000C7264427FC2862466546724673461249D2
:10039000F10DF00D00000000004E4F4E4500000032
:1003A000000000000000000000000000000000004D
:1003B000000000000000000000014D465F554C5455
:1003C00052414C4947485400000000000000000022
:1003D00000000000000000000000024D465F554C88
:1003E0005452414C494748545F4556315F3830427A
:1003F0000000000000000000000000034D465F55B3
:100400004C5452414C494748545F4556315F313650
:10041000344200000000000000000000044D465F70
:10042000434C41535349435F314B000000000000EF
:1004300000000000000000000000000000054D4624
:100440005F434C41535349435F314B5F3742000098
:100450000000000000000000000000000000064D49
:10046000465F434C41535349435F344B0000000007
:100470000000000000000000000000000000000775
:100480004D465F434C41535349435F344B5F3742C2
:10049000000000000000000000000000000000005C
:1004A0000849534F3134343433415F534E49464643
:1004B000000000000000000000000000000000003C
:1004C000000949534F3134343433415F524541447C
:1004D0004552000000000000000000000000000085
:1004E0000000010000010001010000010100010005
:1004F00000010001010001000001010000010001F4
:1005000001000001010001000001010000010001E3
:1005100001000100000100010100000101000100D3
:1005200000010001010001000001010000010001C3
:1005300001000100000100010100000101000100B3
:1005400000010100000100010100000101000100A3
:100550000001000101000100000101000001000193
:100560000100000101000100000101000001000183
:100570000100010000010001010000010100010073
:100580000001010000010001010000010100010063
:100590000001000101000100000101000001000153
:1005A0000100010000010001010000010100010043
:1005B0000001000101000100000101000001000133
:1005C0000100000101000100000101000001000123
:1005D0000100010000010001010000010100010013
:1005E0000001008040C020A060E0109050D030B0EA
:1005F00070F0088848C828A868E8189858D838B80B
:1006000078F8048444C424A464E4149454D434B422
:1006100074F40C8C4CCC2CAC6CEC1C9C5CDC3CBCAA
:100620007CFC028242C222A262E2129252D232B216
:1006300072F20A8A4ACA2AAA6AEA1A9A5ADA3ABAAA
:100640007AFA068646C626A666E6169656D636B6C2
:1006500076F60E8E4ECE2EAE6EEE1E9E5EDE3EBE4A
:100660007EFE018141C121A161E1119151D131B1E0
:1006700071F1098949C929A969E9199959D939B97A
:1006800079F9058545C525A565E5159555D535B592
:1006900075F50D8D4DCD2DAD6DED1D9D5DDD3DBD1A
:1006A0007DFD038343C323A363E3139353D333B386
:1006B00073F30B8B4BCB2BAB6BEB1B9B5BDB3BBB1A
:1006C0007BFB078747C727A767E7179757D737B732
:1006D00077F70F8F4FCF2FAF6FEF1F9F5FDF3FBFBA
:1006E0007FFF004E4F4E450000000000000000005C
:1006F00000000000000000000000000000000000FA
:10070000000000015549445F52414E444F4D0000E6
:1007100000000000000000000000000000000000D9
:1007200000000000025549445F4C4546545F494E65
:100730004352454D454E54000000000000000000AB
:100740000000000000035549445F52494748545F88
:10075000494E4352454D454E5400000000000000F4
:10076000000000000000045549445F4C4546545FBA
:1007700044454352454D454E5400000000000000E2
:1007800000000000000000055549445F52494748F9
:10079000545F44454352454D454E5400000000000F
:1007A0000000000000000000064359434C455F5321
:1007B000455454494E47530000000000000000001B
:1007C0000000000000000000000753544F52455F36
:1007D0004D454D000000000000000000000000003A
:1007E0000000000000000000000008524543414C9A
:1007F0004C5F4D454D00000000000000000000006F
:10080000000000000000000000000009544F4747AE
:100810004C455F4649454C44000000000000000084
:100820000000000000000000000000000A53544FC8
:1008300052455F4C4F4700000000000000000000E0
:10084000000000000000000000000000000B434C0E
:100850004F4E4500000000000000000000000000B6
:100860000000000000000000000000000000004F39
:1008700046460000000000000000000000000000EC
:100880000000000000000000000000000000000167
:100890004D454D4F5259000000000000000000007F
:1008A0000000000000000000000000000000000048
:1008B000024C495645000000000000000000000006
:1008C0000000000000000000000000000000000028
:1008D00000004E4F4E4500000000000000000000E8
:1008E0000000000000000000000000000000000008
:1008F000000001504F5745524544000000000000E1
:1009000000000000000000000000000000000000E7
:10091000000000025445524D494E414C5F434F4E3A
:100920004E00000000000000000000000000000079
:1009300000000000035445524D494E414C5F52584F
:1009400054580000000000000000000000000000FB
:1009500000000000000453455454494E475F43488B
:10096000414E47450000000000000000000000006C
:10097000000000000000054D454D4F52595F535493
:100980004F5245440000000000000000000000003D
:1009900000000000000000064D454D4F52595F43D6
:1009A00048414E47454400000000000000000000A0
:1009B000000000000000000008434F4445435F5220
:1009C00058000000000000000000000000000000CF
:1009D00000000000000000000009434F4445435F51
:1009E000545800000000000000000000000000005B
:1009F00000000000000000000000074649454C448C
:100A00005F44455445435445440000000000000045
:100A100000000000000000000000000A4C4F474D9D
:100A2000454D5F46554C4C000000000000000000A2
:100A300000000000000000000000000025632C25DD
:100A4000630025356400416E7920696E74656765C1
:100A5000722066726F6D203020746F2025752E20F5
:100A60005265666572656E636520766F6C7461674A
:100A7000652077696C6C2062652028564343202AE4
:100A8000205448524553484F4C44202F203430398D
:100A90003529206D562E002575002535640030203F
:100AA0003D206E6F2074696D656F75740D0A312D70
:100AB000363030203D20313030206D73202D2036EF
:100AC00030303030206D732074696D656F7574003F
:100AD0002575206D730025342E345800253575207A
:100AE0006D56002575202866726F6D2077686963E2
:100AF00068202575206E6F6E2D766F6C6174696C41
:100B000065290025750025750025632C2563005295
:100B1000414E444F4D004E4F205549442E004368EE
:100B2000616D656C656F6E4D696E692052657647C3
:100B3000202553207573696E67204C55464120254A
:100B40005320636F6D70696C6564207769746820E9
:100B50004156522D4743432025532E204261736551
:100B600064206F6E20746865206F70656E2D736FE2
:100B700075726365204E464320746F6F6C20436826
:100B8000616D656C656F6E4D696E692E2068747459
:100B900070733A2F2F6769746875622E636F6D2FBB
:100BA000656D7365632F4368616D656C656F6E4D30
:100BB000696E6920636F6D6D69742025530031384B
:100BC000303132350031353131313500352E342E6A
:100BD000300063366432393638000D0A000D0A00E1
:100BE0000D0A000D0A000D0A000D0A0064313030B4
:100BF0003A4F4B0000000000000000000000000021
:100C0000000000000000000000000000006531301E
:100C1000313A4F4B2057495448205445585400000E
:100C200000000000000000000000000000006E3125
:100C300031303A57414954494E4720464F52205887
:100C40004D4F44454D00000000000000000000C86A
:100C50003230303A554E4B4E4F574E20434F4D4D4C
:100C6000414E4400000000000000000000000000B1
:100C7000C93230313A494E56414C494420434F4DD8
:100C80004D414E44205553414745000000000000AF
:100C900000CA3230323A494E56414C494420504104
:100CA00052414D4554455200000000000000000034
:100CB0000000783132303A46414C53450000000084
:100CC0000000000000000000000000000000000024
:100CD000000000793132313A54525545000000008D
:100CE0000000000000000000000000000000000004
:100CF00000000000CB3230333A54494D454F555433
:100D000000000000000000000000000000000000E3
:100D1000000000000056455253494F4E00000000AD
:100D20000000000000000000000000E119434F4EE9
:100D300046494700000000000000000000000000DD
:100D400000091A031A554944000000000000000081
:100D50000000000000000000006A1A2B1A524541F2
:100D6000444F4E4C590000000000000000000000FD
:100D700000C81ABC1A55504C4F41440000000000F6
:100D80000000000000F51A000000000000444F576A
:100D90004E4C4F41440000000000000000FA1A00D1
:100DA00000000000005245534554000000000000C0
:100DB0000000000000FF1A0000000000005550472E
:100DC000524144450000000000000000000A1B00E2
:100DD00000000000004D454D53495A4500000000F9
:100DE0000000000000000000000000151B554944F1
:100DF00053495A45000000000000000000000000B8
:100E00000000002D1B52425554544F4E000000006C
:100E10000000000000000000004A1B431B52425526
:100E200054544F4E5F4C4F4E4700000000000000EE
:100E300000661B5F1B4C425554544F4E000000008F
:100E4000000000000000000000821B7B1B4C42558C
:100E500054544F4E5F4C4F4E4700000000000000BE
:100E6000009E1B971B4C4544475245454E000000D1
:100E7000000000000000000000BA1BB31B4C4544FA
:100E80005245440000000000000000000000000087
:100E900000D61BCF1B4C4F474D4F44450000000070
:100EA000000000000000000000F01BEB1B4C4F474F
:100EB0004D454D0000000000000000000000000053
:100EC000000000051C4C4F47444F574E4C4F4144C7
:100ED00000000000002A1C0000000000004C4F47EA
:100EE00053544F524500000000000000002F1C002A
:100EF00000000000004C4F47434C454152000000A9
:100F00000000000000321C000000000000534554A7
:100F100054494E470000000000000000000000009F
:100F2000003A1C351C434C454152000000000000B3
:100F30000000000000421C00000000000053544F5D
:100F400052450000000000000000000000461C00A8
:100F50000000000000524543414C4C0000000000DE
:100F600000000000004A1C0000000000004348414F
:100F70005247494E470000000000000000000000FA
:100F80000000004E1C48454C5000000000000000CE
:100F90000000000000561C000000000000525353E7
:100FA00049000000000000000000000000000000F8
:100FB000000000921C5359535449434B0000000059
:100FC0000000000000000000000000C51C53454E5A
:100FD000445F524157000000000000000000006B19
:100FE0001D0000000053454E4400000000000000BA
:100FF00000000000000000E11C0000000047455414
:1010000055494400000000000000000000271E00B9
:10101000000000000044554D505F4D465500000053
:1010200000000000000A1E000000000000494445C6
:101030004E544946590000000000000000441E00C4
:10104000000000000054494D454F55540000000079
:10105000000000000000000000811E611E54485284
:101060004553484F4C4400000000000000000000C1
:1010700000EE1ED41E4155544F43414C494252414B
:101080005445000000811F00000000000046494553
:101090004C440000000000000000000000000000C0
:1010A00000431F6D1F434C4F4E45000000000000E1
:1010B00000000000009E1F00000000000000000073
:1010C0000000000000000000000000000000000020
:1010D000000000000053414B3A09005549443A09C9
:1010E00000415451413A09005468657265206973A2
:1010F000206174206C65617374206F6E65206D6F64
:101100007265206361726420747970652063616E1A
:101110006469646174652C206275742074686572FA
:101120006520776173206E6F7420656E6F756768D8
:10113000207465726D696E616C2062756666657299
:101140002073706163652E0D0A000D0A0004000112
:101150000901000000000000000000000000000085
:10116000000000004E585000000000000000000089
:10117000000000004D4946415245204D696E69000E
:10118000000000000000000000000000000000005F
:10119000000000000000000000000000000000004F
:1011A000000000000000000000000000000000003F
:1011B0000000000004000108010000000000000021
:1011C00000000000000000000000004E5850000029
:1011D00000000000000000000000004D49464152A0
:1011E0004520436C617373696320316B000000001C
:1011F00000000000000000000000000000000000EF
:1012000000000000000000000000000000000000DE
:1012100000000000000000000000000200011801B2
:1012200000000000000000000000000000000000BE
:1012300000004E58500000000000000000000000B8
:1012400000004D494641524520436C617373696308
:1012500020346B00000000000000000000000000CF
:10126000000000000000000000000000000000007E
:10127000000000000000000000000000000000006E
:101280000000440001000100000000000000000018
:101290000000000000000000004E58500000000058
:1012A0000000000000000000004D4946415245206A
:1012B000556C7472616C696768740000000000000E
:1012C000000000000000000000000000000000001E
:1012D000000000000000000000000000000000000E
:1012E00000000000000000000044030120017577A9
:1012F00081028000000000000000000000000500E6
:101300004E585000000000000000000000000000E7
:101310004D49464152452044455346697265000097
:1013200000000000000000000000000000000000BD
:1013300000000000000000000000000000000000AD
:10134000000000000000000000000000000000009D
:101350004403012001757781028000000000000035
:10136000000000000005004E585000000000000082
:10137000000000000000004D494641524520444510
:101380005346697265204556310000000000000098
:10139000000000000000000000000000000000004D
:1013A000000000000000000000000000000000003D
:1013B0000000000000000004030128013877B14A52
:1013C000434F503331000000000000000901494242
:1013D0004D000000000000000000000000004A4333
:1013E0004F503331000000000000000000000000FA
:1013F00000000000000000000000000000000000ED
:1014000000000000000000000000000000000000DC
:101410000000000000000000000000000000480084
:101420000120017877B1024A434F507632343100BF
:101430000000000C0149424D0000000000000000C7
:1014400000000000004A434F5033312076322E34E2
:101450002E3100000000000000000000000000002D
:10146000000000000000000000000000000000007C
:10147000000000000000000000000000000000006C
:10148000000000000048000120013833B14A434FFA
:10149000503431563232000000000C0149424D00F8
:1014A0000000000000000000000000004A434F5010
:1014B00034312076322E320000000000000000009F
:1014C000000000000000000000000000000000001C
:1014D000000000000000000000000000000000000C
:1014E00000000000000000000000000004000128CF
:1014F000013833B14A434F50343156323331000052
:10150000000D0149424D00000000000000000000F5
:101510000000004A434F5034312076322E332E31B2
:1015200000000000000000000000000000000000BB
:1015300000000000000000000000000000000000AB
:10154000000000000000000000000000000000009B
:1015500000000004000188010000000000000000FD
:1015600000000000000000000000496E66696E6522
:101570006F6E00000000000000004D4946415245DA
:1015800020436C617373696320316B0000000000BD
:10159000000000000000000000000000000000004B
:1015A000000000000000000000000000000000003B
:1015B000000000000000000000000200019801008F
:1015C000000000000000000000000000000000001B
:1015D0000047656D706C757300000000000000002E
:1015E000004D50434F530000000000000000000079
:1015F00000000000000000000000000000000000EB
:1016000000000000000000000000000000000000DA
:1016100000000000000000000000000000000000CA
:1016200000000C01000000000000000000000000AD
:101630000000000000000000496E6E6F766973695B
:101640006F6E2052265400004A6577656C000000DA
:10165000000000000000000000000000000000008A
:10166000000000000000000000000000000000007A
:10167000000000000000000000000000000000006A
:10168000000000000000000002000138010000001E
:101690000000000000000000000000000000004EFC
:1016A0006F6B696100000000000000000000004D49
:1016B000494641524520436C617373696320346B22
:1016C000202D20656D756C6174656420283632317B
:1016D0003220436C617373696329000000000000CD
:1016E00000000000000000000000000000000008F2
:1016F00000013801000000000000000000000000B0
:101700000000000000004E6F6B69610000000000E7
:101710000000000000004D494641524520436C61E5
:101720007373696320346B202D20656D756C617453
:101730006564202836313331204E464329000000AD
:101740000000000000000000000000000000000099
:1017500000000000000011241FBECFEFCDBFDFE36B
:10176000DEBF00E00CBF18BE19BE1ABE1BBE14E2DD
:10177000A0E0B0E2E8E6FAEB00E00BBF02C00790A1
:101780000D92A235B107D9F71BBE25E3A2E5B4E25D
:1017900001C01D92A03AB207E1F77ED00C94325DF1
:1017A00068C13BB78BBFFB01879196913BBF089502
:1017B0003BB78BBFCB0142E20D94F00F3BB70B015F
:1017C00043E20D94F00F3BB78BBFCB0145E20D9484
:1017D000F00F3BB746E208C02091CF0127FDFCCFB8
:1017E00022272093CA0108954093CA0128ED31E0D1
:1017F000209334003093CB016091C4017091C501F6
:101800008091C60199270895FC014093CA018491F3
:1018100008950F9200240F932F933F934F935F935C
:101820000FB70F93EF93FF93EAB1FBB151914427A8
:1018300035B124B1569578F400928C0800920008D6
:1018400006E10A95F1F700C001E00093000803E00B
:1018500000938C0804C00AE10A95F1F700002150BA
:10186000304019F40E94A0270CC04F5F477011F45C
:10187000519102C000C000C00AE00A95F1F700C013
:10188000D9CFFF91EF910F910FBF5F914F913F9192
:101890002F910F910F9018950ED10E9406170E945C
:1018A000A217A8D21092520684E08093420682E6E4
:1018B00080938601C1E0C0932606C093210686E08E
:1018C00080932206C093310602E000933206109204
:1018D0002A0613E01093290689E5809380018AE5A2
:1018E0008093810180E48093410680934606909125
:1018F000B200907F9093B2009091B200926090936A
:10190000B20090E390934106909346068093500670
:10191000C0934606009345061093410683E18093E9
:10192000010821E030E02093260830932708209317
:1019300028083093290810928C0880938008109210
:10194000230310922103D8E0D093220381E18093F6
:101950002003E091B12EF091B22E82859385809381
:101960003803909339038CE380938203D0938003F0
:1019700080938303D093810366D10E944419B7D129
:1019800017D7C09300021092010200930202109335
:101990000402C0932002D09321020E94991517D10E
:1019A000D2E0C1E18091030481FF25C08091010450
:1019B00080FDFCCFD09303040E94A617AED10E94F5
:1019C0007719FED60E940117E091A22EF091A32E66
:1019D00019950E948C220E94E318E091B12EF0919B
:1019E000B22E8781813011F4C0935B2C86818130C7
:1019F00011F4C0935A2C0E9448199CD7E091A02E54
:101A0000F091A12E1995E0919A2EF0919B2E1995A7
:101A1000C9CF292F33272230310559F02330310522
:101A200069F021303105E9F482E190E026E932E005
:101A30001CC08EE390E028E532E017C09927813082
:101A4000910549F028F0029761F4E8E0F2E005C062
:101A5000E4E5F2E002C0E8E2F2E0849190E09F0168
:101A600004C080E090E020E030E0FA012083318380
:101A700008951F920F920FB60F92112408B60F927D
:101A800018BEFFCF1F920F920FB60F92112408B607
:101A90000F9218BE8F939F938EB19FB180589F4F26
:101AA0008EB99FB99F918F910F9008BE0F900FBE76
:101AB0000F901F9018958091780083FF0AC088E0EE
:101AC0008093780088ED84BF81E0809380000D943E
:101AD000FE008BEC809352008091500088608093D0
:101AE00050008091510083FFFCCF82EC8093550021
:101AF000809150008061809350008091510084FF5C
:101B0000FCCF88ED84BF84E0809340001EB81FB8EE
:101B100081E0809343002FE730E020930A04309364
:101B20000B0420930C0430930D04809300048093E5
:101B3000020480E880930001089588ED84BF81E06D
:101B400080937900089588ED84BF8BE180938000B5
:101B500008958091500082608093500080915100E0
:101B600081FFFCCF82E08093CA01EDE1F0E0E491D7
:101B7000E0936200ECE1F0E0E491E0936300109206
:101B8000CA0180E8809365008BEB809366008091AA
:101B90005600897F80935600809156008460809320
:101BA0005600809160008160809360000895E0E4B9
:101BB000F0E084818E7F8483E0E6F0E080818E7F98
:101BC0008083E0E5F0E080818D7F8083089587E069
:101BD0008093A20078940895089580E090E008959D
:101BE000089508950895089508950895089508950D
:101BF0000F931F93CF93C82F06E91EE2D8011296C8
:101C0000ED91FC91139719950E94C422E091B12E99
:101C1000F091B22EC583B8E1CB9FB0011124685575
:101C20007D4F48E150E0C8010E94F555D801ED9183
:101C3000FC911995D8011696ED91FC911797CF91CB
:101C40001F910F91199448E150E068EA72E086E92B
:101C50009EE20E94F555E091B12EF091B22E858161
:101C6000C7CF0F931F93E091B12EF091B22E8B014D
:101C70009C0145816AE088E993E00E947F181F91EA
:101C80000F910895FF920F931F93CF93DF931F92AD
:101C9000CDB7DEB78C019E012F5F3F4FAC016AE0EC
:101CA00088E993E00E949718F82E882389F08981AB
:101CB0009FDFF80140E08191882319F04F5F4F3199
:101CC000D1F7E091AE2EF091AF2EB80181E11995D8
:101CD0008F2D0F90DF91CF911F910F91FF9008955D
:101CE0009B01AC016AE088E993E00C94BE1808956A
:101CF0000C94E75508950F931F93CF938C01C62F33
:101D0000CC2339F00E94E755F80181938F01C1502F
:101D1000F7CFCF911F910F9108950E94E7550E9430
:101D2000E7550E94E7550C94E755CF93DF93EC01FC
:101D300061507109DA01420F531FFC01CF018C1B66
:101D40009D0BA417B50721F41082DF91CF91089560
:101D500062307105C8F39D91392F32953F703A304A
:101D600010F4305D01C0395C30839F709A3010F4FC
:101D7000905D01C0995C9183329662507109DECF0B
:101D8000CF93DF93EC01DA0120E030E05C91552342
:101D900051F111969C911197992339F12617370724
:101DA00011F180ED850F8A3020F08FEB850F8630A2
:101DB000E0F480ED890F8A3020F04FEB490F463078
:101DC000A0F4E52FF0E0513408F0F797E295E07FBA
:101DD000913410F4982F01C097539E2B99932F5F45
:101DE0003F4F1296D3CFC90102C080E090E0DF914F
:101DF000CF910895E0E6F6E080E1858382E0868376
:101E000088E085838AE18183E0EAF9E0168217821F
:101E100080EC858388E18483E0E0F1E0128A8BE640
:101E2000838B148A158A20EA208F99E0918F128E75
:101E3000148E158E168E84E0808B12A23CE633A39E
:101E400014A215A210A611A612A624A795A716A63D
:101E500080A308954115510509F449C020E120935C
:101E6000660623E02093A0092091A10927FFFCCF5B
:101E70002091A0097093A0092091A10927FFFCCF10
:101E80002091A0096093A0092091A10927FFFCCF10
:101E90002091A00921E02093120180931C019093CE
:101EA0001D0140931401509315011092220182E507
:101EB00094E2809328019093290140932401509348
:101EC000250180911001806880931001809120018C
:101ED0008068809320018091100187FDFCCF80E312
:101EE000809311018093210180E18093650608951C
:101EF0004115510509F469C020E12093660626E0EA
:101F00002093A0092091A10927FFFCCF2091A009CF
:101F100020E120936506000000002093660622E081
:101F20002093A0092091A10927FFFCCF2091A009AF
:101F30007093A0092091A10927FFFCCF2091A0094F
:101F40006093A0092091A10927FFFCCF2091A0094F
:101F50001092120122E534E220931C0130931D01FE
:101F6000409314015093150120E1209322018093A6
:101F700028019093290140932401509325018091D9
:101F80001001806880931001809120018068809307
:101F900020018091100187FDFCCF80E38093110127
:101FA0008093210180E180936506E091B12EF0914C
:101FB000B22E8781863019F481E180935B2C868173
:101FC000863019F481E180935A2C0895CF92DF92E4
:101FD000EF92FF92CF93DF93C090B02ED12CE12CE3
:101FE000F12C8DE0CC0CDD1CEE1CFF1C8A95D1F78A
:101FF000C114D10481E0E806F10408F04EC080E18C
:102000008093660686E08093A0098091A10987FFEE
:10201000FCCF8091A00980E180936506000000005C
:102020008093660682E08093A0098091A10987FFD2
:10203000FCCF8091A0091092A0098091A10987FF8F
:10204000FCCF8091A0091092A0098091A10987FF7F
:10205000FCCF8FEFE81AF80A8091A009C0E0D0E128
:10206000C701B6019EDB8093A0098091A10987FF7B
:10207000FCCF8091A0099093A0098091A10987FFCE
:10208000FCCF8091A00982E0C80ED11CE11CF11C9C
:10209000219731F780E1809365068091010480FDEE
:1020A000FCCF82E080930304DF91CF91FF90EF900B
:1020B000DF90CF900895CF92DF92EF92FF92CF936F
:1020C000DF93C090B02ED12CE12CF12C8DE0CC0C04
:1020D000DD1CEE1CFF1C8A95D1F7C114D10481E0F0
:1020E000E806F10438F0DF91CF91FF90EF90DF9098
:1020F000CF906CCF8FEFE81AF80AC1E2D0E02197B9
:1021000091F36ADBC701B60153DB66DB8FEFD81AA8
:10211000E80AF80AF4CFCF92DF92EF92FF920F9382
:102120001F93CF93DF93C090B02ED12CE12CF12CD4
:102130008DE0CC0CDD1CEE1CFF1C8A95D1F7C11480
:10214000D10481E0E806F10408F04FC080E18093FB
:10215000660683E08093A0098091A10987FFFCCFE8
:102160008091A0091092A0098091A10987FFFCCF5E
:102170008091A0091092A0098091A10987FFFCCF4E
:102180008FEFE81AF80A8091A00901E210E00150EF
:10219000110941F121DB1DDB1FDBC0E0D0E0109213
:1021A000A0098091A10987FFFCCF6091A00970E090
:1021B0001092A0098091A10987FFFCCF8091A0090E
:1021C000782BCE01FBDA08DB2296C11581E0D80717
:1021D00031F7C701B601F7DAFFDA8FEFD81AE80A4C
:1021E000F80AD5CF80E180936506E091B12EF09199
:1021F000B22E8781863019F490E190935B2C968102
:10220000963049F420E120935A2C853059F483E12B
:1022100080935B2C02C08530D1F3953019F483E1B3
:1022200080935A2C8091010480FDFCCF82E0809342
:102230000304DF91CF911F910F91FF90EF90DF90FA
:10224000CF900895CF92DF92EF92FF920F931F935A
:102250004115E0E25E076105710508F06BC0690198
:10226000E12CF12C00E010E220E030E0041B150B23
:10227000260B370BC016D106E206F30610F49701C1
:10228000860120E12093660626E02093A009209194
:10229000A10927FFFCCF2091A00920E1209365062A
:1022A000000000002093660622E02093A009209100
:1022B000A10927FFFCCF2091A0095093A0092091EC
:1022C000A10927FFFCCF2091A0094093A0092091EC
:1022D000A10927FFFCCF2091A0091092120122E54D
:1022E00034E220931C0130931D01009314011093DC
:1022F000150120E120932201809328019093290168
:10230000009324011093250180911001806880932F
:10231000100180912001806880932001809110013C
:1023200087FDFCCF80E3809311018093210180E140
:102330008093650681E01F910F91FF90EF90DF90F1
:10234000CF900895CF92DF92EF92FF920F931F9359
:102350004115E0E25E076105710508F05DC06901A5
:10236000E12CF12C00E010E220E030E0041B150B22
:10237000260B370BC016D106E206F30610F49701C0
:10238000860120E12093660623E02093A009209196
:10239000A10927FFFCCF2091A0095093A00920910B
:1023A000A10927FFFCCF2091A0094093A00920910B
:1023B000A10927FFFCCF2091A00921E02093120161
:1023C00080931C0190931D0100931401109315013B
:1023D0001092220182E594E28093280190932901D2
:1023E000009324011093250180911001806880934F
:1023F000100180912001806880932001809110015C
:1024000087FDFCCF80E3809311018093210180E15F
:102410008093650681E001C080E01F910F91FF90DD
:10242000EF90DF90CF9008958091CF0187FDFCCF92
:102430000895FADF8091CF0181FF0BC086E380937E
:10244000CA01EBECF1E021E030E088ED90E084BFE0
:1024500020830895EF92FF920F931F93CF93DF9302
:10246000EC017B018A011092C201DEDFD701CE01AF
:10247000800F911F26E048ED50E061E070E0EBEC4A
:10248000F1E0C817D90779F0C093C0013D2F3F7123
:102490003093C1012093CA0144BF60833091C401CD
:1024A0003D932196EECFC801DF91CF911F910F91FF
:1024B000FF90EF9008953F924F925F926F927F92BC
:1024C0008F929F92AF92BF92CF92DF92EF92FF9244
:1024D0000F931F93CF93DF938B01542E652E282FDC
:1024E0002F71722EEC01C21BD109A3DF9DDF83E3A4
:1024F0008093CA011092C1011092C2017801052D8A
:10250000162D85E3482E98EDC92ED12C882483946E
:10251000912C3BECA32EBB24B39443E3342E011542
:10252000110501F17092C001F70181917F01809343
:10253000C4010150110921F07394F0E27F12EFCF32
:10254000C093C0018D2F8F718093C1014092CA0149
:10255000C601F50184BF8082A09666DF3092CA0171
:10256000712CDDCF852D962DDF91CF911F910F918D
:10257000FF90EF90DF90CF90BF90AF909F908F90A3
:102580007F906F905F904F903F9008951F93CF93EF
:10259000DF93CDB7DEB7A097CDBFDEBF863009F49D
:1025A000EAC0D0F4833009F46AC028F4813059F1CC
:1025B0008230C9F1F6C0843009F486C0853009F054
:1025C000F0C0E091A62EF091A72ECE0101961995AC
:1025D0008091AC2E41E0A4C0893009F4D0C040F411
:1025E000873009F4CAC0883009F0DBC0EFDCD9C0FD
:1025F0008A3009F4D5C08B3009F0D3C08EEA93E25B
:102600000E94C221CEC010E08091AC2E181708F0B5
:102610009FC06EDBE1E0F0E0EC0FFD1FE10FF11D6C
:1026200080831F5FF1CF11E08091AC2E873009F0DD
:1026300010E0E091A62EF091A72ECE0101961995FB
:102640004091AC2E31E0141708F082C03323A9F07A
:10265000812F90E0E1E0F0E0EC0FFD1FE80FF91FA3
:10266000208131E02F3F09F030E0E1E0F0E0EC0FB5
:10267000FD1FE80FF91F2F5F20831F5FE4CFE0915C
:10268000A62EF091A72ECE01019619958091AC2E21
:1026900041E0815008F45CC04423D9F3282F30E096
:1026A000E1E0F0E0EC0FFD1FE20FF31F908141E04D
:1026B0009F3F09F040E0E1E0F0E0EC0FFD1FE20F8A
:1026C000F31F9F5F9083E5CF11E08091AC2E8730A0
:1026D00009F010E0E091A62EF091A72ECE01019610
:1026E00019954091AC2E31E0141790F53323A1F0E9
:1026F000812F90E0E1E0F0E0EC0FFD1FE80FF91F03
:10270000208131E0211130E0E1E0F0E0EC0FFD1F2D
:10271000E80FF91F215020831F5FE6CF411103C04E
:102720008150E0F715C0282F30E0E1E0F0E0EC0F39
:10273000FD1FE20FF31F908141E0911140E0E1E0C5
:10274000F0E0EC0FFD1FE20FF31F91509083E8CFF4
:10275000E091A82EF091A92ECE0101961995E09155
:10276000AE2EF091AF2E4091AC2EBE016F5F7F4F29
:1027700083E1199516C0B0D314C0CDDC12C080918E
:102780000008813021F490918C08933009F080E0AA
:1027900080FD03C00E944E2304C00E94742301C028
:1027A000AAD2A096CDBFDEBFDF91CF911F91089531
:1027B000E0E0F6E080E6828388E1868B858B0895F1
:1027C000CF93C0910806C095C6FF12C080915424D3
:1027D0008A3050F08A30E1F4E091B12EF091B22EBF
:1027E0008181D4DE809154248F5F8093542410C063
:1027F0008C2F807669F48091542481508A3030F493
:10280000E091B12EF091B22E8081C0DE109254245E
:10281000C5FF12C0809153248A3050F08A30D9F419
:10282000E091B12EF091B22E8381B0DE80915324DD
:102830008F5F809353240FC0C07669F48091532436
:1028400081508A3030F4E091B12EF091B22E828125
:102850009DDE10925324CF9108959B01AC016CE052
:1028600082EE96E08BC4E82FF0E0E055F14D88E071
:10287000638381503C968111FBCF08950F931F9382
:102880009B01E091B12EF091B22EE80FF11D8A016B
:1028900040816CE082EE96E032D41F910F91089552
:1028A0000F931F93CF93DF931F92CDB7DEB7082FFF
:1028B000AB019E012F5F3F4F6CE082EE96E037D474
:1028C000182F882319F06981802FCDDF812F0F9079
:1028D000DF91CF911F910F9108950895EF92FF928C
:1028E0000F931F93CF937B01C42F0EB11FB1209183
:1028F000080430910904022B132B682F83E090E227
:102900000E94F7536C2F83E090E20E94F753612FEF
:1029100083E090E20E94F753602F83E090E20E94F0
:10292000F7536C2F70E0C701CF911F910F91FF906B
:10293000EF90A4C408953F924F925F926F927F925E
:102940008F929F92AF92BF92CF92DF92EF92FF92BF
:102950000F931F93CF93DF937C01E901C090002078
:10296000D0900120960122503843C901A0E0B0E088
:10297000481759076A077B0708F05FC0E2E0CE1AE4
:10298000E0E4DE0A2A013B014C0E5D1E611C711C55
:10299000481659066A067B0648F0241B350B8E0143
:1029A000021B130BE9013324339403C000E010E051
:1029B000312C4601A12CB12C481559056A057B051F
:1029C00010F5CA018E5F9F4B2A013B014C0E5D1E24
:1029D000611C711C481459046A047B0428F4AE017C
:1029E000BC01C70137DA18C0C41AD50AA601BC0158
:1029F000C70130DAAE014C195D096AE574E2C7011E
:102A00008C0D9D1D07C04C195D09BA01665A7B4D9E
:102A1000AE01C7010E942356332041F00C0F1D1F49
:102A2000F701E00FF11FCE0DDF1D02C081E006C0EF
:102A3000EC17FD07D9F31292FBCF80E0DF91CF9125
:102A40001F910F91FF90EF90DF90CF90BF90AF90CC
:102A50009F908F907F906F905F904F903F900895E0
:102A6000209156243091572480E098E0821B930BEC
:102A7000EAE5F4E29F012A5534422817390710F499
:102A80001192F8CF8AE594E28093582490935924C8
:102A900080E098E0809356249093572482E090E45D
:102AA000809300209093012042E050E060E070E4C9
:102AB00080E090E21DDAE091B12EF091B22E878194
:102AC0008A3019F480E180935B2C86818A3019F476
:102AD00080E180935A2C0895809156249091572438
:102AE00090582091002030910120821B930B089573
:102AF000E0EBFEE287833C969FE2E031F907D1F7F5
:102B0000813049F018F0823059F008951092552420
:102B10008DE694E109C08093552484EF95E104C0CB
:102B2000109255248EE694E18093AE2E9093AF2EB2
:102B300008950F931F93CF93DF931F92CDB7DEB706
:102B4000E091B12EF091B22E8481D2DF8AE594E239
:102B5000809358249093592400E018E00093562461
:102B60001093572441E050E0BE016F5F7F4F80E03B
:102B700090E070DCE0915824F0915924DF01C80105
:102B80001D920197E9F78981882341F042E050E0E6
:102B900060E070E480E090E25DD917C082E090E4EC
:102BA000809300209093012042E050E060E070E4C8
:102BB00080E090E29DD981E0898341E050E0BE0150
:102BC0006F5F7F4F80E090E076DCE091AE2EF09179
:102BD000AF2E40E060E070E08FEF19950F90DF912D
:102BE000CF911F910F9108950F931F93CF93DF9370
:102BF000CEB1DFB1A0910804B09109042091562410
:102C000030915724E42FF0E08F010C5F1F4F201705
:102C1000310758F1CA2BDB2B245031092E1B3F0BF7
:102C20002093562430935724A0915824B0915924CE
:102C30008C9311964C9311971296DC931297CD01B9
:102C4000049680935824909359241396CC93DB01D7
:102C5000EC01415018F02D912993FBCFE80FF91F9B
:102C6000E0935824F093592412C080E041DFE091B2
:102C7000B12EF091B22E87818A3019F481E18093D0
:102C80005B2C86818A3019F481E180935A2CDF9184
:102C9000CF911F910F9108951F93CF93DF931F92B0
:102CA000CDB7DEB79E012F5F3F4FAC0163E08EE6EC
:102CB00098E03DD2182F882311F0898119DF812FE8
:102CC0000F90DF91CF911F9108950F931F93E09183
:102CD000B12EF091B22E8B019C01448163E08EE60F
:102CE00098E00DD21F910F9108959B01AC0163E014
:102CF0008EE698E043C20F931F93CF93DF938091AA
:102D0000562490915724811528E0920708F074C04A
:102D10006091002070910120C0E0D0E8C61BD70B65
:102D200000E018E0A801481B590BC417D50758F15B
:102D30008AE594E2DDD82091562430915724809181
:102D4000002090910120985F821B930B80930020BC
:102D500090930120021B130BEAE5F4E2CF018A55A0
:102D600094428017910710F41192F8CF8AE594E20B
:102D7000809358249093592480E098E080935624BF
:102D8000909357242EC02097B9F1AE018AE594E2C2
:102D9000AFD8A8014C1B5D0BBE01665A7B4D8AE57E
:102DA00094E20E942C5680915824909159248C1BB7
:102DB0009D0B809358249093592480915624909190
:102DC00057248C0F9D1F80935624909357248091F5
:102DD000002090910120C80FD91FC0930020D093EC
:102DE000012042E050E060E070E480E090E2DF919A
:102DF000CF911F910F917CC8DF91CF911F910F91BF
:102E0000089580915524811176CF089543E650E0CE
:102E100060EB7EE281E090E01DCB43E650E060EBAA
:102E20007EE281E090E047CB0F931F93CF93DF9337
:102E3000CFEFC80FC83008F047C0D82F0E94C42277
:102E40008091B02EC81779F166D9C093B02E8CE06E
:102E5000C89F90011124C9018D54914D8093B12ECA
:102E60009093B22EF901E055F14D80850E94F80D46
:102E7000E091B12EF091B22E84813ADEA7D801E024
:102E800010E0005B1E426091B02EC8018055914D4C
:102E90000E94C45C6091B12E7091B22EC8018F5413
:102EA000914D0E94CD5C8FE18D0FE091B12EF0919C
:102EB000B22E9781943011F480935B2C96819430DC
:102EC00029F480935A2C02C080E001C081E0DF9198
:102ED000CF911F910F9108958091B02E99E04CE011
:102EE000915099F0282F30E02F5F3F4F2770332704
:102EF000822F429FF001439FF00D1124E055F14DC8
:102F00002085222369F38F5F8FCF0895FC01909174
:102F1000B02E9F5C908311820895CF93FC01218194
:102F200021110DC0BC01C081E091AE2EF091AF2EF9
:102F300041E082E1199580ED8C0FCF9175CF80E053
:102F4000CF91089588E180930106089580915A2CCD
:102F5000823191F030F48031B9F050F48823A9F136
:102F600032C0833169F090EE980F983088F02BC012
:102F700088E08093050627C088E08093070623C079
:102F80008091040683FF12C088E0809306061BC070
:102F900090915C2C9F5F913019F090935C2C15C040
:102FA00010925C2C9091040693FD04C088E08093FD
:102FB00005060BC098E090930606803221F0815000
:102FC00080935A2C02C010925A2C80915B2C823133
:102FD00091F030F48031C1F050F48823A9F132C06F
:102FE000833169F090EE980F983088F02BC080E123
:102FF0008093050627C080E18093070623C0809157
:10300000040684FF12C080E1809306061BC09091E5
:103010005D2C9F5F913019F090935D2C0895109274
:103020005D2C9091040694FD04C080E18093050618
:10303000089590E190930606803221F081508093AC
:103040005B2C089510925B2C08959B01AC016BE002
:1030500081ED98E093C0E0EBFEE298E0282F20712C
:103060008870211162878111618791503C9691117E
:10307000F8CF222329F090E19093060610925B2C62
:10308000882329F088E08093060610925A2C089530
:103090000F931F939B018A01803131F4E091B12E8F
:1030A000F091B22E478107C0883049F4E091B12EEB
:1030B000F091B22E46816BE081ED98E020D01F9117
:1030C0000F9108950F931F93CF93DF931F92CDB766
:1030D000DEB7082FAB019E012F5F3F4F6BE081ED04
:1030E00098E025D0182F882319F06981802FB3DF4D
:1030F000812F0F90DF91CF911F910F9108950F9322
:103100001F93FC01662379F094916150941309C0D8
:10311000BF016F5F7F4FA801C9010E94075681E080
:1031200003C0B196EFCF80E01F910F910895CF9229
:10313000DF92EF92FF921F93CF93DF93EC017A011E
:103140006901162F112389F0BE016F5F7F4FC70100
:103150000E94FE551150892B31F4FE01C491F601F5
:10316000C08381E003C0A196EDCF80E0DF91CF91D5
:103170001F91FF90EF90DF90CF900895CF9301962D
:10318000CCE26623D1F0FC01DA01AD017491772322
:1031900041F021153105A9F07D9331962150310977
:1031A000F4CF623038F02115310559F0FD01C083AC
:1031B0004F5F5F4F61508196E4CF232B11F0FA01EE
:1031C0001082CF9108958091200280688093200220
:1031D0008091230280FFFCCF81E080932302A091A5
:1031E0001002B0911102AE5BB109B7FF02C0A0E0BE
:1031F000B0E020E038EB4BE050E00E948155E091D8
:10320000B12EF091B22E843F9140A8F4878187308F
:1032100019F480E180935B2C8681873019F480E17A
:1032200080935A2C8091AC2E882389F0E0919E2EB9
:10323000F0919F2E19948781873019F481E1809352
:103240005B2C8681873019F481E180935A2C089594
:10325000BC0183E090E20C94A953CF93DF93FC016F
:103260006491EC012196662331F083E090E20E94A4
:10327000F753CE01F4CFDF91CF910895AB01BC019C
:1032800083E090E20C94D35380E280936206089529
:10329000CF93DF9380915E2C823031F583E090E212
:1032A0000E9460540E943E4F83E090E20E947C5452
:1032B000EC0197FD19C0E091B12EF091B22E8781FB
:1032C000833019F483E180935B2C8681833019F479
:1032D00083E180935A2C8C2F79D6811105C08C2FD5
:1032E000DF91CF910C94E221DF91CF9108958091ED
:1032F0005E2C813079F028F08230C9F0833011F1F2
:103300002EC08091680685FF31C08FE08093022037
:1033100081E015C0809102208150809302208111AC
:1033200025C00E94A90D0E94D65282E008C080915B
:10333000680685FD18C08FE08093022083E08093AB
:103340005E2C0DC08091022081508093022081115B
:103350000DC00E949B520E94D70D10925E2C80914E
:103360005E2C823019F481D70C948C220895E09160
:10337000B12EF091B22E8781823019F481E18093D1
:103380005B2C8681823019F481E180935A2C089558
:10339000E091B12EF091B22E8781823019F480E154
:1033A00080935B2C8681823019F480E180935A2CC3
:1033B000089583E090E20C94845383E090E20C94AF
:1033C000CF5422ED3BE03F932F932CEC3BE03F9317
:1033D0002F9325EC3BE03F932F932EEB3BE03F9365
:1033E0002F932EE13BE03F932F9322E02F931F92E8
:1033F0009F938F930E948C568DB79EB70E968DBF6C
:103400009EBF85E6089560E072E00E94310E85E679
:103410000895FB0120812F3349F42181211106C039
:1034200060E072E00E94700E85E60895CB010E9474
:10343000420E882371F0E091B12EF091B22ECF01AF
:103440008B5A9E4265818F5F9F4F0E94C45C84E6C9
:1034500008958AEC0895EF92FF920F931F93CF93F4
:10346000DF93CDB7DEB7A097CDBFDEBF7C01009163
:10347000AC2E10E00115110591F486E19BE09F93BD
:103480008F9382E08F931F92FF92EF920E948C564F
:103490000F900F900F900F900F900F9010C0E09131
:1034A000A62EF091A72ECE01019619959801AE0196
:1034B0004F5F5F4F60E072E0C7010E94950E85E6A6
:1034C000A096CDBFDEBFDF91CF911F910F91FF90EE
:1034D000EF900895DF92EF92FF920F931F93CF9397
:1034E000DF93CDB7DEB7A097CDBFDEBF7B010091E4
:1034F000AC2E10E06FE07BE0C7010E94FE55892BE7
:1035000029F5D12CED2CF12CE016F10658F40E948F
:10351000780EE1E0F0E0EC0FFD1FEE0DFF1D808363
:10352000D394F0CFE091A82EF091A92ECE01019670
:103530001995E091AE2EF091AF2E4091AC2EBE01C8
:103540006F5F7F4F83E1199584E60BC0A70160E2AE
:1035500070E0CE0101960E94C00E0817190711F302
:103560008AECA096CDBFDEBFDF91CF911F910F9166
:10357000FF90EF90DF900895FC018091AD2E88239D
:1035800011F081E301C080E38083118285E6089514
:10359000FB012181211127C02081213321F481E009
:1035A0008093AD2E04C0203321F41092AD2E84E61A
:1035B00008952F33C1F41F9220E32F931F9221E32C
:1035C0002F9329E03BE03F932F9322E02F931F920C
:1035D0009F938F930E948C568DB79EB70A968DBF8E
:1035E0009EBF85E608958AEC089582E291E1BDD4FC
:1035F0008EE6089582EA91E1D3D48EE60895E0EC58
:10360000F4E081818E7F81830E949B520E949D0DF8
:1036100084E60895E0ECF4E081818E7F81830E944E
:103620009B520E94A30D84E60895E6E9FEE22589F7
:103630002F9324892F9326E03BE03F932F9322E0A2
:103640002F931F929F938F930E948C568DB79EB796
:1036500008968DBF9EBF85E608952091AC2E1F92DF
:103660002F9323E03BE03F932F9322E02F931F9271
:103670009F938F930E948C568DB79EB708968DBFEF
:103680009EBF85E6089540E052E0BC0180E0F6D898
:1036900085E60895FB0120812F3341F4218121111A
:1036A00005C060E072E0D9D885E6089580E0F8D8DA
:1036B000882319F0B2DB84E608958AEC089540E08F
:1036C00052E0BC0181E0DAD885E60895FB01208153
:1036D0002F3341F42181211105C060E072E0BDD893
:1036E00085E6089581E0DCD8882319F096DB84E62E
:1036F00008958AEC089540E052E0BC0182E0BED813
:1037000085E60895FB0120812F3341F421812111A9
:1037100005C060E072E0A1D885E6089582E0C0D8D7
:10372000882319F07ADB84E608958AEC089540E056
:1037300052E0BC0183E0A2D885E60895FB01208118
:103740002F3341F42181211105C060E072E085D85A
:1037500085E6089583E0A4D8882319F05EDB84E62B
:1037600008958AEC089540E052E0BC0180E190DCCD
:1037700085E60895FB0120812F3341F42181211139
:1037800005C060E072E061DC85E6089580E19ADCC6
:10379000882319F042DB84E608958AEC089540E01E
:1037A00052E0BC0188E074DC85E60895FB012081CD
:1037B0002F3341F42181211105C060E072E045DC26
:1037C00085E6089588E07EDC882319F026DB84E610
:1037D00008958AEC089560E072E077DA85E608954E
:1037E000FB0120812F3341F42181211105C060E0CC
:1037F00072E07BDA85E60895CB014EDA882319F072
:103800000CDB84E608958AEC0895CF93DF93EC01F6
:1038100063D9813028E0920718F09C01385002C02B
:1038200020E030E03F932F939F938F9383EE9AE0B5
:103830009F938F9382E08F931F92DF93CF930E9489
:103840008C568DB79EB70A968DBF9EBF85E6DF91D9
:10385000CF9108958BE994E1A3D38EE608954BDAD6
:1038600084E60895FDD884E6089560E072E04EDBBA
:1038700085E60895CB0151DB811102C08AEC0895E1
:1038800084E608950E945B1084E608950E948B10E0
:1038900084E608950E94E60F84E608958091680604
:1038A00080FD02C089E7089588E70895DF92EF92CE
:1038B000FF920F931F93CF93DF93EC010FEF11E073
:1038C00085E1E82E8DE0F82E9CE2D92EB70185EC3B
:1038D00093E20E94FE55892BD1F001151105B9F034
:1038E000DE01F7012491ED012196C8010197222301
:1038F00041F00130110529F02C93DE0131968C0145
:10390000F1CFDC928C0188E1E80EF11CDFCF21972A
:10391000188285E6DF91CF911F910F91FF90EF9074
:10392000DF900895FC01809120028068809320023E
:103930008091230280FFFCCF81E080932302A0913D
:103940001002B0911102AE5BB109B7FF02C0A0E056
:10395000B0E020E038EB4BE050E00E948155AA2710
:10396000BB279F938F938CED9AE09F938F9382E078
:103970008F931F92FF93EF930E948C568DB79EB743
:1039800008968DBF9EBF85E608954EB15FB1209128
:10399000080430910904242B352B3F932F9326EDF7
:1039A0003AE03F932F9322E02F931F929F938F93A0
:1039B0000E948C568DB79EB708968DBF9EBF85E638
:1039C00008950F931F93CF93DF931F921F92CDB74C
:1039D000DEB78B01E091B12EF091B22E8581893056
:1039E00009F06FC0E0919E2EF0919F2E199581E015
:1039F0008093B82C60E270E0C8010E9444560097A2
:103A0000F9F4F80101900020E9F73197E01BF10B80
:103A1000E0FD59C0F695E795E130F10539F487E00E
:103A200090E08093942E9093952E37C053E0EE0F44
:103A3000FF1F5A95E1F7E093942EF093952E2DC039
:103A400098012C5F3F4F82179307E9F5A80162E0C8
:103A500070E0CE0101960E94C00E898190E0982FFF
:103A600088272A81820F911D8093942E9093952E02
:103A70000B5F1F4FF80101900020E9F73197E01B21
:103A8000F10BE0FD20C0F695E79533E0EE0FFF1F48
:103A90003A95E1F7E817F907B0F06091942E70912C
:103AA000952E695F7F4F83E0769567958A95E1F75C
:103AB000A80184E99DE20E94C00E0E94072C8FEFAE
:103AC00003C089EC01C08AEC0F900F90DF91CF9179
:103AD0001F910F910895EF92FF920F931F93CF9331
:103AE000DF931F921F92CDB7DEB78B01E091B12E0D
:103AF000F091B22E8581893009F080C0E0919E2E30
:103B0000F0919F2E199582E08093B82C60E270E0CE
:103B1000C8010E9444567C01892B31F5F8010190BF
:103B20000020E9F73197E01BF10BE0FD69C0F69545
:103B3000E795E130F10539F487E090E08093942E29
:103B40009093952E47C053E0EE0FFF1F5A95E1F773
:103B5000CF0169E070E00E946D55E81BF90BE0931E
:103B6000942EF093952E36C0C8010496E816F906F7
:103B700009F046C0A80162E070E0CE0101960E9403
:103B8000C00E898190E0982F88272A81820F911D8D
:103B90008093942E9093952E8730910529F09C0167
:103BA00027703327232B61F587010F5F1F4FF80123
:103BB00001900020E9F73197E01BF10BE0FD20C0F8
:103BC000F695E79533E0EE0FFF1F3A95E1F7E8171A
:103BD000F907B0F06091942E7091952E695F7F4F38
:103BE00083E0769567958A95E1F7A80184E99DE2DF
:103BF0000E94C00E0E94072C8FEF03C089EC01C009
:103C00008AEC0F900F90DF91CF911F910F91FF9051
:103C1000EF900895E091B12EF091B22E8581893018
:103C2000A1F4E0919E2EF0919F2E199585E080934E
:103C3000B82C0E9462460E94072C8CE696E4809382
:103C40006D2C90936E2C8FEF089589EC0895E09180
:103C5000B12EF091B22E85818930A1F4E0919E2E93
:103C6000F0919F2E199583E08093B82C0E946246B4
:103C70000E94072C8CE696E480936D2C90936E2C1A
:103C80008FEF089589EC0895E091B12EF091B22E56
:103C900085818930A1F4E0919E2EF0919F2E199597
:103CA00086E08093B82C0E9462460E94072C8CE626
:103CB00096E480936D2C90936E2C8FEF089589EC91
:103CC0000895E091B12EF091B22E4085518564E6C1
:103CD000649F9001659F300D11243F932F9320ED39
:103CE0003AE03F932F9322E02F931F929F938F935D
:103CF0000E948C568DB79EB708968DBF9EBF85E6F5
:103D00000895CF93DF931F921F92CDB7DEB7FB01CB
:103D100020812F33B1F42181211113C02EE93AE023
:103D20003F932F9322E02F931F929F938F930E9494
:103D30008C560F900F900F900F900F900F9085E67C
:103D40002EC089E592E089839A83CE0101969F93E4
:103D50008F938AE99AE09F938F937F936F930E944A
:103D6000C2560F900F900F900F900F900F90892BCD
:103D7000A9F069817A816935F2E07F0778F4E091F2
:103D8000B12EF091B22E60877187CF01885A9E4282
:103D90008F5F9F4F0E94CD5C84E601C08AEC0F903C
:103DA0000F90DF91CF910895E091B12EF091B22E56
:103DB00023852F9322852F9327E93AE03F932F9372
:103DC00022E02F931F929F938F930E948C568DB762
:103DD0009EB708968DBF9EBF85E60895CF93DF936B
:103DE0001F921F92CDB7DEB7FB0120812F33B1F4B4
:103DF0002181211113C02FE02F932FEF2F9326E461
:103E00003AE03F932F9322E02F931F929F938F933B
:103E10000E948C56CDBFDEBF85E630C019821A8263
:103E2000CE0101969F938F9382E49AE09F938F93A4
:103E30007F936F930E94C2560F900F900F900F9038
:103E40000F900F90892BC9F069817A81611590E1FB
:103E5000790798F46093380370933903E091B12E99
:103E6000F091B22E62877387CF01865A9E428F5F90
:103E70009F4F0E94CD5C84E601C08AEC0F900F90AA
:103E8000DF91CF910895FB0120812F33D9F4218157
:103E9000211121C01F9220E32F931F9221E32F9322
:103EA0002CE33AE03F932F9322E02F931F929F93AE
:103EB0008F930E948C568DB79EB70A968DBF9EBF7A
:103EC00085E60895213311F4E9D303C0203319F4B2
:103ED0000BD484E608958AEC0895FC0180910008D3
:103EE000813029F480918C0891E0833009F090E0D2
:103EF00090FF02C081E301C080E38083118285E6E8
:103F00000895E091B12EF091B22E85818930A1F40F
:103F1000E0919E2EF0919F2E199584E08093B82C0D
:103F20000E9462460E94072C8CE696E480936D2CDA
:103F300090936E2C8FEF089589EC089589E00E948C
:103F4000F80DE0919E2EF0919F2E199587E08093B9
:103F5000B82C0E9462460E94072C8CE696E480935F
:103F60006D2C90936E2C8FEF089521E020936C2C94
:103F700020936B2C2CE32093692C25E030E02093D8
:103F8000672C3093682C1092612C1092622C109246
:103F9000632C1092642C80935F2C9093602C089576
:103FA00027E020936C2C2CE231E02093672C309397
:103FB000682C1092612C1092622C1092632C10923B
:103FC000642C80935F2C9093602C0895CF939091F4
:103FD0006C2C953009F441C030F4933019F130F570
:103FE000913068F43EC1973009F4AAC008F44AC081
:103FF000983009F4ACC0993009F495C032C18130D1
:1040000031F41092652C1092662C83E023C084302A
:1040100011F466E084C0883109F485C08B3109F061
:1040200084C081C080936A2C84E014C090E04091E9
:104030006A2C2FEF30E0241B31098217930721F4FB
:1040400085E008C0891779F165E183E090E20E947C
:10405000F75382E080936C2C68C02091652C3091DE
:10406000662CA9014F5F5F4F4093652C5093662CDF
:10407000F901ED5EF04D80834038510509F055C0DF
:1040800086E0E8CF20916A2C90916B2C29134FC0C9
:10409000E3E1FFE223E93FE290E02E173F0791F2D0
:1040A0004191940FFACF4091612C5091622C609114
:1040B000632C7091642CE0915F2CF091602C20E8CF
:1040C00030E083E19FE21995C82F882311F1809198
:1040D0006B2C8F5F80936B2C8091612C9091622C64
:1040E000A091632CB091642C80589F4FAF4FBF4F6D
:1040F0008093612C9093622CA093632CB093642CDA
:1041000066E083E090E20E94F75382E080936C2C9B
:10411000A9C068E183E090E20E94F75368E183E080
:1041200090E20E94F75310926C2CC1E09BC030E0EB
:10413000892F90E001972817390781F766E085CF2E
:10414000853119F410926B2C08C08B3161F38831E2
:1041500009F45FCF863009F05AC080916B2C8F5FD5
:1041600080936B2C4091612C5091622C6091632C58
:104170007091642CE0915F2CF091602C20E830E08D
:1041800083E19FE21995C82F8823D1F161E083E094
:1041900090E20E94F75360916B2C83E090E20E94C2
:1041A000F75360916B2C609583E090E20E94F75387
:1041B00060E870E083E19FE261D8E3E1FFE260E064
:1041C0008FE2E339F80719F08191680FF9CF83E0A6
:1041D00090E20E94F7538091612C9091622CA09103
:1041E000632CB091642C80589F4FAF4FBF4F80938A
:1041F000612C9093622CA093632CB093642C32C0FA
:1042000064E083E090E20E94F75389E023CF853198
:1042100009F08BCF61E083E090E20E94F753609158
:104220006B2C83E090E20E94F75360916B2C6095B9
:1042300083E090E20E94F75360E870E083E19FE240
:104240001DD8E3E1FFE283E99FE260E08E179F075C
:1042500019F02191620FFACF83E090E20E94F753A8
:1042600064CFC0E08C2FCF91089580916C2C813069
:1042700019F0873029F108958091672C9091682C6E
:104280009C01215031092093672C3093682C892B95
:1042900031F58091692C9FEF980F9093692C8823BA
:1042A00031F065E183E090E20E94F75302C0109282
:1042B0006C2C85E090E08093672C9093682C089597
:1042C0008091672C9091682C9C012150310920939A
:1042D000672C3093682C892B11F410926C2C089564
:1042E000ECEEFBE020E030E09491981309C041E24D
:1042F000429FC001439F900D11248351944F089514
:104300002F5F3F4FB1962930310571F780E090E083
:104310000895262FBA012F3311F4469607C02D3386
:1043200011F4449611C021110CC04096FC01259156
:1043300034912115310521F183E19FE2F9011995AD
:104340000DC02032E9F44296FC01259134912115EB
:104350003105B1F083E19FE2F90119958F3F89F4AE
:1043600091E09093712C4EB15FB12091080430918F
:104370000904242B352B20936F2C3093702C089537
:1043800089EC08950F931F93CF93DF938C01C5E1C0
:10439000DDE0BE01C8010E94FE55892B49F440E0D2
:1043A00050E060E0CE01DF91CF911F910F91B1CF2E
:1043B000689680E1C53DD80761F7DF91CF911F91E5
:1043C0000F910895EF92FF921F93CF93DF93982F51
:1043D0009F7D91549A3160F090ED980F9A3040F0A3
:1043E0008F3531F0982F9D7F9D3311F08032D1F4BD
:1043F0009FE9980F9A3108F480522091722C3091E5
:10440000732C2F3F91E0390708F07FC0A9014F5F5F
:104410005F4F4093722C5093732CF901ED5EF04D79
:10442000808373C08D3009F040C0E091722CF09110
:10443000732CED5EF04D10821092722C1092732C42
:104440008091712C811161C08091132F982F9F7DD5
:1044500009F440C08D7F8D33E9F1E3E1FFE27F0194
:104460001191112331F01F3321F01D3311F010325F
:10447000B1F7F7011082C5E1DDE0BE0183E19FE203
:104480000E94FE55892B59F41092132FA7014F5FFC
:104490005F4F612FCE013DDF8F3FB9F124C0689699
:1044A000F0E1C53DDF0749F715C0883061F4809120
:1044B000722C9091732C009741F101978093722C8C
:1044C0009093732C22C08B3101F51092722C1092B4
:1044D000732C1BC088EC04DF0E942D1989EE9BE031
:1044E0000E942D1912C0FCDE0E942D1989EE9BE05E
:1044F0000E942D198091132F882339F083E19FE2C8
:104500000E94281986EE9BE0EBCF81E0DF91CF91EE
:104510001F91FF90EF9008958091712C882399F15D
:10452000E091B12EF091B22E208531852115310513
:1045300051F14EB15FB18091080490910904842B30
:10454000952B40916F2C5091702C841B950B64E639
:1045500070E00E946D5562177307A8F01092712CDD
:104560008BECBEDE0E942D1983EE9BE00E942D197C
:10457000E0916D2CF0916E2C309729F019951092E6
:104580006D2C10926E2C08958091712C8823A9F0C7
:104590001092712C8BECA4DE0E942D1983EE9BE00F
:1045A0000E942D19E0916D2CF0916E2C309729F01E
:1045B000199510926D2C10926E2C0895CF93DF9365
:1045C0009091712C9923A9F0EB011092712C88DE47
:1045D0000E942D1980EE9BE00E942D19209749F032
:1045E000CE010E9428198DED9BE0DF91CF910C94B4
:1045F0002D19DF91CF910895EF92FF920F931F93A2
:10460000CF937C019B01613081E0780710F020E0BE
:1046100031E08B01021B130BA70160E072E083E124
:104620009FE20E94950E83E19FE20E942819C1E05B
:10463000013081E01807A8F01A954C2F50E0542F54
:1046400044274E0D5F1D20E032E060E072E083E120
:104650009FE20E94950E83E19FE20E942819CF5F9E
:10466000E7CF0115110589F04C2F50E0542F442756
:104670004E0D5F1D980160E072E083E19FE20E94B1
:10468000950E83E19FE20E9428198AED9BE0CF916D
:104690001F910F91FF90EF900C942D1980910008BD
:1046A000813021F490918C08933009F080E080FDF6
:1046B0001AC08091762C811116C081E08093000889
:1046C00093E090938C088093742C1092752C2EB1EB
:1046D0003FB18091080490910904822B932B809321
:1046E0007B2C90937C2C089510928C0810920008DB
:1046F000E4E7FCE21082118208959091742C9923D2
:10470000F1F08091752C811115C02091742C222319
:10471000B9F04EB15FB12091080430910904242B07
:10472000352B40917B2C50917C2C241B350B26344F
:10473000310530F081E08093752C892F089581E058
:104740000895CF93C091762CCC23C1F02EB13FB108
:104750008091080490910904822B932B2091792C4D
:1047600030917A2C821B930B2091772C3091782CEE
:104770008217930718F01092762C90DF8C2FCF9130
:104780000895E091B12EF091B22E828793878093A5
:104790003803909339030895E091B12EF091B22E31
:1047A0008285938540968287938780933803909380
:1047B0003903828593850895E091B12EF091B22E50
:1047C00080E991E08287938780933803909339033F
:1047D0000895A0E2B6E081E015968C93159723E149
:1047E00031E328B939B923E931E32AB93BB910B823
:1047F00013B812B816B817B811B8E0E0F9E010A273
:1048000011A22FEF30E026A337A32FEF3FEF20A711
:1048100031A7808388E8838380E1848783E087836E
:104820001C968C931C9782E01A968C9308951F9285
:104830000F920FB60F92112408B60F9218BE0BB646
:104840000F921BBE8F939F93EF93FF93E0E0F9E0ED
:1048500013828FE790E086AB97AB81E190E080AF69
:1048600091AFE0E0FAE010A211A28FEF9FEF86A3D4
:1048700097A389E88383168281E084878EE0808312
:1048800010922A06FF91EF919F918F910F900BBE8E
:104890000F9008BE0F900FBE0F901F9018951F929B
:1048A0000F920FB60F92112408B60F9218BE0BB6D6
:1048B0000F921BBE2F933F938F939F93EF93FF9382
:1048C0002091280693B1267081E009F080E0990FCD
:1048D000892B83B982B1882309F463C012B883B1EC
:1048E0008770873059F51092000980E180930C0998
:1048F0001092030A1B9B03C08CEA94E002C08CE672
:1049000094E08093260A9093270A82E081B981E09F
:1049100080930C0A83E08093060A86B197B1877072
:1049200049F090B18F5F893011F09695FBCFE8B1D7
:10493000F9B1908381E080937D2C36C083B1982FAC
:104940009C7091F1847091B191111CC020B1269599
:10495000882311F080E001C080E8282B20B986B1BF
:1049600097B1019686B997B987709927892BE1F499
:10497000E8B1F9B1CF01019688B999B9208381E0F6
:1049800081B912C091B1913079F4EAB1FBB19F01C4
:104990002F5F3F4F2AB93BB9811190E0908311B846
:1049A00003C082B1809582B988E880930309FF91A2
:1049B000EF919F918F913F912F910F900BBE0F9090
:1049C00008BE0F900FBE0F901F9018951F920F9268
:1049D0000FB60F92112408B60F9218BE0BB60F92A5
:1049E0001BBE2F933F938F939F93EF93FF9381B1C0
:1049F000823008F49DC081B18D3008F099C0E1B1DA
:104A0000F0E0EE0FFF1FEC5DFF4D0190F081E02D17
:104A100019948FE790E08093260A9093270A88C024
:104A20008E9A8EE0809340088FE390E08093260A70
:104A30009093270A85E06FC08E9886E081B98FEF4A
:104A400082B914B815B8E8B1F9B1808180B970C0E5
:104A5000009B05C08E9A82B1809582B901C08E9864
:104A600087E059C0009B02C08E9801C08E9A80B129
:104A7000869580B984B195B1019684B995B984B110
:104A800095B187709927892B11F488E044C024B12F
:104A900035B186B197B128173907B1F52BC0EAB106
:104AA000FBB1309711F0808101C082B1882311F0F1
:104AB0008E9A01C08E9889E02EC0EAB1FBB1309782
:104AC00051F08081882311F08E9801C08E9A319622
:104AD000EAB9FBB908C082B1882311F08E9801C0F1
:104AE0008E9A8FEF82B924B135B186B197B128176C
:104AF000390711F48AE00FC0E8B1F9B1CF0101968E
:104B000088B999B9818180B986E005C08E988BE01B
:104B100002C08E988CE081B90BC01092000A1092EE
:104B2000060A109240081092410881E080937E2C82
:104B3000FF91EF919F918F913F912F910F900BBE1D
:104B40000F9008BE0F900FBE0F901F901895CF9337
:104B5000DF93EDE7FCE210821182E0E4F6E0128AD6
:104B600084E08283C0E8D1E082E68E83A0E2B6E0F2
:104B700081E016968C93169711968C93119796E078
:104B800012969C93129751968C93519742E05296AD
:104B90004C9352971A961C921A9733E019963C93AD
:104BA00099E598839AE5998390E491839683A0EBA5
:104BB000B0E012962C911297207F12962C931297A8
:104BC00012962C911297226012962C9320E3218347
:104BD0002683908B868345833183E0E0F8E083E190
:104BE000818321E030E026A337A320A731A7E0E8A6
:104BF000F8E014868083E0E2F3E01382118288E01B
:104C0000828391E19083A091B12EB091B22E1A9639
:104C10002D913C911B97208F318FE0E8F3E09CE3CE
:104C20009283808393838183DF91CF91D2CDA0E261
:104C3000B6E01A961C921A97EDE7FCE210821182F8
:104C4000E0E0F9E010821382178280E18487E0E0DF
:104C5000FAE010821382168281E08487E0E4F8E0B3
:104C60001082118216968C938E980895CF93DF93BD
:104C700080917D2C882309F47EC010927D2CC6B1D2
:104C8000D7B1C730D10508F471C0AE01495F5F4F9D
:104C900093E0569547959A95E1F7E091AE2EF09105
:104CA000AF2E63E171E380E41995E091B12EF091AC
:104CB000B22E8781883019F483E180935B2C868142
:104CC000883019F483E180935A2CE091A42EF0915E
:104CD000A52EBE0183E191E31995EC0194FF06C076
:104CE000DF7E83E991E38AB99BB902C01AB81BB889
:104CF0002097E1F1AE01495F5F4F83E056954795FC
:104D00008A95E1F7E091AE2EF091AF2E63E171E369
:104D100081E41995E091B12EF091B22E878189300E
:104D200019F483E180935B2C8681893019F483E147
:104D300080935A2CC6B9D7B983E191E388B999B960
:104D400010926008109261088FE090E080936608EE
:104D50009093670888E090E080936A0890936B08CE
:104D600083E28093410883E081B905C01092000A74
:104D70001092060A2EDD80917E2C882329F0109255
:104D80007E2CDF91CF9125CDDF91CF910895CF93E8
:104D9000DF93E0E4F6E0128A84E08283C0E8D1E0A9
:104DA00082E68E83A0E2B6E081E016968C93169799
:104DB00011968C93119796E012969C9312975196A8
:104DC0008C93519742E052964C9352971A961C92AC
:104DD0001A9733E019963C93199799E598839AE5C9
:104DE000998390E491839683C0EBD0E02A81207F61
:104DF0002A832A8122602A8320E321832683908BC1
:104E0000868345833183E0E0F8E093E1918321E0FC
:104E100030E026A337A320A731A7E0E8F8E0148606
:104E20009083E0E2F3E01382118298E0928321E123
:104E30002083C091B12ED091B22E2A853B85208F40
:104E4000318FE0E8F3E02CE3228390832383918386
:104E500015968C93E0E0F9E02FEF30E026A337A31E
:104E600012A613A614A615A6108216821782808396
:104E70001092000A10927F2CE2E8FCE2108212826B
:104E80001182DF91CF91089581E0809326062CDC7A
:104E9000E0E0F9E010821782E0E0FAE01082178289
:104EA000E2E8FCE211821282108208951F920F92B2
:104EB0000FB60F92112408B60F9218BE0BB60F92C0
:104EC0001BBE2F933F938F939F93EF93FF93E0E04D
:104ED000F9E080E484871782E0E8F3E082E08783EA
:104EE00089EB818383E191E38AB99BB981E090E00A
:104EF00084B995B916B82EB13FB18091080490914C
:104F00000904822B932B8093802C9093812C81E039
:104F10008093842C18B817B810927F2C88E0809367
:104F20008706FF91EF919F918F913F912F910F9065
:104F30000BBE0F9008BE0F900FBE0F901F901895DC
:104F4000E0E0F9E08FEF94E086A397A380E6848702
:104F500080E387838FEF90E086AB97AB88E0809308
:104F6000870608951F920F920FB60F92112408B66C
:104F70000F9218BE0BB60F921BBE2F933F934F9309
:104F80005F938F939F93EF93FF931092070A109272
:104F9000000A1092470910924009809181038E7F88
:104FA0008093810384B195B180FF1AC0379B03C001
:104FB00086B1869503C086B18695806886B984B12E
:104FC00095B1019684B995B987709927892B41F4D9
:104FD000EAB1FBB1CF0101968AB99BB986B1808352
:104FE00084B195B187709927892BC9F0E4B1F5B1E7
:104FF00086B144B155B193E0F695E7959A95E1F7FE
:10500000ED5EFE4C90E04770552728E030E0241B11
:10501000350B02C0959587952A95E2F7808381E04C
:105020008093832C1092842C8FEF9FEF8093260A1D
:105030009093270A1092200A1092210A1092060AD1
:105040001092070A1092030A84E08093000A83E01A
:1050500080937F2CFF91EF919F918F915F914F9162
:105060003F912F910F900BBE0F9008BE0F900FBE77
:105070000F901F9018951F920F920FB60F92112448
:1050800008B60F9218BE0BB60F921BBE8F93EF930C
:10509000FF93E0E8F3E081818F7C8183E0E0FAE038
:1050A00088E8838381E08083FF91EF918F910F9057
:1050B0000BBE0F9008BE0F900FBE0F901F9018955B
:1050C0001F920F920FB60F92112408B60F9218BEBE
:1050D0000BB60F921BBE8F939F93EF93FF9380911C
:1050E0006009109260091092610993E09093400961
:1050F000813520F4813308F472C01BC08137E8F495
:1051000084B195B180FF2EC086B18695806886B93E
:1051100084B195B1019684B995B987709927892B87
:1051200041F4EAB1FBB1CF0101968AB99BB986B1CE
:10513000808386B1869580682CC086B1869580680C
:1051400086B984B195B1019684B995B987709927CC
:10515000892B41F4EAB1FBB1CF0101968AB99BB921
:1051600086B1808386B18695806886B984B195B111
:10517000019684B995B987709927892B41F4EAB1D2
:10518000FBB1CF0101968AB99BB986B1808386B104
:10519000869586B984B195B1019684B995B9877021
:1051A0009927892B41F4EAB1FBB1CF0101968AB965
:1051B0009BB986B1808386B1869586B984B195B155
:1051C000019684B995B987709927892B41F4EAB182
:1051D000FBB1CF0101968AB99BB986B18083FF915B
:1051E000EF919F918F910F900BBE0F9008BE0F9083
:1051F0000FBE0F901F9018950F931F93CF93DF93BF
:10520000CDB7DEB7DA95CDBFDEBF8091842C882381
:1052100009F483C04EB15FB18091080490910904F4
:105220002091802C3091812C842B952B821B930B09
:1052300020911E2030911F202F5F3F4F28173907E4
:1052400008F06BC01092070A1092000A10924709EA
:1052500010924009809181038E7F8093810384B1F5
:1052600095B180FF1AC0379B03C086B1869503C0F5
:1052700086B18695806886B984B195B1019684B966
:1052800095B987709927892B41F4EAB1FBB1CF0119
:1052900001968AB99BB986B1808384B195B1877034
:1052A0009927892BC9F0E4B1F5B186B144B155B164
:1052B00013E0F695E7951A95E1F7ED5EFE4C90E068
:1052C0004770552728E030E0241B350B02C0959528
:1052D00087952A95E2F7808381E08093832C109252
:1052E000842C2FEF3FEF2093260A3093270A109249
:1052F000200A1092210A1092060A1092070A1092B0
:10530000030A94E09093000A93E090937F2C14B8E2
:1053100015B88093832C1092842C13DA81116FC2FC
:10532000ECD9882309F46BC28091842C811167C267
:105330008091822C811105C08091832C882309F4EF
:105340005EC280917F2C833041F48091200A90913D
:10535000210A8532914008F452C28091832C88231F
:1053600009F4A2C084B195B1892B09F49DC084B120
:1053700095B1089718F414B815B896C044B155B152
:10538000495F5F4FB3E056954795BA95E1F763E102
:1053900071E3CE0101960E94235683E191E38AB91D
:1053A0009BB944B155B114B815B8898186958695D5
:1053B000898322E030E024173507B0F5F901A3E036
:1053C000F695E795AA95E1F781E090E08C0F9D1F97
:1053D000E80FF91F8081982F96959695908383709A
:1053E000813049F030F08230D1F486B18695806802
:1053F00004C081E015C086B1869586B984B195B1A7
:10540000019684B995B987709927892B41F4EAB13F
:10541000FBB1CF0101968AB99BB986B1808380E048
:105420002E5F3F4F882339F284B195B18770992759
:10543000892BC9F0E4B1F5B186B144B155B173E03F
:10544000F695E7957A95E1F7ED5EFE4C90E04770B2
:10545000552728E030E0241B350B02C09595879531
:105460002A95E2F78083E091B12EF091B22E8781E8
:10547000883019F483E180935B2C8681883019F49D
:1054800083E180935A2C44B155B1495F5F4F63E08B
:10549000569547956A95E1F7E091AE2EF091AF2EC3
:1054A00063E171E382E419951092822C1092832CAF
:1054B00064B175B1E091A42EF091A52E83E191E342
:1054C000199584B995B984B195B1892B09F497C11F
:1054D00089E8809381031092000A1092200A1092AA
:1054E000210A2FEF3FEF2093260A3093270A8FE5FA
:1054F00090E08093280A9093290A1092060A80E18E
:1055000080930C0A93E09093070A1092600910921E
:105510006109209366093093670920EA30E02093FF
:105520006809309369091092460980934C0981E01B
:105530008093470981E18093800110928801109245
:10554000800310922906E091B12EF091B22E87814E
:10555000893019F483E180935B2C8681893019F4BA
:1055600083E180935A2C44B155B1495F5F4F33E0DA
:10557000569547953A95E1F7E091AE2EF091AF2E12
:1055800063E171E383E4199504B115B1013094E04E
:10559000190708F024C114B815B8A801495F5F4F76
:1055A00023E0569547952A95E1F763E171E383E996
:1055B00091E30E94235683E191E38AB99BB986B1B6
:1055C0008695806886B984B195B1019684B995B9FC
:1055D00087709927892B39F484E191E38AB99BB9C3
:1055E00086B18093133186B1869586B984B195B121
:1055F000019684B995B987709927892B41F4EAB14E
:10560000FBB1CF0101968AB99BB986B1808380E056
:1056100041E050E0E3E9F1E30417150708F495C011
:10562000908190FF2BC086B1869586B984B195B1E3
:10563000019684B995B987709927892B41F4AAB14D
:10564000BBB1CD0101968AB99BB986B18C9386B165
:105650008695806886B984B195B1019684B995B96B
:1056600087709927892B09F063C0AAB1BBB1CD011E
:1056700001968AB99BB986B18C935AC0882351F19F
:1056800086B1869586B984B195B1019684B995B9EC
:1056900087709927892B41F4AAB1BBB1CD0101963E
:1056A0008AB99BB986B18C9386B1869586B984B147
:1056B00095B1019684B995B987709927892B41F4E2
:1056C000AAB1BBB1CD0101968AB99BB986B18C93C1
:1056D00080E02FC096B19695906896B924B135B107
:1056E0002F5F3F4F24B935B927703327232B49F457
:1056F000AAB1BBB19D012F5F3F4F2AB93BB996B10B
:105700009C9396B1969596B924B135B12F5F3F4FD2
:1057100024B935B927703327232BD1F6AAB1BBB1F1
:105720009D012F5F3F4F2AB93BB996B19C9301C0B1
:1057300081E09081969590839A0127703327232BDF
:1057400009F431964F5F5F4F67CF811129C086B151
:105750008695806886B984B195B1019684B995B96A
:1057600087709927892B41F4EAB1FBB1CF010196EB
:105770008AB99BB986B1808386B1869586B984B192
:1057800095B1019684B995B987709927892B41F411
:10579000EAB1FBB1CF0101968AB99BB986B180838A
:1057A00084B195B187709927892BC9F0E4B1F5B11F
:1057B00086B144B155B193E0F695E7959A95E1F736
:1057C000ED5EFE4C90E04770552728E030E0241B4A
:1057D000350B02C0959587952A95E2F7808381E085
:1057E00080937F2C83E191E38AB99BB980E2809317
:1057F0000C098CE08093070985E58A95F1F7D3952C
:10580000CDBFDEBFDF91CF911F910F91089514B8E6
:1058100015B881E08093822C0C944E231092070AD5
:105820001092000A1092470910924009809181035A
:105830008E7F8093810384B195B180FF1AC0379B1E
:1058400003C086B1869503C086B18695806886B907
:1058500084B195B1019684B995B987709927892B40
:1058600041F4EAB1FBB1CF0101968AB99BB986B187
:10587000808384B195B187709927892BC9F0E4B1F1
:10588000F5B186B144B155B193E0F695E7959A9597
:10589000E1F7ED5EFE4C90E04770552728E030E0E0
:1058A000241B350B02C0959587952A95E2F78083D6
:1058B00081E08093832C1092842C8FEF9FEF809354
:1058C000260A9093270A1092200A1092210A109219
:1058D000060A1092070A1092030A84E08093000AD5
:1058E00083E080937F2C10927F2C1092832C109257
:1058F000822C0C947423982F80918D2C882359F03E
:105900008091872C811108C081E02091862C92170C
:1059100018F080E0089581E00895FF920F931F939F
:10592000CF93DF931F92CDB7DEB700918A2C000F83
:10593000000F0051FF24F394F0928D2C10E0B80179
:105940006D5F7F4F41E050E086E89CE20E942A0FA5
:10595000B8016C5F7F4F41E050E0CE0101960E949C
:105960002A0F8981881F8827881F8093852CF092B1
:105970008C2C10928B2C1092872C1092892C0F90CB
:10598000DF91CF911F910F91FF90089510928D2C70
:1059900080E180938A2C8FEF8093862C1092852C47
:1059A00081E080938C2C10928B2C1092872C10927B
:1059B000892C089584E180938A2CAFCF89E280936B
:1059C0008A2CABCF81E080938C2C089508958F9220
:1059D0009F92AF92BF92CF92DF92EF92FF920F937E
:1059E0001F93CF93DF9300D01F92CDB7DEB78C010A
:1059F000FC01808190918C2C9230E1F028F0933062
:105A000011F1943051F14EC0292F2095217020932F
:105A10008B2C992311F0863219F0823509F042C09F
:105A200084E4F8018083118282E080938C2C80E1F1
:105A300090E0DBC290918B2C911102C08632B1F0C4
:105A4000823599F513C090918B2C911102C086324A
:105A500069F0823509F05BC009C090918B2C9111DF
:105A600002C0863219F0823509F0F3C084E4F801EF
:105A70008083118281E0892713C08091892C811154
:105A8000FCC0F8018081803509F476C108F006C1B8
:105A9000803309F409C190918D2C911174C181E07A
:105AA00080938C2C80E090E0A0C28339C1F71982EA
:105AB0001A821B821C8288E8898343E050E060E000
:105AC00070E0CE0102960E942A0FF8018181803297
:105AD00009F4ABC0803709F047C0F8019281898191
