:100000000C948F0B0C94B40B0C94B40B0C94B40B99
:100010000C94B40B0C94B40B0C94B40B0C94B40B64
:100020000C94B40B0C94B40B0C94240D0C94B40BE2
:100030000C94B40B0C94B40B0C94B40B0C94B40B44
:100040000C94B40B0C94B40B0C94B40B0C94B40B34
:100050000C94B40B0C94B40B0C94B40B0C94B40B24
:100060000C94B40B0C94B40B0C94B40B0C94B40B14
:100070000C94B40B0C94B40B0C94B40B0C94B40B04
:100080000C94B40B0C94B40B0C94AA230C94B40BE6
:100090000C94B40B0C94B40B0C94B40B0C94B40BE4
:1000A0000C94B40B0C94B40B0C94B40B0C94B40BD4
:1000B0000C94B40B0C94B40B0C94B40B0C947924E6
:1000C0000C94B40B0C94ED270C94B40B0C94B40B5F
:1000D0000C94B40B0C94B40B0C94B40B0C94B40BA4
:1000E0000C94B40B0C94B40B0C94B40B0C94B40B94
:1000F0000C94B40B0C94B40B0C94B40B0C94B40B84
:100100000C94B40B0C94B40B0C94B40B0C94B40B73
:100110000C94B40B0C94C8270C94B40B0C94B40B33
:100120000C94B40B0C94B40B0C94B40B0C94B40B53
:100130000C94B40B0C94B40B0C94B40B0C94E223FD
:100140000C94ED0B0C94E3260C94B40B0C94B40BB0
:100150000C94B40B0C943F270C94B40B0C94B40B7C
:100160000C94B40B0C94B40B0C94B40B0C94B40B13
:100170000C94B40B0C94B40B0C94B40B0C94B40B03
:100180000C94B40B0C94B40B0C94B40B0C94B40BF3
:100190000C94B40B0C94B40B0C94B40B0C94B40BE3
:1001A0000C94B40B0C94B40B0C94B40B0C94B40BD3
:1001B0000C94B40B0C94B40B0C94B40B0C94B40BC3
:1001C0000C94B40B0C94B40B0C94B40B0C94B40BB3
:1001D0000C94B40B0C94B40B0C94B40B0C94B40BA3
:1001E0000C94B40B0C94B40B0C94B40B0C94B40B93
:1001F0000C94B40B0C9494510C94B40B6364696E1E
:100200006F70737578585B001E03430068006100CF
:100210006D0065006C0065006F006E002D004D00E4
:1002200069006E00690000002A034B006100730042
:100230007000650072002000260020004F0073004F
:10024000770061006C006400200047006D006200D0
:10025000480000000403090409023E00020100C036
:10026000320904000001020201000524001001040B
:100270002402060524060001070582030800FF0981
:10028000040100020A00000007050402100005072F
:100290000583021000051201100102000008D016AB
:1002A000B20401000102DC01D40DD50DD60DD70D2D
:1002B000D80DD90DCE0DCF0DD30DD20D00000001FC
:1002C0003A25A625C525532C6F2C732CCE0D742CE6
:1002D000922FA52F400007003A25A625C525672C9B
:1002E0006F2C732CCE0D742C922FA52F500007006D
:1002F0003A25A625C5256B2C6F2C732CCE0D742C9E
:10030000922FA52FA40007003A25A625C525E52F85
:1003100012301630CE0D1730F836143700040400B2
:100320003A25A625C525F42F12301630CE0D1730EC
:10033000F8361437000407003A25A625C5250330F2
:1003400012301630CE0D1730F83614370010040076
:100350003A25A625C525033012301630CE0D1730AC
:10036000F8361437001007003A25A625C525D70D05
:10037000D80DD90DCE0DCF0DD30DD20D000000013B
:100380005626D1268928DA45DD45EA45EB45324730
:10039000D30DD20D00000000004E4F4E450000006E
:1003A000000000000000000000000000000000004D
:1003B000000000000000000000014D465F554C5455
:1003C00052414C4947485400000000000000000022
:1003D00000000000000000000000024D465F554C88
:1003E0005452414C494748545F4556315F3830427A
:1003F0000000000000000000000000034D465F55B3
:100400004C5452414C494748545F4556315F313650
:10041000344200000000000000000000044D465F70
:10042000434C41535349435F314B000000000000EF
:1004300000000000000000000000000000054D4624
:100440005F434C41535349435F314B5F3742000098
:100450000000000000000000000000000000064D49
:10046000465F434C41535349435F344B0000000007
:100470000000000000000000000000000000000775
:100480004D465F434C41535349435F344B5F3742C2
:10049000000000000000000000000000000000005C
:1004A0000849534F3134343433415F534E49464643
:1004B000000000000000000000000000000000003C
:1004C000000949534F3134343433415F524541447C
:1004D0004552000000000000000000000000000085
:1004E0000000010000010001010000010100010005
:1004F00000010001010001000001010000010001F4
:1005000001000001010001000001010000010001E3
:1005100001000100000100010100000101000100D3
:1005200000010001010001000001010000010001C3
:1005300001000100000100010100000101000100B3
:1005400000010100000100010100000101000100A3
:100550000001000101000100000101000001000193
:100560000100000101000100000101000001000183
:100570000100010000010001010000010100010073
:100580000001010000010001010000010100010063
:100590000001000101000100000101000001000153
:1005A0000100010000010001010000010100010043
:1005B0000001000101000100000101000001000133
:1005C0000100000101000100000101000001000123
:1005D0000100010000010001010000010100010013
:1005E0000001008040C020A060E0109050D030B0EA
:1005F00070F0088848C828A868E8189858D838B80B
:1006000078F8048444C424A464E4149454D434B422
:1006100074F40C8C4CCC2CAC6CEC1C9C5CDC3CBCAA
:100620007CFC028242C222A262E2129252D232B216
:1006300072F20A8A4ACA2AAA6AEA1A9A5ADA3ABAAA
:100640007AFA068646C626A666E6169656D636B6C2
:1006500076F60E8E4ECE2EAE6EEE1E9E5EDE3EBE4A
:100660007EFE018141C121A161E1119151D131B1E0
:1006700071F1098949C929A969E9199959D939B97A
:1006800079F9058545C525A565E5159555D535B592
:1006900075F50D8D4DCD2DAD6DED1D9D5DDD3DBD1A
:1006A0007DFD038343C323A363E3139353D333B386
:1006B00073F30B8B4BCB2BAB6BEB1B9B5BDB3BBB1A
:1006C0007BFB078747C727A767E7179757D737B732
:1006D00077F70F8F4FCF2FAF6FEF1F9F5FDF3FBFBA
:1006E0007FFF004E4F4E450000000000000000005C
:1006F00000000000000000000000000000000000FA
:10070000000000015549445F52414E444F4D0000E6
:1007100000000000000000000000000000000000D9
:1007200000000000025549445F4C4546545F494E65
:100730004352454D454E54000000000000000000AB
:100740000000000000035549445F52494748545F88
:10075000494E4352454D454E5400000000000000F4
:10076000000000000000045549445F4C4546545FBA
:1007700044454352454D454E5400000000000000E2
:1007800000000000000000055549445F52494748F9
:10079000545F44454352454D454E5400000000000F
:1007A0000000000000000000064359434C455F5321
:1007B000455454494E47530000000000000000001B
:1007C0000000000000000000000753544F52455F36
:1007D0004D454D000000000000000000000000003A
:1007E0000000000000000000000008524543414C9A
:1007F0004C5F4D454D00000000000000000000006F
:10080000000000000000000000000009544F4747AE
:100810004C455F4649454C44000000000000000084
:100820000000000000000000000000000A53544FC8
:1008300052455F4C4F4700000000000000000000E0
:1008400000000000000000000000000000004F4613
:100850004600000000000000000000000000000052
:100860000000000000000000000000000000014D3A
:10087000454D4F52590000000000000000000000EC
:100880000000000000000000000000000000000266
:100890004C49564500000000000000000000000028
:1008A0000000000000000000000000000000000048
:1008B000004E4F4E45000000000000000000000008
:1008C0000000000000000000000000000000000028
:1008D0000001504F57455245440000000000000001
:1008E0000000000000000000000000000000000008
:1008F0000000025445524D494E414C5F434F4E4E0D
:1009000000000000000000000000000000000000E7
:10091000000000035445524D494E414C5F5258541B
:10092000580000000000000000000000000000006F
:10093000000000000453455454494E475F4348416A
:100940004E474500000000000000000000000000CD
:100950000000000000054D454D4F52595F53544F64
:1009600052454400000000000000000000000000AC
:10097000000000000000064D454D4F52595F4348AE
:10098000414E474544000000000000000000000008
:100990000000000000000008434F4445435F5258E8
:1009A0000000000000000000000000000000000047
:1009B000000000000000000009434F4445435F541D
:1009C00058000000000000000000000000000000CF
:1009D000000000000000000000074649454C445F4D
:1009E00044455445435445440000000000000000C5
:1009F000000000000000000000000A4C4F474D4579
:100A00004D5F46554C4C0000000000000000000007
:100A1000000000000000000000000025632C25639A
:100A20000025356400416E7920696E7465676572D2
:100A30002066726F6D203020746F2025752E205235
:100A400065666572656E636520766F6C7461676557
:100A50002077696C6C2062652028564343202A2049
:100A60005448524553484F4C44202F203430393598
:100A700029206D562E002575002535640030203D57
:100A8000206E6F2074696D656F75740D0A312D3697
:100A90003030203D20313030206D73202D20363015
:100AA000303030206D732074696D656F757400256A
:100AB00075206D730025342E345800253575206D52
:100AC00056002575202866726F6D20776869636807
:100AD000202575206E6F6E2D766F6C6174696C6564
:100AE000290025750025750025632C2563005241DA
:100AF0004E444F4D004E4F205549442E00436861EF
:100B00006D656C656F6E4D696E6920526576472024
:100B10002553207573696E67204C55464120255337
:100B200020636F6D70696C6564207769746820411B
:100B300056522D4743432025532E2042617365644E
:100B4000206F6E20746865206F70656E2D736F75F1
:100B5000726365204E464320746F6F6C204368615A
:100B60006D656C656F6E4D696E692E20687474706A
:100B7000733A2F2F6769746875622E636F6D2F65E6
:100B80006D7365632F4368616D656C656F6E4D694C
:100B90006E6920636F6D6D697420255300313830A4
:100BA0003132320031353131313500352E342E308D
:100BB0000037626430656631000D0A000D0A000DD1
:100BC0000A000D0A000D0A000D0A00643130303AA7
:100BD0004F4B00000000000000000000000000007B
:100BE000000000000000000000000000653130310E
:100BF0003A4F4B2057495448205445585400000060
:100C0000000000000000000000000000006E313114
:100C1000303A57414954494E4720464F5220584D8B
:100C20004F44454D00000000000000000000C832A5
:100C300030303A554E4B4E4F574E20434F4D4D415D
:100C40004E4400000000000000000000000000C949
:100C50003230313A494E56414C494420434F4D4D74
:100C6000414E44205553414745000000000000001C
:100C7000CA3230323A494E56414C494420504152D2
:100C8000414D4554455200000000000000000000A6
:100C900000783132303A46414C53450000000000A4
:100CA0000000000000000000000000000000000044
:100CB0000000793132313A545255450000000000AD
:100CC0000000000000000000000000000000000024
:100CD000000000CB3230333A54494D454F55540053
:100CE0000000000000000000000000000000000004
:100CF0000000000056455253494F4E0000000000CE
:100D000000000000000000000000AF19434F4E46F5
:100D10004947000000000000000000000000000043
:100D2000D719D11955494400000000000000000007
:100D300000000000000000002D1AEE195245414449
:100D40004F4E4C5900000000000000000000000061
:100D50008B1A7F1A55504C4F414400000000000090
:100D600000000000B81A000000000000444F574E79
:100D70004C4F41440000000000000000BD1A00007C
:100D800000000000524553455400000000000000E0
:100D900000000000C21A0000000000005550475239
:100DA000414445000000000000000000CD1A000092
:100DB000000000004D454D53495A45000000000019
:100DC00000000000000000000000D81A55494453FC
:100DD000495A45000000000000000000000000002B
:100DE0000000F01A52425554544F4E0000000000CB
:100DF00000000000000000000D1B061B524255546D
:100E0000544F4E5F4C4F4E47000000000000000062
:100E1000291B221B4C425554544F4E000000000029
:100E20000000000000000000451B3E1B4C425554D2
:100E3000544F4E5F4C4F4E47000000000000000032
:100E4000611B5A1B4C4544475245454E000000006B
:100E500000000000000000007D1B761B4C45445242
:100E600045440000000000000000000000000000F9
:100E7000991B921B4C4F474D4F444500000000000A
:100E80000000000000000000B31BAE1B4C4F474D9C
:100E9000454D0000000000000000000000000000C0
:100EA0000000C81B4C4F47444F574E4C4F41440025
:100EB00000000000ED1B0000000000004C4F4753F5
:100EC000544F52450000000000000000F21B0000DB
:100ED000000000004C4F47434C45415200000000C9
:100EE00000000000F51B00000000000053455454B2
:100EF000494E470000000000000000000000000014
:100F0000FD1BF81B434C454152000000000000004F
:100F100000000000051C00000000000053544F5268
:100F2000450000000000000000000000091C000057
:100F300000000000524543414C4C000000000000FE
:100F4000000000000D1C000000000000434841525A
:100F500047494E470000000000000000000000006C
:100F60000000111C48454C5000000000000000002B
:100F700000000000191C00000000000052535349FB
:100F80000000000000000000000000000000000061
:100F90000000551C5359535449434B0000000000B6
:100FA00000000000000000000000881C53454E4473
:100FB0005F524157000000000000000000002E1D9D
:100FC0000000000053454E440000000000000000F7
:100FD000000000000000A41C00000000474554551C
:100FE000494400000000000000000000EA1D00006D
:100FF0000000000044554D505F4D46550000000074
:1010000000000000CD1D0000000000004944454ED6
:10101000544946590000000000000000071E00006F
:101020000000000054494D454F5554000000000099
:101030000000000000000000441E241E54485245D9
:1010400053484F4C44000000000000000000000026
:10105000A81E901E4155544F43414C4942524154A1
:1010600045000000321F0000000000004649454CCA
:10107000440000000000000000000000000000002C
:10108000F41E1E1F00000000000000000000000011
:1010900000000000000000000000000053414B3A37
:1010A00009005549443A0900415451413A09005454
:1010B00068657265206973206174206C6561737462
:1010C000206F6E65206D6F7265206361726420749D
:1010D0007970652063616E6469646174652C206257
:1010E000757420746865726520776173206E6F7403
:1010F00020656E6F756768207465726D696E616CCE
:10110000206275666665722073706163652E0D0AD4
:10111000000D0A00040001090100000000000000A9
:1011200000000000000000000000004E58500000C9
:1011300000000000000000000000004D4946415240
:1011400045204D696E6900000000000000000000AD
:10115000000000000000000000000000000000008F
:10116000000000000000000000000000000000007F
:101170000000000000000000000000040001080161
:10118000000000000000000000000000000000005F
:1011900000004E5850000000000000000000000059
:1011A00000004D494641524520436C6173736963A9
:1011B00020316B0000000000000000000000000073
:1011C000000000000000000000000000000000001F
:1011D000000000000000000000000000000000000F
:1011E00000000200011801000000000000000000E3
:1011F0000000000000000000004E585000000000F9
:101200000000000000000000004D4946415245200A
:10121000436C617373696320346B0000000000004D
:1012200000000000000000000000000000000000BE
:1012300000000000000000000000000000000000AE
:101240000000000000000000004400010001000058
:10125000000000000000000000000000000000008E
:101260004E58500000000000000000000000000088
:101270004D494641524520556C7472616C696768EE
:1012800074000000000000000000000000000000EA
:10129000000000000000000000000000000000004E
:1012A000000000000000000000000000000000003E
:1012B00044030120017577810280000000000000D6
:1012C000000000000005004E585000000000000023
:1012D000000000000000004D4946415245204445B1
:1012E0005346697265000000000000000000000025
:1012F00000000000000000000000000000000000EE
:1013000000000000000000000000000000000000DD
:1013100000000000000000440301200175778102F5
:1013200080000000000000000000000005004E5892
:1013300050000000000000000000000000004D49C7
:101340004641524520444553466972652045563111
:10135000000000000000000000000000000000008D
:10136000000000000000000000000000000000007D
:101370000000000000000000000000000000040366
:101380000128013877B14A434F5033310000000043
:10139000000000090149424D00000000000000006B
:1013A00000000000004A434F5033310000000000AD
:1013B000000000000000000000000000000000002D
:1013C000000000000000000000000000000000001D
:1013D000000000000000000000000000000000000D
:1013E000000000000048000120017877B1024A4364
:1013F0004F5076323431000000000C0149424D005C
:101400000000000000000000000000004A434F50B0
:1014100033312076322E342E3100000000000000DF
:1014200000000000000000000000000000000000BC
:1014300000000000000000000000000000000000AC
:101440000000000000000000000000004800012033
:10145000013833B14A434F50343156323200000024
:10146000000C0149424D0000000000000000000097
:101470000000004A434F5034312076322E320000B3
:10148000000000000000000000000000000000005C
:10149000000000000000000000000000000000004C
:1014A000000000000000000000000000000000003C
:1014B00000000004000128013833B14A434F503482
:1014C00031563233310000000D0149424D00000019
:1014D000000000000000000000004A434F5034317B
:1014E0002076322E332E3100000000000000000074
:1014F00000000000000000000000000000000000EC
:1015000000000000000000000000000000000000DB
:10151000000000000000000000000400018801003D
:1015200000000000000000000000000000000000BB
:1015300000496E66696E656F6E0000000000000075
:10154000004D494641524520436C617373696320E5
:10155000316B0000000000000000000000000000EF
:10156000000000000000000000000000000000007B
:10157000000000000000000000000000000000006B
:1015800000020001980100000000000000000000BF
:10159000000000000000000047656D706C7573006E
:1015A00000000000000000004D50434F53000000B9
:1015B000000000000000000000000000000000002B
:1015C000000000000000000000000000000000001B
:1015D000000000000000000000000000000000000B
:1015E0000000000000000000000C010000000000EE
:1015F00000000000000000000000000000000049A2
:101600006E6E6F766973696F6E2052265400004AC1
:101610006577656C0000000000000000000000001D
:1016200000000000000000000000000000000000BA
:1016300000000000000000000000000000000000AA
:101640000000000000000000000000000000000298
:101650000001380100000000000000000000000050
:101660000000000000004E6F6B6961000000000088
:101670000000000000004D494641524520436C6186
:101680007373696320346B202D20656D756C6174F4
:10169000656420283632313220436C61737369638C
:1016A0002900000000000000000000000000000011
:1016B00000000000000008000138010000000000E8
:1016C000000000000000000000000000004E6F6BF2
:1016D000696100000000000000000000004D494664
:1016E00041524520436C617373696320346B202D34
:1016F00020656D756C617465642028363133312046
:101700004E464329000000000000000000000000D9
:101710000000000000000000000000000000112494
:101720001FBECFEFCDBFDFE3DEBF00E00CBF18BEB2
:1017300019BE1ABE1BBE14E2A0E0B0E2E8E7F7EB68
:1017400000E00BBF02C007900D92AA30B107D9F795
:101750001BBE25E3AAE0B4E201C01D92A834B20783
:10176000E1F77ED00C94BA5B66C13BB78BBFFB013F
:10177000879196913BBF08953BB78BBFCB0142E267
:101780000D94F00F3BB70B0143E20D94F00F3BB704
:101790008BBFCB0145E20D94F00F3BB746E208C08A
:1017A0002091CF0127FDFCCF22272093CA01089565
:1017B0004093CA0128ED31E0209334003093CB01EF
:1017C0006091C4017091C5018091C6019927089567
:1017D000FC014093CA01849108950F9200240F9355
:1017E0002F933F934F935F930FB70F93EF93FF9315
:1017F000EAB1FBB15191442735B124B1569578F443
:1018000000928C080092000806E10A95F1F700C0EA
:1018100001E00093000803E000938C0804C00AE193
:101820000A95F1F700002150304019F40E942D274D
:101830000CC04F5F477011F4519102C000C000C04E
:101840000AE00A95F1F700C0D9CFFF91EF910F910F
:101850000FBF5F914F913F912F910F910F9018956E
:101860000CD10E94E0160E947117A6D21092520667
:1018700084E08093420682E680938601C1E0C093B3
:101880002606C093210686E080932206C093310687
:1018900002E00093320610922A0613E01093290604
:1018A00089E5809380018AE58093810180E48093BB
:1018B0004106809346069091B200907F9093B200CB
:1018C0009091B20092609093B20090E390934106A1
:1018D0009093460680935006C093460600934506B3
:1018E0001093410683E18093010821E030E02093CA
:1018F000260830932708209328083093290810924F
:101900008C08809380081092230310922103D8E062
:10191000D093220381E18093200380911E20909137
:101920001F2080933803909339038CE380938203C4
:10193000D093800380938303D093810366D10E9468
:101940001319B7D10FD7C093000210920102009370
:10195000020210930402C0932002D09321020E943D
:10196000731517D1D2E0C1E18091030481FF25C036
:101970008091010480FDFCCFD09303040E94751771
:10198000AED10E944519F6D60E94DB16E0915A2E80
:10199000F0915B2E19950E9425220E94B218E091C9
:1019A000692EF0916A2E8781813011F4C093132C37
:1019B0008681813011F4C093122C0E94171994D79C
:1019C000E091582EF091592E1995E091522EF091F8
:1019D000532E1995C9CF292F33272230310559F0BD
:1019E0002330310569F021303105E9F482E190E0DE
:1019F00026E932E01CC08EE390E028E532E017C013
:101A000099278130910549F028F0029761F4E8E0C8
:101A1000F2E005C0E4E5F2E002C0E8E2F2E0849121
:101A200090E09F0104C080E090E020E030E0FA0107
:101A30002083318308951F920F920FB60F921124C5
:101A400008B60F9218BEFFCF1F920F920FB60F92DB
:101A5000112408B60F9218BE8F939F938EB19FB139
:101A600080589F4F8EB99FB99F918F910F9008BE5C
:101A70000F900FBE0F901F9018958091780083FFF4
:101A80000AC088E08093780088ED84BF81E080936D
:101A900080000D94FE008BEC8093520080915000EA
:101AA0008860809350008091510083FFFCCF82ECCE
:101AB0008093550080915000806180935000809108
:101AC000510084FFFCCF88ED84BF84E08093400008
:101AD0001EB81FB881E0809343002FE730E02093C9
:101AE0000A0430930B0420930C0430930D0480936C
:101AF00000048093020480E880930001089588ED3B
:101B000084BF81E080937900089588ED84BF8BE1E4
:101B100080938000089580915000826080935000EF
:101B20008091510081FFFCCF82E08093CA01EDE1FA
:101B3000F0E0E491E0936200ECE1F0E0E491E09306
:101B400063001092CA0180E8809365008BEB80935C
:101B5000660080915600897F8093560080915600E0
:101B60008460809356008091600081608093600063
:101B70000895E0E4F0E084818E7F8483E0E6F0E085
:101B800080818E7F8083E0E5F0E080818D7F80839F
:101B9000089587E08093A20078940895089580E0E6
:101BA00090E008950895089508950895089508957A
:101BB000089508950F931F93CF93C82F0EE41EE24C
:101BC000D8011296ED91FC91139719950E945D2210
:101BD000E091692EF0916A2EC583B8E1CB9FB001E8
:101BE000112468557D4F48E150E0C8010E947D54A2
:101BF000D801ED91FC911995D8011696ED91FC91C3
:101C00001797CF911F910F91199448E150E068EA1E
:101C100072E08EE49EE20E947D54E091692EF09184
:101C20006A2E8581C7CF0F931F93E091692EF091A3
:101C30006A2E8B019C0145816AE088E993E00E944D
:101C40004E181F910F910895FF920F931F93CF93FA
:101C5000DF931F92CDB7DEB78C019E012F5F3F4F00
:101C6000AC016AE088E993E00E946618F82E8823A8
:101C700089F089819FDFF80140E08191882319F084
:101C80004F5F4F31D1F7E091662EF091672EB8018A
:101C900081E119958F2D0F90DF91CF911F910F91B9
:101CA000FF9008959B01AC016AE088E993E00C94F1
:101CB0008D1808950C946F5408950F931F93CF932C
:101CC0008C01C62FCC2339F00E946F54F801819308
:101CD0008F01C150F7CFCF911F910F9108950E94AE
:101CE0006F540E946F540E946F540C946F54CF93A2
:101CF000DF93EC0161507109DA01420F531FFC01BF
:101D0000CF018C1B9D0BA417B50721F41082DF9126
:101D1000CF91089562307105C8F39D91392F3295A6
:101D20003F703A3010F4305D01C0395C30839F70F1
:101D30009A3010F4905D01C0995C918332966250A4
:101D40007109DECFCF93DF93EC01DA0120E030E0C0
:101D50005C91552351F111969C911197992339F17A
:101D60002617370711F180ED850F8A3020F08FEBB1
:101D7000850F8630E0F480ED890F8A3020F04FEB3C
:101D8000490F4630A0F4E52FF0E0513408F0F79702
:101D9000E295E07F913410F4982F01C097539E2B69
:101DA00099932F5F3F4F1296D3CFC90102C080E0B5
:101DB00090E0DF91CF910895E0E6F6E080E1858341
:101DC00082E0868388E085838AE18183E0EAF9E026
:101DD0001682178280EC858388E18483E0E0F1E05D
:101DE000128A8BE6838B148A158A20EA208F99E069
:101DF000918F128E148E158E168E84E0808B12A217
:101E00003CE633A314A215A210A611A612A624A77D
:101E100095A716A680A308954115510509F449C058
:101E200020E12093660623E02093A0092091A109D8
:101E300027FFFCCF2091A0097093A0092091A10950
:101E400027FFFCCF2091A0096093A0092091A10950
:101E500027FFFCCF2091A00921E02093120180935D
:101E60001C0190931D014093140150931501109291
:101E700022018AE094E28093280190932901409303
:101E800024015093250180911001806880931001F6
:101E9000809120018068809320018091100187FD4E
:101EA000FCCF80E3809311018093210180E1809336
:101EB000650608954115510509F469C020E1209394
:101EC000660626E02093A0092091A10927FFFCCFF8
:101ED0002091A00920E120936506000000002093D6
:101EE000660622E02093A0092091A10927FFFCCFDC
:101EF0002091A0097093A0092091A10927FFFCCF90
:101F00002091A0096093A0092091A10927FFFCCF8F
:101F10002091A009109212012AE034E220931C01C2
:101F200030931D01409314015093150120E120933B
:101F3000220180932801909329014093240150931A
:101F4000250180911001806880931001809120010B
:101F50008068809320018091100187FDFCCF80E391
:101F6000809311018093210180E180936506E091C7
:101F7000692EF0916A2E8781863019F481E1809371
:101F8000132C8681863019F481E18093122C0895F8
:101F9000CF92DF92EF92FF92CF93DF93C090682EA3
:101FA000D12CE12CF12C8DE0CC0CDD1CEE1CFF1CA7
:101FB0008A95D1F7C114D10481E0E806F10408F054
:101FC0004EC080E18093660686E08093A0098091F0
:101FD000A10987FFFCCF8091A00980E1809365066D
:101FE000000000008093660682E08093A009809143
:101FF000A10987FFFCCF8091A0091092A0098091D0
:10200000A10987FFFCCF8091A0091092A0098091BF
:10201000A10987FFFCCF8FEFE81AF80A8091A00989
:10202000C0E0D0E1C701B601A0DB8093A009809198
:10203000A10987FFFCCF8091A0099093A00980910E
:10204000A10987FFFCCF8091A00982E0C80ED11CB6
:10205000E11CF11C219731F780E1809365068091A6
:10206000010480FDFCCF82E080930304DF91CF91D7
:10207000FF90EF90DF90CF900895CF92DF92EF9294
:10208000FF92CF93DF93C090682ED12CE12CF12CDE
:102090008DE0CC0CDD1CEE1CFF1C8A95D1F7C11421
:1020A000D10481E0E806F10438F0DF91CF91FF9090
:1020B000EF90DF90CF906CCF8FEFE81AF80AC1E273
:1020C000D0E0219791F36CDBC701B60155DB68DBEB
:1020D0008FEFD81AE80AF80AF4CFCF92DF92EF9286
:1020E000FF920F931F93CF93DF93C090682ED12C54
:1020F000E12CF12C8DE0CC0CDD1CEE1CFF1C8A9534
:10210000D1F7C114D10481E0E806F10408F04FC012
:1021100080E18093660683E08093A0098091A10905
:1021200087FFFCCF8091A0091092A0098091A1099E
:1021300087FFFCCF8091A0091092A0098091A1098E
:1021400087FFFCCF8FEFE81AF80A8091A00901E21F
:1021500010E00150110941F123DB1FDB21DBC0E05E
:10216000D0E01092A0098091A10987FFFCCF609177
:10217000A00970E01092A0098091A10987FFFCCF0F
:102180008091A009782BCE01FDDA0ADB2296C115D9
:1021900081E0D80731F7C701B601F9DA01DB8FEF2B
:1021A000D81AE80AF80AD5CF80E180936506E09155
:1021B000692EF0916A2E8781863019F490E1909310
:1021C000132C9681963049F420E12093122C85300F
:1021D00059F483E18093132C02C08530D1F39530FC
:1021E00019F483E18093122C8091010480FDFCCFCF
:1021F00082E080930304DF91CF911F910F91FF90B4
:10220000EF90DF90CF900895CF92DF92EF92FF9200
:102210000F931F934115E0E25E076105710508F019
:102220006BC06901E12CF12C00E010E220E030E00D
:10223000041B150B260B370BC016D106E206F3065E
:1022400010F49701860120E12093660626E0209392
:10225000A0092091A10927FFFCCF2091A00920E12E
:1022600020936506000000002093660622E020937C
:10227000A0092091A10927FFFCCF2091A00950932C
:10228000A0092091A10927FFFCCF2091A00940932C
:10229000A0092091A10927FFFCCF2091A00910924D
:1022A00012012AE034E220931C0130931D010093B7
:1022B00014011093150120E120932201809328013D
:1022C000909329010093240110932501809110011E
:1022D00080688093100180912001806880932001A4
:1022E0008091100187FDFCCF80E3809311018093E2
:1022F000210180E18093650681E01F910F91FF909D
:10230000EF90DF90CF900895CF92DF92EF92FF92FF
:102310000F931F934115E0E25E076105710508F018
:102320005DC06901E12CF12C00E010E220E030E01A
:10233000041B150B260B370BC016D106E206F3065D
:1023400010F49701860120E12093660623E0209394
:10235000A0092091A10927FFFCCF2091A00950934B
:10236000A0092091A10927FFFCCF2091A00940934B
:10237000A0092091A10927FFFCCF2091A00921E00D
:102380002093120180931C0190931D01009314016E
:1023900010931501109222018AE094E280932801A3
:1023A000909329010093240110932501809110013D
:1023B00080688093100180912001806880932001C3
:1023C0008091100187FDFCCF80E380931101809301
:1023D000210180E18093650681E001C080E01F91CA
:1023E0000F91FF90EF90DF90CF9008958091CF01F3
:1023F00087FDFCCF0895FADF8091CF0181FF0BC0EC
:1024000086E38093CA01EBECF1E021E030E088ED57
:1024100090E084BF20830895EF92FF920F931F9363
:10242000CF93DF93EC017B018A011092C201DEDFC2
:10243000D701CE01800F911F26E048ED50E061E00A
:1024400070E0EBECF1E0C817D90779F0C093C00158
:102450003D2F3F713093C1012093CA0144BF608377
:102460003091C4013D932196EECFC801DF91CF9109
:102470001F910F91FF90EF9008953F924F925F92BE
:102480006F927F928F929F92AF92BF92CF92DF9284
:10249000EF92FF920F931F93CF93DF938B01542EF4
:1024A000652E282F2F71722EEC01C21BD109A3DFDC
:1024B0009DDF83E38093CA011092C1011092C20193
:1024C0007801052D162D85E3482E98EDC92ED12CC7
:1024D00088248394912C3BECA32EBB24B39443E338
:1024E000342E0115110501F17092C001F70181919F
:1024F0007F018093C4010150110921F07394F0E22F
:102500007F12EFCFC093C0018D2F8F718093C101D7
:102510004092CA01C601F50184BF8082A09666DFA1
:102520003092CA01712CDDCF852D962DDF91CF9190
:102530001F910F91FF90EF90DF90CF90BF90AF90E1
:102540009F908F907F906F905F904F903F900895F5
:102550001F93CF93DF93CDB7DEB7A097CDBFDEBF7C
:10256000853009F4AEC078F4823081F128F48130EE
:1025700009F0F1C010E01BC0833009F453C084306F
:1025800009F475C0E8C0883009F4D3C040F486303F
:1025900009F4CDC0873009F0DEC09FDDDCC0893092
:1025A00009F4C9C08A3009F0D6C07FD3D4C0809165
:1025B000642E181708F0A8C07DDBE1E0F0E0EC0F16
:1025C000FD1FE10FF11D80831F5FF1CF11E08091AE
:1025D000642E873009F010E0E0915E2EF0915F2EBE
:1025E000CE01019619954091642E31E0141708F040
:1025F0008BC03323A9F0812F90E0E1E0F0E0EC0FF5
:10260000FD1FE80FF91F208131E02F3F09F030E076
:10261000E1E0F0E0EC0FFD1FE80FF91F2F5F2083D2
:102620001F5FE4CFE0915E2EF0915F2ECE01019608
:1026300019958091642E41E0815008F465C04423CF
:10264000D9F3282F30E0E1E0F0E0EC0FFD1FE20FBE
:10265000F31F908141E09F3F09F040E0E1E0F0E0AE
:10266000EC0FFD1FE20FF31F9F5F9083E5CF11E09A
:102670008091642E873009F010E0E0915E2EF09199
:102680005F2ECE01019619954091642E31E014170A
:10269000D8F53323A1F0812F90E0E1E0F0E0EC0FDA
:1026A000FD1FE80FF91F208131E0211130E0E1E04A
:1026B000F0E0EC0FFD1FE80FF91F215020831F5F92
:1026C000E6CFE0915E2EF0915F2ECE010196199536
:1026D0008091642E41E08150B8F04423E1F3282F2B
:1026E00030E0E1E0F0E0EC0FFD1FE20FF31F90811E
:1026F00041E0911140E0E1E0F0E0EC0FFD1FE20F5E
:10270000F31F91509083E7CFE091602EF091612EFE
:10271000CE0101961995E091662EF091672E4091B9
:10272000642EBE016F5F7F4F83E1199514C0A3D360
:1027300012C02EDC10C080910008813021F49091ED
:102740008C08933009F080E080FD03C00E94E722EE
:1027500002C00E940D23A096CDBFDEBFDF91CF91B6
:102760001F910895E0E0F6E080E6828388E1868BA1
:10277000858B0895CF93C0910806C095C6FF12C0FF
:1027800080910C248A3050F08A30E1F4E091692E77
:10279000F0916A2E8181DCDE80910C248F5F809322
:1027A0000C2410C08C2F807669F480910C24815009
:1027B0008A3030F4E091692EF0916A2E8081C8DE73
:1027C00010920C24C5FF12C080910B248A3050F067
:1027D0008A30D9F4E091692EF0916A2E8381B8DEB7
:1027E00080910B248F5F80930B240FC0C07669F417
:1027F00080910B2481508A3030F4E091692EF09161
:102800006A2E8281A5DE10920B24CF9108959B0140
:10281000AC016BE082EE96E080C4E82FF0E0E8596E
:10282000F14D88E0638381503A968111FBCF089582
:102830000F931F939B01E091692EF0916A2EE80F90
:10284000F11D8A0140816BE082EE96E027D41F9152
:102850000F9108950F931F93CF93DF931F92CDB7DE
:10286000DEB7082FAB019E012F5F3F4F6BE082EE7A
:1028700096E02CD4182F882319F06981802FCDDFA2
:10288000812F0F90DF91CF911F910F91089508959F
:10289000EF92FF920F931F93CF937B01C42F0EB142
:1028A0001FB12091080430910904022B132B682FCB
:1028B00083E090E20E947F526C2F83E090E20E94BE
:1028C0007F52612F83E090E20E947F52602F83E06D
:1028D00090E20E947F526C2F70E0C701CF911F9150
:1028E0000F91FF90EF9099C408953F924F925F929D
:1028F0006F927F928F929F92AF92BF92CF92DF9210
:10290000EF92FF920F931F93CF93DF937C01E90126
:10291000C0900020D0900120960122503843C90178
:10292000A0E0B0E0481759076A077B0708F05FC0CE
:10293000E2E0CE1AE0E4DE0A2A013B014C0E5D1E05
:10294000611C711C481659066A067B0648F0241B58
:10295000350B8E01021B130BE9013324339403C0A2
:1029600000E010E0312C4601A12CB12C481559058E
:102970006A057B0510F5CA018E5F9F4B2A013B015A
:102980004C0E5D1E611C711C481459046A047B04C2
:1029900028F4AE01BC01C7013FDA18C0C41AD50A39
:1029A000A601BC01C70138DAAE014C195D0962E12C
:1029B00074E2C7018C0D9D1D07C04C195D09BA0159
:1029C0006E5E7B4DAE01C7010E94AB54332041F0D7
:1029D0000C0F1D1FF701E00FF11FCE0DDF1D02C010
:1029E00081E006C0EC17FD07D9F31292FBCF80E01F
:1029F000DF91CF911F910F91FF90EF90DF90CF90DB
:102A0000BF90AF909F908F907F906F905F904F900E
:102A10003F90089520910E2430910F2480E098E09B
:102A2000821B930BE2E1F4E29F012251344228170A
:102A3000390710F41192F8CF82E194E280931024C8
:102A40009093112480E098E080930E2490930F24BB
:102A500082E090E4809300209093012042E050E0D7
:102A600060E070E480E090E225DAE091692EF09178
:102A70006A2E87818A3019F480E18093132C868135
:102A80008A3019F480E18093122C089580910E24ED
:102A900090910F2490582091002030910120821BAA
:102AA000930B0895E8E6FEE287833A969EE2E83BC0
:102AB000F907D1F7813049F018F0823059F00895C4
:102AC00010920D2487E494E109C080930D248EECCC
:102AD00095E104C010920D2488E494E18093662E61
:102AE0009093672E08950F931F93CF93DF931F92B8
:102AF000CDB7DEB7E091692EF0916A2E8481D2DFE6
:102B000082E194E2809310249093112400E018E075
:102B100000930E2410930F2441E050E0BE016F5F3C
:102B20007F4F80E090E078DCE0911024F091112458
:102B3000DF01C8011D920197E9F78981882341F0DF
:102B400042E050E060E070E480E090E265D917C0B8
:102B500082E090E4809300209093012042E050E0D6
:102B600060E070E480E090E2A5D981E0898341E0F3
:102B700050E0BE016F5F7F4F80E090E07EDCE0912F
:102B8000662EF091672E40E060E070E08FEF1995BF
:102B90000F90DF91CF911F910F9108950F931F9385
:102BA000CF93DF93CEB1DFB1A0910804B0910904B7
:102BB00020910E2430910F24E42FF0E08F010C5F60
:102BC0001F4F2017310758F1CA2BDB2B2450310936
:102BD0002E1B3F0B20930E2430930F24A091102422
:102BE000B09111248C9311964C9311971296DC930B
:102BF0001297CD010496809310249093112413967C
:102C0000CC93DB01EC01415018F02D912993FBCFBF
:102C1000E80FF91FE0931024F093112412C080E014
:102C200041DFE091692EF0916A2E87818A3019F494
:102C300081E18093132C86818A3019F481E180939D
:102C4000122CDF91CF911F910F9108951F93CF9375
:102C5000DF931F92CDB7DEB79E012F5F3F4FAC01D0
:102C600063E08DE498E032D2182F882311F0898137
:102C700019DF812F0F90DF91CF911F9108950F934E
:102C80001F93E091692EF0916A2E8B019C01448183
:102C900063E08DE498E002D21F910F9108959B01AB
:102CA000AC0163E08DE498E038C20F931F93CF939B
:102CB000DF9380910E2490910F24811528E09207D4
:102CC00008F074C06091002070910120C0E0D0E84D
:102CD000C61BD70B00E018E0A801481B590BC4170E
:102CE000D50758F182E194E2E5D820910E24309185
:102CF0000F248091002090910120985F821B930BFC
:102D00008093002090930120021B130BE2E1F4E278
:102D1000CF01825194428017910710F41192F8CF9D
:102D200082E194E2809310249093112480E098E053
:102D300080930E2490930F242EC02097B9F1AE01FA
:102D400082E194E2B7D8A8014C1B5D0BBE016E5E18
:102D50007B4D82E194E20E94B454809110249091C2
:102D600011248C1B9D0B809310249093112480912F
:102D70000E2490910F248C0F9D1F80930E2490930E
:102D80000F248091002090910120C80FD91FC0937B
:102D90000020D093012042E050E060E070E480E049
:102DA00090E2DF91CF911F910F9184C8DF91CF9175
:102DB0001F910F91089580910D24811176CF089570
:102DC00043E550E068E67EE281E090E025CB43E514
:102DD00050E068E67EE281E090E04FCBCF93DF9356
:102DE000C8E6DEE2688181E090E00E944C5B698188
:102DF0007A8182E090E0DF91CF910C94555BCF9384
:102E0000DF93CFEFC80FC83080F5D82F0E945D2226
:102E100064D9C093682E8AE0C89F90011124C9012B
:102E20008559914D8093692E90936A2EF901E85946
:102E3000F14D80850E94DA0DE091692EF0916A2EA5
:102E4000848130DEA5D8CADF8FE18D0FE091692E35
:102E5000F0916A2E9781943011F48093132C96810F
:102E6000943029F48093122C02C080E001C081E0EC
:102E7000DF91CF9108958091682E99E04AE09150BA
:102E800099F0282F30E02F5F3F4F27703327822F94
:102E9000429FF001439FF00D1124E859F14D208528
:102EA000222369F38F5FABCF0895FC019091682EC8
:102EB0009F5C908311820895CF93FC0121812111A1
:102EC0000DC0BC01C081E091662EF091672E41E0FB
:102ED00082E1199580ED8C0FCF9191CF80E0CF9159
:102EE000089588E18093010608958091122C823123
:102EF00091F030F48031B9F050F48823A9F132C058
:102F0000833169F090EE980F983088F02BC088E0FC
:102F10008093050627C088E08093070623C0809130
:102F2000040683FF12C088E0809306061BC09091C0
:102F3000142C9F5F913019F09093142C15C01092AF
:102F4000142C9091040693FD04C088E0809305063C
:102F50000BC098E090930606803221F08150809358
:102F6000122C02C01092122C8091132C823191F0FD
:102F700030F48031C1F050F48823A9F132C083319C
:102F800069F090EE980F983088F02BC080E1809324
:102F9000050627C080E18093070623C080910406C0
:102FA00084FF12C080E1809306061BC09091152C0F
:102FB0009F5F913019F09093152C08951092152C65
:102FC0009091040694FD04C080E180930506089565
:102FD00090E190930606803221F081508093132C6B
:102FE00008951092132C08959B01AC016BE080EBC7
:102FF00098E093C0E8E6FEE298E0282F2071887000
:10300000211162878111618791503A969111F8CF11
:10301000222329F090E1909306061092132C882326
:1030200029F088E0809306061092122C08950F93E1
:103030001F939B018A01803131F4E091692EF09158
:103040006A2E478107C0883049F4E091692EF091DB
:103050006A2E46816BE080EB98E020D01F910F91A3
:1030600008950F931F93CF93DF931F92CDB7DEB7D1
:10307000082FAB019E012F5F3F4F6BE080EB98E084
:1030800025D0182F882319F06981802FB3DF812F75
:103090000F90DF91CF911F910F9108950F931F9380
:1030A000FC01662379F094916150941309C0BF012B
:1030B0006F5F7F4FA801C9010E948F5481E003C058
:1030C000B196EFCF80E01F910F910895CF92DF92DC
:1030D000EF92FF921F93CF93DF93EC017A01690186
:1030E000162F112389F0BE016F5F7F4FC7010E9429
:1030F00086541150892B31F4FE01C491F601C0832E
:1031000081E003C0A196EDCF80E0DF91CF911F91C8
:10311000FF90EF90DF90CF900895CF930196CCE28F
:103120006623D1F0FC01DA01AD017491772341F0FF
:1031300021153105A9F07D93319621503109F4CF45
:10314000623038F02115310559F0FD01C0834F5F21
:103150005F4F61508196E4CF232B11F0FA0110826A
:10316000CF91089580912002806880932002809101
:10317000230280FFFCCF81E080932302A091100204
:10318000B0911102AE5BB109B7FF02C0A0E0B0E0A0
:1031900020E038EB4BE050E00E940954E091692EAA
:1031A000F0916A2E843F9140A8F48781873019F40A
:1031B00080E18093132C8681873019F480E180931D
:1031C000122C8091642E882389F0E091562EF09184
:1031D000572E19948781873019F481E18093132C3D
:1031E0008681873019F481E18093122C0895BC0107
:1031F00083E090E20C943152CF93DF93FC01649111
:10320000EC012196662331F083E090E20E947F5228
:10321000CE01F4CFDF91CF910895AB01BC0183E0E3
:1032200090E20C945B5280E2809362060895CF9303
:10323000DF938091162C823029F583E090E20E9482
:10324000E8520E94C64D83E090E20E940453EC01D4
:1032500097FD18C0E091692EF0916A2E8781833026
:1032600019F483E18093132C8681833019F483E170
:103270008093122C8C2F44D6811104C08C2FDF91A7
:10328000CF91E1C7DF91CF9108958091162C8130C5
:1032900079F028F08230C9F0833011F12EC080918E
:1032A000680685FF31C08FE08093022081E015C061
:1032B00080910220815080930220811125C00E94BC
:1032C0008B0D0E945E5182E008C08091680685FDEA
:1032D00018C08FE08093022083E08093162C0DC0ED
:1032E0008091022081508093022081110DC00E94A4
:1032F00023510E94B90D1092162C8091162C823009
:1033000019F44DD70C9425220895E091692EF0917F
:103310006A2E8781823019F481E18093132C868193
:10332000823019F481E18093122C0895E091692E86
:10333000F0916A2E8781823019F480E18093132CFA
:103340008681823019F480E18093122C089583E005
:1033500090E20C940C5283E090E20C94575321EBD2
:103360003BE03F932F932BEA3BE03F932F9324EADC
:103370003BE03F932F932DE93BE03F932F932DEFBD
:103380003AE03F932F9322E02F931F929F938F93C6
:103390000E9414558DB79EB70E968DBF9EBF85E6D1
:1033A000089560E072E00E94130E85E60895FB0127
:1033B00020812F3349F42181211106C060E072E0A1
:1033C0000E94520E85E60895CB010E94240E8823A8
:1033D00019F0FDDC84E608958AEC0895EF92FF92DF
:1033E0000F931F93CF93DF93CDB7DEB7A097CDBFD9
:1033F000DEBF7C010091642E10E00115110591F4EF
:1034000085EF9AE09F938F9382E08F931F92FF92B4
:10341000EF920E9414550F900F900F900F900F9005
:103420000F9010C0E0915E2EF0915F2ECE010196BC
:1034300019959801AE014F5F5F4F60E072E0C701E0
:103440000E94770E85E6A096CDBFDEBFDF91CF91BB
:103450001F910F91FF90EF900895DF92EF92FF92EE
:103460000F931F93CF93DF93CDB7DEB7A097CDBF58
:10347000DEBF7B010091642E10E06EEE7AE0C701A2
:103480000E948654892B29F5D12CED2CF12CE016C5
:10349000F10658F40E945A0EE1E0F0E0EC0FFD1F37
:1034A000EE0DFF1D8083D394F0CFE091602EF0915C
:1034B000612ECE0101961995E091662EF091672E4E
:1034C0004091642EBE016F5F7F4F83E1199584E6C2
:1034D0000BC0A70160E270E0CE0101960E94A20E2F
:1034E0000817190711F38AECA096CDBFDEBFDF9154
:1034F000CF911F910F91FF90EF90DF900895FC0105
:103500008091652E882311F081E301C080E38083E0
:10351000118285E60895FB012181211127C02081B8
:10352000213321F481E08093652E04C0203321F4FF
:103530001092652E84E608952F33C1F41F9220E384
:103540002F931F9221E32F9328EE3AE03F932F937E
:1035500022E02F931F929F938F930E9414558DB753
:103560009EB70A968DBF9EBF85E608958AEC0895A2
:1035700084E091E194D48EE6089584E891E1AAD4A0
:103580008EE60895E0ECF4E081818E7F81830E94D5
:1035900023510E947F0D84E60895E0ECF4E08181E0
:1035A0008E7F81830E9423510E94850D84E60895B9
:1035B000EEE4FEE225892F9324892F9325EE3AE04D
:1035C0003F932F9322E02F931F929F938F930E94FC
:1035D00014558DB79EB708968DBF9EBF85E608959A
:1035E0002091642E1F922F9322EE3AE03F932F9367
:1035F00022E02F931F929F938F930E9414558DB7B3
:103600009EB708968DBF9EBF85E6089540E052E0C4
:10361000BC0180E00DD985E60895FB0120812F33A0
:1036200041F42181211105C060E072E0F0D885E607
:10363000089580E00FD9882319F0C9DB84E6089546
:103640008AEC089540E052E0BC0181E0F1D885E6C3
:103650000895FB0120812F3341F42181211105C000
:1036600060E072E0D4D885E6089581E0F3D888233D
:1036700019F0ADDB84E608958AEC089540E052E04D
:10368000BC0182E0D5D885E60895FB0120812F3367
:1036900041F42181211105C060E072E0B8D885E6CF
:1036A000089582E0D7D8882319F091DB84E6089545
:1036B0008AEC089540E052E0BC0183E0B9D885E689
:1036C0000895FB0120812F3341F42181211105C090
:1036D00060E072E09CD885E6089583E0BBD888233B
:1036E00019F075DB84E608958AEC089540E052E015
:1036F000BC0180E19CDC85E60895FB0120812F332D
:1037000041F42181211105C060E072E06DDC85E6A5
:10371000089580E1A6DC882319F059DB84E608953A
:103720008AEC089540E052E0BC0188E080DC85E648
:103730000895FB0120812F3341F42181211105C01F
:1037400060E072E051DC85E6089588E08ADC882339
:1037500019F03DDB84E608958AEC089560E072E09C
:103760008EDA85E60895FB0120812F3341F4218113
:10377000211105C060E072E092DA85E60895CB0180
:1037800065DA882319F023DB84E608958AEC08952E
:10379000CF93DF93EC017AD9813028E0920718F0BB
:1037A0009C01385002C020E030E03F932F939F935C
:1037B0008F9382EC9AE09F938F9382E08F931F9276
:1037C000DF93CF930E9414558DB79EB70A968DBF95
:1037D0009EBF85E6DF91CF91089585E794E17AD386
:1037E0008EE6089562DA84E6089514D984E6089591
:1037F00060E072E05ADB85E60895CB015DDB811164
:1038000002C08AEC089584E608950E943D1084E683
:1038100008950E946D1084E608950E94C80F84E602
:1038200008958091680680FD02C089E7089588E7C1
:103830000895DF92EF92FF920F931F93CF93DF9340
:10384000EC010FEF11E084EFE82E8CE0F82E9CE203
:10385000D92EB70181EC93E20E948654892BD1F0D6
:1038600001151105B9F0DE01F7012491ED01219652
:10387000C8010197222341F00130110529F02C9352
:10388000DE0131968C01F1CFDC928C0188E1E80EEB
:10389000F11CDFCF2197188285E6DF91CF911F9130
:1038A0000F91FF90EF90DF900895FC01809120022E
:1038B0008068809320028091230280FFFCCF81E00A
:1038C00080932302A0911002B0911102AE5BB10966
:1038D000B7FF02C0A0E0B0E020E038EB4BE050E0E2
:1038E0000E940954AA27BB279F938F938BEB9AE0E2
:1038F0009F938F9382E08F931F92FF93EF930E9489
:1039000014558DB79EB708968DBF9EBF85E6089566
:103910004EB15FB12091080430910904242B352B5E
:103920003F932F9325EB3AE03F932F9322E02F9381
:103930001F929F938F930E9414558DB79EB7089640
:103940008DBF9EBF85E608950F931F93CF93DF939E
:103950001F921F92CDB7DEB78B01E091692EF091D7
:103960006A2E8581893009F06FC0E091562EF09162
:10397000572E199581E08093702C60E270E0C801A9
:103980000E94CC540097F9F4F80101900020E9F767
:103990003197E01BF10BE0FD59C0F695E795E1305A
:1039A000F10539F487E090E080934C2E90934D2EF2
:1039B00037C053E0EE0FFF1F5A95E1F7E0934C2E0E
:1039C000F0934D2E2DC098012C5F3F4F8217930727
:1039D000E9F5A80162E070E0CE0101960E94A20E16
:1039E000898190E0982F88272A81820F911D8093EA
:1039F0004C2E90934D2E0B5F1F4FF801019000202D
:103A0000E9F73197E01BF10BE0FD20C0F695E79553
:103A100033E0EE0FFF1F3A95E1F7E817F907B0F032
:103A200060914C2E70914D2E695F7F4F83E07695AB
:103A300067958A95E1F7A8018CE49DE20E94A20EA9
:103A40000E94942B8FEF03C089EC01C08AEC0F9089
:103A50000F90DF91CF911F910F910895EF92FF92F8
:103A60000F931F93CF93DF931F921F92CDB7DEB7B3
:103A70008B01E091692EF0916A2E8581893009F0E1
:103A800080C0E091562EF091572E199582E08093D8
:103A9000702C60E270E0C8010E94CC547C01892B3C
:103AA00031F5F80101900020E9F73197E01BF10BA7
:103AB000E0FD69C0F695E795E130F10539F487E05E
:103AC00090E080934C2E90934D2E47C053E0EE0F24
:103AD000FF1F5A95E1F7CF0169E070E00E94F553AE
:103AE000E81BF90BE0934C2EF0934D2E36C0C80125
:103AF0000496E816F90609F046C0A80162E070E0F5
:103B0000CE0101960E94A20E898190E0982F88270D
:103B10002A81820F911D80934C2E90934D2E8730D9
:103B2000910529F09C0127703327232B61F587012C
:103B30000F5F1F4FF80101900020E9F73197E01B5C
:103B4000F10BE0FD20C0F695E79533E0EE0FFF1F87
:103B50003A95E1F7E817F907B0F060914C2E7091B3
:103B60004D2E695F7F4F83E0769567958A95E1F7E3
:103B7000A8018CE49DE20E94A20E0E94942B8FEF7C
:103B800003C089EC01C08AEC0F900F90DF91CF91B8
:103B90001F910F91FF90EF900895E091692EF091A1
:103BA0006A2E85818930A1F4E091562EF091572E2E
:103BB000199585E08093702C0E94DA450E94942B21
:103BC00084EE95E48093252C9093262C8FEF089516
:103BD00089EC0895E091692EF0916A2E85818930F3
:103BE000A1F4E091562EF091572E199583E0809321
:103BF000702C0E94DA450E94942B84EE95E4809309
:103C0000252C9093262C8FEF089589EC0895E09150
:103C1000692EF0916A2E85818930A1F4E091562EAB
:103C2000F091572E199586E08093702C0E94DA450A
:103C30000E94942B84EE95E48093252C9093262C5F
:103C40008FEF089589EC0895E091692EF0916A2E26
:103C50004085518564E6649F9001659F300D112475
:103C60003F932F932FEA3AE03F932F9322E02F9335
:103C70001F929F938F930E9414558DB79EB70896FD
:103C80008DBF9EBF85E60895CF93DF931F921F924D
:103C9000CDB7DEB7FB0120812F33B1F42181211193
:103CA00013C02DE73AE03F932F9322E02F931F920A
:103CB0009F938F930E9414550F900F900F900F9029
:103CC0000F900F9085E627C089E592E089839A835B
:103CD000CE0101969F938F9389E79AE09F938F93EC
:103CE0007F936F930E944A550F900F900F900F9003
:103CF0000F900F90892B71F089819A818935F2E0BC
:103D00009F0740F4E091692EF0916A2E8087918799
:103D100084E601C08AEC0F900F90DF91CF91089557
:103D200020911F202F9320911E202F9326E73AE009
:103D30003F932F9322E02F931F929F938F930E9484
:103D400014558DB79EB708968DBF9EBF85E6089522
:103D5000CF93DF931F921F92CDB7DEB7FB01208177
:103D60002F33B1F42181211113C02FE02F932FEFB6
:103D70002F9325E23AE03F932F9322E02F931F9257
:103D80009F938F930E941455CDBFDEBF85E627C059
:103D900019821A82CE0101969F938F9381E29AE055
:103DA0009F938F937F936F930E944A550F900F902C
:103DB0000F900F900F900F90892B81F089819A813D
:103DC0008115E0E19E0750F4809338039093390306
:103DD00080931E2090931F2084E601C08AEC0F90F0
:103DE0000F90DF91CF910895FB0120812F33D9F4FB
:103DF0002181211121C01F9220E32F931F9221E3E3
:103E00002F932BE13AE03F932F9322E02F931F92C1
:103E10009F938F930E9414558DB79EB70A968DBFBE
:103E20009EBF85E60895213311F4D1D303C020331A
:103E300019F4F3D384E608958AEC0895FC01809187
:103E40000008813029F480918C0891E0833009F0DA
:103E500090E090FF02C081E301C080E38083118283
:103E600085E60895E091692EF0916A2E858189306A
:103E7000A1F4E091562EF091572E199584E080938D
:103E8000702C0E94DA450E94942B84EE95E4809376
:103E9000252C9093262C8FEF089589EC089521E02E
:103EA0002093242C2093232C2CE32093212C25E0F9
:103EB00030E020931F2C3093202C1092192C10925C
:103EC0001A2C10921B2C10921C2C8093172C909360
:103ED000182C089527E02093242C2CE231E0209325
:103EE0001F2C3093202C1092192C10921A2C109207
:103EF0001B2C10921C2C8093172C9093182C089537
:103F0000CF939091242C953009F441C030F4933034
:103F100019F130F5913068F43EC1973009F4AAC028
:103F200008F44AC0983009F4ACC0993009F495C03F
:103F300032C1813031F410921D2C10921E2C83E07E
:103F400023C0843011F466E084C0883109F485C050
:103F50008B3109F084C081C08093222C84E014C08E
:103F600090E04091222C2FEF30E0241B3109821782
:103F7000930721F485E008C0891779F165E183E0B2
:103F800090E20E947F5282E08093242C68C02091AE
:103F90001D2C30911E2CA9014F5F5F4F40931D2CAB
:103FA00050931E2CF901E554F14D808340385105A2
:103FB00009F055C086E0E8CF2091222C9091232C67
:103FC00029134FC0EBEBFEE22BE33FE290E02E170C
:103FD0003F0791F24191940FFACF4091192C5091E3
:103FE0001A2C60911B2C70911C2CE091172CF091D5
:103FF000182C20E830E08BEB9EE21995C82F88231F
:1040000011F18091232C8F5F8093232C8091192CA8
:1040100090911A2CA0911B2CB0911C2C80589F4F72
:10402000AF4FBF4F8093192C90931A2CA0931B2C49
:10403000B0931C2C66E083E090E20E947F5282E005
:104040008093242CA9C068E183E090E20E947F5213
:1040500068E183E090E20E947F521092242CC1E03C
:104060009BC030E0892F90E001972817390781F72E
:1040700066E085CF853119F41092232C08C08B316E
:1040800061F3883109F45FCF863009F05AC080911E
:10409000232C8F5F8093232C4091192C50911A2C44
:1040A00060911B2C70911C2CE091172CF091182C16
:1040B00020E830E08BEB9EE21995C82F8823D1F1E0
:1040C00061E083E090E20E947F526091232C83E0C4
:1040D00090E20E947F526091232C609583E090E2F1
:1040E0000E947F5260E870E08BEB9EE296D8EBEB8B
:1040F000FEE260E08FE2EB33F80719F08191680F80
:10410000F9CF83E090E20E947F528091192C909128
:104110001A2CA0911B2CB0911C2C80589F4FAF4F94
:10412000BF4F8093192C90931A2CA0931B2CB09303
:104130001C2C32C064E083E090E20E947F5289E050
:1041400023CF853109F08BCF61E083E090E20E94BC
:104150007F526091232C83E090E20E947F52609115
:10416000232C609583E090E20E947F5260E870E02B
:104170008BEB9EE252D8EBEBFEE28BE39FE260E03A
:104180008E179F0719F02191620FFACF83E090E21A
:104190000E947F5264CFC0E08C2FCF910895809110
:1041A000242C813019F0873029F1089580911F2C3B
:1041B0009091202C9C012150310920931F2C309389
:1041C000202C892B31F58091212C9FEF980F909313
:1041D000212C882331F065E183E090E20E947F5238
:1041E00002C01092242C85E090E080931F2C9093C5
:1041F000202C089580911F2C9091202C9C012150FF
:10420000310920931F2C3093202C892B11F410920C
:10421000242C0895EBECFBE020E030E0949198131F
:1042200009C041E2429FC001439F900D1124845375
:10423000944F08952F5F3F4FB1962930310571F7A4
:1042400080E090E00895CF92DF92EF92FF920F937B
:104250001F93CF93982F9F7D91549A3160F090EDEA
:10426000980F9A3040F08F3531F0982F9D7F9D3315
:1042700011F08032D1F49FE9980F9A3108F48052FE
:1042800020912A2C30912B2C2F3F91E0390708F0F8
:10429000D3C0A9014F5F5F4F40932A2C50932B2C22
:1042A000F901E554F14D8083C7C08D3009F095C008
:1042B000E0912A2CF0912B2CE554F14D10821092B4
:1042C0002A2C10922B2C8091292C8111B5C0809121
:1042D000BB2E982F9F7D09F495C08D7F8D3309F4F7
:1042E00091C0EBEBFEE27F01C191CC2331F0CF33E3
:1042F00021F0CD3311F0C032B1F7F701108284EF15
:10430000C82E8CE0D82E00E010E0B6018BEB9EE2C8
:104310000E948654892B09F056C01092BB2ECF33D1
:1043200049F488E1809FF001819FF00D1124E65F40
:10433000F24F18C0B7016F5F7F4FCD3349F488E16A
:10434000809FF001819FF00D1124E85FF24F20C0A3
:10435000C11113C088E1809FF001819FF00D1124ED
:10436000EC5FF24F259134912115310509F44DC0D0
:104370008BEB9EE2F901199514C0C03209F045C0DB
:1043800088E1809FF001819FF00D1124EA5FF24FD8
:104390002591349121153105C1F18BEB9EE2F90194
:1043A00019958F3F99F581E08093292C2EB13FB16B
:1043B0008091080490910904822B932B8093272CE1
:1043C0009093282C39C00F5F1F4FF8E1CF0ED11CFE
:1043D0000732110509F099CF15C0883061F480913A
:1043E0002A2C90912B2C009739F1019780932A2C3D
:1043F00090932B2C21C08B31F9F410922A2C10921F
:104400002B2C1AC088ECC0E002C089ECC1E002DFAE
:104410000E94FC1888EC9BE00E94FC18CC2361F001
:104420008091BB2E882341F08BEB9EE20E94F7180F
:1044300085EC9BE00E94FC1881E0CF911F910F91C9
:10444000FF90EF90DF90CF9008958091292C8823E2
:1044500099F1E091692EF0916A2E20853185211520
:10446000310551F14EB15FB180910804909109047A
:10447000842B952B4091272C5091282C841B950B35
:1044800064E670E00E94F55362177307A8F010927B
:10449000292C8BECBFDE0E94FC1882EC9BE00E9472
:1044A000FC18E091252CF091262C309729F01995D5
:1044B0001092252C1092262C08958091292C882367
:1044C000A9F01092292C8BECA5DE0E94FC1882EC3E
:1044D0009BE00E94FC18E091252CF091262C30974F
:1044E00029F019951092252C1092262C0895CF931F
:1044F000DF939091292C9923A9F0EB011092292C9C
:1045000089DE0E94FC188FEB9BE00E94FC1820972C
:1045100049F0CE010E94F7188CEB9BE0DF91CF9120
:104520000C94FC18DF91CF910895EF92FF920F93B6
:104530001F93CF937C019B01613081E0780710F0DD
:1045400020E031E08B01021B130BA70160E072E059
:104550008BEB9EE20E94770E8BEB9EE20E94F71897
:10456000C1E0013081E01807A8F01A954C2F50E007
:10457000542F44274E0D5F1D20E032E060E072E0D2
:104580008BEB9EE20E94770E8BEB9EE20E94F71867
:10459000CF5FE7CF0115110589F04C2F50E0542F64
:1045A00044274E0D5F1D980160E072E08BEB9EE2A8
:1045B0000E94770E8BEB9EE20E94F71889EB9BE03E
:1045C000CF911F910F91FF90EF900C94FC18809168
:1045D0000008813021F490918C08933009F080E03C
:1045E00080FD1AC080912E2C811116C081E080932D
:1045F000000893E090938C0880932C2C10922D2C23
:104600002EB13FB18091080490910904822B932B25
:104610008093332C9093342C089510928C08109230
:104620000008ECE2FCE210821182089590912C2C9B
:104630009923F1F080912D2C811115C020912C2C03
:104640002223B9F04EB15FB12091080430910904E2
:10465000242B352B4091332C5091342C241B350BBB
:104660002634310530F081E080932D2C892F089578
:1046700081E00895CF93C0912E2CCC23C1F02EB1B0
:104680003FB18091080490910904822B932B2091D3
:10469000312C3091322C821B930B20912F2C309196
:1046A000302C8217930718F010922E2C90DF8C2F4D
:1046B000CF91089580931E2090931F2080933803FC
:1046C00090933903089580911E2090911F20409669
:1046D00080931E2090931F2080933803909339037A
:1046E000089580E991E080931E2090931F2080938D
:1046F0003803909339030895A0E2B6E081E015965F
:104700008C9315972BEB30E328B939B92BE331E3C0
:104710002AB93BB910B813B812B816B817B811B8FF
:10472000E0E0F9E010A211A22FEF30E026A337A3BA
:104730002FEF3FEF20A731A7808388E8838380E1B4
:10474000848783E087831C968C931C9782E01A965B
:104750008C9308951F920F920FB60F92112408B6F2
:104760000F9218BE0BB60F921BBE8F939F93EF93C1
:10477000FF93E0E0F9E013828FE790E086AB97AB20
:1047800081E190E080AF91AFE0E0FAE010A211A2E9
:104790008FEF9FEF86A397A389E88383168281E03A
:1047A00084878EE0808310922A06FF91EF919F917B
:1047B0008F910F900BBE0F9008BE0F900FBE0F9001
:1047C0001F9018951F920F920FB60F92112408B6E2
:1047D0000F9218BE0BB60F921BBE2F933F938F9371
:1047E0009F93EF93FF932091280693B1267081E069
:1047F00009F080E0990F892B83B982B1882309F4ED
:1048000063C012B883B18770873059F510920009E0
:1048100080E180930C091092030A1B9B03C08CEA71
:1048200094E002C08CE694E08093260A9093270AD5
:1048300082E081B981E080930C0A83E08093060ACC
:1048400086B197B1877049F090B18F5F893011F0D0
:104850009695FBCFE8B1F9B1908381E08093352C38
:1048600036C083B1982F9C7091F1847091B19111F1
:104870001CC020B12695882311F080E001C080E89B
:10488000282B20B986B197B1019686B997B9877060
:104890009927892BE1F4E8B1F9B1CF01019688B9E4
:1048A00099B9208381E081B912C091B1913079F436
:1048B000EAB1FBB19F012F5F3F4F2AB93BB981118C
:1048C00090E0908311B803C082B1809582B988E8E6
:1048D00080930309FF91EF919F918F913F912F91C9
:1048E0000F900BBE0F9008BE0F900FBE0F901F9041
:1048F00018951F920F920FB60F92112408B60F92BF
:1049000018BE0BB60F921BBE2F933F938F939F93AE
:10491000EF93FF9381B1823008F49DC081B18D3057
:1049200008F099C0E1B1F0E0EE0FFF1FEA5DFF4D26
:104930000190F081E02D19948FE790E08093260A92
:104940009093270A88C08E9A8EE0809340088FE368
:1049500090E08093260A9093270A85E06FC08E9896
:1049600086E081B98FEF82B914B815B8E8B1F9B112
:10497000808180B970C0009B05C08E9A82B18095FD
:1049800082B901C08E9887E059C0009B02C08E9802
:1049900001C08E9A80B1869580B984B195B1019697
:1049A00084B995B984B195B187709927892B11F491
:1049B00088E044C024B135B186B197B128173907D2
:1049C000B1F52BC0EAB1FBB1309711F0808101C085
:1049D00082B1882311F08E9A01C08E9889E02EC092
:1049E000EAB1FBB1309751F08081882311F08E98A5
:1049F00001C08E9A3196EAB9FBB908C082B188230A
:104A000011F08E9801C08E9A8FEF82B924B135B122
:104A100086B197B12817390711F48AE00FC0E8B1C1
:104A2000F9B1CF01019688B999B9818180B986E041
:104A300005C08E988BE002C08E988CE081B90BC0C7
:104A40001092000A1092060A109240081092410833
:104A500081E08093362CFF91EF919F918F913F9150
:104A60002F910F900BBE0F9008BE0F900FBE0F90AE
:104A70001F901895CF93DF93E5E3FCE2108211823B
:104A8000E0E4F6E0128A84E08283C0E8D1E082E6C6
:104A90008E83A0E2B6E081E016968C93169711966D
:104AA0008C93119796E012969C93129751968C9343
:104AB000519742E052964C9352971A961C921A972D
:104AC00033E019963C9399E598839AE5998390E4AD
:104AD00091839683A0EBB0E012962C911297207FE1
:104AE00012962C93129712962C911297226012967E
:104AF0002C9320E321832683908B86834583318307
:104B0000E0E0F8E083E1818321E030E026A337A3F1
:104B100020A731A7E0E8F8E014868083E0E2F3E024
:104B20001382118288E0828391E1908320911E207C
:104B300030911F20208F318FE0E8F3E09CE39283D7
:104B4000808393838183DF91CF91D6CDA0E2B6E0BD
:104B50001A961C921A97E5E3FCE210821182E0E0BB
:104B6000F9E010821382178280E18487E0E0FAE0A6
:104B700010821382168281E08487E0E4F8E01082DC
:104B8000118216968C938E980895CF93DF9380911F
:104B9000352C882309F47EC01092352CC6B1D7B1CC
:104BA000C730D10508F471C0AE01495F5F4F93E093
:104BB000569547959A95E1F7E091662EF091672E0C
:104BC0006BEB70E380E41995E091692EF0916A2E09
:104BD0008781883019F483E18093132C8681883093
:104BE00019F483E18093122CE0915C2EF0915D2EFC
:104BF000BE018BEB90E31995EC0194FF06C0DF7EBC
:104C00008BE391E38AB99BB902C01AB81BB820970D
:104C1000E1F1AE01495F5F4F83E0569547958A9574
:104C2000E1F7E091662EF091672E6BEB70E381E483
:104C30001995E091692EF0916A2E8781893019F4D7
:104C400083E18093132C8681893019F483E180936A
:104C5000122CC6B9D7B98BEB90E388B999B91092E9
:104C60006008109261088FE090E08093660890934E
:104C7000670888E090E080936A0890936B0883E26D
:104C80008093410883E081B905C01092000A109218
:104C9000060A32DD8091362C882329F01092362CBA
:104CA000DF91CF9129CDDF91CF910895CF93DF93FD
:104CB000E0E4F6E0128A84E08283C0E8D1E082E694
:104CC0008E83A0E2B6E081E016968C93169711963B
:104CD0008C93119796E012969C93129751968C9311
:104CE000519742E052964C9352971A961C921A97FB
:104CF00033E019963C93199799E598839AE599833F
:104D000090E491839683C0EBD0E02A81207F2A83B0
:104D10002A8122602A8320E321832683908B868345
:104D200045833183E0E0F8E093E1918321E030E0D6
:104D300026A337A320A731A7E0E8F8E014869083E4
:104D4000E0E2F3E01382118298E0928321E1208374
:104D500020911E2030911F20208F318FE0E8F3E05A
:104D60002CE3228390832383918315968C93E0E038
:104D7000F9E02FEF30E026A337A312A613A614A65E
:104D800015A610821682178280831092000A109254
:104D9000372CEAE3FCE2108212821182DF91CF917C
:104DA000089581E08093260638DCE0E0F9E0108287
:104DB0001782E0E0FAE010821782EAE3FCE2118257
:104DC0001282108208951F920F920FB60F92112433
:104DD00008B60F9218BE0BB60F921BBE2F933F93CF
:104DE0008F939F93EF93FF93E0E0F9E080E4848753
:104DF0001782E0E8F3E082E0878389EB81838BEB25
:104E000090E38AB99BB981E090E084B995B916B86E
:104E10002EB13FB18091080490910904822B932B0D
:104E20008093382C9093392C81E080933C2C18B8D7
:104E300017B81092372C88E080938706FF91EF9186
:104E40009F918F913F912F910F900BBE0F9008BEB5
:104E50000F900FBE0F901F901895E0E0F9E08FEFD4
:104E600094E086A397A380E6848780E387838FEF0F
:104E700090E086AB97AB88E08093870608951F92F9
:104E80000F920FB60F92112408B60F9218BE0BB6F0
:104E90000F921BBE2F933F934F935F938F939F93DC
:104EA000EF93FF931092070A1092000A109247099D
:104EB00010924009809181038E7F8093810384B199
:104EC00095B180FF1AC0379B03C086B1869503C099
:104ED00086B18695806886B984B195B1019684B90A
:104EE00095B987709927892B41F4EAB1FBB1CF01BD
:104EF00001968AB99BB986B1808384B195B18770D8
:104F00009927892BC9F0E4B1F5B186B144B155B107
:104F100093E0F695E7959A95E1F7E554FF4C90E01C
:104F20004770552728E030E0241B350B02C09595CB
:104F300087952A95E2F7808381E080933B2C10923D
:104F40003C2C8FEF9FEF8093260A9093270A1092B4
:104F5000200A1092210A1092060A1092070A109253
:104F6000030A84E08093000A83E08093372CFF914A
:104F7000EF919F918F915F914F913F912F910F9062
:104F80000BBE0F9008BE0F900FBE0F901F9018958C
:104F90001F920F920FB60F92112408B60F9218BEEF
:104FA0000BB60F921BBE8F93EF93FF93E0E8F3E0F5
:104FB00081818F7C8183E0E0FAE088E8838381E06F
:104FC0008083FF91EF918F910F900BBE0F9008BEE1
:104FD0000F900FBE0F901F9018951F920F920FB653
:104FE0000F92112408B60F9218BE0BB60F921BBE7B
:104FF0008F939F93EF93FF938091600910926009C4
:105000001092610993E090934009813520F4813337
:1050100008F472C01BC08137E8F484B195B180FFF9
:105020002EC086B18695806886B984B195B1019607
:1050300084B995B987709927892B41F4EAB1FBB1FE
:10504000CF0101968AB99BB986B1808386B18695D6
:1050500080682CC086B18695806886B984B195B188
:10506000019684B995B987709927892B41F4EAB1E3
:10507000FBB1CF0101968AB99BB986B1808386B115
:105080008695806886B984B195B1019684B995B941
:1050900087709927892B41F4EAB1FBB1CF010196C2
:1050A0008AB99BB986B1808386B1869586B984B169
:1050B00095B1019684B995B987709927892B41F4E8
:1050C000EAB1FBB1CF0101968AB99BB986B1808361
:1050D00086B1869586B984B195B1019684B995B9A2
:1050E00087709927892B41F4EAB1FBB1CF01019672
:1050F0008AB99BB986B18083FF91EF919F918F917F
:105100000F900BBE0F9008BE0F900FBE0F901F9018
:1051100018950F931F93CF93DF93CDB7DEB7DA9532
:10512000CDBFDEBF80913C2C882309F483C04EB1F3
:105130005FB180910804909109042091382C30913E
:10514000392C842B952B821B930B2091202030919E
:1051500021202F5F3F4F2817390708F06BC01092AE
:10516000070A1092000A1092470910924009809194
:1051700081038E7F8093810384B195B180FF1AC033
:10518000379B03C086B1869503C086B1869580683B
:1051900086B984B195B1019684B995B9877099277C
:1051A000892B41F4EAB1FBB1CF0101968AB99BB9D1
:1051B00086B1808384B195B187709927892BC9F016
:1051C000E4B1F5B186B144B155B113E0F695E79578
:1051D0001A95E1F7E554FF4C90E04770552728E019
:1051E00030E0241B350B02C0959587952A95E2F790
:1051F000808381E080933B2C10923C2C2FEF3FEF7B
:105200002093260A3093270A1092200A1092210A2E
:105210001092060A1092070A1092030A94E09093E3
:10522000000A93E09093372C14B815B880933B2C68
:1052300010923C2C1FDA81116FC2F8D9882309F42F
:105240006BC280913C2C811167C280913A2C8111F4
:1052500005C080913B2C882309F45EC28091372CD5
:10526000833041F48091200A9091210A8532914047
:1052700008F452C280913B2C882309F4A2C084B167
:1052800095B1892B09F49DC084B195B1089718F4A4
:1052900014B815B896C044B155B1495F5F4FB3E03B
:1052A00056954795BA95E1F76BEB70E3CE01019601
:1052B0000E94AB548BEB90E38AB99BB944B155B1D2
:1052C00014B815B8898186958695898322E030E0E7
:1052D00024173507B0F5F901A3E0F695E795AA95EF
:1052E000E1F781E090E08C0F9D1FE80FF91F8081AE
:1052F000982F9695969590838370813049F030F081
:105300008230D1F486B18695806804C081E015C0F2
:1053100086B1869586B984B195B1019684B995B95F
:1053200087709927892B41F4EAB1FBB1CF0101962F
:105330008AB99BB986B1808380E02E5F3F4F882376
:1053400039F284B195B187709927892BC9F0E4B1FE
:10535000F5B186B144B155B173E0F695E7957A950C
:10536000E1F7E554FF4C90E04770552728E030E026
:10537000241B350B02C0959587952A95E2F780830B
:10538000E091692EF0916A2E8781883019F483E1CB
:105390008093132C8681883019F483E18093122C3A
:1053A00044B155B1495F5F4F63E0569547956A95A3
:1053B000E1F7E091662EF091672E6BEB70E382E4EB
:1053C000199510923A2C10923B2C64B175B1E09172
:1053D0005C2EF0915D2E8BEB90E3199584B995B915
:1053E00084B195B1892B09F497C189E88093810331
:1053F0001092000A1092200A1092210A2FEF3FEF1C
:105400002093260A3093270A8FE590E08093280A9C
:105410009093290A1092060A80E180930C0A93E087
:105420009093070A1092600910926109209366090F
:105430003093670920EA30E02093680930936909C6
:105440001092460980934C0981E08093470981E1DD
:105450008093800110928801109280031092290697
:10546000E091692EF0916A2E8781893019F483E1E9
:105470008093132C8681893019F483E18093122C58
:1054800044B155B1495F5F4F33E0569547953A9522
:10549000E1F7E091662EF091672E6BEB70E383E409
:1054A000199504B115B1013094E0190708F024C131
:1054B00014B815B8A801495F5F4F23E0569547958A
:1054C0002A95E1F76BEB70E38BE391E30E94AB5419
:1054D0008BEB90E38AB99BB986B18695806886B9D3
:1054E00084B195B1019684B995B987709927892BB4
:1054F00039F48CEB90E38AB99BB986B18093BB30C9
:1055000086B1869586B984B195B1019684B995B96D
:1055100087709927892B41F4EAB1FBB1CF0101963D
:105520008AB99BB986B1808380E041E050E0EBE32B
:10553000F1E30417150708F495C0908190FF2BC084
:1055400086B1869586B984B195B1019684B995B92D
:1055500087709927892B41F4AAB1BBB1CD0101967F
:105560008AB99BB986B18C9386B18695806886B9D5
:1055700084B195B1019684B995B987709927892B23
:1055800009F063C0AAB1BBB1CD0101968AB99BB93C
:1055900086B18C935AC0882351F186B1869586B91D
:1055A00084B195B1019684B995B987709927892BF3
:1055B00041F4AAB1BBB1CD0101968AB99BB986B1BC
:1055C0008C9386B1869586B984B195B1019684B9DC
:1055D00095B987709927892B41F4AAB1BBB1CD0148
:1055E00001968AB99BB986B18C9380E02FC096B1A1
:1055F0009695906896B924B135B12F5F3F4F24B985
:1056000035B927703327232B49F4AAB1BBB19D01CB
:105610002F5F3F4F2AB93BB996B19C9396B19695AF
:1056200096B924B135B12F5F3F4F24B935B92770F2
:105630003327232BD1F6AAB1BBB19D012F5F3F4F7A
:105640002AB93BB996B19C9301C081E090819695AF
:1056500090839A0127703327232B09F431964F5FEB
:105660005F4F67CF811129C086B18695806886B962
:1056700084B195B1019684B995B987709927892B22
:1056800041F4EAB1FBB1CF0101968AB99BB986B169
:10569000808386B1869586B984B195B1019684B927
:1056A00095B987709927892B41F4EAB1FBB1CF01F5
:1056B00001968AB99BB986B1808384B195B1877010
:1056C0009927892BC9F0E4B1F5B186B144B155B140
:1056D00093E0F695E7959A95E1F7E554FF4C90E055
:1056E0004770552728E030E0241B350B02C0959504
:1056F00087952A95E2F7808381E08093372C8BEBA6
:1057000090E38AB99BB980E280930C098CE0809386
:10571000070985E58A95F1F7D395CDBFDEBFDF9107
:10572000CF911F910F91089514B815B881E080931F
:105730003A2C0C94E7221092070A1092000A109259
:10574000470910924009809181038E7F80938103E5
:1057500084B195B180FF1AC0379B03C086B186958E
:1057600003C086B18695806886B984B195B10196EB
:1057700084B995B987709927892B41F4EAB1FBB1B7
:10578000CF0101968AB99BB986B1808384B195B166
:1057900087709927892BC9F0E4B1F5B186B144B17E
:1057A00055B193E0F695E7959A95E1F7E554FF4CEE
:1057B00090E04770552728E030E0241B350B02C0ED
:1057C000959587952A95E2F7808381E080933B2C1D
:1057D00010923C2C8FEF9FEF8093260A9093270A1C
:1057E0001092200A1092210A1092060A1092070ABB
:1057F0001092030A84E08093000A83E08093372CA0
:105800001092372C10923B2C10923A2C0C940D23B2
:10581000982F8091452C882359F080913F2C81113D
:1058200008C081E020913E2C921718F080E0089586
:1058300081E00895FF920F931F93CF93DF931F9200
:10584000CDB7DEB70091422C000F000F0051FF24AE
:10585000F394F092452C10E0B8016D5F7F4F41E06A
:1058600050E08EE39CE20E940C0FB8016C5F7F4F0A
:1058700041E050E0CE0101960E940C0F8981881F03
:105880008827881F80933D2CF092442C1092432C43
:1058900010923F2C1092412C0F90DF91CF911F91CD
:1058A0000F91FF9008951092452C80E18093422C37
:1058B0008FEF80933E2C10923D2C81E08093442CFE
:1058C0001092432C10923F2C1092412C089584E1A9
:1058D0008093422CAFCF89E28093422CABCF81E002
:1058E0008093442C089508958F929F92AF92BF9217
:1058F000CF92DF92EF92FF920F931F93CF93DF939C
:1059000000D01F92CDB7DEB78C01FC018081909151
:10591000442C9230E1F028F0933011F1943051F1A1
:105920004EC0292F209521702093432C992311F0EC
:10593000863219F0823509F042C084E4F801808390
:10594000118282E08093442C80E190E0DBC2909150
:10595000432C911102C08632B1F0823599F513C003
:105960009091432C911102C0863269F0823509F082
:105970005BC009C09091432C911102C0863219F08E
:10598000823509F0F3C084E4F8018083118281E05C
:10599000892713C08091412C8111FCC0F8018081BE
:1059A000803509F476C108F006C1803309F409C1D5
:1059B0009091452C911174C181E08093442C80E03A
:1059C00090E0A0C28339C1F719821A821B821C821F
:1059D00088E8898343E050E060E070E0CE01029601
:1059E0000E940C0FF8018181803209F4ABC080372E
:1059F00009F047C0F801928189819813B2C0938160
:105A00008A819813AEC094818B819813AAC0958126
:105A10008C819813A6C084E0808361E070E0C801A7
:105A20000E943D3783E029C0853931F644E050E0DB
:105A300064E070E0CE0101960E940C0FF8018181B4
:105A4000803209F47FC08037E1F4F80192818981C6
:105A5000981387C093818A81981383C094818B8126
:105A600098137FC095818C8198137BC0108261E070
:105A700070E0C8010E943D3784E08093442C38E1F7
:105A800071C0E82EE294AFE0EA22EA94EA948F70C3
:105A9000F82E88E090E08F1991092FEF30E069012E
:105AA00002C0D594C7948A95E2F7F5E0EF1629F085
:105AB00024E0E2122AC0FF20E1F044E050E0B80107
:105AC0006E5F7F4FCE0101960E949E54892B61F438
:105AD00099818A8189279B8189279C818927F8015F
