:100000000C94450D0C946A0D0C946A0D0C946A0DB9
:100010000C946A0D0C946A0D0C946A0D0C946A0D84
:100020000C946A0D0C946A0D0C943C100C946A0D9F
:100030000C946A0D0C946A0D0C946A0D0C946A0D64
:100040000C946A0D0C946A0D0C946A0D0C946A0D54
:100050000C946A0D0C946A0D0C946A0D0C946A0D44
:100060000C946A0D0C946A0D0C946A0D0C946A0D34
:100070000C946A0D0C946A0D0C946A0D0C946A0D24
:100080000C946A0D0C946A0D0C946B0D0C94323127
:100090000C946A0D0C946A0D0C946A0D0C946A0D04
:1000A0000C946A0D0C946A0D0C946A0D0C946A0DF4
:1000B0000C946A0D0C946A0D0C946A0D0C94CB2868
:1000C0000C946A0D0C94612C0C94A4320C946A0D5F
:1000D0000C946A0D0C946A0D0C946A0D0C946A0DC4
:1000E0000C946A0D0C946A0D0C946A0D0C946A0DB4
:1000F0000C946A0D0C946A0D0C946A0D0C946A0DA4
:100100000C946A0D0C946A0D0C946A0D0C946A0D93
:100110000C947D320C943C2C0C946A0D0C946A0D5A
:100120000C946A0D0C946A0D0C946A0D0C946A0D73
:100130000C946A0D0C946A0D0C946A0D0C9433287F
:100140000C94B70D0C94750D0C9460310C946A0DE1
:100150000C946A0D0C94B32B0C94DA320C946A0D47
:100160000C946A0D0C946A0D0C946A0D0C946A0D33
:100170000C946A0D0C946A0D0C946A0D0C946A0D23
:100180000C946A0D0C946A0D0C946A0D0C946A0D13
:100190000C946A0D0C946A0D0C946A0D0C946A0D03
:1001A0000C946A0D0C946A0D0C946A0D0C946A0DF3
:1001B0000C946A0D0C946A0D0C946A0D0C946A0DE3
:1001C0000C946A0D0C946A0D0C946A0D0C946A0DD3
:1001D0000C946A0D0C946A0D0C946A0D0C946A0DC3
:1001E0000C946A0D0C946A0D0C946A0D0C946A0DB3
:1001F0000C946A0D0C9492710C946A0D1E034300CA
:10020000680061006D0065006C0065006F006E00A5
:100210002D004D0069006E00690000002A034B00AC
:10022000610073007000650072002000260020004D
:100230004F007300770061006C00640020004700ED
:100240006D006200480000000403090409023E003A
:10025000020100C03209040000010202010005246D
:10026000001001042402060524060001070582038C
:100270000800FF09040100020A000000070504024B
:10028000100005070583021000051201100102008D
:100290000008D016B20401000102DC01E610E710EC
:1002A000E810E910EA10EB10EC10ED10F010F1106E
:1002B00000000001008C290D2A2C2A42365E366887
:1002C00036EC1069367A3A8D3A40000700018C29E5
:1002D0000D2A2C2ACC3562366836EC1069367A3A0B
:1002E0008D3AC0000700018C290D2A2C2A56365E53
:1002F000366836EC1069367A3A8D3A5000070001BC
:100300008C290D2A2C2A5A365E366836EC1069364E
:100310007A3A8D3AA4000700018C290D2A2C2ACDA7
:100320003A183B1C3BEC101D3B1442304240010488
:1003300000018C290D2A2C2ADC3A183B1C3BEC10BE
:100340001D3B1442304200040400018C290D2A2C6C
:100350002AEB3A183B1C3BEC101D3B144230420088
:10036000040700018C290D2A2C2AFA3A183B1C3B61
:10037000EC101D3B1442304200100400018C290D8A
:100380002A2C2A093B183B1C3BEC101D3B14423025
:100390004200100700019433533474346259705989
:1003A000755976597859F010F110000000010007D6
:1003B0002B8F2BFD2C5E5161516E516F512054F0EB
:1003C00010F11000000000008C290D2A2C2AB35ACD
:1003D000D75ADB5AEC10DC5A605D735D1C020700D3
:1003E000007A60FD603061C461C761CA61CB61CCD5
:1003F00061AF62B66200200800057A60FD6030617E
:10040000E910EA10EB10EC10ED10F010F110000004
:100410000001007A60FD603061BD62C062C362C4E9
:1004200062C562B664BD6400200800057A60FD60A4
:100430003061C464E264F064F1641165036562666E
:100440002C000800057A60FD6030618A67A167B101
:1004500067B2676C6BFE6A896CD000080005004EBD
:100460004F4E4500000000000000000000000000AA
:10047000000000000000000000000000000000017B
:100480004D465F554C5452414C494748540000007A
:10049000000000000000000000000000000000005C
:1004A000034D465F554C5452414C494748545F45B3
:1004B00056315F38304200000000000000000000AC
:1004C00000044D465F554C5452414C494748545FD7
:1004D0004556315F31363442000000000000000014
:1004E0000000024D465F554C5452414C4947485418
:1004F0005F4300000000000000000000000000005A
:10050000000000054D465F434C41535349435F4D46
:10051000494E495F34420000000000000000000026
:1005200000000000064D465F434C41535349435F72
:10053000314B00000000000000000000000000003F
:100540000000000000074D465F434C4153534943B0
:100550005F314B5F374200000000000000000000E8
:10056000000000000000084D465F434C41535349D2
:10057000435F344B0000000000000000000000005A
:1005800000000000000000094D465F434C415353FA
:1005900049435F344B5F3742000000000000000019
:1005A00000000000000000000A49534F3134343489
:1005B00033415F534E4946460000000000000000F2
:1005C0000000000000000000000B49534F3134349C
:1005D0003433415F52454144455200000000000061
:1005E000000000000000000000000C4E54414732A3
:1005F0003135000000000000000000000000000095
:1006000000000000000000000000000D56494349B2
:100610004E49545900000000000000000000000096
:100620000000000000000000000000000E49534FD1
:1006300031353639335F534E4946460000000000DD
:10064000000000000000000000000000000F534CFC
:100650003253323030320000000000000000000051
:100660000000000000000000000000000000105426
:100670004954414749545354414E44415244000067
:100680000000000000000000000000000000001159
:10069000454D3432333300000000000000000000FC
:1006A000000000000000000000000000000000004A
:1006B0000100000100010100000101000100000132
:1006C0000001010001000001010000010001010022
:1006D0000001010001000001010000010001010012
:1006E0000100000100010100000101000100000102
:1006F00000010100010000010100000100010100F2
:1007000001000001000101000001010001000001E1
:1007100001000001000101000001010001000001D1
:1007200000010100010000010100000100010100C1
:1007300000010100010000010100000100010100B1
:1007400001000001000101000001010001000001A1
:100750000100000100010100000101000100000191
:100760000001010001000001010000010001010081
:100770000100000100010100000101000100000171
:100780000001010001000001010000010001010061
:100790000001010001000001010000010001010051
:1007A0000100000100010100000101000100000141
:1007B000008040C020A060E0109050D030B070F0B9
:1007C000088848C828A868E8189858D838B878F829
:1007D000048444C424A464E4149454D434B474F459
:1007E0000C8C4CCC2CAC6CEC1C9C5CDC3CBC7CFCC9
:1007F000028242C222A262E2129252D232B272F259
:100800000A8A4ACA2AAA6AEA1A9A5ADA3ABA7AFAC8
:10081000068646C626A666E6169656D636B676F6F8
:100820000E8E4ECE2EAE6EEE1E9E5EDE3EBE7EFE68
:10083000018141C121A161E1119151D131B171F128
:10084000098949C929A969E9199959D939B979F998
:10085000058545C525A565E5159555D535B575F5C8
:100860000D8D4DCD2DAD6DED1D9D5DDD3DBD7DFD38
:10087000038343C323A363E3139353D333B373F3C8
:100880000B8B4BCB2BAB6BEB1B9B5BDB3BBB7BFB38
:10089000078747C727A767E7179757D737B777F768
:1008A0000F8F4FCF2FAF6FEF1F9F5FDF3FBF7FFFD8
:1008B000004E4F4E45000000000000000000000008
:1008C0000000000000000000000000000000000028
:1008D00000015549445F52414E444F4D0000000015
:1008E0000000000000000000000000000000000008
:1008F0000000025549445F4C4546545F494E4352FF
:10090000454D454E5400000000000000000000006E
:10091000000000035549445F52494748545F494E1F
:100920004352454D454E54000000000000000000B9
:1009300000000000045549445F4C4546545F44455F
:100940004352454D454E5400000000000000000099
:100950000000000000055549445F52494748545F74
:1009600044454352454D454E5400000000000000F0
:10097000000000000000064359434C455F534554B6
:1009800054494E47530000000000000000000000E2
:10099000000000000000000753544F52455F4D45D2
:1009A0004D000000000000000000000000000000FA
:1009B000000000000000000008524543414C4C5F1D
:1009C0004D454D0000000000000000000000000048
:1009D00000000000000000000009544F47474C454C
:1009E0005F4649454C440000000000000000000044
:1009F000000000000000000000000A53544F524560
:100A00005F4C4F47000000000000000000000000A5
:100A100000000000000000000000000B434C4F4E9F
:100A20004500000000000000000000000000000081
:100A30000000000000000000000000000C434C4FCC
:100A40004E455F4D465500000000000000000000CC
:100A500000000000000000000000000000004F4601
:100A60004600000000000000000000000000000040
:100A70000000000000000000000000000000014D28
:100A8000454D4F52590000000000000000000000DA
:100A90000000000000000000000000000000000254
:100AA0004C49564500000000000000000000000016
:100AB0000000000000000000000000000000000036
:100AC000004E4F4E450000000000000000000000F6
:100AD0000000000000000000000000000000000016
:100AE0000001504F574552454400000000000000EF
:100AF00000000000000000000000000000000000F6
:100B00000000025445524D494E414C5F434F4E4EFA
:100B100000000000000000000000000000000000D5
:100B2000000000035445524D494E414C5F52585409
:100B3000580000000000000000000000000000005D
:100B4000000000000453455454494E475F43484158
:100B50004E474500000000000000000000000000BB
:100B60000000000000054D454D4F52595F53544F52
:100B7000524544000000000000000000000000009A
:100B8000000000000000064D454D4F52595F43489C
:100B9000414E4745440000000000000000000000F6
:100BA0000000000000000008434F4445435F5258D6
:100BB0000000000000000000000000000000000035
:100BC000000000000000000009434F4445435F540B
:100BD00058000000000000000000000000000000BD
:100BE000000000000000000000074649454C445F3B
:100BF00044455445435445440000000000000000B3
:100C0000000000000000000000000A4C4F474D4566
:100C10004D5F46554C4C00000000000000000000F5
:100C20000000000000000000000000004E4F4E4594
:100C300000000000000000000000000000000000B4
:100C4000000000000000000000000000014F4E0006
:100C50000000000000000000000000000000000094
:100C600000000000000000000000000000024F46ED
:100C7000460000000000000000000000000000002E
:100C80000000000000000000000000000000033130
:100C90000000000000000000000000000000000054
:100CA0000000000000000000000000000000000440
:100CB0003200000000000000000000000000000002
:100CC0000000000000000000000000000000000024
:100CD00005330000000000000000000000000000DC
:100CE0000000000000000000000000000000000004
:100CF00000063400000000000000000000000000BA
:100D000000000000000000000000000000000000E3
:100D10000000073500000000000000000000000097
:100D200000000000000000000000000000000000C3
:100D300000000025632C25630025356400416E7991
:100D400020696E74656765722066726F6D20302051
:100D5000746F2025752E205265666572656E636519
:100D600020766F6C746167652077696C6C206265B2
:100D70002028564343202A205448524553484F4C7C
:100D800044202F203430393529206D562E0025750A
:100D9000002535640030203D206E6F2074696D653C
:100DA0006F75740D0A312D363030203D20313030D2
:100DB000206D73202D203630303030206D7320743C
:100DC000696D656F7574002575206D730025342E6F
:100DD000345800253575206D56002575202866721B
:100DE0006F6D207768696368202575206E6F6E2DA2
:100DF000766F6C6174696C65290025750025750036
:100E000025632C25630052414E444F4D004E4F2028
:100E10005549442E004368616D656C656F6E4D6980
:100E20006E692052657647202553207573696E6779
:100E3000204C55464120255320636F6D70696C65C9
:100E4000642077697468204156522D47434320251A
:100E5000532E204261736564206F6E207468652094
:100E60006F70656E2D736F75726365204E464320FB
:100E7000746F6F6C204368616D656C656F6E4D6952
:100E80006E692E2068747470733A2F2F67697468C6
:100E900075622E636F6D2F656D7365632F43686197
:100EA0006D656C656F6E4D696E6920636F6D6D6900
:100EB000742025530032303039303800313531312B
:100EC000313500342E392E320030663336306465C9
:100ED000000D0A000D0A000D0A000D0A000D0A009F
:100EE0000D0A00643130303A4F4B00000000000022
:100EF00000000000000000000000000000000000F2
:100F000000000000653130313A4F4B2057495448BA
:100F1000205445585400000000000000000000006C
:100F200000000000006E3131303A57414954494EBB
:100F30004720464F5220584D4F44454D0000000079
:100F4000000000000000C83230303A554E4B4E4F82
:100F5000574E20434F4D4D414E44000000000000CD
:100F600000000000000000C93230313A494E5641BD
:100F70004C494420434F4D4D414E44205553414729
:100F80004500000000000000CA3230323A494E5697
:100F9000414C494420504152414D45544552000076
:100FA000000000000000000000783132303A464175
:100FB0004C5345000000000000000000000000004D
:100FC00000000000000000000000793132313A5486
:100FD0005255450000000000000000000000000025
:100FE0000000000000000000000000CB3230333A67
:100FF00054494D454F5554000000000000000000CA
:1010000000000000000000000000000056455253A0
:10101000494F4E00000000000000000000000000EA
:101020000000791D434F4E46494700000000000074
:101030000000000000000000A11D9B1D5549440058
:1010400000000000000000000000000000000000A0
:10105000021EC31D524541444F4E4C590000000032
:101060000000000000000000671E5B1E55504C4F42
:10107000414400000000000000000000941E000039
:1010800000000000444F574E4C4F41440000000008
:1010900000000000991E000000000000524553456A
:1010A0005400000000000000000000009E1E000030
:1010B0000000000055504752414445000000000028
:1010C00000000000A91E0000000000004D454D5327
:1010D000495A450000000000000000000000000028
:1010E0000000B41E55494453495A45000000000011
:1010F00000000000000000000000CC1E52425554C9
:10110000544F4E00000000000000000000000000EE
:10111000E91EE21E52425554544F4E5F4C4F4E470B
:101120000000000000000000051FFE1E4C42555448
:10113000544F4E00000000000000000000000000BE
:10114000211F1A1F4C425554544F4E5F4C4F4E476F
:1011500000000000000000003D1F361F4C454447C2
:101160005245454E00000000000000000000000055
:10117000591F521F4C4544524544000000000000D6
:101180000000000000000000751F6E1F50494E0057
:10119000000000000000000000000000000000004F
:1011A0008F1F8A1F4C4F474D4F44450000000000E1
:1011B0000000000000000000A81FA31F4C4F474D77
:1011C000454D00000000000000000000000000008D
:1011D0000000BD1F4C4F47444F574E4C4F414400F9
:1011E00000000000E21F0000000000004C4F4753C9
:1011F000544F52450000000000000000E71F0000AF
:10120000000000004C4F47434C4541520000000095
:1012100000000000EA1F0000000000005345545485
:10122000494E4700000000000000000000000000E0
:10123000F21FED1F434C454152000000000000002A
:1012400000000000FA1F00000000000053544F523D
:10125000450000000000000000000000FE1F00002C
:1012600000000000524543414C4C000000000000CB
:10127000000000000220000000000000434841522E
:1012800047494E4700000000000000000000000039
:101290000000062048454C500000000000000000FF
:1012A000000000000E2000000000000052535349CF
:1012B000000000000000000000000000000000002E
:1012C00000004A205359535449434B00000000008A
:1012D000000000000000000000007D2053454E4447
:1012E0005F52415700000000000000000000232171
:1012F0000000000053454E440000000000000000C4
:1013000000000000000099200000000047455455EF
:10131000494400000000000000000000F621000029
:101320000000000044554D505F4D46550000000040
:1013300000000000C221000000000000434C4F4E9E
:10134000455F4D465500000000000000DF21000011
:10135000000000004944454E544946590000000031
:1013600000000000132200000000000054494D4519
:101370004F55540000000000000000000000000075
:10138000502230225448524553484F4C44000000EC
:101390000000000000000000BD22A3224155544F70
:1013A00043414C4942524154450000004C23000047
:1013B000000000004649454C4400000000000000C9
:1013C000000000000000000012233C23434C4F4E5D
:1013D000450000000000000000000000782300002D
:1013E00000000000000000000000000000000000FD
:1013F00000000000000000000000000053414B3AD4
:1014000009005549443A0900415451413A090054F0
:1014100068657265206973206174206C65617374FE
:10142000206F6E65206D6F72652063617264207439
:101430007970652063616E6469646174652C2062F3
:10144000757420746865726520776173206E6F749F
:1014500020656E6F756768207465726D696E616C6A
:10146000206275666665722073706163652E0D0A71
:10147000000D0A0004000109010000000000000046
:1014800000000000000000000000004E5850000066
:1014900000000000000000000000004D49464152DD
:1014A00045204D696E69000000000000000000004A
:1014B000000000000000000000000000000000002C
:1014C000000000000000000000000000000000001C
:1014D00000000000000000000000000400010801FE
:1014E00000000000000000000000000000000000FC
:1014F00000004E58500000000000000000000000F6
:1015000000004D494641524520436C617373696345
:1015100020316B000000000000000000000000000F
:1015200000000000000000000000000000000000BB
:1015300000000000000000000000000000000000AB
:10154000000002000118010000000000000000007F
:101550000000000000000000004E58500000000095
:101560000000000000000000004D494641524520A7
:10157000436C617373696320346B000000000000EA
:10158000000000000000000000000000000000005B
:10159000000000000000000000000000000000004B
:1015A00000000000000000000044000100010000F5
:1015B000000000000000000000000000000000002B
:1015C0004E58500000000000000000000000000025
:1015D0004D494641524520556C7472616C6967688B
:1015E0007400000000000000000000000000000087
:1015F00000000000000000000000000000000000EB
:1016000000000000000000000000000000000000DA
:101610004403012001757781028000000000000072
:10162000000000000005004E5850000000000000BF
:10163000000000000000004D49464152452044454D
:1016400053466972650000000000000000000000C1
:10165000000000000000000000000000000000008A
:10166000000000000000000000000000000000007A
:101670000000000000000044030120017577810292
:1016800080000000000000000000000005004E582F
:1016900050000000000000000000000000004D4964
:1016A00046415245204445534669726520455631AE
:1016B000000000000000000000000000000000002A
:1016C000000000000000000000000000000000001A
:1016D0000000000000000000000000000000040303
:1016E0000128013877B14A434F50333100000000E0
:1016F000000000090149424D000000000000000008
:1017000000000000004A434F503331000000000049
:1017100000000000000000000000000000000000C9
:1017200000000000000000000000000000000000B9
:1017300000000000000000000000000000000000A9
:10174000000000000048000120017877B1024A4300
:101750004F5076323431000000000C0149424D00F8
:101760000000000000000000000000004A434F504D
:1017700033312076322E342E31000000000000007C
:101780000000000000000000000000000000000059
:101790000000000000000000000000000000000049
:1017A00000000000000000000000000048000120D0
:1017B000013833B14A434F503431563232000000C1
:1017C000000C0149424D0000000000000000000034
:1017D0000000004A434F5034312076322E32000050
:1017E00000000000000000000000000000000000F9
:1017F00000000000000000000000000000000000E9
:1018000000000000000000000000000000000000D8
:1018100000000004000128013833B14A434F50341E
:1018200031563233310000000D0149424D000000B5
:10183000000000000000000000004A434F50343117
:101840002076322E332E3100000000000000000010
:101850000000000000000000000000000000000088
:101860000000000000000000000000000000000078
:1018700000000000000000000000040001880100DA
:101880000000000000000000000000000000000058
:1018900000496E66696E656F6E0000000000000012
:1018A000004D494641524520436C61737369632082
:1018B000316B00000000000000000000000000008C
:1018C0000000000000000000000000000000000018
:1018D0000000000000000000000000000000000008
:1018E000000200019801000000000000000000005C
:1018F000000000000000000047656D706C7573000B
:1019000000000000000000004D50434F5300000055
:1019100000000000000000000000000000000000C7
:1019200000000000000000000000000000000000B7
:1019300000000000000000000000000000000000A7
:101940000000000000000000000C0100000000008A
:10195000000000000000000000000000000000493E
:101960006E6E6F766973696F6E2052265400004A5E
:101970006577656C000000000000000000000000BA
:101980000000000000000000000000000000000057
:101990000000000000000000000000000000000047
:1019A0000000000000000000000000000000000235
:1019B00000013801000000000000000000000000ED
:1019C0000000000000004E6F6B6961000000000025
:1019D0000000000000004D494641524520436C6123
:1019E0007373696320346B202D20656D756C617491
:1019F000656420283632313220436C617373696329
:101A000029000000000000000000000000000000AD
:101A10000000000000000800013801000000000084
:101A2000000000000000000000000000004E6F6B8E
:101A3000696100000000000000000000004D494600
:101A400041524520436C617373696320346B202DD0
:101A500020656D756C6174656420283631333120E2
:101A60004E46432900000000000000000000000076
:101A70000000000000000000000000000063646936
:101A80006E6F70737578585B000011241FBECFEF26
:101A9000CDBFDFE3DEBF00E00CBF18BE19BE1ABE2B
:101AA0001BBE14E2A0E0B0E2E2E4F7EF00E00BBFFF
:101AB00002C007900D92AA38B107D9F71BBE27E3E1
:101AC000AAE8B4E201C01D92A13BB207E1F7D3D16D
:101AD0000C949F7BC8C2EF93FF93E091972FF091F6
:101AE000982F0995FF91EF911895EF93FF93E0914F
:101AF000952EF091962E0995FF91EF9118953BB791
:101B00008BBFFB01879196913BBF08953BB78BBF7D
:101B1000CB0142E20D94F00F3BB70B0143E20D9471
:101B2000F00F3BB78BBFCB0145E20D94F00F3BB7F5
:101B300046E208C02091CF0127FDFCCF2227209349
:101B4000CA0108954093CA0128ED31E02093340082
:101B50003093CB016091C4017091C5018091C601A1
:101B600099270895FC014093CA01849108950F922A
:101B700000240F932F933F934F935F930FB70F93CF
:101B8000EF93FF93EAB1FBB15191442735B124B1F2
:101B9000569578F400928C080092000806E10A95A8
:101BA000F1F700C001E00093000803E000938C0807
:101BB00004C00AE10A95F1F700002150304019F401
:101BC0000E94A12B0CC04F5F477011F4519102C0CD
:101BD00000C000C00AE00A95F1F700C0D9CFFF911C
:101BE000EF910F910FBF5F914F913F912F910F9107
:101BF0000F901895F190E190D190C190B190A19083
:101C0000919081900B941B942B943B944B945B94F8
:101C10006B947B948B949B94AB94BB94CB94DB940C
:101C2000EB94FB940895F801D894E4DF5894E2DF34
:101C3000D894E0CFF801D894DDDF5894DBDFF801C9
:101C4000D894D8CFF801D894D5CFF8015894D2CFF2
:101C5000F80170965894CEDFF8013896D894CADF10
:101C6000F8015894C7CFF8015894C4DFD894C2DF64
:101C7000F8015894BFCFFF90EF90DF90CF90BF90C6
:101C8000AF909F908F907F906F905F904F903F901C
:101C90002F90112408952F923F924F925F926F924E
:101CA0007F928F929F92AF92BF92CF92DF92EF92EC
:101CB000FF920F931F93FB0171906190519041909F
:101CC00031902190119001908A01CDDFFC01719239
:101CD00061925192419231922192119201921F91FF
:101CE0000F91C9CF2F923F924F925F926F927F9246
:101CF0008F929F92AF92BF92CF92DF92EF92FF921C
:101D00000F931F93FC01719061905190419031901D
:101D10002190119001908A018DDFFB0171926192F7
:101D20005192419231922192119201921F910F9101
:101D3000A2CF2F923F924F925F926F927F928F929B
:101D40009F92AF92BF92CF92DF92EF92FF92CF938A
:101D5000DF93EB01DA01BF01F901719061905190BD
:101D600041903190219011900190F990E990D99093
:101D7000C990B990A990999089907F246E245D2490
:101D80004C243B242A2419240824FB0109957D9224
:101D90006D925D924D923D922D921D920D92019702
:101DA00021F7D9017D926D925D924D923D922D92D7
:101DB0001D920D92DF91CF915ECF2F923F924F9265
:101DC0005F926F927F928F929F92AF92BF92CF92CB
:101DD000DF92EF92FF92CF93DF93EB01DA01BF0125
:101DE000788069805A804B803C802D801E800F80D7
:101DF000FB010995F901F190E190D190C190B1906A
:101E0000A190919081907F246E245D244C243B24EA
:101E10002A2419240824F990E990D990C990B990FE
:101E2000A99099908990F901F192E192D192C19291
:101E3000B192A192919281927D926D925D924D921A
:101E40003D922D921D920D92019751F6DF91CF9107
:101E500012CFFEE0EAE16DCFFEE0EAE1AECFFEE0B8
:101E6000E3E367CFFEE0E3E3A8CFFEE0E3E161CF89
:101E7000FEE0E8E2A2CF19D10E94481A0E94E41ABB
:101E80000E94C91BCBD21092520684E08093420676
:101E900082E680938601C1E0C0932606C0932106A6
:101EA00086E080932206C093310612E0109332063A
:101EB00010922A0610922B068FE08093290689E55E
:101EC000809380019AE5909381018093820180E460
:101ED00080934106809346069091B200907F909344
:101EE000B2009091B20092609093B20090E3909310
:101EF00041069093460680935006C0934606109381
:101F0000450603E00093410683E18093010821E048
:101F100030E0209326083093270820932808309338
:101F2000290810928C088093800810922303109245
:101F30002103D8E0D093220381E180932003E09134
:101F4000B72FF091B82F82859385809338039093B3
:101F500039038CE380938203D093800380938303BF
:101F6000D093810371D10E94DC1CC2D157D7C0939A
:101F70000002109201021093020200930402C09327
:101F80002002D09321020E94D3181BD1D2E0C1E1DC
:101F90008091030481FF27C08091010480FDFCCF64
:101FA000D09303040E94E81A0E94CA1BB6D10E9473
:101FB0000F1D3CD70E94431AE091A72FF091A82F44
:101FC00019950E9468260E94791CE091B72FF09124
:101FD000B82F8781813011F4C093932C8681813092
:101FE00011F4C093922C0E94E01CDED7E091A52F43
:101FF000F091A62F1995E0919F2FF091A02F1995A0
:10200000C7CF292F33272230310559F0233031052E
:1020100069F021303105F9F482E190E02AE832E0FC
:102020001EC08EE390E02CE432E019C09927813085
:10203000910541F08230910541F0892B61F4E8E48B
:10204000F2E005C0ECE1F2E002C0ECEFF1E08491D7
:1020500090E09F0104C080E090E020E030E0FA01D1
:102060002083318308951F920F920FB60F9211248F
:1020700008B60F9218BEFFCF1F920F920FB60F92A5
:10208000112408B60F9218BE8F939F938EB19FB103
:1020900080589F4F8EB99FB99F918F910F9008BE26
:1020A0000F900FBE0F901F9018958091780083FFBE
:1020B0000AC088E08093780088ED84BF81E0809337
:1020C00080000D94FE008BEC8093520080915000B4
:1020D0008860809350008091510083FFFCCF82EC98
:1020E00080935500809150008061809350008091D2
:1020F000510084FFFCCF88ED84BF84E080934000D2
:102100001EB81FB881E0809343002FE730E0209392
:102110000A0430930B0420930C0430930D04809335
:1021200000048093020480E880930001089588ED04
:1021300084BF81E080937900089588ED84BF8BE1AE
:1021400080938000089580915000826080935000B9
:102150008091510081FFFCCF82E08093CA01EDE1C4
:10216000F0E0E491E0936200ECE1F0E0E491E093D0
:1021700063001092CA0180E8809365008BEB809326
:10218000660080915600897F8093560080915600AA
:10219000846080935600809160008160809360002D
:1021A0000895E0E4F0E084818E7F8483E0E6F0E04F
:1021B00080818E7F8083E0E5F0E080818D7F808369
:1021C000089587E08093A200789408950895089573
:1021D0000895089508950895089580E090E0089581
:1021E000089508950F931F93CF93DF931F92CDB758
:1021F000DEB70BE91FE2D8011296ED91FC9113971F
:10220000898319950E94A026E091B72FF091B82FED
:1022100089818583B9E18B9FB001112464567D4F7C
:1022200049E150E0C8010E947774D801ED91FC911A
:102230001995D8011696ED91FC9117970F90DF91A3
:10224000CF911F910F91199449E150E06CE972E030
:102250008BE99FE20E947774E091B72FF091B82F3D
:102260008581C0CF0F931F93E091B72FF091B82FC6
:102270008B019C01458162E18EE594E00E94161C71
:102280001F910F910895FF920F931F93CF93DF93A8
:102290001F92CDB7DEB78C019E012F5F3F4FAC017F
:1022A00062E18EE594E00E942E1CF82E882389F0CE
:1022B000898198DFF80140E08191882319F04F5F10
:1022C0004F31D1F7E091B42FF091B52FB80181E1F2
:1022D00019958F2D0F90DF91CF911F910F91FF9046
:1022E00008959B01AC0162E18EE594E00C94551CCD
:1022F00008950C94697408951F93CF93DF93C82FAA
:10230000D92F162F180F1C1721F00E94697489937A
:10231000FACFDF91CF911F9108950E9469740E94B6
:1023200069740E9469740C946974EF92FF920F9320
:102330001F93CF93DF937C0161507109FA018A01E9
:10234000020F131FDC0140E050E0E017F107F1F04D
:1023500062307105D8F09191392F32953F703A3043
:1023600010F4305D01C0395C3C939F709A3010F4DA
:10237000905D01C0995C9701240F351FE901998395
:102380001296625071094E5F5F4FDFCF1C92CA01F7
:10239000DF91CF911F910F91FF90EF900895CF9310
:1023A000DF93EC01DA01E0E0F0E04C91442391F19D
:1023B00011969C911197992339F1E617F70721F1AE
:1023C00080ED840F8A3020F08FEB840F8630D0F4BC
:1023D00080ED890F8A3020F02FEB290F263090F402
:1023E000242F30E0413410F0275331092295207F0B
:1023F000913410F4982F01C09753292B29933196CB
:102400001296D3CF80E004C011968C91811102C046
:1024100090E001C0CF01DF91CF910895E0E6F6E0B2
:1024200080E1858382E0868388E085838AE18183F9
:10243000E0EAF9E01682178280EC858388E18483E4
:10244000E0E0F1E0128A8BE6838B148A158A20EA99
:10245000208F99E0918F128E148E158E168E84E047
:10246000808B12A23CE633A314A215A210A611A6DB
:1024700012A624A795A716A680A308954115510575
:1024800009F449C020E12093660623E02093A009C7
:102490002091A10927FFFCCF2091A0097093A009EA
:1024A0002091A10927FFFCCF2091A0096093A009EA
:1024B0002091A10927FFFCCF2091A00921E02093C2
:1024C000120180931C0190931D01409314015093BD
:1024D0001501109222018AE894E2809328019093DA
:1024E00029014093240150932501809110018068B7
:1024F0008093100180912001806880932001809159
:10250000100187FDFCCF80E38093110180932101AE
:1025100080E18093650608954115510509F469C06D
:1025200020E12093660626E02093A0092091A109CE
:1025300027FFFCCF2091A00920E120936506000031
:1025400000002093660622E02093A0092091A109B3
:1025500027FFFCCF2091A0097093A0092091A10929
:1025600027FFFCCF2091A0096093A0092091A10929
:1025700027FFFCCF2091A009109212012AE834E233
:1025800020931C0130931D014093140150931501B9
:1025900020E1209322018093280190932901409308
:1025A00024015093250180911001806880931001CF
:1025B000809120018068809320018091100187FD27
:1025C000FCCF80E3809311018093210180E180930F
:1025D0006506E091B72FF091B82F8781863019F406
:1025E00081E18093932C8681863019F481E1809378
:1025F000922C0895CF92DF92EF92FF92CF93DF93C8
:10260000C090B62FD12CE12CF12C8DE0CC0CDD1C30
:10261000EE1CFF1C8A95D1F7C114D10481E0E806B5
:10262000F10408F04EC080E18093660686E0809356
:10263000A0098091A10987FFFCCF8091A00980E1CA
:1026400080936506000000008093660682E0809318
:10265000A0098091A10987FFFCCF8091A009109269
:10266000A0098091A10987FFFCCF8091A009109259
:10267000A0098091A10987FFFCCF8FEFE81AF80A23
:102680008091A009C0E0D0E1C701B60138DA80939B
:10269000A0098091A10987FFFCCF8091A0099093A8
:1026A000A0098091A10987FFFCCF8091A00982E059
:1026B000C80ED11CE11CF11C219731F780E18093F9
:1026C00065068091010480FDFCCF82E080930304C5
:1026D000DF91CF91FF90EF90DF90CF900895CF9250
:1026E000DF92EF92FF92CF93DF93C090B62FD12C61
:1026F000E12CF12C8DE0CC0CDD1CEE1CFF1C8A952E
:10270000D1F7C114D10481E0E806F10438F0DF917B
:10271000CF91FF90EF90DF90CF906CCF8FEFE81AC2
:10272000F80AC1E2D0E0219791F304DAC701B601BB
:10273000EDD900DA8FEFD81AE80AF80AF4CFCF9271
:10274000DF92EF92FF920F931F93CF93DF93C0908E
:10275000B62FD12CE12CF12C8DE0CC0CDD1CEE1C25
:10276000FF1C8A95D1F7C114D10481E0E806F10479
:1027700008F04FC080E18093660683E08093A00953
:102780008091A10987FFFCCF8091A0091092A00938
:102790008091A10987FFFCCF8091A0091092A00928
:1027A0008091A10987FFFCCF8FEFE81AF80A80918A
:1027B000A009C1E2D0E0219749F1BCD9B8D9BAD972
:1027C00000E010E01092A0098091A10987FFFCCFE2
:1027D0006091A00970E01092A0098091A10987FF83
:1027E000FCCF8091A009782BC80196D9A3D90E5FA0
:1027F0001F4F011581E0180729F7C701B60191D9CC
:1028000099D98FEFD81AE80AF80AD5CF80E18093DA
:102810006506E091B72FF091B82F8781863019F4C3
:1028200090E19093932C9681963049F420E1209387
:10283000922C853059F483E18093932C02C085302B
:10284000D1F3953019F483E18093922C80910104A7
:1028500080FDFCCF82E080930304DF91CF911F9134
:102860000F91FF90EF90DF90CF900895CF92DF927D
:10287000EF92FF920F931F934115E0E25E0761050F
:10288000710508F06BC06901E12CF12C00E010E249
:1028900020E030E0041B150B260B370BC016D106C9
:1028A000E206F30610F49701860120E12093660604
:1028B00026E02093A0092091A10927FFFCCF2091B9
:1028C000A00920E120936506000000002093660621
:1028D00022E02093A0092091A10927FFFCCF20919D
:1028E000A0095093A0092091A10927FFFCCF2091B6
:1028F000A0094093A0092091A10927FFFCCF2091B6
:10290000A009109212012AE834E220931C013093AE
:102910001D01009314011093150120E12093220161
:10292000809328019093290100932401109325019D
:10293000809110018068809310018091200180684F
:10294000809320018091100187FDFCCF80E380936C
:1029500011018093210180E18093650681E01F9140
:102960000F91FF90EF90DF90CF900895CF92DF927C
:10297000EF92FF920F931F934115E0E25E0761050E
:10298000710508F05DC06901E12CF12C00E010E256
:1029900020E030E0041B150B260B370BC016D106C8
:1029A000E206F30610F49701860120E12093660603
:1029B00023E02093A0092091A10927FFFCCF2091BB
:1029C000A0095093A0092091A10927FFFCCF2091D5
:1029D000A0094093A0092091A10927FFFCCF2091D5
:1029E000A00921E02093120180931C0190931D0106
:1029F0000093140110931501109222018AE894E2C9
:102A000080932801909329010093240110932501BC
:102A1000809110018068809310018091200180686E
:102A2000809320018091100187FDFCCF80E380938B
:102A300011018093210180E18093650681E001C04E
:102A400080E01F910F91FF90EF90DF90CF9008955D
:102A50008091CF0187FDFCCF0895FADF8091CF01EF
:102A600081FF0BC086E38093CA01EBECF1E021E02B
:102A700030E088ED90E084BF20830895EF92FF92CC
:102A80000F931F93CF93DF931F921F92CDB7DEB7A3
:102A90007C018A011092C20169837A83D9DF69813E
:102AA000A62F7A81B72FC701800F911F26E048ED2E
:102AB00050E061E070E0EBECF1E0E816F90689F037
:102AC000E092C0013F2D3F713093C1012093CA01B4
:102AD00044BF60833091C4013D933FEFE31AF30A92
:102AE000ECCFC8010F900F90DF91CF911F910F9104
:102AF000FF90EF9008952F923F924F925F926F92C6
:102B00007F928F929F92AF92BF92CF92DF92EF927D
:102B1000FF920F931F93CF93DF9300D0CDB7DEB713
:102B20006A01282F2F711C01221A310829836A8318
:102B30007B8393DF8DDF83E38093CA011092C10111
:102B40001092C2016A81E62E7B81F72E860185E311
:102B5000582E98ED892E912C66246394712C3BECB1
:102B6000A32EBB24B39443E3442E29810115110500
:102B700009F12093C001F70181917F018093C40185
:102B80000150110919F02F5F203281F72092C00106
:102B9000832D8F718093C1015092CA01C401F50148
:102BA00084BF608290E2290E311C52DF4092CA013C
:102BB00020E0DCCFC6012396CDBFDEBFDF91CF91F1
:102BC0001F910F91FF90EF90DF90CF90BF90AF904B
:102BD0009F908F907F906F905F904F903F902F903D
:102BE00008951F93CF93DF93CDB7DEB7A097CDBFE6
:102BF000DEBF863009F4F2C0D8F4833009F472C025
:102C000030F4813061F1823009F440C000C1843079
:102C100009F48DC0853009F0FAC0E091AB2FF09136
:102C2000AC2FCE01019619958091B12F41E0ABC038
:102C3000893009F4D7C040F4873009F4D1C0883016
:102C400009F0E5C0D7DCE3C08B3009F4D6C008F446
:102C5000D2C08C3009F0DBC08EEC93E2D0C010E023
:102C60008091B12F181750F444DBE1E0F0E0EC0F55
:102C7000FD1FE10FF11D80831F5FF2CF8091B32F05
:102C8000853009F098C080EE898395C011E080916D
:102C9000B12F873009F010E0E091AB2FF091AC2F0D
:102CA000CE01019619954091B12F31E0141708F02B
:102CB00082C03323A9F0812F90E0E1E0F0E0EC0F37
:102CC000FD1FE80FF91F208131E02F3F09F030E0B0
:102CD000E1E0F0E0EC0FFD1FE80FF91F2F5F20830C
:102CE0001F5FE4CFE091AB2FF091AC2FCE010196A6
:102CF00019958091B12F41E0815008F45CC04423C4
:102D0000D9F3282F30E0E1E0F0E0EC0FFD1FE20FF7
:102D1000F31F908141E09F3F09F040E0E1E0F0E0E7
:102D2000EC0FFD1FE20FF31F9F5F9083E5CF11E0D3
:102D30008091B12F873009F010E0E091AB2FF09136
:102D4000AC2FCE01019619954091B12F31E01417A7
:102D500090F53323A1F0812F90E0E1E0F0E0EC0F5B
:102D6000FD1FE80FF91F208131E0211130E0E1E083
:102D7000F0E0EC0FFD1FE80FF91F215020831F5FCB
:102D8000E6CF411103C08150E0F715C0282F30E095
:102D9000E1E0F0E0EC0FFD1FE20FF31F908141E056
:102DA000911140E0E1E0F0E0EC0FFD1FE20FF31FB6
:102DB00091509083E8CFE091AD2FF091AE2FCE01EE
:102DC00001961995E091B42FF091B52F4091B12F54
:102DD000BE016F5F7F4F83E1199519C0BFD317C044
:102DE000AEDC15C080910008813061F480918C08C0
:102DF000833041F40AC0B9D20AC088EC93E20E9441
:102E00009E2505C00E942C2702C00E945127A09633
:102E1000CDBFDEBFDF91CF911F910895E0E0F6E0D6
:102E200080E6828388E1868B858B0895CF93C0915D
:102E30000806C095C6FF12C080918C248A3050F0DD
:102E40008A30E1F4E091B72FF091B82F8181C9DE8B
:102E500080918C248F5F80938C2410C08C2F80767F
:102E600069F480918C2481508A3030F4E091B72F3E
:102E7000F091B82F8081B5DE10928C24C5FF12C06E
:102E800080918B248A3050F08A30D9F4E091B72FAA
:102E9000F091B82F8381A5DE80918B248F5F809382
:102EA0008B240FC0C07669F480918B2481508A30C6
:102EB00030F4E091B72FF091B82F828192DE10921A
:102EC0008B24CF9108959B01AC016DE080EB98E0DD
:102ED000ECC420E030E090E0F901E80FF91FEA547B
:102EE000F04D6383245F3F4F20363105A9F70895E5
:102EF0000F931F939B01E091B72FF091B82FE80F2C
:102F0000F11D8A0140816DE080EB98E08FD41F9124
:102F10000F9108950F931F93CF93DF931F92CDB717
:102F2000DEB7082FAB019E012F5F3F4F6DE080EBB6
:102F300098E094D4182F882319F06981802FC9DF75
:102F4000812F0F90DF91CF911F910F9108950895D8
:102F5000EF92FF920F931F93CF937B01C42F2EB15B
:102F60003FB10091080410910904022B132B682F24
:102F700083E090E20E947D726C2F83E090E20E94D9
:102F80007D72612F83E090E20E947D72602F83E06A
:102F900090E20E947D726C2F70E0C701CF911F916B
:102FA0000F91FF90EF9002C508953F924F925F926C
:102FB0006F927F928F929F92AF92BF92CF92DF9249
:102FC000EF92FF920F931F93CF93DF937C01E90160
:102FD000C0900020D0900120960122503843C901B2
:102FE000A0E0B0E0481759076A077B0708F05CC00B
:102FF000E2E0CE1AE0E4DE0A2A013B014C0E5D1E3F
:10300000611C711C481659066A067B0648F0241B91
:10301000350B8E01021B130BE9013324339403C0DB
:1030200000E010E0312C4601A12CB12C48155905C7
:103030006A057B0510F5CA018E5F9F4B2A013B0193
:103040004C0E5D1E611C711C481459046A047B04FB
:1030500028F4AE01BC01C70111DA18C0C41AD50AA0
:10306000A601BC01C7010ADAAE014C195D0962E98B
:1030700074E2C7018C0D9D1D07C04C195D09BA0192
:103080006E567B4DAE01C7010E94A574311002C07F
:1030900081E00BC001501109D8F3F801EC0FFD1FBE
:1030A000EE0DFF1D1082F6CF80E0DF91CF911F91D2
:1030B0000F91FF90EF90DF90CF90BF90AF909F90D7
:1030C0008F907F906F905F904F903F9008952091E8
:1030D0008E2430918F2480E098E0821B930BE2E9EC
:1030E000F4E29F01225934422817390710F4119253
:1030F000F8CF82E994E2809390249093912480E029
:1031000098E080938E2490938F2482E090E48093C3
:1031100000209093012042E050E060E070E480E005
:1031200090E2FAD9E091B72FF091B82F87818A30D9
:1031300019F480E18093932C86818A3019F480E120
:103140008093922C089580918E2490918F24905892
:103150002091002030910120821B930B089520E0E4
:1031600030E0F901EA54F04D8783245F3F4F203669
:103170003105B9F7813049F018F0823059F00895DF
:1031800010928D2487EA97E109C080938D248EE206
:1031900099E104C010928D2488EA97E18093B42FBE
:1031A0009093B52F08950F931F93CF93DF931F92A2
:1031B000CDB7DEB7E091B72FF091B82F8481CFDF84
:1031C00082E994E2809390249093912400E018E0A7
:1031D00000938E2410938F2441E050E0BE016F5F76
:1031E0007F4F80E090E04ADCE0919024F0919124C0
:1031F000DF01C8011D920197E9F78981882341F019
:1032000042E050E060E070E480E090E237D917C01F
:1032100082E090E4809300209093012042E050E00F
:1032200060E070E480E090E277D981E0898341E05A
:1032300050E0BE016F5F7F4F80E090E05CDCE0918A
:10324000B42FF091B52F40E060E070E08FEF19955A
:103250000F90DF91CF911F910F9108950F931F93BE
:10326000CF93DF93AEB1BFB1C0910804D0910904F0
:1032700020918E2430918F24E42FF0E08F010C5F99
:103280001F4F2017310758F1CA2BDB2B245031096F
:103290002E1B3F0B20938E2430938F24A0919024DB
:1032A000B09191248C9311964C9311971296DC93C4
:1032B0001297CD01049680939024909391241396B5
:1032C000CC93DB01EC01415018F02D912993FBCFF9
:1032D000E80FF91FE0939024F093912412C080E04E
:1032E0003EDFE091B72FF091B82F87818A3019F433
:1032F00081E18093932C86818A3019F481E1809357
:10330000922CDF91CF911F910F9108951F93CF932E
:10331000DF931F92CDB7DEB79E012F5F3F4FAC0109
:1033200063E08DE59AE09AD2182F882311F0898105
:1033300016DF812F0F90DF91CF911F9108950F938A
:103340001F93E091B72FF091B82F8B019C0144811E
:1033500063E08DE59AE06AD21F910F9108959B0179
:10336000AC0163E08DE59AE0A0C2EF92FF920F936B
:103370001F93CF93DF9380918E2490918F2481159A
:1033800028E0920708F078C00091002010910120F9
:10339000C0E0D0E8C01BD10BE12C28E0F22EA70141
:1033A000481B590BC417D50760F1B80182E994E2B4
:1033B000B3D820918E2430918F2480910020909159
:1033C0000120985F821B930B809300209093012033
:1033D000E21AF30AE2E9F4E2CF01825994428E152F
:1033E0009F0510F41192F8CF82E994E28093902423
:1033F0009093912480E098E080938E2490938F2482
:103400002EC02097C9F1AE01B80182E994E284D8B8
:10341000A8015857BE016E567B4D82E994E20E9486
:10342000AE7480919024909191248C1B9D0B80937D
:1034300090249093912480918E2490918F248C0FCE
:103440009D1F80938E2490938F24809100209091D3
:103450000120C80FD91FC0930020D093012042E063
:1034600050E060E070E480E090E2DF91CF911F9146
:103470000F91FF90EF9050C8DF91CF911F910F9166
:10348000FF90EF90089580918D2481116ECF089563
:1034900043E650E066EB7FE281E090E0EFCA43E66E
:1034A00050E066EB7FE281E090E025CB0F931F9325
:1034B000CF93DF93CFEFC80FC83008F047C0D82FA5
:1034C0000E94A0268091B62FC81779F138D9C093F1
:1034D000B62F8CE0C89F900111242754304D2093C3
:1034E000B72F3093B82F86D8E091B72FF091B82F2F
:1034F00085810E94F210E091B72FF091B82F84815E
:103500002EDE01E010E0065B1F426091B62FC8017D
:103510008A54904D0E94317B6091B72F7091B82FE3
:10352000C8018954904D0E943A7B8FE18D0FE09144
:10353000B72FF091B82F9781943011F48093932C8A
:103540009681943029F48093922C02C080E001C0CF
:1035500081E0DF91CF911F910F9108958091B62F57
:1035600099E04CE0915099F0282F30E02F5F3F4FC9
:1035700027703327822F429FF001439FF00D1124C3
:10358000EA54F04D2085222369F38F5F8FCF089591
:10359000FC019091B62F9F5C908311820895CF9388
:1035A000FC01C081818181110CC0BF01E091B42F69
:1035B000F091B52F41E082E1199580ED8C0FCF910C
:1035C00075CF80E0CF91089588E18093010608953A
:1035D0008091922C823191F030F48031B9F050F426
:1035E0008823A9F132C0833169F090EE980F9830AA
:1035F00088F02BC088E08093050627C088E0809380
:10360000070623C08091040683FF12C088E08093E0
:1036100006061BC09091942C9F5F913019F09093F7
:10362000942C15C01092942C9091040693FD04C024
:1036300088E0809305060BC098E0909306068032E0
:1036400021F081508093922C02C01092922C809194
:10365000932C823191F030F48031C1F050F4882302
:10366000A9F132C0833169F090EE980F983088F05C
:103670002BC080E18093050627C080E18093070678
:1036800023C08091040684FF12C080E18093060667
:103690001BC09091952C9F5F913019F09093952CC1
:1036A00008951092952C9091040694FD04C080E139
:1036B00080930506089590E190930606803221F0EC
:1036C00081508093932C08951092932C08959B0120
:1036D000AC016BE080EC9AE0E8C020E030E0982F8D
:1036E00090718870992321F0F901EA54F04D6287B6
:1036F000882321F0F901EA54F04D6187245F3F4FA0
:103700002036310579F7992329F090E19093060648
:103710001092932C882329F088E08093060610925B
:10372000922C08950F931F939B018A01803131F4ED
:10373000E091B72FF091B82F478107C0883049F446
:10374000E091B72FF091B82F46816BE080EC9AE0C2
:103750006DD01F910F9108950F931F93CF93DF9317
:103760001F92CDB7DEB7082FAB019E012F5F3F4FF1
:103770006BE080EC9AE072D0182F882319F06981F1
:10378000802FABDF812F0F90DF91CF911F910F9191
:10379000089508958091962C833040F08150809355
:1037A000962C823019F481E08093860608959B015F
:1037B000AC0168E08BE29CE078C08093962C882373
:1037C00059F091E090938106823019F49093860627
:1037D000089590938506089581E080938206089568
:1037E0000F931F938B019C014091962C68E08BE214
:1037F0009CE01CD01F910F9108951F93CF93DF93EE
:103800001F92CDB7DEB79E012F5F3F4FAC0168E03E
:103810008BE29CE023D0182F882311F08981CDDF23
:10382000812F0F90DF91CF911F9108950F931F93D8
:10383000FC01662379F094916150941309C0BF0193
:103840006F5F7F4FA801C9010E94897481E003C0A6
:10385000B196EFCF80E01F910F910895CF92DF9244
:10386000EF92FF921F93CF93DF93EC017A016901EE
:10387000162F112389F0BE016F5F7F4FC7010E9491
:1038800080741150892B31F4FE01C491F601C0837C
:1038900081E003C0A196EDCF80E0DF91CF911F9131
:1038A000FF90EF90DF90CF900895CF930196CCE2F8
:1038B0006623C9F0FC01DA01AD017491772341F070
:1038C00021153105A1F07D93319621503109F4CFB6
:1038D000623030F02115310551F04F5F5F4FCC93CE
:1038E00061508196E5CF232B11F0FA011082CF9120
:1038F00008958091200280688093200280912302A5
:1039000080FFFCCF81E080932302A0911002B09150
:103910001102AE5BB109B7FF02C0A0E0B0E020E049
:1039200038EB4BE050E00E940374E091B72FF09128
:10393000B82F61157105844F9140A8F487818730B5
:1039400019F480E18093932C8681873019F480E10B
:103950008093922C8091B12F882389F0E091A32F3E
:10396000F091A42F19948781873019F481E1809315
:10397000932C8681873019F481E18093922C0895ED
:10398000BC0183E090E20C942F72CF93DF93FC0193
:103990006491EC012196662331F083E090E20E946D
:1039A0007D72CE01F4CFDF91CF910895AB01BC01C0
:1039B00083E090E20C94597280E28093620608954D
:1039C000CF93DF938091972C823031F583E090E2A2
:1039D0000E94E2720E94B16D83E090E20E94FE724A
:1039E000EC0197FD19C0E091B72FF091B82F8781B6
:1039F000833019F483E18093932C8681833019F40A
:103A000083E18093922C8C2FBBD6811105C08C2F23
:103A1000DF91CF910C94BE25DF91CF9108958091D5
:103A2000972C813079F028F08230D9F0833011F171
:103A30002EC08091680685FF2AC08FE08093022007
:103A400081E00CC08091022081508093022081117E
:103A50001EC00E94A3100E945C7182E08093972C8C
:103A600016C08091680685FD12C08FE08093022009
:103A700083E0F4CF80910220815080930220811155
:103A800006C00E9421710E94D1101092972C809143
:103A9000972C823019F4C5D70C9468260895E091CC
:103AA000B72FF091B82F8781823019F481E180938C
:103AB000932C8681823019F481E18093922C0895B1
:103AC000E091B72FF091B82F8781823019F480E10F
:103AD0008093932C8681823019F480E18093922C1C
:103AE000089583E090E20C940A7283E090E20C94D3
:103AF000517329EC3EE03F932F9323EC3EE03F933C
:103B00002F932CEB3EE03F932F9325EB3EE03F932A
:103B10002F9325E13EE03F932F9322E02F931F92B6
:103B20009F938F930E940E758DB79EB70E968DBF93
:103B30009EBF85E6089560E072E00E94321185E63E
:103B40000895FB0120812F3349F42181211106C002
:103B500060E072E00E94711185E60895CB010E9439
:103B60004311882371F0E091B72FF091B82FCF0166
:103B7000815B9F4265818F5F9F4F0E94317B84E60E
:103B800008958AEC0895EF92FF920F931F93CF93BD
:103B9000DF93CDB7DEB7A097CDBFDEBF7C0100912C
:103BA000B12F10E00115110591F48DE09EE09F9377
:103BB0008F9382E08F931F92FF92EF920E940E7577
:103BC0000F900F900F900F900F900F9010C0E091FA
:103BD000AB2FF091AC2FCE01019619959801AE0153
:103BE0004F5F5F4F60E072E0C7010E94951185E66C
:103BF000A096CDBFDEBFDF91CF911F910F91FF90B7
:103C0000EF900895DF92EF92FF920F931F93CF935F
:103C1000DF93CDB7DEB7A097CDBFDEBF7B010091AC
:103C2000B12F10E066E07EE0C7010E948074892B0E
:103C3000C1F4D12CED2CF12CE016F10658F40E94C1
:103C40007911E1E0F0E0EC0FFD1FEE0DFF1D808328
:103C5000D394F0CF8091B32F853069F480EE8983BF
:103C60000AC0A70160E270E0CE0101960E94CF1168
:103C700080179107A1F4E091AD2FF091AE2FCE0106
:103C800001961995E091B42FF091B52F4091B12F85
:103C9000BE016F5F7F4F83E1199584E601C08AEC16
:103CA000A096CDBFDEBFDF91CF911F910F91FF9006
:103CB000EF90DF900895FC018091B22F882311F0DE
:103CC00081E301C080E38083118285E60895FB01D2
:103CD0002181211127C02081213321F481E08093AB
:103CE000B22F04C0203321F41092B22F84E608953D
:103CF0002F33C1F41F9220E32F931F9221E32F93C0
:103D000020E03EE03F932F9322E02F931F929F935A
:103D10008F930E940E758DB79EB70A968DBF9EBF7A
:103D200085E608958AEC089586E394E1F8D48EE65A
:103D3000089586EB94E10ED58EE60895E0ECF4E06C
:103D400081818E7F81830E9421710E94971084E679
:103D50000895E0ECF4E081818E7F81830E942171DF
:103D60000E949D1084E60895EBE9FFE225892F93D8
:103D700024892F932DEF3DE03F932F9322E02F9343
:103D80001F929F938F930E940E758DB79EB70896D2
:103D90008DBF9EBF85E608952091B12F1F922F936E
:103DA0002AEF3DE03F932F9322E02F931F929F93A2
:103DB0008F930E940E758DB79EB708968DBF9EBFDC
:103DC00085E6089540E052E0BC0180E091D885E6A8
:103DD0000895FB0120812F3341F42181211105C079
:103DE00060E072E070D885E6089580E093D888237B
:103DF00019F055DB84E608958AEC089540E052E01E
:103E0000BC0181E075D885E60895FB0120812F3340
:103E100041F42181211105C060E072E054D885E6AB
:103E2000089581E077D8882319F039DB84E6089576
:103E30008AEC089540E052E0BC0182E059D885E662
:103E40000895FB0120812F3341F42181211105C008
:103E500060E072E038D885E6089582E05BD8882378
:103E600019F01DDB84E608958AEC089540E052E0E5
:103E7000BC0183E03DD885E60895FB0120812F3306
:103E800041F42181211105C060E072E01CD885E673
:103E9000089583E03FD8882319F001DB84E6089574
:103EA0008AEC089540E052E0BC0180E13BDC85E60D
:103EB0000895FB0120812F3341F42181211105C098
:103EC00060E072E004DC85E6089580E145DC88234B
:103ED00019F0E5DA84E608958AEC089540E052E0AE
:103EE000BC0188E01FDC85E60895FB0120812F33AB
:103EF00041F42181211105C060E072E0E8DB85E634
:103F0000089588E029DC882319F0C9DA84E6089549
:103F10008AEC089560E072E063DC85E60895FB01B9
:103F200020812F3341F42181211105C060E072E02E
:103F30003EDC85E60895CB0160DC811102C08AEC8D
:103F4000089584E6089560E072E0F9D985E6089561
:103F5000FB0120812F3341F42181211105C060E054
:103F600072E0FDD985E60895CB01D0D9882319F0F8
:103F700096DA84E608958AEC0895CF93DF93EC01F6
:103F8000E2D8813028E0920718F09C01385002C036
:103F900020E030E03F932F939F938F932AED3DE0F5
:103FA0003F932F9382E08F931F92DF93CF930E94D2
:103FB0000E758DB79EB70A968DBF9EBF85E6DF91C1
:103FC000CF91089585ED97E1C5D38EE60895CDD9BB
:103FD00084E608957CD884E6089560E072E0D8DA3B
:103FE00085E60895CB01DBDA811102C08AEC0895E1
:103FF00084E608950E946F1384E608950E949F133B
:1040000084E608950E94FA1284E608958091680675
:1040100080FD02C089E7089588E70895DF92EF9256
:10402000FF920F931F93CF93DF93EC010FEF11E0FB
:104030008CE0E82E80E1F82E9CE2D92EB70189EEC3
:1040400093E20E948074892BD1F001151105B9F01B
:10405000DE01F7012491ED012196C8010197222389
:1040600041F00130110529F02C93DE0131968C01CD
:10407000F1CFDC928C0188E1E80EF11CDFCF2197B3
:10408000188285E6DF91CF911F910F91FF90EF90FD
:10409000DF900895FC0120912002206820932002E7
:1040A0008091230280FFFCCF81E080932302A091C6
:1040B0001002B0911102AE5BB109B7FF02C0A0E0DF
:1040C000B0E020E038EB4BE050E00E940374AA27F8
:1040D000BB279F938F9323ED3DE03F932F9382E087
:1040E0008F931F92FF93EF930E940E758DB79EB72B
:1040F00008968DBF9EBF85E608952EB13FB14091D1
:10410000080450910904242B352B3F932F932DEC59
:104110003DE03F932F9322E02F931F929F938F9325
:104120000E940E758DB79EB708968DBF9EBF85E61F
:1041300008950F931F93CF93DF931F921F92CDB7D4
:10414000DEB78B01E091B72FF091B82F85818B30CE
:1041500009F06FC0E091A32FF091A42F199581E091
:1041600080931C2D60E270E0C8010E94C674009725
:10417000F9F4F80101900020E9F73197E01BF10B09
:10418000E0FD59C0F695E795E130F10539F487E097
:1041900090E08093992F90939A2F37C053E0EE0FC1
:1041A000FF1F5A95E1F7E093992FF0939A2F2DC0B6
:1041B00098012C5F3F4F82179307E9F5A80162E051
:1041C00070E0CE0101960E94CF11898190E0982F76
:1041D00088272A81820F911D8093992F90939A2F7F
:1041E0000B5F1F4FF80101900020E9F73197E01BAA
:1041F000F10BE0FD20C0F695E79533E0EE0FFF1FD1
:104200003A95E1F7E817F907B0F06091992F7091AE
:104210009A2F695F7F4F83E0769567958A95E1F7DE
:10422000A80187E99EE20E94CF110E9408308FEF1B
:1042300003C089EC01C08AEC0F900F90DF91CF9101
:104240001F910F910895EF92FF920F931F93CF93B9
:10425000DF931F921F92CDB7DEB78B01E091B72F8E
:10426000F091B82F85818B3009F080C0E091A32FA9
:10427000F091A42F199582E080931C2D60E270E0EC
:10428000C8010E94C6747C01892B31F5F8010190A8
:104290000020E9F73197E01BF10BE0FD69C0F695CE
:1042A000E795E130F10539F487E090E08093992FAC
:1042B00090939A2F47C063E0EE0FFF1F6A95E1F7D6
:1042C000CF0169E070E00E94EF73E81BF90BE09307
:1042D000992FF0939A2F36C0C8010496E816F90674
:1042E00009F046C0A80162E070E0CE0101960E948C
:1042F000CF11298130E0322F22278A81280F311DEA
:104300002093992F30939A2F2730310529F0C90136
:1043100087709927892B61F587010F5F1F4FF8017F
:1043200001900020E9F73197E01BF10BE0FD20C080
:10433000F695E79543E0EE0FFF1F4A95E1F7E21788
:10434000F307B0F06091992F70919A2F695F7F4FBA
:1043500083E0769567958A95E1F7A80187E99EE263
:104360000E94CF110E9408308FEF03C089EC01C07A
:104370008AEC0F900F90DF91CF911F910F91FF90DA
:10438000EF900895E091B72FF091B82F85818B3091
:10439000A1F4E091A32FF091A42F199585E08093CB
:1043A0001C2D0E945E510E94083088E691E58093A2
:1043B000A72C9093A82C8FEF089589EC08958BE09B
:1043C0000E94F210E091A32FF091A42F199588E09C
:1043D00080931C2D0E945E510E94083088E691E572
:1043E0008093A72C9093A82C8FEF0895E091B72F7E
:1043F000F091B82F85818B30A1F4E091A32FF0913B
:10440000A42F199583E080931C2D0E945E510E9479
:10441000083088E691E58093A72C9093A82C8FEF25
:10442000089589EC0895E091B72FF091B82F858118
:104430008B30A1F4E091A32FF091A42F199586E081
:1044400080931C2D0E945E510E94083088E691E501
:104450008093A72C9093A82C8FEF089589EC089552
:10446000E091B72FF091B82F4085518564E6649FA5
:104470009001659F300D11243F932F9327EC3DE071
:104480003F932F9322E02F931F929F938F930E942D
:104490000E758DB79EB708968DBF9EBF85E60895B1
:1044A000CF93DF931F921F92CDB7DEB7FB01208120
:1044B0002F33B1F42181211113C025E93DE03F9351
:1044C0002F9322E02F931F929F938F930E940E753C
:1044D0000F900F900F900F900F900F9085E62EC0C9
:1044E00089E592E089839A83CE0101969F938F9309
:1044F00081E99DE09F938F937F936F930E94447512
:104500000F900F900F900F900F900F90892BA9F0A4
:1045100069817A816935F2E07F0778F4E091B72FFD
:10452000F091B82F60877187CF018E5A9F428F5FBD
:104530009F4F0E943A7B84E601C08AEC0F900F9057
:10454000DF91CF910895E091B72FF091B82F238597
:104550002F9322852F932EE83DE03F932F9322E067
:104560002F931F929F938F930E940E758DB79EB7C6
:1045700008968DBF9EBF85E60895CF93DF931F9267
:104580001F92CDB7DEB7FB0120812F33B1F421811B
:10459000211113C02FE02F932FEF2F932DE33DE038
:1045A0003F932F9322E02F931F929F938F930E940C
:1045B0000E75CDBFDEBF85E630C019821A82CE01EE
:1045C00001969F938F9389E39DE09F938F937F93B1
:1045D0006F930E9444750F900F900F900F900F9063
:1045E0000F90892BC9F069817A81611590E1790773
:1045F00098F46093380370933903E091B72FF091EA
:10460000B82F62877387CF018C5A9F428F5F9F4F6D
:104610000E943A7B84E601C08AEC0F900F90DF91F4
:10462000CF910895FB0120812F33D9F421812111ED
:1046300021C01F9220E32F931F9221E32F9323E3A6
:104640003DE03F932F9322E02F931F929F938F93F0
:104650000E940E758DB79EB70A968DBF9EBF85E6E8
:104660000895213311F4F8D303C0203319F419D479
:1046700084E608958AEC0895FC0180910008813059
:1046800021F480918C08833011F080E301C081E334
:104690008083118285E60895E091B72FF091B82FBD
:1046A00085818B3079F4E091A32FF091A42F199597
:1046B00084E080931C2D0E945E510E94083088E6A1
:1046C00091E50EC08A3091F4E091A32FF091A42FD0
:1046D000199581E08093F82D0E94625987E799E54A
:1046E0008093A72C9093A82C8FEF089589EC0895C0
:1046F0008BE00E94F210E091A32FF091A42F199566
:1047000087E080931C2D0E945E510E94083088E64D
:1047100091E58093A72C9093A82C8FEF089521E02A
:104720002093A62C2093A52C2CE32093A22C25E0EB
:1047300030E02093A02C3093A12C10929A2C109250
:104740009B2C10929C2C10929D2C8093982C9093D3
:10475000992C089527E02093A62C2CE231E0209399
:10476000A02C3093A12C10929A2C10929B2C10927A
:104770009C2C10929D2C8093982C9093992C0895AA
:10478000CF939091A62C9530E1F130F4933029F13C
:1047900040F5913068F441C1973009F4A7C008F49E
:1047A00045C0983009F4AAC0993009F433C135C125
:1047B000813041F410929E2C10929F2C1092A32CC9
:1047C00083E0FBC0843011F466E08BC0883109F4CB
:1047D00021C18B3109F0F3C01DC18093A42C84E06A
:1047E000ECC090E04091A42C2FEF30E0241B310965
:1047F0008217930721F485E0E0C0981739F165E14D
:1048000069C020919E2C30919F2CA9014F5F5F4F72
:1048100040939E2C50939F2CF901E75EFF4C8083C0
:104820004038510509F0CBC086E0C7C02091A42CC8
:104830009091A52C291346C0E9E1F0E390E020E334
:10484000E939F207D1F22191920FF9CF40919A2CD8
:1048500050919B2C60919C2C70919D2CE091982CF8
:10486000F091992C20E830E089E190E31995C82F68
:10487000882311F18091A52C8F5F8093A52C8091C6
:104880009A2C90919B2CA0919C2CB0919D2C80589F
:104890009F4FAF4FBF4F80939A2C90939B2CA09328
:1048A0009C2CB0939D2C66E083E090E20E947D7288
:1048B00082E08093A62CB2C068E183E090E20E947F
:1048C0007D720EC030E0892F90E0019728173907DC
:1048D00039F466E083E090E20E947D7282E06DC070
:1048E00068E183E090E20E947D7294C0853119F402
:1048F0001092A52C09C08B3109F48CC0883109F4C1
:1049000063CF863009F05DC08091A52C8F5F8093C6
:10491000A52C40919A2C50919B2C60919C2C7091CD
:104920009D2CE091982CF091992C20E830E089E1C1
:1049300090E31995C82F8823D1F161E083E090E2DC
:104940000E947D726091A52C83E090E20E947D72AE
:104950006091A52C609583E090E20E947D7260E8F2
:1049600070E089E190E322D8E9E1F0E360E080E3E0
:10497000E939F80719F08191680FF9CF83E090E2E7
:104980000E947D7280919A2C90919B2CA0919C2CDE
:10499000B0919D2C80589F4FAF4FBF4F80939A2C62
:1049A00090939B2CA0939C2CB0939D2C37C064E0DB
:1049B00083E090E20E947D7289E08093A62CC1E0A2
:1049C0002DC08531E1F761E083E090E20E947D72C5
:1049D0006091A52C83E090E20E947D726091A52CED
:1049E000609583E090E20E947D7260E870E089E16A
:1049F00090E30E94D61CE9E1F0E360E020E3E939AE
:104A0000F20719F08191680FF9CF83E090E20E94DC
:104A10007D72D5CF1092A62CD2CFC0E08C2FCF9133
:104A200008958091A62C813019F0873029F10895DE
:104A30008091A02C9091A12C9C01215031092093B0
:104A4000A02C3093A12C892B31F58091A22C9FEFC3
:104A5000980F9093A22C882331F065E183E090E2D7
:104A60000E947D7202C01092A62C85E090E0809397
:104A7000A02C9093A12C08958091A02C9091A12C12
:104A80009C01215031092093A02C3093A12C892B1B
:104A900011F41092A62C0895E3EEFEE020E030E041
:104AA0009491981309C041E2429FC001439F900D29
:104AB00011248C51914F08952F5F3F4FB1962930AB
:104AC000310571F780E090E00895262FBA012F3369
:104AD00011F4469607C02D3311F4449611C02111EC
:104AE0000CC04096FC01259134912115310521F12E
:104AF00089E190E3F90119950DC02032E9F442965D
:104B0000FC012591349121153105B1F089E190E343
:104B1000F90119958F3F89F491E09093AB2C2EB158
:104B20003FB14091080450910904242B352B209368
:104B3000A92C3093AA2C089589EC08950F931F9304
:104B4000CF93DF938C01CCE0D0E1BE01C8010E947D
:104B50008074892B49F440E050E060E0CE01DF91A1
:104B6000CF911F910F91B1CF689683E1CC3FD807C9
:104B700061F7DF91CF911F910F910895EF92FF920E
:104B80001F93CF93DF93982F9F7D91549A3160F0BC
:104B900090ED980F9A3040F08F3531F0982F9D7F2F
:104BA0009D3311F08032D1F49FE9980F9A3108F4C7
:104BB00080522091AC2C3091AD2C2F3F91E03907E1
:104BC00008F07FC0A9014F5F5F4F4093AC2C50931A
:104BD000AD2CF901E75EFF4C808373C08D3009F086
:104BE00040C0E091AC2CF091AD2CE75EFF4C108200
:104BF0001092AC2C1092AD2C8091AB2C811161C025
:104C000080911930982F9F7D09F440C08D7F8D339E
:104C1000E9F1E9E1F0E37F011191112331F01F3354
:104C200021F01D3311F01032B1F7F7011082CCE002
:104C3000D0E1BE0189E190E30E948074892B59F490
:104C400010921930A7014F5F5F4F612FCE013DDFFA
:104C50008F3FB9F124C06896F3E1CC3FDF0749F7F5
:104C600015C0883061F48091AC2C9091AD2C0097E8
:104C700041F101978093AC2C9093AD2C22C08B31E5
:104C800001F51092AC2C1092AD2C1BC088EC04DF07
:104C90000E94C51C80EE9EE00E94C51C12C0FCDE76
:104CA0000E94C51C80EE9EE00E94C51C80911930B8
:104CB000882339F089E190E30E94C01C8DED9EE0CD
:104CC000EBCF81E0DF91CF911F91FF90EF9008959E
:104CD0008091AB2C882399F1E091B72FF091B82FF8
:104CE000208531852115310551F18EB19FB140915B
:104CF000080450910904842B952B4091A92C5091C4
:104D0000AA2C841B950B64E670E00E94EF73621777
:104D10007307A8F01092AB2C8BECBEDE0E94C51C72
:104D20008AED9EE00E94C51CE091A72CF091A82C72
:104D3000309729F019951092A72C1092A82C08955D
:104D40008091AB2C8823A9F01092AB2C8BECA4DEC5
:104D50000E94C51C8AED9EE00E94C51CE091A72C14
:104D6000F091A82C309729F019951092A72C109249
:104D7000A82C0895CF93DF939091AB2C9923A9F0A1
:104D8000EB011092AB2C88DE0E94C51C87ED9EE0E3
:104D90000E94C51C209749F0CE010E94C01C84EDE2
:104DA0009EE0DF91CF910C94C51CDF91CF910895C7
:104DB000EF92FF920F931F93CF937C019B01613081
:104DC00081E0780710F020E031E08B01021B130B2B
:104DD000A70160E072E089E190E30E94951189E10A
:104DE00090E30E94C01CC1E0013081E01807B0F0E0
:104DF0001A956C2F70E0762F6627A701460F571F74
:104E000020E032E060E072E089E190E30E949511D9
:104E100089E190E30E94C01CCF5FE6CF0115110528
:104E200091F0EC2FF0E0FE2FEE27A7014E0F5F1F51
:104E3000980160E072E089E190E30E94951189E1B8
:104E400090E30E94C01C81ED9EE0CF911F910F91D5
:104E5000FF90EF900C94C51C80910008813029F4DC
:104E600080918C08833009F408958091B02C8111D1
:104E700017C081E08093000893E090938C088093A2
:104E8000AE2C1092AF2C8EB19FB1209108043091BE
:104E90000904822B932B8093B52C9093B62C089504
:104EA000089510928C0810920008EEEAFCE210823D
:104EB000118208959091AE2C9923F1F08091AF2C3E
:104EC000811115C02091AE2C2223B9F02EB13FB133
:104ED0004091080450910904242B352B4091B52CA6
:104EE0005091B62C241B350B2634310530F081E06F
:104EF0008093AF2C892F089581E00895CF93DF939D
:104F00001F92CDB7DEB78091B02C8823D1F02EB19F
:104F10003FB14091080450910904242B352B409156
:104F2000B32C5091B42C241B350B4091B12C5091D3
:104F3000B22C2417350728F01092B02C89838CDF0F
:104F400089810F90DF91CF910895E091B72FF09173
:104F5000B82F8287938780933803909339030895FD
:104F6000E091B72FF091B82F828593854096828784
:104F700093878093380390933903828593850895AE
:104F8000E091B72FF091B82F80E991E08287938765
:104F900080933803909339030895A0E2B6E081E04E
:104FA00015968C93159729E132E328B939B929E987
:104FB00032E32AB93BB910B813B812B816B817B80B
:104FC00011B8E0E0F9E010A211A22FEF30E026A323
:104FD00037A32FEF3FEF20A731A7808398E8938373
:104FE00090E1948793E097831C968C931C9782E0C2
:104FF0001A968C9308951F920F920FB60F92112458
:1050000008B60F9218BE0BB60F921BBE8F939F93DC
:10501000EF93FF93E0E0F9E013828FE790E086AB37
:1050200097AB81E190E080AF91AFE0E0FAE010A2B1
:1050300011A28FEF9FEF86A397A389E8838316823F
:1050400081E084878EE0808310922A06FF91EF91A1
:105050009F918F910F900BBE0F9008BE0F900FBEC7
:105060000F901F9018951F920F920FB60F92112458
:1050700008B60F9218BE0BB60F921BBE2F933F932C
:105080008F939F93EF93FF932091280693B12670FF
:1050900081E009F080E0990F892B83B982B18823E0
:1050A00009F464C012B883B18770873059F5109243
:1050B000000980E180930C091092030A1B9B03C036
:1050C0008CEA94E002C08CE694E08093260A9093E8
:1050D000270A82E081B981E080930C0A83E0809303
:1050E000060A86B197B1877049F090B18F5F893019
:1050F00011F09695FBCFE8B1F9B1908381E08093F0
:10510000B72C37C093B1892F8C7099F192FB9927F6
:1051100090F981E0982781B181111BC080B18695FB
:10512000911190E8892B80B926B137B12F5F3F4F9D
:1051300026B937B927703327232BD9F4E8B1F9B151
:105140009F012F5F3F4F28B939B9808381E081B932
:1051500010C081B1813069F4EAB1FBB19F012F5FCA
:105160003F4F2AB93BB9908311B803C082B18095F3
:1051700082B988E880930309FF91EF919F918F9105
:105180003F912F910F900BBE0F9008BE0F900FBE56
:105190000F901F9018951F920F920FB60F92112427
:1051A00008B60F9218BE0BB60F921BBE2F933F93FB
:1051B0008F939F93EF93FF9381B1823008F49DC04A
:1051C00081B18D3008F099C0E1B1F0E0EE0FFF1F22
:1051D000EA5DFF4D0190F081E02D19948FE790E09A
:1051E0008093260A9093270A88C08E9A8EE0809337
:1051F00040088FE390E08093260A9093270A85E089
:105200006FC08E9886E081B98FEF82B914B815B857
:10521000E8B1F9B1808180B970C0009B05C08E9A59
:1052200082B1809582B901C08E9887E059C0009BF9
:1052300002C08E9801C08E9A80B1869580B984B1E3
:1052400095B1019684B995B984B195B187709927C4
:10525000892B11F488E044C024B135B186B197B1EF
:1052600028173907B1F52BC0EAB1FBB1309711F01F
:10527000808101C082B1882311F08E9A01C08E987E
:1052800089E02EC0EAB1FBB1309751F080818823CC
:1052900011F08E9801C08E9A3196EAB9FBB908C018
:1052A00082B1882311F08E9801C08E9A8FEF82B957
:1052B00024B135B186B197B12817390711F48AE0C6
:1052C0000FC0E8B1F9B1CF01019688B999B98181D0
:1052D00080B986E005C08E988BE002C08E988CE085
:1052E00081B90BC01092000A1092060A1092400871
:1052F0001092410881E08093B82CFF91EF919F912B
:105300008F913F912F910F900BBE0F9008BE0F9081
:105310000FBE0F901F901895CF93DF93E7EBFCE241
:10532000108211828DEB9AE28093952E9093962EA7
:105330008BEF97E28093972F9093982FE0E4F6E01D
:10534000128A84E08283C0E8D1E082E68E83A0E204
:10535000B6E081E016968C93169711968C93119770
:1053600096E012969C93129751968C93519732E047
:1053700052963C9352971A961C921A971B961C921F
:105380001B979FE019969C9399E598832AE52983BA
:105390009A8390E491839683A0EBB0E012962C91CF
:1053A0001297207F12962C93129712962C91129797
:1053B000226012962C9320E321832683908B868390
:1053C000358383E08183E0E0F8E083E1818321E0BD
:1053D00030E026A337A320A731A7E0E8F8E0148641
:1053E0008083E0E2F3E01382118288E0828391E11E
:1053F0009083A091B72FB091B82F1A962D913C9120
:105400001B97208F318FE0E8F3E09CE39283808349
:1054100093838183DF91CF91C0CDA0E2B6E01A964D
:105420001C921A97E7EBFCE210821182E0E0F9E0AF
:1054300010821382178280E18487E0E0FAE0108214
:105440001382168281E08487E0E4F8E01082118202
:1054500016968C938E980895CF93DF938091B72CF6
:10546000882309F47EC01092B72CC6B1D7B1C730DB
:10547000D10508F471C0AE01495F5F4F93E05695C6
:1054800047959A95E1F7E091B42FF091B52F69E136
:1054900072E380E41995E091B72FF091B82F8781DE
:1054A000883019F483E18093932C8681883019F435
:1054B00083E18093922CE091A92FF091AA2FBE0155
:1054C00089E192E31995EC0194FF06C0DF7E89E93A
:1054D00092E38AB99BB902C01AB81BB82097E1F1D0
:1054E000AE01495F5F4F83E0569547958A95E1F796
:1054F000E091B42FF091B52F69E172E381E4199541
:10550000E091B72FF091B82F8781893019F483E1AA
:105510008093932C8681893019F483E18093922CB7
:10552000C6B9D7B989E192E388B999B910926008F0
:10553000109261088FE090E080936608909367086E
:1055400088E090E080936A0890936B0883E28093F0
:10555000410883E081B905C01092000A1092060A42
:105560001CDD8091B82C882329F01092B82CDF9193
:10557000CF9113CDDF91CF9108951F920F920FB667
:105580000F92112408B60F9218BE0BB60F921BBED5
:105590002F933F938F939F93EF93FF93E0E0F9E076
:1055A00080E484871782E0E8F3E082E0878389EB78
:1055B000818389E192E38AB99BB981E090E084B963
:1055C00095B916B88EB19FB12091080430910904A5
:1055D000822B932B8093BA2C9093BB2C81E08093E9
:1055E000BE2C18B817B81092B92C88E080938706A3
:1055F000FF91EF919F918F913F912F910F900BBE53
:105600000F9008BE0F900FBE0F901F901895CF936C
:10561000DF93E0E4F6E0128A84E08283C0E8D1E020
:1056200082E68E83A0E2B6E081E016968C93169710
:1056300011968C93119796E012969C93129751961F
:105640008C93519732E052963C9352971A961C9243
:105650001A971B961C921B979FE019969C9319977B
:1056600099E598832AE529839A8390E49183968328
:10567000C0EBD0E02A81207F2A832A8122602A83FE
:1056800020E321832683908B8683358393E0918367
:10569000E0E0F8E093E1918321E030E026A337A336
:1056A00020A731A7E0E8F8E014869083E0E2F3E079
:1056B0001382118298E0928321E12083C091B72F59
:1056C000D091B82F2A853B85208F318FE0E8F3E019
:1056D0002CE322839083238391832DEB3AE2209362
:1056E000952E3093962E15968C93E0E0F9E02FEFEF
:1056F00030E026A337A312A613A614A615A610827F
:105700001682178280831092000A1092B92CECEB5B
:10571000FCE2108212821182DF91CF91089581E024
:1057200080932606BEDBE0E0F9E010821782E0E01D
:10573000FAE010821782ECEBFCE2118212821082F6
:105740000895E0E0F9E08FEF94E086A397A380E668
:10575000848780E387838FEF90E086AB97AB88E008
:105760008093870608951F920F920FB60F9211240F
:1057700008B60F9218BE0BB60F921BBE2F933F9325
:105780004F935F938F939F93EF93FF931092070A2A
:105790001092000A109247091092400980918103EB
:1057A0008E7F8093810384B195B180FF1AC0379BAF
:1057B00003C086B1869503C086B18695806886B998
:1057C00084B195B1019684B995B987709927892BD1
:1057D00041F4EAB1FBB1CF0101968AB99BB986B118
:1057E000808384B195B187709927892BC9F0E4B182
:1057F000F5B186B144B155B193E0F695E7959A9528
:10580000E1F7E75EFD4C90E04770552728E030E077
:10581000241B350B02C0959587952A95E2F7808366
:1058200081E08093BD2C1092BE2C8FEF9FEF809370
:10583000260A9093270A1092200A1092210A1092A9
:10584000060A1092070A1092030A84E08093000A65
:1058500083E08093B92CFF91EF919F918F915F919D
:105860004F913F912F910F900BBE0F9008BE0F905C
:105870000FBE0F901F9018951F920F920FB60F92A8
:10588000112408B60F9218BE0BB60F921BBE8F9351
:10589000EF93FF93E0E8F3E081818F7C8183E0E088
:1058A000FAE088E8838381E08083FF91EF918F9114
:1058B0000F900BBE0F9008BE0F900FBE0F901F9061
:1058C00018951F920F920FB60F92112408B60F92DF
:1058D00018BE0BB60F921BBE8F939F93EF93FF934F
:1058E00080916009109260091092610993E0909391
:1058F0004009813520F4813308F472C01BC0813720
:10590000E8F484B195B180FF2EC086B18695806899
:1059100086B984B195B1019684B995B987709927F4
:10592000892B41F4EAB1FBB1CF0101968AB99BB949
:1059300086B1808386B1869580682CC086B18695B5
:10594000806886B984B195B1019684B995B987709C
:105950009927892B41F4EAB1FBB1CF0101968AB9AD
:105960009BB986B1808386B18695806886B984B1FB
:1059700095B1019684B995B987709927892B41F41F
:10598000EAB1FBB1CF0101968AB99BB986B1808398
:1059900086B1869586B984B195B1019684B995B9D9
:1059A00087709927892B41F4EAB1FBB1CF010196A9
:1059B0008AB99BB986B1808386B1869586B984B150
:1059C00095B1019684B995B987709927892B41F4CF
:1059D000EAB1FBB1CF0101968AB99BB986B1808348
:1059E000FF91EF919F918F910F900BBE0F9008BE8A
:1059F0000F900FBE0F901F9018950F931F93CF938A
:105A0000DF93CDB7DEB7DA95CDBFDEBF8091BE2C78
:105A1000882309F483C08EB19FB14091080450914E
:105A200009042091BA2C3091BB2C842B952B821B1E
:105A3000930B20911E2030911F202F5F3F4F28177E
:105A4000390708F06BC01092070A1092000A1092F2
:105A5000470910924009809181038E7F80938103D2
:105A600084B195B180FF1AC0379B03C086B186957B
:105A700003C086B18695806886B984B195B10196D8
:105A800084B995B987709927892B41F4EAB1FBB1A4
:105A9000CF0101968AB99BB986B1808384B195B153
:105AA00087709927892BC9F0E4B1F5B186B144B16B
:105AB00055B113E0F695E7951A95E1F7E75EFD4CD1
:105AC00090E04770552728E030E0241B350B02C0DA
:105AD000959587952A95E2F7808381E08093BD2C88
